:020000040000FA
:104000001C51FFFF0100009442424242FFFFFFFFAC
:10401000FFFFFFFFFFFFFFFFFFFFFFFFFFFFFFFFB0
:10402000000102030405060708090A0BFFFFFFFF52
:1040300002438E025D06FFFFFFFFFFFFFFFFFFFF52
:10404000FFFFFFFFFFFFFFFFFFFFFFFFFFFFFFFF80
:10405000FFFFFFFFFFFFFFFFFFFFFF02626FFFFF9A
:10406000FFFFFF026104FFFFFFFFFFFFFFFFFFFFF6
:10407000FFFFFFFFFFFFFFFFFFFFFFFFFFFFFFFF50
:10408000FFFFFF025D7CFFFFFFFFFFFFFFFFFFFF62
:10409000FFFFFFFFFFFFFFFFFFFFFF0254DCFFFFFB
:1040A000FFFFFFFFFFFFFFFFFFFFFF025551FFFF75
:1040B000FFFFFF025B63024A87010000288702348A
:1040C000870100005F8710428503000086020252CC
:1040D0008703000081020250870100002886023415
:1040E000870100005E8710928502000000000252E6
:1040F000870300008302025087010000108600C081
:10410000010000000F81DD8177810784A4809D82FA
:1041100000801C866883358433863E82E8820000F6
:10412000030000010000000000000000140030FF48
:104130000000B4000028002800283075A000A0006E
:10414000A000A00000080008E001F000100010002E
:10415000100010001000100050005000500010001F
:104160001000D0070000000000000F000100050053
:10417000307507001000010081FF00000000FFFF04
:10418000FFD765F565DD651366FF02020208025080
:1041900000A0000000E803024A8701000025870212
:1041A0003487010000401B0254870100008603028F
:1041B0003487010000411B0256870100009C030266
:1041C0003487010000421B024E870100009E03025B
:1041D0003487010000431B023E870800009F030252
:1041E0003487010000441B023A87010000451BFF91
:1041F0000100FF20024A870100002E870234870158
:104200000000A91B0236870000000000025287034D
:104210000000CD0317003D6C3D6C3D6C3D6C3D6C6A
:104220003D6C3D6C3D6C3D6C3D6C3D6C3D6C3D6C46
:10423000AD6EBF6EA76E02024A8701000031870291
:1042400034870100005D87024487010000030802F3
:1042500034870100005B87024287010000F7850276
:1042600034870100005A87024087010000928402CF
:1042700034870100005C87023C8701000031850221
:104280003487010000EC1B0238870100006286FFC2
:10429000FF0001307503020106000000000000006D
:1042A000000000000000000000000000000000000E
:1042B0000000000000FFFF0600800CE8030100B0D2
:1042C000423BAAB83F0000003F8C906339AA0CA380
:1042D0003A00941E3C8042633DCFFE753E1572311C
:1042E0003F0000803FF304353F8096184B0000806C
:1042F000BF2292D43EDD9B2A3F04000040FFFF7F97
:104300007FFFFF7FFF010080341872313FE5C75403
:10431000F84404F5C779012200000080FB12430D28
:10432000B90003024378E479437815B800028004A9
:10433000F709D8FCE479587802B800028004F7093C
:10434000D8FCE490028078ED79188002F0A3D8FCC4
:10435000D9FA7A6C7B1A9040B6785879038015E4C4
:1043600093A3AD82AE838A828B83F0A3AA82AB83B0
:104370008D828E83D8E9D9E77582037583867405AB
:104380001243A075821875834374001243A075D040
:104390000075815F754180754202759F0002431D63
:1043A000C09FF59FE473D09F22D083D082C09FE44A
:1043B00093C0E0740193C0E0740293F59F22E0661D
:1043C000701008A3E066700A08A3E066700408A3F2
:1043D000E06622C3E7960809E7960809E796080908
:1043E000E796A2D265D03322C3E09608A3E09608F0
:1043F000A3E09608A3E096A2D265D03322C021C3E1
:10440000E096F52108A3E096422108A3E096422118
:1044100008A3E0964221A2D265D033E5217001D3F2
:10442000D02122C3E7960809E7960809E79608090C
:10443000E79622C3E09608A3E09608A3E09608A3B7
:10444000E09622C021C3E096F52108A3E096422120
:1044500008A3E096422108A3E09645217001D3D03D
:104460002122080808E630E711124D8412447A0828
:104470000808C64480C618181822181818E9799E2A
:10448000C608CAC608CBC608CCC6C370207996CA6F
:10449000CBCC7019798ECBCC70137986CC700EF999
:1044A000802ACA33CACB33CBCC33CC331930E7F2B2
:1044B000CCCBCA3350147004EA30E00DE4CA3ACAD7
:1044C000CB3BCBCC3CCC500209C3E913C6CC182360
:1044D00013C6CB18C6CA18C6F92212451A20F01402
:1044E00030E72B74FFFCFBFA747F8022E4FCFBFABC
:1044F0007480801AB48008BC00F2BB00EF800F50BB
:10450000EBF9E4C39AFAE49BFBE49CFCE499C6CC87
:1045100018C6CB18C6CA18C6F922E4C9C608CAC646
:1045200008CBC6D3330308CCC63392F0C3947F4084
:104530002E94184019C9B90704CACBCC225025C300
:1045400009CA33CACB33CBCC33CC33D9F422F46091
:104550000DC9CCC313CB13CBCA13CAD9F6CC22E4F2
:10456000FCFBFA2214FCFBFA22E626184618461831
:104570004622E72719471947194722181818E6084D
:1045800046087009E626087005E633F42208221969
:104590001919E70947097009E727097005E733F496
:1045A000220922E6084608C3134608336002E633B0
:1045B000F422E7094709C3134709336002E733F4DC
:1045C000221245A360251245B2602012456970038E
:1045D000024572080808E76670101819E766700A45
:1045E0001819E76670041819E76622F4221245A329
:1045F000601C1245B260171245697007124572704F
:1046000001D322C0D01245727006D0D0B322C3228B
:1046100033D0D0501430E0F6C3E7960809E7960887
:1046200009E7960809E796B32220E0D5E69708093E
:10463000E6970809E6970809E697B3221245A360B2
:104640001B1245B260161245697007124572600C64
:10465000B322C0D01245727005D0D022C32233D00D
:10466000D0501330E0EBC3E7960809E7960809E756
:10467000960809E7962220E0E4E6970809E69708FD
:1046800009E6970809E69722001245A3604F1245F4
:10469000B26012E7548066F612457B7011124572C3
:1046A000703B090909F4F618F618F618F6221245B7
:1046B0008F701512456908080860EAE6447FF6180D
:1046C000768018E4F618F6221245696016124572D3
:1046D0007012E4F608F608F608E65480F6090909AF
:1046E00018181822EAC0E0EBC0E0ECC0E0EDC0E032
:1046F000E687F0A4FBACF008E687F0A42CFCE435D8
:10470000F0FA1809E687F0A42C4B60027401CA3550
:10471000F0FCE433FB09E687F0D2F7A42CCB35F0AC
:10472000FC1908E687F0A42BCC35F0FBE433FD0838
:1047300019E687F0D2E7A42C4ACB35F0CD3400FC43
:1047400009E687F0D2E7A42DCC35F0FDE433FA0971
:1047500018E687F0D2F7A42CCD35F0CA3400FC0857
:10476000E687F0D2E7D2F7A42ACC35F07A7E20E7AC
:104770000B0ACB33CBCD33CDCC33CC33CB3350142E
:104780007004ED30E00ED2F1E4CD3DCDCC3CCC3B1D
:104790005005DA05C2F1EB547FC63308E63392F0D8
:1047A000FBE73309E733C39A502D2B70190C0D4CDE
:1047B0004D70151806E608C333700D20F10AA2F0FB
:1047C00013F6E418800B4024E4F630F002768018EB
:1047D000F618F618F68024D33B14501074FFA2F09C
:1047E00013F6187680E418F618F6800FA2F013F688
:1047F00018E63303F618ECF618EDF6D0E0FDD0E03D
:10480000FCD0E0FBD0E0FA221245B260461245A38C
:10481000603DE9687008F618F618F618F6227480FC
:1048200067F712483C090909748067F7221245A30B
:10483000601D1245B27005191919801A12457B7056
:104840001F12458FC37003E6673319191940071803
:1048500018182208080874FFF618F618F618F62239
:1048600012458F6017124572702192F012456970DF
:1048700019501720F014080808090909E7F6181953
:10488000E7F61819E7F61819E7F62212456960E607
:10489000E869701F0808E62480F608E436F6185424
:1048A0007FB47F0CE654806007F6E418F618F62211
:1048B000181822E9C6CC08C6CD08C6CE08C6CFC097
:1048C000E0E8C0E0EAC0E0EBC0E009E9F809E7FA97
:1048D00009E7FBE6F918E6F8C3EC98ED99EE9AEBD8
:1048E000C2E7F5F0EFC2E795F0500E600CEBCFFB9E
:1048F000EACEFAE9CDF9E8CCF8EAA2E7D2E7FAEB9A
:1049000033FB13F5F0EEA2E7D2E7FEEF33FFC5F07D
:1049100013A2E730E601B313C5F0C3C0E0C0F07FD7
:1049200000C39BFB605E9418600F401D14601AD09A
:10493000E023F9D0E0F8024A0E8AF0E9486003D299
:10494000F0E4AFF0FAF9F8803BEB30E40D89F0EADF
:104950006003D2F0E4AFF0F9CAF8EB30E30D88F071
:10496000EF6002D2F0AFF0E4CAC9F8EB540760146C
:10497000FBC3EA13FAE913F9E813F8EF135002D274
:10498000E0FFDBEDD0E0C0E030E739C3E49FFFF5A6
:10499000F0EC98FC42F0ED99FD42F0EE9AFE42F008
:1049A000D0E0F9D0E0F8E5F0607AE923F9EE20E70D
:1049B00042D8028067C3EF33FFEC33FCED33FDEEEA
:1049C00033FE80EAEC28FCED39FDEE3AFED0E02320
:1049D000F9D0E0F84002801BC3EE13FEED13FDECAE
:1049E00013FCEF135002D2E0FF08B800067F7F747B
:1049F000FF802EEF3350178CF020F00260100CBCBB
:104A0000000C0DBD00080EBE000408E860DFE933AD
:104A1000E813FFEE2313FE4F4D4C8008E95480FF4E
:104A2000E4FEFDFCEE33EF33F47004FCFD7E80D039
:104A3000E0FBD0E0FAD0E0F8D0E0CFC618CEC61840
:104A4000CDC618CCC6F9221245A370041818182236
:104A50001245B2700D74FFF61819F61819F61819E8
:104A6000F622E7548066F6124569700F124572709F
:104A7000F014F608F608F608F680D1124572700CAC
:104A8000F608F608768008E6447F80EC12459270BE
:104A90000C12457E60BFE65480F6E480BB12457E72
:104AA000700519191980A5E869700C763F18768091
:104AB00018F618F6E8F922E6CDC0E018ECC0E0E6FA
:104AC00033CD33CDD313F6E719FCE7191933CC33C3
:104AD000C3947F400ECD9D502408E65480F6E41820
:104AE000F6800FF4043D14501408E6447FF618765F
:104AF00080E418F618F6D0E0FCD0E0FD22CCD31309
:104B0000CCFD18E4C6CBC0E018E4C6CAC0E0080873
:104B1000ED08C633E613F618E433C675F003C3CACE
:104B200097CA09CB97CB199C40047D08802EBD0005
:104B300003024BF016B6FF050606081618C3CA3363
:104B4000CACB33CB33CA27CA09CB37CB193CC37D79
:104B500008803E187D0820E75CC633C6CA33CACB3E
:104B600033CB33DDF1D5F0EB30E77BCA97CA09CB05
:104B7000974ACB199C406F4B7025E620E021806658
:104B8000187D08C3CA97CA09CB97CB199CD3C633E3
:104B9000C6CA33CACB33CB3350C9DDE7D5F0E1D336
:104BA000E4C636C608C636C608C636C608C636C601
:104BB0001818188031C3CA97CA09CB97CB199CB370
:104BC0004097C633C6CA33CACB33CB33DD34D5F0B6
:104BD0002EC6A2E0C640C8CA27CA09CB37194A70F8
:104BE000BECB3CB480B90808E63308E633601F1832
:104BF0001818D0E0FAD0E0FBD0E0FCD0E0FD22189D
:104C00007D08CA27CA09CB37CB193CD3808013F65D
:104C100018E4B67F11F618B6FF0EF618C60470D267
:104C20000808768080CAF618F618F680C5080808C5
:104C3000EAC0E0EBC0E086F0E7A4FA180986F0E7E6
:104C4000A42AFA180986F0E7A42AFA180986F0E7D8
:104C5000A42AFA1986F0E7A4FBE5F02AFA190886D7
:104C6000F0E7A42BFBE5F03AFA190886F0E7A42B4D
:104C7000FBE5F03AFA18180986F0E7A4C5F02BFB1B
:104C8000E43AFA1908E7C5F0C6A426F6E5F03BFBBE
:104C9000E43AFA1886F0E7A4F6E5F00826F6E43BD5
:104CA00008F6E43A08F6D0E0FBD0E0FA22E4CFC000
:104CB000E0E4CEC0E0E4CDC0E0E4CCC0E075F0209C
:104CC000E626F608E633F608E633F608E633F61885
:104CD0001818EC33FCED33FDEE33FEEF33FFC3EC7D
:104CE0009709ED9709EE9709EF97191919400FFFEA
:104CF000EC97FC09ED97FD09EE97FE191906D5F022
:104D0000BFECF709EDF709EEF709EFF7191919D01C
:104D1000E0FCD0E0FDD0E0FED0E0FF22124D87188D
:104D20001818124CAD124D7319191922124D73191E
:104D30001919080808E618181820E7E0124CAD12F7
:104D40004D8718181822090909E719191920E7DCF5
:104D5000080808E618181820E703024CAD124D8722
:104D6000181818124CAD124D87181818124D7319D7
:104D7000191922E4C397F709E497F709E497F709AB
:104D8000E497F722181818E4C396F608E496F60894
:104D9000E496F608E496F6226017080808C6A2E72B
:104DA00013C618C613C618C613C618C613C6D5E050
:104DB000E9226016080808C6C313C618C613C61829
:104DC000C613C618C613C6D5E0EA2270090808083B
:104DD000226016181818C6C333C608C633C608C6DC
:104DE00033C608C633C6D5E0EA22E627F60809E648
:104DF00037F60809E637F60809E637F622E026F620
:104E000008A3E036F608A3E036F608A3E036F6225B
:104E1000E026F008A3E036F008A3E036F008A3E0AF
:104E200036F022C3E697F60809E697F60809E697F2
:104E3000F60809E697F622C3E0C696F608A3E0C690
:104E400096F608A3E0C696F608A3E0C696F622C337
:104E5000E096F008A3E096F008A3E096F008A3E03F
:104E600096F022E056F608A3E056F608A3E056F6C0
:104E700008A3E056F622E056F008A3E056F008A397
:104E8000E056F008A3E056F022E647F60809E647A8
:104E9000F60809E647F60809E647F622E046F00874
:104EA000A3E046F008A3E046F008A3E046F022E0C5
:104EB00066F008A3E066F008A3E066F008A3E066E9
:104EC000F022E0F608A3E0F608A3E0F608A3E0F677
:104ED00022E6F008A3E6F008A3E6F008A3E6F02235
:104EE000E0FAA3E0FBA3E0FCA3E0FD22EAF0A3EBE1
:104EF000F0A3ECF0A3EDF022E0FCA3E0FDA3E0FEC4
:104F0000A3E0FF22ECF0A3EDF0A3EEF0A3EFF0227C
:104F1000E0F8A3E0F9A3E0FAA3E0FB22E8F0A3E9BC
:104F2000F0A3EAF0A3EBF022CAC0E0E6F0A308DAAF
:104F3000FAD0E0FA22CAC0E0E0A3C582CCC582C59F
:104F400083CDC583F0A3C582CCC582C583CDC5837F
:104F5000DAE6D0E0CA22C3E498F8E499F9124F9750
:104F60008026C3E49AFAE49BFBE920E7E9124F9715
:104F7000E498F8E499F922C3E498F8E499F9124F17
:104F800097E498F8E499F9C3E49AFAE49BFB22EBDE
:104F900020E7CFE920E7E0B90010BB0008E88AF07D
:104FA00084F8AAF022E4FBC8FA22EB70227B10C836
:104FB00033C8C933C9335007C39AC3DBF280069A9A
:104FC00050012ADBEAC833F4C8C933F4C9FA2275A0
:104FD000F008E4C833C8C933C933C99AC99B50041F
:104FE000C92AC93BD5F0ECFBC833F4C8E4C9FA229E
:104FF000600D08C6A2E713C618C613C6D5E0F32293
:10500000600C08C6C313C618C613C6D5E0F42270D8
:105010000422600D18C6C333C608C633C6D5E0F4F3
:105020001822254110AF08F541400C15428008F5C3
:105030004140021542D2AF2200C0D0254110AF0836
:10504000F541500C05428008F54150020542D2AFAF
:10505000D0D0222541F58210AF08F541400C154211
:105060008008F54140021542D2AF85428322254196
:10507000F582E43542F583222541F8E43542F922F0
:105080002541FAE43542FB222541FCE43542FD226C
:10509000E4732541C582C0E0E54234FFC583C0E02A
:1050A000E541C3958224F810AF088583428582418B
:1050B0008008858342858241D2AFCEF0A3E520F0FF
:1050C000A37821E608F0A3DEFAEFF0A3E58124FA45
:1050D000F8E608F0A3E608F0A3E608F0A30808E65F
:1050E00008F0A3E608F0A315811581D0E0FED0E01A
:1050F000F8158115811581E8C0E0EEC0E022254158
:10510000C582C0E0E54234FFC583C0E0E541C395F8
:105110008224F910AF088583428582418008858307
:1051200042858241D2AFCEF0A3E520F0A37821E6FC
:1051300008F0A3DEFAEFF0A3E58124FBF8E608F01F
:10514000A3E608F0A30808E608F0A3E608F0A31514
:10515000811581D0E0FED0E0F815811581E8C0E02E
:10516000EEC0E022854283854182E0A3FEE0A3F504
:10517000207821E0A3F608DFFAE0A3FFE0A3C0E077
:10518000E0A3C0E0E0A3C0E0E0A3C0E0E0A3C0E093
:1051900010AF0885824185834280088582418583DE
:1051A00042D2AFD083D0820243A68542838541821A
:1051B000E0A3FEE0A3F5207821E0A3F608DFFAE003
:1051C000A3FFE0A3C0E0E0A3C0E0E0A3C0E0E0A351
:1051D000C0E010AF08858241858342800885824106
:1051E000858342D2AFD083D08222C0D02541C582F0
:1051F000C0E0E54234FFC583C0E0E541C3958224A9
:10520000F310AF08858342858241800885834285FB
:105210008241D2AFC8F0A3E9F0A3EAF0A3EBF0A378
:105220007921E709F0A3D8FAECF0A3EDF0A3EEF0B2
:10523000A3EFF0A3D0E0F0A3D0E0F0A3D0E0F0A380
:10524000E520F0A3E5F0F0A322854283854182E0CA
:10525000C0E0A3E0F9A3E0FAA3E0FBA37821E0F625
:1052600008A3DFFAE0FCA3E0FDA3E0FEA3E0FFA3B8
:10527000E0C0E0A3E0C0E0A3E0F5D0A3E0F520A308
:10528000E0A3F5F010AF0885834285824180088550
:105290008342858241D2AFD082D083D0E0F8D0E083
:1052A0003274048006740280027401C0E0F40412B7
:1052B0005053D0E0124F28227404800474028000FE
:1052C000CCC0E0EDC0E0E541C39CCCAD4250011D37
:1052D00010AF068C418D4280068C418D42D2AF12B8
:1052E0004F35D0E0FDD0E0FC22D083D082C5F0E481
:1052F00093A3C5F0C395F0F5F0E493A3C395F040F4
:1053000005E5F0048001E475F002A42582F582E54C
:10531000F03583F583E493A3C0E0E493C0E022D0AA
:1053200083D082E9C0E0E493A3C386F0C5F095F092
:10533000F908E493A386F0C5F095F0700BE493A30D
:10534000C3994005E9048002A3E475F002A4258214
:10535000F582E5F03583F583D0E0F9E493A3C0E06E
:10536000E493C0E022D083D082E9C0E0E493A3C3F9
:1053700086F0C5F095F0F908E493A386F0C5F095A2
:10538000F0702408E493A386F0C5F095F070190836
:10539000E493A386F0C5F095F0700E08E493A3C3E0
:1053A000994007E9048004A3A3A3E475F002A425AF
:1053B00082F582E5F03583F583D0E0F9E493A3C06C
:1053C000E0E493C0E022D083D082CCC0E0E493A399
:1053D00060061253F01470FAE493A3600612540F9F
:1053E0001470FAD0E0FCE493A3C0E0E493C0E022A0
:1053F000C0E0E493A3D39C5010E493A3C39C400A61
:10540000D0E0D0E0D0E00253E3A3A3A3D0E022C0D9
:10541000E0E493A36C7009D0E0D0E0D0E00253E365
:10542000A3A3D0E022D083D082ECC0E0EDC0E0E4C2
:1054300093A3FCE493A3FDED4C600D125471EC2496
:10544000FFFCED34FFFD80EFE493A3FCE493A3FDA8
:10545000ED4C600D1254B0EC24FFFCED34FFFD80E8
:10546000EFD0E0FDD0E0FCE493A3C0E0E493C0E023
:1054700022C0E0C3E49396087401939618400FE4A9
:105480009366700808740193661870007019A3A3DE
:10549000C3E49396087401939618A3A3400DD0E03B
:1054A000D0E0D0E0025461A3A3A3A3A3A3D0E02241
:1054B000C0E0C0F088F0E493667008087401936659
:1054C000187000A8F0A3A3700BD0F0D0E0D0E0D00B
:1054D000E0025461A3A3D0F0D0E022FFC0E074EF5B
:1054E0001251EAA2AFE433FFD2AFA889E5AB58F579
:1054F000216054F4F589C2C57E00EEF523752400C1
:105500007402782312500F1255BEE9FBEA4B70303B
:10551000E8131313541F5407F8E521B80002800460
:10552000C313D8FCA2E05018752300752402EE784E
:105530002312500FAA23AB24900280E0F912711DB0
:105540000EEEC3940440B3EFA2E092AF7F04025288
:1055500049C0E074EF1251EAA2AFE433FFD2AFA822
:105560008AE58D58F5216054F4F58AC2EB7E00EE91
:10557000F5237524007402782312500F1255BE745F
:10558000406A497030E8131313541F5407F8E5219B
:10559000B800028004C313D8FCA2E05018752300A1
:1055A000752402EE782312500FAA23AB24900280B8
:1055B000E0F912711D0EEEC3940440B38089744566
:1055C0002523F58274083524F583E0F8A3E0F9E893
:1055D00054C0FA2274F61250FEEAFEEBFF8C218DC5
:1055E00022EA2434F8E43FF9E8FCE9FDEA24351224
:1055F000597BFAEE243712597BF88521F0A4C8852F
:10560000F0238522F0A42523F9EA28F8E439F97A71
:10561000257B00124F97EA8C828D83F0FA131313C7
:10562000541F12596F245DF582E439F583E0C0E020
:1056300074075AF8D0E0B800028004C313D8FCA263
:10564000E0EE50082434F582E43F801424361259E9
:105650007BF5F0EA84A8F01259702438F582E43919
:10566000F583E0F97F030251AA74F71250FEEAFEB7
:10567000EBFFEA243412597BC0E0EA2435F582E4DA
:105680003FF583D0E0F08A828B83A3A3A3A3A3A3D7
:10569000A3C082C0838A828B83A3A3A3A3A3E0F8C1
:1056A000A3E0F9D083D082E0C398F521A3E099F577
:1056B00022EA248012597B6401703EEA2481F5823B
:1056C000E43FF583C082C0838A828B83A3A3A3A314
:1056D000A3E0240108A3E03400F9D083D082E0687D
:1056E0007003A3E06970127C757D05126B7DEE245A
:1056F00080F582E43FF583E4F0AC21AD22EEFAEFD1
:10570000FB1255D4E9F91260F67F020251AAC08259
:10571000C083854182854283E0F8A3E0F9C3EA9C17
:10572000EB9D5010C3EC98ED99401BC3EA98EB99A0
:105730005014800EC3EA98EB994007C3EC98ED999A
:105740004004790180027900D083D08222EAC39C90
:10575000FAEB9DFB2274EF1250FE900435E06408D2
:105760006005E06407702A9061C8E06024900463DB
:10577000E0F4601DE0F875F010A4C8AAF02AF974EE
:105780006528FE740439FF8E82F583A3A3A3E0701D
:105790000302586E906060E0C0E0EE2468F582E499
:1057A0003FF583D0E0F07525E67526057521007577
:1057B0002200E5D914F523E5D95403F527602F74A9
:1057C000036527601DE5236008EE246712597B609E
:1057D0001D9005E1E06401602C1259786012780494
:1057E0008010125978602CE523C3940550258063FE
:1057F0007800E523C398FA95E0FB126A3F8A218B73
:1058000022EA4B7005126D99806412597870048AEF
:10581000258B26E5236012852582852683F524E5E0
:10582000D9F0A31524E52470F6125978604574FC6C
:105830002523F52378251252A5AC23A927EEFAEFEC
:10584000FB126C377402125038E97027AA21AB2280
:10585000127153793D8E828F83A3A3A3A3E0FA7BB9
:10586000001268B3EEFAEFFB126BA1126C497900DB
:1058700002596A740365276053E523F529752A00E8
:1058800078291252A5AC25AD26AA21AB22126BFBBA
:105890007402125038EE246812597B6480700474CC
:1058A0007F8001E0F52578251252A9E527F52578B6
:1058B000251252A9A923AC21AD22900463E0FA7B02
:1058C0000012688974021250380259658525828554
:1058D0002683E0C3940E5011E0F874C028F582E4EA
:1058E0003485F583E065236069852582852683E01C
:1058F000C0E0EE24F7F582E43FF583D0E0F0A2AFFC
:10590000E433FCC2AF7A0080010AEE246E12597BA8
:10591000F8EAC3985013EA12596F246AF582E43901
:10592000F583E0640770E28022EE246EF8E43FF92C
:10593000E0FAEE2AFAE43FFBEA246AF582E43BF55A
:10594000837407F088828983E004F0ECA2E092AFD0
:105950008013900435E06408600BAC25AD26EEFAA8
:10596000EFFB126CC1126DA579017F0A0251AAF8F2
:10597000EE28F8E43FF9E822EE2484F582E43FF5CE
:1059800083E02274F11250FE74FC125022EAFEEB06
:10599000FF8922752600A2AFE433F521C2AF90053E
:1059A0007DE0FA9061D0E0F8748098F895E0F9C352
:1059B000EA98E499A2D265D0334003025A6D752665
:1059C00001025A6DE0601B78231252A5AC27A9286A
:1059D000EEFAEFFB126C3174021250387404252772
:1059E000F52774012527F5D98528D9E52760128583
:1059F0002382852483F525E0F5D9A31525E52570B7
:105A0000F675E195EE2463F8E43FF97A007B00A295
:105A1000AFE433F523C2AF88828983E0FCA3E0FDC5
:105A2000EC4D603A88828983E0FAA3E0FB8C82F532
:105A300083E0FCA3E0FD88828983ECF0A3EDF08A8B
:105A4000828B83E4F0A3F088828983E0FCA3E0FDED
:105A5000EC4D700A88828983A3A3E4F0A3F0E523C8
:105A6000A2E092AF12715390057CE004F0EE246343
:105A700012597BF8A3E0F9E8496063EE24631259F8
:105A80007B2402F8A3E034008882F583E5822402B7
:105A9000F523E43583F524E0F527A3E0F528EE248B
:105AA0006212597B640170369061D0E0F812597827
:105AB00060047C0480027C007480C398FA95E0FB4B
:105AC000E5272CF8E43400F9E82402F8500109C372
:105AD000EA98EB99A2D265D03340030259C4906191
:105AE000D0E0F87480C39890057DF0E5266053906F
:105AF000057CE0604D90057EE0F890057CE0C39861
:105B0000500C74026522703A90057FE060348E82FA
:105B10008F83A3A3A3A3E0854182854283125B52B6
:105B2000740212506EE8125B5290057BE028F0740C
:105B300002125088AA41AB4279011268D790057CC5
:105B4000E4F0E521A2E092AF74041250387F08021D
:105B500051AAF0A3E4F090057CE0F82285508785F7
:105B600051C622C0E074EB1251EAA2AFE433F52132
:105B7000C2AF759B00906182E0A2E0502DE591A23A
:105B8000E050277591FE74016550701E125CDA12A8
:105B90005CF11252B8125EA57404125038E9640127
:105BA00070057901126D3F125755906182E0A2E5B0
:105BB000505AE591A2E550547591DF900435E064A8
:105BC000076005E06408702C125CDA74016550709F
:105BD0003B125CF11252B8125EA57404125038E9FF
:105BE000640170057901126D3F7901EEFAEFFB1245
:105BF00059838018E0640D7013900457E004F0643A
:105C0000287002E4F07A00E0F9126DAB906182E056
:105C1000A2E64003025CAFE591A2E64003025CAF5E
:105C20007591BF900435E064057008126CEB126C3E
:105C3000F78003126CF1755000126D4BE990043639
:105C4000F07900126D3F126AF37A017B0090043400
:105C5000E0F912711D907803E0644270529005E5FE
:105C6000E014F0704AC2AF125C6A007859D0E0F6D6
:105C700018D0E0F6E59F540770047BFF80027B7F1D
:105C8000C4C0E07858E6F52308E65BF524740B7889
:105C900023125000D0E02523F8906270E0A2E74084
:105CA000F8E8C333906272F0906270E0D2E0F09056
:105CB0006181E0A2E35009E5E9A2E3500375E9F749
:105CC000A3E0A2E75009E591A2E7500375917FE5B3
:105CD00021A2E092AF7F08025249900463E0F87578
:105CE000F010A4C8AAF02AF9746528FE740439FFDC
:105CF00022126D038E828F83E0F8A3E0C82416F58C
:105D000082E438F58322C0E0C0D0C082C0839061B5
:105D100083E0A2E05009E5BFA2E0500375BFFEE0BA
:105D2000A2E15009E5BFA2E1500375BFFDE0A2E288
:105D30005009E5BFA2E2500375BFFBE0A2E35009A2
:105D4000E5BFA2E3500375BFF7E0A2E45009E5BF49
:105D5000A2E4500375BFEFE0A2E55009E5BFA2E55C
:105D6000500375BFDFE0A2E65009E5BFA2E650038D
:105D700075BFBFD083D082D0D0D0E032C0E074F203
:105D80001251EAE5A7A2E6500FE5A1A2E650095399
:105D9000A7BF75A1BF125DD0E5A7A2E5500CE5A194
:105DA000A2E5500653A7DF75A1DFE5A7A2E15009E0
:105DB000E5A1A2E1500375A1FDE5A7A2E2500CE523
:105DC000A1A2E2500653A7FB75A1FB7F0102524935
:105DD00074F71250FE755001900435E0640670159A
:105DE000126C6D8A828B83A3A3A3A3A3A3E0FAA35F
:105DF000E0FB126CD9A2AFE433FED2AF90043BE0DB
:105E0000640170187A207B00900434E0F912721952
:105E10007A207B00900434E0F9127123906182E0D3
:105E2000D2E6F09005E2E0602185C651801690042C
:105E30003AE064017008E5C654F84405F5C653BE5F
:105E4000FC125B5C7401655060E4EEA2E092AF7FEF
:105E5000020251AA8E528F538582578583568541FF
:105E600082854283E0CEA3E0CF855782855683EBBF
:105E7000C9EAC8EDCBECCA75F010C3E833C8E93302
:105E8000C9EA33CAEB33CBC3EA9EF555EB9FF55411
:105E9000B35004AB54AA55EC33CCED33CDD5F0DA86
:105EA000AE52AF532274F11250FE8A218B228C2302
:105EB0008D249086C57821124E63740F12506E782F
:105EC00025124EC29086C57825124E637821792519
:105ED000124423908705501078217925124E23789B
:105EE000211244434014800E78257921124E2378E4
:105EF0002512444350047901800279007F08025141
:105F0000AA74ED1250FE8A218B228C238D24908658
:105F1000C57821124E63741312506E7825124EC24A
:105F20009086C57825124E63782579211244234046
:105F30001178217925124E23AA21AB22AC23AD245E
:105F40008022752900752A00752B00752C0178298F
:105F50007925124E2378297921124DEAAA29AB2AF4
:105F6000AC2BAD2C7F0C0251AA9086C57821124E25
:105F7000C28A828B837821124E767F040251AA74E2
:105F8000F51250FE8C828D837821124EC28A828B4C
:105F9000837821124E4F125FD7C3E09CF0A3E09D9F
:105FA000125FC940229086D17821124EC28A828B1C
:105FB000837821124E108A828B83A3A3A3A3E024AB
:105FC00020F0A3E0344EF080A0F088828983C3E003
:105FD0009420A3E0944E22EA2404F8E43BF98C8256
:105FE0008D83A3A3A3A3E0FCA3E0FD888289832281
:105FF00074F51250FE900598E0FAA3E0FBE929F849
:10600000E433F9745228F582748539F583E02AF572
:1060100021A3E03BF52278211252A59086A1124ED1
:10602000E0125E5474021250388A218B228C238D28
:106030002474107821124DB2AA21AB227F040251A0
:10604000AA74F11250FE8A258B268C278D28741194
:1060500012506E1252BC741112506EE02401F521E0
:10606000A3E03400F522E4F523F524782579211204
:106070004C2D9087117821124EC278257921124C2F
:106080002DAA25AB26AC27AD28125E5474021250FF
:1060900038EA4B60047A0180027A00EC2AFCE43D85
:1060A000FD741312506EE0F8A3E0F9E8FEE9FFEC8E
:1060B000F8EDF97A717B02124F9788218922E4F575
:1060C00023F5248E828F837821124ED1ECF8EDF9DE
:1060D0007A717B02124F978A218B227405782112E4
:1060E000500F8E828F83A3A3A3A3E521F0A3E52203
:1060F000F07F080251AAC082C083E9906000F0D00E
:1061000083D08222C0E074F21251EA74FF1250224E
:10611000A2AFE433FEC2AF906231E024A0600E244F
:10612000B8607024B0700302623A0262299008439A
:10613000E07005126FE5804D906230E0C2E21262BD
:1061400069900840E4F0A37404F0906230E0A2E3A8
:106150004022A3E064A0601C900840E0F8A3E0F9AE
:10616000E824FFFAE934FFFB900840EAF0A3EBF0E3
:10617000E84970D6906232E0854182854283F09092
:106180006230126266900843E0F912625A1250902F
:1061900002623A900844E0605F900837E0F99008A6
:1061A00044E0F87401687007906230E0C2E2F0E900
:1061B000FA74422AF582E43408F583E090623212E0
:1061C0006251906230E0A2E34006A3E064A070F266
:1061D000906231E064B8600AE064C86005E064C0C1
:1061E000700A0918E86005E064C070B7E9900837E4
:1061F000F0E8900844F08027790012625A1250901B
:10620000E97021906230E0C2E2F0906232E4126202
:1062100051906230E0A2E34006A3E064A070F290E7
:1062200062308013539AFD8011906230E0D2E41204
:106230006269E0A2E440FB126266EEA2E092AF1255
:1062400062C5758B00C2E874011250387F0102529A
:1062500049F0906230E0C2E3F022900834E0F8A305
:10626000E0F583888222E0D2E2F0E0C2E3F022C0CF
:10627000E0C0D0E8C0E0A8A8D2AFC2C7E8A2E792C9
:10628000AFD0E0F8D0D0D0E032C2AF02000022128E
:1062900043A904D1031243A91FD2031243A9C3D4B3
:1062A000031243A936D5031243A94BD5031243A9C0
:1062B0004ED5031243A9ADD5031243A933D6031219
:1062C00043A9BBD6031243A9BBD7031243A94FCEA0
:1062D000021243A930CF021243A9EDCF021243A903
:1062E00065D1021243A908D2021243A981D2021237
:1062F00043A93AD4021243A944D5021243A993D523
:10630000021243A986D6021243A93AD7021243A920
:1063100015D8021243A98AD8021243A9B3DC02128B
:1063200043A90080011243A91C80011243A9F381F3
:10633000011243A9E082011243A93D83011243A93E
:106340008183011243A9B183011243A9FD84011283
:1063500043A97985011243A9EF85011243A96886F3
:10636000011243A97687011243A90E88011243A99D
:10637000338A011243A97C93011243A9C7930112E6
:1063800043A9EE93011243A93E94011243A96B94D1
:10639000011243A90EBE011243A952BE011243A924
:1063A000EEBE011243A948C2011243A9C1C701129E
:1063B00043A9FEC7011243A9E4CF011243A9D0D0DB
:1063C000011243A917D1011243A931D2011243A9E5
:1063D0007BD3011243A9CDD3011243A973D4011277
:1063E00043A99CA3041243A9AFA3041243A9DEA3AB
:1063F000041243A916A4041243A95FA4041243A9DA
:10640000A2A4041243A9E8A4041243A91BA50412E0
:1064100043A942A5041243A971A5041243A9A8A542
:10642000041243A9C1A5041243A910A6041243A94A
:1064300029A6041243A971A6041243A9A5A6041211
:1064400043A9FEC0031243A9FCC1031243A962C2BF
:10645000031243A985C2031243A987C2031243A9A9
:10646000C5C2031243A936C3031243A9F6C30312DC
:1064700043A918C4031243A9B4C4031243A9EBC42B
:10648000031243A930C5031243A93DC5031243A912
:10649000ADC5031243A9F7C5031243A9FAC50312F8
:1064A00043A940C6031243A943C6031243A94DC6DC
:1064B000031243A9C0C6031243A9E8C6031243A9A5
:1064C0001BC7031243A93FC7031243A93CC80312C9
:1064D00043A9E0C8031243A94CC9031243A988C9C0
:1064E000031243A9E797041243A90F98041243A982
:1064F0003C98041243A97498041243A9DA98041230
:1065000043A92499041243A98899041243A9D09954
:10651000041243A90D9A041243A93B9A041243A9F9
:10652000D09A041243A9DA9A041243A9E79A0412F2
:1065300043A91A9B041243A9269B041243A93E9B1C
:10654000041243A9489B041243A93EFF021243A927
:1065500056FF021243A96DFF021243A9AC7200124A
:1065600043A94F73001243A98A74001243A93375DB
:10657000001243A9BB76001243A9A377001243A9D6
:106580009A78001243A9D078001243A972790012B8
:1065900043A99879001243A9647B001243A9AA7BFE
:1065A000001243A9CC7B001243A9387C001243A9F6
:1065B000037D001243A9BD7D001243A9C97F0012CB
:1065C00043A928D8031243A904D9031243A9AED979
:1065D000031243A9EFD9031243A976DA031243A9A0
:1065E000F1DA031243A9C4DB031243A9EDDB031262
:1065F00043A9E1DC031243A91EDD031243A906DE11
:10660000031243A937DE031243A95DDE031243A937
:10661000B3BD041243A9DEBD041243A9EEBE0412A9
:1066200043A9C19F041243A9D79F041243A9F59F10
:10663000041243A905A1041243A90FA1041243A9FE
:1066400039A2041243A926A3041243A992A3041257
:1066500043A997F9021243A9C4FA021243A9FBFA0B
:10666000021243A952FB021243A94AFD021243A996
:1066700013AC021243A99AAC021243A9EEAD021266
:1066800043A975AE021243A981AE021243A9F9AE25
:10669000021243A9E1AF021243A9DDB0021243A9DD
:1066A000A9B1021243A903B3021243A919B30212FA
:1066B00043A93AB3021243A9CCB3021243A942B48C
:1066C000021243A968B4021243A915B7021243A9E2
:1066D0001AB7021243A93EB9021243A985B90212A0
:1066E00043A9EBB9021243A931BA021243A901BB73
:1066F000021243A9B6BB021243A912BC021243A95B
:1067000015BC021243A961BC021243A99DBC02122E
:1067100043A9DCBC021243A9FEBC021243A932BD4C
:10672000021243A9A0BD021243A90FF0031243A90C
:106730001DF0031243A96DF0031243A98CF003125C
:1067400043A9D6F0031243A919F2031243A9B1F2E7
:10675000031243A9F5F2031243A91FF3031243A93D
:106760008AF3031243A9CEF3031243A951F403128F
:1067700043A900F5031243A9ADD5011243A947D699
:10678000011243A9A3D6011243A961D7011243A95B
:10679000E9D7011243A90CD9011243A93CD901122E
:1067A00043A96BD9011243A921DB011243A974DD6E
:1067B000011243A9D3DF011243A9BCE0011243A98E
:1067C000ACE1011243A97FE3011243A977E601126C
:1067D00043A994E7011243A98EE9011243A99DEA56
:1067E000011243A92CEC011243A918ED011243A98F
:1067F00067ED011243A9D7ED011243A9F3ED011290
:1068000043A944EE011243A9E4F2011243A9FAF3A9
:10681000011243A9B2F4011243A9D98F041243A96A
:10682000E38F041243A92B90041243A93F90041252
:1068300043A9D090041243A90791041243A942919D
:10684000041243A96B91041243A9BF91041243A9F6
:10685000D491041243A9F691041243A90B92041295
:1068600043A94592041243A97192041243A9BA9212
:10687000041243A93093041243A97393041243A949
:106880009D93041243A9C893041243A98D83051252
:1068900043A9A5A3031243A97EA4031243A9EDA40F
:1068A000031243A928A5031243A963A6031243A90F
:1068B00015A7031243A9C2A9031243A96DAA031283
:1068C00043A94EAB031243A9C4AC031243A92CAD98
:1068D000031243A96187041243A9CC88041243A977
:1068E0000A8B041243A972B4041243A91FB50412FF
:1068F00043A918B6041243A955B6041243A918FEB9
:10690000031243A977FE031243A914FF031243A9FC
:1069100047FF031243A975FF031243A9B0FF0312F7
:1069200043A9D0FF031243A912F5031243A99BF513
:10693000031243A95AF6031243A968F7031243A9A5
:1069400088F9031243A93598031243A94A98031200
:1069500043A91599031243A9E299031243A94F9A37
:10696000031243A98A9A031243A92B9B031243A93A
:10697000349C031243A90C9D031243A98F9D03125B
:1069800043A9189E031243A9819E031243A90B9F9A
:10699000031243A9589F031243A9C69F031243A998
:1069A00068A0031243A916A1031243A936A103123A
:1069B00043A97AA1031243A9C2A1031243A9DEA1EC
:1069C000031243A9FDA1031243A977A2031243A90D
:1069D00085A2031243A918A3031243A982A3031299
:1069E00043A9A78B041243A9238C041243A9618CE9
:1069F000041243A9458D041243A9B48D041243A97E
:106A0000F88D041243A93B8E041243A9688E041228
:106A100043A9868E041243A9BE8E041243A9FB8E9D
:106A2000041243A91C8F041243A9928F041243A994
:106A30005ABE021243A9EEBF021243A92CC202128F
:106A400043A974C2021243A99FC2021243A995C36B
:106A5000021243A9C5C3021243A91CC4021243A9CE
:106A600049C4021243A992C4021243A9CEC402121D
:106A700043A913C5021243A960C5021243A9C8C5A0
:106A8000021243A9FAC7021243A9C1C9021243A9BB
:106A9000FCC9021243A97ACB021243A9BECB02124F
:106AA00043A931CC021243A992CC021243A91ACDB8
:106AB000021243A939CE021243A94ACE021243A9B7
:106AC000D1AD031243A942AE031243A90BB4031282
:106AD00043A905B5031243A9C7B6031243A945B795
:106AE000031243A90080021243A98780021243A91E
:106AF000B480021243A9F680021243A9F281021265
:106B000043A93782021243A9B383021243A93B84EB
:106B1000021243A9AE84021243A96B85021243A953
:106B20002786021243A9A786021243A9758702127B
:106B300043A99B87021243A90D88021243A9B18879
:106B4000021243A9D688021243A94289021243A91C
:106B5000A889021243A9DE89021243A9828A02127D
:106B600043A91B8B021243A99E8B021243A90A8CD4
:106B7000021243A9568C021243A9BC8C021243A9EB
:106B8000ED8C021243A9A18D021243A9B78E021205
:106B900043A9008F021243A91D8F021243A9FD943D
:106BA000021243A94595021243A93296021243A943
:106BB0005796021243A96C96021243A9D496021268
:106BC00043A91497021243A92798021243A9D49803
:106BD000021243A96EB7031243A9B9B7031243A91E
:106BE000C5B7031243A990B8031243A9A6B803126C
:106BF00043A9E2B8031243A91BB9031243A953B92D
:106C0000031243A9A9B9031243A9BFB9031243A9A7
:106C1000FBB9031243A90EBA031243A935BA0312F2
:106C200043A969BA031243A93DBB031243A9CCBCD3
:106C3000031243A9C8BD031243A9D1BE031243A93D
:106C4000FA7F001243A944DD021243A97FDD02123C
:106C500043A983E0021243A9D5E1021243A99AE2B3
:106C6000021243A994E5021243A97EE6021243A947
:106C7000C9E6021243A9E3E6021243A920E7021281
:106C800043A92BE7021243A96AE7021243A973E75B
:106C9000021243A934E8021243A9F1E8021243A9FF
:106CA00054E9021243A9B8E9021243A939EA0212CF
:106CB00043A90699021243A9629C021243A9689C47
:106CC000021243A9A9A3021243A981A8021243A94F
:106CD0000DA7041243A9D7A7041243A91BA80412A5
:106CE00043A955A8041243A9E7A8041243A956A929
:106CF000041243A95FA9041243A96BA9041243A972
:106D00007FA9041243A9A3A9041243A9D3A9041279
:106D100043A9D8AC041243A9E5AC041243A9FFACC3
:106D2000041243A932AD041243A96FAD041243A962
:106D3000D5AD041243A9EAAD041243A9F5AD04127E
:106D400043A902AE041243A919AE041243A927AE07
:106D5000041243A932AE041243A93EAE041243A961
:106D60004DAE041243A958AE041243A978AE0412E2
:106D700043A988AE041243A99EAE041243A9BCAE37
:106D8000041243A9C7AE041243A9DCAE041243A9FE
:106D9000F0AE041243A951AF041243A957AF041235
:106DA00043A95DAF041243A963AF041243A975AFB1
:106DB000041243A90580031243A99380031243A937
:106DC0006F81031243A9A381031243A9B681031261
:106DD00043A93082031243A9B883031243A9DF8376
:106DE000031243A96684031243A9A584031243A98D
:106DF000B684031243A92B85031243A94A850312C3
:106E000043A96285031243A9A686031243A9B08849
:106E1000031243A9E28A031243A9E88B031243A990
:106E20002B8C031243A9A48C031243A9AE8C03122A
:106E300043A9D08C031243A9DC8C031243A9298EE9
:106E4000031243A9568E031243A9778F031243A955
:106E5000B98F031243A9FF90031243A96091031253
:106E600043A99591031243A9CE91031243A97995A1
:106E7000031243A99095031243A90E96031243A946
:106E80001C96031243A96596031243A97396031235
:106E900043A9F496031243A96397031243A9AF973A
:106EA000031243A91BF5011243A93DF5011243A9A1
:106EB00019F7011243A991FA011243A9DBFB011250
:106EC00043A9BDFC011243A958BA041243A97DBAD3
:106ED000041243A9EEBA041243A9AEC9031243A98E
:106EE000B7C9031243A9C0C9031243A9E4CA0312D4
:106EF00043A9D5CC031243A903CD031243A92ECD38
:106F0000031243A95CCD031243A987CD031243A901
:106F1000C5CD031243A9F1CD031243A92ECE03120E
:106F200043A959CE031243A9A5CE031243A9FCCE0F
:106F3000031243A93CCF031243A98BCF031243A9E9
:106F4000B6CF031243A9FCCF031243A92AD00312E0
:106F500043A955D0031243A978D0031243A9D67F81
:106F6000001243A9E07F001243A9F07F001243A959
:106F70006BB8041243A992B8041243A9BDB8041215
:106F800043A9B386051243A9BBF9031243A90BFA1F
:106F9000031243A945FB031243A9B4FB031243A9FF
:106FA00058FC031243A977FC031243A9C5FC031242
:106FB00043A907FD031243A9E4BF041243A9A38513
:106FC000051243A9B385051243A9BC85051243A93F
:106FD0000086051243A9A184051243A92485051240
:106FE00043A98A85051243A90080051243A9A380FD
:106FF000051243A9EC80051243A9C887051243A9CD
:10700000CA87051243A9D187051243A943870512F0
:1070100043A95587051243A94EE5031243A91FE66C
:10702000031243A945E6031243A95DE6031243A9EF
:1070300067E6031243A9B3E6031243A9B6E60312B7
:1070400043A9DEE6031243A957E7031243A97BE7EE
:10705000031243A9E2E7031243A935E8031243A947
:1070600077E8031243A9A0E8031243A9BFE803127B
:1070700043A9DCE8031243A9F9E8031243A9FCE899
:10708000031243A901E9031243A903E9031243A927
:107090003AE9031243A93FE9031243A961E9031244
:1070A00043A97EE9031243A9A9E9031243A9CAE946
:1070B000031243A9FEE9031243A912EA031243A9EA
:1070C0009CEA031243A9CDEA031243A9D7EA0312AB
:1070D00043A917EB031243A960EB031243A998EBF2
:1070E000031243A9EEEB031243A90BEC031243A9CD
:1070F00014EC031243A959EC031243A982EC0312C6
:1071000043A997EC031243A907ED031243A994ED99
:10711000031243A9E8ED031243A90BEE031243A99E
:107120008AEE031243A9C5EE031243A9FAEE031235
:1071300043A90CEF031243A928EF031243A931EF2F
:10714000031243A9E3EF031243A95E86051243A984
:1071500009BC041243A95ABC041243A9E3BC04129B
:1071600043A94DBD041243A9A8AF041243A9D0AF4F
:10717000041243A9C5B0041243A9EAB0041243A9FA
:1071800079B1041243A94081051243A93682051240
:1071900043A95082051243A96182051243A96FB623
:1071A000041243A9A5B6041243A9D8B6041243A9F0
:1071B00031B8041243A925BF041243A92FBF0412FA
:1071C00043A9CDDE031243A908DF031243A939DF27
:1071D000031243A9B3DF031243A9A0E0031243A99A
:1071E00099E1031243A91AE3031243A9CEE3031260
:1071F00043A937E4031243A9F093041243A9069468
:10720000041243A9AA94041243A9E994041243A9BD
:107210000695041243A93795041243A984950412D4
:1072200043A9B795041243A9F295041243A983EB2D
:10723000021243A90DEF021243A99CF0021243A9C6
:10724000ECF0021243A903F1021243A922F1021247
:1072500043A97FF1021243A90FF3021243A9E2F3FB
:10726000021243A919F8021243A901F9021243A913
:10727000DEFF031243A902AA041243A96F8205127A
:1072800043A983BF041243A963B2041243A9FD8634
:10729000051243A97E87051243A9D69B041243A970
:1072A000AA8705FFFFFFFFFFFFFFFFFF74F21250E9
:1072B000928922EAFEEBFF8C2375211274FE6E7018
:1072C0000374FF6F701890036B127B5E606A127319
:1072D0003D60657AFE7BFFA922125090805274FFB8
:1072E0006E700374FF6F703590036B127B5E6013DA
:1072F00012733D600E7AFF7BFFA922125090E9F5D0
:1073000021600CAA23A922126589E9F5217029E5DB
:1073100022900377F0E523900378F0801B127948E0
:107320006016E06522700EA923EEFAEFFB126823C7
:10733000E9F5218003752103A92102775AE0F5833D
:107340008882E0F8A3E08882F583E5824583227491
:10735000EE125092EAFEEBFFEA2402F527E43FF535
:1073600028EA2404F525E43FF526EA2406F523E47B
:107370003FF524EA2408F521E43FF522852182F532
:10738000831252BC8523828524831252BC852582B8
:107390008526831276B58527828528831277791210
:1073A00068E37404125038E9700579020274657953
:1073B000018E828F83127779126A03E9700579143E
:1073C0000274658E828F831277997057901B34E018
:1073D000F47003A3E0F4600579110274658E828F66
:1073E0008312775F12786A85278285288312788BCB
:1073F00090036F12786A85258285268312788B9098
:10740000037112786A85238285248312788B900316
:107410007312786A85218285228312788B90037596
:1074200012786AE4F529F52A78291252A5782912EA
:1074300052A58521828522831252BC852382852410
:10744000831252BC8525828526831252BC852782F1
:107450008528831276B58E828F831277791268F52C
:10746000740A12503802752EFAE43522FB1270C9E4
:10747000740222E0F583888222127FA8241BF58201
:10748000E438F58312777DEA4B2274EE12509212A3
:107490007C30AE21AF22EA4F700302752EEA242021
:1074A000F521E43FF522741212506E124F1085211F
:1074B00082852283124F1C7A267B001264E7EAF54C
:1074C0002370078E828F83E0F523852182852283B6
:1074D0007825124EC28E828F83A3A3A3A3E0F52446
:1074E0007A0E127C2460478A828B8374D0F0A3E4E6
:1074F00012787A7409127882E524127DB31252A5AB
:10750000EE2405FCE43FFDEA2404127468125038AE
:10751000852182852283A3A3A3A3A3A3A3A3A3A3BB
:107520007825124ED1AA21AB22A9231270F97F0A25
:1075300002516474EA1250928A258B26EA4B70033A
:107540000276B08A828B83A3A3A3A3A3A3E07005D2
:107550007524088003752404900367127B5E600520
:107560001274738003901AE5E0F523900380127B78
:107570005E600F127473A3A3127342600579001248
:107580005090E5252407F527E43526F528E5252440
:1075900008F521E43526F522AA21FB8527828528D6
:1075A00083E0F9126511E9FB852782852883F0E5E0
:1075B000252403FEE43526FFE5252404F52DE435D6
:1075C00026F52EE525240EF529E43526F52AE525B0
:1075D0002414F582E43526F583E0F52B752C00782C
:1075E0002B1252A5E5252412F582E43526F58312E7
:1075F00052BCE5252410F582E43526F5831252BCF1
:10760000852982852A831252BCE524F52578251226
:1076100052A9852D82852E831252BCAC21AD22AA9F
:10762000238E828F83E0F9126577740B1250388EA7
:10763000828F83E0704175251775260078251252D8
:10764000A5852982852A831252BC78241252A978F2
:10765000211252A5852782852883E0FD7C01852D96
:1076600082852E83127779A9231269EB7407125051
:1076700038E98E828F83F0900367127B5E6003127D
:10768000659B900377E0602812778A60238E828F53
:1076900083E0FB74316B6013852D82852E83127617
:1076A000B5900377E0FAEBF912657D900377E4F08B
:1076B0007F0E025164E0FCA3E0FD2274F2125092AE
:1076C000EAFEEBFF752300EA2403F8E43F8821F586
:1076D000228882F5831277838A828B83E5824583B1
:1076E000600FE0F523852182852283127779126964
:1076F000F1900377E0600E6523700A12778A602AA2
:10770000900377E4F0E52360218E828F83A3A3A307
:10771000A3A3E0FB8521828522831276B5AA238E5E
:10772000828F83A3A3E0F912657D900369127B5ECB
:107730006003126595852182852283127799701ADC
:1077400085218285228312775FE0687003A3E06958
:107750007008901B3474FFF0A3F07F06025164128E
:10776000788F901B3422F8E43FF98882F583E52373
:10777000F0A3E524F08882898312777D22E0FAA3C2
:10778000E0FB2212777D1269F722900378E0FA90ED
:107790000377E0F9126589E92212777D126A09E917
:1077A00064042274F012509289228A258B218C2342
:1077B0008D247A14127938700302785F127870740D
:1077C00005127882E521F0EA2404FAE43FFBE52380
:1077D0004524601775270675280078271252A5AC36
:1077E00023AD2412746D12503880097C067D007917
:1077F000001270E1741012506E12788B8E828F839B
:10780000A3A3A3A3A3A3A3A3A3A312786A7412128E
:10781000506EE0C0E0127D9BD0E0F0741312506E09
:10782000127895240D127864741512506E127895A2
:10783000240F127864741712506E12789524111266
:107840007864741912506EE0C0E0EE2413F582E4FF
:107850003FF583D0E0F0EEFAEFFBA9251270F97F37
:1078600008025164F582E43FF583E8F0A3E9F022D1
:107870008A828B8374D0F0A3E522F08A828B83A363
:10788000A322F08A828B83A3A3A32212788F22E003
:10789000F8A3E0F92212788FEE2274F21250928946
:1078A000228A21ECFEEDFF8B237A067B001270ED1D
:1078B000EA4B60191278707406127882EEF0A3EF2A
:1078C000127882A3A3E523F0A9211270F902775A56
:1078D00074F012509289258A218B228C238D247A70
:1078E0000C127938604FAA21AB22127948700390AC
:1078F0001AE5E0F98E828F8374D0F0A3E525127B20
:10790000307407127B30A3A3E521F0A3E522F08EAB
:10791000828F83127954741012506E127962127B26
:107920003E741212506E127962A3A3127B3EEEFADD
:10793000EFFB1270F902785F7B001270ED8A278BE3
:1079400028AE27AF28EA4F221269F78A828B83E597
:1079500082458322A3A3A3A3A3A3E523F0A3E52445
:10796000F02212777D8E828F83A3A3A3A3A3A3A368
:10797000A32274F6125092EAFE1269FD8A828B836A
:10798000E5824583600BEEF9A312777912682380B4
:107990000279127F0202516474EC125092892A8A91
:1079A000238B248C29127CC57003027B19900369F8
:1079B000127B5E7003027B197A0E7B00127BA2128F
:1079C0007B5C60027A29127B536008EA2414FAE493
:1079D0003400FB741412506EE0F525A3E0F526E5A3
:1079E0002545266007EA241BFAE43BFB127FC312FD
:1079F0007B586007EA2416FAE43BFB127DA570036E
:107A0000027B197C0E127CB68A21EA4B700985270D
:107A100082852883E0F5218E828F8374D0F0A3E5E0
:107A20002A127B30740AF08E828F831279578E82ED
:107A30008F83A3A3A3A3A3E529F0EE240EFAE43FCA
:107A4000FB8A23F524900369E02419F8A3E03400AD
:107A5000F9E8FCE9FD8882127B5C60198E828F83D5
:107A6000A3A3A3A3A3A3127B3E127B1E1252A512B3
:107A70007B44125038900369E0241DFCA3E03400DD
:107A8000FD8C82127B5C6020EE2408127766EA246B
:107A900014F523E43BF52475271475280078271284
:107AA00052A5127B44125038E52545266016EE2477
:107AB0000A127766127B1E1252A5AC25AD261274EF
:107AC0006D125038900369E0241BF8A3E03400F9EC
:107AD000E8FAE9FB8882127B5C6032EE240CF8E461
:107AE0003F8825F5268882F58312795A7523167505
:107AF000240078231252A58A828B831276B58525BD
:107B00008285268312777912746D125038EEFAEF5F
:107B1000FBA9211270F91265957F0C025164EA24C9
:107B20001BF523E43BF52475271B752800782722D5
:107B3000F08E828F83A3A322F582E438F583EAF0E6
:107B4000A3EBF0228C828D83E0FCA3E0FD1270C9D0
:107B5000740222127FA8241DF582E438F58312787E
:107B60008FE84922C082C083900369127B5E602B3C
:107B7000127BA212748260031271AD1274796003D9
:107B80001271AD127FBD12747E60031271AD90034D
:107B900069127BC5900369E4F0A3F0D083D0820220
:107BA00043A6E82419F582E43922C082C0839003F9
:107BB00067127B5E600D900367127BC5900367E4DC
:107BC000F0A3F080D612777D1271AD2274F01250BE
:107BD0009289258A238B24127C30EA4B60437A26D3
:107BE0007B001264E78A278B28AE27AF28EA4F7004
:107BF00008852182852283E0FE7A05127C2460219B
:107C00007C057D0079001270E1127CDA740EF0853B
:107C10002182852283127957AA21AB22EEF91270B4
:107C2000F902785F7B001270ED8A218B22EA4B22E9
:107C30001269F78A218B222274EE1250928925EA6A
:107C4000FEEBFF8C238D24127CC560677A0B127CBF
:107C50002460607C0B127CB68A298B2AA829A92A69
:107C6000EA497008852782852883E0F8127CDA7457
:107C70000F127CD5EEF0A3EF127CCFE523127CCF60
:107C8000A3E524F0741212506E127CF4F0741312F7
:107C9000506E127CF4A3F0741412506EE521240986
:107CA000FCE43522FD7402124F35AA21AB22E8F91B
:107CB0001270F902752E7D0079001270E17A267B30
:107CC000001264E7221269F78A278B28EA4B2212F6
:107CD0007CD5A3A322127CEAA3228521828522835C
:107CE00074D0F0A3E525127CEA22F085218285225A
:107CF00083A3A322E0852182852283A3A3A3A3A338
:107D0000A3A32274EE1250928A238B24892712692E
:107D1000F78A258B26EA4B607F7A0D7B00127DA5C2
:107D200060767A267B001264E78A21EA4B70098527
:107D30002582852683E0F5218E828F8374D0F0A37F
:107D4000E4127B30740B127DB31252A5E525240595
:107D5000FCE43526FDEE2403FAE43F12746C125065
:107D6000388E828F83A3A3A3127954EE240BF5825D
:107D7000E43FF583E527A2E0500474018001E4F0BC
:107D8000127D9BE527A2E1500474018001E4F0EE2E
:107D9000FAEFFBA9211270F902752EEE240CF58280
:107DA000E43FF583221270ED8A218B22AE21AF22AF
:107DB000EA4F22F0752906752A0078292274E81204
:107DC000509289298A28ECFEEDFF8B27ECFAEDFB17
:107DD000127C30741812506EE0F525A3E0F526747D
:107DE0001A12506EE0F52DA3E0F52E741C12506EA1
:107DF000E0F52FA3E0F530741E12506EE0F523A3DA
:107E0000E0F524EA4B7003027EDDE5296003027E83
:107E1000DDEA2403F582E43522F583E0D2E4F0E5DF
:107E200027A2E2E05004D2E18002C2E1F0E525455C
:107E3000267012E52D452E700CE52F45307006E5B5
:107E40002345246063E0D2E2F0E5234524602D124F
:107E50007FB1124F10E5212420F582E43522F5830D
:107E6000124F1C752B10752C00782B1252A5AC23C9
:107E7000AD24E5212410127468125038E521242421
:107E8000F52150020522E52545266021E528701DD3
:107E900085218285228312748460031271AD7C1B5C
:107EA0007D00AA25AB268027E0C2E2802FE52D4584
:107EB0002E602A7401652870248521828522831210
:107EC000748460031271AD7C1B7D00AA2DAB2E1251
:107ED00070D5852182852283EAF0A3EBF0900369B7
:107EE000127B5E7003027FA3E52545266036127B78
:107EF000A2127B5C700F7A1B7B001271A7127FA805
:107F00002419127B38127FA8241912747E6015750B
:107F1000211B75220078211252A5AC25AD261274C2
:107F20006D125038E52F4530602F127FC3127B58F9
:107F3000700D7A167B001271A7127FC3127B381264
:107F40007479601575211675220078211252A5AC3E
:107F50002FAD3012746D125038E5234524602F1276
:107F60007B53700D7A147B001271A7127FBD127BB8
:107F700038127FBD12747E60157521147522007849
:107F8000211252A5AC23AD2412746D125038782DF5
:107F90001252A5AC27EEFAEFFBA92912658F7402E5
:107FA0001250387F10025164900369E0F8A3E0C8D2
:107FB00022E5232410F582E43524F58322127FA8DC
:107FC000241D22127FA8241B22C082C08390036D2F
:107FD000127B3E027B9BC082C083E9900800800830
:107FE000C082C083E9900801F0D083D0820243A60A
:107FF000C082C083E990080280EE0243A6FFFFFF23
:10800000C082C083854582854683E06420700A85EE
:108010004683A385824585834602837A74F4125091
:1080200092A845A946AC45AD468019A3AA82AB8368
:108030008A828B83E0FE74206E60F074096E60EBC0
:10804000EAFCEBFDECFAEDFB8A82F583E075F00DBE
:1080500084AEF0EE2EFEE433FF74BA2EF582741A6D
:108060003FF58312D2298004ECFAEDFB8A828B83E0
:10807000E0FE74276E600574226E70351281DE8A10
:10808000828B83A3AA82AB838A828B83E0FCA3AA20
:1080900082AB831281DFEE6C60A6740A6C70E9E833
:1080A00024FFF8E934FFF9EA24FFFAEB34FFFB8000
:1080B0008F740A6E701B88828983740AF00293E9B8
:1080C0008523218524228A828B83A3AA82AB83E025
:1080D000FE852182852283A38582238583248521B1
:1080E00082852283E06E60D8E0FEC394804035C371
:1080F000E54598E5469950081281D7700318A98381
:108100001281DE852182852283E064806003028003
:1081100030852382852483E088828983F0A308A99F
:1081200083028030AA21AB228A828B83A38582219D
:108130008583228A828B83E0FAC3948040E6748030
:108140006A700D852182852283A385822185832201
:10815000852182852283E060030280688C828D8382
:108160001281EA50161281DE8C828D83A3AC82AD1F
:10817000831281EA400302804480EA88828983A3D3
:10818000AA82AB8374096E600574206E7033C3E5F8
:108190004598E5469950101281D7600B88828983F3
:1081A0007420F0EAF8EBF98C828D83A3AC82AD8366
:1081B000E0FE74206E60F074096E600302804480FB
:1081C000E6EE88828983F0EAF8EBF98C828D83A34E
:1081D000AC82AD8302804412D369E0642022EE8831
:1081E000828983F0A3A882A98322E0FE74BF2EC3F4
:1081F000941A2274E812509274FF125022E9FE8AF7
:10820000258B268C278D28752901752A00752B0052
:10821000752C007F0A9086B578251243FD401C79A5
:108220002D1270277FF680139087197821124EC285
:1082300078297921124C2D74FF2E1EEFF52D3395E0
:10824000E0F52EF52FF5308525218526228527237B
:108250008528247821792D124D46782979211243D9
:10826000D350C5EE854182854283F014FEE0C3946D
:1082700001A2D265D0334007792012702780E4EF45
:10828000C312BA9A504B7829124D87804485252D08
:1082900085262E85272F852830852921852A228528
:1082A0002B23852C24782D7921124D46E52D243061
:1082B000F9127027782D7929124C2D7825792D12F5
:1082C0004E239087197821124EC278297921124DB8
:1082D00046E529452A452B452C70B2740102CEC7CC
:1082E000C082C08312631F9002E2E4F0A312BBC3FA
:1082F000802A12CF79E875F00AA4F8ABF075F00A7D
:10830000E9A42BF9E82AF8E439F9E824D0F8E934AB
:10831000FFF99002E2E8F0A3E912BBB8E0FA74D0EA
:108320002AC3940A50159002E2C3E09499A3E09402
:10833000199002E240BC74FFF0A3F0803DC082C0FF
:10834000837A007B00854582854683E0F974226943
:108350006005742769701F854683A38582458583E0
:108360004680050AEA70010B12CEDDE0F8E968608C
:1083700009740A6870ED7AFF7BFFD083D0820243D4
:10838000A674F7125092EAFEEBFF800C1270278E53
:10839000828F83A3AE82AF838E828F83E0F970ECED
:1083A000790A127027800574021250387F01025139
:1083B0006474F012509289248A2275232012CFCB44
:1083C000F525A3E0F5269002DEE024031284F5AA49
:1083D00025AB26E4FCFDA92412632B80057920122D
:1083E000702785222574FF2525F5220470EF800B68
:1083F000EE24FE12CEFFF52185212312CFCBF521ED
:108400009002DEE02401081284F6740A65217003EC
:108410000284EDE521C394805007A92112702780C2
:10842000D77CBA7D1A802474806B7004A827A92891
:1084300088828983A3A882A983E8FEE9FF888289CC
:1084400083E0701CEC2402FC50010D8C828D8312A1
:10845000C7BBEE4F60A2EEF8EFF980E1A827A9288C
:1084600088828983A385822785832888828983E0FF
:10847000C3948040E7E0FBE5216B70AB748065211D
:10848000701D852782852883E0F5269002DE12BCC8
:1084900060E0652670919002DEE024011284F5749C
:1084A000206523600979208002A9211270278E821D
:1084B0008F83E0F521A3AE82AF83E521C394804092
:1084C000E812CFCBF874286870030283F0742C682C
:1084D00070030283F0EE24FF12CEFF64CD7003021E
:1084E00083F079201270277521200283F8790A120F
:1084F000702702BEE9F812C17912BCD32274F012BF
:108500005092E9FEEAFF752100752200752300757F
:108510002400802274D02AFAEAC39F504B8F25E4AE
:10852000F526F527F52878217925124C2D8A25780E
:10853000217925124DEAEEF974FF29FE04602F859A
:10854000458285468312BC1574D02AC3940A40C460
:1085500074BF2AC39406500474C980BA749F2AC396
:108560009406500474A980AE75490212BAF0AA218B
:10857000AB22AC23AD2402BEE974F41250928921DF
:10858000EAFCEBFD74BF29F9E521F523752400749D
:1085900002782312500F12BA1324FCFAEB34FEFBBC
:1085A000E9131313541FFE18E62EFE08E436FFEEFF
:1085B0002468F582E43FF583E0C0E0740759F8D001
:1085C000E0B800028004C313D8FCA2E0400D8C8206
:1085D0008D8374D6F0A3741AF080118A828B831273
:1085E000BC0D12BB64E8240CFAE439FB0293E97475
:1085F000EC125092EAFEEBFF12BBED5051A38582C4
:1086000045858346EEFAEFFB12BA0B8E828F8312FA
:108610009376704B854523854624790112B9F7700E
:10862000279086B578251243FD501D8E828F8312C8
:108630009359F529A3E034FFF52AE4F52BF52C78BE
:108640002979251243D3400C8523458524467A0099
:108650007B00800FE5212AF521E5223526F522AAA7
:1086600021AB227F0C02516474F2125092E9FE8A0F
:10867000218B228A258B26EA240CF8E43526F9C3BF
:10868000E498FAE499FB784CE62AFA08E63BFBC347
:10869000EA954EEB954F50067549040287718A4C56
:1086A0008B4DAC4CAD4D8A828B837403F0E5252451
:1086B0000CA312BB658A828B83A3A3A37402F0EA86
:1086C0002404F8E43DF9EE8882898312BB08A3A351
:1086D000A3A3A3A3A3E4F0A312BB2DE024BFFF1226
:1086E000BA5BFAEFF5257526007402782512500F53
:1086F000784AE62525F52508E63526F52674075F30
:10870000F87401B800028004C333D8FCFF8A828960
:1087100083E05F8C828D83A3A3A3A3A3F08A8289C5
:1087200083E04FF0852582852683124F108C828D41
:1087300083A3A3A3A3A3A3124F1C8525828526830D
:10874000ECF0A3EDF0784CE6240CFA08E436FB7468
:108750000E12506E12C198EC4D600D78211252A588
:1087600012CED71250388009AC21AD227900127098
:10877000E17F0602516474F712509274FE12502287
:10878000E5434544700302880B7543007544007E41
:10879000018005EEF912708174FF2EFE0470F479E9
:1087A000001270A57C6C7D007900AA4AAB4B127058
:1087B000E17C1C7D0079007A297B031270E17E0048
:1087C000EEF91270390EEEC3940440F47A007B0087
:1087D000127045854A4C854B4DAE47AF48801D8E83
:1087E000828F83E064057011AC41AD42A3A3A31254
:1087F000BCC1FAA3E0FB12678712D465C3EE954EA5
:10880000EF954F40DA85474E85484F0283A774F0B5
:10881000125092E9FEEA24FCFCEB34FFFD74C36EB7
:10882000701A8C828D837821124EC27821124D8766
:108830008C828D837821124ED1028A30ECFAEDFBC6
:10884000EC24FCFCED34FFFDE91252E9B111248A5D
:10885000748888889C88B888E18816892B89408923
:10886000558964897A8990899089A689BC896489A7
:10887000E589008A8A828B837821124EC28C828D90
:10888000837821124E1080B18A828B837821124E18
:10889000C28C828D837821124E4F809D8C828D8375
:1088A0007821124EC28A828B837825124EC278219B
:1088B0007925124C2D028A198A828B837825124ED3
:1088C000C2E5254526452745287003028A298C8262
:1088D0008D837821124EC278217925124D46028A65
:1088E000198A828B837825124EC2E52545264527B5
:1088F00045287003028A298C828D837821124EC20A
:1089000078217925124D4685252185262285272324
:10891000852824028A198A828B837821124EC28C80
:10892000828D837821124E76028A308A828B8378F8
:1089300021124EC28C828D837821124E9C028A3085
:108940008A828B837821124EC28C828D8378211289
:108950004EAF028A308A828B837821124EC28C827B
:108960008D83804F8A828B837821124EC28C828DB8
:108970008378211243BE605C80568C828D8378217F
:10898000124EC28A828B8378211243E8504680407F
:108990008A828B837821124EC28C828D8378211239
:1089A00043BE7030802A8C828D837821124EC28A19
:1089B000828B8378211243E8401A80148A828B8349
:1089C0007821124EC28C828D8378211243E85004A4
:1089D000D2F08002C2F0A2F0E433F521E4F522F5F2
:1089E00023F52480348C828D837821124EC28A82B2
:1089F0008B837825124EC2E5257821124DCB801944
:108A00008C828D837821124EC28A828B83782512C4
:108A10004EC2E5257821124D988C828D83782112E3
:108A20004ED1800C75490280037549037A007B00A2
:108A300002BEE974EA12509274C7125022740412F2
:108A4000506EE9F0752601E5496003028D697419DD
:108A500012507888218922AE21AF227409125078F1
:108A6000882D892E740212506EEEF0A3EFF074027E
:108A700012506EE0F5217402782112500074071232
:108A8000506EE521F0A3E522F074091250787405C8
:108A900012506E12BB64803A743912506EE5826EC9
:108AA0007003E5836F7003028BA88545828546833A
:108AB000E025E0F8E433F9742A28F582748339124A
:108AC000CF7712D597852345852446AE27AF2875E5
:108AD0002600854582854683E0F525A38582458568
:108AE00083467845E62401F52308E436F52412BAD6
:108AF000E5E52D2402F521E4352EF522EE2404F5DA
:108B000027E43FF528E5251253C6049698EC8DB36B
:108B1000C25E92CACCEC8DCED0EC8D0D0ACE8B20ED
:108B2000D28A28B88D29A88E2C338E80988A82EC20
:108B30008DB15E92B25592C8EC8DC9338CCD098C43
:108B4000F1EC8D458B74D02525C3940A50397439C6
:108B500012506EE5826E7003E5836F604B8A458B21
:108B6000468E218F22AE27AF287A0A79FF126349F9
:108B7000EAF8EBF9ECFAEDFB852182852283124FAE
:108B80001C754900028ACF74BF2525C3941A503E34
:108B90001293677019741912506EC3E5219582E51E
:108BA0002295835003028E00754904028D69743941
:108BB00012506EE5826E7003E5836F60EB8A828BE4
:108BC00083124F108E828F83124F1C028ACB8A45EC
:108BD0008B46740512506EC3E0952DA3E0952E4090
:108BE000030292F7E52D24FEF52DE52E34FFF52E38
:108BF000EEFAEFFB852D82852E83E012931712503B
:108C00006E12934240CC028D62743912506EE5822E
:108C10006E7003E5836F60908E218F22AE27AF28A0
:108C20007A1079FF126349852182852283124EECE6
:108C3000028B81854582854683E064286003028D2E
:108C400062852345852446854582854683E0F974FF
:108C50009F696003028CD875230012631F12BA202B
:108C6000E0A2E7401285824585834624D0F5236043
:108C700003028D6212631F854582854683A3E0F956
:108C800074A769600874A8696003028D62854582D3
:108C9000854683A3A3E064296003028D6285458233
:108CA000854683A3A3A385824585834674391250E4
:108CB0006EE5826E7003E5836F7003028BA88E21D0
:108CC0008F22AE27AF2874A76970047A5280027A87
:108CD00057A923127093805D18E62402FA08E4363F
:108CE000FB74A469705CA3E0F974A769600574A8BB
:108CF00069706F8A828B83E06429706685458285FE
:108D00004683A3A3A3858245858346743912506E9A
:108D1000E5826E7003E5836F7003028BA88E218F4E
:108D200022AE27AF2874A76970047A5280027A575E
:108D300079001270B1E985218285228312BB690214
:108D40008ACF742269702F8A828B83E06422702616
:108D5000854582854683A3E024BFC3941A5003024D
:108D60008ACFE54970037549027A007B007C007D5B
:108D700000743902D35B74BF29C3941A50E485454B
:108D800082854683A3E0642970D8743912506EE559
:108D9000826E7003E5836F7003028BA88A458B4651
:108DA000AA41AB4212936D70B9129349F8A3E03413
:108DB000FFF912D597028ACB741912506EE58265BD
:108DC0002D7004E583652E7003028BA87407125082
:108DD0006EE0F98E238F2474027823125000E5236D
:108DE000C399852D82852E83A3F0801474191250A7
:108DF0006EE582652D7004E583652E7003028BA8F5
:108E0000852D82852E83E525F085212D85222E75E1
:108E10002601028AD2E52D24FEF52DE52E12933788
:108E2000F86428602D12931212506E129342400380
:108E3000028D627409125078E52D687003E52E6981
:108E400070D3740412506EE064026003028D6202FB
:108E50008BD2E52D2402F52D5002052E028ACF90EB
:108E6000034512D22974067821125000F523F52407
:108E70009087217825124EC278217925124C2D90A9
:108E8000870D7825124EC278217925124D468E82A3
:108E90008F837821124ED1028F7E12931212506E60
:108EA0001293424003028D62E52D24FEFAE52E3432
:108EB000FFFB8A2DF52E8A82F583E0F8642870DAAC
:108EC000A3E0FC740712506EE0F98E218F22740229
:108ED0007821125000E521C399C39CFC74091250FB
:108EE00078EA687002EB69700D740412506EE064E9
:108EF000017003028BD2740512506EC3E0952DA34E
:108F0000E0952E4003028AD2EA24FEF52DEB12935F
:108F100037F525EC706FEE2404F529E43FF52AE5DA
:108F200025247E603824B7600D147003028E5F2400
:108F3000FC6017028D628E218F22AE29AF2A12703B
:108F4000578521828522830291128E218F22AE299C
:108F5000AF2A79001270BD12BA8002916F794C78F5
:108F60004EE7C396FA0809E796FBEAF8EB3395E07B
:108F7000FA8E828F83E812C165A3EAF0A3F0AE29CE
:108F8000AF2A028E0F74016C60030291D212932AF1
:108F9000124EC2E525246A70030290FC147003028D
:108FA000910214700302910824D0601924FE603BE2
:108FB00024FC604D24FE700302915424DF700302F0
:108FC00091180291769086B578211243FD4005787C
:108FD00021124D8785212585222685232785242852
:108FE00012D3C27825124ED1028E0F1270E78A2555
:108FF0008B26E4F527F52878257921124D46029233
:109000004C90870978211244435003028D62E52178
:1090100075F007A4F521A8F075F007E522A428F55E
:109020002274292521F52974033522F52A85298200
:10903000F583A3E07003028D62E5292402F52BE499
:10904000352AF52C852982852A8312BD55124DCBF0
:109050009086D97825124DFD852B82852C8312BDF3
:10906000C5124E89AA25AB26AC27AD281262FB8A11
:10907000218B22A821A922EA496072852982852AAA
:1090800083A3A3A3A3E0FA88828B83A3A3E06A70DF
:1090900057852982852A8312BCA2F5223395E0F5F3
:1090A00023F52474107821124DCB9086D9782112A3
:1090B0004DFD852B82852C8312C1B5852982852A99
:1090C00083A3A312D216124F978A258B26E4F52785
:1090D000F52878217925124E89AA21AB22AC23AD3F
:1090E000241262FBEA4B60057521008003752101A3
:1090F00075220075230075240002924CAA21790084
:10910000800AAA2179018004AA21790212639712A8
:10911000D3C2124EEC028E0F852226E526548060C3
:1091200003028D62852125AA25E526540FFBC394F1
:1091300004400D9086BD78211243FD4003028D62EC
:10914000EE24FCFCEF34FFFD127231E96003028D66
:1091500062028E0FE52145224523452460047901F2
:10916000800279001270BDEB3395E0FC12D3C2127D
:10917000C164A3EC804F74BF2525C3941A504C12D0
:1091800093676003028D629086B578211243FD409B
:1091900003028D62129353F525A3E034FFF526E414
:1091A000F527F528782579211243D34003028D62F3
:1091B000EA2521F582EB3522F583E0FA12D3C2EAE3
:1091C000F0A3E4F0A3F0A3F0028E0F8A2D8B2E0201
:1091D0008E0F74026C6003028D62EE24F812932DE0
:1091E000124EC278211244629086B97825124EC27E
:1091F0007821792512468812D3C27829124EC27876
:10920000291244629086B97825124EC278297925B0
:10921000124688EE24FCFEEF34FFFF78291252A19B
:10922000AA21AB22AC23AD241272977404125038D9
:109230008A218B228C238D249086AD7825124EC2F4
:109240007821792512468878211244DA12932A125D
:109250004ED1028E0FE526A2E050037525C3A82546
:10926000743728F582E43484F583E0F5217409121B
:109270005078E52D687003E52E696051E52D24FED8
:10928000F8E52E34FFF98882F583E0FC744F2CFA60
:10929000C39413503874E82AF582E43484F583E0EB
:1092A000FAE521C39A4026882D892EEEFAEFFBECD1
:1092B000F91263678A238B24A823A924EAFEEBFF13
:1092C000740212506E12934240A3028D62741912FE
:1092D000506EE582652D7004E583652E7003028B68
:1092E000A8852D82852E83E525F0E52D2402F52D18
:1092F0005002052E028E0F741D12506EE5826E70A4
:1093000003E5836F6003028D6212D3C2124EE00246
:109310008D71EEFAEFFBE8F91263678A218B22A8C0
:1093200021A922EAFEEBFF740222EE24FCF582EF73
:1093300034FFF58378212234FFF52E852D82F583C5
:10934000E022C3E098A3E0992285418285428312FE
:10935000935F2285418285428312935D22E0F81259
:10936000CFA7A3E024F422AA41AB42A92512634F60
:1093700085418285428312BCB064022274F6125089
:10938000927A007B0C1271A79002E012C1647C00FB
:109390007D0C79001270E19002E012BD9F2494F5DB
:1093A00082E8340BF58385824A85834B854A4CF5E8
:1093B0004D9002E012D2191262D78A478B488A4E2A
:1093C0008B4F7F0202516474F41250927AA37B8314
:1093D00012633D7A207B8512633D12BA497A2B7B5A
:1093E0008712633D80031250387F0402516474F683
:1093F000125092127033126373129459908715129F
:109400004EE01262FBEA4B60339002E0C3E0954706
:10941000A3E0954850269002E012CFCEF8A312BCEC
:10942000091252BC75210078211252A990868D1222
:109430004EE0790312703F74031250388084C0826A
:10944000C083800C79007A007B0012638B129459E0
:10945000127021E970EE02837AAC4CAD4D784EE685
:109460002402FA08E436FB12701B2274E8125092B0
:1094700074E7125022740A12506EE9F0EAFEEBFF14
:10948000E0A2E150091270579002E4124EEC7549C7
:1094900000EE4F60489002E2EEF0A3EFF0740A1283
:1094A000506EE0A2E0501E784CE624FD12BAD25075
:1094B0000302A8D28A4C8B4D8A828B837404F0A35A
:1094C00014F0A3E4F012BD7F8A828B8312BD07EAF9
:1094D0009547EB954850030296280298129002EEA9
:1094E000E4F0A3F0854E82854F83A3A38582458552
:1094F00083461263257E00740212506EEEF004FE65
:10950000E0FA7845E62AF58208E436F583E0640A55
:1095100070E5EEF8C3E498F52195E0F522EEF52329
:1095200075240078231252A5AC45AD46784C12B98B
:109530005D12702D7402125038784CE62521FA081D
:10954000E635228A45F54612633112631F9002E226
:1095500012C1F5701F854743854844854E82854F6B
:1095600083A3A3858245858346E0640A600302964F
:10957000280296159002E2E0F47003A3E0F4700371
:1095800002980B1263617845E624FDFA08E634FF81
:10959000FB8A45F546A845AA4CEAC398FE9002E22C
:1095A00012CF798545828B8312BB64EE8545828B11
:1095B00083A3A3F08545828B83A3A3A3E0640A70F1
:1095C0000F9002E212D2191263018A478B48803F42
:1095D00090029FE0D2E2F0AA4512B9457026AC4C49
:1095E000AD4D9002E012D219EEF9126313AA45AB09
:1095F0004612B945700E90029FE0C2E2F079027403
:109600001902CEC790029FE0C2E2F08847894885E0
:10961000474E85484F129459790180E3E96003026F
:10962000A0F9858245858346A845A9468882898315
:10963000A385824585834688828983E0F521784524
:10964000E6240212BAE0AE47AF48A843A944E52198
:109650001252E98028A9960B982E974797C697E152
:1096600097FA976098609830A18E98B398D7A268BF
:109670009768970C990CA58C996897B599019A24CD
:109680009A769AA49AA49AA49AF49A049B659BDA6F
:109690009B3E9CA19C419DC3B2279E569E7F9E8F60
:1096A0009EC49E09A03DA07BA08A458B46E521C3B0
:1096B0009480400302980BAA41AB421263558A2161
:1096C0008B22854582854683E064BD600302980B4A
:1096D000EA4B701512C1EF700302980B12CFAEA3C4
:1096E000A3E06402600302980B75490085458285FA
:1096F0004683A3858245858346EA4B700302A445D1
:1097000012B9CD12506E124EECE549600302980B6F
:10971000129370600302A432740612506E78251200
:109720004EC2852182852283E525F002A49D7E011B
:10973000126331854582854683E0640A600302989E
:109740000B12BD7F02A4CA12BA49794C784EE7C306
:1097500096FA0809E796FB3395E0FCFD7900126361
:109760002B7AAA7B8412633D854382854483A3A31D
:1097700085824385834412BD0712B9544003029881
:1097800012740A12506EE0A2E14003029628127091
:10979000578A258B268C278D28901AE212BC91902F
:1097A00002E47825124E37782179251243D35003ED
:1097B00002962885438285448312CFCEFAA3E0FB2C
:1097C000127045029615854582854683E0640A70CD
:1097D0003A1263611263078A478B488A4E8B4F8027
:1097E000311263619002E012BC4FC3E5439547E537
:1097F0004495485003029900801885458285468328
:10980000E024BFC3941A500302A244E549700375D3
:109810004901E54925E0F8E433F9740E28F582742E
:109820008539F58312D21912633D12B9535025E5DB
:1098300049700302961512BCC6793E127027793E14
:1098400012702779201270277A0179001263437908
:109850000A1270277404654960030296150295FD8B
:1098600012B9CD12506E124EECE549709E854582BC
:10987000854683E0640A7097740612506E124F108A
:10988000E8494A4B6003029768790002A0F912BBCD
:10989000A7600302980B854582854683E0640A60D1
:1098A0000302980F1262DD8A438B44C3EA9547EBAB
:1098B0000297F112BBA7600302980B85458285468B
:1098C00083E0640A600302980F784CE624FB12BA26
:1098D000D2500302A8D28A4C8B4D8A828B837401AA
:1098E000F0A37405F0A3E412BB08E543F0A3E5443C
:1098F000F012BD7FC3EA9547EB95484003029812EA
:1099000085438285448312BC7B02962285458285ED
:109910004683E0F874BF28FEC3941A400302980BF4
:10992000740F12506E12BBB712BAA264BD6003026C
:10993000980BA385824585834612B9BD60030298C2
:109940000BA845A94688828983A3858245858346DD
:1099500088828983E064D3600302980F12B9F560AE
:109960000302980BA845A94688828983A38582456E
:1099700085834688828983E064D4600302A17212E1
:10998000B9E7E549600302980B02A1817E00854595
:1099900082854683E064557011A3E06450700B8C9F
:1099A000828D83E0640A70027E01126361EEF91217
:1099B000706302980B85458285468312BBE44003A1
:1099C00002980B740212506E12BBB7790112B9D70C
:1099D000600302980BEA4B4C4D700302980FE4F5BC
:1099E00025F52678251252A5740412506EE0F9125E
:1099F000635B7402125038E549600302980B0297CA
:109A0000687F0012B9AD600302980B12BAA264D548
:109A1000600302A594A3858245858346EEF9127002
:109A20003902976812B9CD12506E124EECE54960BA
:109A30000302980B9086B57821124EC2740612501C
:109A40006E78211243E8500302A5F38543828544D2
:109A500083A3A312CF9D1252BC752100782112520C
:109A6000A9740912506E124EE0790312703F74030C
:109A700012503802961512B9D5600302980BEA4BC2
:109A80004C4D700302A60D741412506E7407F074DE
:109A90001512506E740112BB697412125080126359
:109AA000A90297688A458B46126391740512506E1D
:109AB000E9F0E549600302980B854582854683E01D
:109AC00064BD600302980FA385824585834612B961
:109AD000CD12506E124EECE549600302980B7406ED
