:020000040000FA
:10400000CA28FFFF0100009C42424242FFFFFFFF1F
:10401000FFFFFFFFFFFFFFFFFFFFFFFFFFFFFFFFB0
:10402000000102030405060708090A0BFFFFFFFF52
:10403000024334025C16FFFFFFFFFFFFFFFFFFFF9D
:10404000FFFFFF0260BEFFFFFFFFFFFFFFFFFFFF5D
:10405000FFFFFFFFFFFFFFFFFFFFFF02603AFFFFD1
:10406000FFFFFFFFFFFFFFFFFFFFFF02610EFFFFEC
:10407000FFFFFF026014FFFFFFFFFFFFFFFFFFFFD7
:10408000FFFFFF025C8CFFFFFFFFFFFFFFFFFFFF53
:10409000FFFFFFFFFFFFFFFFFFFFFF025484FFFF53
:1040A000FFFFFF026054FFFFFFFFFF0254BFFFFF4F
:1040B000FFFFFF025A7300B001000000030000017F
:1040C0000000000000000000140030FF0000B400F9
:1040D0000028002800283075A000A000A000A00043
:1040E00000080008E001F0001000100010001000AF
:1040F0001000100050005000500010001000D007B9
:104100000000000000000F000100050030750700EE
:104110001000010081FF00000000FFFFFF7964979D
:10412000647F64BB64FF02020208025000A000002A
:1041300000E8030240820100003382024482010051
:1041400000241D024A820100006D03024482010026
:1041500000251D024C8201000083030244820100FD
:1041600000261D024E8201000085030244820100E8
:1041700000271D02508208000086030244820100CD
:1041800000281D025282010000291DFF0100FF20AE
:1041900002408201000051810244820100008D1D15
:1041A0000254820000000000024882030000B403B1
:1041B0001700516B516B516B516B516B516B516BC4
:1041C000516B516B516B516B516B516BF76D096EAC
:1041D000F16D020240820500003082024482050037
:1041E000005C82025A82050000F207024482050048
:1041F000005D820258820500003D81024482050074
:10420000005F820256820500008C80024482050015
:10421000005E82023A82050000EE800244820500C0
:1042200000D01D023882050000628101E803057795
:10423000100A0A6B6F01FFFF0030750302010600D0
:10424000000000000000000000000000000000006E
:104250000000000000000000000000FFFF060080DA
:104260000CE8030100B0423BAAB83F0000003F8CBD
:10427000906339AA0CA33A00941E3C8042633DCF60
:10428000FE753E1572313F0000803FF304353F80DC
:1042900096184B000080BF2292D43EDD9B2A3F043B
:1042A000000040FFFF7F7FFFFF7FFF010080341889
:1042B00072313FE5C754F84404F5C7790122000084
:1042C0000080FB1242B3B9000302431EE479437835
:1042D00015B800028004F709D8FCE479597802B8CF
:1042E00000028004F709D8FCE49002807835791B3D
:1042F0008002F0A3D8FCD9FA7AB47B1C9040B6783F
:10430000FE79028015E493A3AD82AE838A828B830B
:10431000F0A3AA82AB838D828E83D8E9D9E7758218
:10432000BB7583AA74051243467582BE75834274B9
:104330000012434675D00075815F75418075420259
:10434000759F000242C3C09FF59FE473D09F22D0A7
:1043500083D082C09FE493C0E0740193C0E07402F4
:1043600093F59F22E066701008A3E066700A08A328
:10437000E066700408A3E06622C3E7960809E796A2
:104380000809E7960809E796A2D265D03322C3E070
:104390009608A3E09608A3E09608A3E096A2D2654B
:1043A000D03322C021C3E096F52108A3E096422134
:1043B00008A3E096422108A3E0964221A2D265D04C
:1043C00033E5217001D3D02122C3E7960809E7968F
:1043D0000809E7960809E79622C3E09608A3E09645
:1043E00008A3E09608A3E09622C021C3E096F52139
:1043F00008A3E096422108A3E096422108A3E09694
:1044000045217001D3D02122080808E630E71112B7
:104410004D2A124420080808C64480C618181822DD
:10442000181818E9799EC608CAC608CBC608CCC6B3
:10443000C370207996CACBCC7019798ECBCC70130F
:104440007986CC700EF9802ACA33CACB33CBCC33F1
:10445000CC331930E7F2CCCBCA3350147004EA30B5
:10446000E00DE4CA3ACACB3BCBCC3CCC500209C3EA
:10447000E913C6CC182313C6CB18C6CA18C6F9222E
:104480001244C020F01430E72B74FFFCFBFA747F59
:104490008022E4FCFBFA7480801AB48008BC00F22D
:1044A000BB00EF800F50EBF9E4C39AFAE49BFBE406
:1044B0009CFCE499C6CC18C6CB18C6CA18C6F9220B
:1044C000E4C9C608CAC608CBC6D3330308CCC63372
:1044D00092F0C3947F402E94184019C9B90704CABA
:1044E000CBCC225025C309CA33CACB33CBCC33CC77
:1044F00033D9F422F4600DC9CCC313CB13CBCA1348
:10450000CAD9F6CC22E4FCFBFA2214FCFBFA22E620
:104510002618461846184622E7271947194719470B
:1045200022181818E60846087009E626087005E6FD
:1045300033F4220822191919E70947097009E727F6
:10454000097005E733F4220922E6084608C313463A
:1045500008336002E633F422E7094709C313470929
:10456000336002E733F42212454960251245586052
:104570002012450F7003024518080808E7667010FE
:104580001819E766700A1819E76670041819E766C3
:1045900022F422124549601C124558601712450F3B
:1045A00070071245187001D322C0D012451870064A
:1045B000D0D0B322C32233D0D0501430E0F6C3E7BA
:1045C000960809E7960809E7960809E796B32220B6
:1045D000E0D5E6970809E6970809E6970809E697FF
:1045E000B322124549601B124558601612450F70E0
:1045F00007124518600CB322C0D01245187005D0C0
:10460000D022C32233D0D0501330E0EBC3E796085A
:1046100009E7960809E7960809E7962220E0E4E60C
:10462000970809E6970809E6970809E69722001215
:104630004549604F1245586012E7548066F61245AE
:10464000217011124518703B090909F4F618F61883
:10465000F618F622124535701512450F0808086045
:10466000EAE6447FF618768018E4F618F62212453A
:104670000F60161245187012E4F608F608F608E600
:104680005480F609090918181822EAC0E0EBC0E0C6
:10469000ECC0E0EDC0E0E687F0A4FBACF008E687F4
:1046A000F0A42CFCE435F0FA1809E687F0A42C4BB2
:1046B00060027401CA35F0FCE433FB09E687F0D2EE
:1046C000F7A42CCB35F0FC1908E687F0A42BCC35E9
:1046D000F0FBE433FD0819E687F0D2E7A42C4ACBBF
:1046E00035F0CD3400FC09E687F0D2E7A42DCC35B7
:1046F000F0FDE433FA0918E687F0D2F7A42CCD35A3
:10470000F0CA3400FC08E687F0D2E7D2F7A42ACC3E
:1047100035F07A7E20E70B0ACB33CBCD33CDCC33CB
:10472000CC33CB3350147004ED30E00ED2F1E4CD35
:104730003DCDCC3CCC3B5005DA05C2F1EB547FC6F5
:104740003308E63392F0FBE73309E733C39A502D81
:104750002B70190C0D4C4D70151806E608C33370FC
:104760000D20F10AA2F013F6E418800B4024E4F6C1
:1047700030F002768018F618F618F68024D33B1431
:10478000501074FFA2F013F6187680E418F618F6AD
:10479000800FA2F013F618E63303F618ECF618EDC6
:1047A000F6D0E0FDD0E0FCD0E0FBD0E0FA221245EC
:1047B000586046124549603DE9687008F618F618D9
:1047C000F618F622748067F71247E2090909748027
:1047D00067F722124549601D1245587005191919CD
:1047E000801A124521701F124535C37003E66733E6
:1047F00019191940071818182208080874FFF61824
:10480000F618F618F6221245356017124518702171
:1048100092F012450F7019501720F014080808097B
:104820000909E7F61819E7F61819E7F61819E7F66F
:104830002212450F60E6E869701F0808E62480F63A
:1048400008E436F618547FB47F0CE654806007F60F
:10485000E418F618F622181822E9C6CC08C6CD08C6
:10486000C6CE08C6CFC0E0E8C0E0EAC0E0EBC0E0DA
:1048700009E9F809E7FA09E7FBE6F918E6F8C3ECF5
:1048800098ED99EE9AEBC2E7F5F0EFC2E795F0509C
:104890000E600CEBCFFBEACEFAE9CDF9E8CCF8EAF2
:1048A000A2E7D2E7FAEB33FB13F5F0EEA2E7D2E78B
:1048B000FEEF33FFC5F013A2E730E601B313C5F0F6
:1048C000C3C0E0C0F07F00C39BFB605E9418600F24
:1048D000401D14601AD0E023F9D0E0F80249B48AF0
:1048E000F0E9486003D2F0E4AFF0FAF9F8803BEB6E
:1048F00030E40D89F0EA6003D2F0E4AFF0F9CAF8D1
:10490000EB30E30D88F0EF6002D2F0AFF0E4CAC9FB
:10491000F8EB54076014FBC3EA13FAE913F9E81340
:10492000F8EF135002D2E0FFDBEDD0E0C0E030E75B
:1049300039C3E49FFFF5F0EC98FC42F0ED99FD429D
:10494000F0EE9AFE42F0D0E0F9D0E0F8E5F0607ABF
:10495000E923F9EE20E742D8028067C3EF33FFEC8A
:1049600033FCED33FDEE33FE80EAEC28FCED39FD3F
:10497000EE3AFED0E023F9D0E0F84002801BC3EE0F
:1049800013FEED13FDEC13FCEF135002D2E0FF0811
:10499000B800067F7F74FF802EEF3350178CF02015
:1049A000F00260100CBC000C0DBD00080EBE00042F
:1049B00008E860DFE933E813FFEE2313FE4F4D4CA8
:1049C0008008E95480FFE4FEFDFCEE33EF33F47021
:1049D00004FCFD7E80D0E0FBD0E0FAD0E0F8D0E02F
:1049E000CFC618CEC618CDC618CCC6F92212454976
:1049F000700418181822124558700D74FFF6181913
:104A0000F61819F61819F622E7548066F612450FC3
:104A1000700F12451870F014F608F608F608F680C4
:104A2000D1124518700CF608F608768008E6447F27
:104A300080EC124538700C12452460BFE65480F6B5
:104A4000E480BB124524700519191980A5E8697026
:104A50000C763F18768018F618F6E8F922E6CDC0F5
:104A6000E018ECC0E0E633CD33CDD313F6E719FC04
:104A7000E7191933CC33C3947F400ECD9D502408E1
:104A8000E65480F6E418F6800FF4043D1450140840
:104A9000E6447FF6187680E418F618F6D0E0FCD0ED
:104AA000E0FD22CCD313CCFD18E4C6CBC0E018E463
:104AB000C6CAC0E00808ED08C633E613F618E433AA
:104AC000C675F003C3CA97CA09CB97CB199C40049B
:104AD0007D08802EBD0003024B9616B6FF05060624
:104AE000081618C3CA33CACB33CB33CA27CA09CB7B
:104AF00037CB193CC37D08803E187D0820E75CC693
:104B000033C6CA33CACB33CB33DDF1D5F0EB30E754
:104B10007BCA97CA09CB974ACB199C406F4B70252B
:104B2000E620E0218066187D08C3CA97CA09CB97A2
:104B3000CB199CD3C633C6CA33CACB33CB3350C987
:104B4000DDE7D5F0E1D3E4C636C608C636C608C6EA
:104B500036C608C636C61818188031C3CA97CA099F
:104B6000CB97CB199CB34097C633C6CA33CACB3355
:104B7000CB33DD34D5F02EC6A2E0C640C8CA27CA62
:104B800009CB37194A70BECB3CB480B90808E6336C
:104B900008E633601F181818D0E0FAD0E0FBD0E028
:104BA000FCD0E0FD22187D08CA27CA09CB37CB19F3
:104BB0003CD3808013F618E4B67F11F618B6FF0ECA
:104BC000F618C60470D20808768080CAF618F6185F
:104BD000F680C5080808EAC0E0EBC0E086F0E7A46C
:104BE000FA180986F0E7A42AFA180986F0E7A42A39
:104BF000FA180986F0E7A42AFA1986F0E7A4FBE57B
:104C0000F02AFA190886F0E7A42BFBE5F03AFA1926
:104C10000886F0E7A42BFBE5F03AFA18180986F0AD
:104C2000E7A4C5F02BFBE43AFA1908E7C5F0C6A4DF
:104C300026F6E5F03BFBE43AFA1886F0E7A4F6E541
:104C4000F00826F6E43B08F6E43A08F6D0E0FBD09C
:104C5000E0FA22E4CFC0E0E4CEC0E0E4CDC0E0E47E
:104C6000CCC0E075F020E626F608E633F608E63319
:104C7000F608E633F6181818EC33FCED33FDEE3386
:104C8000FEEF33FFC3EC9709ED9709EE9709EF9715
:104C9000191919400FFFEC97FC09ED97FD09EE97E4
:104CA000FE191906D5F0BFECF709EDF709EEF70983
:104CB000EFF7191919D0E0FCD0E0FDD0E0FED0E00C
:104CC000FF22124D2D181818124C53124D19191994
:104CD0001922124D19191919080808E61818182070
:104CE000E7E0124C53124D2D18181822090909E754
:104CF00019191920E7DC080808E618181820E70336
:104D0000024C53124D2D181818124C53124D2D18D9
:104D10001818124D1919191922E4C397F709E497C5
:104D2000F709E497F709E497F722181818E4C396EF
:104D3000F608E496F608E496F608E496F62260177C
:104D4000080808C6A2E713C618C613C618C613C6B5
:104D500018C613C6D5E0E9226016080808C6C313B2
:104D6000C618C613C618C613C618C613C6D5E0EAB9
:104D7000227009080808226016181818C6C333C61E
:104D800008C633C608C633C608C633C6D5E0EA220D
:104D9000E627F60809E637F60809E637F60809E6D1
:104DA00037F622E026F608A3E036F608A3E036F64A
:104DB00008A3E036F622E026F008A3E036F008A3C8
:104DC000E036F008A3E036F022C3E697F60809E6DD
:104DD00097F60809E697F60809E697F622C3E0C6B3
:104DE00096F608A3E0C696F608A3E0C696F608A3D2
:104DF000E0C696F622C3E096F008A3E096F008A37A
:104E0000E096F008A3E096F022E056F608A3E056FC
:104E1000F608A3E056F608A3E056F622E056F0089E
:104E2000A3E056F008A3E056F008A3E056F022E60F
:104E300047F60809E647F60809E647F60809E6478F
:104E4000F622E046F008A3E046F008A3E046F008AA
:104E5000A3E046F022E066F008A3E066F008A3E0D5
:104E600066F008A3E066F022E0F608A3E0F608A3E7
:104E7000E0F608A3E0F622E6F008A3E6F008A3E6D1
:104E8000F008A3E6F022E0FAA3E0FBA3E0FCA3E035
:104E9000FD22EAF0A3EBF0A3ECF0A3EDF022E0FC9E
:104EA000A3E0FDA3E0FEA3E0FF22ECF0A3EDF0A35E
:104EB000EEF0A3EFF022E0F8A3E0F9A3E0FAA3E01C
:104EC000FB22E8F0A3E9F0A3EAF0A3EBF022CAC0CA
:104ED000E0E6F0A308DAFAD0E0FA22CAC0E0E0A3E4
:104EE000C582CCC582C583CDC583F0A3C582CCC5A0
:104EF00082C583CDC583DAE6D0E0CA22C3E498F840
:104F0000E499F9124F3D8026C3E49AFAE49BFBE949
:104F100020E7E9124F3DE498F8E499F922C3E498B8
:104F2000F8E499F9124F3DE498F8E499F9C3E49A4A
:104F3000FAE49BFB22EB20E7CFE920E7E0B9001081
:104F4000BB0008E88AF084F8AAF022E4FBC8FA2241
:104F5000EB70227B10C833C8C933C9335007C39ADA
:104F6000C3DBF280069A50012ADBEAC833F4C8C9D1
:104F700033F4C9FA2275F008E4C833C8C933C93319
:104F8000C99AC99B5004C92AC93BD5F0ECFBC83368
:104F9000F4C8E4C9FA22600D08C6A2E713C618C611
:104FA00013C6D5E0F322600C08C6C313C618C61397
:104FB000C6D5E0F422700422600D18C6C333C608BB
:104FC000C633C6D5E0F41822254110AF08F541409C
:104FD0000C15428008F54140021542D2AF2200C0B4
:104FE000D0254110AF08F541500C05428008F5412D
:104FF00050020542D2AFD0D0222541F58210AF0831
:10500000F541400C15428008F54140021542D2AFEF
:10501000854283222541F582E43542F583222541EC
:10502000F8E43542F9222541FAE43542FB222541D4
:10503000FCE43542FD22E4732541C582C0E0E5422F
:1050400034FFC583C0E0E541C3958224F810AF0862
:105050008583428582418008858342858241D2AF23
:10506000CEF0A3E520F0A37821E608F0A3DEFAEF66
:10507000F0A3E58124FAF8E608F0A3E608F0A3E639
:1050800008F0A30808E608F0A3E608F0A3158115C8
:1050900081D0E0FED0E0F8158115811581E8C0E0EF
:1050A000EEC0E0222541C582C0E0E54234FFC58361
:1050B000C0E0E541C3958224F910AF08858342859D
:1050C00082418008858342858241D2AFCEF0A3E53C
:1050D00020F0A37821E608F0A3DEFAEFF0A3E58143
:1050E00024FBF8E608F0A3E608F0A30808E608F0B9
:1050F000A3E608F0A315811581D0E0FED0E0F815F5
:10510000811581E8C0E0EEC0E022854283854182BE
:10511000E0A3FEE0A3F5207821E0A3F608DFFAE0A3
:10512000A3FFE0A3C0E0E0A3C0E0E0A3C0E0E0A3F1
:10513000C0E0E0A3C0E010AF0885824185834280D3
:1051400008858241858342D2AFD083D08202434C0E
:10515000854283854182E0A3FEE0A3F5207821E02B
:10516000A3F608DFFAE0A3FFE0A3C0E0E0A3C0E0FD
:10517000E0A3C0E0E0A3C0E010AF088582418583D2
:10518000428008858241858342D2AFD083D082227B
:10519000C0D02541C582C0E0E54234FFC583C0E0F0
:1051A000E541C3958224F310AF088583428582418F
:1051B0008008858342858241D2AFC8F0A3E9F0A37D
:1051C000EAF0A3EBF0A37921E709F0A3D8FAECF019
:1051D000A3EDF0A3EEF0A3EFF0A3D0E0F0A3D0E0B6
:1051E000F0A3D0E0F0A3E520F0A3E5F0F0A3228542
:1051F0004283854182E0C0E0A3E0F9A3E0FAA3E0A6
:10520000FBA37821E0F608A3DFFAE0FCA3E0FDA30E
:10521000E0FEA3E0FFA3E0C0E0A3E0C0E0A3E0F570
:10522000D0A3E0F520A3E0A3F5F010AF08858342FA
:105230008582418008858342858241D2AFD082D069
:1052400083D0E0F8D0E032740480067402800274E7
:1052500001C0E0F404124FF9D0E0124ECE227404E3
:10526000800474028000CCC0E0EDC0E0E541C39C46
:10527000CCAD4250011D10AF068C418D4280068C92
:10528000418D42D2AF124EDBD0E0FDD0E0FC22D007
:1052900083D082C5F0E493A3C5F0C395F0F5F0E4A4
:1052A00093A3C395F04005E5F0048001E475F00296
:1052B000A42582F582E5F03583F583E493A3C0E06D
:1052C000E493C0E022D083D082E9C0E0E493A3C39A
:1052D00086F0C5F095F0F908E493A386F0C5F09543
:1052E000F0700BE493A3C3994005E9048002A3E4A2
:1052F00075F002A42582F582E5F03583F583D0E0D0
:10530000F9E493A3C0E0E493C0E022D083D082E923
:10531000C0E0E493A3C386F0C5F095F0F908E493E8
:10532000A386F0C5F095F0702408E493A386F0C539
:10533000F095F0701908E493A386F0C5F095F0702D
:105340000E08E493A3C3994007E9048004A3A3A330
:10535000E475F002A42582F582E5F03583F583D06B
:10536000E0F9E493A3C0E0E493C0E022D083D082CC
:10537000CCC0E0E493A360061253961470FAE49351
:10538000A360061253B51470FAD0E0FCE493A3C0F6
:10539000E0E493C0E022C0E0E493A3D39C5010E487
:1053A00093A3C39C400AD0E0D0E0D0E0025389A38D
:1053B000A3A3D0E022C0E0E493A36C7009D0E0D0B6
:1053C000E0D0E0025389A3A3D0E022D083D082ECC6
:1053D000C0E0EDC0E0E493A3FCE493A3FDED4C60DA
:1053E0000D125417EC24FFFCED34FFFD80EFE49325
:1053F000A3FCE493A3FDED4C600D125456EC24FF86
:10540000FCED34FFFD80EFD0E0FDD0E0FCE493A3A1
:10541000C0E0E493C0E022C0E0C3E49396087401C6
:10542000939618400FE49366700808740193661809
:1054300070007019A3A3C3E493960874019396189F
:10544000A3A3400DD0E0D0E0D0E0025407A3A3A373
:10545000A3A3A3D0E022C0E0C0F088F0E49366707C
:10546000080874019366187000A8F0A3A3700BD00D
:10547000F0D0E0D0E0D0E0025407A3A3D0F0D0E019
:1054800022FFFFFFC0E0C0D0E8C0E0E9C0E0C0827A
:10549000C083A2AFE433F9D2AFA889E5AB58600B63
:1054A000F4F589C2C59008DD7401F0E9A2E092AF7D
:1054B000D083D082D0E0F9D0E0F8D0D0D0E032C0B4
:1054C000E0C0D0E8C0E0E9C0E0A2AFE433F9D2AF79
:1054D000A88AE58D586005F4F58AC2EBE9A2E0924E
:1054E000AF80D174F61250A4EAFEEBFF8C218D221E
:1054F000EA2434F8E43FF9E8FCE9FDEA24351258DF
:105500008AFAEE243712588AF88521F0A4C885F06B
:10551000238522F0A42523F9EA28F8E439F97A252D
:105520007B00124F3DEA8C828D83F0FA13131354E3
:105530001F12587E245DF582E439F583E0C0E074E3
:10554000075AF8D0E0B800028004C313D8FCA2E0E8
:10555000EE50082434F582E43F8014243612588A31
:10556000F5F0EA84A8F012587F2438F582E439F582
:1055700083E0F97F0302515074F71250A4EAFEEB66
:10558000FFEA243412588AC0E0EA2435F582E43F69
:10559000F583D0E0F08A828B83A3A3A3A3A3A3A364
:1055A000C082C0838A828B83A3A3A3A3A3E0F8A3B2
:1055B000E0F9D083D082E0C398F521A3E099F522E9
:1055C000EA248012588A6401703EEA2481F582E45C
:1055D0003FF583C082C0838A828B83A3A3A3A3A346
:1055E000E0240108A3E03400F9D083D082E06870A1
:1055F00003A3E06970127C647D05126A91EE248039
:10560000F582E43FF583E4F0AC21AD22EEFAEFFB46
:105610001254E3E9F91260067F02025150C082C0C1
:1056200083854182854283E0F8A3E0F9C3EA9CEBDD
:105630009D5010C3EC98ED99401BC3EA98EB99502C
:1056400014800EC3EA98EB994007C3EC98ED99409B
:1056500004790180027900D083D08222EAC39CFAC7
:10566000EB9DFB2274EF1250A4900424E0640860C8
:1056700005E06407702A9061C8E06024900452E05D
:10568000F4601DE0F875F010A4C8AAF02AF974546B
:1056900028FE740439FF8E82F583A3A3A3E0700370
:1056A00002577D906060E0C0E0EE2468F582E43F40
:1056B000F583D0E0F07525D5752605752100752296
:1056C00000E5D914F523E5D95403F527602F7403B9
:1056D0006527601DE5236008EE246712588A601D67
:1056E0009005D0E06401602C125887601278048025
:1056F00010125887602CE523C394055025806378E9
:1057000000E523C398FA95E0FB1269358A218B22C4
:10571000EA4B7005126CBF806412588770048A25AA
:105720008B26E5236012852582852683F524E5D91D
:10573000F0A31524E52470F6125887604574FC2503
:1057400023F523782512524BAC23A927EEFAEFFB61
:10575000126B4B7402124FDEE97027AA21AB2212A2
:105760007175793D8E828F83A3A3A3A3E0FA7B009A
:10577000126797EEFAEFFB126AB5126B5D790002C1
:105780005879740365276053E523F529752A007855
:105790002912524BAC25AD26AA21AB22126B0F74F5
:1057A00002124FDEEE246812588A64807004747FFF
:1057B0008001E0F525782512524FE527F52578255B
:1057C00012524FA923AC21AD22900452E0FA7B0083
:1057D00012676D7402124FDE025874852582852689
:1057E00083E0C3940E5011E0F8742F28F582E4345E
:1057F00081F583E065236069852582852683E0C085
:10580000E0EE24F7F582E43FF583D0E0F0A2AFE4C8
:1058100033FCC2AF7A0080010AEE246E12588AF877
:10582000EAC3985013EA12587E246AF582E439F5E7
:1058300083E0640770E28022EE246EF8E43FF9E032
:10584000FAEE2AFAE43FFBEA246AF582E43BF583A8
:105850007407F088828983E004F0ECA2E092AF80C4
:1058600013900424E06408600BAC25AD26EEFAEF3B
:10587000FB126BD5126CCB79017F0A025150F8EE06
:1058800028F8E43FF9E822EE2484F582E43FF5832A
:10589000E02274F11250A474FC124FC8EAFEEBFF30
:1058A0008922752600A2AFE433F521C2AF90056CC2
:1058B000E0FA9061D0E0F8748098F895E0F9C3EAD6
:1058C00098E499A2D265D033400302597C75260131
:1058D00002597CE0601B782312524BAC27A928EEBA
:1058E000FAEFFB126B457402124FDE74042527F5A4
:1058F0002774012527F5D98528D9E5276012852346
:1059000082852483F525E0F5D9A31525E52570F6D4
:1059100075E195EE2463F8E43FF97A007B00A2AFCD
:10592000E433F523C2AF88828983E0FCA3E0FDEC79
:105930004D603A88828983E0FAA3E0FB8C82F5838C
:10594000E0FCA3E0FD88828983ECF0A3EDF08A827D
:105950008B83E4F0A3F088828983E0FCA3E0FDEC74
:105960004D700A88828983A3A3E4F0A3F0E523A203
:10597000E092AF12717590056BE004F0EE246312B3
:10598000588AF8A3E0F9E8496063EE246312588A64
:105990002402F8A3E034008882F583E5822402F52E
:1059A00023E43583F524E0F527A3E0F528EE24620F
:1059B00012588A640170369061D0E0F812588760FE
:1059C000047C0480027C007480C398FA95E0FBE5B7
:1059D000272CF8E43400F9E82402F8500109C3EA5E
:1059E00098EB99A2D265D03340030258D39061D08E
:1059F000E0F87480C39890056CF0E526605390053C
:105A00006BE0604D90056DE0F890056BE0C3985039
:105A10000C74026522703A90056EE060348E828FBD
:105A200083A3A3A3A3E0854182854283125A6174B4
:105A300002125014E8125A6190056AE028F07402CC
:105A400012502EAA41AB4279011267C190056BE456
:105A5000F0E521A2E092AF7404124FDE7F080251FC
:105A600050F0A3E4F090056BE0F822FF85508785A5
:105A700051C622C0E074EB125190A2AFE433F5217D
:105A8000C2AF759B00906182E0A2E0502DE591A22B
:105A9000E050277591FE74016550701E125BEA128A
:105AA0005C0112525E125DB57404124FDEE96401AE
:105AB00070057901126C53125664906182E0A2E580
:105AC000505AE591A2E550547591DF900424E064AA
:105AD000076005E06408702C125BEA740165507081
:105AE0003B125C0112525E125DB57404124FDEE986
:105AF000640170057901126C537901EEFAEFFB1223
:105B000058928018E0640D7013900446E004F0642D
:105B1000287002E4F07A00E0F9126CD1906182E022
:105B2000A2E64003025BBFE591A2E64003025BBF31
:105B30007591BF900424E064057008126BFF126C2D
:105B40000B8003126C05755000126C5FE990042500
:105B5000F07900126C53126A017A017B00900423E1
:105B6000E0F912713F907803E0644270529005D4DE
:105B7000E014F0704AC2AF125B7A00785AD0E0F6B7
:105B800018D0E0F6E59F540770047BFF80027B7F0E
:105B9000C4C0E07859E6F52308E65BF524740B7879
:105BA00023124FA6D0E02523F8906270E0A2E740D0
:105BB000F8E8C333906272F0906270E0D2E0F09047
:105BC0006181E0A2E35009E5E9A2E3500375E9F73A
:105BD000A3E0A2E75009E591A2E7500375917FE5A4
:105BE00021A2E092AF7F080251EF900452E0F875D5
:105BF000F010A4C8AAF02AF9745428FE740439FFDE
:105C000022126C178E828F83E0F8A3E0C82416F569
:105C100082E438F58322C0E0C0D0C082C0839061A6
:105C200083E0A2E05009E5BFA2E0500375BFFEE0AB
:105C3000A2E15009E5BFA2E1500375BFFDE0A2E279
:105C40005009E5BFA2E2500375BFFBE0A2E3500993
:105C5000E5BFA2E3500375BFF7E0A2E45009E5BF3A
:105C6000A2E4500375BFEFE0A2E55009E5BFA2E54D
:105C7000500375BFDFE0A2E65009E5BFA2E650037E
:105C800075BFBFD083D082D0D0D0E032C0E074F2F4
:105C9000125190E5A7A2E6500FE5A1A2E6500953E4
:105CA000A7BF75A1BF125CE0E5A7A2E5500CE5A176
:105CB000A2E5500653A7DF75A1DFE5A7A2E15009D1
:105CC000E5A1A2E1500375A1FDE5A7A2E2500CE514
:105CD000A1A2E2500653A7FB75A1FB7F010251EF81
:105CE00074F71250A4755001900424E064067015F6
:105CF000126B818A828B83A3A3A3A3A3A3E0FAA33D
:105D0000E0FB126BEDA2AFE433FED2AF90042AE0C9
:105D1000640170187A207B00900423E0F912725F0E
:105D20007A207B00900423E0F9127145906182E0B3
:105D3000D2E6F09005D1E0602185C651801690042E
:105D400029E064017008E5C654F84405F5C653BE61
:105D5000FC125A6C7401655060E4EEA2E092AF7FD1
:105D6000020251508E528F5385825785835685414A
:105D700082854283E0CEA3E0CF855782855683EBB0
:105D8000C9EAC8EDCBECCA75F010C3E833C8E933F3
:105D9000C9EA33CAEB33CBC3EA9EF555EB9FF55402
:105DA000B35004AB54AA55EC33CCED33CDD5F0DA77
:105DB000AE52AF532274F11250A48A218B228C234D
:105DC0008D249081A87821124E09740F12501478F6
:105DD00025124E689081A87825124E0978217925E0
:105DE0001243C99081E8501078217925124DC97865
:105DF000211243E94014800E78257921124DC9788B
:105E0000251243E950047901800279007F0802518C
:105E10005074ED1250A48A218B228C238D24908102
:105E2000A87821124E0974131250147825124E6866
:105E30009081A87825124E09782579211243C9400E
:105E40001178217925124DC9AA21AB22AC23AD24AA
:105E50008022752900752A00752B00752C01782980
:105E60007925124DC978297921124D90AA29AB2A9A
:105E7000AC2BAD2C7F0C0251509081A87821124E92
:105E8000688A828B837821124E1C7F0402515074E1
:105E9000F51250A48C828D837821124E688A828BF1
:105EA000837821124DF5125EE7C3E09CF0A3E09DDC
:105EB000125ED940229082047821124E688A828B29
:105EC000837821124DB68A828B83A3A3A3A3E024F7
:105ED00020F0A3E0344EF080A0F088828983C3E0F4
:105EE0009420A3E0944E22EA2404F8E43BF98C8247
:105EF0008D83A3A3A3A3E0FCA3E0FD888289832272
:105F000074F51250A4900587E0FAA3E0FBE929F8A4
:105F1000E433F9740F28F582748139F583E02AF5AA
:105F200021A3E03BF522782112524B908210124EB1
:105F300086125D647402124FDE8A218B228C238DBF
:105F40002474107821124D58AA21AB227F040251EB
:105F50005074F11250A48A258B268C278D28741139
:105F60001250141252627411125014E02401F521DF
:105F7000A3E03400F522E4F523F5247825792112F5
:105F80004BD39081F47821124E6878257921124BF9
:105F9000D3AA25AB26AC27AD28125D647402124F3C
:105FA000DEEA4B60047A0180027A00EC2AFCE43DD0
:105FB000FD7413125014E0F8A3E0F9E8FEE9FFECD9
:105FC000F8EDF97A717B02124F3D88218922E4F5C0
:105FD00023F5248E828F837821124E77ECF8EDF929
:105FE0007A717B02124F3D8A218B2274057821122F
:105FF0004FB58E828F83A3A3A3A3E521F0A3E5224F
:10600000F07F08025150C082C083E9906000F0D058
:1060100083D08222C0E074F2125190A2AFE433FE2A
:10602000D2AFC2C0E5D1A2E4500675D10F127061A3
:10603000EEA2E092AF7F010251EFC0E0C0D0E8C015
:10604000E0A8A8D2AFC2C7E8A2E792AFD0E0F8D0EC
:10605000D0D0E032C0E0C0D0E8C0E0E9C0E0EAC0A3
:10606000E0EBC0E0C082C083A2AFE433F9D2AF90CE
:106070000930E0F8A3E0687008539AF7A374018030
:1060800022C2EA900930E0F8740128F0742028F563
:1060900082E43409F583E0F5F9900930E0C3941007
:1060A0004002E4F0E9A2E092AFD083D082D0E0FBDE
:1060B000D0E0FAD0E0F9D0E0F8D0D0D0E032C0E0C3
:1060C000C0D0E8C0E0E9C0E0EAC0E0EBC0E0C082D8
:1060D000C083A2AFE433F9D2AFA8C1900956E0FA69
:1060E00074352AF582E43409F583E8F0900955E027
:1060F000F8A3E0687006E595900958F0900956E01D
:1061000004F0C394204002E4F0A3E4F08096C0E0E1
:10611000C0D0E8C0E0E9C0E0EAC0E0EBC0E0C08287
:10612000C083A2AFE433F9D2AF900969E0F8A3E0ED
:10613000687008539AFBA374018022C2E990096930
:10614000E0F8740128F0745928F582E43409F583E5
:10615000E0F5C1900969E0C394104002E4F00260E8
:10616000A4C2AF0200002212434F2EFA0312434F83
:1061700071FA0312434F6DFB0312434F91FE03125A
:10618000434FAFFE0312434FC1FE0312434F007350
:106190000012434FDD730012434F05760012434F48
:1061A000A8760012434F54770012434F73780012C1
:1061B000434FCB780012434FD3790012434FC27A3A
:1061C0000012434F917E0012434F2C7F0012434F29
:1061D00000800112434F20800112434F5F80011263
:1061E000434FDB800112434F53810112434FF38130
:1061F0000112434F02830112434F98830112434F10
:10620000BD850112434FB48F0112434FFF8F01121E
:10621000434F52900112434F81B00112434F74B269
:106220000112434FD0B20112434F4EB30112434FFC
:1062300028B60112434FCDBD0112434FB9BE011222
:10624000434F04BF0112434F5CC00112434FA8C12A
:106250000112434FF2C10112434F95C20112434F45
:10626000BD8B0512434FD08B0512434FFF8B051298
:10627000434F378C0512434F808C0512434FC38C1C
:106280000512434F098D0512434F3C8D0512434FB4
:10629000638D0512434F928D0512434FC98D051230
:1062A000434FE28D0512434F318E0512434F4A8E04
:1062B0000512434F928E0512434FC68E0512434F6F
:1062C000FACE0312434FF8CF0312434F5ED00312AE
:1062D000434F81D00312434F83D00312434FC1D0A9
:1062E0000312434F32D10312434FF2D10312434FF3
:1062F00014D20312434FB0D20312434FE7D203121A
:10630000434F2CD30312434F39D30312434FA9D326
:106310000312434FF3D30312434FF6D30312434FF9
:106320003CD40312434F3FD40312434F49D40312CA
:10633000434FBCD40312434FE4D40312434F17D549
:106340000312434F3BD50312434F38D60312434F3A
:10635000DCD60312434F48D70312434F84D70312AE
:10636000434F0EFC0112434F36FC0112434F63FCB6
:106370000112434F9BFC0112434F01FD0112434F99
:106380004BFD0112434FAFFD0112434FF7FD0112C8
:10639000434F34FE0112434F62FE0112434FF7FE9A
:1063A0000112434F01FF0112434F0EFF0112434FF1
:1063B00041FF0112434F4DFF0112434F65FF011290
:1063C000434F6FFF0112434F88A90512434F96A90F
:1063D0000512434FAEA90512434FC5A90512434FFD
:1063E000A2CC0212434F45CD0212434F5ECE0212A1
:1063F000434FD6CE0212434FFDCF0212434F36D049
:106400000212434FCED00212434FBBD10212434F70
:1064100064D20212434FECD30212434FD4D402127F
:10642000434FCBD50212434F01D60212434FA3D69E
:106430000212434FC9D60212434F95D80212434F5E
:10644000DBD80212434FFDD80212434F69D9021222
:10645000434F34DA0212434FEEDA0212434FFADCB2
:106460000212434FA2E70312434F7EE80312434F49
:1064700028E90312434F69E90312434FF0E903127D
:10648000434F6BEA0312434F3EEB0312434F67EB5C
:106490000312434F5BEC0312434F98EC0312434F3C
:1064A00080ED0312434FB1ED0312434FD7ED0312BA
:1064B000434FE69C0512434F659D0512434F909D47
:1064C0000512434FA09E0512434FE2870512434F2A
:1064D000F8870512434F16880512434F2689051287
:1064E000434F30890512434F5A8A0512434F478B59
:1064F0000512434FB38B0512434F47EE0312434F30
:1065000074EF0312434FECEF0312434F1CF00312DE
:10651000434F2FF00312434F86F00312434F7EF296
:106520000312434FC9950212434F50960212434F34
:10653000A4970212434F2B980212434F379802122E
:10654000434FAF980212434F88990212434F889AE3
:106550000212434F849B0212434F509C0212434F3E
:10656000AA9D0212434FC09D0212434FE19D0212A9
:10657000434F739E0212434FE99E0212434F0F9FF7
:106580000212434FBCA10212434FC1A10212434F5A
:10659000E5A30212434F2CA40212434F92A402120D
:1065A000434FD8A40212434FA8A50212434F5DA641
:1065B0000212434FB9A60212434FBCA60212434F28
:1065C00008A70212434F44A70212434F83A70212A7
:1065D000434FA5A70212434FD9A70212434F47A822
:1065E0000212434FD18C0412434FDF8C0412434FED
:1065F0002F8D0412434F4E8D0412434F988D041279
:10660000434FDB8E0412434F738F0412434FB78FF7
:106610000412434FE18F0412434F4C900412434F36
:1066200090900412434F13910412434FC2910412ED
:10663000434FF2C20112434F02C30112434F9CC3A6
:106640000112434FF8C30112434FB6C40112434F26
:106650003EC50112434F61C60112434F91C601125C
:10666000434FC0C60112434F76C80112434FC9CAF7
:106670000112434F28CD0112434F11CE0112434F57
:1066800001CF0112434FD4D00112434FCCD301129A
:10669000434FE9D40112434FE3D60112434FF2D7DF
:1066A0000112434F81D90112434F6DDA0112434F5A
:1066B000BCDA0112434F2CDB0112434F48DB0112BD
:1066C000434F99DB0112434F39E00112434F40E140
:1066D0000112434FA2E10112434FCDE10112434F9A
:1066E00085E20112434F7D960412434F87960412B0
:1066F000434FCF960412434FE3960412434F7497CF
:106700000412434FAB970412434FE6970412434FD2
:106710000F980412434F63980412434F7898041261
:10672000434F9A980412434FAF980412434FC398B3
:106730000412434FD8980412434F12990412434F46
:106740003E990412434F87990412434FFD99041256
:10675000434F289A0412434F539A0412434F969A78
:106760000412434FC09A0412434FEB9A0412434F52
:1067700072A70512434FA1B10312434F7AB203121D
:10678000434FE9B20312434F24B30312434F5FB4A4
:106790000312434F11B50312434FBEB70312434FC9
:1067A00069B80312434F4AB90312434FC0BA0312E8
:1067B000434F28BB0312434F139B0412434F569B76
:1067C0000412434FC19C0412434FFF9E0412434FD7
:1067D000BF940512434F67950512434F9C950512D0
:1067E000434F97960512434FD4960512434FCF9EC1
:1067F0000512434F2E9F0512434FCB9F0512434F67
:10680000FE9F0512434F2CA00512434F67A00512AF
:10681000434F87A00512434FD4910412434F5D921A
:106820000412434F1C930412434F2A940412434F03
:106830004A960412434F4C9B0312434F619B031231
:10684000434F2C9C0312434FF99C0312434F669D08
:106850000312434FA19D0312434F429E0312434F25
:106860004B9F0312434F23A00312434FA6A00312D2
:10687000434F2FA10312434F98A10312434F22A26B
:106880000312434F6FA20312434FDDA20312434F83
:106890007FA30312434F2DA40312434F4DA40312B1
:1068A000434F91A40312434FD9A40312434FF5A4BD
:1068B0000312434F14A50312434F8EA50312434FF7
:1068C0009CA50312434F2FA60312434F99A6031210
:1068D000434F9C9F0412434F18A00412434F56A0ED
:1068E0000412434F3AA10412434FA9A10412434F8B
:1068F000EDA10412434F30A20412434F5DA20412D3
:10690000434F7BA20412434FB3A20412434FF0A2A1
:106910000412434F11A30412434F87A30412434FA1
:10692000D1A30412434F0EBC0212434FA2BD021268
:10693000434FE0BF0212434F28C00212434F53C0DF
:106940000212434F49C10212434F79C10212434F11
:10695000D0C10212434FE3C10212434F24C20212BC
:10696000434F51C20212434F9AC20212434FD6C242
:106970000212434F1BC30212434F68C30212434F1C
:10698000D0C30212434F02C60212434FC9C70212BC
:10699000434F04C80212434F82C90212434FC6C973
:1069A0000212434F39CA0212434F9ACA0212434F8E
:1069B00022CB0212434F4BCB0212434F6DCB02123C
:1069C000434F8CCC0212434F9DCC0212434FCDBBA0
:1069D0000312434F3EBC0312434F07C20312434FFF
:1069E00001C30312434FC3C40312434F41C50312F3
:1069F000434FEEE20112434F75E30112434FA2E30E
:106A00000112434FE4E30112434FE0E40112434F0C
:106A100025E50112434FA1E60112434F1EE7011283
:106A2000434F43E70112434FB6E70112434F73E868
:106A30000112434F2FE90112434FAFE90112434FB7
:106A40007DEA0112434FA3EA0112434F15EB0112F5
:106A5000434FB9EB0112434FDEEB0112434F4AECB7
:106A60000112434FB0EC0112434FE6EC0112434FC9
:106A70008AED0112434F23EE0112434FA6EE01129D
:106A8000434F12EF0112434F5EEF0112434FC4EF29
:106A90000112434FF5EF0112434FA9F00112434F8A
:106AA000BFF10112434F08F20112434F25F20112C8
:106AB000434F05F80112434F4DF80112434F3AF985
:106AC0000112434F5FF90112434F74F90112434F12
:106AD000DCF90112434F1CFA0112434F2FFB011244
:106AE000434FDCFB0112434F6AC50312434FB5C548
:106AF0000312434FC1C50312434F8CC60312434FC9
:106B0000A2C60312434FDEC60312434F17C7031238
:106B1000434F4FC70312434FA5C70312434FBBC791
:106B20000312434FF7C70312434F0AC80312434FE0
:106B300031C80312434F65C80312434F39C90312CA
:106B4000434FC8CA0312434FC4CB0312434FCDCCAB
:106B50000312434FF57F0012434F00800312434F4F
:106B60003B800312434F3F830312434F9184031230
:106B7000434F56850312434F50880312434F3A89BF
:106B80000312434F85890312434F9F890312434FDA
:106B9000DC890312434FE7890312434F268A03120D
:106BA000434F2F8A0312434FF08A0312434FAD8B9A
:106BB0000312434F108C0312434F748C0312434F44
:106BC000F58C0312434F01A90212434F5DAC021230
:106BD000434F63AC0212434FA4B30212434F7CB83D
:106BE0000212434FB4AC0412434F7EAD0412434F24
:106BF000C2AD0412434FFCAD0412434F8EAE0412DB
:106C0000434FFDAE0412434F06AF0412434F12AF81
:106C10000412434F26AF0412434F4AAF0412434FAE
:106C20007AAF0412434F75A80412434F82A804128E
:106C3000434F9CA80412434FCFA80412434F0CA902
:106C40000412434F72A90412434F87A90412434F01
:106C500092A90412434F9FA90412434FB6A90412EC
:106C6000434FC4A90412434FCFA90412434FDBA9D9
:106C70000412434FEAA90412434FF5A90412434FEB
:106C80001BAA0412434FBFAA0412434FCFAA0412F7
:106C9000434FE9AA0412434F06AB0412434F21AB02
:106CA0000412434F48AB0412434F53AB0412434FFB
:106CB00068AB0412434F7CAB0412434FDDAB0412AC
:106CC000434FE3AB0412434FE9AB0412434FEFAB26
:106CD0000412434F07AC0412434F3AAC0412434F23
:106CE000448E0312434FD28E0312434F678F031219
:106CF000434F43900312434F77900312434F8A90C0
:106D00000312434F04910312434F8C920312434FDB
:106D1000B3920312434F3A930312434F79930312F2
:106D2000434F8A930312434FFF930312434F1E9422
:106D30000312434F36940312434F7A950312434F85
:106D400084970312434FB6990312434FBC9A031220
:106D5000434FFF9A0312434FAAEB0212434FBDEC7D
:106D60000212434FA5ED0212434FAFED0212434F03
:106D7000D1ED0212434FDDED0212434F2AEF021212
:106D8000434F57EF0212434F78F00212434FBAF0CD
:106D90000212434FEFF10212434FBFF20212434F70
:106DA0000EF30212434F6FF30212434FA4F3021289
:106DB000434FDDF30212434F88F70212434F9FF710
:106DC0000212434F1DF80212434F2BF80212434F99
:106DD00074F80212434F82F80212434F03F9021271
:106DE000434F72F90212434FBEF90212434FBCA641
:106DF0000312434FDEA60312434FBAA80312434FB8
:106E000032AC0312434F7CAD0312434F5EAE03120C
:106E1000434F95A00512434FBAA00512434F2BA133
:106E20000512434F1FE00312434F28E00312434F64
:106E300031E00312434F55E10312434F46E303127F
:106E4000434F74E30312434F9FE30312434FCDE3D9
:106E50000312434FF8E30312434F36E40312434F48
:106E600062E40312434F9FE40312434FCAE4031248
:106E7000434F16E50312434F6DE50312434FADE553
:106E80000312434FFCE50312434F27E60312434F1F
:106E90006DE60312434F9BE60312434FC6E603120F
:106EA000434FF3E60312434F16E70312434F15AC6B
:106EB0000512434F1FAC0512434F2FAC0512434F31
:106EC000F99A0512434F209B0512434F4B9B051225
:106ED000434FB1FF0312434F00800212434F4982D8
:106EE0000212434F20830212434FD0840212434FB9
:106EF0002D850212434F24860212434FA1860212AF
:106F0000434F27870212434F4C870212434F278A71
:106F10000212434F8B8A0212434F698B0212434F76
:106F20009F8B0212434FE28B0212434F688D021275
:106F3000434FAA8D0212434FF38D0212434F5C8ED2
:106F40000212434F8D8E0212434FA78E0212434FFF
:106F5000DD8F0212434FF48F0212434FDE91021273
:106F6000434FFE910212434F34920212434FBA93A1
:106F70000212434F2F940212434F6D940212434F5B
:106F8000A4950212434F18A40412434F68A404129C
:106F9000434FA2A50412434F11A60412434FB5A6B6
:106FA0000412434FD4A60412434F22A70412434FA6
:106FB00064A70412434F75AC0512434F607F001263
:106FC000434F707F0012434F7C7F0012434FC07FBE
:106FD0000012434F86A80512434F09A90512434FDB
:106FE0006FA90512434FE8A30512434F18A40512D9
:106FF000434F37A40512434FAEA40512434F44FA42
:107000000212434FD4FA0212434F65FB0212434F60
:10701000DEFB0212434F32FC0212434F47FC0212C6
:10702000434FE5FC0212434F6BFD0212434F77FDC5
:107030000212434F91FD0212434F3AFE0212434F98
:1070400091FE0212434FEEFE0212434F0EFF021258
:10705000434F11FF0212434F74FF0212434FB9FF17
:107060000212434FF9FF0212434FDAAB0512434FAE
:10707000ECAB0512434F72F40312434F7BF403123F
:10708000434FA3F40312434F1CF50312434F47F53C
:107090000312434F89F50312434FB2F50312434FD6
:1070A000D4F50312434FF1F50312434F0EF60312CA
:1070B000434F11F60312434F8EF60312434F0EF85F
:1070C0000312434FA1F80312434FEBF80312434F4F
:1070D00024F90312434F64F90312434FEEF90312EC
:1070E000434F1FFA0312434F61820412434F6B82D6
:1070F0000412434FAB820412434FF4820412434FF5
:107100002C830412434F82830412434F9F83041243
:10711000434FA8830412434FED830412434F168458
:107120000412434F2B840412434F9B840412434F99
:1071300028850412434F7C850412434F9F85041217
:10714000434F1E860412434F59860412434F8E86C6
:107150000412434FA0860412434FBC860412434FCF
:10716000C5860412434F77870412434F80AB051244
:10717000434F46A20512434F97A20512434F20A347
:107180000512434F8AA30512434F04920512434F41
:107190002C920512434F21930512434F469305123B
:1071A000434FD5930512434F25A50512434F1BA608
:1071B0000512434F35A60512434F46A60512434F0D
:1071C000FD980512434F33990512434F66990512F6
:1071D000434FBF9A0512434F5DAA0512434F67AA5A
:1071E0000512434FAAD70312434F64D80312434FEB
:1071F0009FD80312434FD0D80312434F40D90312F4
:10720000434F96D90312434FEAD90312434FD7DABB
:107210000312434FD0DB0312434F51DD0312434FA0
:1072200005DE0312434F6EDE0312434F81DE03126D
:10723000434F66DF0312434FBFDF0312434F00800B
:107240000512434F16800512434FBA800512434F73
:10725000F9800512434F16810512434F47810512ED
:10726000434F94810512434FC7810512434F028259
:107270000512434F07DD0212434FB2E00212434FA3
:1072800041E20212434F98E20212434FB7E2021268
:10729000434F35E30212434FB6E40212434F89E5F0
:1072A0000212434F2CEA0212434F14EB0212434FD7
:1072B000A3870412434FE0880412434F918C0412B9
:1072C000434F39AC0512434F2E8F0512434F54A63E
:1072D0000512434F1FAB0512434FEE960512434F65
:1072E000A9AF0412434FC97F0012434FF783051221
:1072F000434F57AC05FFFFFFFFFFFFFFFFFFFFFFFF
:1073000074F01250389002BFE0F521A3E0F522801E
:107310001A852782852883E525F0A3E526F08523B5
:10732000828524831279CDEEFAEFFBEA25E0FAEBB1
:1073300033FBEA2401FEE43BFFC3EC9EED9FA2D2A7
:1073400065D03350030273CDC3EE9CEF9DA2D2658E
:10735000D0335033EE2401F523E43FF524EE2EF82C
:10736000EF1273D01275F8C082C083A823E828F802
:10737000E5241273D0127738D083D082C3E098A36B
:10738000E09950030EAF24EEF8EFF9E828F8E9335E
:10739000F9E52128F523E52239F524852382F583B3
:1073A000E0F525A3E0F526E5212AF8E5223B88272C
:1073B000F528127E3A8525828526831278C6898330
:1073C0008882C3E09AA3E09B5003027311027AA55E
:1073D00033F9E52128F582E52239F5832274EA1292
:1073E00050389002BF1279B39002C11279B3127073
:1073F000A375260075250A901CB4E0FEA3E080204A
:10740000E4C39AF874089BF9E82EF8E93524F98565
:107410002B82852C831279CD0526EE2400EF3408CB
:10742000FF85252774FF2527F52504700302754382
:10743000E52675F006A4F8A9F0748328F52B7402EC
:1074400039F52CE52B2402F52DE4352CF52E852D70
:1074500082F583E4F0A3F0E52B2404F529E4352C30
:10746000F52A852982F583E4F0A3F08E828F837854
:1074700021124E68901CB678211243D95008901CF6
:10748000B67821124E77EE2404F521E43FF5228FE1
:1074900024803A852982852A8312786D700D85298A
:1074A00082852A83E521F0A3E522F08A828B83126C
:1074B0007856F528C3940450081261B5790012700B
:1074C00097A828E52128F521E43522F522AA21AB49
:1074D00022EE24FFF8EF3407F9C3E89AE99B500342
:1074E000027400C3EE9AE5249B40030274001279F3
:1074F000B9700374FF697003027400EA2402FAE4AD
:107500003522FBE849701D8A828B83E079002403D1
:1075100050010954FCF8852D82852E83E028F0A3C4
:10752000E039808674FE68700374FF69700302742A
:10753000939002C11275F8E521F0A3E52212773F7E
:107540000274AA9002BFE0FEA3E0FF127E6EC31396
:10755000FBEA13FA9002C0E0C313F9EE13F8EAC392
:1075600098F8EB99F9C313F522E813F521E824FF05
:10757000F523E934FFF524800BAC23AD24AA21AB1D
:10758000221275E8C3E5229400A2D265D03350E9F7
:10759000852321852422803C8E828F831278C6A881
:1075A00021E828F8E52233F9EE28F8EF39F9E8FC6C
:1075B000E9FD127E3A8E828F831279CD8C828D8383
:1075C0001279B3E52124FFFCE52234FFFD7A007B2C
:1075D000001275E8C3E5229400A2D265D03350B8FA
:1075E0001278C37F0E02510A12618BE52124FFF548
:1075F00021E52234FFF522221275FC22E0F8A3E0F7
:10760000F58388822274F31250388A218B229002EB
:10761000BFE0FEA3E0FF780079009002C1E0FCA388
:10762000E0C313FDEC13FCEFC313FBEE13FAECC342
:107630009AFCED9BFDEC4D605DEC24FF1CED34FFEE
:10764000FD8009E5232401F8E43524F9C3E89CE929
:107650009D5043ECC398FAED99C313FBEA13FAE883
:107660002AF523E93BF524AA23EA2AFAE52433FB89
:107670009002BFE02AF525A3E03B852582F5831221
:107680007E71F5838A82C3E09521A3E0952240B301
:10769000AC23AD2480B6E825E0F8E933F9EE28FA0A
:1076A000EF39FB7F0502510A74F0125038E9FE7D74
:1076B000007525FF7526FF7527FF7528FF7C00ECF8
:1076C000FAF521752200740B7821124FB512772E2E
:1076D00035228882F5837821124E68782579211227
:1076E00043C9502BEA75F006A4FAABF074832AF56F
:1076F0008274023BF583EEF8C3E098A3E094004067
:107700000EECFD8521258522268523278524280C3E
:10771000ECC3940A40A99082047825124364700453
:1077200079FF8002EDF9027AA57F1002510A901CC0
:10773000B4E02400F8A3E0221275FC127E4222F08D
:107740009002C1E02402F8A3E03400F99002C1E8FD
:10775000F0A3E92274EE1250388A258B268A828B98
:107760008374FEF0A304F08A828B83127854F5238D
:1077700012781C7003027815E9F5213395E0F522A3
:10778000E975F006A4F8AAF075F006E522A42AF936
:10779000748328FE740239FF8E8212785C7821127D
:1077A0004FB5127AB4127841F529E93408F52A88E0
:1077B00021F522E5231313543FF527752800782778
:1077C00012524BAC25AD26E5212400F525E5221209
:1077D0007830124DA374027825124D581278261273
:1077E0004FDEA8238E828F8312784AEE2404F8E4B9
:1077F0003FF9E8FAE9FB888212786B6009C3E5215A
:1078000098E52299500B8A828B83E529F0A3E52A1B
:10781000F07901800279007F0A02510AF912619D14
:10782000E9F874FF6822AA25AB26126FD7740222EA
:107830003450F5263395E0F527F5289081F8782522
:10784000222AF8E93BF9E8240022C3E098F0A3E0FB
:107850009400F022A3A3E0240354FC22F583127EBB
:1078600042C3E498FAE499FB740B22F583127E423A
:10787000E8492274F41250381261AF8A218B22AE8B
:1078800021AF22EA4F60361261C1127F1A124F35C2
:10789000E875F006A4F8A9F0748728F8740239F99D
:1078A0008882F5831278C6EE6A7002EF6B700A88E0
:1078B0008289837401F0A3E4F079018002790002E7
:1078C00079C4F09002C1127E71FB2274F01250381C
:1078D0008A218B228C238D24752500901CB4127E66
:1078E00056E52575F006A4F8A9F0748728FE740201
:1078F00039FF8E8212786B6069E864017001E9607B
:1079000005E8FAE9801EEC2404FAE43D80168A8238
:107910008B83A3A3E07900240350010954FCF8EA07
:1079200028FAEB39FBEAF8EBF9EC24FFF527ED3404
:1079300007F528C3E52798E528994026C3EC98ED7C
:1079400099501F1279B9700374FF69702F8E828F5E
:1079500083E064017002A3E070088E828F83E4F0FC
:10796000A3F0EC2400ED3408FD0525E525C3940AB9
:1079700050030278E17A007B00027AA574FE6870F9
:107980000374FF6970888E828F83E064017002A3A4
:10799000E070078E828F831279B38A828B83A3A3D0
:1079A000A37821124364600302790E80CC85418262
:1079B000854283EAF0A3EBF0228A828B83127E4217
:1079C00074FF68227F0402510AF99002CDE8F0A307
:1079D000E9F02274F01250389002C3E4F0E0F5218F
:1079E00075220075F006A4F8A9F0748328F5827456
:1079F0000239F583E064FC7004A3E06407700302BD
:107A00007A8D740B7821124FB5127AB4FEE9FF1209
:107A10007E2D500AC2AF75C9AB75C95B80FEEE24DE
:107A200000EF34508E25127832124DA38525218522
:107A30002622852723852824740B7821124D58A9E6
:107A400021126FDD9081EC7821124E68901CB6787F
:107A500021124DB6752101752200782112524B7CFE
:107A6000B67D1C74027825124D58127826124FDE0E
:107A70009002C3127E768882898374FCF0A3740717
:107A8000F088828983A3A3A3A3E4F0A3F09002C3A8
:107A9000E004F0C3940A50030279DD127AAAE8F0F8
:107AA000A3E91278C27F0802510A9002BF127E42F7
:107AB0009002C122901CB4E02400F8A3E03522F922
:107AC000E82274E812503874FC124FC81279AD895C
:107AD0002E9002C1E0F529A3E0F52A854182854276
:107AE00083E0F523A3E0F524ECC39523FCED952476
:107AF000FDEC2529FAED352AFB9002BF127E3EEA05
:107B0000C398F521EB99F5229002C874FFF0A3F019
:107B1000A3F0A3F09002C5E4F07403252E54FCF505
:107B20002EC3E5219401E5229408400675210075D5
:107B300022089002C4E4F0E0FAF525752600740BE3
:107B40007825124FB512772E35268882F583782551
:107B5000124E68EA75F006A4FAABF074832AF87442
:107B6000023B127E5CFAA3E03BFB9002C878251230
:107B700043E94031A82EC3EA98EB94004027C3E5BF
:107B8000219AE5229B401E9002C4E09002C5F0902D
:107B900002C87825124E77E4C39AF874089BF990CE
:107BA00002C61279CD9002C4E004F0C3940A408763
:107BB0009002C6127E3EC3E52198E52299401290BC
:107BC00082047825124E689002C8782512436470AA
:107BD00003027E25A2AFE4339002CCF0C2AF7E0058
:107BE0007F00752D009002C6E0F8EC98ED995029C1
:107BF000E523C39529FEE524952AFF8E23F52478F5
:107C00002312524B9002C1127E569002BF127E4840
:107C1000124FDE1279AD752D01854182854283E0D8
:107C20002404FAA3E03400FB9002C5E0F523752498
:107C300000740B7823124FB5901CB4E02400F52794
:107C4000A3E03524F52875250475260075290074F0
:107C500002125014E4F0A3F0E5272404F8E43528D8
:107C60001279C985272F8528308012752901A82A05
:107C70009002CDE028F8A3E034001279C99002CD3B
:107C8000127E3EE52724FFFCE5283407FDC3EC986F
:107C9000ED995003027D3DC3E52F98E530994003EF
:107CA000027D3D1275FF127E569002CE1275FF12B4
:107CB0007854F52A74FF6C700374FF6D607FEC4D8F
:107CC00060A974FE6C700374FF6D6008E529A2E082
:107CD00092F08002C2F0A2F0E433422D74021250FE
:107CE0001412786D701C74FE6C700374FF6D70124A
:107CF000E5272525F8E5283526F9740212501412D7
:107D000079CDE52AF523752400E5252523F8E4350A
:107D100026F9C3E52198E522995003027E1D7823B8
:107D200012524B9002CD127E56127E50124FDEE55B
:107D3000252523F525E43526F526027C6E127E2DB9
:107D4000500AC2AF75C9AB75C95B80FEE52F240030
:107D5000F521E5303450F5223395E0F523F52490F4
:107D600081F87821124DA385212985222A85232B8C
:107D700085242C740B7829124D58A929126FDD9097
:107D800081EC7829124E68901CB67829124DB69075
:107D90001CB6124EB6854182854283E0FCA3E0F515
:107DA000838C82124EC29002C5127E76C39525FA4C
:107DB00074089526FB888289831279B37402125065
:107DC000141278C688828983A3A3A3A31279B374FB
:107DD000027825124FA6782512524B7402125014C5
:107DE000127E5674027821124D58AA21AB221278C5
:107DF0002A124FDEE52D6025EE4F60188E218F226E
:107E0000782112524B9002BF127E569002C1127E10
:107E100048124FDE9002BF1278C61261919002CCD8
:107E2000E0A2E092AF7404124FDE0277291270DFF5
:107E3000E9C39465A2D265D033228882F583127E8D
:107E40004222E0F8A3E0F922127E71127E4F22FB5B
:107E50001270EB740222E0FCA3E0FD22F98882F5A7
:107E600083127E71FB88828983A3A3E02A22900279
:107E7000C1E0FAA3E022E075F006A4F8A9F074834B
:107E800028F8740239F98882F583A3A3E4F0A3F0FB
:107E90002274F0125038EAFEEBFF752104752200BF
:107EA000782112524BEAFCEBFD7ACF7B02127E5016
:107EB000124FDE9002CFE4F0A3F0752301F5247891
:107EC0002312524B7CCF7D02EE2400F525EF127871
:107ED00030124DA374027825124D58127826124F95
:107EE000DE9002D1E07900240350010954FCFCE942
:107EF000FD127F1A124F35E875F006A4F8AAF07546
:107F0000F006E9A42AF9748528F582740239F5830C
:107F1000E02CF0A3E03DF0027AA5901CB4127E4262
:107F2000EEC398F8EF99F97A007B082274F71250A3
:107F30003874FF124FC8854182854283E4F0AC411A
:107F4000AD427A0112722FE9700A8541828542831F
:107F5000E0F9800279007401124FDE7F0102510ABC
:107F6000C082C083E99008DCF0D083D08202434C09
:107F7000C082C083126FB312702580ED74F6125068
:107F800038EAFEEBFF5480601980031271159008E7
:107F9000DCE0F9127127EA4B70F1EEFAEF6480FB36
:107FA0008019EA54206005EA64208008EA541060D1
:107FB00006EA6410FA80047A007B007F0202510A0C
:107FC000C082C08312704F80A0C082C0838541826E
:107FD000854283E0F8A3E0F9E84960128A828B8346
:107FE000ECF0A3E824FF18E934FFF94870F2D083DD
:107FF000D08202434C02434CFFFFFFFFFFFFFFFF15
:10800000C082C083854582854683E06420700A85EE
:108010004683A3858245858346D083D08202434C24
:10802000C082C0837A007B00854582854683E0F963
:108030007422696005742769701F854683A3858251
:108040004585834680050AEA70010B12BD5EE0F8A3
:10805000E9686009740A6870ED7AFF7BFF80BA7482
:10806000F0125038E9FEEAFF7521007522007523F1
:1080700000752400802274D02AFAEAC39F504B8FE7
:1080800025E4F526F527F52878217925124BD38AA2
:108090002578217925124D90EEF974FF29FE0460B0
:1080A0002F85458285468312AE5274D02AC3940A26
:1080B00040C474BF2AC39406500474C980BA749F24
:1080C0002AC39406500474A980AE75490212AE0802
:1080D000AA21AB22AC23AD2402B22774F41250388B
:1080E0008921EAFCEBFD74BF29F9E521F52375240C
:1080F0000074027823124FB512ADDA24FCFAEB3487
:10810000FEFBE9131313541FFE18E62EFE08E43697
:10811000FFEE2468F582E43FF583E0C0E074075980
:10812000F8D0E0B800028004C313D8FCA2E0400DF0
:108130008C828D8374BAF0A3741CF080118A828BB8
:108140008312AE5C12AD37E8240CFAE439FB7F04ED
:1081500002510A74EC125038EAFEEBFF12AE4050A6
:1081600077A3858245858346EEFAEFFB1261DF8AAD
:10817000218B228E828F8312C051706E854523859C
:108180004624854582854683E024D0C3940A501452
:108190007A0A79FF1261D98A258B268C278D28755A
:1081A00049008007790112ACB570279081B4782519
:1081B0001243A3501D8E828F8312AFD7F529A3E0FF
:1081C00034FFF52AE4F52BF52C782979251243792B
:1081D000400C8523458524467A007B008010E521EC
:1081E0002525F521E5223526F522AA21AB227F0C93
:1081F00002510A74F2125038E9FE8A218B228A2534
:108200008B26EA240CF8E43526F9C3E498FAE499BD
:10821000FB784CE62AFA08E63BFBC3EA954EEB9561
:108220004F50067549040282FF8A4C8B4DAC4CAD11
:108230004D8A828B837403F0E525240CA3F0A3E917
:1082400012AD587402F0EA2404F8E43DF9EE888295
:10825000898312AD58A3A3A3A3A3A3A3E4F0A312FD
:10826000AD2EE024BFFF12AE17F8E43BF9E8FAEFB9
:10827000F52575260074027825124FB5784AE62553
:1082800025F52508E63526F52674075FF87401B84C
:1082900000028004C333D8FCFF8A828983E05F8CAC
:1082A000828D83A3A3A3A3A3F08A828983E04FF0E6
:1082B000852582852683124EB68C828D83A3A3A347
:1082C000A3A3A3124EC2852582852683ECF0A3EDDD
:1082D000F0784CE6240CFA08E436FB740E125014C5
:1082E000E0FCA3E0FDEC4D600D782112524B12BC76
:1082F000FB124FDE8009AC21AD227900127103021E
:10830000C01674F712503874FE124FC8E543454446
:10831000607C7543007544007E028005EEF91270A2
:10832000BB74FF2EFE0470F47C6C7D007900AA4AB9
:10833000AB4B1271037C1C7D0079007A137B031216
:1083400071037E00EEF91270790EEEC3940440F4CE
:108350007A007B00127085854A4C854B4DAE47AF45
:1083600048801C8E828F83E064057010AC41AD4262
:10837000A3A3A312AFCC12C02012664712C287C3B8
:10838000EE954EEF954F40DB85474E85484F740282
:10839000124FDE7F0102510A74F0125038E9FEEAF2
:1083A00024FCFCEB34FFFD74C36E701A8C828D8349
:1083B0007821124E687821124D2D8C828D83782180
:1083C000124E770285BAECFAEDFBEC24FCFCED349E
:1083D000FFFDE912528FB111AE85FE83128426840F
:1083E00042846B84A084B584CA84DF84EE840485CF
:1083F0001A851A8530854685EE846F858A858A823E
:108400008B837821124E688C828D837821124DB631
:1084100080B18A828B837821124E688C828D83781A
:1084200021124DF5809D8C828D837821124E688AB1
:10843000828B837825124E6878217925124BD302DE
:1084400085A38A828B837825124E68E525452645CB
:1084500027452870030285B38C828D837821124EC4
:108460006878217925124CEC0285A38A828B837867
:1084700025124E68E52545264527452870030285C7
:10848000B38C828D837821124E6878217925124C25
:10849000EC8525218526228527238528240285A38E
:1084A0008A828B837821124E688C828D8378211288
:1084B0004E1C0285BA8A828B837821124E688C8288
:1084C0008D837821124E420285BA8A828B8378216D
:1084D000124E688C828D837821124E550285BA8A9D
:1084E000828B837821124E688C828D83804F8A82A2
:1084F0008B837821124E688C828D8378211243649D
:10850000605C80568C828D837821124E688A828BC3
:1085100083782112438E504680408A828B83782153
:10852000124E688C828D8378211243647030802AC9
:108530008C828D837821124E688A828B83782112F7
:10854000438E401A80148A828B837821124E688C65
:10855000828D83782112438E5004D2F08002C2F0C3
:10856000A2F0E433F521E4F522F523F52480348CE0
:10857000828D837821124E688A828B837825124EF1
:1085800068E5257821124D7180198C828D837821C0
:10859000124E688A828B837825124E68E5257821F1
:1085A000124D3E8C828D837821124E77800C754956
:1085B0000280037549037A007B0002B22774E81237
:1085C000503874C7124FC87404125014E9F075265D
:1085D00001E5496003028962741912501E882189DD
:1085E00022AE21AF22740912501E882D892E7402EA
:1085F000125014EEF0A3EFF07402125014E0F521C3
:1086000074027821124FA6740712501412AD5074E0
:108610000912501E740512501412AD37801AE52B42
:108620002AF582E52C3522F583E08E828F83128F26
:1086300057AE29AF2A752600854582854683E0F529
:1086400025A38582458583467845E62401F52308E0
:10865000E436F52412ADFDE52D2402F521E4352E96
:10866000F522EE2404F529E43FF52AE52512536CA2
:10867000049698E489B3C27D8ECACCE489CED0E456
:10868000890D0A8B8720388628B08929AD8A2C2B42
:108690008A80C68782E489B17D8EB2748EC8E489EF
:1086A000C92988CDFC87F1E489AB8674D02525C320
:1086B000940A503C7439125014E5826E7003E583BD
:1086C0006F7003028F308A458B468E218F22AE2930
:1086D000AF2A7A0A79FF1261D9EAF8EBF9ECFAEDE0
:1086E000FB852182852283124EC2754900028635A0
:1086F00074BF2525C3941A400302878BAA41AB425D
:10870000A9251261DF8A2B8B2C12C04B705A741969
:10871000125014C3E5219582E52295834003028F10
:1087200030854582854683E024D0C3940A40030205
:1087300089F885452F8546307A0A79FF1261D98AF2
:10874000218B228C238D247549009081B4782112CD
:1087500043A3500B128F97124379500302861E8554
:108760002F4585304602895F7439125014E5826EB8
:108770007003E5836F7003028F308A828B83124E01
:10878000B68E828F83124EC20286318A458B467422
:1087900005125014C3E0952DA3E0952E4003028FDF
:1087A00013E52D24FEF52DE52E34FFF52EEEFAEF20
:1087B000FB852D82852E83E0128F44125014128F78
:1087C0009040CC02895B7439125014E5826E7003BC
:1087D000E5836F7003028F30854582854683E025EF
:1087E000E0F8E433F974FE28F582747F3912BEFE96
:1087F000128F5D85234585244602863174391250D7
:1088000014E5826E7003E5836F7003028F308E2152
:108810008F22AE29AF2A7A1079FF1261D985218281
:10882000852283124E920286EA854582854683E040
:108830006428600302895B8523458524468545823B
:10884000854683E0F9749F6960030288DC75230024
:108850001261CD12AC5FE0A2E740158582458583A9
:108860004624D0F523C39402400302895B1261CDF4
:10887000854582854683A3E0F974A769600874A8DA
:1088800069600302895B854582854683A3A3E06412
:1088900029600302895B854582854683A3A3A3855E
:1088A00082458583467439125014E5826E7003E563
:1088B000836F7003028F308E218F22AE29AF2A740E
:1088C000A76970047A5280027A57A9231270CDE901
:1088D000852182852283128F5702863518E624016E
:1088E000FA08E436FBEAFCEBFD18E624020A08E489
:1088F00036FB74226970768A828B83E06422706D05
:108900008C828D8312AE37500302863574D028C313
:10891000940A50477439125014E5826E7003E5834F
:108920006F7003028F30745028F91261C7E9F88E16
:10893000828F83AE29AF2A600924FFFAE434FFFB5B
:1089400080047A007B00EB3395E0FC12AD24F078D4
:1089500045E6240312ADBC64296052E549700375F5
:1089600049027A007B007C007D00028F2B74BF29B6
:10897000C3941A50E68C828D83E0642970DD7439CB
:10898000125014E5826E7003E5836F7003028F301E
:108990008A458B46AA41AB4212C04870BE12AE7DDA
:1089A000F8A3E034FFF9128F5DAE29AF2A028635B5
:1089B0007419125014E582652D7004E583652E70DC
:1089C00003028F307407125014E0F98E238F247441
:1089D000027823124FA6E523C399852D82852E8325
:1089E000A3F080147419125014E582652D7004E50B
:1089F00083652E7003028F30852D82852E83E525B9
:108A0000F085212D85222E752601028638E52D243C
:108A1000FEF52DE52E128F70F86428602D128F3F21
:108A2000125014128F90400302895B740912501E79
:108A3000E52D687003E52E6970D37404125014E0BC
:108A40006402600302895B02878FE52D2402F52D05
:108A50005002052E0286358E298F2AAE21AF2212B2
:108A600070DFE9F5213395E0F522F523F5249081B7
:108A7000AC7825124E6878217925124BD3908190DD
:108A80007825124E6878217925124CEC852982854B
:108A90002A8312AD50A3E523F0A3E524028DE11251
:108AA0008F3F125014128F90400302895BE52D24F2
:108AB000FEFAE52E34FFFB8A2DF52E8A82F583E03F
:108AC000F8642870DAA3E0FC7407125014E0F98E01
:108AD000218F2274027821124FA6E521C399C39CED
:108AE000FC740912501EEA687002EB69700D740480
:108AF000125014E06401700302878F740512501441
:108B0000C3E0952DA3E0952E4003028638EA24FEAB
:108B1000F52DEB128F70F525EC7072EE2404F52123
:108B2000E43FF522E525247E603B24B7600D1470F8
:108B300003028A5724FC601702895B8E238F24AEC0
:108B400021AF2212708B852382852483028D328E81
:108B5000238F24AE21AF227900128F3685238285A0
:108B60002483028D94794C784EE7C396FA0809E77E
:108B700096FBEAF8EB3395E0FA8E828F83E812AD2C
:108B80001FA3EAF0A3F0AE21AF22028A0774016CA2
:108B90006003028DEC128F8A124E68E525246A70FC
:108BA00003028D1C147003028D22147003028D28A1
:108BB00024D0601924FE603B24FC604D24FE700329
:108BC000028D7E24DF7003028D38028D9B9081B46C
:108BD00078211243A340057821124D2D852125854A
:108BE0002226852327852428128F7B7825124E770D
:108BF000028A071271098A258B26E4F527F5287861
:108C0000257921124CEC028E6B90819C78211243C5
:108C1000E9500302895BE52175F007A4F521A8F06E
:108C200075F007E522A428F52274132521F529748F
:108C3000033522F52A852982F583A3E07003028992
:108C40005B852982852A83E0F8C394415003028C16
:108C5000F8E5292402F52BE4352AF52CE824BFF5A4
:108C600025E434FF12AC5B124D7190821C78251202
:108C70004DA3852B82852C8312AEFE124E2FAA2582
:108C8000AB26AC27AD281261AF8A218B22A821A97F
:108C900022EA496078852982852A83A3A3A3A3E0D9
:108CA000FA88828B83A3A3E06A705D852982852A76
:108CB0008312AE2E12AC4D124D7190821C7821128F
:108CC0004DA3852B82852C8312B00F852982852A9E
:108CD0008312C01B124F3D8A258B26E4F527F52809
:108CE00078217925124E2FAA21AB22AC23AD241274
:108CF00061AFEA4B601780107C007D007A00E024B1
:108D000050F912722FE97005752100800375210159
:108D1000752200752300752400028E6BAA2179004C
:108D2000800AAA2179018004AA2179021262211203
:108D30008F7B124E92028A07852226E52654806098
:108D40000302895B852125AA25E526540FFBC394E0
:108D500004401790821478211243A3400DEE24FCA6
:108D6000FCEF34FFFD126EDB800BEE24FCFCEF34D5
:108D7000FFFD127277E9600302895B028A07E52131
:108D80004522452345246004790180027900128F31
:108D900036128F7B12AD1EA3EC804474BF2525C311
:108DA000941A5041AA41AB42A92512C0486003025F
:108DB000895B9081B478211243A3400302895B123E
:108DC0008F97124379400302895BEA2521F582EBF4
:108DD0003522F583E0FA128F7BEAF0A3E4F0A3F0EA
:108DE000A3F0028A078A2D8B2E028A0774026C6018
:108DF0000302895BEE24F8F582EF12C19C78211200
:108E00004E6878211244089081F07825124E6878D7
:108E100021792512462E128F7B7829124E687829E7
:108E20001244089081F07825124E6878297925122D
:108E3000462EEE24FCFEEF34FFFF7829125247AA9B
:108E400021AB22AC23AD241272E97404124FDE8AE6
:108E5000218B228C238D249081CC7825124E68782A
:108E600021792512462E7821124480128F8A124EC3
:108E700077028A07E526A2E050037525C3A825746A
:108E80002A28F582E43480F583E0F5217409125034
:108E90001EE52D687003E52E696051E52D24FEF86E
:108EA000E52E34FFF98882F583E0FC744F2CFAC379
:108EB0009413503874DB2AF582E43480F583E0FAA9
:108EC000E521C39A4026882D892EEEFAEFFBECF9B6
:108ED0001261F78A238B24A823A924EAFEEBFF74EE
:108EE00002125014128F9040A302895B7419125021
:108EF00014E582652D7004E583652E6033852D822F
:108F0000852E83E525F0E52D2402F52D5002052E52
:108F1000028A07741D125014E5826E7003E5836F98
:108F2000600302895B128F7B124E86743902BCDFAC
:108F30007549040289621270D9EB3395E0FC22EE88
:108F4000FAEFFBE8F91261F78A218B22A821A92206
:108F5000EAFEEBFF740222128F69A3F0228E828F49
:108F600083E8F0A3E9128F6922F0A3E4F0A3F022D2
:108F700034FFF52E852D82F583E022128F7F22EEBD
:108F800024FCF582EF34FFF58322128F7F782122B3
:108F9000C3E098A3E09922854182854283E0F812DC
:108FA000AE87F525A3E034FFF526E4F527F528780C
:108FB0002579212274F61250387A007B0D1271C97E
:108FC0009002D312AD1E7C007D0D790012710390CA
:108FD00002D312AFEF2494F582E8340CF583858236
:108FE0004A85834B854A4CF54D9002D312C020121E
:108FF00061918A478B488A4E8B4F7F0202510A74D7
:10900000F61250381270731262039081EC124E8681
:109010001261AFEA4B60379002D3C3E09547A3E0FB
:109020009548502A9002D312BDB7F8A312AE4E1243
:109030005262752100782112524F9081C0124E86E3
:10904000790312707F7403124FDE79018002790078
:1090500080A874E812503874EE124FC8740A125087
:1090600014E9F0EAFEEBFFE0A2E1500912708B90E8
:1090700002D7124E92754900EE4F604B9002D5EE2A
:10908000F0A3EFF0740A125014E0A2E0501E784CE6
:10909000E624FD12ADEF5003029AA88A4C8B4D8A4C
:1090A000828B837404F0A314F0A3E4F012AEB88AA8
:1090B000828B8312AF58EA9547EB9548401C7404A5
:1090C00065497003029AAB7901741202BCDFE96052
:1090D000030298CF858245858346A845A9468882A4
:1090E0008983A385824585834688828983E0F5212B
:1090F0007845E62402FC08E436FD12ADFDAE47AF2C
:1091000048A843A944E52112528F802860912992F2
:1091100060910099E291FE911892369236926F9981
:1091200064928292869A00990099D59200995B93F5
:1091300000998493CB93F19300994394439443947F
:109140009394A394FB947095D69529923996609147
:10915000359761976091BDAA8A97CA9702983E9801
:109160008A458B46E521C394804003029229AA4197
:10917000AB421261E58A218B22854582854683E0D8
:1091800064BD6003029229EA4B701512C03370036C
:1091900002922912BD9AA3A3E064026003029229FD
:1091A000754900854582854683A38582458583462A
:1091B000EA4B7003029AE112ACAD125014124E92B7
:1091C000E549706512C04B6003029ACE74041250D8
:1091D000147825124E68852182852283E525F002C8
:1091E0009B39854582854683E0640A703C1261F1B3
:1091F0001261B58A478B488A4E8B4F0290BE12612E
:10920000F19002D312B246C3E5439547E544954831
:1092100050030292C90290BE854582854683E024B0
:10922000BFC3941A5003029A7DE54960030290BEC1
:109230007549010290C712ACAD125014124E92E55E
:109240004970E6854582854683E0640A70E27404CD
:10925000125014124EB6E8494A4B60030299007945
:10926000000298CF12AD8F70C0854582854683E09D
:10927000640A70BC1261978A438B44C3EA9547EB3A
:10928000808C12AD8F70A2854582854683E0640A8A
:10929000709E784CE624FB12ADEF5003029AA88A28
:1092A0004C8B4D8A828B837401F0A37405F0A3E488
:1092B00012AD58E543F0A3E544F012AEB8C3EA9509
:1092C00047EB954840030290BE8543828544831254
:1092D000AF0F0290D4854582854683E0F874BF289D
:1092E000FEC3941A4003029229741112501412AD55
:1092F0006112B2BD64BD6003029229A385824585D7
:10930000834612ACE06003029229A845A9468882F0
:109310008983A385824585834688828983E064D3D7
:109320006003029230790012ACB56003029229A862
:1093300045A94688828983A385824585834688829C
:109340008983E064D460030299AA12ACA38C2B8DAC
:109350002CE54960030292290299B97E0085458275
:10936000854683E064557011A3E06450700B8C82D5
:109370008D83E0640A70027E011261F1EEF91270D1
:109380009702922985458285468312AE37400302B3
:109390009229740212501412AD61790112AC9D60D1
:1093A00003029229EA4B4C4D7003029230E4F525FA
:1093B000F526782512524B7404125014E0F912610C
:1093C000EB7402124FDEE54902972D7F0012AC16B6
:1093D000FEE549600302922912B2BD64D560030222
:1093E0009B4CA3858245858346EEF91270790299DC
:1093F0000012ACAD125014124E92E5496003029275
:10940000299081B47821124E687404125014782186
:1094100012438E5003029BB1854382854483A3A3EC
:1094200012BD89125262752100782112524F7407C1
:10943000125014124E86790312707F7403124FDE9D
:109440000290C78A458B4612621B7403125014E9BE
:10945000F0E5496003029229854582854683E064F0
:10946000BD6003029230A385824585834612ACAD70
:10947000125014124E92E5496003029229740412AC
:109480005014124EB6E8494A4B7003029AB0780362
:10949000029AB2C3E89EE99F5003029C1C754907DB
:1094A0000290C79002FD7401F09002FB12C0397067
:1094B0000A9002FB74DCF0A37402F08545828546B5
:1094C00083E0F5237521FB752202246F7003029F50
:1094D000F824A57003029DD514601024FE700302C9
:1094E0009DE8147003029EB002A05A12B03E5003D1
:1094F00002A9BA12B0527405029DE29002FDE41274
:10950000BD3EC3948050A212ACAD125014124E92C4
:10951000E549600302922912B2BD2414600614606A
:1095200016029229A3858245858346E064ED700783
:10953000A385824585834612AD8F6003029229740C
:10954000041250147821124E68740812501412AD8F
:1095500050740812502E79027A027B0012727174D4
:109560000812502E79027A037B0012727102990060
:1095700079021261FD8A218B22AE21AF22E549607A
:1095800003029229EB5480700302A116740F5FFF4F
:10959000740812502685458285468312BD738A2140
:1095A0008B22AC21AD22740812501412C0516003FA
:1095B000029229EE2400EF34FCF9C3EE9411E994F1
:1095C000007408400302A10812501412AEB1EFFB60
:1095D000126ED502972C740D125014E4F012621B17
:1095E000740E125014E9F0E54960030292291261E9
:1095F000CDAA45AB468A828B83A3A882A9838845DE
:1096000089468A828B83E02427600A24FE70030245
:109610009BF802AB89740F125014741012AD2E1205
:10962000AE52740A6A6003029BCB74101250147419
:1096300018F088458946029C087521008545828579
:109640004683E064237015A385824585834612AC6A
:10965000E8EAF521C39402400302922912ACE88A99
:10966000258B268C278D2812B2BDF52DA38582452A
:109670008583461261CDA845A94688828983A38542
:10968000824585834688828983E0642C6003029248
:109690002912AC16F52412AC16F5238545828546B1
:1096A00083E0F522A3858245858346E54960030270
:1096B00092297E007F00E064E3700F12ADB1600379
:1096C00002923012ACA3AE29AF2A7800790085450A
:1096D00082854683E064E4700F12ADB160030292AC
:1096E0002912ACA5A829A92A8829892A78291252E1
:1096F0004B8E298F2A782912524B782212524FE52D
:1097000023F522782212524FE524F52278221252B4
:109710004FE52DF522782212524FAA25AB26AC2711
:10972000AD28A9211270B57408124FDEE96003025A
:109730009229029900790212ACCE12530B17000045
:10974000000129929FAB489712ACCC12530B1A0020
:1097500000000229925B978FAB97AB9002DB029CD3
:1097600079854582854683E064CB600302ABD8A34C
:10977000E0642C60030292298C458D4612AC9B60FC
:10978000030292291270910299007E0012ACC3600C
:1097900003029229EAC394044003029230EA75F06E
:1097A00007A4F8A9F0741328F527740339F5288560
:1097B0004582854683A3A3E0F874D028C3940A4069
:1097C0000302A17875250102A17B85458285468328
:1097D000E0649F600302A3557E00A38582458583D4
:1097E0004612AD0F601412AC16FEE54960030292FA
:1097F00029EAC394024003029230EEF91270BB02D0
:109800009900A845A94688828983A38582458583D6
:109810004688828983E06423600302922985458219
:10982000854683E0649F600302A3F412AD017003D8
:1098300002A38F12AC6C500302A38F029229AA4597
:10984000AB468A828B83A38582458583468A828B39
:1098500083E064236003029229854582854683E084
:10986000649F600302A7B212AD01600812AC6C40A5
:109870000302922912AEE07003029900742C687002
:1098800007A3858245858346740B125014E4F0A328
:10989000F0740B1250261261E5EA4B700302A73BED
:1098A000740B12501412C0518A828B83600302A77A
:1098B00021E002A7287A027B0012709D12715D1EC2
:1098C000EE70F21261F179001270970290C70912DE
:1098D000AE649547E544954840030290C77845E655
:1098E0002403F58208E436F583E0247A60E01470FE
:1098F000030290CE14600624F7606D80D2E970CF29
:10990000854382854483A3A385824385834412AF24
:1099100058E5439547E544954840030290BE740AD4
:10992000125014E0A2E140030290DA12708B8A25F3
:109930008B268C278D28901CC612C02BE4F523F5AE
:10994000249002D77825124DDD78217925124379AC
:1099500050030290DA85438285448312BDB7FAA38F
:10996000E0FB1270850290C7E96095190298CF75E7
:10997000210012AD0F60030292298002052112AE70
:10998000649EE5449F40030290C7854582854683D7
:10999000A3A3A3E0F874866860E274916870DFE5C1
:1099A000217003029900152180D412AE0875290197
:1099B000752A00752B00752C0012AD0F6003029202
:1099C00029784CE624F212ADEF5003029AA88A4C93
:1099D0008B4DAC4CAD4D7402125014EEF07402126B
:1099E0005014E012AE17F582E43BF583E0C0E0745A
:1099F00002125014E05407F8D0E0B800028004C30B
:109A000013D8FCA2E050030292297411125014E002
:109A1000F52D752E007402782D124FB5784AE62583
:109A20002DFA08E6352EFBEA24FCF582EB34FEF530
:109A3000837821124E778C828D837402F0A3740E8A
:109A4000F0A3E4F07411125014E08C828D83A3A370
:109A5000A3F08C828D83A3A3A3A37825124E778CC9
:109A6000828D83A3A3A3A3A3A3A3A37829124E77D4
:109A700012B22CE543F0A3E544F0029900A3E064A0
:109A80000A6003029229126215E914700302990018
:109A90001470030290C71470030299001460091433
:109AA00070030290BE0292297549047E000298BF9D
:109AB00078047403125014E048F07404125014AC8B
:109AC00082AD837403125026126227029900740437
:109AD000125014124EB6852182852283124EC28006
