:020000040000FA
:104000005F43FFFF0100008042424242FFFFFFFF8B
:10401000FFFFFFFFFFFFFFFFFFFFFFFFFFFFFFFFB0
:10402000000102030405060708090A0BFFFFFFFF52
:10403000024399025DC2FFFFFFFFFFFFFFFFFFFF8B
:10404000FFFFFFFFFFFFFFFFFFFFFF02626AFFFFAF
:10405000FFFFFFFFFFFFFFFFFFFFFF0261E6FFFF24
:10406000FFFFFF0255DDFFFFFFFFFF026200FFFFC2
:10407000FFFFFF0261C0FFFFFFFFFF02563AFFFF95
:10408000FFFFFF025E38FFFFFFFFFFFFFFFFFFFFA5
:10409000FFFFFFFFFFFFFFFFFFFFFF0254E8FFFFEF
:1040A000FFFFFF0262BAFFFFFFFFFF025552FFFF53
:1040B000FFFFFF025C1F0277870100005F87027B22
:1040C000870100008D87108A850300008602027F29
:1040D000870300008102027D870100003C86027B8D
:1040E000870100008C87107A850200000000027FA3
:1040F000870300008302027D870100000C8600C058
:10410000010000000F81DD8177810F84A4809D82F2
:1041100000802486A4833D8447863E82E882000096
:10412000030000010000000000000000140030FF48
:104130000000B4000028002800283075A000A0006E
:10414000A000A00000080008E001F000100010002E
:10415000100010001000100050005000500010001F
:104160001000D0070000000000000F000100050053
:10417000307507001000010081FF00000000FFFF04
:10418000FF676685666D66A366FF0202020802503D
:1041900000A0000000E803027787010000598702B1
:1041A0007B87010000541C028187010000A50302E7
:1041B0007B87010000551C028387010000BB0302BE
:1041C0007B87010000561C028587010000BD0302A9
:1041D0007B87010000571C028787080000BE03028E
:1041E0007B87010000581C026987010000591CFFF1
:1041F0000100FF200277870100005687027B8701BC
:104200000000BD1C0265870000000000027F8703DC
:104210000000EC031700F16CF16CF16CF16CF16CC7
:10422000F16CF16CF16CF16CF16CF16CF16CF16CA6
:10423000616F736F5B6F020277870100005C87021A
:104240007B870100008F870267870100002A080230
:104250007B870100008B87026F87010000188602B0
:104260007B8701000090870289870100009A840201
:104270007B870100009187026D870100003985026C
:104280007B87010000001D02718701000076860116
:10429000FFFF00013075030201060000000000006E
:1042A000000000000000000000000000000000000E
:1042B000000000000000FFFF0600800CE80309007A
:1042C00000000000000000000100B0423BAAB83F1F
:1042D0000000003F8C906339AA0CA33A00941E3C66
:1042E0008042633DCFFE753E1572313F0000803F36
:1042F000F304353F8096184B000080BF2292D43ED5
:10430000DD9B2A3F04000040FFFF7F7FFFFF7FFF10
:10431000010080341872313FE5C754F84404F5C7F2
:1043200079012200000080FB124318B90003024308
:1043300083E479437815B800028004F709D8FCE4D7
:1043400079587802B800028004F709D8FCE490029A
:10435000807801791A8002F0A3D8FCD9FA7A807BA0
:104360001B9040B6786379038015E493A3AD82AEC9
:10437000838A828B83F0A3AA82AB838D828E83D8BB
:10438000E9D9E77582C475838E74051243AB7582D3
:104390002375834374001243AB75D00075815F753C
:1043A0004180754202759F00024328C09FF59FE43B
:1043B00073D09F22D083D082C09FE493C0E0740169
:1043C00093C0E0740293F59F22E066701008A3E0AA
:1043D00066700A08A3E066700408A3E06622C3E7DB
:1043E000960809E7960809E7960809E796A2D265B4
:1043F000D03322C3E09608A3E09608A3E09608A372
:10440000E096A2D265D03322C021C3E096F5210800
:10441000A3E096422108A3E096422108A3E0964239
:1044200021A2D265D033E5217001D3D02122C3E788
:10443000960809E7960809E7960809E79622C3E077
:104440009608A3E09608A3E09608A3E09622C02170
:10445000C3E096F52108A3E096422108A3E0964226
:104460002108A3E09645217001D3D0212208080835
:10447000E630E711124D8F124485080808C64480C3
:10448000C618181822181818E9799EC608CAC6084E
:10449000CBC608CCC6C370207996CACBCC7019792C
:1044A0008ECBCC70137986CC700EF9802ACA33CAB1
:1044B000CB33CBCC33CC331930E7F2CCCBCA33502F
:1044C000147004EA30E00DE4CA3ACACB3BCBCC3CD2
:1044D000CC500209C3E913C6CC182313C6CB18C6A7
:1044E000CA18C6F92212452520F01430E72B74FFB4
:1044F000FCFBFA747F8022E4FCFBFA7480801AB41F
:104500008008BC00F2BB00EF800F50EBF9E4C39AC7
:10451000FAE49BFBE49CFCE499C6CC18C6CB18C615
:10452000CA18C6F922E4C9C608CAC608CBC6D3331E
:104530000308CCC63392F0C3947F402E94184019E0
:10454000C9B90704CACBCC225025C309CA33CACB88
:1045500033CBCC33CC33D9F422F4600DC9CCC313A4
:10456000CB13CBCA13CAD9F6CC22E4FCFBFA221433
:10457000FCFBFA22E62618461846184622E72719B9
:10458000471947194722181818E60846087009E61F
:1045900026087005E633F4220822191919E709479D
:1045A000097009E727097005E733F4220922E608B4
:1045B0004608C3134608336002E633F422E709478E
:1045C00009C3134709336002E733F4221245AE6092
:1045D000251245BD6020124574700302457D080810
:1045E00008E76670101819E766700A1819E7667010
:1045F000041819E76622F4221245AE601C1245BD6C
:104600006017124574700712457D7001D322C0D027
:1046100012457D7006D0D0B322C32233D0D05014BF
:1046200030E0F6C3E7960809E7960809E796080917
:10463000E796B32220E0D5E6970809E6970809E651
:10464000970809E697B3221245AE601B1245BD607C
:1046500016124574700712457D600CB322C0D0124B
:10466000457D7005D0D022C32233D0D0501330E026
:10467000EBC3E7960809E7960809E7960809E79665
:104680002220E0E4E6970809E6970809E69708097A
:10469000E69722001245AE604F1245BD6012E75406
:1046A0008066F6124586701112457D703B09090936
:1046B000F4F618F618F618F62212459A70151245F7
:1046C0007408080860EAE6447FF618768018E4F675
:1046D00018F622124574601612457D7012E4F60831
:1046E000F608F608E65480F609090918181822EAAF
:1046F000C0E0EBC0E0ECC0E0EDC0E0E687F0A4FB7A
:10470000ACF008E687F0A42CFCE435F0FA1809E6D2
:1047100087F0A42C4B60027401CA35F0FCE433FB33
:1047200009E687F0D2F7A42CCB35F0FC1908E68710
:10473000F0A42BCC35F0FBE433FD0819E687F0D26A
:10474000E7A42C4ACB35F0CD3400FC09E687F0D243
:10475000E7A42DCC35F0FDE433FA0918E687F0D252
:10476000F7A42CCD35F0CA3400FC08E687F0D2E778
:10477000D2F7A42ACC35F07A7E20E70B0ACB33CBD4
:10478000CD33CDCC33CC33CB3350147004ED30E08B
:104790000ED2F1E4CD3DCDCC3CCC3B5005DA05C288
:1047A000F1EB547FC63308E63392F0FBE73309E7B9
:1047B00033C39A502D2B70190C0D4C4D70151806E3
:1047C000E608C333700D20F10AA2F013F6E4188056
:1047D0000B4024E4F630F002768018F618F618F64E
:1047E0008024D33B14501074FFA2F013F618768087
:1047F000E418F618F6800FA2F013F618E63303F665
:1048000018ECF618EDF6D0E0FDD0E0FCD0E0FBD0DF
:10481000E0FA221245BD60461245AE603DE968707F
:1048200008F618F618F618F622748067F71248474B
:10483000090909748067F7221245AE601D1245BD53
:104840007005191919801A124586701F12459AC3EE
:104850007003E66733191919400718181822080859
:104860000874FFF618F618F618F62212459A601723
:1048700012457D702192F01245747019501720F086
:1048800014080808090909E7F61819E7F61819E7DE
:10489000F61819E7F62212457460E6E869701F08F9
:1048A00008E62480F608E436F618547FB47F0CE658
:1048B00054806007F6E418F618F622181822E9C6A4
:1048C000CC08C6CD08C6CE08C6CFC0E0E8C0E0EA36
:1048D000C0E0EBC0E009E9F809E7FA09E7FBE6F90F
:1048E00018E6F8C3EC98ED99EE9AEBC2E7F5F0EF15
:1048F000C2E795F0500E600CEBCFFBEACEFAE9CDA3
:10490000F9E8CCF8EAA2E7D2E7FAEB33FB13F5F0CB
:10491000EEA2E7D2E7FEEF33FFC5F013A2E730E6E1
:1049200001B313C5F0C3C0E0C0F07F00C39BFB60C0
:104930005E9418600F401D14601AD0E023F9D0E097
:10494000F8024A198AF0E9486003D2F0E4AFF0FABD
:10495000F9F8803BEB30E40D89F0EA6003D2F0E433
:10496000AFF0F9CAF8EB30E30D88F0EF6002D2F057
:10497000AFF0E4CAC9F8EB54076014FBC3EA13FABA
:10498000E913F9E813F8EF135002D2E0FFDBEDD0A2
:10499000E0C0E030E739C3E49FFFF5F0EC98FC425B
:1049A000F0ED99FD42F0EE9AFE42F0D0E0F9D0E051
:1049B000F8E5F0607AE923F9EE20E742D802806753
:1049C000C3EF33FFEC33FCED33FDEE33FE80EAEC56
:1049D00028FCED39FDEE3AFED0E023F9D0E0F840B6
:1049E00002801BC3EE13FEED13FDEC13FCEF13501E
:1049F00002D2E0FF08B800067F7F74FF802EEF33FD
:104A000050178CF020F00260100CBC000C0DBD00A3
:104A1000080EBE000408E860DFE933E813FFEE2368
:104A200013FE4F4D4C8008E95480FFE4FEFDFCEE80
:104A300033EF33F47004FCFD7E80D0E0FBD0E0FA6D
:104A4000D0E0F8D0E0CFC618CEC618CDC618CCC678
:104A5000F9221245AE7004181818221245BD700DC7
:104A600074FFF61819F61819F61819F622E754808B
:104A700066F6124574700F12457D70F014F608F654
:104A800008F608F680D112457D700CF608F6087617
:104A90008008E6447F80EC12459D700C12458960C9
:104AA000BFE65480F6E480BB1245897005191919D8
:104AB00080A5E869700C763F18768018F618F6E83D
:104AC000F922E6CDC0E018ECC0E0E633CD33CDD31B
:104AD00013F6E719FCE7191933CC33C3947F400E62
:104AE000CD9D502408E65480F6E418F6800FF404B7
:104AF0003D14501408E6447FF6187680E418F61842
:104B0000F6D0E0FCD0E0FD22CCD313CCFD18E4C6F7
:104B1000CBC0E018E4C6CAC0E00808ED08C633E61A
:104B200013F618E433C675F003C3CA97CA09CB97C6
:104B3000CB199C40047D08802EBD0003024BFB1660
:104B4000B6FF050606081618C3CA33CACB33CB33E3
:104B5000CA27CA09CB37CB193CC37D08803E187DD4
:104B60000820E75CC633C6CA33CACB33CB33DDF18A
:104B7000D5F0EB30E77BCA97CA09CB974ACB199C93
:104B8000406F4B7025E620E0218066187D08C3CA7F
:104B900097CA09CB97CB199CD3C633C6CA33CACBA5
:104BA00033CB3350C9DDE7D5F0E1D3E4C636C608D0
:104BB000C636C608C636C608C636C61818188031A6
:104BC000C3CA97CA09CB97CB199CB34097C633C6C3
:104BD000CA33CACB33CB33DD34D5F02EC6A2E0C600
:104BE00040C8CA27CA09CB37194A70BECB3CB4802B
:104BF000B90808E63308E633601F181818D0E0FA41
:104C0000D0E0FBD0E0FCD0E0FD22187D08CA27CA26
:104C100009CB37CB193CD3808013F618E4B67F114B
:104C2000F618B6FF0EF618C60470D2080876808013
:104C3000CAF618F618F680C5080808EAC0E0EBC006
:104C4000E086F0E7A4FA180986F0E7A42AFA180922
:104C500086F0E7A42AFA180986F0E7A42AFA19864A
:104C6000F0E7A4FBE5F02AFA190886F0E7A42BFB8D
:104C7000E5F03AFA190886F0E7A42BFBE5F03AFADA
:104C800018180986F0E7A4C5F02BFBE43AFA1908D6
:104C9000E7C5F0C6A426F6E5F03BFBE43AFA188631
:104CA000F0E7A4F6E5F00826F6E43B08F6E43A0857
:104CB000F6D0E0FBD0E0FA22E4CFC0E0E4CEC0E0E2
:104CC000E4CDC0E0E4CCC0E075F020E626F608E6CE
:104CD00033F608E633F608E633F6181818EC33FC1A
:104CE000ED33FDEE33FEEF33FFC3EC9709ED97098B
:104CF000EE9709EF97191919400FFFEC97FC09ED92
:104D000097FD09EE97FE191906D5F0BFECF709EDEE
:104D1000F709EEF709EFF7191919D0E0FCD0E0FD1B
:104D2000D0E0FED0E0FF22124D92181818124CB8B5
:104D3000124D7E19191922124D7E191919080808E9
:104D4000E618181820E7E0124CB8124D92181818FF
:104D500022090909E719191920E7DC080808E618EB
:104D6000181820E703024CB8124D92181818124C6C
:104D7000B8124D92181818124D7E19191922E4C351
:104D800097F709E497F709E497F709E497F72218EA
:104D90001818E4C396F608E496F608E496F608E4D4
:104DA00096F6226017080808C6A2E713C618C613AD
:104DB000C618C613C618C613C6D5E0E92260160881
:104DC0000808C6C313C618C613C618C613C618C625
:104DD00013C6D5E0EA2270090808082260161818E0
:104DE00018C6C333C608C633C608C633C608C6339A
:104DF000C6D5E0EA22E627F60809E637F60809E60E
:104E000037F60809E637F622E026F608A3E036F67C
:104E100008A3E036F608A3E036F622E026F008A361
:104E2000E036F008A3E036F008A3E036F022C3E64F
:104E300097F60809E697F60809E697F60809E6974F
:104E4000F622C3E0C696F608A3E0C696F608A3E0ED
:104E5000C696F608A3E0C696F622C3E096F008A32D
:104E6000E096F008A3E096F008A3E096F022E05662
:104E7000F608A3E056F608A3E056F608A3E056F6B7
:104E800022E056F008A3E056F008A3E056F008A38D
:104E9000E056F022E647F60809E647F60809E64735
:104EA000F60809E647F622E046F008A3E046F008D7
:104EB000A3E046F008A3E046F022E066F008A3E095
:104EC00066F008A3E066F008A3E066F022E0F608CA
:104ED000A3E0F608A3E0F608A3E0F622E6F008A3B4
:104EE000E6F008A3E6F008A3E6F022E0FAA3E0FB70
:104EF000A3E0FCA3E0FD22EAF0A3EBF0A3ECF0A317
:104F0000EDF022E0FCA3E0FDA3E0FEA3E0FF22EC35
:104F1000F0A3EDF0A3EEF0A3EFF022E0F8A3E0F9A8
:104F2000A3E0FAA3E0FB22E8F0A3E9F0A3EAF0A3F0
:104F3000EBF022CAC0E0E6F0A308DAFAD0E0FA22E9
:104F4000CAC0E0E0A3C582CCC582C583CDC583F0CD
:104F5000A3C582CCC582C583CDC583DAE6D0E0CABD
:104F600022C3E498F8E499F9124FA28026C3E49A88
:104F7000FAE49BFBE920E7E9124FA2E498F8E499F0
:104F8000F922C3E498F8E499F9124FA2E498F8E4FE
:104F900099F9C3E49AFAE49BFB22EB20E7CFE920DE
:104FA000E7E0B90010BB0008E88AF084F8AAF02214
:104FB000E4FBC8FA22EB70227B10C833C8C933C99E
:104FC000335007C39AC3DBF280069A50012ADBEA0A
:104FD000C833F4C8C933F4C9FA2275F008E4C833F9
:104FE000C8C933C933C99AC99B5004C92AC93BD51A
:104FF000F0ECFBC833F4C8E4C9FA22600D08C6A27D
:10500000E713C618C613C6D5E0F322600C08C6C362
:1050100013C618C613C6D5E0F422700422600D181A
:10502000C6C333C608C633C6D5E0F41822254110DE
:10503000AF08F541400C15428008F5414002154289
:10504000D2AF2200C0D0254110AF08F541500C0569
:10505000428008F54150020542D2AFD0D02225410E
:10506000F58210AF08F541400C15428008F541402B
:10507000021542D2AF854283222541F582E43542B2
:10508000F583222541F8E43542F9222541FAE43539
:1050900042FB222541FCE43542FD22E4732541C553
:1050A00082C0E0E54234FFC583C0E0E541C395829C
:1050B00024F810AF088583428582418008858342A9
:1050C000858241D2AFCEF0A3E520F0A37821E60897
:1050D000F0A3DEFAEFF0A3E58124FAF8E608F0A3E6
:1050E000E608F0A3E608F0A30808E608F0A3E6083F
:1050F000F0A315811581D0E0FED0E0F8158115816F
:105100001581E8C0E0EEC0E0222541C582C0E0E59F
:105110004234FFC583C0E0E541C3958224F910AF56
:10512000088583428582418008858342858241D2F9
:10513000AFCEF0A3E520F0A37821E608F0A3DEFAD5
:10514000EFF0A3E58124FBF8E608F0A3E608F0A35E
:105150000808E608F0A3E608F0A315811581D0E061
:10516000FED0E0F815811581E8C0E0EEC0E02285B0
:105170004283854182E0A3FEE0A3F5207821E0A3ED
:10518000F608DFFAE0A3FFE0A3C0E0E0A3C0E0E0A0
:10519000A3C0E0E0A3C0E0E0A3C0E010AF088582B8
:1051A000418583428008858241858342D2AFD08386
:1051B000D0820243B1854283854182E0A3FEE0A311
:1051C000F5207821E0A3F608DFFAE0A3FFE0A3C012
:1051D000E0E0A3C0E0E0A3C0E0E0A3C0E010AF08BF
:1051E0008582418583428008858241858342D2AF92
:1051F000D083D08222C0D02541C582C0E0E54234B0
:10520000FFC583C0E0E541C3958224F310AF088554
:1052100083428582418008858342858241D2AFC81E
:10522000F0A3E9F0A3EAF0A3EBF0A37921E709F0FA
:10523000A3D8FAECF0A3EDF0A3EEF0A3EFF0A3D027
:10524000E0F0A3D0E0F0A3D0E0F0A3E520F0A3E5E8
:10525000F0F0A322854283854182E0C0E0A3E0F91B
:10526000A3E0FAA3E0FBA37821E0F608A3DFFAE0CD
:10527000FCA3E0FDA3E0FEA3E0FFA3E0C0E0A3E009
:10528000C0E0A3E0F5D0A3E0F520A3E0A3F5F01083
:10529000AF088583428582418008858342858241AB
:1052A000D2AFD082D083D0E0F8D0E0327404800650
:1052B000740280027401C0E0F40412505ED0E01267
:1052C0004F33227404800474028000CCC0E0EDC02F
:1052D000E0E541C39CCCAD4250011D10AF068C41AE
:1052E0008D4280068C418D42D2AF124F40D0E0FDFE
:1052F000D0E0FC22D083D082C5F0E493A3C5F0C3F4
:1053000095F0F5F0E493A3C395F04005E5F0048033
:1053100001E475F002A42582F582E5F03583F5837A
:10532000E493A3C0E0E493C0E022D083D082E9C03C
:10533000E0E493A3C386F0C5F095F0F908E493A3E5
:1053400086F0C5F095F0700BE493A3C3994005E98E
:10535000048002A3E475F002A42582F582E5F0350D
:1053600083F583D0E0F9E493A3C0E0E493C0E022A6
:10537000D083D082E9C0E0E493A3C386F0C5F09562
:10538000F0F908E493A386F0C5F095F0702408E4E2
:1053900093A386F0C5F095F0701908E493A386F006
:1053A000C5F095F0700E08E493A3C3994007E90493
:1053B0008004A3A3A3E475F002A42582F582E5F09E
:1053C0003583F583D0E0F9E493A3C0E0E493C0E033
:1053D00022D083D082CCC0E0E493A360061253FBBA
:1053E0001470FAE493A3600612541A1470FAD0E011
:1053F000FCE493A3C0E0E493C0E022C0E0E493A304
:10540000D39C5010E493A3C39C400AD0E0D0E0D0DA
:10541000E00253EEA3A3A3D0E022C0E0E493A36C88
:105420007009D0E0D0E0D0E00253EEA3A3D0E02298
:10543000D083D082ECC0E0EDC0E0E493A3FCE49321
:10544000A3FDED4C600D12547CEC24FFFCED34FF09
:10545000FD80EFE493A3FCE493A3FDED4C600D12FB
:1054600054BBEC24FFFCED34FFFD80EFD0E0FDD019
:10547000E0FCE493A3C0E0E493C0E022C0E0C3E416
:105480009396087401939618400FE4936670080889
:10549000740193661870007019A3A3C3E49396086F
:1054A0007401939618A3A3400DD0E0D0E0D0E002A1
:1054B000546CA3A3A3A3A3A3D0E022C0E0C0F088B0
:1054C000F0E4936670080874019366187000A8F001
:1054D000A3A3700BD0F0D0E0D0E0D0E002546CA3D6
:1054E000A3D0F0D0E022FFFFC0E074EF1251F5A28C
:1054F000AFE433FFD2AFA889E5AB58F5216049F49A
:10550000F589C2C590085B7401F07E00EEF5237545
:1055100024007402782312501A1255C7E9FBEA4B93
:10552000701F1255BBB800028004C313D8FCA2E060
:10553000500F752300752402EE782312501A12556D
:10554000AE0EEEC3940440C4EFA2E092AF7F04021B
:105550005254C0E074EF1251F5A2AFE433FFD2AF62
:10556000A88AE58D58F5216043F4F58AC2EB7E00E8
:10557000EEF5237524007402782312501A1255C7D1
:1055800074406A49701F1255BBB800028004C313EF
:10559000D8FCA2E0500F752300752402EE78231288
:1055A000501A1255AE0EEEC3940440C4809AAA233A
:1055B000AB24900280E0F912721322E81313135403
:1055C0001F5407F8E52122740C2523F58274093550
:1055D00024F583E0F8A3E0F9E854C0FA22C0E074AF
:1055E000EF1251F5A2AFE433FFD2AFA88BE5AC5870
:1055F000F5216043F4F58BC2E87E00EEF5237524B7
:10560000007402782312501A1255C774806A4970C8
:105610001F1255BBB800028004C313D8FCA2E0508F
:105620000F752300752402EE782312501A1255AE1E
:105630000EEEC3940440C4025548C0E074F2125107
:10564000F5A2AFE433FED2AFA8AFE8A2E5501D75D6
:10565000AFDF90035EE0F8A3E0F9E84990035C60F7
:1056600005E04280801DE0F452808017A2E35013D1
:1056700075AFF7D2917A007B02900280E0F9127246
:1056800013C291EEA2E092AF7F0102525474F6125F
:105690005109EAFEEBFF8C218D22EA2434F8E43F25
:1056A000F9E8FCE9FDEA2435125A34FAEE243712FF
:1056B0005A34F88521F0A4C885F0238522F0A4256A
:1056C00023F9EA28F8E439F97A257B00124FA2EA97
:1056D0008C828D83F0FA131313541F125A28245D01
:1056E000F582E439F583E0C0E074075AF8D0E0B8F9
:1056F00000028004C313D8FCA2E0EE50082434F565
:1057000082E43F80142436125A34F5F0EA84A8F07B
:10571000125A292438F582E439F583E0F97F03022F
:1057200051B574F7125109EAFEEBFFEA2434125A1C
:1057300034C0E0EA2435F582E43FF583D0E0F08A16
:10574000828B83A3A3A3A3A3A3A3C082C0838A82C3
:105750008B83A3A3A3A3A3E0F8A3E0F9D083D08213
:10576000E0C398F521A3E099F522EA2480125A3487
:105770006401703EEA2481F582E43FF583C082C073
:10578000838A828B83A3A3A3A3A3E0240108A3E0BD
:105790003400F9D083D082E0687003A3E06970120E
:1057A0007C9C7D05126C31EE2480F582E43FF5830C
:1057B000E4F0AC21AD22EEFAEFFB12568DE9F912BE
:1057C00061B27F020251B5C082C0838541828542A9
:1057D00083E0F8A3E0F9C3EA9CEB9D5010C3EC987A
:1057E000ED99401BC3EA98EB995014800EC3EA98D8
:1057F000EB994007C3EC98ED994004790180027958
:1058000000D083D08222EAC39CFAEB9DFB2274EF86
:1058100012510990045CE064086005E06407702A96
:105820009061C8E0602490048AE0F4601DE0F8759F
:10583000F010A4C8AAF02AF9748C28FE740439FF69
:105840008E82F583A3A3A3E07003025927906060C2
:10585000E0C0E0EE2468F582E43FF583D0E0F07527
:10586000250D752606752100752200E5D914F5234E
:10587000E5D95403F527602F74036527601DE523E0
:105880006008EE2467125A34601D900608E0640137
:10589000602C125A31601278048010125A31602C38
:1058A000E523C39405502580637800E523C398FA67
:1058B00095E0FB126AE78A218B22EA4B7005126E93
:1058C0004D8064125A3170048A258B26E5236012BC
:1058D000852582852683F524E5D9F0A31524E524C2
:1058E00070F6125A31604574FC2523F52378251291
:1058F00052B0AC23A927EEFAEFFB126CEB74021244
:105900005043E97027AA21AB22127249793D8E8259
:105910008F83A3A3A3A3E0FA7B0012694FEEFAEFF3
:10592000FB126C55126CFD7900025A237403652733
:105930006053E523F529752A0078291252B0AC2569
:10594000AD26AA21AB22126CAF7402125043EE2492
:1059500068125A3464807004747F8001E0F5257801
:10596000251252B4E527F52578251252B4A923ACA7
:1059700021AD2290048AE0FA7B001269257402129C
:105980005043025A1E852582852683E0C3940E501B
:1059900011E0F874C828F582E43485F583E06523C6
:1059A0006069852582852683E0C0E0EE24F7F582D4
:1059B000E43FF583D0E0F0A2AFE433FCC2AF7A005D
:1059C00080010AEE246E125A34F8EAC3985013EAA2
:1059D000125A28246AF582E439F583E0640770E2FC
:1059E0008022EE246EF8E43FF9E0FAEE2AFAE43F72
:1059F000FBEA246AF582E43BF5837407F088828928
:105A000083E004F0ECA2E092AF801390045CE064C9
:105A100008600BAC25AD26EEFAEFFB126D75126E29
:105A20005979017F0A0251B5F8EE28F8E43FF9E808
:105A300022EE2484F582E43FF583E02274F11251D2
:105A40000974FC12502DEAFEEBFF8922752600A294
:105A5000AFE433F521C2AF9005A4E0FA9061D0E045
:105A6000F8748098F895E0F9C3EA98E499A2D265B1
:105A7000D0334003025B26752601025B26E0601BE3
:105A800078231252B0AC27A928EEFAEFFB126CE58E
:105A9000740212504374042527F52774012527F555
:105AA000D98528D9E5276012852382852483F525A9
:105AB000E0F5D9A31525E52570F675E195EE24638B
:105AC000F8E43FF97A007B00A2AFE433F523C2AFDC
:105AD00088828983E0FCA3E0FDEC4D603A888289EE
:105AE00083E0FAA3E0FB8C82F583E0FCA3E0FD8871
:105AF000828983ECF0A3EDF08A828B83E4F0A3F03B
:105B000088828983E0FCA3E0FDEC4D700A888289DD
:105B100083A3A3E4F0A3F0E523A2E092AF127249BD
:105B20009005A3E004F0EE2463125A34F8A3E0F9E0
:105B3000E8496063EE2463125A342402F8A3E03487
:105B4000008882F583E5822402F523E43583F52479
:105B5000E0F527A3E0F528EE2462125A34640170C0
:105B6000369061D0E0F8125A3160047C0480027CE7
:105B7000007480C398FA95E0FBE5272CF8E4340024
:105B8000F9E82402F8500109C3EA98EB99A2D2651A
:105B9000D0334003025A7D9061D0E0F87480C398FE
:105BA0009005A4F0E52660539005A3E0604D9005B4
:105BB000A5E0F89005A3E0C398500C74026522702C
:105BC0003A9005A6E060348E828F83A3A3A3A3E05E
:105BD000854182854283125C0B7402125079E8126F
:105BE0005C0B9005A2E028F07402125093AA41AB1E
:105BF0004279011269799005A3E4F0E521A2E092CF
:105C0000AF74041250437F080251B5F0A3E4F09042
:105C100005A3E0F822FFFFFF8550878551C622C00B
:105C2000E074EB1251F5A2AFE433F521C2AF759BDE
:105C300000906182E0A2E0502DE591A2E05027752E
:105C400091FE74016550701E125D96125DAD125288
:105C5000C3125F617404125043E964017005790155
:105C6000126DF312580E906182E0A2E5505AE59150
:105C7000A2E550547591DF90045CE064076005E094
:105C80006408702C125D9674016550703B125DAD16
:105C90001252C3125F617404125043E9640170052B
:105CA0007901126DF37901EEFAEFFB125A3C80187C
:105CB000E0640D701390047EE004F064287002E448
:105CC000F07A00E0F9126E5F906182E0A2E6400394
:105CD000025D6BE591A2E64003025D6B7591BF909A
:105CE000045CE064057008126D9F126DAB800312B6
:105CF0006DA5755000126DFFE990045DF0790012FA
:105D00006DF3126BA77A017B0090045BE0F91272CD
:105D100013907803E06442705290060CE014F07027
:105D20004AC2AF125D26007859D0E0F618D0E0F6EE
:105D3000E59F540770047BFF80027B7FC4C0E0783E
:105D400058E6F52308E65BF524740B782312500B14
:105D5000D0E02523F8906270E0A2E740F8E8C33372
:105D6000906272F0906270E0D2E0F0906181E0A207
:105D7000E35009E5E9A2E3500375E9F7A3E0A2E7E0
:105D80005009E591A2E7500375917FE521A2E092C9
:105D9000AF7F0802525490048AE0F875F010A4C84E
:105DA000AAF02AF9748C28FE740439FF22126DB708
:105DB0008E828F83E0F8A3E0C82416F582E438F5DC
:105DC0008322C0E0C0D0C082C083906183E0A2E0A3
:105DD0005009E5BFA2E0500375BFFEE0A2E1500903
:105DE000E5BFA2E1500375BFFDE0A2E25009E5BFA7
:105DF000A2E2500375BFFBE0A2E35009E5BFA2E3B6
:105E0000500375BFF7E0A2E45009E5BFA2E45003D8
:105E100075BFEFE0A2E55009E5BFA2E5500375BFED
:105E2000DFE0A2E65009E5BFA2E6500375BFBFD090
:105E300083D082D0D0D0E032C0E074F21251F5E5C8
:105E4000A7A2E6500FE5A1A2E6500953A7BF75A18E
:105E5000BF125E8CE5A7A2E5500CE5A1A2E55006B5
:105E600053A7DF75A1DFE5A7A2E15009E5A1A2E1F3
:105E7000500375A1FDE5A7A2E2500CE5A1A2E250F6
:105E80000653A7FB75A1FB7F0102525474F7125110
:105E90000975500190045CE064067015126D218A4A
:105EA000828B83A3A3A3A3A3A3E0FAA3E0FB126DB9
:105EB0008DA2AFE433FED2AF900462E064017018AB
:105EC0007A207B0090045BE0F912732D7A207B002E
:105ED00090045BE0F9127219906182E0D2E6F090D2
:105EE0000609E0602185C6518016900461E06401D6
:105EF0007008E5C654F84405F5C653BEFC125C189C
:105F00007401655060E4EEA2E092AF7F020251B5E9
:105F10008E528F5385825785835685418285428371
:105F2000E0CEA3E0CF855782855683EBC9EAC8ED62
:105F3000CBECCA75F010C3E833C8E933C9EA33CAF9
:105F4000EB33CBC3EA9EF555EB9FF554B35004AB4E
:105F500054AA55EC33CCED33CDD5F0DAAE52AF5375
:105F60002274F11251098A218B228C238D24908670
:105F7000F27821124E6E740F1250797825124ECDA0
:105F80009086F27825124E6E7821792512442E9053
:105F9000872E501078217925124E2E782112444EEA
:105FA0004014800E78257921124E2E782512444E09
:105FB00050047901800279007F080251B574ED1216
:105FC00051098A218B228C238D249086F27821120C
:105FD0004E6E74131250797825124ECD9086F27859
:105FE00025124E6E7825792112442E4011782179A0
:105FF00025124E2EAA21AB22AC23AD248022752976
:1060000000752A00752B00752C0178297925124E10
:106010002E78297921124DF5AA29AB2AAC2BAD2C6B
:106020007F0C0251B59086F27821124ECD8A828B78
:10603000837821124E817F040251B574F512510903
:106040008C828D837821124ECD8A828B83782112A7
:106050004E5A126093C3E09CF0A3E09D126085400D
:10606000229087167821124ECD8A828B8378211256
:106070004E1B8A828B83A3A3A3A3E02420F0A3E07A
:10608000344EF080A0F088828983C3E09420A3E09E
:10609000944E22EA2404F8E43BF98C828D83A3A376
:1060A000A3A3E0FCA3E0FD888289832274F512514A
:1060B000099005BFE0FAA3E0FBE929F8E433F9749D
:1060C0005A28F582748539F583E02AF521A3E03B4F
:1060D000F52278211252B09086CE124EEB125F104C
:1060E00074021250438A218B228C238D24741078E1
:1060F00021124DBDAA21AB227F040251B574F112C9
:1061000051098A258B268C278D28741112507912FB
:1061100052C77411125079E02401F521A3E0340034
:10612000F522E4F523F52478257921124C3890875F
:106130003A7821124ECD78257921124C38AA25AB18
:1061400026AC27AD28125F107402125043EA4B6050
:10615000047A0180027A00EC2AFCE43DFD741312FB
:106160005079E0F8A3E0F9E8FEE9FFECF8EDF97A00
:10617000717B02124FA288218922E4F523F5248E37
:10618000828F837821124EDCECF8EDF97A717B0274
:10619000124FA28A218B227405782112501A8E8206
:1061A0008F83A3A3A3A3E521F0A3E522F07F080238
:1061B00051B5C082C083E9906000F0D083D08222C4
:1061C000C0E074F21251F5A2AFE433FED2AFC2C008
:1061D000E5D1A2E4500675D10F12710BEEA2E09248
:1061E000AF7F01025254C0E0C0D0E8C0E0A8A8D2FE
:1061F000AFC2C7E8A2E792AFD0E0F8D0D0D0E0328B
:10620000C0E0C0D0E8C0E0E9C0E0EAC0E0EBC0E038
:10621000C082C083A2AFE433F9D2AF9008CEE0F8D9
:10622000A3E0687008539AFBA374018022C2E9902E
:1062300008CEE0F8740128F074BE28F582E4340832
:10624000F583E0F5C19008CEE0C394104002E4F07D
:10625000E9A2E092AFD083D082D0E0FBD0E0FAD0C8
:10626000E0F9D0E0F8D0D0D0E032C0E0C0D0E8C053
:10627000E0E9C0E0EAC0E0EBC0E0C082C083A2AFCA
:10628000E433F9D2AFA8F99008F4E0FA74D32AF510
:1062900082E43408F583E8F09008F3E0F8A3E068BE
:1062A0007006E5959008F6F09008F4E004F0C394C9
:1062B000204002E4F0A3E4F08096C0E0C0D0E8C043
:1062C000E0E9C0E0EAC0E0EBC0E0C082C083A2AF7A
:1062D000E433F9D2AF900907E0F8A3E068700853FF
:1062E0009AF7A374018022C2EA900907E0F87401CA
:1062F00028F074F728F582E43408F583E0F5F99086
:106300000907E0C394104002E4F0026250C2AF02F9
:106310000000221243B441B5031243B484B5031202
:1063200043B44DB6031243B476BA031243B4F1BA80
:10633000031243B403BB031243B406BB031243B4BA
:10634000F2BB031243B47BBC031243B403BD03127C
:1063500043B453BC021243B430BD021243B458BF1D
:10636000021243B4FBBF021243B47CC0021243B416
:1063700026C2021243B445C3021243B49DC30212A3
:1063800043B496C4021243B451C5021243B440C68A
:10639000021243B4A4C6021243B473CA021243B435
:1063A0000ECB021243B40080011243B41C800112D0
:1063B00043B4F381011243B4E082011243B4498330
:1063C000011243B48D83011243B4BD83011243B45F
:1063D0001085011243B48C85011243B40286011268
:1063E00043B48686011243B49587011243B42788CB
:1063F000011243B44C8A011243B4CA93011243B44C
:106400001594011243B43594011243B48B940112D4
:1064100043B4B894011243B450B9011243B448BB19
:10642000011243B493BB011243B4BFBB011243B486
:10643000B7BC011243B45DBD011243B43BC00112AD
:1064400043B478C0011243B46CC8011243B453C9B9
:10645000011243B499C9011243B4E0CA011243B412
:106460002CCC011243B481CC011243B427CD0112CC
:1064700043B4C3A8041243B4D6A8041243B405A974
:10648000041243B43DA9041243B486A9041243B4D0
:10649000C9A9041243B40FAA041243B442AA0412B5
:1064A00043B469AA041243B498AA041243B4CFAA0D
:1064B000041243B4E8AA041243B437AB041243B441
:1064C00050AB041243B498AB041243B4CCAB0412E7
:1064D00043B405BE031243B403BF031243B469BF00
:1064E000031243B48CBF031243B48EBF031243B4F0
:1064F000CCBF031243B43DC0031243B4FDC003122A
:1065000043B41FC1031243B4BBC1031243B4F2C16D
:10651000031243B437C2031243B444C2031243B458
:10652000B4C2031243B4FEC2031243B401C3031244
:1065300043B447C3031243B44AC3031243B454C31E
:10654000031243B4C7C3031243B4EFC3031243B4EB
:1065500022C4031243B446C4031243B443C5031216
:1065600043B4E7C5031243B453C6031243B48FC602
:10657000031243B40E9D041243B4369D041243B477
:10658000639D041243B49B9D041243B4019E041204
:1065900043B44B9E041243B4AF9E041243B4F79E1F
:1065A000041243B4349F041243B4629F041243B4F0
:1065B000F79F041243B401A0041243B40EA00412C6
:1065C00043B441A0041243B44DA0041243B465A0E7
:1065D000041243B46FA0041243B419BF041243B4AD
:1065E00031BF041243B448BF041243B4B8E70212E7
:1065F00043B45BE8021243B496E9021243B43FEAA3
:10660000021243B4C7EB021243B4AFEC021243B41C
:10661000A6ED021243B4DCED021243B47EEE021288
:1066200043B4A4EE021243B470F0021243B4B6F0C5
:10663000021243B4D8F0021243B444F1021243B43C
:106640000FF2021243B4C9F2021243B4D5F402129B
:1066500043B4EFDD031243B4CBDE031243B475DF62
:10666000031243B4B6DF031243B43DE0031243B454
:10667000B8E0031243B48BE1031243B4B4E1031254
:1066800043B4A8E2031243B4E5E2031243B4CDE3FA
:10669000031243B4FEE3031243B424E4031243B4ED
:1066A0000A89051243B43589051243B4458A051297
:1066B00043B4E8A4041243B4FEA4041243B41CA5DA
:1066C000041243B42CA6041243B436A6041243B4F5
:1066D00060A7041243B44DA8041243B4B9A804122D
:1066E00043B494E4031243B4C1E5031243B4F8E5A0
:1066F000031243B44FE6031243B447E8031243B412
:1067000098ED011243B41FEE011243B473EF01126E
:1067100043B4FAEF011243B406F0011243B47EF021
:10672000011243B466F1011243B462F2011243B4A0
:106730002EF3011243B488F4011243B49EF4011203
:1067400043B4BFF4011243B451F5011243B4C7F589
:10675000011243B4EDF5011243B49AF8011243B4A7
:106760009FF8011243B4C3FA011243B40AFB0112A9
:1067700043B470FB011243B4B6FB011243B486FC70
:10678000011243B43BFD011243B497FD011243B41F
:106790009AFD011243B4E6FD011243B422FE011238
:1067A00043B461FE011243B483FE011243B4B7FE49
:1067B000011243B425FF011243B4FFF4031243B4A2
:1067C0000DF5031243B45DF5031243B47CF50312D7
:1067D00043B4C6F5031243B409F7031243B4A1F757
:1067E000031243B4E5F7031243B40FF8031243B4A2
:1067F0007AF8031243B4BEF8031243B441F903120A
:1068000043B4F0F9031243B42ACE011243B4C4CE08
:10681000011243B420CF011243B4DECF011243B4BE
:1068200066D0011243B489D1011243B4B9D1011227
:1068300043B4E8D1011243B49ED3011243B4F1D55D
:10684000011243B450D8011243B439D9011243B4F0
:1068500029DA011243B4FCDB011243B4F4DE011265
:1068600043B411E0011243B40BE2011243B41AE342
:10687000011243B4A9E4011243B495E5011243B4F3
:10688000E4E5011243B454E6011243B470E6011288
:1068900043B4C1E6011243B461EB011243B477EC97
:1068A000011243B42FED011243B41B8C041243B404
:1068B000258C041243B46D8C041243B4818C0412F1
:1068C00043B4128D041243B4498D041243B4848D31
:1068D000041243B4AD8D041243B4018E041243B4C8
:1068E000168E041243B4388E041243B44D8E041233
:1068F00043B4878E041243B4B38E041243B4FC8EA7
:10690000041243B4728F041243B49D8F041243B433
:10691000C88F041243B40B90041243B43590041290
:1069200043B46090041243B4928B051243B4E897C9
:10693000031243B4C198031243B43099031243B411
:106940006B99031243B4A69A031243B4589B0312E3
:1069500043B4059E031243B4B09E031243B4919F07
:10696000031243B407A1031243B46FA1031243B44B
:106970009287041243B4D587041243B440890412A9
:1069800043B47E8B041243B4D4BA041243B47CBB28
:10699000041243B4B1BB041243B4ACBC041243B4FC
:1069A000E9BC041243B4E983051243B448840512D8
:1069B00043B4E584051243B41885051243B44685F3
:1069C000051243B48185051243B4A185051243B471
:1069D00002FA031243B48BFA031243B44AFB0312C4
:1069E00043B458FC031243B478FE031243B4788CCA
:1069F000031243B48D8C031243B4588D031243B475
:106A0000258E031243B4928E031243B4CD8E03122B
:106A100043B46E8F031243B47790031243B44F9183
:106A2000031243B4D291031243B45B92031243B4F2
:106A3000C492031243B44E93031243B49B930312C4
:106A400043B40994031243B4AB94031243B459956D
:106A5000031243B47995031243B4BD95031243B4B2
:106A60000596031243B42196031243B440960312D1
:106A700043B4BA96031243B4C896031243B45B9767
:106A8000031243B4C597031243B4E594041243B40C
:106A90006195041243B49F95041243B48396041283
:106AA00043B4F296041243B43697041243B4799770
:106AB000041243B4A697041243B4C497041243B417
:106AC000FC97041243B43998041243B45A98041240
:106AD00043B4D098041243B413AC021243B4A7AD2C
:106AE000021243B4E5AF021243B42DB0021243B414
:106AF00058B0021243B44EB1021243B47EB1021236
:106B000043B4D5B1021243B402B2021243B44BB241
:106B1000021243B487B2021243B4CCB2021243B49D
:106B200019B3021243B481B3021243B4B3B50212D3
:106B300043B47AB7021243B4B5B7021243B433B9BF
:106B4000021243B477B9021243B4EAB9021243B451
:106B50004BBA021243B4D3BA021243B4FCBA0212C3
:106B600043B41EBB021243B43DBC021243B44EBC3C
:106B7000021243B414A2031243B485A2031243B415
:106B80004EA8031243B448A9031243B40AAB03123C
:106B900043B488AB031243B40080021243B487802D
:106BA000021243B4B480021243B4F680021243B41A
:106BB000F281021243B43782021243B4B383021249
:106BC00043B43B84021243B4AE84021243B46B85D7
:106BD000021243B42786021243B4A786021243B4BA
:106BE0007587021243B49B87021243B40D880212C8
:106BF00043B4B188021243B4D688021243B4428926
:106C0000021243B4A889021243B4DE89021243B4CB
:106C1000828A021243B41B8B021243B49E8B02126F
:106C200043B40A8C021243B4568C021243B4BC8C97
:106C3000021243B4ED8C021243B4A18D021243B48C
:106C4000B78E021243B4008F021243B41D8F02129A
:106C500043B4FD94021243B44595021243B43296F4
:106C6000021243B45796021243B46C96021243B414
:106C7000D496021243B41497021243B42798021216
:106C800043B4D498021243B4B1AB031243B4FCAB87
:106C9000031243B408AC031243B4D3AC031243B49D
:106CA000E9AC031243B425AD031243B45EAD031245
:106CB00043B496AD031243B4ECAD031243B402AE39
:106CC000031243B43EAE031243B451AE031243B4B5
:106CD00078AE031243B4ACAE031243B480AF0312D8
:106CE00043B40FB1031243B40BB2031243B414B351
:106CF000031243B4F27F001243B442CB021243B4F6
:106D00007DCB021243B481CE021243B4D3CF021220
:106D100043B498D0021243B492D3021243B47CD449
:106D2000021243B4C7D4021243B4E1D4021243B4F2
:106D30001ED5021243B429D5021243B468D50212FB
:106D400043B471D5021243B432D6021243B4EFD623
:106D5000021243B452D7021243B4B6D7021243B45C
:106D600037D8021243B40699021243B4629C02124D
:106D700043B4689C021243B4A9A3021243B481A88D
:106D8000021243B47EAF041243B448B0041243B4B9
:106D90008CB0041243B4C6B0041243B458B1041208
:106DA00043B4C7B1041243B4D0B1041243B4DCB14C
:106DB000041243B4F0B1041243B414B2041243B445
:106DC00044B2041243B449B5041243B456B5041294
:106DD00043B470B5041243B4A3B5041243B4E0B590
:106DE000041243B446B6041243B45BB6041243B46F
:106DF00066B6041243B473B6041243B48AB60412DE
:106E000043B498B6041243B4A3B6041243B4AFB665
:106E1000041243B4BEB6041243B4C9B6041243B458
:106E2000E9B6041243B4F9B6041243B40FB704121E
:106E300043B42DB7041243B438B7041243B44DB76A
:106E4000041243B461B7041243B4C2B7041243B48A
:106E5000C8B7041243B4CEB7041243B4D4B7041273
:106E600043B4E6B7041243B40580031243B49380DD
:106E7000031243B46F81031243B4A381031243B4DA
:106E8000B681031243B43082031243B4B8830312B1
:106E900043B4DF83031243B46684031243B4A5846E
:106EA000031243B4B684031243B42B85031243B4D4
:106EB0004A85031243B46285031243B4A6860312C3
:106EC00043B4B088031243B4E28A031243B4E88B9C
:106ED000031243B42B8C031243B4F873001243B46F
:106EE0000274001243B42474001243B430740012CC
:106EF00043B47D75001243B4AA75001243B4CB7637
:106F0000001243B40D77001243B45378001243B417
:106F1000B478001243B4E978001243B42279001225
:106F200043B4CD7C001243B4E47C001243B4627DD0
:106F3000001243B4707D001243B4B97D001243B413
:106F4000C77D001243B4487E001243B4B77E0012DE
:106F500043B4037F001243B4E2F4021243B404F5D5
:106F6000021243B4E0F6021243B458FA021243B4D8
:106F7000A2FB021243B484FC021243B4AF85051293
:106F800043B4D485051243B44586051243B499D65B
:106F9000031243B4A2D6031243B4ABD6031243B4D4
:106FA000CFD7031243B4C0D9031243B4EED90312AE
:106FB00043B419DA031243B447DA031243B472DA62
:106FC000031243B4B0DA031243B4DCDA031243B45D
:106FD00019DB031243B444DB031243B490DB031206
:106FE00043B4E7DB031243B427DC031243B476DC7B
:106FF000031243B4A1DC031243B4E7DC031243B42D
:1070000015DD031243B440DD031243B463DD031204
:1070100043B4DAFF031243B4E4FF031243B4F4FFB2
:10702000031243B4FC81051243B42382051243B416
:107030004E82051243B4148F051243B48890041293
:1070400043B4D890041243B41292041243B4819210
:10705000041243B42593041243B44493041243B47A
:107060009293041243B4D493041243B4DF8F0512F5
:1070700043B4897F001243B4997F001243B4A57FC3
:10708000001243B4E97F001243B4A68C051243B446
:10709000298D051243B48F8D051243B434EA0312CF
:1070A00043B4C4EA031243B4D8EA031243B469EB0D
:1070B000031243B4E2EB031243B436EC031243B4BD
:1070C0004BEC031243B455EC031243B4F3EC03123C
:1070D00043B479ED031243B485ED031243B49EED3E
:1070E000031243B43EEE031243B456EE031243B40C
:1070F000B3EE031243B4D2EE031243B4D5EE03123F
:1071000043B438EF031243B47CEF031243B4BAEF35
:10711000031243B4A48F051243B4B68F051243B4CF
:10712000D6CE031243B4A6CF031243B4CBCF03127F
:1071300043B4E2CF031243B4EDCF031243B437D0CC
:10714000031243B445D0031243B46DD0031243B4C9
:10715000EAD0031243B40ED1031243B475D1031223
:1071600043B4BED1031243B400D2031243B429D2B4
:10717000031243B44BD2031243B468D2031243B494
:1071800085D2031243B488D2031243B402D303124C
:1071900043B482D4031243B40ED5031243B455D57D
:1071A000031243B48ED5031243B4CFD5031243B4B4
:1071B00059D6031243B48AD6031243B4BDEF031267
:1071C00043B4C7EF031243B407F0031243B450F0C3
:1071D000031243B488F0031243B4DEF0031243B445
:1071E000FBF0031243B404F1031243B449F1031258
:1071F00043B472F1031243B487F1031243B4F7F1BD
:10720000031243B484F2031243B4D8F2031243B41A
:10721000FBF2031243B47AF3031243B4B5F303123F
:1072200043B4EAF3031243B4FCF3031243B418F477
:10723000031243B421F4031243B4D3F4031243B44E
:107240006F8E051243B46087051243B4B1870512EF
:1072500043B43A88051243B4A488051243B419B85C
:10726000041243B441B8041243B436B9041243B40F
:107270005BB9041243B4EAB9041243B4ABFE03127F
:1072800043B4A1FF031243B4BBFF031243B4CCFFCA
:10729000031243B40080051243B43680051243B490
:1072A0006980051243B4C281051243B4B08D051242
:1072B00043B4BA8D051243B4B5C6031243B46FC7C5
:1072C000031243B4AAC7031243B4DBC7031243B487
:1072D0004BC8031243B4A1C8031243B4F5C8031248
:1072E00043B4E2C9031243B4DBCA031243B45CCC17
:1072F000031243B410CD031243B479CD031243B447
:107300008CCD031243B471CE031243B41799041207
:1073100043B42D99041243B4D199041243B4109A82
:10732000041243B42D9A041243B45E9A041243B477
:10733000AB9A041243B4DE9A041243B4199B0412AC
:1073400043B481D9021243B42EDD021243B4BDDE30
:10735000021243B40DDF021243B424DF021243B41D
:1073600043DF021243B4A0DF021243B430E1021241
:1073700043B403E2021243B43AE6021243B422E7F2
:10738000021243B434AC041243B442AF041243B407
:10739000DFFF011243B473B2041243B4748A0512BE
:1073A00043B40E8E051243B403BD041243B45E8F82
:1073B000051243B4C7FF021243B4FDA0041243B444
:1073C000D8BF04FFFFFFFFFFFFFFFFFF7F0A02514F
:1073D0006F90081FE0F8A312784DA32290081FE0D9
:1073E000F8A31273E62212784DA3A322E9FE9008B7
:1073F0001F12783DF9E84922C082C083900821021B
:10740000770174F712509D1273EC60131276B76A0D
:107410007003A3E06B700874016E7003126F3D7F00
:107420000102516FC082C0837917126F4302770641
:1074300074F412509D74ED12502DEAF8EBF9854169
:1074400082854283E4F08A828B83A3A3A3A3A3A3B0
:10745000127E328A82F583E0F521E82402FEE439C7
:10746000FFE52114602114601E14603414603B1485
:10747000604214604914605014605714605E1460D8
:107480006514606C0275137401125093126F9DE9BC
:10749000F874126870648541828542837406807B2B
:1074A0007401125093126FA9804E740112509312FE
:1074B0006FB580447401125093126FC1803A740109
:1074C000125093126FCD80307401125093126FD905
:1074D00080267401125093126FEB801C74011250BD
:1074E00093126FF180127401125093126FFD800895
:1074F0007401125093127003E9F8E8705D75220769
:107500008E828F83127E32126A9FEA4B7010752131
:1075100008803E8541828542837407F08045EA24D5
:107520000BF582E43BF583E0640870059008238046
:10753000039008211273F160151278491276BF602A
:107540000D7401125093A92112509BE9F522852256
:1075500021854182854283E521F0854182854283F0
:10756000E0600DAC41AD428E828F83127842800381
:10757000126E7174131250437F0402516F74F6122D
:10758000509DECFEEDFF7521BB75226F78211252E4
:10759000B07902127D5C125043E9F5218E828F830F
:1075A000E0F9126F43A921027D5374F412509DEA51
:1075B000FEEBFF89211273EE700302768D1276B70F
:1075C0006E7003A3E06F600302768D90081FE024C5
:1075D0000108A3E03400F9E8FAE9FB8882F583E0CA
:1075E000F8740668600302767A12782E6073900849
:1075F00020127F8312783DF9127C72E0FCA3E0FD3B
:10760000E82413F582E439F583E0F8A2E050168C03
:10761000828D83A3A3A3A3A3E0A2E050088A828B58
:107620008374078034E8540260168C828D83A3A390
:10763000A3A3A3E0540260088A828B837409801993
:10764000E8540460178C828D83A3A3A3A3A3E05402
:107650000460098A828B83740BF080159008238064
:10766000039008211273F160081276BC6003125077
:107670009B1276FA703C7900800E741168700EE5EA
:10768000216003752132A921126F438025E5217005
:1076900018EEFAEFFB126A9F8A828B83E58245839C
:1076A0006007A3A3A3E0D2E4F0EEFAEFFBA9211256
:1076B000663179010275781278AFE0221273E61212
:1076C000783D8882F583E582458322C082C083129B
:1076D00073EE602412789D70059008218003900855
:1076E000231273F160081276BC600312509B12766D
:1076F000FA70057900126F43800C1273D1E06412A6
:1077000022EAF0A3EBF0D083D0820243B174E812F6
:10771000509D74EB12502D8A2F8B308C2D8D2E1294
:1077200073EE700579120278241278A8126A9F8A83
:10773000218B22AE21AF22EA4F7005791402782402
:10774000AA41AB42126F4FEE2405F52BE43FF52C16
:10775000EE2404F529E43FF52A12782E602FA84183
:10776000A94288258926127C94FEA3E0FF1265BFFA
:10777000E9F52779001265C58A218B228529828542
:107780002A83E0F528852B23852C24803690082039
:10779000127C9AF525A3E0F526A841A94288218903
:1077A00022AE21AF221265BFE9F52879001265C526
:1077B0008A238B24852982852A83E0F527852B213E
:1077C000852C22740E125093EEFAEFFB126F917417
:1077D00007125093AA25AB26126F8B742D12507985
:1077E0001252C778231252B0E528F523782312529B
:1077F000B478211252B0740E1250838821892278F5
:10780000211252B0741712508388218922782112D4
:1078100052B0A927AC2DAD2EAA2FAB30126E8374B7
:107820000B12504374151250437F1002516F900891
:107830001F12783DF5838882E02290081FE0F8A3AC
:10784000E022127E36126EEF2212784D22E0F5838E
:1078500088822274F612509D74F912502D1273EE24
:107860006031AA41AB42126F4F1278A212789A602F
:107870000875218B75226F800675219175226F78AE
:10788000211252B074021250937907127D5C12508B
:1078900043800279017407027D5090082012784DD0
:1078A000E02290081FE0F8A31278AF127E36221271
:1078B00073E6A32274F612509D74F012502D7521B8
:1078C0001075220078211252B090081FE0241BFC92
:1078D000A3E03400FD740212508B127C3E12504320
:1078E0007521A375226F027D3974F612509D74F0D4
:1078F00012502D75211075220078211252B0127984
:1079000016FD740212508B127C3E1250437521AF4B
:1079100075226F027D3990081FE0242BFCA3E03410
:10792000002274EE12509DEAFEEBFF752100127CDE
:10793000811273F16003027C327A077B0012729D20
:10794000127C72EAF0A3EBF0EA4B7003027C2D127A
:107950007CB9E0F523A3E0F52475250775260078AA
:10796000251252B0EEFCEFFD127C3E12504312780D
:107970002E6003027B9BE5232413F8E43524F9E809
:10798000FAE9FB127C942405F8A3E03400F9E8FC42
:10799000E9FD8A828B83E0F85401F5278C82898384
:1079A000E0540165277001E47008E8A2E0E433F8D0
:1079B000800278008A828B83E054FEF0E048F0E099
:1079C000F88C828983E0C313A2E092F0E8C313A28B
:1079D000E020F001B35012E854026004D2F08002BB
:1079E000C2F0A2F0E433F8800278008A828B83E050
:1079F00054FDF0E825E0F8E433F9E048F0A3E0496D
:107A0000127C4D543FA2E092F0E81313543FA2E0E1
:107A100020F001B35013E854046004D2F08002C295
:107A2000F0A2F0E433F52580037525008A828B836C
:107A3000E054FBF07402782512501A127C44127C38
:107A40004D13541FA2E092F0E8131313541FA2E049
:107A500020F001B35013E854086004D2F08002C251
:107A6000F0A2F0E433F52580037525007526008A21
:107A7000828B83E054F7F07403782512501A127C3D
:107A800044F0F9127C69A3E0540165277001E470A9
:107A900012E954016004D2F08002C2F0A2F0E43393
:107AA000F8800278008A828B83A3E054FEF0E8F924
:107AB0008A828B83A3E049127CA77409782712502D
:107AC0000B127C5C7409782912500BE5295401656E
:107AD000277001E47014E52654026004D2F080029D
:107AE000C2F0A2F0E433F525800375250075260069
:107AF0008A828B83A3E054FDF07409782512501A12
:107B0000127C9F740A782712500B127C5C740A78DE
:107B10002912500BE529540165277001E47014E522
:107B20002654046004D2F08002C2F0A2F0E433F5DF
:107B30002580037525007526008A828B83A3E05477
:107B4000FBF0740A782512501A127C9F740B782768
:107B500012500B127C5C740B782912500BE52954DF
:107B60000165277001E47014E52654086004D2F022
:107B70008002C2F0A2F0E433F5258003752500757C
:107B800026008A828B83A3E054F7F0740B782512C9
:107B9000501A8A828B83A3E04526F08E828F83A3BE
:107BA000E06011852382852483A3E06007127CC0F6
:107BB000740580718E828F83A3A3E05404701BE54B
:107BC000232412F582E43524F583E0A2E240071273
:107BD0007CC07401804FA2E2504E12782E85238221
:107BE000852483600AE0F98E828F83E0F88008E0C4
:107BF000F88E828F83E0F9E9C39405502BE8C39493
:107C0000055025E9FAE875F005A4F8A9F074812873
:107C1000F8748439F9E82AF582E439F583E0C0E0A4
:107C2000127CC0D0E0F0800D7521188008752113FA
:107C30008003752111A9210273CCAA82AB83127132
:107C4000BF740222E04525F0A3E0452622F08A8297
:107C50008B83E0F88C828D83E0131322E527127C5E
:107C600069E0F529A3E0F52A225401F5278C828DDD
:107C7000832290081FE0FCA3E0CC127E273CF58312
:107C80002290081FE0F8A3127C8B22E0C8127E2706
:107C900038F5832290081FE0F8A3127C8BE0228A3B
:107CA000828B83A3E04526F08A828B83E0F525A3AF
:107CB000E0F526852527F528221273DCA3A3A3224D
:107CC00012783AC8241AF582E438F5832274F61241
:107CD000509D7521C775226F78211252B07911120B
:107CE0007D5C806C74F612509D74EE12502DEAFE8D
:107CF000EBFF854182854283ECF0A3EDF07521080E
:107D000075220078211252B0741E125079E0FCA343
:107D1000E0FD7404125079127C3A1250437521D35D
:107D200075226F78211252B07402125093790B129F
:107D30007D581250437412801778211252B0740289
:107D400012509379111278A2127D5C125043741074
:107D50001250437F0202516FEEFAEFFB127009746A
:107D6000022274F612509D7521DF75226F027CD8B5
:107D700074F412509D74F912502DEAFEEBFF854108
:107D800082854283E9F07523067524007823125218
:107D9000B07403125079127C3A1250437523E57582
:107DA000246F78231252B074021250937908127D16
:107DB00058125043740702757574F612509D752160
:107DC000F775226F027CD8C082C0831273EE6051B7
:107DD000E8127E2739127E4060031272A3127E2DB4
:107DE000245B127E3C60031272A3127E2D245D126E
:107DF0007E3C60031272A3127E2D245F127E3C60D3
:107E0000031272A3127E2D2461127E3C6003127253
:107E1000A390081F127E321272A390081FE4F0A3F1
:107E2000F0126E770277062418F582E42212783A6F
:107E3000C822127E3622E0FAA3E0FB22F582E43863
:107E4000F583127E36EA4B2274F712509D1273ECC2
:107E50006062E82461F582E439F5831252C7900824
:107E60001FE0245FF582E439F5831252C790081FA2
:107E7000E0245DF582E439F5831252C790081FE0D3
:107E8000245BF582E439F5831252C790081FE02481
:107E900017F582E439F583E0FB9008201276B7FCF1
:107EA000A3E0FD12789AFAEEF912664374081250B4
:107EB00043126F3D02741FC082C083791090081F67
:107EC000127E42603B90081FE0127E273BF5831232
:107ED0007E32EAFCEBFDEA4D6026127CB9127E424E
:107EE000601EEA2415F582E43BF583E0F88C828D70
:107EF00083A3A3A3A3E0FAC3985003EA8001E8F99F
:107F000002770674F612509DEAFEEBFF1273EE60E4
:107F100066127F831273F1605E88218922888289CC
:107F200083E08A828B83F088828983A3E08A828BB4
:107F300083A3F0E82412F582E43522F583E0F9EA20
:107F40002402FAE43FFB126EA1E5212415F582E438
:107F50003522F583E08E828F83A3A3A3A3F0E521CE
:107F60002413F582E43522F583EE2405FCE43FFD7D
:107F70007402124F4080097C077D0079001271D78E
:107F8000027D531278AFA3A322C082C083E9900878
:107F90005AF0D083D0820243B1C082C0831270698C
:107FA0001270CF80ED74F612509DEAFEEBFF548004
:107FB000601980031271E990085AE0F91271FBEA26
:107FC0004B70F1EEFAEF6480FB8019EA54206005F3
:107FD000EA64208008EA54106006EA6410FA80041B
:107FE0007A007B007F0202516FC082C0831270F959
:107FF00080A00243B1FFFFFFFFFFFFFFFFFFFFFF76
:10800000C082C083854582854683E06420700A85EE
:108010004683A385824585834602838674F4125085
:108020009DA845A946AC45AD468019A3AA82AB835D
:108030008A828B83E0FE74206E60F074096E60EBC0
:10804000EAFCEBFDECFAEDFB8A82F583E075F00DBE
:1080500084AEF0EE2EFEE433FF74CE2EF582741B58
:108060003FF58312CAC18004ECFAEDFB8A828B8350
:10807000E0FE74276E600574226E70351281DE8A10
:10808000828B83A3AA82AB838A828B83E0FCA3AA20
:1080900082AB831281DFEE6C60A6740A6C70E9E833
:1080A00024FFF8E934FFF9EA24FFFAEB34FFFB8000
:1080B0008F740A6E701B88828983740AF002BB8EEB
:1080C0008523218524228A828B83A3AA82AB83E025
:1080D000FE852182852283A38582238583248521B1
:1080E00082852283E06E60D8E0FEC394804035C371
:1080F000E54598E5469950081281D7700318A98381
:108100001281DE852182852283E064806003028003
:1081100030852382852483E088828983F0A308A99F
:1081200083028030AA21AB228A828B83A38582219D
:108130008583228A828B83E0FAC3948040E6748030
:108140006A700D852182852283A385822185832201
:10815000852182852283E060030280688C828D8382
:108160001281EA50161281DE8C828D83A3AC82AD1F
:10817000831281EA400302804480EA88828983A3D3
:10818000AA82AB8374096E600574206E7033C3E5F8
:108190004598E5469950101281D7600B88828983F3
:1081A0007420F0EAF8EBF98C828D83A3AC82AD8366
:1081B000E0FE74206E60F074096E600302804480FB
:1081C000E6EE88828983F0EAF8EBF98C828D83A34E
:1081D000AC82AD8302804412CC1AE0642022EE8887
:1081E000828983F0A3A882A98322E0FE74BF2EC3F4
:1081F000941A2274E812509D74FF12502DE9FE8AE1
:10820000258B268C278D28752901752A00752B0052
:10821000752C007F0A90873E7825124408401C790F
:108220002D12712F7FF680139087367821124ECD54
:1082300078297921124C3874FF2E1EEFF52D3395D5
:10824000E0F52EF52FF5308525218526228527237B
:108250008528247821792D124D51782979211243CE
:10826000DE50C5EE854182854283F014FEE0C39462
:1082700001A2D265D0334007792012712F80E4EF3C
:10828000C312B62B504B7829124D92804485252D70
:1082900085262E85272F852830852921852A228528
:1082A0002B23852C24782D7921124D51E52D243056
:1082B000F912712F782D7929124C387825792D12E1
:1082C0004E2E9087367821124ECD78297921124D85
:1082D00051E529452A452B452C70B2740102C7414E
:1082E000C082C0831263A39002E9E4F0A3F0854545
:1082F00082854683803212C02775F00AA4F8ABF05D
:1083000075F00AE9A42BF9E82AF8E439F9E824D051
:10831000F8E934FFF99002E912938B85458285468E
:1083200083A3858245858346E0FA74D02AC3940AE4
:1083300050159002E9C3E09499A3E094199002E9E2
:1083400040B474FFF0A3F0803DC082C0837A007B0C
:1083500000854582854683E0F974226960057427AB
:1083600069701F854683A385824585834680050AFB
:10837000EA70010B12C757E0F8E9686009740A68EF
:1083800070ED7AFF7BFFD083D0820243B174F71285
:10839000509DEAFEEBFF800C12712F8E828F83A31B
:1083A000AE82AF838E828F83E0F970EC790A12710E
:1083B0002F800574021250437F0102516F74F01236
:1083C000509D89248A2275232012C853F525A3E0E5
:1083D000F5269002E5E02403128501AA25AB26E4E8
:1083E000FCFDA9241263AF8005792012712F85222C
:1083F0002574FF2525F5220470EF800BEE24FE1274
:10840000C779F52185212312C853F5219002E5E0B3
:10841000240108128502740A652170030284F9E5BB
:1084200021C394805007A92112712F80D77CCE7D63
:108430001B802474806B7004A827A92888828983F4
:10844000A3A882A983E8FEE9FF88828983E0701CE3
:10845000EC2402FC50010D8C828D8312CABAEE4FBF
:1084600060A2EEF8EFF980E1A827A9288882898325
:10847000A385822785832888828983E0C3948040EE
:10848000E7E0FBE5216B70AB74806521701D8527EB
:1084900082852883E0F5269002E512B80BE0652678
:1084A00070919002E5E0240112850174206523603B
:1084B0000979208002A92112712F8E828F83E0F525
:1084C00021A3AE82AF83E521C3948040E812C85354
:1084D000F874286870030283FC742C6870030283AC
:1084E000FCEE24FF12C77964CD70030283FC79206F
:1084F00012712F752120028404790A12712F02BA99
:10850000F0F8A3E03400F99002E5E8F0A3E9F022E6
:1085100074F012509DE9FEEAFF7521007522007586
:108520002300752400802274D02AFAEAC39F504B9E
:108530008F25E4F526F527F52878217925124C3882
:108540008A2578217925124DF5EEF974FF29FE046C
:10855000602F85458285468312B72174D02AC39443
:108560000A40C474BF2AC39406500474C980BA7404
:108570009F2AC39406500474A980AE75490212B6AE
:1085800075AA21AB22AC23AD2402BAF074F41250C8
:108590009D8921EAFCEBFD74BF29F9E521F52375DE
:1085A00024007402782312501A12B59824FCFAEBB6
:1085B00034FEFBE9131313541FFE18E62EFE08E4E5
:1085C00036FFEE2468F582E43FF583E0C0E07407EF
:1085D00059F8D0E0B800028004C313D8FCA2E040F0
:1085E0000D8C828D8374EAF0A3741BF080118A8253
:1085F0008B8312B71912938BE8240CFAE439FB022F
:10860000BB8E74EC12509DEAFEEBFF12B616F974A5
:10861000BF29C3941A5055A3858245858346EEFA37
:10862000EFFB1263D38A218B228E828F831293C435
:10863000704B854523854624790112B55C702790DF
:10864000873E7825124408501D8E828F8312B8FF12
:10865000F529A3E034FFF52AE4F52BF52C782979E8
:10866000251243DE400C8523458524467A007B0095
:10867000800FE5212AF521E5223526F522AA21AB36
:10868000227F0C02516F74F212509DE9FE8A218BF9
:10869000228A258B26EA240CF8E43526F9C3E498CF
:1086A000FAE499FB784CE62AFA08E63BFBC3EA9524
:1086B0004EEB954F50067549040287928A4C8B4DBC
:1086C000AC4CAD4D8A828B837403F0E525240CA35A
:1086D000F0A3E912B6C77402F0EA2404F8E43DF905
:1086E000EE8882898312B6C7A3A3A3A3A3A3A3E49E
:1086F000F0A312B6A3E024BFFF12B5E4F8E43BF9FF
:10870000E8FAEFF5257526007402782512501A78DC
:108710004AE62525F52508E63526F52674075FF88F
:108720007401B800028004C333D8FCFF8A828983B5
:10873000E05F8C828D83A3A3A3A3A3F08A828983A5
:10874000E04FF0852582852683124F1B8C828D8316
:10875000A3A3A3A3A3A3124F27852582852683EC79
:10876000F0A3EDF0784CE6240CFA08E436FB740E26
:10877000125079E0FCA3E0FDEC4D600D782112521F
:10878000B012C7511250438009AC21AD22790012BA
:1087900071D702CAA674F712509D74FE12502DE5CF
:1087A000434544607F7543007544007E028005EEBA
:1087B000F912718F74FF2EFE0470F47C6C7D0079C9
:1087C00000AA4AAB4B1271D77C1C7D0079007A2736
:1087D0007B031271D77E00EEF91271410EEEC39445
:1087E0000440F4900343E4F0FAFB12714D854A4CC7
:1087F000854B4DAE47AF48801C8E828F83E0640569
:108800007010AC41AD42A3A3A312B88712CAB01234
:10881000681712CD19C3EE954EEF954F40DB854793
:108820004E85484F0283B374F012509DE9FEEA244E
:10883000FCFCEB34FFFD74C36E701A8C828D837860
:1088400021124ECD7821124D928C828D8378211287
:108850004EDC028A49ECFAEDFBEC24FCFCED34FF23
:10886000FDE91252F4B1113D8A8D88A188B588D1F5
:1088700088FA882F89448959896E897D899389A9C5
:1088800089A989BF89D5897D89FE89198A8A828BC0
:10889000837821124ECD8C828D837821124E1B80DD
:1088A000B18A828B837821124ECD8C828D83782180
:1088B000124E5A809D8C828D837821124ECD8A82F1
:1088C0008B837825124ECD78217925124C38028A77
:1088D000328A828B837825124ECDE52545264527A1
:1088E00045287003028A428C828D837821124ECDF6
:1088F00078217925124D51028A328A828B8378251C
:10890000124ECDE5254526452745287003028A42AB
:108910008C828D837821124ECD78217925124D518C
:10892000852521852622852723852824028A328AC7
:10893000828B837821124ECD8C828D837821124ECA
:1089400081028A498A828B837821124ECD8C828D56
:10895000837821124EA7028A498A828B837821125A
:108960004ECD8C828D837821124EBA028A498A823A
:108970008B837821124ECD8C828D83804F8A828B9F
:10898000837821124ECD8C828D8378211243C96069
:108990005C80568C828D837821124ECD8A828B83A7
:1089A00078211243F3504680408A828B83782112CB
:1089B0004ECD8C828D8378211243C97030802A8CF1
:1089C000828D837821124ECD8A828B837821124347
:1089D000F3401A80148A828B837821124ECD8C82C8
:1089E0008D8378211243F35004D2F08002C2F0A2AA
:1089F000F0E433F521E4F522F523F52480348C826C
:108A00008D837821124ECD8A828B837825124ECDAC
:108A1000E5257821124DD680198C828D837821121C
:108A20004ECD8A828B837825124ECDE52578211292
:108A30004DA38C828D837821124EDC800C75490207
:108A400080037549037A007B0002BAF074EA125081
:108A50009D74C712502D7404125079E9F0752601E7
:108A6000E5496003028D827419125083882189229E
:108A7000AE21AF227409125083882D892E74021200
:108A80005079EEF0A3EFF07402125079E0F5217402
:108A900002782112500B740712507912C7DA740948
:108AA000125083740512507912938B8037743912E7
:108AB0005079E5826E7003E5836F7003028BC18588
:108AC0004582854683E012B523742A28F582748393
:108AD0003912CE16129391852345852446AE27AFD1
:108AE00028752600854582854683E0F525A3858285
:108AF000458583467845E62401F52308E436F524C8
:108B000018E624FFFA08E634FFFBE52D2402F521E0
:108B1000E4352EF522EE2404F527E43FF528E5257B
:108B20001253D1049698028EB3C29192CACC028E8F
:108B3000CED0028E0D0AE78B20E48A28CE8D29C57F
:108B40008E2C498E80AD8A82028EB19192B288922B
:108B5000C8028EC94C8CCD228CF1028E5E8B74D0F3
:108B60002525C3940A50397439125079E5826E7004
:108B700003E5836F604B8A458B468E218F22AE279B
:108B8000AF287A0A79FF1263CDEAF8EBF9ECFAED37
:108B9000FB852182852283124F27754900028AE1D5
:108BA00074BF2525C3941A503E1293B570197419D9
:108BB000125079C3E5219582E52295835003028EF8
:108BC00016754904028D827439125079E5826E70EF
:108BD00003E5836F60EB8A828B83124F1B8E828F3B
:108BE00083124F27028ADD8A458B4674051250791D
:108BF000C3E0952DA3E0952E400302932AE52D2492
:108C0000FEF52DE52E34FFF52EEEFAEFFB852D82D5
:108C1000852E83E01293531250791293A440CC0214
:108C20008D7B7439125079E5826E7003E5836F6035
:108C3000908E218F22AE27AF287A1079FF1263CD54
:108C4000852182852283124EF7028B9A8545828583
:108C50004683E064286003028D7B85234585244696
:108C6000854582854683E0F9749F696003028CFF25
:108C70007523001263A312B5A5E0A2E74015858213
:108C80004585834624D0F523C394024003028D7B9F
:108C90001263A3854582854683A3E0F974A76960C2
:108CA0000874A8696003028D7B854582854683A38D
:108CB000A3E064296003028D7B854582854683A3FA
:108CC000A3A38582458583467439125079E5826E67
:108CD0007003E5836F7003028BC18E218F22AE2754
:108CE000AF2874A76970047A5280027A57A92312B8
:108CF00071A1E985218285228312B69D028AE11243
:108D00009366EAFCEBFD18E624020A08E436FB74DD
:108D10002269707B8A828B83E0642270728C828DE0
:108D20008312B7095003028AE174D028C3940A5011
:108D30004A7439125079E5826E7003E5836F7003CF
:108D4000028BC1745028F912639DE9F88E828F83DB
:108D5000AE27AF28600924FFFAE434FFFB80047AD1
:108D6000007B00EB3395E0FC12B693F07845E624E7
:108D70000312B5BD64297003028AE1E549700375E9
:108D800049027A007B007C007D00743902CC0C74AF
:108D9000BF29C3941A50E48C828D83E0642970DB70
:108DA0007439125079E5826E7003E5836F700302A7
:108DB0008BC18A458B46AA41AB421293BB70BC1251
:108DC00093ABF8A3E034FFF9129391028ADD741992
:108DD000125079E582652D7004E583652E700302DB
:108DE0008BC17407125079E0F98E238F24740278B6
:108DF0002312500BE523C399852D82852E83A3F082
:108E000080147419125079E582652D7004E583652C
:108E10002E7003028BC1852D82852E83E525F0857A
:108E2000212D85222E752601028AE4E52D24FEF5EA
:108E30002DE52E12937DF86428602D12934E12506A
:108E4000791293A44003028D7B7409125083E52D9F
:108E5000687003E52E6970D37404125079E06402DF
:108E60006003028D7B028BEBE52D2402F52D500271
:108E7000052E028AE18E298F2AAE21AF221271B30C
:108E8000E9F5213395E0F522F523F524908706785E
:108E900025124ECD78217925124C3890874E7825B1
:108EA000124ECD78217925124D5112C7D4A3E52356
:108EB000F0A3E5240291FA12934E1250791293A472
:108EC0004003028D7BE52D24FEFAE52E34FFFB8A5C
:108ED0002DF52E8A82F583E0F8642870DAA3E0FC91
:108EE0007407125079E0F98E218F227402782112D2
:108EF000500BE521C399C39CFC7409125083EA68A6
:108F00007002EB69700D7404125079E06401700313
:108F1000028BEB7405125079C3E0952DA3E0952EDA
:108F20004003028AE4EA24FEF52DEB12937DF52539
:108F3000EC7072EE2404F521E43FF522E525247E51
:108F4000603B24B7600D147003028E7524FC60171B
:108F5000028D7B8E238F24AE21AF2212715F852379
:108F60008285248302914A8E238F24AE21AF2279F9
:108F7000001293458523828524830291A2794C783F
:108F80004EE7C396FA0809E796FBEAF8EB3395E05B
:108F9000FA8E828F83E812B68EA3EAF0A3F0AE2198
:108FA000AF22028E2574016C600302920512937049
:108FB000124ECDE525246A70030291341470030229
:108FC000913A14700302914024D0601924FE603B52
:108FD00024FC604D24FE700302918C24DF70030298
:108FE00091500291A990873E78211244084005785B
:108FF00021124D9285212585222685232785242827
:1090000012CC767825124EDC028E251271DD8A256F
:109010008B26E4F527F52878257921124D51029207
:109020007F9086EA782112444E5003028D7BE52121
:1090300075F007A4F521A8F075F007E522A428F53E
:109040002274272521F52974033522F52A852982E2
:10905000F583A3E07003028D7B852982852A83E056
:10906000F8C394415003029110E5292402F52BE442
:10907000352AF52CE824BFF525E434FF12B6121288
:109080004DD69086E67825124E08852B82852C8356
:1090900012B7D4124E94AA25AB26AC27AD28126382
:1090A000798A218B22A821A922EA49607885298220
:1090B000852A83A3A3A3A3E0FA88828B83A3A3E0DA
:1090C0006A705D852982852A8312B70012B6041260
:1090D0004DD69086E67821124E08852B82852C830A
:1090E00012B8CC852982852A8312CAAB124FA28A74
:1090F000258B26E4F527F52878217925124E94AAA8
:1091000021AB22AC23AD24126379EA4B60178010A7
:109110007C007D007A00E02450F9127303E97005A9
:1091200075210080037521017522007523007524C7
:109130000002927FAA217900800AAA217901800485
:10914000AA21790212642712CC76124EF7028E25DC
:10915000852226E52654806003028D7B852125AA81
:1091600025E526540FFBC39404400D9086E2782138
:109170001244084003028D7BEE24FCFCEF34FFFD1B
:10918000127345E96003028D7B028E25E52145229D
:109190004523452460047901800279001293451229
:1091A000CC7612B68DA3EC804F74BF2525C3941ADC
:1091B000504C1293B56003028D7B90873E7821124C
:1091C00044084003028D7B12B8F9F525A3E034FF73
:1091D000F526E4F527F528782579211243DE4003AA
:1091E000028D7BEA2521F582EB3522F583E0FA1228
:1091F000CC76EAF0A3E4F0A3F0A3F0028E258A2D4A
:109200008B2E028E2574026C6003028D7BEE24F897
:10921000129373124ECD782112446D9086DA782520
:10922000124ECD7821792512469312CC76782912E8
:109230004ECD782912446D9086DA7825124ECD787D
:10924000297925124693EE24FCFEEF34FFFF78299E
:109250001252ACAA21AB22AC23AD241273B7740412
:109260001250438A218B228C238D249086D6782518
:10927000124ECD7821792512469378211244E512B9
:109280009370124EDC028E25E526A2E05003752570
:10929000C3A825745228F582E43484F583E0F521CF
:1092A0007409125083E52D687003E52E696051E55D
:1092B0002D24FEF8E52E34FFF98882F583E0FC7456
:1092C0004F2CFAC39413503874032AF582E4348582
:1092D000F583E0FAE521C39A4026882D892EEEFA1F
:1092E000EFFBECF91263EB8A238B24A823A924EA71
:1092F000FEEBFF74021250791293A440A3028D7BFF
:109300007419125079E582652D7004E583652E701D
:1093100003028BC1852D82852E83E525F0E52D2462
:1093200002F52D5002052E028E25741D125079E58E
:10933000826E7003E5836F6003028D7B12CC761220
:109340004EEB028D8A1271ADEB3395E0FC22EEFA02
:10935000EFFBE8F91263EB8A218B22A821A922EA0C
:10936000FEEBFF74022218E62401FA08E436FB2221
:10937000EE24FCF582EF34FFF58378212234FFF5EB
:109380002E852D82F583E02290030FE8F0A3E9F00B
:10939000228E828F83E8F0A3E912939D22F0A3E44A
:1093A000F0A3F022C3E098A3E09922854182854290
:1093B0008312B90522AA41AB42A9251263D3854184
:1093C0008285428312B7C264022274F612509D7ADB
:1093D000007B0C12729D9002E712B68D7C007D0C12
:1093E00079001271D79002E712B8AC2494F582E8A4
:1093F000340BF58385824A85834B854A4CF54D9025
:1094000002E712CAB01263558A478B488A4E8B4FC7
:109410007F0202516F74F412509D7A687B8312634D
:10942000C17A287B851263C112B5D27A627B87121A
:1094300063C102BB8E74F612509D12713B1263F72A
:109440001294A69086C6124EEB126379EA4B6037EF
:109450009002E7C3E09547A3E09548502A9002E7C1
:1094600012C856F8A312B7151252C77521007821F9
:109470001252B490874A124EEB790312714774036B
:109480001250437901800279008085C082C08380B8
:109490000C79007A007B0012640F1294A6127129D5
:1094A000E970EE028386AC4CAD4D784EE62402FAAC
:1094B00008E436FB1271232274E812509D74E912FD
:1094C000502D740A125079E9F0EAFEEBFFE0A2E1B8
:1094D000500912715F9002EB124EF7754900EE4F82
:1094E00060489002E9EEF0A3EFF0740A125079E0C0
:1094F000A2E0501E784CE624FD12B667500302A18C
:109500003A8A4C8B4D8A828B837404F0A314F0A3A7
:10951000E4F012B88C8A828B8312B803EA9547EB89
:109520009548500302966E029869854E82854F8356
:10953000A3A38582458583461263A97E0074021227
:109540005079EEF004FEE0FA7845E62AF58208E468
:1095500036F583E0640A70E5EEF8C3E498F52195EA
:10956000E0F522EEF52375240078231252B0AC45C5
:10957000AD46784C12BAF512713574021250437828
:109580004CE62521FA08E635228A45F5461263B5F0
:109590001263A39002E912CAD3701F85474385481E
:1095A00044854E82854F83A3A3858245858346E00B
:1095B000640A600302966E02965B9002E9E0F47022
:1095C00003A3E0F470030298621263E57845E62491
:1095D000FDFA08E634FFFB8A45F546A845AA4CEAA1
:1095E000C398FE9002E912CE188545828B831293B0
:1095F0008BEE8545828B83A3A3F08545828B83A365
:10960000A3A3E0640A700F9002E912CAB012637F4C
:109610008A478B48803F90029FE0D2E2F0AA451231
:10962000B4FD7026AC4CAD4D9002E712CAB0EEF915
:10963000126391AA45AB4612B4FD700E90029FE0F2
:10964000C2E2F07902741702C74190029FE0C2E2C1
:10965000F08847894885474E85484F1294A679017E
:1096600080E3E96003029FC1858245858346AA4560
:10967000AB468A828B83A38582458583467845E6FF
:109680002402F52108E436F5228A828B83E0F52353
:1096900012936618E624FFFC08E634FFFDAE47AFE0
:1096A00048A843A944E5231252F480280097629801
:1096B00085979E971D9838985198BD98BD98F89FAA
:1096C000EB98109918A1BF97BF9769993AA2F299A0
:1096D000BF97209A6F9A959AE79A159B159B159BB1
:1096E000659B759BD69B4B9CB59C189D889D009750
:1096F000EAB2679E00970097959ED59E0A9F3B9F72
:109700008C458D46E523C394804003029862AA41AC
:10971000AB421263D98A218B22854582854683E03C
:1097200064BD6003029862EA4B701512CACD7003E3
:1097300002986212C836A3A3E06402600302986232
:10974000754900854582854683A385824585834684
:10975000EA4B700302A17112B554125079124EF700
:10976000E54960030298621293BE600302A15E7431
:10977000061250797825124ECD852182852283E507
:1097800025F002A1C97E011263B585458285468315
:10979000E0640A600302986212B88C02A1F812B564
:1097A000D2794C784EE7C396FA0809E796FB3395D1
:1097B000E0FCFD79001263AF7AC77B841263C18538
:1097C0004382854483A3A385824385834412B803DF
:1097D00012B50C4003029869740A125079E0A2E1B4
:1097E000400302966E12715F8A258B268C278D2886
:1097F000901BF612B7C79002EB7825124E427821E3
:1098000079251243DE500302966E85438285448398
:1098100012C856FAA3E0FB12714D02965B85458291
:10982000854683E0640A703A1263E51263858A47CD
:109830008B488A4E8B4F80311263E59002E712BB52
:109840001AC3E5439547E5449548500302995D8066
:1098500018854582854683E024BFC3941A500302CD
:10986000A10CE5497003754901E54912B523741649
:1098700028F582748539F58312CAB01263C112B516
:109880000B5025E549700302965B12B766793E12CC
:10989000712F793E12712F792012712F7A01790080
:1098A0001263C7790A12712F740465496003029626
:1098B0005B7AF27B851263C17E00029FB112B554C0
:1098C000125079124EF7E549709885458285468396
:1098D000E0640A70917406125079124F1BE8494AED
:1098E0004B60030297BF7900029FC112C7E2600379
:1098F000029862854582854683E0640A6003029887
:109900006612635B8A438B44C3EA9547EB0298482F
:1099100012C7E26003029862854582854683E0644F
:109920000A6003029866784CE624FB12B66750037F
:1099300002A13A8A4C8B4D8A828B837401F0A37406
:1099400005F0A3E412B6C7E543F0A3E544F012B86E
:109950008CC3EA9547EB954840030298698543829A
:1099600085448312B7A0029668854582854683E0C8
:10997000F874BF28FEC3941A4003029862740F1251
:109980005079E8F08A458B4612B61664BD60030232
:109990009862A385824585834612B57C6003029850
:1099A00062A845A94688828983A385824585834626
:1099B00088828983E064D36003029866790012B5D7
:1099C0005C6003029862A845A94688828983A385C2
:1099D000824585834688828983E064D4600302A03F
:1099E0003A12B54A8C2B8D2CE5496003029862022D
:1099F000A0497E00854582854683E0645570168ABD
:109A0000828B83E06450700D852182852283E0641F
:109A10000A70027E011263E5EEF912716B02986220
:109A200085458285468312B7094003029862740215
:109A3000125079E8F08A458B46790112B56C6003C3
:109A4000029862EA4B4C4D7003029866E4F525F5E6
:109A50002678251252B07404125079E0F91263DFAF
:109A60007402125043E54960030298620297BF7F77
:109A70000012B539FEE549600302986212B6166419
:109A8000D5600302A2C2A3858245858346EEF91202
:109A900071410297BF12B554125079124EF7E54941
:109AA000600302986290873E7821124ECD740612B0
:109AB000507978211243F3500302A33685438285FF
:109AC0004483A3A312C8251252C77521007821121E
:109AD00052B47409125079124EEB79031271477423
