:020000040000FA
:10400000450DFFFF0100009442424242FFFFFFFFC7
:10401000FFFFFFFFFFFFFFFFFFFFFFFFFFFFFFFFB0
:10402000000102030405060708090A0BFFFFFFFF52
:1040300002438E025D06FFFFFFFFFFFFFFFFFFFF52
:10404000FFFFFFFFFFFFFFFFFFFFFFFFFFFFFFFF80
:10405000FFFFFFFFFFFFFFFFFFFFFF02626FFFFF9A
:10406000FFFFFF026104FFFFFFFFFFFFFFFFFFFFF6
:10407000FFFFFFFFFFFFFFFFFFFFFFFFFFFFFFFF50
:10408000FFFFFF025D7CFFFFFFFFFFFFFFFFFFFF62
:10409000FFFFFFFFFFFFFFFFFFFFFF0254DCFFFFFB
:1040A000FFFFFFFFFFFFFFFFFFFFFF025551FFFF75
:1040B000FFFFFF025B630256870100003A87025A46
:1040C0008701000069871082850300008602025E76
:1040D000870300008102025C870100003486025AD7
:1040E0008701000068871072850200000000025EF0
:1040F000870300008302025C87010000048600C081
:10410000010000000F81DD8177810784A4809D82FA
:1041100000801C86688335843F863E82E8820000EA
:10412000030000010000000000000000140030FF48
:104130000000B4000028002800283075A000A0006E
:10414000A000A00000080008E001F000100010002E
:10415000100010001000100050005000500010001F
:104160001000D0070000000000000F000100050053
:10417000307507001000010081FF00000000FFFF04
:10418000FFD765F565DD651366FF02020208025080
:1041900000A0000000E803025687010000378702F4
:1041A0005A87010000461B0260870100008C030251
:1041B0005A87010000471B026287010000A2030228
:1041C0005A87010000481B026487010000A4030213
:1041D0005A87010000491B024887080000A5030216
:1041E0005A870100004A1B0244870100004B1BFF55
:1041F0000100FF200256870100003487025A870120
:104200000000AF1B024C870000000000025E870325
:104210000000D30317003D6C3D6C3D6C3D6C3D6C64
:104220003D6C3D6C3D6C3D6C3D6C3D6C3D6C3D6C46
:10423000AD6EBF6EA76E020256870100003D870279
:104240005A870100006A87024287010000090802BC
:104250005A8701000067870250870100001086021C
:104260005A870100006687024A8701000092840293
:104270005A870100006C87024087010000318502E7
:104280005A87010000F21B024E870100006E86FF74
:10429000FF0001307503020106000000000000006D
:1042A000000000000000000000000000000000000E
:1042B0000000000000FFFF0600800CE8030100B0D2
:1042C000423BAAB83F0000003F8C906339AA0CA380
:1042D0003A00941E3C8042633DCFFE753E1572311C
:1042E0003F0000803FF304353F8096184B0000806C
:1042F000BF2292D43EDD9B2A3F04000040FFFF7F97
:104300007FFFFF7FFF010080341872313FE5C75403
:10431000F84404F5C779012200000080FB12430D28
:10432000B90003024378E479437815B800028004A9
:10433000F709D8FCE479587802B800028004F7093C
:10434000D8FCE490028078F379188002F0A3D8FCBE
:10435000D9FA7A727B1A9040B6785879038015E4BE
:1043600093A3AD82AE838A828B83F0A3AA82AB83B0
:104370008D828E83D8E9D9E7758289758382740529
:104380001243A075821875834374001243A075D040
:104390000075815F754180754202759F0002431D63
:1043A000C09FF59FE473D09F22D083D082C09FE44A
:1043B00093C0E0740193C0E0740293F59F22E0661D
:1043C000701008A3E066700A08A3E066700408A3F2
:1043D000E06622C3E7960809E7960809E796080908
:1043E000E796A2D265D03322C3E09608A3E09608F0
:1043F000A3E09608A3E096A2D265D03322C021C3E1
:10440000E096F52108A3E096422108A3E096422118
:1044100008A3E0964221A2D265D033E5217001D3F2
:10442000D02122C3E7960809E7960809E79608090C
:10443000E79622C3E09608A3E09608A3E09608A3B7
:10444000E09622C021C3E096F52108A3E096422120
:1044500008A3E096422108A3E09645217001D3D03D
:104460002122080808E630E711124D8412447A0828
:104470000808C64480C618181822181818E9799E2A
:10448000C608CAC608CBC608CCC6C370207996CA6F
:10449000CBCC7019798ECBCC70137986CC700EF999
:1044A000802ACA33CACB33CBCC33CC331930E7F2B2
:1044B000CCCBCA3350147004EA30E00DE4CA3ACAD7
:1044C000CB3BCBCC3CCC500209C3E913C6CC182360
:1044D00013C6CB18C6CA18C6F92212451A20F01402
:1044E00030E72B74FFFCFBFA747F8022E4FCFBFABC
:1044F0007480801AB48008BC00F2BB00EF800F50BB
:10450000EBF9E4C39AFAE49BFBE49CFCE499C6CC87
:1045100018C6CB18C6CA18C6F922E4C9C608CAC646
:1045200008CBC6D3330308CCC63392F0C3947F4084
:104530002E94184019C9B90704CACBCC225025C300
:1045400009CA33CACB33CBCC33CC33D9F422F46091
:104550000DC9CCC313CB13CBCA13CAD9F6CC22E4F2
:10456000FCFBFA2214FCFBFA22E626184618461831
:104570004622E72719471947194722181818E6084D
:1045800046087009E626087005E633F42208221969
:104590001919E70947097009E727097005E733F496
:1045A000220922E6084608C3134608336002E633B0
:1045B000F422E7094709C3134709336002E733F4DC
:1045C000221245A360251245B2602012456970038E
:1045D000024572080808E76670101819E766700A45
:1045E0001819E76670041819E76622F4221245A329
:1045F000601C1245B260171245697007124572704F
:1046000001D322C0D01245727006D0D0B322C3228B
:1046100033D0D0501430E0F6C3E7960809E7960887
:1046200009E7960809E796B32220E0D5E69708093E
:10463000E6970809E6970809E697B3221245A360B2
:104640001B1245B260161245697007124572600C64
:10465000B322C0D01245727005D0D022C32233D00D
:10466000D0501330E0EBC3E7960809E7960809E756
:10467000960809E7962220E0E4E6970809E69708FD
:1046800009E6970809E69722001245A3604F1245F4
:10469000B26012E7548066F612457B7011124572C3
:1046A000703B090909F4F618F618F618F6221245B7
:1046B0008F701512456908080860EAE6447FF6180D
:1046C000768018E4F618F6221245696016124572D3
:1046D0007012E4F608F608F608E65480F6090909AF
:1046E00018181822EAC0E0EBC0E0ECC0E0EDC0E032
:1046F000E687F0A4FBACF008E687F0A42CFCE435D8
:10470000F0FA1809E687F0A42C4B60027401CA3550
:10471000F0FCE433FB09E687F0D2F7A42CCB35F0AC
:10472000FC1908E687F0A42BCC35F0FBE433FD0838
:1047300019E687F0D2E7A42C4ACB35F0CD3400FC43
:1047400009E687F0D2E7A42DCC35F0FDE433FA0971
:1047500018E687F0D2F7A42CCD35F0CA3400FC0857
:10476000E687F0D2E7D2F7A42ACC35F07A7E20E7AC
:104770000B0ACB33CBCD33CDCC33CC33CB3350142E
:104780007004ED30E00ED2F1E4CD3DCDCC3CCC3B1D
:104790005005DA05C2F1EB547FC63308E63392F0D8
:1047A000FBE73309E733C39A502D2B70190C0D4CDE
:1047B0004D70151806E608C333700D20F10AA2F0FB
:1047C00013F6E418800B4024E4F630F002768018EB
:1047D000F618F618F68024D33B14501074FFA2F09C
:1047E00013F6187680E418F618F6800FA2F013F688
:1047F00018E63303F618ECF618EDF6D0E0FDD0E03D
:10480000FCD0E0FBD0E0FA221245B260461245A38C
:10481000603DE9687008F618F618F618F6227480FC
:1048200067F712483C090909748067F7221245A30B
:10483000601D1245B27005191919801A12457B7056
:104840001F12458FC37003E6673319191940071803
:1048500018182208080874FFF618F618F618F62239
:1048600012458F6017124572702192F012456970DF
:1048700019501720F014080808090909E7F6181953
:10488000E7F61819E7F61819E7F62212456960E607
:10489000E869701F0808E62480F608E436F6185424
:1048A0007FB47F0CE654806007F6E418F618F62211
:1048B000181822E9C6CC08C6CD08C6CE08C6CFC097
:1048C000E0E8C0E0EAC0E0EBC0E009E9F809E7FA97
:1048D00009E7FBE6F918E6F8C3EC98ED99EE9AEBD8
:1048E000C2E7F5F0EFC2E795F0500E600CEBCFFB9E
:1048F000EACEFAE9CDF9E8CCF8EAA2E7D2E7FAEB9A
:1049000033FB13F5F0EEA2E7D2E7FEEF33FFC5F07D
:1049100013A2E730E601B313C5F0C3C0E0C0F07FD7
:1049200000C39BFB605E9418600F401D14601AD09A
:10493000E023F9D0E0F8024A0E8AF0E9486003D299
:10494000F0E4AFF0FAF9F8803BEB30E40D89F0EADF
:104950006003D2F0E4AFF0F9CAF8EB30E30D88F071
:10496000EF6002D2F0AFF0E4CAC9F8EB540760146C
:10497000FBC3EA13FAE913F9E813F8EF135002D274
:10498000E0FFDBEDD0E0C0E030E739C3E49FFFF5A6
:10499000F0EC98FC42F0ED99FD42F0EE9AFE42F008
:1049A000D0E0F9D0E0F8E5F0607AE923F9EE20E70D
:1049B00042D8028067C3EF33FFEC33FCED33FDEEEA
:1049C00033FE80EAEC28FCED39FDEE3AFED0E02320
:1049D000F9D0E0F84002801BC3EE13FEED13FDECAE
:1049E00013FCEF135002D2E0FF08B800067F7F747B
:1049F000FF802EEF3350178CF020F00260100CBCBB
:104A0000000C0DBD00080EBE000408E860DFE933AD
:104A1000E813FFEE2313FE4F4D4C8008E95480FF4E
:104A2000E4FEFDFCEE33EF33F47004FCFD7E80D039
:104A3000E0FBD0E0FAD0E0F8D0E0CFC618CEC61840
:104A4000CDC618CCC6F9221245A370041818182236
:104A50001245B2700D74FFF61819F61819F61819E8
:104A6000F622E7548066F6124569700F124572709F
:104A7000F014F608F608F608F680D1124572700CAC
:104A8000F608F608768008E6447F80EC12459270BE
:104A90000C12457E60BFE65480F6E480BB12457E72
:104AA000700519191980A5E869700C763F18768091
:104AB00018F618F6E8F922E6CDC0E018ECC0E0E6FA
:104AC00033CD33CDD313F6E719FCE7191933CC33C3
:104AD000C3947F400ECD9D502408E65480F6E41820
:104AE000F6800FF4043D14501408E6447FF618765F
:104AF00080E418F618F6D0E0FCD0E0FD22CCD31309
:104B0000CCFD18E4C6CBC0E018E4C6CAC0E0080873
:104B1000ED08C633E613F618E433C675F003C3CACE
:104B200097CA09CB97CB199C40047D08802EBD0005
:104B300003024BF016B6FF050606081618C3CA3363
:104B4000CACB33CB33CA27CA09CB37CB193CC37D79
:104B500008803E187D0820E75CC633C6CA33CACB3E
:104B600033CB33DDF1D5F0EB30E77BCA97CA09CB05
:104B7000974ACB199C406F4B7025E620E021806658
:104B8000187D08C3CA97CA09CB97CB199CD3C633E3
:104B9000C6CA33CACB33CB3350C9DDE7D5F0E1D336
:104BA000E4C636C608C636C608C636C608C636C601
:104BB0001818188031C3CA97CA09CB97CB199CB370
:104BC0004097C633C6CA33CACB33CB33DD34D5F0B6
:104BD0002EC6A2E0C640C8CA27CA09CB37194A70F8
:104BE000BECB3CB480B90808E63308E633601F1832
:104BF0001818D0E0FAD0E0FBD0E0FCD0E0FD22189D
:104C00007D08CA27CA09CB37CB193CD3808013F65D
:104C100018E4B67F11F618B6FF0EF618C60470D267
:104C20000808768080CAF618F618F680C5080808C5
:104C3000EAC0E0EBC0E086F0E7A4FA180986F0E7E6
:104C4000A42AFA180986F0E7A42AFA180986F0E7D8
:104C5000A42AFA1986F0E7A4FBE5F02AFA190886D7
:104C6000F0E7A42BFBE5F03AFA190886F0E7A42B4D
:104C7000FBE5F03AFA18180986F0E7A4C5F02BFB1B
:104C8000E43AFA1908E7C5F0C6A426F6E5F03BFBBE
:104C9000E43AFA1886F0E7A4F6E5F00826F6E43BD5
:104CA00008F6E43A08F6D0E0FBD0E0FA22E4CFC000
:104CB000E0E4CEC0E0E4CDC0E0E4CCC0E075F0209C
:104CC000E626F608E633F608E633F608E633F61885
:104CD0001818EC33FCED33FDEE33FEEF33FFC3EC7D
:104CE0009709ED9709EE9709EF97191919400FFFEA
:104CF000EC97FC09ED97FD09EE97FE191906D5F022
:104D0000BFECF709EDF709EEF709EFF7191919D01C
:104D1000E0FCD0E0FDD0E0FED0E0FF22124D87188D
:104D20001818124CAD124D7319191922124D73191E
:104D30001919080808E618181820E7E0124CAD12F7
:104D40004D8718181822090909E719191920E7DCF5
:104D5000080808E618181820E703024CAD124D8722
:104D6000181818124CAD124D87181818124D7319D7
:104D7000191922E4C397F709E497F709E497F709AB
:104D8000E497F722181818E4C396F608E496F60894
:104D9000E496F608E496F6226017080808C6A2E72B
:104DA00013C618C613C618C613C618C613C6D5E050
:104DB000E9226016080808C6C313C618C613C61829
:104DC000C613C618C613C6D5E0EA2270090808083B
:104DD000226016181818C6C333C608C633C608C6DC
:104DE00033C608C633C6D5E0EA22E627F60809E648
:104DF00037F60809E637F60809E637F622E026F620
:104E000008A3E036F608A3E036F608A3E036F6225B
:104E1000E026F008A3E036F008A3E036F008A3E0AF
:104E200036F022C3E697F60809E697F60809E697F2
:104E3000F60809E697F622C3E0C696F608A3E0C690
:104E400096F608A3E0C696F608A3E0C696F622C337
:104E5000E096F008A3E096F008A3E096F008A3E03F
:104E600096F022E056F608A3E056F608A3E056F6C0
:104E700008A3E056F622E056F008A3E056F008A397
:104E8000E056F008A3E056F022E647F60809E647A8
:104E9000F60809E647F60809E647F622E046F00874
:104EA000A3E046F008A3E046F008A3E046F022E0C5
:104EB00066F008A3E066F008A3E066F008A3E066E9
:104EC000F022E0F608A3E0F608A3E0F608A3E0F677
:104ED00022E6F008A3E6F008A3E6F008A3E6F02235
:104EE000E0FAA3E0FBA3E0FCA3E0FD22EAF0A3EBE1
:104EF000F0A3ECF0A3EDF022E0FCA3E0FDA3E0FEC4
:104F0000A3E0FF22ECF0A3EDF0A3EEF0A3EFF0227C
:104F1000E0F8A3E0F9A3E0FAA3E0FB22E8F0A3E9BC
:104F2000F0A3EAF0A3EBF022CAC0E0E6F0A308DAAF
:104F3000FAD0E0FA22CAC0E0E0A3C582CCC582C59F
:104F400083CDC583F0A3C582CCC582C583CDC5837F
:104F5000DAE6D0E0CA22C3E498F8E499F9124F9750
:104F60008026C3E49AFAE49BFBE920E7E9124F9715
:104F7000E498F8E499F922C3E498F8E499F9124F17
:104F800097E498F8E499F9C3E49AFAE49BFB22EBDE
:104F900020E7CFE920E7E0B90010BB0008E88AF07D
:104FA00084F8AAF022E4FBC8FA22EB70227B10C836
:104FB00033C8C933C9335007C39AC3DBF280069A9A
:104FC00050012ADBEAC833F4C8C933F4C9FA2275A0
:104FD000F008E4C833C8C933C933C99AC99B50041F
:104FE000C92AC93BD5F0ECFBC833F4C8E4C9FA229E
:104FF000600D08C6A2E713C618C613C6D5E0F32293
:10500000600C08C6C313C618C613C6D5E0F42270D8
:105010000422600D18C6C333C608C633C6D5E0F4F3
:105020001822254110AF08F541400C15428008F5C3
:105030004140021542D2AF2200C0D0254110AF0836
:10504000F541500C05428008F54150020542D2AFAF
:10505000D0D0222541F58210AF08F541400C154211
:105060008008F54140021542D2AF85428322254196
:10507000F582E43542F583222541F8E43542F922F0
:105080002541FAE43542FB222541FCE43542FD226C
:10509000E4732541C582C0E0E54234FFC583C0E02A
:1050A000E541C3958224F810AF088583428582418B
:1050B0008008858342858241D2AFCEF0A3E520F0FF
:1050C000A37821E608F0A3DEFAEFF0A3E58124FA45
:1050D000F8E608F0A3E608F0A3E608F0A30808E65F
:1050E00008F0A3E608F0A315811581D0E0FED0E01A
:1050F000F8158115811581E8C0E0EEC0E022254158
:10510000C582C0E0E54234FFC583C0E0E541C395F8
:105110008224F910AF088583428582418008858307
:1051200042858241D2AFCEF0A3E520F0A37821E6FC
:1051300008F0A3DEFAEFF0A3E58124FBF8E608F01F
:10514000A3E608F0A30808E608F0A3E608F0A31514
:10515000811581D0E0FED0E0F815811581E8C0E02E
:10516000EEC0E022854283854182E0A3FEE0A3F504
:10517000207821E0A3F608DFFAE0A3FFE0A3C0E077
:10518000E0A3C0E0E0A3C0E0E0A3C0E0E0A3C0E093
:1051900010AF0885824185834280088582418583DE
:1051A00042D2AFD083D0820243A68542838541821A
:1051B000E0A3FEE0A3F5207821E0A3F608DFFAE003
:1051C000A3FFE0A3C0E0E0A3C0E0E0A3C0E0E0A351
:1051D000C0E010AF08858241858342800885824106
:1051E000858342D2AFD083D08222C0D02541C582F0
:1051F000C0E0E54234FFC583C0E0E541C3958224A9
:10520000F310AF08858342858241800885834285FB
:105210008241D2AFC8F0A3E9F0A3EAF0A3EBF0A378
:105220007921E709F0A3D8FAECF0A3EDF0A3EEF0B2
:10523000A3EFF0A3D0E0F0A3D0E0F0A3D0E0F0A380
:10524000E520F0A3E5F0F0A322854283854182E0CA
:10525000C0E0A3E0F9A3E0FAA3E0FBA37821E0F625
:1052600008A3DFFAE0FCA3E0FDA3E0FEA3E0FFA3B8
:10527000E0C0E0A3E0C0E0A3E0F5D0A3E0F520A308
:10528000E0A3F5F010AF0885834285824180088550
:105290008342858241D2AFD082D083D0E0F8D0E083
:1052A0003274048006740280027401C0E0F40412B7
:1052B0005053D0E0124F28227404800474028000FE
:1052C000CCC0E0EDC0E0E541C39CCCAD4250011D37
:1052D00010AF068C418D4280068C418D42D2AF12B8
:1052E0004F35D0E0FDD0E0FC22D083D082C5F0E481
:1052F00093A3C5F0C395F0F5F0E493A3C395F040F4
:1053000005E5F0048001E475F002A42582F582E54C
:10531000F03583F583E493A3C0E0E493C0E022D0AA
:1053200083D082E9C0E0E493A3C386F0C5F095F092
:10533000F908E493A386F0C5F095F0700BE493A30D
:10534000C3994005E9048002A3E475F002A4258214
:10535000F582E5F03583F583D0E0F9E493A3C0E06E
:10536000E493C0E022D083D082E9C0E0E493A3C3F9
:1053700086F0C5F095F0F908E493A386F0C5F095A2
:10538000F0702408E493A386F0C5F095F070190836
:10539000E493A386F0C5F095F0700E08E493A3C3E0
:1053A000994007E9048004A3A3A3E475F002A425AF
:1053B00082F582E5F03583F583D0E0F9E493A3C06C
:1053C000E0E493C0E022D083D082CCC0E0E493A399
:1053D00060061253F01470FAE493A3600612540F9F
:1053E0001470FAD0E0FCE493A3C0E0E493C0E022A0
:1053F000C0E0E493A3D39C5010E493A3C39C400A61
:10540000D0E0D0E0D0E00253E3A3A3A3D0E022C0D9
:10541000E0E493A36C7009D0E0D0E0D0E00253E365
:10542000A3A3D0E022D083D082ECC0E0EDC0E0E4C2
:1054300093A3FCE493A3FDED4C600D125471EC2496
:10544000FFFCED34FFFD80EFE493A3FCE493A3FDA8
:10545000ED4C600D1254B0EC24FFFCED34FFFD80E8
:10546000EFD0E0FDD0E0FCE493A3C0E0E493C0E023
:1054700022C0E0C3E49396087401939618400FE4A9
:105480009366700808740193661870007019A3A3DE
:10549000C3E49396087401939618A3A3400DD0E03B
:1054A000D0E0D0E0025461A3A3A3A3A3A3D0E02241
:1054B000C0E0C0F088F0E493667008087401936659
:1054C000187000A8F0A3A3700BD0F0D0E0D0E0D00B
:1054D000E0025461A3A3D0F0D0E022FFC0E074EF5B
:1054E0001251EAA2AFE433FFD2AFA889E5AB58F579
:1054F000216054F4F589C2C57E00EEF523752400C1
:105500007402782312500F1255BEE9FBEA4B70303B
:10551000E8131313541F5407F8E521B80002800460
:10552000C313D8FCA2E05018752300752402EE784E
:105530002312500FAA23AB24900280E0F91270EDE1
:105540000EEEC3940440B3EFA2E092AF7F04025288
:1055500049C0E074EF1251EAA2AFE433FFD2AFA822
:105560008AE58D58F5216054F4F58AC2EB7E00EE91
:10557000F5237524007402782312500F1255BE745F
:10558000406A497030E8131313541F5407F8E5219B
:10559000B800028004C313D8FCA2E05018752300A1
:1055A000752402EE782312500FAA23AB24900280B8
:1055B000E0F91270ED0EEEC3940440B38089744B91
:1055C0002523F58274083524F583E0F8A3E0F9E893
:1055D00054C0FA2274F61250FEEAFEEBFF8C218DC5
:1055E00022EA2434F8E43FF9E8FCE9FDEA24351224
:1055F000597BFAEE243712597BF88521F0A4C8852F
:10560000F0238522F0A42523F9EA28F8E439F97A71
:10561000257B00124F97EA8C828D83F0FA131313C7
:10562000541F12596F245DF582E439F583E0C0E020
:1056300074075AF8D0E0B800028004C313D8FCA263
:10564000E0EE50082434F582E43F801424361259E9
:105650007BF5F0EA84A8F01259702438F582E43919
:10566000F583E0F97F030251AA74F71250FEEAFEB7
:10567000EBFFEA243412597BC0E0EA2435F582E4DA
:105680003FF583D0E0F08A828B83A3A3A3A3A3A3D7
:10569000A3C082C0838A828B83A3A3A3A3A3E0F8C1
:1056A000A3E0F9D083D082E0C398F521A3E099F577
:1056B00022EA248012597B6401703EEA2481F5823B
:1056C000E43FF583C082C0838A828B83A3A3A3A314
:1056D000A3E0240108A3E03400F9D083D082E0687D
:1056E0007003A3E06970127C7B7D05126B7DEE2454
:1056F00080F582E43FF583E4F0AC21AD22EEFAEFD1
:10570000FB1255D4E9F91260F67F020251AAC08259
:10571000C083854182854283E0F8A3E0F9C3EA9C17
:10572000EB9D5010C3EC98ED99401BC3EA98EB99A0
:105730005014800EC3EA98EB994007C3EC98ED999A
:105740004004790180027900D083D08222EAC39C90
:10575000FAEB9DFB2274EF1250FE90043BE06408CC
:105760006005E06407702A9061C8E06024900469D5
:10577000E0F4601DE0F875F010A4C8AAF02AF974EE
:105780006B28FE740439FF8E82F583A3A3A3E07017
:105790000302586E906060E0C0E0EE2468F582E499
:1057A0003FF583D0E0F07525EC7526057521007571
:1057B0002200E5D914F523E5D95403F527602F74A9
:1057C000036527601DE5236008EE246712597B609E
:1057D0001D9005E7E06401602C125978601278048E
:1057E0008010125978602CE523C3940550258063FE
:1057F0007800E523C398FA95E0FB126A3F8A218B73
:1058000022EA4B7005126D99806412597870048AEF
:10581000258B26E5236012852582852683F524E5E0
:10582000D9F0A31524E52470F6125978604574FC6C
:105830002523F52378251252A5AC23A927EEFAEFEC
:10584000FB126C377402125038E97027AA21AB2280
:10585000127123793D8E828F83A3A3A3A3E0FA7BE9
:10586000001268B3EEFAEFFB126BA1126C497900DB
:1058700002596A740365276053E523F529752A00E8
:1058800078291252A5AC25AD26AA21AB22126BFBBA
:105890007402125038EE246812597B6480700474CC
:1058A0007F8001E0F52578251252A9E527F52578B6
:1058B000251252A9A923AC21AD22900469E0FA7BFC
:1058C0000012688974021250380259658525828554
:1058D0002683E0C3940E5011E0F874C028F582E4EA
:1058E0003485F583E065236069852582852683E01C
:1058F000C0E0EE24F7F582E43FF583D0E0F0A2AFFC
:10590000E433FCC2AF7A0080010AEE246E12597BA8
:10591000F8EAC3985013EA12596F246AF582E43901
:10592000F583E0640770E28022EE246EF8E43FF92C
:10593000E0FAEE2AFAE43FFBEA246AF582E43BF55A
:10594000837407F088828983E004F0ECA2E092AFD0
:10595000801390043BE06408600BAC25AD26EEFAA2
:10596000EFFB126CC1126DA579017F0A0251AAF8F2
:10597000EE28F8E43FF9E822EE2484F582E43FF5CE
:1059800083E02274F11250FE74FC125022EAFEEB06
:10599000FF8922752600A2AFE433F521C2AF90053E
:1059A00083E0FA9061D0E0F8748098F895E0F9C34C
:1059B000EA98E499A2D265D0334003025A6D752665
:1059C00001025A6DE0601B78231252A5AC27A9286A
:1059D000EEFAEFFB126C3174021250387404252772
:1059E000F52774012527F5D98528D9E52760128583
:1059F0002382852483F525E0F5D9A31525E52570B7
:105A0000F675E195EE2463F8E43FF97A007B00A295
:105A1000AFE433F523C2AF88828983E0FCA3E0FDC5
:105A2000EC4D603A88828983E0FAA3E0FB8C82F532
:105A300083E0FCA3E0FD88828983ECF0A3EDF08A8B
:105A4000828B83E4F0A3F088828983E0FCA3E0FDED
:105A5000EC4D700A88828983A3A3E4F0A3F0E523C8
:105A6000A2E092AF127123900582E004F0EE24636D
:105A700012597BF8A3E0F9E8496063EE24631259F8
:105A80007B2402F8A3E034008882F583E5822402B7
:105A9000F523E43583F524E0F527A3E0F528EE248B
:105AA0006212597B640170369061D0E0F812597827
:105AB00060047C0480027C007480C398FA95E0FB4B
:105AC000E5272CF8E43400F9E82402F8500109C372
:105AD000EA98EB99A2D265D03340030259C4906191
:105AE000D0E0F87480C398900583F0E52660539069
:105AF0000582E0604D900584E0F8900582E0C3984F
:105B0000500C74026522703A900585E060348E82F4
:105B10008F83A3A3A3A3E0854182854283125B52B6
:105B2000740212506EE8125B52900581E028F07406
:105B300002125088AA41AB4279011268D7900582BF
:105B4000E4F0E521A2E092AF74041250387F08021D
:105B500051AAF0A3E4F0900582E0F82285508785F1
:105B600051C622C0E074EB1251EAA2AFE433F52132
:105B7000C2AF759B00906182E0A2E0502DE591A23A
:105B8000E050277591FE74016550701E125CDA12A8
:105B90005CF11252B8125EA57404125038E9640127
:105BA00070057901126D3F125755906182E0A2E5B0
:105BB000505AE591A2E550547591DF90043BE064A2
:105BC000076005E06408702C125CDA74016550709F
:105BD0003B125CF11252B8125EA57404125038E9FF
:105BE000640170057901126D3F7901EEFAEFFB1245
:105BF00059838018E0640D701390045DE004F06434
:105C0000287002E4F07A00E0F9126DAB906182E056
:105C1000A2E64003025CAFE591A2E64003025CAF5E
:105C20007591BF90043BE064057008126CEB126C38
:105C3000F78003126CF1755000126D4BE990043C33
:105C4000F07900126D3F126AF37A017B0090043AFA
:105C5000E0F91270ED907803E0644270529005EB29
:105C6000E014F0704AC2AF125C6A007859D0E0F6D6
:105C700018D0E0F6E59F540770047BFF80027B7F1D
:105C8000C4C0E07858E6F52308E65BF524740B7889
:105C900023125000D0E02523F8906270E0A2E74084
:105CA000F8E8C333906272F0906270E0D2E0F09056
:105CB0006181E0A2E35009E5E9A2E3500375E9F749
:105CC000A3E0A2E75009E591A2E7500375917FE5B3
:105CD00021A2E092AF7F08025249900469E0F87572
:105CE000F010A4C8AAF02AF9746B28FE740439FFD6
:105CF00022126D038E828F83E0F8A3E0C82416F58C
:105D000082E438F58322C0E0C0D0C082C0839061B5
:105D100083E0A2E05009E5BFA2E0500375BFFEE0BA
:105D2000A2E15009E5BFA2E1500375BFFDE0A2E288
:105D30005009E5BFA2E2500375BFFBE0A2E35009A2
:105D4000E5BFA2E3500375BFF7E0A2E45009E5BF49
:105D5000A2E4500375BFEFE0A2E55009E5BFA2E55C
:105D6000500375BFDFE0A2E65009E5BFA2E650038D
:105D700075BFBFD083D082D0D0D0E032C0E074F203
:105D80001251EAE5A7A2E6500FE5A1A2E650095399
:105D9000A7BF75A1BF125DD0E5A7A2E5500CE5A194
:105DA000A2E5500653A7DF75A1DFE5A7A2E15009E0
:105DB000E5A1A2E1500375A1FDE5A7A2E2500CE523
:105DC000A1A2E2500653A7FB75A1FB7F0102524935
:105DD00074F71250FE75500190043BE06406701594
:105DE000126C6D8A828B83A3A3A3A3A3A3E0FAA35F
:105DF000E0FB126CD9A2AFE433FED2AF900441E0D5
:105E0000640170187A207B0090043AE0F91271E97D
:105E10007A207B0090043AE0F91270F3906182E0FE
:105E2000D2E6F09005E8E0602185C6518016900426
:105E300040E064017008E5C654F84405F5C653BE59
:105E4000FC125B5C7401655060E4EEA2E092AF7FEF
:105E5000020251AA8E528F538582578583568541FF
:105E600082854283E0CEA3E0CF855782855683EBBF
:105E7000C9EAC8EDCBECCA75F010C3E833C8E93302
:105E8000C9EA33CAEB33CBC3EA9EF555EB9FF55411
:105E9000B35004AB54AA55EC33CCED33CDD5F0DA86
:105EA000AE52AF532274F11250FE8A218B228C2302
:105EB0008D249086D17821124E63740F12506E7823
:105EC00025124EC29086D17825124E63782179250D
:105ED000124423908711501078217925124E23788F
:105EE000211244434014800E78257921124E2378E4
:105EF0002512444350047901800279007F08025141
:105F0000AA74ED1250FE8A218B228C238D24908658
:105F1000D17821124E63741312506E7825124EC23E
:105F20009086D17825124E6378257921124423403A
:105F30001178217925124E23AA21AB22AC23AD245E
:105F40008022752900752A00752B00752C0178298F
:105F50007925124E2378297921124DEAAA29AB2AF4
:105F6000AC2BAD2C7F0C0251AA9086D17821124E19
:105F7000C28A828B837821124E767F040251AA74E2
:105F8000F51250FE8C828D837821124EC28A828B4C
:105F9000837821124E4F125FD7C3E09CF0A3E09D9F
:105FA000125FC940229086DD7821124EC28A828B10
:105FB000837821124E108A828B83A3A3A3A3E024AB
:105FC00020F0A3E0344EF080A0F088828983C3E003
:105FD0009420A3E0944E22EA2404F8E43BF98C8256
:105FE0008D83A3A3A3A3E0FCA3E0FD888289832281
:105FF00074F51250FE90059EE0FAA3E0FBE929F843
:10600000E433F9745228F582748539F583E02AF572
:1060100021A3E03BF52278211252A59086AD124EC5
:10602000E0125E5474021250388A218B228C238D28
:106030002474107821124DB2AA21AB227F040251A0
:10604000AA74F11250FE8A258B268C278D28741194
:1060500012506E1252BC741112506EE02401F521E0
:10606000A3E03400F522E4F523F524782579211204
:106070004C2D90871D7821124EC278257921124C23
:106080002DAA25AB26AC27AD28125E5474021250FF
:1060900038EA4B60047A0180027A00EC2AFCE43D85
:1060A000FD741312506EE0F8A3E0F9E8FEE9FFEC8E
:1060B000F8EDF97A717B02124F9788218922E4F575
:1060C00023F5248E828F837821124ED1ECF8EDF9DE
:1060D0007A717B02124F978A218B227405782112E4
:1060E000500F8E828F83A3A3A3A3E521F0A3E52203
:1060F000F07F080251AAC082C083E9906000F0D00E
:1061000083D08222C0E074F21251EA74FF1250224E
:10611000A2AFE433FEC2AF906231E024A0600E244F
:10612000B8607024B0700302623A02622990084994
:10613000E07005126FE5804D906230E0C2E21262BD
:1061400069900846E4F0A37404F0906230E0A2E3A2
:106150004022A3E064A0601C900846E0F8A3E0F9A8
:10616000E824FFFAE934FFFB900846EAF0A3EBF0DD
:10617000E84970D6906232E0854182854283F09092
:106180006230126266900849E0F912625A12509029
:1061900002623A90084AE0605F90083DE0F990089A
:1061A0004AE0F87401687007906230E0C2E2F0E9FA
:1061B000FA74482AF582E43408F583E090623212DA
:1061C0006251906230E0A2E34006A3E064A070F266
:1061D000906231E064B8600AE064C86005E064C0C1
:1061E000700A0918E86005E064C070B7E990083DDE
:1061F000F0E890084AF08027790012625A12509015
:10620000E97021906230E0C2E2F0906232E4126202
:1062100051906230E0A2E34006A3E064A070F290E7
:1062200062308013539AFD8011906230E0D2E41204
:106230006269E0A2E440FB126266EEA2E092AF1255
:1062400062C5758B00C2E874011250387F0102529A
:1062500049F0906230E0C2E3F02290083AE0F8A3FF
:10626000E0F583888222E0D2E2F0E0C2E3F022C0CF
:10627000E0C0D0E8C0E0A8A8D2AFC2C7E8A2E792C9
:10628000AFD0E0F8D0D0D0E032C2AF02000022128E
:1062900043A971CF031243A9A7D0031243A952D334
:1062A000031243A9C5D3031243A9DAD3031243A9A6
:1062B000DDD3031243A93CD4031243A9C2D4031271
:1062C00043A94AD5031243A94AD6031243A94FCE84
:1062D000021243A92CCF021243A954D1021243A99E
:1062E000F7D1021243A978D2021243A922D4021292
:1062F00043A941D5021243A999D5021243A992D6C6
:10630000021243A94DD7021243A926D8021243A96B
:106310008AD8021243A93DDC021243A9008001126F
:1063200043A91C80011243A9F381011243A9E08211
:10633000011243A93D83011243A98183011243A99C
:10634000B183011243A9FD84011243A97985011289
:1063500043A9EF85011243A96886011243A97B87EF
:10636000011243A9FF87011243A9248A011243A9FC
:10637000EE92011243A93993011243A960930112CD
:1063800043A9B793011243A9E493011243A91BB98E
:10639000011243A90BBB011243A94FBB011243A930
:1063A000CDBB011243A91BBF011243A996C4011220
:1063B00043A9D3C4011243A9ADCC011243A999CD7D
:1063C000011243A9EFCD011243A914CF011243A931
:1063D0006BD0011243A9BDD0011243A963D10112B0
:1063E00043A9629F041243A9759F041243A9A49F65
:1063F000041243A9DC9F041243A925A0041243A957
:1064000068A0041243A9AEA0041243A9E1A004129B
:1064100043A908A1041243A937A1041243A96EA1FC
:10642000041243A987A1041243A9D6A1041243A9C7
:10643000EFA1041243A937A2041243A96BA20412CC
:1064400043A96BBF031243A969C0031243A9CFC07C
:10645000031243A9F2C0031243A9F4C0031243A9D3
:1064600032C1031243A9A3C1031243A963C2031299
:1064700043A985C2031243A921C3031243A958C3E8
:10648000031243A99DC3031243A9AAC3031243A93C
:106490001AC4031243A964C4031243A967C40312B4
:1064A00043A9ADC4031243A9B0C4031243A9BAC49B
:1064B000031243A92DC5031243A955C5031243A9CD
:1064C00088C5031243A9ACC5031243A9A9C6031288
:1064D00043A94DC7031243A9B9C7031243A9F5C77E
:1064E000031243A9AD93041243A9D593041243A9FF
:1064F0000294041243A93A94041243A9A0940412EA
:1065000043A9EA94041243A94E95041243A996950F
:10651000041243A9D395041243A90196041243A976
:106520009696041243A9A096041243A9AD960412AC
:1065300043A9E096041243A9EC96041243A90497D8
:10654000041243A90E97041243A90981051243A915
:106550002181051243A93881051243A97C720012DA
:1065600043A91F73001243A95A74001243A903756B
:10657000001243A98B76001243A97377001243A936
:106580006A78001243A9A078001243A94279001248
:1065900043A96879001243A9347B001243A97A7B8E
:1065A000001243A99C7B001243A9087C001243A956
:1065B000D37C001243A98D7D001243A9997F00125C
:1065C00043A92BF9021243A907FA021243A9B1FA0F
:1065D000021243A9F2FA021243A979FB021243A95B
:1065E000F4FB021243A9C7FC021243A9F0FC0212F9
:1065F00043A9E4FD021243A921FE021243A909FFA7
:10660000021243A93AFF021243A960FF021243A9F2
:106610008FFE011243A9BAFE011243A9CAFF01125B
:1066200043A9879B041243A99D9B041243A9BB9BCA
:10663000041243A9CB9C041243A9D59C041243A97C
:10664000FF9D041243A9EC9E041243A9589F041213
:1066500043A938DD031243A965DE031243A99CDE7A
:10666000031243A9F3DE031243A9EBE0031243A98B
:1066700013AC021243A99AAC021243A9EEAD021266
:1066800043A975AE021243A981AE021243A9F9AE25
:10669000021243A9E1AF021243A9DDB0021243A9DD
:1066A000A9B1021243A903B3021243A919B30212FA
:1066B00043A93AB3021243A9CCB3021243A942B48C
:1066C000021243A968B4021243A915B7021243A9E2
:1066D0001AB7021243A93EB9021243A985B90212A0
:1066E00043A9EBB9021243A931BA021243A901BB73
:1066F000021243A9B6BB021243A912BC021243A95B
:1067000015BC021243A961BC021243A99DBC02122E
:1067100043A9DCBC021243A9FEBC021243A932BD4C
:10672000021243A9A0BD021243A940ED031243A9DE
:106730004EED031243A99EED031243A9BDED0312D2
:1067400043A907EE031243A94AEF031243A9E2EF5C
:10675000031243A926F0031243A950F0031243A9E0
:10676000BBF0031243A9FFF0031243A982F1031205
:1067700043A931F2031243A9A1D2011243A93BD389
:10678000011243A997D3011243A955D4011243A979
:10679000DDD4011243A900D6011243A930D601125B
:1067A00043A95FD6011243A915D8011243A968DA9B
:1067B000011243A9C7DC011243A9B0DD011243A9AC
:1067C000A0DE011243A973E0011243A96BE3011299
:1067D00043A988E4011243A982E6011243A991E783
:1067E000011243A920E9011243A90CEA011243A9AD
:1067F0005BEA011243A9CBEA011243A9E7EA0112BD
:1068000043A938EB011243A9D8EF011243A9EEF0D6
:10681000011243A9A6F1011243A99F8B041243A9B7
:10682000A98B041243A9F18B041243A9058C04120D
:1068300043A9968C041243A9CD8C041243A9088D58
:10684000041243A9318D041243A9858D041243A972
:106850009A8D041243A9BC8D041243A9D18D041250
:1068600043A90B8E041243A9378E041243A9808ECC
:10687000041243A9F68E041243A9398F041243A9C6
:10688000638F041243A98E8F041243A9C4BE04125D
:1068900043A912A2031243A9EBA2031243A95AA3CC
:1068A000031243A995A3031243A9D0A4031243A939
:1068B00082A5031243A92FA8031243A9DAA8031241
:1068C00043A9BBA9031243A931AB031243A999AB56
:1068D000031243A949FB031243A9B4FC031243A9C1
:1068E000F2FE031243A938B0041243A9E5B0041222
:1068F00043A9DEB1041243A91BB2041243A91EB678
:10690000041243A97DB6041243A91AB7041243A97D
:106910004DB7041243A97BB7041243A9B6B70412BA
:1069200043A9D6B7041243A943F2031243A9CCF2F8
:10693000031243A98BF3031243A999F4031243A949
:10694000B9F6031243A9BD8B031243A9D28B0312DC
:1069500043A99D8C031243A96A8D031243A9D78DC5
:10696000031243A9128E031243A9B38E031243A943
:10697000BC8F031243A99490031243A917910312E9
:1069800043A9A091031243A90992031243A9939228
:10699000031243A9E092031243A94E93031243A9A1
:1069A000F093031243A99E94031243A9BE940312C9
:1069B00043A90295031243A94A95031243A9669578
:1069C000031243A98595031243A9FF95031243A916
:1069D0000D96031243A9A096031243A90A97031226
:1069E00043A96D87041243A9E987041243A92788A4
:1069F000041243A90B89041243A97A89041243A9FA
:106A0000BE89041243A9018A041243A92E8A0412E2
:106A100043A94C8A041243A9848A041243A9C18A57
:106A2000041243A9E28A041243A9588B041243A911
:106A30005ABE021243A9EEBF021243A92CC202128F
:106A400043A974C2021243A99FC2021243A995C36B
:106A5000021243A9C5C3021243A91CC4021243A9CE
:106A600049C4021243A992C4021243A9CEC402121D
:106A700043A913C5021243A960C5021243A9C8C5A0
:106A8000021243A9FAC7021243A9C1C9021243A9BB
:106A9000FCC9021243A97ACB021243A9BECB02124F
:106AA00043A931CC021243A992CC021243A91ACDB8
:106AB000021243A939CE021243A94ACE021243A9B7
:106AC0003EAC031243A9AFAC031243A978B2031240
:106AD00043A972B3031243A934B5031243A9B2B553
:106AE000031243A90080021243A98780021243A91E
:106AF000B480021243A9F680021243A9F281021265
:106B000043A93782021243A9B383021243A93B84EB
:106B1000021243A9AE84021243A96B85021243A953
:106B20002786021243A9A786021243A9758702127B
:106B300043A99B87021243A90D88021243A9B18879
:106B4000021243A9D688021243A94289021243A91C
:106B5000A889021243A9DE89021243A9828A02127D
:106B600043A91B8B021243A99E8B021243A90A8CD4
:106B7000021243A9568C021243A9BC8C021243A9EB
:106B8000ED8C021243A9A18D021243A9B78E021205
:106B900043A9008F021243A91D8F021243A9FD943D
:106BA000021243A94595021243A93296021243A943
:106BB0005796021243A96C96021243A9D496021268
:106BC00043A91497021243A92798021243A9D49803
:106BD000021243A9DBB5031243A926B6031243A947
:106BE00032B6031243A9FDB6031243A913B7031229
:106BF00043A94FB7031243A988B7031243A9C0B7EB
:106C0000031243A916B8031243A92CB8031243A9CF
:106C100068B8031243A97BB8031243A9A2B80312B0
:106C200043A9D6B8031243A9AAB9031243A939BB91
:106C3000031243A935BC031243A93EBD031243A965
:106C4000FB7F001243A9D8DC021243A913DD021214
:106C500043A917E0021243A969E1021243A92EE2F7
:106C6000021243A928E5021243A912E6021243A91F
:106C70005DE6021243A977E6021243A9B4E60212C6
:106C800043A9BFE6021243A9FEE6021243A907E7A1
:106C9000021243A9C8E7021243A985E8021243A9D8
:106CA000E8E8021243A94CE9021243A9CDE9021215
:106CB00043A90699021243A9629C021243A9689C47
:106CC000021243A9A9A3021243A981A8021243A94F
:106CD000D3A2041243A99DA3041243A9E1A3041261
:106CE00043A91BA4041243A9ADA4041243A91CA5E3
:106CF000041243A925A5041243A931A5041243A9EE
:106D000045A5041243A969A5041243A999A5041233
:106D100043A99EA8041243A9ABA8041243A9C5A87D
:106D2000041243A9F8A8041243A935A9041243A9DF
:106D30009BA9041243A9B0A9041243A9BBA9041238
:106D400043A9C8A9041243A9DFA9041243A9EDA9C4
:106D5000041243A9F8A9041243A904AA041243A9DE
:106D600013AA041243A91EAA041243A93EAA04129C
:106D700043A94EAA041243A964AA041243A982AAF1
:106D8000041243A98DAA041243A9A2AA041243A97A
:106D9000B6AA041243A917AB041243A91DAB0412EF
:106DA00043A923AB041243A929AB041243A93BAB6B
:106DB000041243A914F2011243A9A2F2011243A939
:106DC0007EF3011243A9B2F3011243A9C5F30112E4
:106DD00043A93FF4011243A9C7F5011243A9EEF5F7
:106DE000011243A975F6011243A9B4F6011243A991
:106DF000C5F6011243A93AF7011243A959F7011246
:106E000043A971F7011243A9B5F8011243A9BFFACA
:106E1000011243A9F1FC011243A9F7FD011243A994
:106E20003AFE011243A92C80031243A936800312B3
:106E300043A95880031243A96480031243A9B18176
:106E4000031243A9DE81031243A9FF82031243A95F
:106E50004183031243A98784031243A9E8840312E0
:106E600043A91D85031243A95685031243A901892D
:106E7000031243A91889031243A99689031243A94F
:106E8000A489031243A9ED89031243A9FB890312C4
:106E900043A97C8A031243A9EB8A031243A9378BC7
:106EA000031243A92D97031243A94F97031243A935
:106EB0002B99031243A9A39C031243A9ED9D03122E
:106EC00043A9CF9E031243A9E4B7041243A909B80A
:106ED000041243A97AB8041243A91BC8031243A998
:106EE00024C8031243A92DC8031243A951C9031290
:106EF00043A942CB031243A970CB031243A99BCBF6
:106F0000031243A9C9CB031243A9F4CB031243A92B
:106F100032CC031243A95ECC031243A99BCC0312CB
:106F200043A9C6CC031243A912CD031243A969CDCC
:106F3000031243A9A9CD031243A9F8CD031243A913
:106F400023CE031243A969CE031243A997CE03129D
:106F500043A9C2CE031243A9E5CE031243A9D8BF69
:106F6000041243A9E2BF041243A9F2BF041243A9C9
:106F700031B4041243A958B4041243A983B40412CF
:106F800043A9E482051243A9ECF6031243A93CF796
:106F9000031243A976F8031243A9E5F8031243A9A3
:106FA00089F9031243A9A8F9031243A9F6F90312B8
:106FB00043A938FA031243A9EB83051243A9298296
:106FC000051243A93982051243A94282051243A939
:106FD0008682051243A90080051243A98380051209
:106FE00043A9E980051243A937BB041243A9DABBC0
:106FF000041243A923BC041243A97483051243A9B4
:107000008683051243A91AE8031243A9F2E8031282
:1070100043A918E9031243A930E9031243A93AE945
:10702000031243A986E9031243A989E9031243A97C
:10703000B1E9031243A92AEA031243A94EEA031253
:1070400043A9B5EA031243A908EB031243A94AEB8B
:10705000031243A973EB031243A992EB031243A952
:10706000AFEB031243A9CCEB031243A9D4EB0312F9
:1070700043A9F1EB031243A91CEC031243A93DEC15
:10708000031243A971EC031243A985EC031243A92F
:107090000FED031243A9D8E2031243A9E2E203125F
:1070A00043A922E3031243A96BE3031243A9A3E319
:1070B000031243A9F9E3031243A916E4031243A9F7
:1070C0001FE4031243A964E4031243A98DE40312ED
:1070D00043A9A2E4031243A912E5031243A99FE5C1
:1070E000031243A9F3E5031243A916E6031243A9C9
:1070F00095E6031243A9D0E6031243A905E703125C
:1071000043A917E7031243A933E7031243A93CE756
:10711000031243A9EEE7031243A9A67F001243A975
:1071200095B9041243A9E6B9041243A96FBA04122F
:1071300043A9D9BA041243A96EAB041243A996AB72
:10714000041243A98BAC041243A9B0AC041243A9A6
:107150003FAD041243A977BC041243A96DBD0412CC
:1071600043A987BD041243A998BD041243A935B2AF
:10717000041243A96BB2041243A99EB2041243A99C
:10718000F7B3041243A997FF031243A9A1FF031207
:1071900043A9B7D6031243A9F2D6031243A923D7B2
:1071A000031243A99DD7031243A98AD8031243A906
:1071B00083D9031243A904DB031243A9B8DB0312EA
:1071C00043A921DC031243A9B68F041243A9CC8F33
:1071D000041243A97090041243A9AF90041243A96A
:1071E000CC90041243A9FD90041243A94A910412C1
:1071F00043A97D91041243A9B891041243A917EB46
:10720000021243A9A1EE021243A930F0021243A9CF
:1072100080F0021243A997F0021243A9B6F00212BD
:1072200043A913F1021243A9A3F2021243A976F370
:10723000021243A9ADF7021243A995F8021243A91D
:10724000AF83051243A9C8A5041243A9A6BD041221
:1072500043A9C881051243A929AE041243A92E836C
:10726000051243A9D0FF021243A99C97041243A917
:10727000CD8305FFFFFFFFFFFFFFFFFF74F21250FA
:10728000928922EAFEEBFF8C2375211274FE6E7048
:107290000374FF6F7018900371127B2E606A127373
:1072A0000D60657AFE7BFFA922125090805274FF18
:1072B0006E700374FF6F7035900371127B2E601334
:1072C00012730D600E7AFF7BFFA922125090E9F530
:1072D00021600CAA23A922126589E9F5217029E50C
:1072E0002290037DF0E52390037EF0801B12791835
:1072F0006016E06522700EA923EEFAEFFB126823F8
:10730000E9F5218003752103A92102772AE0F5839D
:107310008882E0F8A3E08882F583E58245832274C1
:10732000EE125092EAFEEBFFEA2402F527E43FF565
:1073300028EA2404F525E43FF526EA2406F523E4AB
:107340003FF524EA2408F521E43FF522852182F562
:10735000831252BC8523828524831252BC852582E8
:1073600085268312768585278285288312774912A0
:1073700068E37404125038E97005790202743579B3
:10738000018E828F83127749126A03E9700579149E
:107390000274358E828F831277697057901B3AE0A2
:1073A000F47003A3E0F4600579110274358E828FC6
:1073B0008312772F12783A85278285288312785B8B
:1073C00090037512783A85258285268312785B9022
:1073D000037712783A85238285248312785B9003A1
:1073E0007912783A85218285228312785B90037B1B
:1073F00012783AE4F529F52A78291252A57829124B
:1074000052A58521828522831252BC852382852440
:10741000831252BC8525828526831252BC85278221
:107420008528831276858E828F831277491268F5BC
:10743000740A1250380274FEFAE43522FB12709975
:10744000740222E0F583888222127F78241BF58261
:10745000E438F58312774DEA4B2274EE1250921203
:107460007C00AE21AF22EA4F70030274FEEA2420B2
:10747000F521E43FF522741212506E124F1085214F
:1074800082852283124F1C7A267B001264E7EAF57C
:107490002370078E828F83E0F523852182852283E6
:1074A0007825124EC28E828F83A3A3A3A3E0F52476
:1074B0007A0E127BF460478A828B8374D0F0A3E447
:1074C00012784A7409127852E524127D831252A56B
:1074D000EE2405FCE43FFDEA24041274381250380F
:1074E000852182852283A3A3A3A3A3A3A3A3A3A3EC
:1074F0007825124ED1AA21AB22A9231270C97F0A86
:1075000002516474EA1250928A258B26EA4B70036A
:107510000276808A828B83A3A3A3A3A3A3E0700532
:10752000752408800375240490036D127B2E60057A
:107530001274438003901AEBE0F523900386127BCC
:107540002E600F127443A3A3127312600579001208
:107550005090E5252407F527E43526F528E5252470
:1075600008F521E43526F522AA21FB852782852806
:1075700083E0F9126511E9FB852782852883F0E510
:10758000252403FEE43526FFE5252404F52DE43506
:1075900026F52EE525240EF529E43526F52AE525E0
:1075A0002414F582E43526F583E0F52B752C00785C
:1075B0002B1252A5E5252412F582E43526F5831217
:1075C00052BCE5252410F582E43526F5831252BC21
:1075D000852982852A831252BCE524F52578251257
:1075E00052A9852D82852E831252BCAC21AD22AAD0
:1075F000238E828F83E0F9126577740B1250388ED8
:10760000828F83E070417525177526007825125208
:10761000A5852982852A831252BC78241252A97822
:10762000211252A5852782852883E0FD7C01852DC6
:1076300082852E83127749A9231269EB74071250B1
:1076400038E98E828F83F090036D127B2E600312D7
:10765000659B90037DE0602812775A60238E828FAD
:1076600083E0FB74316B6013852D82852E83127647
:107670008590037DE0FAEBF912657D90037DE4F0DF
:107680007F0E025164E0FCA3E0FD2274F2125092DE
:10769000EAFEEBFF752300EA2403F8E43F8821F5B6
:1076A000228882F5831277538A828B83E582458311
:1076B000600FE0F5238521828522831277491269C4
:1076C000F190037DE0600E6523700A12775A602AFC
:1076D00090037DE4F0E52360218E828F83A3A3A332
:1076E000A3A3E0FB852182852283127685AA238EBF
:1076F000828F83A3A3E0F912657D90036F127B2E26
:107700006003126595852182852283127769701A3C
:1077100085218285228312772FE0687003A3E069B8
:107720007008901B3A74FFF0A3F07F0602516412B8
:10773000785F901B3A22F8E43FF98882F583E523CD
:10774000F0A3E524F08882898312774D22E0FAA322
:10775000E0FB2212774D1269F72290037EE0FA9047
:10776000037DE0F9126589E92212774D126A09E971
:1077700064042274F012509289228A258B218C2372
:107780008D247A14127908700302782F12784074CD
:1077900005127852E521F0EA2404FAE43FFBE523E0
:1077A0004524601775270675280078271252A5AC66
:1077B00023AD2412743D12503880097C067D007977
:1077C000001270B1741012506E12785B8E828F832B
:1077D000A3A3A3A3A3A3A3A3A3A312783A741212EF
:1077E000506EE0C0E0127D6BD0E0F0741312506E6A
:1077F000127865240D127834741512506E12786563
:10780000240F127834741712506E127865241112F6
:107810007834741912506EE0C0E0EE2413F582E45F
:107820003FF583D0E0F0EEFAEFFBA9251270C97F97
:1078300008025164F582E43FF583E8F0A3E9F02201
:107840008A828B8374D0F0A3E522F08A828B83A393
:10785000A322F08A828B83A3A3A32212785F22E063
:10786000F8A3E0F92212785FEE2274F212509289A6
:10787000228A21ECFEEDFF8B237A067B001270BD7D
:10788000EA4B60191278407406127852EEF0A3EFBA
:10789000127852A3A3E523F0A9211270C902772A16
:1078A00074F012509289258A218B228C238D247AA0
:1078B0000C127908604FAA21AB221279187003903C
:1078C0001AEBE0F98E828F8374D0F0A3E525127B4A
:1078D000007407127B00A3A3E521F0A3E522F08E3C
:1078E000828F83127924741012506E127932127BB7
:1078F0000E741212506E127932A3A3127B0EEEFA9E
:10790000EFFB1270C902782F7B001270BD8A278BA3
:1079100028AE27AF28EA4F221269F78A828B83E5C7
:1079200082458322A3A3A3A3A3A3E523F0A3E52475
:10793000F02212774D8E828F83A3A3A3A3A3A3A3C8
:10794000A32274F6125092EAFE1269FD8A828B839A
:10795000E5824583600BEEF9A31277491268238014
:107960000279127F0202516474EC125092892A8AC1
:10797000238B248C29127C957003027AE990036F83
:10798000127B2E7003027AE97A0E7B00127B721250
:107990007B2C60027A29127B236008EA2414FAE423
:1079A0003400FB741412506EE0F525A3E0F526E5D3
:1079B0002545266007EA241BFAE43BFB127F93125D
:1079C0007B286007EA2416FAE43BFB127D757003FE
:1079D000027AE97C0E127C868A21EA4B700985279F
:1079E00082852883E0F5218E828F8374D0F0A3E511
:1079F0002A127B00740AF08E828F831279278E827E
:107A00008F83A3A3A3A3A3E529F0EE240EFAE43FFA
:107A1000FB8A23F52490036FE02419F8A3E03400D7
:107A2000F9E8FCE9FD8882127B2C60198E828F8335
:107A3000A3A3A3A3A3A3127B0E127AEE1252A51244
:107A40007B1412503890036FE0241DFCA3E0340037
:107A5000FD8C82127B2C6020EE2408127736EA24FB
:107A600014F523E43BF524752714752800782712B4
:107A700052A5127B14125038E52545266016EE24D7
:107A80000A127736127AEE1252A5AC25AD26127480
:107A90003D12503890036FE0241BF8A3E03400F946
:107AA000E8FAE9FB8882127B2C6032EE240CF8E4C1
:107AB0003F8825F5268882F58312792A7523167565
:107AC000240078231252A58A828B8312768585251D
:107AD0008285268312774912743D125038EEFAEFF0
:107AE000FBA9211270C91265957F0C025164EA242A
:107AF0001BF523E43BF52475271B75280078272206
:107B0000F08E828F83A3A322F582E438F583EAF016
:107B1000A3EBF0228C828D83E0FCA3E0FD12709930
:107B2000740222127F78241DF582E438F5831278DE
:107B30005FE84922C082C08390036F127B2E602BC6
:107B4000127B72127452600312717D1274496003C9
:107B500012717D127F8D12744E600312717D90033D
:107B60006F127B9590036FE4F0A3F0D083D0820274
:107B700043A6E82419F582E43922C082C083900329
:107B80006D127B2E600D90036D127B9590036DE45A
:107B9000F0A3F080D612774D12717D2274F012504E
:107BA0009289258A238B24127C00EA4B60437A2633
:107BB0007B001264E78A278B28AE27AF28EA4F7034
:107BC00008852182852283E0FE7A05127BF46021FC
:107BD0007C057D0079001270B1127CAA740EF085CC
:107BE0002182852283127927AA21AB22EEF9127015
:107BF000C902782F7B001270BD8A218B22EA4B22AA
:107C00001269F78A218B222274EE1250928925EA9A
:107C1000FEEBFF8C238D24127C9560677A0B127B20
:107C2000F460607C0B127C868A298B2AA829A92AF9
:107C3000EA497008852782852883E0F8127CAA74B7
:107C40000F127CA5EEF0A3EF127C9FE523127C9F20
:107C5000A3E524F0741212506E127CC4F074131257
:107C6000506E127CC4A3F0741412506EE5212409E6
:107C7000FCE43522FD7402124F35AA21AB22E8F94B
:107C80001270C90274FE7D0079001270B17A267BF1
:107C9000001264E7221269F78A278B28EA4B221226
:107CA0007CA5A3A322127CBAA322852182852283EC
:107CB00074D0F0A3E525127CBA22F08521828522BA
:107CC00083A3A322E0852182852283A3A3A3A3A368
:107CD000A3A32274EE1250928A238B24892712695F
:107CE000F78A258B26EA4B607F7A0D7B00127D7523
:107CF00060767A267B001264E78A21EA4B70098558
:107D00002582852683E0F5218E828F8374D0F0A3AF
:107D1000E4127B00740B127D831252A5E525240525
:107D2000FCE43526FDEE2403FAE43F12743C1250C5
:107D3000388E828F83A3A3A3127924EE240BF582BD
:107D4000E43FF583E527A2E0500474018001E4F0EC
:107D5000127D6BE527A2E1500474018001E4F0EE8E
:107D6000FAEFFBA9211270C90274FEEE240CF58211
:107D7000E43FF583221270BD8A218B22AE21AF220F
:107D8000EA4F22F0752906752A0078292274E81234
:107D9000509289298A28ECFEEDFF8B27ECFAEDFB47
:107DA000127C00741812506EE0F525A3E0F52674DD
:107DB0001A12506EE0F52DA3E0F52E741C12506ED1
:107DC000E0F52FA3E0F530741E12506EE0F523A30A
:107DD000E0F524EA4B7003027EADE5296003027EE4
:107DE000ADEA2403F582E43522F583E0D2E4F0E540
:107DF00027A2E2E05004D2E18002C2E1F0E525458D
:107E0000267012E52D452E700CE52F45307006E5E5
:107E10002345246063E0D2E2F0E5234524602D127F
:107E20007F81124F10E5212420F582E43522F5836D
:107E3000124F1C752B10752C00782B1252A5AC23F9
:107E4000AD24E5212410127438125038E521242481
:107E5000F52150020522E52545266021E528701D03
:107E6000852182852283127454600312717D7C1BEC
:107E70007D00AA25AB268027E0C2E2802FE52D45B4
:107E80002E602A7401652870248521828522831240
:107E90007454600312717D7C1B7D00AA2DAB2E12E1
:107EA00070A5852182852283EAF0A3EBF090036F11
:107EB000127B2E7003027F73E52545266036127B08
:107EC00072127B2C700F7A1B7B00127177127F78F5
:107ED0002419127B08127F78241912744E601575CC
:107EE000211B75220078211252A5AC25AD261274F3
:107EF0003D125038E52F4530602F127F93127B28BA
:107F0000700D7A167B00127177127F93127B081224
:107F10007449601575211675220078211252A5AC9E
:107F20002FAD3012743D125038E5234524602F12D6
:107F30007B23700D7A147B00127177127F8D127B78
:107F400008127F8D12744E60157521147522007809
:107F5000211252A5AC23AD2412743D125038782D55
:107F60001252A5AC27EEFAEFFBA92912658F740215
:107F70001250387F1002516490036FE0F8A3E0C8FC
:107F800022E5232410F582E43524F58322127F783C
:107F9000241D22127F78241B22C082C08390037389
:107FA000127B0E027B6BC082C0837A147B0012713D
:107FB00077900874EAF0A3EBF07C147D007900124E
:107FC00070B17900126A2D7901126FBB79021271BA
:107FD000357903126925790412662579051267330C
:107FE0007906126EC57907127219790812677579C8
:107FF0000912628FD083D0820243A60243A6FFFFFC
:10800000C082C083854582854683E06420700A85EE
:108010004683A385824585834602837A74F4125091
:1080200092A845A946AC45AD468019A3AA82AB8368
:108030008A828B83E0FE74206E60F074096E60EBC0
:10804000EAFCEBFDECFAEDFB8A82F583E075F00DBE
:1080500084AEF0EE2EFEE433FF74C02EF582741A67
:108060003FF58312CF008004ECFAEDFB8A828B830C
:10807000E0FE74276E600574226E70351281DE8A10
:10808000828B83A3AA82AB838A828B83E0FCA3AA20
:1080900082AB831281DFEE6C60A6740A6C70E9E833
:1080A00024FFF8E934FFF9EA24FFFAEB34FFFB8000
:1080B0008F740A6E701B88828983740AF002935B46
:1080C0008523218524228A828B83A3AA82AB83E025
:1080D000FE852182852283A38582238583248521B1
:1080E00082852283E06E60D8E0FEC394804035C371
:1080F000E54598E5469950081281D7700318A98381
:108100001281DE852182852283E064806003028003
:1081100030852382852483E088828983F0A308A99F
:1081200083028030AA21AB228A828B83A38582219D
:108130008583228A828B83E0FAC3948040E6748030
:108140006A700D852182852283A385822185832201
:10815000852182852283E060030280688C828D8382
:108160001281EA50161281DE8C828D83A3AC82AD1F
:10817000831281EA400302804480EA88828983A3D3
:10818000AA82AB8374096E600574206E7033C3E5F8
:108190004598E5469950101281D7600B88828983F3
:1081A0007420F0EAF8EBF98C828D83A3AC82AD8366
:1081B000E0FE74206E60F074096E600302804480FB
:1081C000E6EE88828983F0EAF8EBF98C828D83A34E
:1081D000AC82AD8302804412D052E0642022EE884B
:1081E000828983F0A3A882A98322E0FE74BF2EC3F4
:1081F000941A2274E812509274FF125022E9FE8AF7
:10820000258B268C278D28752901752A00752B0052
:10821000752C007F0A90872D78251243FD401C792C
:108220002D1270157FF680139086C97821124EC2E8
:1082300078297921124C2D74FF2E1EEFF52D3395E0
:10824000E0F52EF52FF5308525218526228527237B
:108250008528247821792D124D46782979211243D9
:10826000D350C5EE854182854283F014FEE0C3946D
:1082700001A2D265D0334007792012701580E4EF57
:10828000C312B61A504B7829124D87804485252D8C
:1082900085262E85272F852830852921852A228528
:1082A0002B23852C24782D7921124D46E52D243061
:1082B000F9127015782D7929124C2D7825792D1207
:1082C0004E239086C97821124EC278297921124D09
:1082D00046E529452A452B452C70B2740102CB8D09
:1082E000C082C0831263199002E8E4F0A312B704BD
:1082F000802A12CC3EE875F00AA4F8ABF075F00ABB
:10830000E9A42BF9E82AF8E439F9E824D0F8E934AB
:10831000FFF99002E8E8F0A3E912B6F9E0FA74D0A8
:108320002AC3940A50159002E8C3E09499A3E094FC
:10833000199002E840BC74FFF0A3F0803DC082C0F9
:10834000837A007B00854582854683E0F974226943
:108350006005742769701F854683A38582458583E0
:108360004680050AEA70010B12CBA3E0F8E96860C9
:1083700009740A6870ED7AFF7BFFD083D0820243D4
:10838000A674F7125092EAFEEBFF800C1270158E65
:10839000828F83A3AE82AF838E828F83E0F970ECED
:1083A000790A127015800574021250387F0102514B
:1083B0006474F012509289248A2275232012CC947E
:1083C000F525A3E0F5269002E4E024031284F5AA43
:1083D00025AB26E4FCFDA924126325800579201233
:1083E000701585222574FF2525F5220470EF800B7A
:1083F000EE24FE12CBD4F52185212312CC94F52155
:108400009002E4E02401081284F6740A65217003E6
:108410000284EDE521C394805007A92112701580D4
:10842000D77CC07D1A802474806B7004A827A9288B
:1084300088828983A3A882A983E8FEE9FF888289CC
:1084400083E0701CEC2402FC50010D8C828D8312A1
:10845000C490EE4F60A2EEF8EFF980E1A827A928BA
:1084600088828983A385822785832888828983E0FF
:10847000C3948040E7E0FBE5216B70AB748065211D
:10848000701D852782852883E0F5269002E412B7C7
:108490008DE0652670919002E4E024011284F57469
:1084A000206523600979208002A9211270158E822F
:1084B0008F83E0F521A3AE82AF83E521C394804092
:1084C000E812CC94F874286870030283F0742C6866
:1084D00070030283F0EE24FF12CBD464CD7003024C
:1084E00083F079201270157521200283F8790A1221
:1084F000701502BAB7F812BE5812B7EF2274F01214
:108500005092E9FEEAFF752100752200752300757F
:108510002400802274D02AFAEAC39F504B8F25E4AE
:10852000F526F527F52878217925124C2D8A25780E
:10853000217925124DEAEEF974FF29FE04602F859A
:10854000458285468312B74F74D02AC3940A40C42B
:1085500074BF2AC39406500474C980BA749F2AC396
:108560009406500474A980AE75490212B646AA2139
:10857000AB22AC23AD2402BAB774F4125092892115
:10858000EAFCEBFD74BF29F9E521F523752400749D
:1085900002782312500F12B5BA24FCFAEB34FEFB1A
:1085A000E9131313541FFE18E62EFE08E436FFEEFF
:1085B0002468F582E43FF583E0C0E0740759F8D001
:1085C000E0B800028004C313D8FCA2E0400D8C8206
:1085D0008D8374DCF0A3741AF080118A828B83126D
:1085E000B74712B6ADE8240CFAE439FB02935B748A
:1085F000EC125092EAFEEBFF12B72E5051A3858287
:1086000045858346EEFAEFFB12B5B28E828F831258
:1086100092E7704B854523854624790112B5A870F1
:108620002790872D78251243FD501D8E828F83124F
:1086300092CAF529A3E034FFF52AE4F52BF52C784E
:108640002979251243D3400C8523458524467A0099
:108650007B00800FE5212AF521E5223526F522AAA7
:1086600021AB227F0C02516474F2125092E9FE8A0F
:10867000218B228A258B26EA240CF8E43526F9C3BF
:10868000E498FAE499FB784CE62AFA08E63BFBC347
:10869000EA954EEB954F50067549040287768A4C51
:1086A0008B4DAC4CAD4D8A828B837403F0E5252451
:1086B0000CA312B6AE8A828B83A3A3A37402F0EA42
:1086C0002404F8E43DF9EE8882898312B655A3A309
:1086D000A3A3A3A3A3E4F0A312B667E024BFFF12F1
:1086E000B5F5F8E43BF9E8FAEFF5257526007402D4
:1086F000782512500F784AE62525F52508E6352617
:10870000F52674075FF87401B800028004C333D8FB
:10871000FCFF8A828983E05F8C828D83A3A3A3A35D
:10872000A3F08A828983E04FF08525828526831213
:108730004F108C828D83A3A3A3A3A3A3124F1C85E8
:108740002582852683ECF0A3EDF0784CE6240CFA24
:1087500008E436FB740E12506E12BE77EC4D600DBD
:1087600078211252A512CB9D1250388009AC21AD50
:108770002279001270B17F0602516474F712509290
:1087800074FE125022E54345446071754300754400
:108790000079001270757C6C7D007900AA4AAB4BA1
:1087A0001270B17C1C7D0079007A2F7B031270B1AE
:1087B0007E00EEF91270270EEEC3940440F47A00A6
:1087C0007B00127033854A4C854B4DAE47AF4880D5
:1087D0001C8E828F83E064057010AC41AD42A3A370
:1087E000A312B88712CC7712678712D155C3EE95C2
:1087F0004EEF954F40DB85474E85484F0283A77467
:10880000F0125092E9FEEA24FCFCEB34FFFD74C345
:108810006E701A8C828D837821124EC27821124D8F
:10882000878C828D837821124ED1028A21ECFAED59
:10883000FBEC24FCFCED34FFFDE91252E9B111150B
:108840008A658879888D88A988D28807891C8931AA
:1088500089468955896B89818981899789AD89552F
:1088600089D689F1898A828B837821124EC28C82C3
:108870008D837821124E1080B18A828B83782112E9
:108880004EC28C828D837821124E4F809D8C828DBA
:10889000837821124EC28A828B837825124EC27849
:1088A000217925124C2D028A0A8A828B837825121F
:1088B0004EC2E5254526452745287003028A1A8CB5
:1088C000828D837821124EC278217925124D46027D
:1088D0008A0A8A828B837825124EC2E52545264571
:1088E0002745287003028A1A8C828D837821124EC4
:1088F000C278217925124D46852521852622852796
:1089000023852824028A0A8A828B837821124EC208
:108910008C828D837821124E76028A218A828B8303
:108920007821124EC28C828D837821124E9C028A4D
:10893000218A828B837821124EC28C828D8378218A
:10894000124EAF028A218A828B837821124EC28C0A
:10895000828D83804F8A828B837821124EC28C82D3
:108960008D8378211243BE605C80568C828D837823
:1089700021124EC28A828B8378211243E8504680AE
:10898000408A828B837821124EC28C828D8378211B
:108990001243BE7030802A8C828D837821124EC2A1
:1089A0008A828B8378211243E8401A80148A828B52
:1089B000837821124EC28C828D8378211243E85035
:1089C00004D2F08002C2F0A2F0E433F521E4F522F3
:1089D000F523F52480348C828D837821124EC28A4F
:1089E000828B837825124EC2E5257821124DCB80EB
:1089F000198C828D837821124EC28A828B837825CE
:108A0000124EC2E5257821124D988C828D837821F3
:108A1000124ED1800C75490280037549037A007BA0
:108A20000002BAB774EA12509274C712502274044A
:108A300012506EE9F0752601E5496003028CD57489
:108A40001912507888218922AE21AF227409125060
:108A500078882D892E740212506EEEF0A3EFF07418
:108A60000212506EE0F52174027821125000740752
:108A700012506E12B6947409125078740512506E2A
:108A800012B6AD803A743912506EE5826E7003E50D
:108A9000836F7003028B95854582854683E025E0D0
:108AA000F8E433F9742A28F58274833912CC3C1225
:108AB000D284852345852446AE27AF2875260085B8
:108AC0004582854683E0F525A385824585834678E2
:108AD00045E62401F52308E436F52412B63BE52DDE
:108AE0002402F521E4352EF522EE2404F527E43F97
:108AF000F528E5251253C6049698588DB3C2C69141
:108B0000CACC588DCED0588D0D0ABB8B20BF8A2879
:108B1000248D29148E2C9F8D80858A82588DB1C614
:108B200091B2BD91C8588DC9208CCDF68BF1588D6E
:108B3000328B74D02525C3940A5039743912506E83
:108B4000E5826E7003E5836F604B8A458B468E210C
:108B50008F22AE27AF287A0A79FF126343EAF8EB37
:108B6000F9ECFAEDFB852182852283124F1C7549B1
:108B700000028ABC74BF2525C3941A503E1292D8B5
:108B80007019741912506EC3E5219582E522958300
:108B90005003028D6C754904028CD5743912506EE5
:108BA000E5826E7003E5836F60EB8A828B83124FE0
:108BB000108E828F83124F1C028AB88A458B4674AE
:108BC0000512506EC3E0952DA3E0952E400302924E
:108BD0005FE52D24FEF52DE52E34FFF52EEEFAEFA0
:108BE000FB852D82852E83E012928812506E1292A0
:108BF000B340CC028CCE743912506EE5826E700395
:108C0000E5836F60908E218F22AE27AF287A10798E
:108C1000FF126343852182852283124EEC028B6E04
:108C2000854582854683E064286003028CCE8523D7
:108C300045852446854582854683E0F9749F6970A1
:108C400003028CCE18E62402FA08E436FB74A46909
:108C5000705CA3E0F974A769600574A869706F8AF5
:108C6000828B83E064297066854582854683A3A351
:108C7000A3858245858346743912506EE5826E70F5
:108C800003E5836F7003028B958E218F22AE27AF91
:108C90002874A76970047A5280027A57790012709A
:108CA00081E985218285228312B6B2028ABC7422B0
:108CB00069702F8A828B83E06422702685458285C5
:108CC0004683A3E024BFC3941A5003028ABCE5493B
:108CD00070037549027A007B007C007D00743902C4
:108CE000D04474BF29C3941A50E4854582854683D5
:108CF000A3E0642970D8743912506EE5826E700357
:108D0000E5836F7003028B958A458B46AA41AB427F
:108D10001292DE70B91292BAF8A3E034FFF912D2BF
:108D200084028AB8741912506EE582652D7004E5CC
:108D300083652E7003028B95740712506EE0F98ED6
:108D4000238F2474027823125000E523C399852DC4
:108D500082852E83A3F08014741912506EE582650B
:108D60002D7004E583652E7003028B95852D828519
:108D70002E83E525F085212D85222E752601028A78
:108D8000BFE52D24FEF52DE52E1292A8F86428608B
:108D90002D12928312506E1292B34003028CCE7445
:108DA00009125078E52D687003E52E6970D37404BC
:108DB00012506EE064026003028CCE028BBFE52D80
:108DC0002402F52D5002052E028ABC90034B12CFCF
:108DD0000074067821125000F523F524908721783D
:108DE00025124EC278217925124C2D9087157825B1
:108DF000124EC278217925124D468E828F837821BA
:108E0000124ED1028EEC12928312506E1292B34027
:108E100003028CCEE52D24FEFAE52E34FFFB8A2DCD
:108E2000F52E8A82F583E0F8642870DAA3E0FC74FA
:108E30000712506EE0F98E218F22740278211250B1
:108E400000E521C399C39CFC7409125078EA68704C
:108E500002EB69700D740412506EE064017003023D
:108E60008BBF740512506EC3E0952DA3E0952E4084
:108E700003028ABFEA24FEF52DEB1292A8F525EC39
:108E80007071EE2404F529E43FF52AE525247E607F
:108E90003B24B7600D147003028DCB24FC601702D5
:108EA0008CCE8E218F22AE29AF2A12704585218269
:108EB0008522830290808E218F22AE29AF2A7900ED
:108EC00012927A8521828522830290D8794C784E3D
:108ED000E7C396FA0809E796FBEAF8EB3395E0FA60
:108EE0008E828F83E812B675EAF0A3F0AE29AF2A1E
:108EF000028D7B74016C600302913A12929B124EB8
:108F0000C2E525246A700302906A1470030290700F
:108F100014700302907624D0601924FE603B24FC78
:108F2000604D24FE70030290C224DF70030290861D
:108F30000290DE90872D78211243FD4005782112A2
:108F40004D8785212585222685232785242812D033
:108F5000B27825124ED1028D7B1270B78A258B26EE
:108F6000E4F527F52878257921124D460291B49031
:108F700086E578211244435003028CCEE52175F03A
:108F800007A4F521A8F075F007E522A428F52274BE
:108F90002F2521F52974033522F52A852982F583A9
:108FA000A3E07003028CCEE5292402F52BE4352AD8
:108FB000F52C852982852A8312B857124DCB9086CD
:108FC000CD7825124DFD852B82852C8312B8D212C7
:108FD0004E89AA25AB26AC27AD281262F58A218BD3
:108FE00022A821A922EA496072852982852A83A3C1
:108FF000A3A3A3E0FA88828B83A3A3E06A705785BA
:109000002982852A8312B7D9F5223395E0F523F515
:109010002474107821124DCB9086CD7821124DFD0D
:10902000852B82852C8312BE94852982852A83A371
:10903000A312CC74124F978A258B26E4F527F528C6
:1090400078217925124E89AA21AB22AC23AD2412B6
:1090500062F5EA4B600575210080037521017522D8
:10906000007523007524000291B4AA217900800ABA
:10907000AA2179018004AA21790212639712D0B241
:10908000124EEC028D7B852226E526548060030279
:109090008CCE852125AA25E526540FFBC3940440D8
:1090A0000D9086C578211243FD4003028CCEEE243C
:1090B000FCFCEF34FFFD127201E96003028CCE026A
:1090C0008D7BE521452245234524600479018002FA
:1090D000790012927A12D0B212B674EC804F74BF3B
:1090E0002525C3941A504C1292D86003028CCE905E
:1090F000872D78211243FD4003028CCE1292C4F5D5
:1091000025A3E034FFF526E4F527F5287825792115
:109110001243D34003028CCEEA2521F582EB35229F
:10912000F583E0FA12D0B2EAF0A3E4F0A3F0A3F0E2
:10913000028D7B8A2D8B2E028D7B74026C60030264
:109140008CCEEE24F812929E124EC2782112446206
:109150009086B97825124EC2782179251246881258
:10916000D0B27829124EC278291244629086B9781A
:1091700025124EC278297925124688EE24FCFEEF8E
:1091800034FFFF78291252A1AA21AB22AC23AD24CF
:1091900012726774041250388A218B228C238D241A
:1091A0009086B57825124EC27821792512468878A6
:1091B000211244DA12929B124ED1028D7BE526A237
:1091C000E050037525C3A825743728F582E434845C
:1091D000F583E0F5217409125078E52D687003E5F8
:1091E0002E696051E52D24FEF8E52E34FFF98882C2
:1091F000F583E0FC744F2CFAC39413503874E82ABA
:10920000F582E43484F583E0FAE521C39A402688A8
:109210002D892EEEFAEFFBECF91263618A238B2481
:10922000A823A924EAFEEBFF740212506E1292B337
:1092300040A3028CCE741912506EE582652D700425
:10924000E583652E7003028B95852D82852E83E53F
:1092500025F0E52D2402F52D5002052E028D7B749C
:109260001D12506EE5826E7003E5836F6003028C01
:10927000CE12D0B2124EE0028CDD12708DEB33951F
:10928000E0FC22EEFAEFFBE8F91263618A218B22FF
:10929000A821A922EAFEEBFF740222EE24FCF5824B
:1092A000EF34FFF58378212234FFF52E852D82F5EA
:1092B00083E022C3E098A3E099228541828542831E
:1092C0001292D0228541828542831292CE22E0F80A
:1092D00012CC63A3E024F422AA41AB42A925126375
:1092E0004985418285428312B7BBE064022274F64D
:1092F0001250927A007B0C1271779002E612BE43F4
:109300007C007D0C79001270B19002E612B8AC249A
:1093100094F582E8340BF58385824A85834B854A30
:109320004CF54D9002E612CC771262D18A478B48F9
:109330008A4E8B4F7F0202516474F41250927AA3CA
:109340007B831263377A207B8512633712B5E37A09
:10935000317B8712633780031250387F04025164D7
:1093600074F612509212702112636D1293D290868D
:10937000A5124EE01262F5EA4B60379002E6C3E0B8
:109380009547A3E09548502A9002E612CC97F8A39F
:1093900012CDEB1252BC75210078211252A9908691
:1093A00099124EE0790312702D740312503879012E
:1093B00080027900029334C082C083800C79007AE5
:1093C000007B001263851293D212700FE970EE02D7
:1093D000837AAC4CAD4D784EE62402FA08E436FBB5
:1093E0001270092274E812509274E7125022740A23
:1093F00012506EE9F0EAFEEBFFE0A2E150091270B4
:10940000459002EA124EEC754900EE4F604890021A
:10941000E8EEF0A3EFF0740A12506EE0A2E0501EE6
:10942000784CE624FD12B628500302A1C68A4C8B64
:109430004D8A828B837404F0A314F0A3E4F012B875
:109440008C8A828B8312B81BEA9547EB95485003B0
:109450000295A102978E9002F4E4F0A3F0854E826B
:10946000854F83A3A385824585834612631F7E00B3
:10947000740212506EEEF004FEE0FA7845E62AF52A
:109480008208E436F583E0640A70E5EEF8C3E498F8
:10949000F52195E0F522EEF523752400782312528C
:1094A000A5AC45AD46784C12BABC12701B740212C2
:1094B0005038784CE62521FA08E635228A45F546EB
:1094C00012632B1263199002E812CF0E701F8547AA
:1094D00043854844854E82854F83A3A38582458575
:1094E0008346E0640A60030295A102958E9002E82B
:1094F000E0F47003A3E0F4700302978712635B78D3
:1095000045E624FDFA08E634FFFB8A45F546A84502
:10951000AA4CEAC398FE9002E812CC3E8545828BA5
:109520008312B6ADEE8545828B83A3A3F085458279
:109530008B83A3A3A3E0640A700F9002E812CC7798
:109540001262FB8A478B48803F90029FE0D2E2F094
:10955000AA4512B5327026AC4CAD4D9002E612CC45
:1095600077EEF912630DAA45AB4612B532700E9034
:10957000029FE0C2E2F07902741902CB8D90029F43
:10958000E0C2E2F08847894885474E85484F1293EC
:10959000D2790180E3E9600302A05085824585838A
:1095A00046A845A94688828983A385824585834646
:1095B00088828983E0F5217845E6240212B636AE2A
:1095C00047AF48A843A944E5211252E980282296D2
:1095D0008797AA96C39642975D977697E597E59702
:1095E00087A013983898A4A1E496E4969198D8A2FD
:1095F0001B99E49644999099B699089A369A369AA6
:10960000369A869A969AF79A6C9BD09B339C87974A
:10961000AFAEE79C169D3F9D4F9D849DC89EEF9EDB
:10962000299F8A458B46E521C39480400302978792
:10963000AA41AB4212634F8A218B2285458285461F
:1096400083E064BD6003029787EA4B701812CF086D
:10965000700302978785418285428312B7FA6402BC
:109660006003029787754900854582854683A385F7
:109670008245858346EA4B700302A1FD12B58C1228
:10968000506E124EECE54960030297871292E1603A
:109690000302A1EA740612506E7825124EC285218B
:1096A00082852283E525F002A2687E0112632B8564
:1096B0004582854683E0640A600302978712B88C6E
:1096C00002A29612B5E3794C784EE7C396FA0809E0
:1096D000E796FB3395E0FCFD79001263257ABF7BAA
:1096E00084126337854382854483A3A3858243859F
:1096F000834412B81B12B529400302978E740A12D4
:10970000506EE0A2E140030295A11270458A258BBC
:10971000268C278D28901AE812B7C89002EA78257F
:10972000124E37782179251243D350030295A18533
:10973000438285448312CC97FAA3E0FB1270330274
:10974000958E854582854683E0640A703A12635B94
:109750001263018A478B488A4E8B4F803112635BBC
:109760009002E612BADDC3E5439547E544954850BB
:10977000030298858018854582854683E024BFC30F
:10978000941A500302A19BE5497003754901E5490C
:1097900025E0F8E433F9740E28F582748539F583F1
:1097A00012CC7712633712B5285025E549700302B1
:1097B000958E12B7E2793E127015793E12701579C6
:1097C000201270157A01790012633D790A12701522
:1097D00074046549600302958E7AEA7B85126337CB
:1097E0007E0002A04012B58C12506E124EECE5497C
:1097F0007095854582854683E0640A708E740612F2
:10980000506E124F10E8494A4B60030296E479000B
:1098100002A05012B6E8600302978785458285460C
:1098200083E0640A600302978B1262D78A438B44F9
:10983000C3EA9547EB02976D12B6E860030297877B
:10984000854582854683E0640A600302978B784CE5
:10985000E624FB12B628500302A1C68A4C8B4D8A1F
:10986000828B837401F0A37405F0A3E412B655E56E
:1098700043F0A3E544F012B88CC3EA9547EB954852
:10988000400302978E85438285448312B7B70295C1
:109890009B854582854683E0F874BF28FEC3941AF1
:1098A0004003029787740F12506E12B6F812CBAFB6
:1098B00064BD6003029787A385824585834612B500
:1098C0007C6003029787A845A94688828983A3857F
:1098D000824585834688828983E064D3600302974A
:1098E0008B12B5A66003029787A845A9468882898E
:1098F00083A385824585834688828983E064D4601A
:109900000302A0C979001263678A298B2A8C2B8DE8
:109910002CE549600302978702A0D87E0085458226
:10992000854683E064557011A3E06450700B8C820F
:109930008D83E0640A70027E0112635BEEF912709F
:109940005102978785458285468312B725400302D9
:109950009787740212506E12B6F8790112B59660AC
:1099600003029787EA4B4C4D700302978BE4F52571
:10997000F52678251252A5740412506EE0F9126390
:10998000557402125038E54960030297870296E445
:109990007F0012B555FEE549600302978712CBAFF1
:1099A00064D5600302A360A3858245858346EEF9F2
:1099B0001270270296E412B58C12506E124EECE52E
:1099C00049600302978790872D7821124EC2740652
:1099D00012506E78211243E8500302A3BF854382E0
:1099E000854483A3A312CC591252BC75210078215F
:1099F0001252A9740912506E124EE0790312702DA2
:109A0000740312503802958E12B594600302978742
:109A1000EA4B4C4D700302A3D9741412506E7407B4
:109A2000F0741512506E740112B6B2741212508096
:109A30001263A90296E48A458B461263917405125B
:109A4000506EE9F0E54960030297878545828546B7
:109A500083E064BD600302978BA3858245858346BE
:109A600012B58C12506E124EECE5496003029787D6
:109A7000740612506E124F10E8494A4B700302A14F
:109A8000CC780302A1CEC3E89EE99F500302A4E173
:109A900075490702978E9003197401F0900317120D
:109AA000CF0E700A90031774F8F0A37402F0854586
:109AB00082854683E0F523752117752203246F7094
:109AC0000302A8B924A5700302A69714601024FE0F
:109AD000700302A6A714700302A76E02A91B12B896
