:020000040000FA
:10400000C960FFFF0100009442424242FFFFFFFFF0
:10401000FFFFFFFFFFFFFFFFFFFFFFFFFFFFFFFFB0
:10402000000102030405060708090A0BFFFFFFFF52
:1040300002438E025D06FFFFFFFFFFFFFFFFFFFF52
:10404000FFFFFFFFFFFFFFFFFFFFFFFFFFFFFFFF80
:10405000FFFFFFFFFFFFFFFFFFFFFF02626FFFFF9A
:10406000FFFFFF026104FFFFFFFFFFFFFFFFFFFFF6
:10407000FFFFFFFFFFFFFFFFFFFFFFFFFFFFFFFF50
:10408000FFFFFF025D7CFFFFFFFFFFFFFFFFFFFF62
:10409000FFFFFFFFFFFFFFFFFFFFFF0254DCFFFFFB
:1040A000FFFFFFFFFFFFFFFFFFFFFF025551FFFF75
:1040B000FFFFFF025B630256870100003A87025A46
:1040C0008701000069871082850300008602025E76
:1040D000870300008102025C870100003486025AD7
:1040E0008701000068871072850200000000025EF0
:1040F000870300008302025C87010000048600C081
:10410000010000000F81DD8177810784A4809D82FA
:1041100000801C86688335843F863E82E8820000EA
:10412000030000010000000000000000140030FF48
:104130000000B4000028002800283075A000A0006E
:10414000A000A00000080008E001F000100010002E
:10415000100010001000100050005000500010001F
:104160001000D0070000000000000F000100050053
:10417000307507001000010081FF00000000FFFF04
:10418000FFD765F565DD651366FF02020208025080
:1041900000A0000000E803025687010000378702F4
:1041A0005A870100004E1B0260870100008C030249
:1041B0005A870100004F1B026287010000A2030220
:1041C0005A87010000501B026487010000A403020B
:1041D0005A87010000511B024887080000A503020E
:1041E0005A87010000521B024487010000531BFF45
:1041F0000100FF200256870100003487025A870120
:104200000000B71B024C870000000000025E87031D
:104210000000D30317003D6C3D6C3D6C3D6C3D6C64
:104220003D6C3D6C3D6C3D6C3D6C3D6C3D6C3D6C46
:10423000AD6EBF6EA76E020256870100003D870279
:104240005A870100006A87024287010000090802BC
:104250005A8701000067870250870100001086021C
:104260005A870100006687024A8701000092840293
:104270005A870100006C87024087010000318502E7
:104280005A87010000FA1B024E870100006E86FF6C
:10429000FF0001307503020106000000000000006D
:1042A000000000000000000000000000000000000E
:1042B0000000000000FFFF0600800CE8030100B0D2
:1042C000423BAAB83F0000003F8C906339AA0CA380
:1042D0003A00941E3C8042633DCFFE753E1572311C
:1042E0003F0000803FF304353F8096184B0000806C
:1042F000BF2292D43EDD9B2A3F04000040FFFF7F97
:104300007FFFFF7FFF010080341872313FE5C75403
:10431000F84404F5C779012200000080FB12430D28
:10432000B90003024378E479437815B800028004A9
:10433000F709D8FCE479587802B800028004F7093C
:10434000D8FCE490028078FB79188002F0A3D8FCB6
:10435000D9FA7A7A7B1A9040B6785879038015E4B6
:1043600093A3AD82AE838A828B83F0A3AA82AB83B0
:104370008D828E83D8E9D9E77582C87583817405EB
:104380001243A075821875834374001243A075D040
:104390000075815F754180754202759F0002431D63
:1043A000C09FF59FE473D09F22D083D082C09FE44A
:1043B00093C0E0740193C0E0740293F59F22E0661D
:1043C000701008A3E066700A08A3E066700408A3F2
:1043D000E06622C3E7960809E7960809E796080908
:1043E000E796A2D265D03322C3E09608A3E09608F0
:1043F000A3E09608A3E096A2D265D03322C021C3E1
:10440000E096F52108A3E096422108A3E096422118
:1044100008A3E0964221A2D265D033E5217001D3F2
:10442000D02122C3E7960809E7960809E79608090C
:10443000E79622C3E09608A3E09608A3E09608A3B7
:10444000E09622C021C3E096F52108A3E096422120
:1044500008A3E096422108A3E09645217001D3D03D
:104460002122080808E630E711124D8412447A0828
:104470000808C64480C618181822181818E9799E2A
:10448000C608CAC608CBC608CCC6C370207996CA6F
:10449000CBCC7019798ECBCC70137986CC700EF999
:1044A000802ACA33CACB33CBCC33CC331930E7F2B2
:1044B000CCCBCA3350147004EA30E00DE4CA3ACAD7
:1044C000CB3BCBCC3CCC500209C3E913C6CC182360
:1044D00013C6CB18C6CA18C6F92212451A20F01402
:1044E00030E72B74FFFCFBFA747F8022E4FCFBFABC
:1044F0007480801AB48008BC00F2BB00EF800F50BB
:10450000EBF9E4C39AFAE49BFBE49CFCE499C6CC87
:1045100018C6CB18C6CA18C6F922E4C9C608CAC646
:1045200008CBC6D3330308CCC63392F0C3947F4084
:104530002E94184019C9B90704CACBCC225025C300
:1045400009CA33CACB33CBCC33CC33D9F422F46091
:104550000DC9CCC313CB13CBCA13CAD9F6CC22E4F2
:10456000FCFBFA2214FCFBFA22E626184618461831
:104570004622E72719471947194722181818E6084D
:1045800046087009E626087005E633F42208221969
:104590001919E70947097009E727097005E733F496
:1045A000220922E6084608C3134608336002E633B0
:1045B000F422E7094709C3134709336002E733F4DC
:1045C000221245A360251245B2602012456970038E
:1045D000024572080808E76670101819E766700A45
:1045E0001819E76670041819E76622F4221245A329
:1045F000601C1245B260171245697007124572704F
:1046000001D322C0D01245727006D0D0B322C3228B
:1046100033D0D0501430E0F6C3E7960809E7960887
:1046200009E7960809E796B32220E0D5E69708093E
:10463000E6970809E6970809E697B3221245A360B2
:104640001B1245B260161245697007124572600C64
:10465000B322C0D01245727005D0D022C32233D00D
:10466000D0501330E0EBC3E7960809E7960809E756
:10467000960809E7962220E0E4E6970809E69708FD
:1046800009E6970809E69722001245A3604F1245F4
:10469000B26012E7548066F612457B7011124572C3
:1046A000703B090909F4F618F618F618F6221245B7
:1046B0008F701512456908080860EAE6447FF6180D
:1046C000768018E4F618F6221245696016124572D3
:1046D0007012E4F608F608F608E65480F6090909AF
:1046E00018181822EAC0E0EBC0E0ECC0E0EDC0E032
:1046F000E687F0A4FBACF008E687F0A42CFCE435D8
:10470000F0FA1809E687F0A42C4B60027401CA3550
:10471000F0FCE433FB09E687F0D2F7A42CCB35F0AC
:10472000FC1908E687F0A42BCC35F0FBE433FD0838
:1047300019E687F0D2E7A42C4ACB35F0CD3400FC43
:1047400009E687F0D2E7A42DCC35F0FDE433FA0971
:1047500018E687F0D2F7A42CCD35F0CA3400FC0857
:10476000E687F0D2E7D2F7A42ACC35F07A7E20E7AC
:104770000B0ACB33CBCD33CDCC33CC33CB3350142E
:104780007004ED30E00ED2F1E4CD3DCDCC3CCC3B1D
:104790005005DA05C2F1EB547FC63308E63392F0D8
:1047A000FBE73309E733C39A502D2B70190C0D4CDE
:1047B0004D70151806E608C333700D20F10AA2F0FB
:1047C00013F6E418800B4024E4F630F002768018EB
:1047D000F618F618F68024D33B14501074FFA2F09C
:1047E00013F6187680E418F618F6800FA2F013F688
:1047F00018E63303F618ECF618EDF6D0E0FDD0E03D
:10480000FCD0E0FBD0E0FA221245B260461245A38C
:10481000603DE9687008F618F618F618F6227480FC
:1048200067F712483C090909748067F7221245A30B
:10483000601D1245B27005191919801A12457B7056
:104840001F12458FC37003E6673319191940071803
:1048500018182208080874FFF618F618F618F62239
:1048600012458F6017124572702192F012456970DF
:1048700019501720F014080808090909E7F6181953
:10488000E7F61819E7F61819E7F62212456960E607
:10489000E869701F0808E62480F608E436F6185424
:1048A0007FB47F0CE654806007F6E418F618F62211
:1048B000181822E9C6CC08C6CD08C6CE08C6CFC097
:1048C000E0E8C0E0EAC0E0EBC0E009E9F809E7FA97
:1048D00009E7FBE6F918E6F8C3EC98ED99EE9AEBD8
:1048E000C2E7F5F0EFC2E795F0500E600CEBCFFB9E
:1048F000EACEFAE9CDF9E8CCF8EAA2E7D2E7FAEB9A
:1049000033FB13F5F0EEA2E7D2E7FEEF33FFC5F07D
:1049100013A2E730E601B313C5F0C3C0E0C0F07FD7
:1049200000C39BFB605E9418600F401D14601AD09A
:10493000E023F9D0E0F8024A0E8AF0E9486003D299
:10494000F0E4AFF0FAF9F8803BEB30E40D89F0EADF
:104950006003D2F0E4AFF0F9CAF8EB30E30D88F071
:10496000EF6002D2F0AFF0E4CAC9F8EB540760146C
:10497000FBC3EA13FAE913F9E813F8EF135002D274
:10498000E0FFDBEDD0E0C0E030E739C3E49FFFF5A6
:10499000F0EC98FC42F0ED99FD42F0EE9AFE42F008
:1049A000D0E0F9D0E0F8E5F0607AE923F9EE20E70D
:1049B00042D8028067C3EF33FFEC33FCED33FDEEEA
:1049C00033FE80EAEC28FCED39FDEE3AFED0E02320
:1049D000F9D0E0F84002801BC3EE13FEED13FDECAE
:1049E00013FCEF135002D2E0FF08B800067F7F747B
:1049F000FF802EEF3350178CF020F00260100CBCBB
:104A0000000C0DBD00080EBE000408E860DFE933AD
:104A1000E813FFEE2313FE4F4D4C8008E95480FF4E
:104A2000E4FEFDFCEE33EF33F47004FCFD7E80D039
:104A3000E0FBD0E0FAD0E0F8D0E0CFC618CEC61840
:104A4000CDC618CCC6F9221245A370041818182236
:104A50001245B2700D74FFF61819F61819F61819E8
:104A6000F622E7548066F6124569700F124572709F
:104A7000F014F608F608F608F680D1124572700CAC
:104A8000F608F608768008E6447F80EC12459270BE
:104A90000C12457E60BFE65480F6E480BB12457E72
:104AA000700519191980A5E869700C763F18768091
:104AB00018F618F6E8F922E6CDC0E018ECC0E0E6FA
:104AC00033CD33CDD313F6E719FCE7191933CC33C3
:104AD000C3947F400ECD9D502408E65480F6E41820
:104AE000F6800FF4043D14501408E6447FF618765F
:104AF00080E418F618F6D0E0FCD0E0FD22CCD31309
:104B0000CCFD18E4C6CBC0E018E4C6CAC0E0080873
:104B1000ED08C633E613F618E433C675F003C3CACE
:104B200097CA09CB97CB199C40047D08802EBD0005
:104B300003024BF016B6FF050606081618C3CA3363
:104B4000CACB33CB33CA27CA09CB37CB193CC37D79
:104B500008803E187D0820E75CC633C6CA33CACB3E
:104B600033CB33DDF1D5F0EB30E77BCA97CA09CB05
:104B7000974ACB199C406F4B7025E620E021806658
:104B8000187D08C3CA97CA09CB97CB199CD3C633E3
:104B9000C6CA33CACB33CB3350C9DDE7D5F0E1D336
:104BA000E4C636C608C636C608C636C608C636C601
:104BB0001818188031C3CA97CA09CB97CB199CB370
:104BC0004097C633C6CA33CACB33CB33DD34D5F0B6
:104BD0002EC6A2E0C640C8CA27CA09CB37194A70F8
:104BE000BECB3CB480B90808E63308E633601F1832
:104BF0001818D0E0FAD0E0FBD0E0FCD0E0FD22189D
:104C00007D08CA27CA09CB37CB193CD3808013F65D
:104C100018E4B67F11F618B6FF0EF618C60470D267
:104C20000808768080CAF618F618F680C5080808C5
:104C3000EAC0E0EBC0E086F0E7A4FA180986F0E7E6
:104C4000A42AFA180986F0E7A42AFA180986F0E7D8
:104C5000A42AFA1986F0E7A4FBE5F02AFA190886D7
:104C6000F0E7A42BFBE5F03AFA190886F0E7A42B4D
:104C7000FBE5F03AFA18180986F0E7A4C5F02BFB1B
:104C8000E43AFA1908E7C5F0C6A426F6E5F03BFBBE
:104C9000E43AFA1886F0E7A4F6E5F00826F6E43BD5
:104CA00008F6E43A08F6D0E0FBD0E0FA22E4CFC000
:104CB000E0E4CEC0E0E4CDC0E0E4CCC0E075F0209C
:104CC000E626F608E633F608E633F608E633F61885
:104CD0001818EC33FCED33FDEE33FEEF33FFC3EC7D
:104CE0009709ED9709EE9709EF97191919400FFFEA
:104CF000EC97FC09ED97FD09EE97FE191906D5F022
:104D0000BFECF709EDF709EEF709EFF7191919D01C
:104D1000E0FCD0E0FDD0E0FED0E0FF22124D87188D
:104D20001818124CAD124D7319191922124D73191E
:104D30001919080808E618181820E7E0124CAD12F7
:104D40004D8718181822090909E719191920E7DCF5
:104D5000080808E618181820E703024CAD124D8722
:104D6000181818124CAD124D87181818124D7319D7
:104D7000191922E4C397F709E497F709E497F709AB
:104D8000E497F722181818E4C396F608E496F60894
:104D9000E496F608E496F6226017080808C6A2E72B
:104DA00013C618C613C618C613C618C613C6D5E050
:104DB000E9226016080808C6C313C618C613C61829
:104DC000C613C618C613C6D5E0EA2270090808083B
:104DD000226016181818C6C333C608C633C608C6DC
:104DE00033C608C633C6D5E0EA22E627F60809E648
:104DF00037F60809E637F60809E637F622E026F620
:104E000008A3E036F608A3E036F608A3E036F6225B
:104E1000E026F008A3E036F008A3E036F008A3E0AF
:104E200036F022C3E697F60809E697F60809E697F2
:104E3000F60809E697F622C3E0C696F608A3E0C690
:104E400096F608A3E0C696F608A3E0C696F622C337
:104E5000E096F008A3E096F008A3E096F008A3E03F
:104E600096F022E056F608A3E056F608A3E056F6C0
:104E700008A3E056F622E056F008A3E056F008A397
:104E8000E056F008A3E056F022E647F60809E647A8
:104E9000F60809E647F60809E647F622E046F00874
:104EA000A3E046F008A3E046F008A3E046F022E0C5
:104EB00066F008A3E066F008A3E066F008A3E066E9
:104EC000F022E0F608A3E0F608A3E0F608A3E0F677
:104ED00022E6F008A3E6F008A3E6F008A3E6F02235
:104EE000E0FAA3E0FBA3E0FCA3E0FD22EAF0A3EBE1
:104EF000F0A3ECF0A3EDF022E0FCA3E0FDA3E0FEC4
:104F0000A3E0FF22ECF0A3EDF0A3EEF0A3EFF0227C
:104F1000E0F8A3E0F9A3E0FAA3E0FB22E8F0A3E9BC
:104F2000F0A3EAF0A3EBF022CAC0E0E6F0A308DAAF
:104F3000FAD0E0FA22CAC0E0E0A3C582CCC582C59F
:104F400083CDC583F0A3C582CCC582C583CDC5837F
:104F5000DAE6D0E0CA22C3E498F8E499F9124F9750
:104F60008026C3E49AFAE49BFBE920E7E9124F9715
:104F7000E498F8E499F922C3E498F8E499F9124F17
:104F800097E498F8E499F9C3E49AFAE49BFB22EBDE
:104F900020E7CFE920E7E0B90010BB0008E88AF07D
:104FA00084F8AAF022E4FBC8FA22EB70227B10C836
:104FB00033C8C933C9335007C39AC3DBF280069A9A
:104FC00050012ADBEAC833F4C8C933F4C9FA2275A0
:104FD000F008E4C833C8C933C933C99AC99B50041F
:104FE000C92AC93BD5F0ECFBC833F4C8E4C9FA229E
:104FF000600D08C6A2E713C618C613C6D5E0F32293
:10500000600C08C6C313C618C613C6D5E0F42270D8
:105010000422600D18C6C333C608C633C6D5E0F4F3
:105020001822254110AF08F541400C15428008F5C3
:105030004140021542D2AF2200C0D0254110AF0836
:10504000F541500C05428008F54150020542D2AFAF
:10505000D0D0222541F58210AF08F541400C154211
:105060008008F54140021542D2AF85428322254196
:10507000F582E43542F583222541F8E43542F922F0
:105080002541FAE43542FB222541FCE43542FD226C
:10509000E4732541C582C0E0E54234FFC583C0E02A
:1050A000E541C3958224F810AF088583428582418B
:1050B0008008858342858241D2AFCEF0A3E520F0FF
:1050C000A37821E608F0A3DEFAEFF0A3E58124FA45
:1050D000F8E608F0A3E608F0A3E608F0A30808E65F
:1050E00008F0A3E608F0A315811581D0E0FED0E01A
:1050F000F8158115811581E8C0E0EEC0E022254158
:10510000C582C0E0E54234FFC583C0E0E541C395F8
:105110008224F910AF088583428582418008858307
:1051200042858241D2AFCEF0A3E520F0A37821E6FC
:1051300008F0A3DEFAEFF0A3E58124FBF8E608F01F
:10514000A3E608F0A30808E608F0A3E608F0A31514
:10515000811581D0E0FED0E0F815811581E8C0E02E
:10516000EEC0E022854283854182E0A3FEE0A3F504
:10517000207821E0A3F608DFFAE0A3FFE0A3C0E077
:10518000E0A3C0E0E0A3C0E0E0A3C0E0E0A3C0E093
:1051900010AF0885824185834280088582418583DE
:1051A00042D2AFD083D0820243A68542838541821A
:1051B000E0A3FEE0A3F5207821E0A3F608DFFAE003
:1051C000A3FFE0A3C0E0E0A3C0E0E0A3C0E0E0A351
:1051D000C0E010AF08858241858342800885824106
:1051E000858342D2AFD083D08222C0D02541C582F0
:1051F000C0E0E54234FFC583C0E0E541C3958224A9
:10520000F310AF08858342858241800885834285FB
:105210008241D2AFC8F0A3E9F0A3EAF0A3EBF0A378
:105220007921E709F0A3D8FAECF0A3EDF0A3EEF0B2
:10523000A3EFF0A3D0E0F0A3D0E0F0A3D0E0F0A380
:10524000E520F0A3E5F0F0A322854283854182E0CA
:10525000C0E0A3E0F9A3E0FAA3E0FBA37821E0F625
:1052600008A3DFFAE0FCA3E0FDA3E0FEA3E0FFA3B8
:10527000E0C0E0A3E0C0E0A3E0F5D0A3E0F520A308
:10528000E0A3F5F010AF0885834285824180088550
:105290008342858241D2AFD082D083D0E0F8D0E083
:1052A0003274048006740280027401C0E0F40412B7
:1052B0005053D0E0124F28227404800474028000FE
:1052C000CCC0E0EDC0E0E541C39CCCAD4250011D37
:1052D00010AF068C418D4280068C418D42D2AF12B8
:1052E0004F35D0E0FDD0E0FC22D083D082C5F0E481
:1052F00093A3C5F0C395F0F5F0E493A3C395F040F4
:1053000005E5F0048001E475F002A42582F582E54C
:10531000F03583F583E493A3C0E0E493C0E022D0AA
:1053200083D082E9C0E0E493A3C386F0C5F095F092
:10533000F908E493A386F0C5F095F0700BE493A30D
:10534000C3994005E9048002A3E475F002A4258214
:10535000F582E5F03583F583D0E0F9E493A3C0E06E
:10536000E493C0E022D083D082E9C0E0E493A3C3F9
:1053700086F0C5F095F0F908E493A386F0C5F095A2
:10538000F0702408E493A386F0C5F095F070190836
:10539000E493A386F0C5F095F0700E08E493A3C3E0
:1053A000994007E9048004A3A3A3E475F002A425AF
:1053B00082F582E5F03583F583D0E0F9E493A3C06C
:1053C000E0E493C0E022D083D082CCC0E0E493A399
:1053D00060061253F01470FAE493A3600612540F9F
:1053E0001470FAD0E0FCE493A3C0E0E493C0E022A0
:1053F000C0E0E493A3D39C5010E493A3C39C400A61
:10540000D0E0D0E0D0E00253E3A3A3A3D0E022C0D9
:10541000E0E493A36C7009D0E0D0E0D0E00253E365
:10542000A3A3D0E022D083D082ECC0E0EDC0E0E4C2
:1054300093A3FCE493A3FDED4C600D125471EC2496
:10544000FFFCED34FFFD80EFE493A3FCE493A3FDA8
:10545000ED4C600D1254B0EC24FFFCED34FFFD80E8
:10546000EFD0E0FDD0E0FCE493A3C0E0E493C0E023
:1054700022C0E0C3E49396087401939618400FE4A9
:105480009366700808740193661870007019A3A3DE
:10549000C3E49396087401939618A3A3400DD0E03B
:1054A000D0E0D0E0025461A3A3A3A3A3A3D0E02241
:1054B000C0E0C0F088F0E493667008087401936659
:1054C000187000A8F0A3A3700BD0F0D0E0D0E0D00B
:1054D000E0025461A3A3D0F0D0E022FFC0E074EF5B
:1054E0001251EAA2AFE433FFD2AFA889E5AB58F579
:1054F000216054F4F589C2C57E00EEF523752400C1
:105500007402782312500F1255BEE9FBEA4B70303B
:10551000E8131313541F5407F8E521B80002800460
:10552000C313D8FCA2E05018752300752402EE784E
:105530002312500FAA23AB24900280E0F91270F3DB
:105540000EEEC3940440B3EFA2E092AF7F04025288
:1055500049C0E074EF1251EAA2AFE433FFD2AFA822
:105560008AE58D58F5216054F4F58AC2EB7E00EE91
:10557000F5237524007402782312500F1255BE745F
:10558000406A497030E8131313541F5407F8E5219B
:10559000B800028004C313D8FCA2E05018752300A1
:1055A000752402EE782312500FAA23AB24900280B8
:1055B000E0F91270F30EEEC3940440B38089744B8B
:1055C0002523F58274083524F583E0F8A3E0F9E893
:1055D00054C0FA2274F61250FEEAFEEBFF8C218DC5
:1055E00022EA2434F8E43FF9E8FCE9FDEA24351224
:1055F000597BFAEE243712597BF88521F0A4C8852F
:10560000F0238522F0A42523F9EA28F8E439F97A71
:10561000257B00124F97EA8C828D83F0FA131313C7
:10562000541F12596F245DF582E439F583E0C0E020
:1056300074075AF8D0E0B800028004C313D8FCA263
:10564000E0EE50082434F582E43F801424361259E9
:105650007BF5F0EA84A8F01259702438F582E43919
:10566000F583E0F97F030251AA74F71250FEEAFEB7
:10567000EBFFEA243412597BC0E0EA2435F582E4DA
:105680003FF583D0E0F08A828B83A3A3A3A3A3A3D7
:10569000A3C082C0838A828B83A3A3A3A3A3E0F8C1
:1056A000A3E0F9D083D082E0C398F521A3E099F577
:1056B00022EA248012597B6401703EEA2481F5823B
:1056C000E43FF583C082C0838A828B83A3A3A3A314
:1056D000A3E0240108A3E03400F9D083D082E0687D
:1056E0007003A3E06970127C7B7D05126B7DEE2454
:1056F00080F582E43FF583E4F0AC21AD22EEFAEFD1
:10570000FB1255D4E9F91260F67F020251AAC08259
:10571000C083854182854283E0F8A3E0F9C3EA9C17
:10572000EB9D5010C3EC98ED99401BC3EA98EB99A0
:105730005014800EC3EA98EB994007C3EC98ED999A
:105740004004790180027900D083D08222EAC39C90
:10575000FAEB9DFB2274EF1250FE90043BE06408CC
:105760006005E06407702A9061C8E06024900469D5
:10577000E0F4601DE0F875F010A4C8AAF02AF974EE
:105780006B28FE740439FF8E82F583A3A3A3E07017
:105790000302586E906060E0C0E0EE2468F582E499
:1057A0003FF583D0E0F07525EC7526057521007571
:1057B0002200E5D914F523E5D95403F527602F74A9
:1057C000036527601DE5236008EE246712597B609E
:1057D0001D9005E7E06401602C125978601278048E
:1057E0008010125978602CE523C3940550258063FE
:1057F0007800E523C398FA95E0FB126A3F8A218B73
:1058000022EA4B7005126D99806412597870048AEF
:10581000258B26E5236012852582852683F524E5E0
:10582000D9F0A31524E52470F6125978604574FC6C
:105830002523F52378251252A5AC23A927EEFAEFEC
:10584000FB126C377402125038E97027AA21AB2280
:10585000127129793D8E828F83A3A3A3A3E0FA7BE3
:10586000001268B3EEFAEFFB126BA1126C497900DB
:1058700002596A740365276053E523F529752A00E8
:1058800078291252A5AC25AD26AA21AB22126BFBBA
:105890007402125038EE246812597B6480700474CC
:1058A0007F8001E0F52578251252A9E527F52578B6
:1058B000251252A9A923AC21AD22900469E0FA7BFC
:1058C0000012688974021250380259658525828554
:1058D0002683E0C3940E5011E0F874C028F582E4EA
:1058E0003485F583E065236069852582852683E01C
:1058F000C0E0EE24F7F582E43FF583D0E0F0A2AFFC
:10590000E433FCC2AF7A0080010AEE246E12597BA8
:10591000F8EAC3985013EA12596F246AF582E43901
:10592000F583E0640770E28022EE246EF8E43FF92C
:10593000E0FAEE2AFAE43FFBEA246AF582E43BF55A
:10594000837407F088828983E004F0ECA2E092AFD0
:10595000801390043BE06408600BAC25AD26EEFAA2
:10596000EFFB126CC1126DA579017F0A0251AAF8F2
:10597000EE28F8E43FF9E822EE2484F582E43FF5CE
:1059800083E02274F11250FE74FC125022EAFEEB06
:10599000FF8922752600A2AFE433F521C2AF90053E
:1059A00083E0FA9061D0E0F8748098F895E0F9C34C
:1059B000EA98E499A2D265D0334003025A6D752665
:1059C00001025A6DE0601B78231252A5AC27A9286A
:1059D000EEFAEFFB126C3174021250387404252772
:1059E000F52774012527F5D98528D9E52760128583
:1059F0002382852483F525E0F5D9A31525E52570B7
:105A0000F675E195EE2463F8E43FF97A007B00A295
:105A1000AFE433F523C2AF88828983E0FCA3E0FDC5
:105A2000EC4D603A88828983E0FAA3E0FB8C82F532
:105A300083E0FCA3E0FD88828983ECF0A3EDF08A8B
:105A4000828B83E4F0A3F088828983E0FCA3E0FDED
:105A5000EC4D700A88828983A3A3E4F0A3F0E523C8
:105A6000A2E092AF127129900582E004F0EE246367
:105A700012597BF8A3E0F9E8496063EE24631259F8
:105A80007B2402F8A3E034008882F583E5822402B7
:105A9000F523E43583F524E0F527A3E0F528EE248B
:105AA0006212597B640170369061D0E0F812597827
:105AB00060047C0480027C007480C398FA95E0FB4B
:105AC000E5272CF8E43400F9E82402F8500109C372
:105AD000EA98EB99A2D265D03340030259C4906191
:105AE000D0E0F87480C398900583F0E52660539069
:105AF0000582E0604D900584E0F8900582E0C3984F
:105B0000500C74026522703A900585E060348E82F4
:105B10008F83A3A3A3A3E0854182854283125B52B6
:105B2000740212506EE8125B52900581E028F07406
:105B300002125088AA41AB4279011268D7900582BF
:105B4000E4F0E521A2E092AF74041250387F08021D
:105B500051AAF0A3E4F0900582E0F82285508785F1
:105B600051C622C0E074EB1251EAA2AFE433F52132
:105B7000C2AF759B00906182E0A2E0502DE591A23A
:105B8000E050277591FE74016550701E125CDA12A8
:105B90005CF11252B8125EA57404125038E9640127
:105BA00070057901126D3F125755906182E0A2E5B0
:105BB000505AE591A2E550547591DF90043BE064A2
:105BC000076005E06408702C125CDA74016550709F
:105BD0003B125CF11252B8125EA57404125038E9FF
:105BE000640170057901126D3F7901EEFAEFFB1245
:105BF00059838018E0640D701390045DE004F06434
:105C0000287002E4F07A00E0F9126DAB906182E056
:105C1000A2E64003025CAFE591A2E64003025CAF5E
:105C20007591BF90043BE064057008126CEB126C38
:105C3000F78003126CF1755000126D4BE990043C33
:105C4000F07900126D3F126AF37A017B0090043AFA
:105C5000E0F91270F3907803E0644270529005EB23
:105C6000E014F0704AC2AF125C6A007859D0E0F6D6
:105C700018D0E0F6E59F540770047BFF80027B7F1D
:105C8000C4C0E07858E6F52308E65BF524740B7889
:105C900023125000D0E02523F8906270E0A2E74084
:105CA000F8E8C333906272F0906270E0D2E0F09056
:105CB0006181E0A2E35009E5E9A2E3500375E9F749
:105CC000A3E0A2E75009E591A2E7500375917FE5B3
:105CD00021A2E092AF7F08025249900469E0F87572
:105CE000F010A4C8AAF02AF9746B28FE740439FFD6
:105CF00022126D038E828F83E0F8A3E0C82416F58C
:105D000082E438F58322C0E0C0D0C082C0839061B5
:105D100083E0A2E05009E5BFA2E0500375BFFEE0BA
:105D2000A2E15009E5BFA2E1500375BFFDE0A2E288
:105D30005009E5BFA2E2500375BFFBE0A2E35009A2
:105D4000E5BFA2E3500375BFF7E0A2E45009E5BF49
:105D5000A2E4500375BFEFE0A2E55009E5BFA2E55C
:105D6000500375BFDFE0A2E65009E5BFA2E650038D
:105D700075BFBFD083D082D0D0D0E032C0E074F203
:105D80001251EAE5A7A2E6500FE5A1A2E650095399
:105D9000A7BF75A1BF125DD0E5A7A2E5500CE5A194
:105DA000A2E5500653A7DF75A1DFE5A7A2E15009E0
:105DB000E5A1A2E1500375A1FDE5A7A2E2500CE523
:105DC000A1A2E2500653A7FB75A1FB7F0102524935
:105DD00074F71250FE75500190043BE06406701594
:105DE000126C6D8A828B83A3A3A3A3A3A3E0FAA35F
:105DF000E0FB126CD9A2AFE433FED2AF900441E0D5
:105E0000640170187A207B0090043AE0F91271EF77
:105E10007A207B0090043AE0F91270F9906182E0F8
:105E2000D2E6F09005E8E0602185C6518016900426
:105E300040E064017008E5C654F84405F5C653BE59
:105E4000FC125B5C7401655060E4EEA2E092AF7FEF
:105E5000020251AA8E528F538582578583568541FF
:105E600082854283E0CEA3E0CF855782855683EBBF
:105E7000C9EAC8EDCBECCA75F010C3E833C8E93302
:105E8000C9EA33CAEB33CBC3EA9EF555EB9FF55411
:105E9000B35004AB54AA55EC33CCED33CDD5F0DA86
:105EA000AE52AF532274F11250FE8A218B228C2302
:105EB0008D249086D17821124E63740F12506E7823
:105EC00025124EC29086D17825124E63782179250D
:105ED000124423908711501078217925124E23788F
:105EE000211244434014800E78257921124E2378E4
:105EF0002512444350047901800279007F08025141
:105F0000AA74ED1250FE8A218B228C238D24908658
:105F1000D17821124E63741312506E7825124EC23E
:105F20009086D17825124E6378257921124423403A
:105F30001178217925124E23AA21AB22AC23AD245E
:105F40008022752900752A00752B00752C0178298F
:105F50007925124E2378297921124DEAAA29AB2AF4
:105F6000AC2BAD2C7F0C0251AA9086D17821124E19
:105F7000C28A828B837821124E767F040251AA74E2
:105F8000F51250FE8C828D837821124EC28A828B4C
:105F9000837821124E4F125FD7C3E09CF0A3E09D9F
:105FA000125FC940229086DD7821124EC28A828B10
:105FB000837821124E108A828B83A3A3A3A3E024AB
:105FC00020F0A3E0344EF080A0F088828983C3E003
:105FD0009420A3E0944E22EA2404F8E43BF98C8256
:105FE0008D83A3A3A3A3E0FCA3E0FD888289832281
:105FF00074F51250FE90059EE0FAA3E0FBE929F843
:10600000E433F9745228F582748539F583E02AF572
:1060100021A3E03BF52278211252A59086AD124EC5
:10602000E0125E5474021250388A218B228C238D28
:106030002474107821124DB2AA21AB227F040251A0
:10604000AA74F11250FE8A258B268C278D28741194
:1060500012506E1252BC741112506EE02401F521E0
:10606000A3E03400F522E4F523F524782579211204
:106070004C2D90871D7821124EC278257921124C23
:106080002DAA25AB26AC27AD28125E5474021250FF
:1060900038EA4B60047A0180027A00EC2AFCE43D85
:1060A000FD741312506EE0F8A3E0F9E8FEE9FFEC8E
:1060B000F8EDF97A717B02124F9788218922E4F575
:1060C00023F5248E828F837821124ED1ECF8EDF9DE
:1060D0007A717B02124F978A218B227405782112E4
:1060E000500F8E828F83A3A3A3A3E521F0A3E52203
:1060F000F07F080251AAC082C083E9906000F0D00E
:1061000083D08222C0E074F21251EA74FF1250224E
:10611000A2AFE433FEC2AF906231E024A0600E244F
:10612000B8607024B0700302623A02622990084994
:10613000E07005126FE5804D906230E0C2E21262BD
:1061400069900846E4F0A37404F0906230E0A2E3A2
:106150004022A3E064A0601C900846E0F8A3E0F9A8
:10616000E824FFFAE934FFFB900846EAF0A3EBF0DD
:10617000E84970D6906232E0854182854283F09092
:106180006230126266900849E0F912625A12509029
:1061900002623A90084AE0605F90083DE0F990089A
:1061A0004AE0F87401687007906230E0C2E2F0E9FA
:1061B000FA74482AF582E43408F583E090623212DA
:1061C0006251906230E0A2E34006A3E064A070F266
:1061D000906231E064B8600AE064C86005E064C0C1
:1061E000700A0918E86005E064C070B7E990083DDE
:1061F000F0E890084AF08027790012625A12509015
:10620000E97021906230E0C2E2F0906232E4126202
:1062100051906230E0A2E34006A3E064A070F290E7
:1062200062308013539AFD8011906230E0D2E41204
:106230006269E0A2E440FB126266EEA2E092AF1255
:1062400062CB758B00C2E874011250387F01025294
:1062500049F0906230E0C2E3F02290083AE0F8A3FF
:10626000E0F583888222E0D2E2F0E0C2E3F022C0CF
:10627000E0C0D0E8C0E0A8A8D2AFC2C7E8A2E792C9
:10628000AFD0E0F8D0D0D0E032C2AF02000022128E
:1062900043A9C1C6031243A9FAC6031243A9D8C72A
:1062A000031243A989CA031243A9EFCA031243A9DF
:1062B000F2CA031243A9F5CA031243A954CB03122D
:1062C00043A9DACB031243A962CC031243A962CDDE
:1062D000031243A9FBF0011243A9D8F1011243A90B
:1062E00000F4011243A9A3F4011243A924F50112F9
:1062F00043A9CEF6011243A9EDF7011243A945F8CF
:10630000011243A93EF9011243A9F9F9011243A967
:10631000E8FA011243A94CFB011243A91BFF011229
:1063200043A90080011243A91C80011243A9F381F3
:10633000011243A9E082011243A93D83011243A93E
:106340008183011243A9B183011243A9FD84011283
:1063500043A97985011243A9EF85011243A96886F3
:10636000011243A97787011243A9FB87011243A9B0
:10637000208A011243A9DF92011243A92A93011234
:1063800043A95193011243A9A893011243A9D5939C
:10639000011243A926B9011243A916BB011243A950
:1063A0005ABB011243A9D8BB011243A926BF01124F
:1063B00043A9A1C4011243A9DEC4011243A9BACC66
:1063C000011243A9A6CD011243A9FCCD011243A994
:1063D00021CF011243A978D0011243A9CAD00112DA
:1063E00043A9629F041243A9759F041243A9A49F65
:1063F000041243A9DC9F041243A925A0041243A957
:1064000068A0041243A9AEA0041243A9E1A004129B
:1064100043A908A1041243A937A1041243A96EA1FC
:10642000041243A987A1041243A9D6A1041243A9C7
:10643000EFA1041243A937A2041243A96BA20412CC
:1064400043A93DF7021243A93BF8021243A9A1F860
:10645000021243A9C4F8021243A9C6F8021243A9C2
:1064600004F9021243A975F9021243A935FA02127E
:1064700043A957FA021243A9F3FA021243A92AFBCD
:10648000021243A96FFB021243A97CFB021243A92B
:10649000ECFB021243A936FC021243A939FC02129A
:1064A00043A97FFC021243A982FC021243A98CFC7F
:1064B000021243A9FFFC021243A927FD021243A9BD
:1064C0005AFD021243A97EFD021243A97BFE02126D
:1064D00043A91FFF021243A98BFF021243A9C7FF62
:1064E000021243A9AD93041243A9D593041243A900
:1064F0000294041243A93A94041243A9A0940412EA
:1065000043A9EA94041243A94E95041243A996950F
:10651000041243A9D395041243A90196041243A976
:106520009696041243A9A096041243A9AD960412AC
:1065300043A9E096041243A9EC96041243A90497D8
:10654000041243A90E97041243A90981051243A915
:106550002181051243A93881051243A984720012D2
:1065600043A92773001243A96274001243A90B7553
:10657000001243A99376001243A97B77001243A926
:106580007278001243A9A878001243A94A79001230
:1065900043A97079001243A93C7B001243A9827B76
:1065A000001243A9A47B001243A9107C001243A946
:1065B000DB7C001243A9957D001243A9A17F001244
:1065C00043A9CFCD031243A9ABCE031243A955CFA4
:1065D000031243A996CF031243A91DD0031243A966
:1065E00098D0031243A96BD1031243A994D103128B
:1065F00043A988D2031243A9C5D2031243A9ADD33C
:10660000031243A9DED3031243A904D4031243A9FE
:1066100030B9041243A95BB9041243A96BBA04123E
:1066200043A9879B041243A99D9B041243A9BB9BCA
:10663000041243A9CB9C041243A9D59C041243A97C
:10664000FF9D041243A9EC9E041243A9589F041213
:1066500043A9F5DA031243A922DC031243A959DC4A
:10666000031243A9B0DC031243A9A8DE031243A915
:1066700013AC021243A99AAC021243A9EEAD021266
:1066800043A975AE021243A981AE021243A9F9AE25
:10669000021243A9E1AF021243A9DDB0021243A9DD
:1066A000A9B1021243A903B3021243A919B30212FA
:1066B00043A93AB3021243A9CCB3021243A942B48C
:1066C000021243A968B4021243A915B7021243A9E2
:1066D0001AB7021243A93EB9021243A985B90212A0
:1066E00043A9EBB9021243A931BA021243A901BB73
:1066F000021243A9B6BB021243A912BC021243A95B
:1067000015BC021243A961BC021243A99DBC02122E
:1067100043A9DCBC021243A9FEBC021243A932BD4C
:10672000021243A9A0BD021243A939EB031243A9E7
:1067300047EB031243A997EB031243A9B6EB0312ED
:1067400043A900EC031243A943ED031243A9DBED77
:10675000031243A91FEE031243A949EE031243A9F2
:10676000B4EE031243A9F8EE031243A97BEF031220
:1067700043A92AF0031243A98DD1011243A927D2BC
:10678000011243A983D2011243A941D3011243A9A3
:10679000C9D3011243A9ECD4011243A91CD501129B
:1067A00043A94BD5011243A901D7011243A954D9DA
:1067B000011243A9B3DB011243A99CDC011243A9D6
:1067C0008CDD011243A95FDF011243A957E20112D8
:1067D00043A974E3011243A96EE5011243A97DE6C2
:1067E000011243A90CE8011243A9F8E8011243A9D8
:1067F00047E9011243A9B7E9011243A9D3E90112FC
:1068000043A924EA011243A9C4EE011243A9DAEF15
:10681000011243A992F0011243A99F8B041243A9CC
:10682000A98B041243A9F18B041243A9058C04120D
:1068300043A9968C041243A9CD8C041243A9088D58
:10684000041243A9318D041243A9858D041243A972
:106850009A8D041243A9BC8D041243A9D18D041250
:1068600043A90B8E041243A9378E041243A9808ECC
:10687000041243A9F68E041243A9398F041243A9C6
:10688000638F041243A98E8F041243A927BE0412FA
:1068900043A912A2031243A9EBA2031243A95AA3CC
:1068A000031243A995A3031243A9D0A4031243A939
:1068B00082A5031243A92FA8031243A9DAA8031241
:1068C00043A9BBA9031243A931AB031243A999AB56
:1068D000031243A942F9031243A9ADFA031243A9D3
:1068E000EBFC031243A929AE041243A9D6AE04124D
:1068F00043A9CFAF041243A90CB0041243A90FB4AB
:10690000041243A96EB4041243A90BB5041243A99F
:106910003EB5041243A96CB5041243A9A7B50412ED
:1069200043A9C7B5041243A93CF0031243A9C5F01B
:10693000031243A984F1031243A992F2031243A95B
:10694000B2F4031243A9BD8B031243A9D28B0312E5
:1069500043A99D8C031243A96A8D031243A9D78DC5
:10696000031243A9128E031243A9B38E031243A943
:10697000BC8F031243A99490031243A917910312E9
:1069800043A9A091031243A90992031243A9939228
:10699000031243A9E092031243A94E93031243A9A1
:1069A000F093031243A99E94031243A9BE940312C9
:1069B00043A90295031243A94A95031243A9669578
:1069C000031243A98595031243A9FF95031243A916
:1069D0000D96031243A9A096031243A90A97031226
:1069E00043A96D87041243A9E987041243A92788A4
:1069F000041243A90B89041243A97A89041243A9FA
:106A0000BE89041243A9018A041243A92E8A0412E2
:106A100043A94C8A041243A9848A041243A9C18A57
:106A2000041243A9E28A041243A9588B041243A911
:106A30005ABE021243A9EEBF021243A92CC202128F
:106A400043A974C2021243A99FC2021243A995C36B
:106A5000021243A9C5C3021243A91CC4021243A9CE
:106A600049C4021243A992C4021243A9CEC402121D
:106A700043A913C5021243A960C5021243A9C8C5A0
:106A8000021243A9FAC7021243A9C1C9021243A9BB
:106A9000FCC9021243A97ACB021243A9BECB02124F
:106AA00043A931CC021243A992CC021243A91ACDB8
:106AB000021243A939CE021243A94ACE021243A9B7
:106AC0003EAC031243A9AFAC031243A978B2031240
:106AD00043A972B3031243A934B5031243A9B2B553
:106AE000031243A90080021243A98780021243A91E
:106AF000B480021243A9F680021243A9F281021265
:106B000043A93782021243A9B383021243A93B84EB
:106B1000021243A9AE84021243A96B85021243A953
:106B20002786021243A9A786021243A9758702127B
:106B300043A99B87021243A90D88021243A9B18879
:106B4000021243A9D688021243A94289021243A91C
:106B5000A889021243A9DE89021243A9828A02127D
:106B600043A91B8B021243A99E8B021243A90A8CD4
:106B7000021243A9568C021243A9BC8C021243A9EB
:106B8000ED8C021243A9A18D021243A9B78E021205
:106B900043A9008F021243A91D8F021243A9FD943D
:106BA000021243A94595021243A93296021243A943
:106BB0005796021243A96C96021243A9D496021268
:106BC00043A91497021243A92798021243A9D49803
:106BD000021243A9DBB5031243A926B6031243A947
:106BE00032B6031243A9FDB6031243A913B7031229
:106BF00043A94FB7031243A988B7031243A9C0B7EB
:106C0000031243A916B8031243A92CB8031243A9CF
:106C100068B8031243A97BB8031243A9A2B80312B0
:106C200043A9D6B8031243A9AAB9031243A939BB91
:106C3000031243A935BC031243A93EBD031243A965
:106C4000F87F001243A94FCE021243A98ACE021246
:106C500043A98ED1021243A9E0D2021243A9A5D3BF
:106C6000021243A99FD6021243A989D7021243A94F
:106C7000D4D7021243A9EED7021243A92BD802128D
:106C800043A936D8021243A975D8021243A97ED867
:106C9000021243A93FD9021243A9FCD9021243A907
:106CA0005FDA021243A9C3DA021243A944DB0212DB
:106CB00043A90699021243A9629C021243A9689C47
:106CC000021243A9A9A3021243A981A8021243A94F
:106CD000D3A2041243A99DA3041243A9E1A3041261
:106CE00043A91BA4041243A9ADA4041243A91CA5E3
:106CF000041243A925A5041243A931A5041243A9EE
:106D000045A5041243A969A5041243A999A5041233
:106D100043A99EA8041243A9ABA8041243A9C5A87D
:106D2000041243A9F8A8041243A935A9041243A9DF
:106D30009BA9041243A9B0A9041243A9BBA9041238
:106D400043A9C8A9041243A9DFA9041243A9EDA9C4
:106D5000041243A9F8A9041243A904AA041243A9DE
:106D600013AA041243A91EAA041243A93EAA04129C
:106D700043A94EAA041243A964AA041243A982AAF1
:106D8000041243A98DAA041243A9A2AA041243A97A
:106D9000B6AA041243A917AB041243A91DAB0412EF
:106DA00043A923AB041243A929AB041243A93BAB6B
:106DB000041243A9CAEA021243A958EB021243A9DA
:106DC00034EC021243A968EC021243A97BEC0212D4
:106DD00043A9F5EC021243A97DEE021243A9A4EEE9
:106DE000021243A92BEF021243A96AEF021243A930
:106DF0007BEF021243A9F0EF021243A90FF0021237
:106E000043A927F0021243A96BF1021243A975F3BB
:106E1000021243A9A7F5021243A9ADF6021243A933
:106E2000F0F6021243A92C80031243A93680031204
:106E300043A95880031243A96480031243A9B18176
:106E4000031243A9DE81031243A9FF82031243A95F
:106E50004183031243A98784031243A9E8840312E0
:106E600043A91D85031243A95685031243A901892D
:106E7000031243A91889031243A99689031243A94F
:106E8000A489031243A9ED89031243A9FB890312C4
:106E900043A97C8A031243A9EB8A031243A9378BC7
:106EA000031243A92D97031243A94F97031243A935
:106EB0002B99031243A9A39C031243A9ED9D03122E
:106EC00043A9CF9E031243A9D5B5041243A9FAB52D
:106ED000041243A96BB6041243A96BBF031243A962
:106EE00074BF031243A97DBF031243A9A1C00312BB
:106EF00043A992C2031243A9C0C2031243A9EBC221
:106F0000031243A919C3031243A944C3031243A99B
:106F100082C3031243A9AEC3031243A9EBC30312F6
:106F200043A916C4031243A962C4031243A9B9C4F6
:106F3000031243A9F9C4031243A948C5031243A984
:106F400073C5031243A9B9C5031243A9E7C50312C8
:106F500043A912C6031243A935C6031243A9DF820F
:106F6000051243A9E982051243A9F982051243A932
:106F700022B2041243A949B2041243A974B2041202
:106F800043A9AE7F001243A9E5F4031243A935F5E6
:106F9000031243A96FF6031243A9DEF6031243A9B5
:106FA00082F7031243A9A1F7031243A9EFF70312D3
:106FB00043A931F8031243A9EDFF021243A99CBF74
:106FC000041243A9ACBF041243A9B5BF041243A9DC
:106FD000F9BF041243A90080051243A9838005125A
:106FE00043A9E980051243A99ABA041243A93DBBFB
:106FF000041243A986BB041243A97882051243A94F
:107000008A82051243A995E0031243A96DE1031298
:1070100043A993E1031243A9ABE1031243A9B5E1EC
:10702000031243A901E2031243A904E2031243A994
:1070300040E2031243A9D3E2031243A9F7E2031289
:1070400043A95EE3031243A9B1E3031243A9F1E3A9
:10705000031243A91BE4031243A93AE4031243A910
:1070600057E4031243A974E4031243A97CE4031216
:1070700043A999E4031243A9C4E4031243A9E5E434
:10708000031243A919E5031243A92DE5031243A9ED
:10709000B7E5031243A9E8E5031243A9F7E5031294
:1070A00043A901E6031243A941E6031243A98AE674
:1070B000031243A9C2E6031243A918E7031243A926
:1070C00035E7031243A93EE7031243A983E70312FE
:1070D00043A9ACE7031243A9C1E7031243A931E86E
:1070E000031243A9BEE8031243A912E9031243A9FC
:1070F00035E9031243A9B4E9031243A9EFE90312E6
:1071000043A924EA031243A936EA031243A952EA27
:10711000031243A95BEA031243A90DEB031243A92F
:107120002382051243A986B7041243A9D7B70412D4
:1071300043A960B8041243A9CAB8041243A96EABAC
:10714000041243A996AB041243A98BAC041243A9C1
:10715000B0AC041243A93FAD041243A9DABB041238
:1071600043A9D0BC041243A9EABC041243A9FBBC46
:10717000041243A926B0041243A95CB0041243A927
:107180008FB0041243A9E8B1041243A99FFF031270
:1071900043A9A9FF031243A974D4031243A9AFD48E
:1071A000031243A9E0D4031243A95AD5031243A9F9
:1071B00047D6031243A940D7031243A9C1D80312EB
:1071C00043A975D9031243A9DED9031243A9B68F87
:1071D000041243A9CC8F041243A97090041243A94E
:1071E000AF90041243A9CC90041243A9FD9004125D
:1071F00043A94A91041243A97D91041243A9B8916D
:10720000041243A98EDC021243A93BE0021243A9F7
:10721000CAE1021243A91AE2021243A931E20212A0
:1072200043A950E2021243A9ADE2021243A93DE490
:10723000021243A910E5021243A947E9021243A929
:107240002FEA021243A90383051243A9C8A5041219
:1072500043A909BD041243A93BBF041243A988FDF9
:10726000031243A9B6FF011243A9B382051243A931
:107270009C97041243A9218305FFFFFFFFFFFFFF37
:10728000FFFFFFFF74F21250928922EAFEEBFF8C9F
:107290002375211274FE6E700374FF6F70189003D3
:1072A00071127B36606A12731560657AFE7BFFA9E6
:1072B00022125090805274FF6E700374FF6F70350D
:1072C000900371127B366013127315600E7AFF7B88
:1072D000FFA922125090E9F521600CAA23A92212DD
:1072E0006589E9F5217029E52290037DF0E5239079
:1072F000037EF0801B1279206016E06522700EA9D3
:1073000023EEFAEFFB126823E9F5218003752103D0
:10731000A921027732E0F5838882E0F8A3E0888231
:10732000F583E58245832274EE125092EAFEEBFF6C
:10733000EA2402F527E43FF528EA2404F525E43F92
:10734000F526EA2406F523E43FF524EA2408F5218E
:10735000E43FF522852182F5831252BC8523828584
:1073600024831252BC85258285268312768D85273B
:10737000828528831277511268E37404125038E929
:107380007005790202743D79018E828F83127751E4
:10739000126A03E97005791402743D8E828F83129C
:1073A00077717057901B42E0F47003A3E0F460051E
:1073B000791102743D8E828F83127737127842855D
:1073C0002782852883127863900375127842852579
:1073D0008285268312786390037712784285238210
:1073E00085248312786390037912784285218285FF
:1073F000228312786390037B127842E4F529F52A00
:1074000078291252A578291252A5852182852283D6
:107410001252BC8523828524831252BC8525828525
:1074200026831252BC85278285288312768D8E8210
:107430008F831277511268F5740A1250380275065C
:10744000FAE43522FB12709F740222E0F5838882F1
:1074500022127F80241BF582E438F583127755EAE7
:107460004B2274EE125092127C08AE21AF22EA4FEA
:107470007003027506EA2420F521E43FF522741218
:1074800012506E124F10852182852283124F1C7A72
:10749000267B001264E7EAF52370078E828F83E073
:1074A000F5238521828522837825124EC28E828F14
:1074B00083A3A3A3A3E0F5247A0E127BFC60478A82
:1074C000828B8374D0F0A3E4127852740912785A34
:1074D000E524127D8B1252A5EE2405FCE43FFDEA63
:1074E0002404127440125038852182852283A3A37C
:1074F000A3A3A3A3A3A3A3A37825124ED1AA21AB30
:1075000022A9231270CF7F0A02516474EA125092AA
:107510008A258B26EA4B70030276888A828B83A3A6
:10752000A3A3A3A3A3E07005752408800375240416
:1075300090036D127B36600512744B8003901AF332
:10754000E0F523900386127B36600F12744BA3A3E1
:1075500012731A60057900125090E5252407F5276B
:10756000E43526F528E5252408F521E43526F5221D
:10757000AA21FB852782852883E0F9126511E9FBA2
:10758000852782852883F0E5252403FEE43526FF40
:10759000E5252404F52DE43526F52EE525240EF504
:1075A00029E43526F52AE5252414F582E43526F567
:1075B00083E0F52B752C00782B1252A5E5252412BB
:1075C000F582E43526F5831252BCE5252410F582B8
:1075D000E43526F5831252BC852982852A8312520E
:1075E000BCE524F52578251252A9852D82852E83A8
:1075F0001252BCAC21AD22AA238E828F83E0F912F5
:107600006577740B1250388E828F83E07041752538
:107610001775260078251252A5852982852A83129E
:1076200052BC78241252A978211252A5852782854E
:107630002883E0FD7C01852D82852E83127751A958
:10764000231269EB7407125038E98E828F83F09011
:10765000036D127B36600312659B90037DE060280A
:1076600012776260238E828F83E0FB74316B60132C
:10767000852D82852E8312768D90037DE0FAEBF9BD
:1076800012657D90037DE4F07F0E025164E0FCA35F
:10769000E0FD2274F2125092EAFEEBFF752300EA3D
:1076A0002403F8E43F8821F5228882F58312775B72
:1076B0008A828B83E5824583600FE0F523852182F2
:1076C0008522831277511269F190037DE0600E6587
:1076D00023700A127762602A90037DE4F0E523604C
:1076E000218E828F83A3A3A3A3A3E0FB85218285A0
:1076F000228312768DAA238E828F83A3A3E0F912B0
:10770000657D90036F127B3660031265958521823B
:10771000852283127771701A8521828522831277E0
:1077200037E0687003A3E0697008901B4274FFF0B3
:10773000A3F07F06025164127867901B4222F8E49E
:107740003FF98882F583E523F0A3E524F088828958
:107750008312775522E0FAA3E0FB221277551269D3
:10776000F72290037EE0FA90037DE0F9126589E943
:1077700022127755126A09E964042274F0125092B9
:1077800089228A258B218C238D247A1412791070FA
:1077900003027837127848740512785AE521F0EA26
:1077A0002404FAE43FFBE52345246017752706759A
:1077B000280078271252A5AC23AD2412744512502C
:1077C0003880097C067D0079001270B77410125061
:1077D0006E1278638E828F83A3A3A3A3A3A3A3A314
:1077E000A3A3127842741212506EE0C0E0127D73AF
:1077F000D0E0F0741312506E12786D240D12783CA4
:10780000741512506E12786D240F12783C74171292
:10781000506E12786D241112783C741912506EE07B
:10782000C0E0EE2413F582E43FF583D0E0F0EEFAF9
:10783000EFFBA9251270CF7F08025164F582E43F67
:10784000F583E8F0A3E9F0228A828B8374D0F0A359
:10785000E522F08A828B83A3A322F08A828B83A302
:10786000A3A32212786722E0F8A3E0F92212786736
:10787000EE2274F212509289228A21ECFEEDFF8BE7
:10788000237A067B001270C3EA4B601912784874A1
:107890000612785AEEF0A3EF12785AA3A3E523F06C
:1078A000A9211270CF02773274F012509289258A82
:1078B000218B228C238D247A0C127910604FAA21FF
:1078C000AB221279207003901AF3E0F98E828F8335
:1078D00074D0F0A3E525127B087407127B08A3A3DC
:1078E000E521F0A3E522F08E828F8312792C7410AB
:1078F00012506E12793A127B16741212506E12796F
:107900003AA3A3127B16EEFAEFFB1270CF02783780
:107910007B001270C38A278B28AE27AF28EA4F223C
:107920001269F78A828B83E582458322A3A3A3A3EE
:10793000A3A3E523F0A3E524F0221277558E828FCE
:1079400083A3A3A3A3A3A3A3A32274F6125092EA32
:10795000FE1269FD8A828B83E5824583600BEEF916
:10796000A3127751126823800279127F02025164B8
:1079700074EC125092892A8A238B248C29127C9DC4
:107980007003027AF190036F127B367003027AF172
:107990007A0E7B00127B7A127B3460027A29127B8A
:1079A0002B6008EA2414FAE43400FB741412506EBD
:1079B000E0F525A3E0F526E52545266007EA241B2A
:1079C000FAE43BFB127F9B127B306007EA2416FA35
:1079D000E43BFB127D7D7003027AF17C0E127C8EFB
:1079E0008A21EA4B7009852782852883E0F5218E5C
:1079F000828F8374D0F0A3E52A127B08740AF08E7C
:107A0000828F8312792F8E828F83A3A3A3A3A3E5F2
:107A100029F0EE240EFAE43FFB8A23F52490036F4D
:107A2000E02419F8A3E03400F9E8FCE9FD888212AB
:107A30007B3460198E828F83A3A3A3A3A3A3127B9D
:107A400016127AF61252A5127B1C12503890036F50
:107A5000E0241DFCA3E03400FD8C82127B34602006
:107A6000EE240812773EEA2414F523E43BF524754E
:107A7000271475280078271252A5127B1C12503843
:107A8000E52545266016EE240A12773E127AF61294
:107A900052A5AC25AD2612744512503890036FE004
:107AA000241BF8A3E03400F9E8FAE9FB8882127B92
:107AB000346032EE240CF8E43F8825F5268882F500
:107AC0008312793275231675240078231252A58A01
:107AD000828B8312768D85258285268312775112BB
:107AE0007445125038EEFAEFFBA9211270CF1265DF
:107AF000957F0C025164EA241BF523E43BF52475C1
:107B0000271B752800782722F08E828F83A3A3225B
:107B1000F582E438F583EAF0A3EBF0228C828D83C2
:107B2000E0FCA3E0FD12709F740222127F80241DEE
:107B3000F582E438F583127867E84922C082C08371
:107B400090036F127B36602B127B7A12745A60039B
:107B50001271831274516003127183127F95127433
:107B600056600312718390036F127B9D90036FE444
:107B7000F0A3F0D083D0820243A6E82419F582E472
:107B80003922C082C08390036D127B36600D900352
:107B90006D127B9D90036DE4F0A3F080D6127755B3
:107BA0001271832274F012509289258A238B241239
:107BB0007C08EA4B60437A267B001264E78A278BB5
:107BC00028AE27AF28EA4F7008852182852283E0FE
:107BD000FE7A05127BFC60217C057D007900127025
:107BE000B7127CB2740EF085218285228312792F20
:107BF000AA21AB22EEF91270CF0278377B00127007
:107C0000C38A218B22EA4B221269F78A218B222216
:107C100074EE1250928925EAFEEBFF8C238D24121C
:107C20007C9D60677A0B127BFC60607C0B127C8E03
:107C30008A298B2AA829A92AEA49700885278285DA
:107C40002883E0F8127CB2740F127CADEEF0A3EF43
:107C5000127CA7E523127CA7A3E524F0741212502E
:107C60006E127CCCF0741312506E127CCCA3F074A4
:107C70001412506EE5212409FCE43522FD74021231
:107C80004F35AA21AB22E8F91270CF0275067D00AC
:107C900079001270B77A267B001264E7221269F726
:107CA0008A278B28EA4B22127CADA3A322127CC226
:107CB000A32285218285228374D0F0A3E525127C3E
:107CC000C222F0852182852283A3A322E08521821E
:107CD000852283A3A3A3A3A3A3A32274EE1250928D
:107CE0008A238B2489271269F78A258B26EA4B6021
:107CF0007F7A0D7B00127D7D60767A267B00126490
:107D0000E78A21EA4B7009852582852683E0F521E3
:107D10008E828F8374D0F0A3E4127B08740B127DE3
:107D20008B1252A5E5252405FCE43526FDEE24033F
:107D3000FAE43F1274441250388E828F83A3A3A3B7
:107D400012792CEE240BF582E43FF583E527A2E0BF
:107D5000500474018001E4F0127D73E527A2E15024
:107D60000474018001E4F0EEFAEFFBA9211270CF58
:107D7000027506EE240CF582E43FF583221270C3EF
:107D80008A218B22AE21AF22EA4F22F07529067597
:107D90002A0078292274E812509289298A28ECFE58
:107DA000EDFF8B27ECFAEDFB127C08741812506E75
:107DB000E0F525A3E0F526741A12506EE0F52DA328
:107DC000E0F52E741C12506EE0F52FA3E0F5307430
:107DD0001E12506EE0F523A3E0F524EA4B70030277
:107DE0007EB5E5296003027EB5EA2403F582E43519
:107DF00022F583E0D2E4F0E527A2E2E05004D2E1EC
:107E00008002C2E1F0E52545267012E52D452E7071
:107E10000CE52F45307006E52345246063E0D2E28F
:107E2000F0E5234524602D127F89124F10E52124AF
:107E300020F582E43522F583124F1C752B10752C2A
:107E400000782B1252A5AC23AD24E5212410127426
:107E500040125038E5212424F52150020522E52561
:107E600045266021E528701D8521828522831274B4
:107E70005C60031271837C1B7D00AA25AB268027E2
:107E8000E0C2E2802FE52D452E602A74016528703E
:107E90002485218285228312745C60031271837CA5
:107EA0001B7D00AA2DAB2E1270AB8521828522830B
:107EB000EAF0A3EBF090036F127B367003027F7B36
:107EC000E52545266036127B7A127B34700F7A1BCB
:107ED0007B0012717D127F802419127B10127F802B
:107EE0002419127456601575211B75220078211211
:107EF00052A5AC25AD26127445125038E52F4530F9
:107F0000602F127F9B127B30700D7A167B001271EE
:107F10007D127F9B127B10127451601575211675AE
:107F2000220078211252A5AC2FAD301274451250A8
:107F300038E5234524602F127B2B700D7A147B00CB
:107F400012717D127F95127B10127F95127456600C
:107F50001575211475220078211252A5AC23AD2489
:107F6000127445125038782D1252A5AC27EEFAEF54
:107F7000FBA92912658F74021250387F10025164D8
:107F800090036FE0F8A3E0C822E5232410F582E413
:107F90003524F58322127F80241D22127F80241B2A
:107FA00022C082C083900373127B16027B7374F528
:107FB000125092ECFEEDFF752102EA14600424FDDC
:107FC000702F1264EDE9F5217027740D12506E12B6
:107FD00052BC740D12506EE0FCA3E0FDEEFAEFFB14
:107FE0001264F374021250381265D112660D126ECB
:107FF000A1A9217F030251640243A6FFFFFFFFFFF7
:10800000C082C083854582854683E06420700A85EE
:108010004683A385824585834602837A74F4125091
:1080200092A845A946AC45AD468019A3AA82AB8368
:108030008A828B83E0FE74206E60F074096E60EBC0
:10804000EAFCEBFDECFAEDFB8A82F583E075F00DBE
:1080500084AEF0EE2EFEE433FF74C82EF582741A5F
:108060003FF58312CF0D8004ECFAEDFB8A828B83FF
:10807000E0FE74276E600574226E70351281DE8A10
:10808000828B83A3AA82AB838A828B83E0FCA3AA20
:1080900082AB831281DFEE6C60A6740A6C70E9E833
:1080A00024FFF8E934FFF9EA24FFFAEB34FFFB8000
:1080B0008F740A6E701B88828983740AF002934C55
:1080C0008523218524228A828B83A3AA82AB83E025
:1080D000FE852182852283A38582238583248521B1
:1080E00082852283E06E60D8E0FEC394804035C371
:1080F000E54598E5469950081281D7700318A98381
:108100001281DE852182852283E064806003028003
:1081100030852382852483E088828983F0A308A99F
:1081200083028030AA21AB228A828B83A38582219D
:108130008583228A828B83E0FAC3948040E6748030
:108140006A700D852182852283A385822185832201
:10815000852182852283E060030280688C828D8382
:108160001281EA50161281DE8C828D83A3AC82AD1F
:10817000831281EA400302804480EA88828983A3D3
:10818000AA82AB8374096E600574206E7033C3E5F8
:108190004598E5469950101281D7600B88828983F3
:1081A0007420F0EAF8EBF98C828D83A3AC82AD8366
:1081B000E0FE74206E60F074096E600302804480FB
:1081C000E6EE88828983F0EAF8EBF98C828D83A34E
:1081D000AC82AD8302804412D05FE0642022EE883E
:1081E000828983F0A3A882A98322E0FE74BF2EC3F4
:1081F000941A2274E812509274FF125022E9FE8AF7
:10820000258B268C278D28752901752A00752B0052
:10821000752C007F0A90872D78251243FD401C792C
:108220002D1270157FF680139086C97821124EC2E8
:1082300078297921124C2D74FF2E1EEFF52D3395E0
:10824000E0F52EF52FF5308525218526228527237B
:108250008528247821792D124D46782979211243D9
:10826000D350C5EE854182854283F014FEE0C3946D
:1082700001A2D265D0334007792012701580E4EF57
:10828000C312B615504B7829124D87804485252D91
:1082900085262E85272F852830852921852A228528
:1082A0002B23852C24782D7921124D46E52D243061
:1082B000F9127015782D7929124C2D7825792D1207
:1082C0004E239086C97821124EC278297921124D09
:1082D00046E529452A452B452C70B2740102CB9303
:1082E000C082C08312631F9002E8E4F0A312B6FEBE
:1082F000802A12CC4BE875F00AA4F8ABF075F00AAE
:10830000E9A42BF9E82AF8E439F9E824D0F8E934AB
:10831000FFF99002E8E8F0A3E912B6F3E0FA74D0AE
:108320002AC3940A50159002E8C3E09499A3E094FC
:10833000199002E840BC74FFF0A3F0803DC082C0F9
:10834000837A007B00854582854683E0F974226943
:108350006005742769701F854683A38582458583E0
:108360004680050AEA70010B12CBA9E0F8E96860C3
:1083700009740A6870ED7AFF7BFFD083D0820243D4
:10838000A674F7125092EAFEEBFF800C1270158E65
:10839000828F83A3AE82AF838E828F83E0F970ECED
:1083A000790A127015800574021250387F0102514B
:1083B0006474F012509289248A2275232012CCA171
:1083C000F525A3E0F5269002E4E024031284F5AA43
:1083D00025AB26E4FCFDA92412632B80057920122D
:1083E000701585222574FF2525F5220470EF800B7A
:1083F000EE24FE12CBD8F52185212312CCA1F52144
:108400009002E4E02401081284F6740A65217003E6
:108410000284EDE521C394805007A92112701580D4
:10842000D77CC87D1A802474806B7004A827A92883
:1084300088828983A3A882A983E8FEE9FF888289CC
:1084400083E0701CEC2402FC50010D8C828D8312A1
:10845000C49BEE4F60A2EEF8EFF980E1A827A928AF
:1084600088828983A385822785832888828983E0FF
:10847000C3948040E7E0FBE5216B70AB748065211D
:10848000701D852782852883E0F5269002E412B7C7
:1084900098E0652670919002E4E024011284F5745E
:1084A000206523600979208002A9211270158E822F
:1084B0008F83E0F521A3AE82AF83E521C394804092
:1084C000E812CCA1F874286870030283F0742C6859
:1084D00070030283F0EE24FF12CBD864CD70030248
:1084E00083F079201270157521200283F8790A1221
:1084F000701502BAC2F812BE6312B7E92274F01204
:108500005092E9FEEAFF752100752200752300757F
:108510002400802274D02AFAEAC39F504B8F25E4AE
:10852000F526F527F52878217925124C2D8A25780E
:10853000217925124DEAEEF974FF29FE04602F859A
:10854000458285468312B74974D02AC3940A40C431
:1085500074BF2AC39406500474C980BA749F2AC396
:108560009406500474A980AE75490212B641AA213E
:10857000AB22AC23AD2402BAC274F412509289210A
:10858000EAFCEBFD74BF29F9E521F523752400749D
:1085900002782312500F12B5B524FCFAEB34FEFB1F
:1085A000E9131313541FFE18E62EFE08E436FFEEFF
:1085B0002468F582E43FF583E0C0E0740759F8D001
:1085C000E0B800028004C313D8FCA2E0400D8C8206
:1085D0008D8374E4F0A3741AF080118A828B831265
:1085E000B74112B69FE8240CFAE439FB02934C74AD
:1085F000EC125092EAFEEBFF12B7285051A385828D
:1086000045858346EEFAEFFB12B5AD8E828F83125D
:1086100092D8704B854523854624790112B5A37005
:108620002790872D78251243FD501D8E828F83124F
:1086300092BBF529A3E034FFF52AE4F52BF52C785D
:108640002979251243D3400C8523458524467A0099
:108650007B00800FE5212AF521E5223526F522AAA7
:1086600021AB227F0C02516474F2125092E9FE8A0F
:10867000218B228A258B26EA240CF8E43526F9C3BF
:10868000E498FAE499FB784CE62AFA08E63BFBC347
:10869000EA954EEB954F50067549040287728A4C55
:1086A0008B4DAC4CAD4D8A828B837403F0E5252451
:1086B0000CA3F0A3E912B6A37402F0EA2404F8E4D0
:1086C0003DF9EE8882898312B6A3A3A3A3A3A3A333
:1086D000A3E4F0A312B659E024BFFF12B5F0F8E40A
:1086E0003BF9E8FAEFF5257526007402782512505B
:1086F0000F784AE62525F52508E63526F526740780
:108700005FF87401B800028004C333D8FCFF8A828A
:108710008983E05F8C828D83A3A3A3A3A3F08A82C5
:108720008983E04FF0852582852683124F108C8245
:108730008D83A3A3A3A3A3A3124F1C852582852603
:1087400083ECF0A3EDF0784CE6240CFA08E436FB59
:10875000740E12506E12BE82EC4D600D78211252D2
:10876000A512CBA31250388009AC21AD227900129A
:1087700070B77F0602516474F712509274FE125063
:1087800022E5434544607175430075440079001249
:1087900070757C6C7D007900AA4AAB4B1270B77C77
:1087A0001C7D0079007A2F7B031270B77E00EEF9F2
:1087B0001270270EEEC3940440F47A007B0012700E
:1087C00033854A4C854B4DAE47AF48801C8E828F17
:1087D00083E064057010AC41AD42A3A3A312B8813D
:1087E00012CC8412678712D162C3EE954EEF954F7B
:1087F00040DB85474E85484F0283A774F0125092A4
:10880000E9FEEA24FCFCEB34FFFD74C36E701A8CA5
:10881000828D837821124EC27821124D878C828DF1
:10882000837821124ED1028A1DECFAEDFBEC24FC78
:10883000FCED34FFFDE91252E9B111118A6188752E
:10884000888988A588CE88038918892D894289510D
:108850008967897D897D899389A9895189D289ED23
:10886000898A828B837821124EC28C828D837821F3
:10887000124E1080B18A828B837821124EC28C8274
:108880008D837821124E4F809D8C828D83782112AA
:108890004EC28A828B837825124EC27821792512A6
:1088A0004C2D028A068A828B837825124EC2E525DA
:1088B0004526452745287003028A168C828D8378C9
:1088C00021124EC278217925124D46028A068A82EB
:1088D0008B837825124EC2E525452645274528700D
:1088E00003028A168C828D837821124EC2782179F8
:1088F00025124D4685252185262285272385282476
:10890000028A068A828B837821124EC28C828D83E2
:108910007821124E76028A1D8A828B837821124E2C
:10892000C28C828D837821124E9C028A1D8A828B92
:10893000837821124EC28C828D837821124EAF0231
:108940008A1D8A828B837821124EC28C828D83800D
:108950004F8A828B837821124EC28C828D8378213C
:108960001243BE605C80568C828D837821124EC289
:108970008A828B8378211243E8504680408A828B1A
:10898000837821124EC28C828D8378211243BE706F
:1089900030802A8C828D837821124EC28A828B830A
:1089A00078211243E8401A80148A828B837821123E
:1089B0004EC28C828D8378211243E85004D2F0801D
:1089C00002C2F0A2F0E433F521E4F522F523F52408
:1089D00080348C828D837821124EC28A828B837878
:1089E00025124EC2E5257821124DCB80198C828D3F
:1089F000837821124EC28A828B837825124EC2E57B
:108A0000257821124D988C828D837821124ED18049
:108A10000C75490280037549037A007B0002BAC2D3
:108A200074EA12509274C7125022740412506EE904
:108A3000F0752601E5496003028CD1741912507853
:108A400088218922AE21AF227409125078882D899D
:108A50002E740212506EEEF0A3EFF0740212506EFC
:108A6000E0F52174027821125000740712506E1242
:108A7000B6867409125078740512506E12B69F8033
:108A80003A743912506EE5826E7003E5836F70039D
:108A9000028B91854582854683E025E0F8E433F931
:108AA000742A28F58274833912CC4912D170852337
:108AB00045852446AE27AF28752600854582854624
:108AC00083E0F525A38582458583467845E6240124
:108AD000F52308E436F52412B636E52D2402F521F7
:108AE000E4352EF522EE2404F527E43FF528E525AC
:108AF0001253C6049698548DB3C2B791CACC548D04
:108B0000CED0548D0D0AB78B20BB8A28208D290525
:108B10008E2C9B8D80818A82548DB1B791B2AE919B
:108B2000C8548DC91C8CCDF28BF1548D2E8B74D012
:108B30002525C3940A5039743912506EE5826E703F
:108B400003E5836F604B8A458B468E218F22AE27CB
:108B5000AF287A0A79FF126349EAF8EBF9ECFAEDEB
:108B6000FB852182852283124F1C754900028AB839
:108B700074BF2525C3941A503E1292C970197419F6
:108B800012506EC3E5219582E52295835003028D34
:108B900068754904028CD1743912506EE5826E708A
:108BA00003E5836F60EB8A828B83124F108E828F76
:108BB00083124F1C028AB48A458B46740512506E8C
:108BC000C3E0952DA3E0952E4003029250E52D249D
:108BD000FEF52DE52E34FFF52EEEFAEFFB852D8206
:108BE000852E83E012927912506E1292A440CC022C
:108BF0008CCA743912506EE5826E7003E5836F6023
:108C0000908E218F22AE27AF287A1079FF12634908
:108C1000852182852283124EEC028B6A85458285EE
:108C20004683E064286003028CCA85234585244678
:108C3000854582854683E0F9749F697003028CCA7A
:108C400018E62402FA08E436FB74A469705CA3E019
:108C5000F974A769600574A869706F8A828B83E0D4
:108C600064297066854582854683A3A3A3858245D2
:108C7000858346743912506EE5826E7003E5836F0A
:108C80007003028B918E218F22AE27AF2874A769C3
:108C900070047A5280027A577900127081E9852136
:108CA0008285228312B6AC028AB8742269702F8A38
:108CB000828B83E064227026854582854683A3E00B
:108CC00024BFC3941A5003028AB8E549700375495A
:108CD000027A007B007C007D00743902D05174BFA1
:108CE00029C3941A50E4854582854683A3E064290C
:108CF00070D8743912506EE5826E7003E5836F7020
:108D000003028B918A458B46AA41AB421292CF70E7
:108D1000B91292ABF8A3E034FFF912D170028AB411
:108D2000741912506EE582652D7004E583652E700E
:108D300003028B91740712506EE0F98E238F247416
:108D4000027823125000E523C399852D82852E8356
:108D5000A3F08014741912506EE582652D7004E53D
:108D600083652E7003028B91852D82852E83E525E8
:108D7000F085212D85222E752601028ABBE52D2442
:108D8000FEF52DE52E129299F86428602D1292744A
:108D900012506E1292A44003028CCA7409125078C9
:108DA000E52D687003E52E6970D3740412506EE0EF
:108DB00064026003028CCA028BBBE52D2402F52DF0
:108DC0005002052E028AB890034B12B89490872166
:108DD0007825124EC278217925124C2D908715786E
:108DE00025124EC278217925124D468E828F8378C6
:108DF00021124ED1028EDD12927412506E1292A484
:108E00004003028CCAE52D24FEFAE52E34FFFB8ACE
:108E10002DF52E8A82F583E0F8642870DAA3E0FC51
:108E2000740712506EE0F98E218F2274027821129D
:108E30005000E521C399C39CFC7409125078EA687C
:108E40007002EB69700D740412506EE064017003DF
:108E5000028BBB740512506EC3E0952DA3E0952ED6
:108E60004003028ABBEA24FEF52DEB129299F52508
:108E7000EC7071EE2404F529E43FF52AE525247E03
:108E8000603B24B7600D147003028DC724FC60178B
:108E9000028CCA8E218F22AE29AF2A1270458521FD
:108EA000828522830290718E218F22AE29AF2A798A
:108EB0000012926B8521828522830290C9794C78B9
:108EC0004EE7C396FA0809E796FBEAF8EB3395E01C
:108ED000FA8E828F83E812B667EAF0A3F0AE29AF6C
:108EE0002A028D7774016C600302912B12928C120E
:108EF0004EC2E525246A700302905B147003029051
:108F00006114700302906724D0601924FE603B2432
:108F1000FC604D24FE70030290B324DF70030290C6
:108F2000770290CF90872D78211243FD400578215C
:108F3000124D878521258522268523278524281201
:108F4000D0BF7825124ED1028D771270BD8A258B45
:108F500026E4F527F52878257921124D460291A5BA
:108F60009086E578211244435003028CCAE52175AE
:108F7000F007A4F521A8F075F007E522A428F52252
:108F8000742F2521F52974033522F52A852982F5C8
:108F900083A3E07003028CCAE5292402F52BE43593
:108FA0002AF52C852982852A8312B851124DCB903F
:108FB00086CD7825124DFD852B82852C8312B8DD58
:108FC000124E89AA25AB26AC27AD281262FB8A2156
:108FD0008B22A821A922EA496072852982852A83E9
:108FE000A3A3A3A3E0FA88828B83A3A3E06A7057AC
:108FF000852982852A8312B7D3F5223395E0F5239C
:10900000F52474107821124DCB9086CD7821124D25
:10901000FD852B82852C8312BE9F852982852A831C
:10902000A3A312CC81124F978A258B26E4F527F54E
:109030002878217925124E89AA21AB22AC23AD24B0
:109040001262FBEA4B6005752100800375210175F2
:1090500022007523007524000291A5AA21790080C1
:109060000AAA2179018004AA21790212639D12D0F3
:10907000BF124EEC028D77852226E52654806003D0
:10908000028CCA852125AA25E526540FFBC394042A
:10909000400D9086C578211243FD4003028CCAEE34
:1090A00024FCFCEF34FFFD127207E96003028CCA56
:1090B000028D77E52145224523452460047901800E
:1090C00002790012926B12D0BF12B666EC804F7418
:1090D000BF2525C3941A504C1292C96003028CCA52
:1090E00090872D78211243FD4003028CCA1292B55D
:1090F000F525A3E034FFF526E4F527F52878257952
:10910000211243D34003028CCAEA2521F582EB35B4
:1091100022F583E0FA12D0BFEAF0A3E4F0A3F0A3B3
:10912000F0028D778A2D8B2E028D7774026C60038E
:10913000028CCAEE24F812928F124EC27821124489
:10914000629086B97825124EC27821792512468818
:1091500012D0BF7829124EC278291244629086B983
:109160007825124EC278297925124688EE24FCFE15
:10917000EF34FFFF78291252A1AA21AB22AC23AD14
:109180002412726D74041250388A218B228C238D24
:10919000249086B57825124EC2782179251246880A
:1091A00078211244DA12928C124ED1028D77E52684
:1091B000A2E050037525C3A825743728F582E4344E
:1091C00084F583E0F5217409125078E52D68700369
:1091D000E52E696051E52D24FEF8E52E34FFF9886F
:1091E00082F583E0FC744F2CFAC39413503874E872
:1091F0002AF582E43484F583E0FAE521C39A402617
:10920000882D892EEEFAEFFBECF91263678A238B27
:1092100024A823A924EAFEEBFF740212506E1292D6
:10922000A440A3028CCA741912506EE582652D7099
:1092300004E583652E7003028B91852D82852E8334
:10924000E525F0E52D2402F52D5002052E028D773F
:10925000741D12506EE5826E7003E5836F60030229
:109260008CCA12D0BF124EE0028CD912708DEB3333
:1092700095E0FC22EEFAEFFBE8F91263678A218B96
:1092800022A821A922EAFEEBFF740222EE24FCF5BB
:1092900082EF34FFF58378212234FFF52E852D826D
:1092A000F583E022C3E098A3E099228541828542BC
:1092B000831292C1228541828542831292BF22E0AD
:1092C000F812CC70A3E024F422AA41AB42A92512E3
:1092D000634F85418285428312B7C6E064022274DF
:1092E000F61250927A007B0C12717D9002E612BE4B
:1092F0004E7C007D0C79001270B79002E612B8B770
:109300002494F582E8340BF58385824A85834B8566
:109310004A4CF54D9002E612CC841262D78A478BF4
:10932000488A4E8B4F7F0202516474F41250927A35
:10933000A37B8312633D7A207B8512633D12B5DEE9
:109340007A317B8712633D80031250387F040251CB
:109350006474F61250921270211263731293C390C8
:1093600086A5124EE01262FBEA4B60379002E6C31C
:10937000E09547A3E09548502A9002E612CCA4F865
:10938000A312CDF81252BC75210078211252A99077
:109390008699124EE0790312702D740312503879B9
:1093A0000180027900029325C082C083800C79007D
:1093B0007A007B0012638B1293C312700FE970EE78
:1093C00002837AAC4CAD4D784EE62402FA08E436BE
:1093D000FB1270092274E812509274E71250227442
:1093E0000A12506EE9F0EAFEEBFFE0A2E15009122A
:1093F00070459002EA124EEC754900EE4F604890BD
:1094000002E8EEF0A3EFF0740A12506EE0A2E05012
:109410001E784CE624FD12B623500302A1B78A4CF5
:109420008B4D8A828B837404F0A314F0A3E4F012B2
:10943000B8868A828B8312B815EA9547EB95485017
:109440000302959202977F9002F4E4F0A3F0854E18
:1094500082854F83A3A38582458583461263257E3B
:1094600000740212506EEEF004FEE0FA7845E62A2F
:10947000F58208E436F583E0640A70E5EEF8C3E4AB
:1094800098F52195E0F522EEF52375240078231256
:1094900052A5AC45AD46784C12BAC712701B740287
:1094A000125038784CE62521FA08E635228A45F52F
:1094B0004612633112631F9002E812CF1B701F85A2
:1094C0004743854844854E82854F83A3A3858245C3
:1094D000858346E0640A600302959202957F9002BC
:1094E000E8E0F47003A3E0F470030297781263617C
:1094F0007845E624FDFA08E634FFFB8A45F546A8E0
:1095000045AA4CEAC398FE9002E812CC4B854582EE
:109510008B8312B69FEE8545828B83A3A3F085458E
:10952000828B83A3A3A3E0640A700F9002E812CC9D
:10953000841263018A478B48803F90029FE0D2E209
:10954000F0AA4512B52D7026AC4CAD4D9002E61236
:10955000CC84EEF9126313AA45AB4612B52D700EFA
:1095600090029FE0C2E2F07902741902CB9390025C
:109570009FE0C2E2F08847894885474E85484F12F0
:1095800093C3790180E3E9600302A04185824585A8
:109590008346A845A94688828983A3858245858319
:1095A0004688828983E0F5217845E6240212B631A7
:1095B000AE47AF48A843A944E5211252E9802813D9
:1095C0009678979B96B49633974E976797D697D68B
:1095D0009778A00498299895A1D596D5968298C990
:1095E000A20C99D59635998199A799F999279A2727
:1095F0009A279A779A879AE89A5D9BC19B249C78D0
:1096000097AAAED89C079D309D409D759DB99EE060
:109610009E1A9F8A458B46E521C39480400302979A
:1096200078AA41AB421263558A218B2285458285F7
:109630004683E064BD6003029778EA4B701812CF4E
:1096400015700302977885418285428312B7F464CE
:10965000026003029778754900854582854683A399
:10966000858245858346EA4B700302A1EE12B587D9
:1096700012506E124EECE54960030297781292D2B6
:10968000600302A1DB740612506E7825124EC2856B
:109690002182852283E525F002A2597E01126331E1
:1096A000854582854683E0640A600302977812B894
:1096B0008602A28712B5DE794C784EE7C396FA0887
:1096C00009E796FB3395E0FCFD790012632B7ABF26
:1096D0007B8412633D854382854483A3A3858243B3
:1096E00085834412B81512B524400302977F740A8B
:1096F00012506EE0A2E140030295921270458A2555
:109700008B268C278D28901AF012B8949002EA7854
:1097100025124E37782179251243D35003029592B2
:1097200085438285448312CCA4FAA3E0FB127033F4
:1097300002957F854582854683E0640A703A12630C
:10974000611263078A478B488A4E8B4F80311263C0
:10975000619002E612BAE8C3E5439547E5449548AF
:1097600050030298768018854582854683E024BFA1
:10977000C3941A500302A18CE5497003754901E5B1
:109780004925E0F8E433F9740E28F582748539F53B
:109790008312CC8412633D12B5235025E549700332
:1097A00002957F12B7DC793E127015793E12701562
:1097B00079201270157A017900126343790A1270C8
:1097C0001574046549600302957F7AEA7B8512630C
:1097D0003D7E0002A03112B58712506E124EECE5AC
:1097E000497095854582854683E0640A708E7406CB
:1097F00012506E124F10E8494A4B60030296D57919
:109800000002A04112B6E260030297788545828586
:109810004683E0640A600302977C1262DD8A438B10
:1098200044C3EA9547EB02975E12B6E260030297E3
:1098300078854582854683E0640A600302977C78D8
:109840004CE624FB12B623500302A1B78A4C8B4D81
:109850008A828B837401F0A37405F0A3E412B6A38B
:10986000E543F0A3E544F012B886C3EA9547EB95CB
:1098700048400302977F85438285448312B7C20222
:10988000958C854582854683E0F874BF28FEC39495
:109890001A4003029778740F12506E12B6F212CB70
:1098A000B564BD6003029778A3858245858346121F
:1098B000B5776003029778A845A94688828983A373
:1098C00085824585834688828983E064D36003026C
:1098D000977C12B5A16003029778A845A9468882B3
:1098E0008983A385824585834688828983E064D401
:1098F000600302A0BA790012636D8A298B2A8C2B2F
:109900008D2CE549600302977802A0C97E00854549
:1099100082854683E064557011A3E06450700B8C1F
:10992000828D83E0640A70027E01126361EEF91297
:10993000705102977885458285468312B71F400390
:10994000029778740212506E12B6F2790112B59134
:109950006003029778EA4B4C4D700302977CE4F564
:1099600025F52678251252A5740412506EE0F912DE
:10997000635B7402125038E54960030297780296DF
:10998000D57F0012B550FEE549600302977812CBEF
:10999000B564D5600302A351A3858245858346EE55
:1099A000F91270270296D512B58712506E124EEC3E
:1099B000E549600302977890872D7821124EC27492
:1099C0000612506E78211243E8500302A3B085437B
:1099D00082854483A3A312CC661252BC7521007801
:1099E000211252A9740912506E124EE079031270BE
:1099F0002D740312503802957F12B58F60030297C1
:109A000078EA4B4C4D700302A3CA741412506E7462
:109A100007F0741512506E740112B6AC7412125025
:109A2000801263AF0296D58A458B46126397740500
:109A300012506EE9F0E5496003029778854582850A
:109A40004683E064BD600302977CA38582458583DD
:109A50004612B58712506E124EECE549600302972C
:109A600078740612506E124F10E8494A4B70030288
:109A7000A1BD780302A1BFC3E89EE99F500302A4E1
:109A8000D275490702977F9003197401F09003176C
:109A900012CF1B700A90031774F8F0A37402F085BC
:109AA0004582854683E0F523752117752203246FCF
:109AB000700302A8AA24A5700302A68814601024CB
:109AC000FE700302A69814700302A75F02A90C128D
:109AD000B8E5500302AE9D12B8F77405F090031775
