:020000040000FA
:10400000BF1EFFFF0100007C42424242FFFFFFFF54
:10401000FFFFFFFFFFFFFFFFFFFFFFFFFFFFFFFFB0
:10402000000102030405060708090A0BFFFFFFFF52
:104030000243A8025DEEFFFFFFFFFFFFFFFFFFFF50
:10404000FFFFFF026296FFFFFFFFFFFFFFFFFFFF83
:10405000FFFFFFFFFFFFFFFFFFFFFF026212FFFFF7
:10406000FFFFFF02560DFFFFFFFFFF0262E6FFFFAB
:10407000FFFFFF0261ECFFFFFFFFFF02566AFFFF39
:10408000FFFFFF025E64FFFFFFFFFFFFFFFFFFFF79
:10409000FFFFFFFFFFFFFFFFFFFFFF025518FFFFBE
:1040A000FFFFFF02622CFFFFFFFFFF025582FFFFB1
:1040B000FFFFFF025C4B027F8701000067870283DE
:1040C0008701000094871091850300008602028713
:1040D0008703000081020285870100004386028376
:1040E000870100009387108185020000000002878D
:1040F000870300008302028587010000138600B059
:10410000010000000F81DD8177811684A4809D82EB
:1041100000802B86AB8344844E863E82E88200007A
:10412000030000010000000000000000140030FF48
:104130000000B4000028002800283075A000A0006E
:10414000A000A00000080008E001F000100010002E
:10415000100010001000100050005000500010001F
:104160001000D0070000000000000F000100050053
:10417000307507001000010081FF00000000FFFF04
:10418000FF9366B1669966CF66FF0202020802508D
:1041900000A0000000E803027F87010000618702A1
:1041A0008387010000521D028987010000C20302BB
:1041B0008387010000531D028B87010000D8030292
:1041C0008387010000541D028D87010000DA03027D
:1041D0008387010000551D028F87080000DB030262
:1041E0008387010000561D027187010000571DFFE3
:1041F0000100FF20027F870100005E8702838701A4
:104200000000BB1D026D87000000000002878703CD
:104210000000090417001D6D1D6D1D6D1D6D1D6DC8
:104220001D6D1D6D1D6D1D6D1D6D1D6D1D6D1D6D3E
:104230008D6F9F6F876F02027F8701000064870286
:1042400083870100009687026F87010000470802FC
:10425000838701000077860277870100001F8602AE
:1042600083870100009787029187010000A18402E3
:10427000838701000098870275870100004085024E
:104280008387010000FE1D0279870100007E860100
:10429000FFFF00307503020106000000000000006F
:1042A000000000000000000000000000000000000E
:1042B0000000000000FFFF0600800CE8030900007A
:1042C000000000000000000100B0423BAAB83F001F
:1042D00000003F8C906339AA0CA33A00941E3C80E6
:1042E00042633DCFFE753E1572313F0000803FF3C3
:1042F00004353F8096184B000080BF2292D43EDDEB
:104300009B2A3F04000040FFFF7F7FFFFF7FFF01EC
:104310000080341872313FC503423F1A51123FF3F7
:1043200004B53F0000803EE5C754F84404F5C77962
:10433000012200000080FB124327B90003024392D0
:10434000E479437815B800028004F709D8FCE479D1
:10435000587802B800028004F709D8FCE490028083
:1043600078FF791A8002F0A3D8FCD9FA7A7E7B1CF8
:104370009040B6787279038015E493A3AD82AE8342
:104380008A828B83F0A3AA82AB838D828E83D8E945
:10439000D9E77582287583A374051243BA758232F2
:1043A00075834374001243BA75D00075815F7541FF
:1043B00080754202759F00024337C09FF59FE473EA
:1043C000D09F22D083D082C09FE493C0E074019339
:1043D000C0E0740293F59F22A2E792D65002F40443
:1043E00030F70663F0FF05F0B3400384800384F4E4
:1043F0000430D60563F0FF05F022E066701008A3D4
:10440000E066700A08A3E066700408A3E06622C3B1
:10441000E7960809E7960809E7960809E796A2D201
:1044200065D03322C3E09608A3E09608A3E096087F
:10443000A3E096A2D265D03322C021C3E096F52135
:1044400008A3E096422108A3E096422108A3E09643
:104450004221A2D265D033E5217001D3D02122C3FD
:10446000E7960809E7960809E7960809E79622C340
:10447000E09608A3E09608A3E09608A3E09622C081
:1044800021C3E096F52108A3E096422108A3E09617
:10449000422108A3E09645217001D3D021220808CB
:1044A00008E630E711124DC01244B6080808C644A9
:1044B00080C618181822181818E9799EC608CAC6A6
:1044C00008CBC608CCC6C370207996CACBCC70196D
:1044D000798ECBCC70137986CC700EF9802ACA33D2
:1044E000CACB33CBCC33CC331930E7F2CCCBCA3385
:1044F00050147004EA30E00DE4CA3ACACB3BCBCC8E
:104500003CCC500209C3E913C6CC182313C6CB1800
:10451000C6CA18C6F92212455620F01430E72B748B
:10452000FFFCFBFA747F8022E4FCFBFA7480801AA3
:10453000B48008BC00F2BB00EF800F50EBF9E4C37D
:104540009AFAE49BFBE49CFCE499C6CC18C6CB1811
:10455000C6CA18C6F922E4C9C608CAC608CBC6D35B
:10456000330308CCC63392F0C3947F402E94184096
:1045700019C9B90704CACBCC225025C309CA33CA0A
:10458000CB33CBCC33CC33D9F422F4600DC9CCC3BC
:1045900013CB13CBCA13CAD9F6CC22E4FCFBFA2204
:1045A00014FCFBFA22E62618461846184622E7278E
:1045B00019471947194722181818E60846087009BC
:1045C000E626087005E633F4220822191919E709CE
:1045D00047097009E727097005E733F4220922E645
:1045E000084608C3134608336002E633F422E7099D
:1045F0004709C3134709336002E733F4221245DF4A
:1046000060251245EE60201245A570030245AE08F4
:104610000808E76670101819E766700A1819E76647
:1046200070041819E76622F4221245DF601C124557
:10463000EE60171245A570071245AE7001D322C077
:10464000D01245AE7006D0D0B322C32233D0D050A2
:104650001430E0F6C3E7960809E7960809E79608DC
:1046600009E796B32220E0D5E6970809E6970809FE
:10467000E6970809E697B3221245DF601B1245EE64
:1046800060161245A570071245AE600CB322C0D06B
:104690001245AE7005D0D022C32233D0D050133093
:1046A000E0EBC3E7960809E7960809E7960809E7EB
:1046B000962220E0E4E6970809E6970809E69708BD
:1046C00009E69722001245DF604F1245EE6012E7BF
:1046D000548066F61245B770111245AE703B090959
:1046E00009F4F618F618F618F6221245CB701512D2
:1046F00045A508080860EAE6447FF618768018E4C5
:10470000F618F6221245A560161245AE7012E4F6B0
:1047100008F608F608E65480F60909091818182260
:10472000EAC0E0EBC0E0ECC0E0EDC0E0E687F0A45A
:10473000FBACF008E687F0A42CFCE435F0FA18098D
:10474000E687F0A42C4B60027401CA35F0FCE43318
:10475000FB09E687F0D2F7A42CCB35F0FC1908E66C
:1047600087F0A42BCC35F0FBE433FD0819E687F085
:10477000D2E7A42C4ACB35F0CD3400FC09E687F013
:10478000D2E7A42DCC35F0FDE433FA0918E687F022
:10479000D2F7A42CCD35F0CA3400FC08E687F0D25D
:1047A000E7D2F7A42ACC35F07A7E20E70B0ACB3388
:1047B000CBCD33CDCC33CC33CB3350147004ED3070
:1047C000E00ED2F1E4CD3DCDCC3CCC3B5005DA053A
:1047D000C2F1EB547FC63308E63392F0FBE73309AE
:1047E000E733C39A502D2B70190C0D4C4D701518D2
:1047F00006E608C333700D20F10AA2F013F6E418A0
:10480000800B4024E4F630F002768018F618F61893
:10481000F68024D33B14501074FFA2F013F61876E0
:1048200080E418F618F6800FA2F013F618E63303AA
:10483000F618ECF618EDF6D0E0FDD0E0FCD0E0FB89
:10484000D0E0FA221245EE60461245DF603DE9688D
:104850007008F618F618F618F622748067F71248F2
:1048600078090909748067F7221245DF601D124537
:10487000EE7005191919801A1245B7701F1245CB31
:10488000C37003E66733191919400718181822086E
:10489000080874FFF618F618F618F6221245CB60D1
:1048A000171245AE702192F01245A57019501720CD
:1048B000F014080808090909E7F61819E7F61819A5
:1048C000E7F61819E7F6221245A560E6E869701FB9
:1048D0000808E62480F608E436F618547FB47F0C06
:1048E000E654806007F6E418F618F622181822E954
:1048F000C6CC08C6CD08C6CE08C6CFC0E0E8C0E02A
:10490000EAC0E0EBC0E009E9F809E7FA09E7FBE6ED
:10491000F918E6F8C3EC98ED99EE9AEBC2E7F5F0DA
:10492000EFC2E795F0500E600CEBCFFBEACEFAE950
:10493000CDF9E8CCF8EAA2E7D2E7FAEB33FB13F5BE
:10494000F0EEA2E7D2E7FEEF33FFC5F013A2E730A7
:10495000E601B313C5F0C3C0E0C0F07F00C39BFB0A
:10496000605E9418600F401D14601AD0E023F9D0E7
:10497000E0F8024A4A8AF0E9486003D2F0E4AFF076
:10498000FAF9F8803BEB30E40D89F0EA6003D2F0ED
:10499000E4AFF0F9CAF8EB30E30D88F0EF6002D233
:1049A000F0AFF0E4CAC9F8EB54076014FBC3EA1394
:1049B000FAE913F9E813F8EF135002D2E0FFDBED48
:1049C000D0E0C0E030E739C3E49FFFF5F0EC98FC9D
:1049D00042F0ED99FD42F0EE9AFE42F0D0E0F9D0BF
:1049E000E0F8E5F0607AE923F9EE20E742D80280AA
:1049F00067C3EF33FFEC33FCED33FDEE33FE80EAAB
:104A0000EC28FCED39FDEE3AFED0E023F9D0E0F8D9
:104A10004002801BC3EE13FEED13FDEC13FCEF13FD
:104A20005002D2E0FF08B800067F7F74FF802EEFAF
:104A30003350178CF020F00260100CBC000C0DBD40
:104A400000080EBE000408E860DFE933E813FFEE5B
:104A50002313FE4F4D4C8008E95480FFE4FEFDFC1B
:104A6000EE33EF33F47004FCFD7E80D0E0FBD0E049
:104A7000FAD0E0F8D0E0CFC618CEC618CDC618CC14
:104A8000C6F9221245DF7004181818221245EE707C
:104A90000D74FFF61819F61819F61819F622E754CE
:104AA0008066F61245A5700F1245AE70F014F60838
:104AB000F608F608F680D11245AE700CF608F60836
:104AC000768008E6447F80EC1245CE700C1245BA21
:104AD00060BFE65480F6E480BB1245BA7005191930
:104AE0001980A5E869700C763F18768018F618F6DC
:104AF000E8F922E6CDC0E018ECC0E0E633CD33CDD6
:104B0000D313F6E719FCE7191933CC33C3947F406C
:104B10000ECD9D502408E65480F6E418F6800FF47C
:104B2000043D14501408E6447FF6187680E418F625
:104B300018F6D0E0FCD0E0FD22CCD313CCFD18E475
:104B4000C6CBC0E018E4C6CAC0E00808ED08C6330A
:104B5000E613F618E433C675F003C3CA97CA09CB47
:104B600097CB199C40047D08802EBD0003024C2C7D
:104B700016B6FF050606081618C3CA33CACB33CBD0
:104B800033CA27CA09CB37CB193CC37D08803E18EE
:104B90007D0820E75CC633C6CA33CACB33CB33DDCE
:104BA000F1D5F0EB30E77BCA97CA09CB974ACB190E
:104BB0009C406F4B7025E620E0218066187D08C37D
:104BC000CA97CA09CB97CB199CD3C633C6CA33CA76
:104BD000CB33CB3350C9DDE7D5F0E1D3E4C636C6DD
:104BE00008C636C608C636C608C636C6181818809F
:104BF00031C3CA97CA09CB97CB199CB34097C63328
:104C0000C6CA33CACB33CB33DD34D5F02EC6A2E0CF
:104C1000C640C8CA27CA09CB37194A70BECB3CB4B4
:104C200080B90808E63308E633601F181818D0E08A
:104C3000FAD0E0FBD0E0FCD0E0FD22187D08CA27C6
:104C4000CA09CB37CB193CD3808013F618E4B67F62
:104C500011F618B6FF0EF618C60470D20808768052
:104C600080CAF618F618F680C5080808EAC0E0EB16
:104C7000C0E086F0E7A4FA180986F0E7A42AFA183B
:104C80000986F0E7A42AFA180986F0E7A42AFA1997
:104C900086F0E7A4FBE5F02AFA190886F0E7A42BD2
:104CA000FBE5F03AFA190886F0E7A42BFBE5F03AA9
:104CB000FA18180986F0E7A4C5F02BFBE43AFA19B4
:104CC00008E7C5F0C6A426F6E5F03BFBE43AFA187F
:104CD00086F0E7A4F6E5F00826F6E43B08F6E43AA9
:104CE00008F6D0E0FBD0E0FA22E4CFC0E0E4CEC08A
:104CF000E0E4CDC0E0E4CCC0E075F020E626F608A4
:104D0000E633F608E633F608E633F6181818EC33FF
:104D1000FCED33FDEE33FEEF33FFC3EC9709ED9767
:104D200009EE9709EF97191919400FFFEC97FC0945
:104D3000ED97FD09EE97FE191906D5F0BFECF709BE
:104D4000EDF709EEF709EFF7191919D0E0FCD0E0FB
:104D5000FDD0E0FED0E0FF22124DC3181818124C0F
:104D6000E9124DAF19191922124DAF191919080876
:104D700008E618181820E7E0124CE9124DC318187D
:104D80001822090909E719191920E7DC080808E6BB
:104D900018181820E703024CE9124DC3181818120E
:104DA0004CE9124DC3181818124DAF19191922E405
:104DB000C397F709E497F709E497F709E497F7220F
:104DC000181818E4C396F608E496F608E496F60870
:104DD000E496F6226017080808C6A2E713C618C6AC
:104DE00013C618C613C618C613C6D5E0E922601646
:104DF000080808C6C313C618C613C618C613C618B3
:104E0000C613C6D5E0EA2270090808082260161801
:104E10001818C6C333C608C633C608C633C608C684
:104E200033C6D5E0EA22E627F60809E637F6080990
:104E3000E637F60809E637F622E026F608A3E0365C
:104E4000F608A3E036F608A3E036F622E026F008DE
:104E5000A3E036F008A3E036F008A3E036F022C362
:104E6000E697F60809E697F60809E697F60809E6D0
:104E700097F622C3E0C696F608A3E0C696F608A306
:104E8000E0C696F608A3E0C696F622C3E096F008C0
:104E9000A3E096F008A3E096F008A3E096F022E0E5
:104EA00056F608A3E056F608A3E056F608A3E05627
:104EB000F622E056F008A3E056F008A3E056F0080A
:104EC000A3E056F022E647F60809E647F60809E6A9
:104ED00047F60809E647F622E046F008A3E046F068
:104EE00008A3E046F008A3E046F022E066F008A33D
:104EF000E066F008A3E066F008A3E066F022E0F6C2
:104F000008A3E0F608A3E0F608A3E0F622E6F0081E
:104F1000A3E6F008A3E6F008A3E6F022E0FAA3E097
:104F2000FBA3E0FCA3E0FD22EAF0A3EBF0A3ECF08E
:104F3000A3EDF022E0FCA3E0FDA3E0FEA3E0FF224E
:104F4000ECF0A3EDF0A3EEF0A3EFF022E0F8A3E085
:104F5000F9A3E0FAA3E0FB22E8F0A3E9F0A3EAF06A
:104F6000A3EBF022CAC0E0E6F0A308DAFAD0E0FA38
:104F700022CAC0E0E0A3C582CCC582C583CDC5836B
:104F8000F0A3C582CCC582C583CDC583DAE6D0E067
:104F9000CA22C3E498F8E499F9124FD38026C3E4F7
:104FA0009AFAE49BFBE920E7E9124FD3E498F8E48E
:104FB00099F922C3E498F8E499F9124FD3E498F8E8
:104FC000E499F9C3E49AFAE49BFB22EB20E7CFE9EA
:104FD00020E7E0B90010BB0008E88AF084F8AAF0E6
:104FE00022E4FBC8FA22EB70227B10C833C8C93315
:104FF000C9335007C39AC3DBF280069A50012ADBFB
:10500000EAC833F4C8C933F4C9FA2275F008E4C811
:1050100033C8C933C933C99AC99B5004C92AC93B8B
:10502000D5F0ECFBC833F4C8E4C9FA22600D08C619
:10503000A2E713C618C613C6D5E0F322600C08C653
:10504000C313C618C613C6D5E0F422700422600D3F
:1050500018C6C333C608C633C6D5E0F418222541A6
:1050600010AF08F541400C15428008F5414002158B
:1050700042D2AF2200C0D0254110AF08F541500CFC
:1050800005428008F54150020542D2AFD0D022251A
:1050900041F58210AF08F541400C15428008F541FA
:1050A00040021542D2AF854283222541F582E43584
:1050B00042F583222541F8E43542F9222541FAE4FC
:1050C0003542FB222541FCE43542FD22E4732541B3
:1050D000C582C0E0E54234FFC583C0E0E541C39529
:1050E0008224F810AF088583428582418008858339
:1050F00042858241D2AFCEF0A3E520F0A37821E62D
:1051000008F0A3DEFAEFF0A3E58124FAF8E608F050
:10511000A3E608F0A3E608F0A30808E608F0A3E673
:1051200008F0A315811581D0E0FED0E0F8158115B7
:10513000811581E8C0E0EEC0E0222541C582C0E0D3
:10514000E54234FFC583C0E0E541C3958224F910F0
:10515000AF088583428582418008858342858241EC
:10516000D2AFCEF0A3E520F0A37821E608F0A3DECD
:10517000FAEFF0A3E58124FBF8E608F0A3E608F0D7
:10518000A30808E608F0A3E608F0A315811581D06E
:10519000E0FED0E0F815811581E8C0E0EEC0E02225
:1051A000854283854182E0A3FEE0A3F5207821E0DB
:1051B000A3F608DFFAE0A3FFE0A3C0E0E0A3C0E0AD
:1051C000E0A3C0E0E0A3C0E0E0A3C0E010AF08852A
:1051D00082418583428008858241858342D2AFD057
:1051E00083D0820243C0854283854182E0A3FEE0F2
:1051F000A3F5207821E0A3F608DFFAE0A3FFE0A3FF
:10520000C0E0E0A3C0E0E0A3C0E0E0A3C0E010AFD6
:10521000088582418583428008858241858342D208
:10522000AFD083D08222C0D02541C582C0E0E54204
:1052300034FFC583C0E0E541C3958224F310AF0875
:105240008583428582418008858342858241D2AF31
:10525000C8F0A3E9F0A3EAF0A3EBF0A37921E709F2
:10526000F0A3D8FAECF0A3EDF0A3EEF0A3EFF0A3D7
:10527000D0E0F0A3D0E0F0A3D0E0F0A3E520F0A3CD
:10528000E5F0F0A322854283854182E0C0E0A3E0FF
:10529000F9A3E0FAA3E0FBA37821E0F608A3DFFA84
:1052A000E0FCA3E0FDA3E0FEA3E0FFA3E0C0E0A3D9
:1052B000E0C0E0A3E0F5D0A3E0F520A3E0A3F5F083
:1052C00010AF0885834285824180088583428582AC
:1052D00041D2AFD082D083D0E0F8D0E032740480E5
:1052E00006740280027401C0E0F40412508FD0E012
:1052F000124F64227404800474028000CCC0E0ED7C
:10530000C0E0E541C39CCCAD4250011D10AF068CFE
:10531000418D4280068C418D42D2AF124F71D0E058
:10532000FDD0E0FC22D083D082C5F0E493A3C5F089
:10533000C395F0F5F0E493A3C395F04005E5F004C0
:105340008001E475F002A42582F582E5F03583F54D
:1053500083E493A3C0E0E493C0E022D083D082E949
:10536000C0E0E493A3C386F0C5F095F0F908E49398
:10537000A386F0C5F095F0700BE493A3C3994005A4
:10538000E9048002A3E475F002A42582F582E5F029
:105390003583F583D0E0F9E493A3C0E0E493C0E063
:1053A00022D083D082E9C0E0E493A3C386F0C5F0A5
:1053B00095F0F908E493A386F0C5F095F070240801
:1053C000E493A386F0C5F095F0701908E493A386E2
:1053D000F0C5F095F0700E08E493A3C3994007E977
:1053E000048004A3A3A3E475F002A42582F582E55A
:1053F000F03583F583D0E0F9E493A3C0E0E493C0F3
:10540000E022D083D082CCC0E0E493A360061254A3
:105410002C1470FAE493A3600612544B1470FAD063
:10542000E0FCE493A3C0E0E493C0E022C0E0E49396
:10543000A3D39C5010E493A3C39C400AD0E0D0E0D7
:10544000D0E002541FA3A3A3D0E022C0E0E493A3C2
:105450006C7009D0E0D0E0D0E002541FA3A3D0E0EC
:1054600022D083D082ECC0E0EDC0E0E493A3FCE462
:1054700093A3FDED4C600D1254ADEC24FFFCED3414
:10548000FFFD80EFE493A3FCE493A3FDED4C600DDE
:105490001254ECEC24FFFCED34FFFD80EFD0E0FD76
:1054A000D0E0FCE493A3C0E0E493C0E022C0E0C3FA
:1054B000E49396087401939618400FE4936670087D
:1054C00008740193661870007019A3A3C3E493963F
:1054D000087401939618A3A3400DD0E0D0E0D0E06B
:1054E00002549DA3A3A3A3A3A3D0E022C0E0C0F0D5
:1054F00088F0E4936670080874019366187000A839
:10550000F0A3A3700BD0F0D0E0D0E0D0E002549D27
:10551000A3A3D0F0D0E022FFC0E074EF125226A285
:10552000AFE433FFD2AFA889E5AB58F5216049F469
:10553000F589C2C59008787401F07E00EEF52375F8
:1055400024007402782312504B1255F7E9FBEA4B02
:10555000701F1255EBB800028004C313D8FCA2E000
:10556000500F752300752402EE782312504B12550C
:10557000DE0EEEC3940440C4EFA2E092AF7F0402BB
:105580005285C0E074EF125226A2AFE433FFD2AFCF
:10559000A88AE58D58F5216043F4F58AC2EB7E00B8
:1055A000EEF5237524007402782312504B1255F740
:1055B00074406A49701F1255EBB800028004C3138F
:1055C000D8FCA2E0500F752300752402EE78231258
:1055D000504B1255DE0EEEC3940440C4809AAA23A9
:1055E000AB24900280E0F912723F22E813131354A7
:1055F0001F5407F8E5212274092523F58274093523
:1056000024F583E0F8A3E0F9E854C0FA22C0E0747E
:10561000EF125226A2AFE433FFD2AFA88BE5AC580D
:10562000F5216043F4F58BC2E87E00EEF523752486
:10563000007402782312504B1255F774806A497037
:105640001F1255EBB800028004C313D8FCA2E0502F
:105650000F752300752402EE782312504B1255DE8D
:105660000EEEC3940440C4025578C0E074F21252A6
:1056700026A2AFE433FED2AFA8AFE8A2E0501D757A
:10568000AFFE90037BE0F8A3E0F9E849900379606E
:1056900005E042808019E0F452808013A2E3500FAD
:1056A00075AFF77A007B02900280E0F912723FEE4C
:1056B000A2E092AF7F0102528574F612513AEAFEDF
:1056C000EBFF8C218D22EA2434F8E43FF9E8FCE971
:1056D000FDEA2435125A60FAEE2437125A60F88532
:1056E00021F0A4C885F0238522F0A42523F9EA2817
:1056F000F8E439F97A257B00124FD3EA8C828D8346
:10570000F0FA131313541F125A54245DF582E4392E
:10571000F583E0C0E074075AF8D0E0B800028004D6
:10572000C313D8FCA2E0EE50082434F582E43F8095
:10573000142436125A60F5F0EA84A8F0125A55245F
:1057400038F582E439F583E0F97F030251E674F716
:1057500012513AEAFEEBFFEA2434125A60C0E0EA42
:105760002435F582E43FF583D0E0F08A828B83A371
:10577000A3A3A3A3A3A3C082C0838A828B83A3A372
:10578000A3A3A3E0F8A3E0F9D083D082E0C398F507
:1057900021A3E099F522EA2480125A606401703E48
:1057A000EA2481F582E43FF583C082C0838A828B3C
:1057B00083A3A3A3A3A3E0240108A3E03400F9D0AA
:1057C00083D082E0687003A3E06970127CB97D0524
:1057D000126C5DEE2480F582E43FF583E4F0AC21A9
:1057E000AD22EEFAEFFB1256B9E9F91261DE7F0243
:1057F0000251E6C082C083854182854283E0F8A3DE
:10580000E0F9C3EA9CEB9D5010C3EC98ED99401B66
:10581000C3EA98EB995014800EC3EA98EB994007BD
:10582000C3EC98ED994004790180027900D083D0CF
:105830008222EAC39CFAEB9DFB2274EF12513A904C
:105840000479E064086005E06407702A9061C8E0AC
:1058500060249004A7E0F4601DE0F875F010A4C87F
:10586000AAF02AF974A928FE740439FF8E82F58300
:10587000A3A3A3E07003025953906060E0C0E0EE80
:105880002468F582E43FF583D0E0F075252A75267B
:1058900006752100752200E5D914F523E5D95403D6
:1058A000F527602F74036527601DE5236008EE244B
:1058B00067125A60601D900625E06401602C125A40
:1058C0005D601278048010125A5D602CE523C39449
:1058D00005502580637800E523C398FA95E0FB1214
:1058E0006B138A218B22EA4B7005126E7980641249
:1058F0005A5D70048A258B26E523601285258285F2
:105900002683F524E5D9F0A31524E52470F6125A70
:105910005D604574FC2523F52378251252E1AC2304
:10592000A927EEFAEFFB126D177402125074E9709A
:1059300027AA21AB22127275793D8E828F83A3A391
:10594000A3A3E0FA7B0012697BEEFAEFFB126C81F5
:10595000126D297900025A4F740365276053E523BD
:10596000F529752A0078291252E1AC25AD26AA2125
:10597000AB22126CDB7402125074EE2468125A606F
:1059800064807004747F8001E0F52578251252E56B
:10599000E527F52578251252E5A923AC21AD229003
:1059A00004A7E0FA7B001269517402125074025A83
:1059B0004A852582852683E0C3940E5011E0F87451
:1059C000CF28F582E43485F583E065236069852579
:1059D00082852683E0C0E0EE24F7F582E43FF5837C
:1059E000D0E0F0A2AFE433FCC2AF7A0080010AEE4F
:1059F000246E125A60F8EAC3985013EA125A5424DB
:105A00006AF582E439F583E0640770E28022EE24CF
:105A10006EF8E43FF9E0FAEE2AFAE43FFBEA246A82
:105A2000F582E43BF5837407F088828983E004F013
:105A3000ECA2E092AF8013900479E06408600BACB4
:105A400025AD26EEFAEFFB126DA1126E8579017F6E
:105A50000A0251E6F8EE28F8E43FF9E822EE248441
:105A6000F582E43FF583E02274F112513A74FC129E
:105A7000505EEAFEEBFF8922752600A2AFE433F503
:105A800021C2AF9005C1E0FA9061D0E0F87480982F
:105A9000F895E0F9C3EA98E499A2D265D0334003BF
:105AA000025B52752601025B52E0601B78231252A2
:105AB000E1AC27A928EEFAEFFB126D117402125027
:105AC0007474042527F52774012527F5D98528D96D
:105AD000E5276012852382852483F525E0F5D9A387
:105AE0001525E52570F675E195EE2463F8E43FF998
:105AF0007A007B00A2AFE433F523C2AF88828983AA
:105B0000E0FCA3E0FDEC4D603A88828983E0FAA3D3
:105B1000E0FB8C82F583E0FCA3E0FD88828983ECC6
:105B2000F0A3EDF08A828B83E4F0A3F0888289836E
:105B3000E0FCA3E0FDEC4D700A88828983A3A3E416
:105B4000F0A3F0E523A2E092AF1272759005C0E0D9
:105B500004F0EE2463125A60F8A3E0F9E8496063A8
:105B6000EE2463125A602402F8A3E034008882F520
:105B700083E5822402F523E43583F524E0F527A3A9
:105B8000E0F528EE2462125A60640170369061D00C
:105B9000E0F8125A5D60047C0480027C007480C3CB
:105BA00098FA95E0FBE5272CF8E43400F9E82402A4
:105BB000F8500109C3EA98EB99A2D265D0334003AB
:105BC000025AA99061D0E0F87480C3989005C1F0A2
:105BD000E52660539005C0E0604D9005C2E0F89066
:105BE00005C0E0C398500C74026522703A9005C35A
:105BF000E060348E828F83A3A3A3A3E085418285D6
:105C00004283125C3774021250AAE8125C37900586
:105C1000BFE028F074021250C4AA41AB42790112CD
:105C200069A59005C0E4F0E521A2E092AF740412EA
:105C300050747F080251E6F0A3E4F09005C0E0F84C
:105C400022FFFFFF8550878551C622C0E074EB120A
:105C50005226A2AFE433F521C2AF759B009061825A
:105C6000E0A2E0502DE591A2E050277591FE74016D
:105C70006550701E125DC2125DD91252F4125F8D12
:105C80007404125074E9640170057901126E1F12D8
:105C9000583A906182E0A2E5505AE591A2E550544D
:105CA0007591DF900479E064076005E06408702C6A
:105CB000125DC274016550703B125DD91252F4122C
:105CC0005F8D7404125074E9640170057901126EDD
:105CD0001F7901EEFAEFFB125A688018E0640D702C
:105CE0001390049BE004F064287002E4F07A00E072
:105CF000F9126E8B906182E0A2E64003025D97E5A7
:105D000091A2E64003025D977591BF900479E0642B
:105D1000057008126DCB126DD78003126DD17550CE
:105D200000126E2BE990047AF07900126E1F126B4C
:105D3000D37A017B00900478E0F912723F907803E7
:105D4000E064427052900629E014F0704AC2AF122B
:105D50005D52007859D0E0F618D0E0F6E59F540780
:105D600070047BFF80027B7FC4C0E07858E6F52397
:105D700008E65BF524740B782312503CD0E0252311
:105D8000F8906270E0A2E740F8E8C333906272F0E6
:105D9000906270E0D2E0F0906181E0A2E35009E50A
:105DA000E9A2E3500375E9F7A3E0A2E75009E59102
:105DB000A2E7500375917FE521A2E092AF7F080230
:105DC00052859004A7E0F875F010A4C8AAF02AF94B
:105DD00074A928FE740439FF22126DE38E828F832A
:105DE000E0F8A3E0C82416F582E438F58322C0E089
:105DF000C0D0C082C083906183E0A2E05009E5BFBB
:105E0000A2E0500375BFFEE0A2E15009E5BFA2E1A8
:105E1000500375BFFDE0A2E25009E5BFA2E25003C6
:105E200075BFFBE0A2E35009E5BFA2E3500375BFD5
:105E3000F7E0A2E45009E5BFA2E4500375BFEFE02C
:105E4000A2E55009E5BFA2E5500375BFDFE0A2E679
:105E50005009E5BFA2E6500375BFBFD083D082D002
:105E6000D0D0E032C0E074F2125226E5A7A2E6508C
:105E70000FE5A1A2E6500953A7BF75A1BF125EB8F6
:105E8000E5A7A2E5500CE5A1A2E5500653A7DF75F2
:105E9000A1DFE5A7A2E15009E5A1A2E1500375A1A8
:105EA000FDE5A7A2E2500CE5A1A2E2500653A7FB34
:105EB00075A1FB7F0102528574F712513A755001AA
:105EC000900479E064067015126D4D8A828B83A36D
:105ED000A3A3A3A3A3E0FAA3E0FB126DB9A2AFE4CE
:105EE00033FED2AF90047FE0640170187A207B000B
:105EF000900478E0F91273597A207B00900478E0DE
:105F0000F9127245906182E0D2E6F0900626E060D8
:105F10002185C651801690047EE064017008E5C6B4
:105F200054F84405F5C653BEFC125C447401655038
:105F300060E4EEA2E092AF7F020251E68E528F53F0
:105F4000858257858356854182854283E0CEA3E0D2
:105F5000CF855782855683EBC9EAC8EDCBECCA756D
:105F6000F010C3E833C8E933C9EA33CAEB33CBC313
:105F7000EA9EF555EB9FF554B35004AB54AA55EC8B
:105F800033CCED33CDD5F0DAAE52AF532274F112EB
:105F9000513A8A218B228C238D249086FA78211203
:105FA0004E9F740F1250AA7825124EFE9086FA78F2
:105FB00025124E9F7821792512445F908736501024
:105FC00078217925124E5F782112447F4014800E8B
:105FD00078257921124E5F782512447F500479018B
:105FE000800279007F080251E674ED12513A8A214D
:105FF0008B228C238D249086FA7821124E9F741365
:106000001250AA7825124EFE9086FA7825124E9FDD
:106010007825792112445F401178217925124E5F4D
:10602000AA21AB22AC23AD248022752900752A0059
:10603000752B00752C0178297925124E5F78297906
:1060400021124E26AA29AB2AAC2BAD2C7F0C025173
:10605000E69086FA7821124EFE8A828B837821128E
:106060004EB27F040251E674F512513A8C828D8350
:106070007821124EFE8A828B837821124E8B126019
:10608000BFC3E09CF0A3E09D1260B1402290871E48
:106090007821124EFE8A828B837821124E4C8A829E
:1060A0008B83A3A3A3A3E02420F0A3E0344EF080CD
:1060B000A0F088828983C3E09420A3E0944E22EA72
:1060C0002404F8E43BF98C828D83A3A3A3A3E0FC12
:1060D000A3E0FD888289832274F512513A9005DC91
:1060E000E0FAA3E0FBE929F8E433F9746128F582CA
:1060F000748539F583E02AF521A3E03BF522782168
:106100001252E19086D6124F1C125F3C740212505C
:10611000748A218B228C238D2474107821124DEEE9
:10612000AA21AB227F040251E674F112513A8A256A
:106130008B268C278D2874111250AA1252F87411D4
:106140001250AAE02401F521A3E03400F522E4F581
:1061500023F52478257921124C6990874278211201
:106160004EFE78257921124C69AA25AB26AC27ADC5
:1061700028125F3C7402125074EA4B60047A01806A
:10618000027A00EC2AFCE43DFD74131250AAE0F8F8
:10619000A3E0F9E8FEE9FFECF8EDF97A717B021271
:1061A0004FD388218922E4F523F5248E828F8378CA
:1061B00021124F0DECF8EDF97A717B02124FD38A60
:1061C000218B227405782112504B8E828F83A3A3DA
:1061D000A3A3E521F0A3E522F07F080251E6C082E7
:1061E000C083E9906000F0D083D08222C0E074F2D6
:1061F000125226A2AFE433FED2AFC2C0E5D1A2E470
:10620000500675D10F127137EEA2E092AF7F0102F6
:106210005285C0E0C0D0E8C0E0A8A8D2AFC2C7E8AD
:10622000A2E792AFD0E0F8D0D0D0E032C0E0C0D04A
:10623000E8C0E0E9C0E0EAC0E0EBC0E0C082C083B3
:10624000A2AFE433F9D2AF9008CBE0F8A3E06870D6
:1062500008539AF7A374018022C2EA9008CBE0F8B1
:10626000740128F074BB28F582E43408F583E0F566
:10627000F99008CBE0C394104002E4F0E9A2E09268
:10628000AFD083D082D0E0FBD0E0FAD0E0F9D0E00C
:10629000F8D0D0D0E032C0E0C0D0E8C0E0E9C0E043
:1062A000EAC0E0EBC0E0C082C083A2AFE433F9D221
:1062B000AFA8C19008F1E0FA74D02AF582E434085E
:1062C000F583E8F09008F0E0F8A3E0687006E59543
:1062D0009008F3F09008F1E004F0C394204002E449
:1062E000F0A3E4F08096C0E0C0D0E8C0E0E9C0E0F0
:1062F000EAC0E0EBC0E0C082C083A2AFE433F9D2D1
:10630000AF900904E0F8A3E0687008539AFBA37407
:10631000018022C2E9900904E0F8740128F074F4C5
:1063200028F582E43408F583E0F5C1900904E0C360
:1063300094104002E4F002627CC2AF02000022121C
:1063400043C3E9F6021243C32CF7021243C3F5F725
:10635000021243C339FC021243C3B4FC021243C30A
:10636000C6FC021243C3C9FC021243C3B9FD0212A8
:1063700043C342FE021243C3CAFE021243C35ABEC3
:10638000021243C337BF021243C35FC1021243C3A9
:1063900002C2021243C383C2021243C32DC40212BB
:1063A00043C34CC5021243C3A4C5021243C39DC6D6
:1063B000021243C358C7021243C347C8021243C361
:1063C000ABC8021243C37ACC021243C315CD0212EA
:1063D00043C30080011243C31C80011243C3F381F5
:1063E000011243C3E082011243C33C83011243C341
:1063F0008083011243C3B083011243C3038501129A
:1064000043C37F85011243C3F585011243C37986D7
:10641000011243C38887011243C31A88011243C380
:106420003F8A011243C3B693011243C30194011280
:1064300043C32194011243C37794011243C3A4942C
:10644000011243C370B9011243C368BB011243C3B5
:10645000B3BB011243C3DFBB011243C357BD0112DB
:1064600043C395BE011243C373C1011243C3B0C1FC
:10647000011243C39DC9011243C384CA011243C31D
:10648000CACA011243C30DCC011243C359CD011234
:1064900043C3AECD011243C354CE011243C341FCEA
:1064A000031243C354FC031243C383FC031243C3CC
:1064B000BBFC031243C304FD031243C347FD031295
:1064C00043C38DFD031243C3C0FD031243C3E7FD65
:1064D000031243C316FE031243C34DFE031243C30C
:1064E00066FE031243C3B5FE031243C3CEFE03127E
:1064F00043C316FF031243C34AFF031243C326C01C
:10650000031243C324C1031243C38AC1031243C30A
:10651000ADC1031243C3AFC1031243C3EDC10312A4
:1065200043C35EC2031243C31EC3031243C340C32B
:10653000031243C3DCC3031243C313C4031243C394
:1065400058C4031243C365C4031243C3D5C4031222
:1065500043C31FC5031243C322C5031243C368C507
:10656000031243C36BC5031243C375C5031243C370
:10657000E8C5031243C310C6031243C343C6031244
:1065800043C367C6031243C364C7031243C308C8A7
:10659000031243C374C8031243C3B0C8031243C3F6
:1065A000CEA5041243C3F6A5041243C323A60412C6
:1065B00043C35BA6041243C3C1A6041243C30BA783
:1065C000041243C36FA7041243C3B7A7041243C303
:1065D000F4A7041243C322A8041243C3B7A80412A9
:1065E00043C3C1A8041243C3CEA8041243C301A9E4
:1065F000041243C30DA9041243C325A9041243C3C3
:106600002FA9041243C30CFF011243C324FF01123C
:1066100043C33BFF011243C3BFE9021243C362EA13
:10662000021243C39DEB021243C346EC021243C362
:10663000CEED021243C3B6EE021243C3ADEF021217
:1066400043C3E3EF021243C385F0021243C3ABF02E
:10665000021243C377F2021243C3BDF2021243C3D4
:10666000DFF2021243C34BF3021243C316F40212C9
:1066700043C3D0F4021243C3DCF6021243C31DE04D
:10668000031243C3F9E0031243C3A3E1031243C35C
:10669000E4E1031243C36BE2031243C3E6E20312D5
:1066A00043C3B9E3031243C3E2E3031243C3D6E493
:1066B000031243C313E5031243C3FBE5031243C3B1
:1066C0002CE6031243C352E6031243C3D69B0512C2
:1066D00043C3019C051243C3119D051243C30080AF
:1066E000051243C31680051243C33480051243C309
:1066F0004481051243C34E81051243C378820512BB
:1067000043C36583051243C3D183051243C3C2E665
:10671000031243C3EFE7031243C326E8031243C344
:106720007DE8031243C375EA031243C313AC02129C
:1067300043C39AAC021243C3EEAD021243C375AE1B
:10674000021243C381AE021243C3F9AE021243C325
:10675000E1AF021243C3DDB0021243C3A9B102127A
:1067600043C303B3021243C319B3021243C33AB380
:10677000021243C3CCB3021243C342B4021243C356
:1067800068B4021243C315B7021243C31AB7021208
:1067900043C33EB9021243C385B9021243C3EBB9E6
:1067A000021243C331BA021243C301BB021243C3F4
:1067B000B6BB021243C312BC021243C315BC021281
:1067C00043C361BC021243C39DBC021243C3DCBC81
:1067D000021243C3FEBC021243C332BD021243C3C2
:1067E000A0BD021243C33EF7031243C34CF703128A
:1067F00043C39CF7031243C3BBF7031243C305F81B
:10680000031243C348F9031243C3E0F9031243C31D
:1068100024FA031243C34EFA031243C3B9FA031214
:1068200043C3FDFA031243C380FB031243C32FFC8F
:10683000031243C357CF011243C3F1CF011243C325
:106840004DD0011243C30BD1011243C393D10112A6
:1068500043C3B6D2011243C3E6D2011243C315D3D8
:10686000011243C3CBD4011243C31ED7011243C349
:106870007DD9011243C366DA011243C356DB01120C
:1068800043C329DD011243C321E0011243C33EE1AA
:10689000011243C338E3011243C347E4011243C367
:1068A000D6E5011243C3C2E6011243C311E7011248
:1068B00043C381E7011243C39DE7011243C3EEE7DF
:1068C000011243C38EEC011243C3A4ED011243C372
:1068D0005CEE011243C3CB90041243C3D590041263
:1068E00043C31D91041243C33191041243C3C291A7
:1068F000041243C3F991041243C33492041243C3F4
:106900005D92041243C3B192041243C3C6920412AF
:1069100043C3E892041243C3FD92041243C3379366
:10692000041243C36393041243C3AC93041243C3DE
:106930002294041243C34D94041243C37894041266
:1069400043C3BB94041243C3E594041243C310959C
:10695000041243C38D9F051243C3CDA2031243C348
:10696000A6A3031243C315A4031243C350A40312E6
:1069700043C38BA5031243C33DA6031243C3EAA836
:10698000031243C395A9031243C376AA031243C358
:10699000ECAB031243C354AC031243C3428C041246
:1069A00043C3858C041243C3F08D041243C32E905D
:1069B000041243C3A8AD041243C350AE041243C330
:1069C00085AE041243C380AF041243C3BDAF0412AB
:1069D00043C32995051243C38895051243C32596E1
:1069E000051243C35896051243C38696051243C346
:1069F000C196051243C3E196051243C39987041259
:106A000043C32288041243C3E188041243C3EF89BD
:106A1000041243C30F8C041243C3788C031243C384
:106A20008D8C031243C3588D031243C3258E03126A
:106A300043C3928E031243C3CD8E031243C36E8FA2
:106A4000031243C37790031243C34F91031243C30E
:106A5000D291031243C35B92031243C3C492031245
:106A600043C34E93031243C39B93031243C309943E
:106A7000031243C3AB94031243C35995031243C398
:106A80007995031243C3BD95031243C305960312C0
:106A900043C32196031243C34096031243C3BA96DD
:106AA000031243C3C896031243C35B97031243C345
:106AB000C597031243C39599041243C3119A041254
:106AC00043C34F9A041243C3339B041243C3A29B94
:106AD000041243C3E69B041243C3299C041243C31C
:106AE000569C041243C3749C041243C3AC9C04120E
:106AF00043C3E99C041243C30A9D041243C3809D0F
:106B0000041243C3C5EE011243C359F0011243C33B
:106B100097F2011243C3DFF2011243C30AF30112D9
:106B200043C300F4011243C330F4011243C387F49A
:106B3000011243C3B4F4011243C3FDF4011243C371
:106B400039F5011243C37EF5011243C3CBF501129F
:106B500043C333F6011243C365F8011243C32CFA51
:106B6000011243C367FA011243C3E5FB011243C399
:106B700029FC011243C39CFC011243C3FDFC01121A
:106B800043C385FD011243C3AEFD011243C3D0FDD3
:106B9000011243C3EFFE011243C300FF011243C3BE
:106BA000F9AC031243C36AAD031243C333B30312F8
:106BB00043C32DB4031243C3EFB5031243C36DB6F1
:106BC000031243C30080021243C38780021243C3EF
:106BD000B480021243C3F680021243C3F281021250
:106BE00043C33782021243C3B383021243C33B84BD
:106BF000021243C3AE84021243C36B85021243C325
:106C00002786021243C3A786021243C37587021266
:106C100043C39B87021243C30D88021243C3B1884A
:106C2000021243C3D688021243C34289021243C3ED
:106C3000A889021243C3DE89021243C3828A021268
:106C400043C31B8B021243C39E8B021243C30A8CA5
:106C5000021243C3568C021243C3BC8C021243C3BC
:106C6000ED8C021243C3A18D021243C3B78E0212F0
:106C700043C3008F021243C31D8F021243C3FD940E
:106C8000021243C34595021243C33296021243C314
:106C90005796021243C36C96021243C3D496021253
:106CA00043C31497021243C32798021243C3D498D4
:106CB000021243C396B6031243C3E1B6031243C3A1
:106CC000EDB6031243C3B8B7031243C3CEB70312E2
:106CD00043C30AB8031243C343B8031243C37BB888
:106CE000031243C3D1B8031243C3E7B8031243C32B
:106CF00023B9031243C336B9031243C35DB9031268
:106D000043C391B9031243C365BA031243C3F4BB2F
:106D1000031243C3F0BC031243C3F9BD031243C3C0
:106D2000FC7F001243C349CD021243C384CD02123B
:106D300043C388D0021243C3DAD1021243C39FD2A5
:106D4000021243C399D5021243C383D6021243C32E
:106D5000CED6021243C3E8D6021243C325D702128D
:106D600043C330D7021243C36FD7021243C378D74D
:106D7000021243C339D8021243C3F6D8021243C3E6
:106D800059D9021243C3BDD9021243C33EDA0212DB
:106D900043C30699021243C3629C021243C3689C18
:106DA000021243C3A9A3021243C381A8021243C320
:106DB000DB83051243C3A584051243C3E98405128E
:106DC00043C32385051243C3B585051243C32486F7
:106DD000051243C32D86051243C33986051243C3EA
:106DE0004D86051243C37186051243C3A186051261
:106DF00043C3A689051243C3B389051243C3CD8992
:106E0000051243C3008A051243C33D8A051243C3DA
:106E1000A38A051243C3B88A051243C3C38A051265
:106E200043C3D08A051243C3E78A051243C3F58AD8
:106E3000051243C3008B051243C30C8B051243C3D9
:106E40001B8B051243C3268B051243C3468B0512C9
:106E500043C3568B051243C36C8B051243C38A8B05
:106E6000051243C3958B051243C3AA8B051243C376
:106E7000BE8B051243C31F8C051243C3258C05121C
:106E800043C32B8C051243C3318C051243C3438C7F
:106E9000051243C30580031243C39380031243C307
:106EA0006F81031243C3A381031243C3B68103124C
:106EB00043C33082031243C3B883031243C3DF8347
:106EC000031243C36684031243C3A584031243C35E
:106ED000B684031243C32B85031243C34A850312AE
:106EE00043C36285031243C3A686031243C3B0881B
:106EF000031243C3E28A031243C3E88B031243C362
:106F00002B8C031243C33074001243C33A74001233
:106F100043C35C74001243C36874001243C3B57565
:106F2000001243C3E275001243C30377001243C348
:106F30004577001243C38B78001243C3EC780012EC
:106F400043C32179001243C35A79001243C3057D1C
:106F5000001243C31C7D001243C39A7D001243C339
:106F6000A87D001243C3F17D001243C3FF7D0012D0
:106F700043C3807E001243C3EF7E001243C33B7FB6
:106F8000001243C3E897031243C30A98031243C392
:106F9000E699031243C35E9D031243C3A89E0312E6
:106FA00043C38A9F031243C3EF96051243C314974A
:106FB000051243C38597051243C3C7D8031243C3C1
:106FC000D0D8031243C3D9D8031243C3FDD9031247
:106FD00043C3EEDB031243C31CDC031243C347DC91
:106FE000031243C375DC031243C3A0DC031243C383
:106FF000DEDC031243C30ADD031243C347DD031281
:1070000043C372DD031243C3BEDD031243C315DE67
:10701000031243C355DE031243C3A4DE031243C36A
:10702000CFDE031243C315DF031243C343DF031252
:1070300043C36EDF031243C391DF031243C3CCFF8C
:10704000021243C3D6FF021243C3E6FF021243C338
:107050003C93051243C36393051243C38E930512F9
:1070600043C3B2FF031243C33895041243C3889548
:10707000041243C3C296041243C33197041243C39C
:10708000D597041243C3F497041243C342980412E1
:1070900043C38498041243C3DCA3051243C3A3A1D2
:1070A000051243C3B3A1051243C3BFA1051243C3D5
:1070B00003A2051243C3A1A0051243C324A10512D4
:1070C00043C38AA1051243C362EC031243C3F8EC25
:1070D000031243C30AED031243C39BED031243C3E0
:1070E00014EE031243C368EE031243C383EE03128C
:1070F00043C38EEE031243C32CEF031243C3B2EF1C
:10710000031243C3BEEF031243C3D8EF031243C3BA
:1071100078F0031243C391F0031243C3EEF003125D
:1071200043C30EF1031243C311F1031243C374F1BD
:10713000031243C3B9F1031243C3F9F1031243C36A
:10714000C17F001243C3D37F001243C3F7D00312A1
:1071500043C3C7D1031243C3ECD1031243C303D2C9
:10716000031243C30ED2031243C358D2031243C3C4
:1071700066D2031243C38ED2031243C30BD303124E
:1071800043C32FD3031243C396D3031243C3DFD3A6
:10719000031243C321D4031243C34AD4031243C38B
:1071A0006CD4031243C389D4031243C3A6D403127D
:1071B00043C3A9D4031243C323D5031243C3A3D6A5
:1071C000031243C33CD7031243C383D7031243C301
:1071D000BCD7031243C3FDD7031243C387D803129E
:1071E00043C3B8D8031243C3FCF1031243C306F2EE
:1071F000031243C346F2031243C38FF2031243C385
:10720000C7F2031243C31DF3031243C33AF303123D
:1072100043C343F3031243C388F3031243C3B1F3DD
:10722000031243C3C6F3031243C336F4031243C32A
:10723000C3F4031243C317F5031243C33AF5031211
:1072400043C3B9F5031243C3F4F5031243C329F64C
:10725000031243C33BF6031243C357F6031243C35F
:1072600060F6031243C312F7031243C3D3A20512FD
:1072700043C3A098051243C3F198051243C37A99FA
:10728000051243C3E499051243C3768C051243C328
:107290009E8C051243C3938D051243C3B88D05120E
:1072A00043C3478E051243C3409D051243C3369E18
:1072B000051243C3509E051243C3619E051243C38A
:1072C0004091051243C37691051243C3A99105125B
:1072D00043C30293051243C314A2051243C31EA263
:1072E000051243C3D6C8031243C390C9031243C354
:1072F000CBC9031243C3FCC9031243C36CCA0312B4
:1073000043C3C2CA031243C316CB031243C303CC05
:10731000031243C3FCCC031243C37DCE031243C309
:1073200031CF031243C39ACF031243C3ADCF03122D
:1073300043C392D0031243C3D7A1041243C3EDA1A8
:10734000041243C391A2041243C3D0A2041243C344
:10735000EDA2041243C31EA3041243C36BA3041281
:1073600043C39EA3041243C3D9A3041243C388DBBF
:10737000021243C335DF021243C3C4E0021243C307
:1073800014E1021243C32BE1021243C34AE1021289
:1073900043C3A7E1021243C337E3021243C30AE423
:1073A000021243C341E8021243C329E9021243C354
:1073B000C79D041243C3C59E041243C397A1041280
:1073C00043C3D7AF041243C3D086051243C36F9E95
:1073D000051243C372A2051243C3318F051243C382
:1073E00078A3051243C3CBFF011243C3BDA9041206
:1073F00043C3429A051243C3BEA305FFFFFFFFFF2D
:10740000FFFFFFFF7F0A0251A090083CE0F8A312A3
:107410007885A32290083CE0F8A312741E2212780B
:1074200085A3A322E9FE90083C127875F9E8492269
:10743000C082C08390083E02773974F71250CE1292
:10744000742460131276EF6A7003A3E06B70087403
:10745000016E7003126F697F010251A0C082C08368
:107460007917126F6F02773E74F41250CE74ED12DA
:10747000505EEAF8EBF9854182854283E4F08A8226
:107480008B83A3A3A3A3A3A3127E6A8A82F583E0BE
:10749000F521E82402FEE439FFE52114602114609F
:1074A0001E14603414603B14604214604914605030
:1074B00014605714605E14606514606C02754B7440
:1074C000011250C4126FC9E9F874126870648541E2
:1074D000828542837406807B74011250C4126FD57A
:1074E000804E74011250C4126FE180447401125036
:1074F000C4126FED803A74011250C4126FF98030DB
:1075000074011250C4127005802674011250C41206
:107510007017801C74011250C412701D8012740107
:107520001250C4127029800874011250C412702FB6
:10753000E9F8E8705D7522078E828F83127E6A12E9
:107540006ACBEA4B7010752108803E8541828542E6
:10755000837407F08045EA240BF582E43BF583E071
:1075600064087005900840800390083E12742960FA
:10757000151278811276F7600D74011250C4A9219A
:107580001250CCE9F522852221854182854283E58E
:1075900021F0854182854283E0600DAC41AD428E91
:1075A000828F8312787A8003126E9D741312507446
:1075B0007F040251A074F61250CEECFEEDFF75214F
:1075C000E775226F78211252E17902127D941250F0
:1075D00074E9F5218E828F83E0F9126F6FA9210281
:1075E0007D8B74F41250CEEAFEEBFF8921127426D3
:1075F00070030276C51276EF6E7003A3E06F60032E
:107600000276C590083CE0240108A3E03400F9E8C4
:10761000FAE9FB8882F583E0F87406686003027675
:10762000B2127866607390083D127FBB127875F9CC
:10763000127CAAE0FCA3E0FDE82413F582E439F50E
:1076400083E0F8A2E050168C828D83A3A3A3A3A3AA
:10765000E0A2E050088A828B8374078034E85402E9
:1076600060168C828D83A3A3A3A3A3E054026008B9
:107670008A828B8374098019E8540460178C828D88
:1076800083A3A3A3A3A3E0540460098A828B837419
:107690000BF08015900840800390083E127429601A
:1076A000081276F460031250CC127732703C7900E5
:1076B000800E741168700EE5216003752132A921D6
:1076C000126F6F8025E5217018EEFAEFFB126ACB7E
:1076D0008A828B83E58245836007A3A3A3E0D2E47B
:1076E000F0EEFAEFFBA92112665D79010275B01286
:1076F00078E7E02212741E1278758882F583E5829D
:10770000458322C082C08312742660241278D5700B
:107710000590083E80039008401274296008127694
:10772000F460031250CC12773270057900126F6F3B
:10773000800C127409E0641222EAF0A3EBF0D0830B
:10774000D0820243C074E81250CE74EB12505E8AAD
:107750002F8B308C2D8D2E127426700579120278A5
:107760005C1278E0126ACB8A218B22AE21AF22EA2A
:107770004F7005791402785CAA41AB42126F7BEE20
:107780002405F52BE43FF52CEE2404F529E43FF520
:107790002A127866602FA841A94288258926127C82
:1077A000CCFEA3E0FF1265EBE9F52779001265F145
:1077B0008A218B22852982852A83E0F528852B233F
:1077C000852C24803690083D127CD2F525A3E0F567
:1077D00026A841A94288218922AE21AF221265EB59
:1077E000E9F52879001265F18A238B2485298285A1
:1077F0002A83E0F527852B21852C22740E1250C494
:10780000EEFAEFFB126FBD74071250C4AA25AB2627
:10781000126FB7742D1250AA1252F878231252E147
:10782000E528F52378231252E578211252E1740EEF
:107830001250B48821892278211252E17417125013
:10784000B48821892278211252E1A927AC2DAD2ECE
:10785000AA2FAB30126EAF740B1250747415125005
:10786000747F100251A090083C127875F5838882CD
:10787000E02290083CE0F8A3E022127E6E126F1B1B
:107880002212788522E0F58388822274F61250CE87
:1078900074F912505E1274266031AA41AB42126F25
:1078A0007B1278DA1278D260087521B775226F8062
:1078B000067521BD75226F78211252E174021250B3
:1078C000C47907127D941250748002790174070202
:1078D0007D8890083D127885E02290083CE0F8A36E
:1078E0001278E7127E6E2212741EA32274F61250D2
:1078F000CE74F012505E752110752200782112525C
:10790000E190083CE0241BFCA3E03400FD7402126B
:1079100050BC127C761250747521CF75226F027D97
:107920007174F61250CE74F012505E7521107522EB
:107930000078211252E112794EFD74021250BC12ED
:107940007C761250747521DB75226F027D71900870
:107950003CE0242BFCA3E034002274EE1250CEEA6B
:10796000FEEBFF752100127CB91274296003027CC2
:107970006A7A077B001272C9127CAAEAF0A3EBF0C4
:10798000EA4B7003027C65127CF1E0F523A3E0F57D
:107990002475250775260078251252E1EEFCEFFDCF
:1079A000127C761250741278666003027BD3E52352
:1079B0002413F8E43524F9E8FAE9FB127CCC240519
:1079C000F8A3E03400F9E8FCE9FD8A828B83E0F853
:1079D0005401F5278C828983E0540165277001E406
:1079E0007008E8A2E0E433F8800278008A828B8392
:1079F000E054FEF0E048F0E0F88C828983E0C313A5
:107A0000A2E092F0E8C313A2E020F001B35012E824
:107A100054026004D2F08002C2F0A2F0E433F88095
:107A20000278008A828B83E054FDF0E825E0F8E4D8
:107A300033F9E048F0A3E049127C85543FA2E0927C
:107A4000F0E81313543FA2E020F001B35013E854C0
:107A5000046004D2F08002C2F0A2F0E433F5258085
:107A6000037525008A828B83E054FBF0740278252D
:107A700012504B127C7C127C8513541FA2E092F0B2
:107A8000E8131313541FA2E020F001B35013E8547D
:107A9000086004D2F08002C2F0A2F0E433F5258041
:107AA000037525007526008A828B83E054F7F074F5
:107AB00003782512504B127C7CF0F9127CA1A3E0D4
:107AC000540165277001E47012E954016004D2F09A
:107AD0008002C2F0A2F0E433F8800278008A828B40
:107AE00083A3E054FEF0E8F98A828B83A3E0491275
:107AF0007CDF7409782712503C127C947409782931
:107B000012503CE529540165277001E47014E52604
:107B100054026004D2F08002C2F0A2F0E433F525F2
:107B200080037525007526008A828B83A3E054FDAF
:107B3000F07409782512504B127CD7740A782712FA
:107B4000503C127C94740A782912503CE529540167
:107B500065277001E47014E52654046004D2F080B7
:107B600002C2F0A2F0E433F52580037525007526E6
:107B7000008A828B83A3E054FBF0740A78251250AC
:107B80004B127CD7740B782712503C127C94740BE8
:107B9000782912503CE529540165277001E47014DE
:107BA000E52654086004D2F08002C2F0A2F0E4336B
:107BB000F52580037525007526008A828B83A3E056
:107BC00054F7F0740B782512504B8A828B83A3E014
:107BD0004526F08E828F83A3E06011852382852461
:107BE00083A3E06007127CF8740580718E828F8316
:107BF000A3A3E05404701BE5232412F582E435248A
:107C0000F583E0A2E24007127CF87401804FA2E203
:107C1000504E127866852382852483600AE0F98EAF
:107C2000828F83E0F88008E0F88E828F83E0F9E9A4
:107C3000C39405502BE8C394055025E9FAE875F084
:107C400005A4F8A9F0748828F8748439F9E82AF5AD
:107C500082E439F583E0C0E0127CF8D0E0F0800DDA
:107C600075211880087521138003752111A921023F
:107C70007404AA82AB831271EB740222E04525F0F2
:107C8000A3E0452622F08A828B83E0F88C828D83E4
:107C9000E0131322E527127CA1E0F529A3E0F52AE1
:107CA000225401F5278C828D832290083CE0FCA3AE
:107CB000E0CC127E5F3CF5832290083CE0F8A312F2
:107CC0007CC322E0C8127E5F38F5832290083CE036
:107CD000F8A3127CC3E0228A828B83A3E04526F0BE
:107CE0008A828B83E0F525A3E0F526852527F528F4
:107CF00022127414A3A3A322127872C8241AF58244
:107D0000E438F5832274F61250CE7521F375226F94
:107D100078211252E17911127D94806C74F6125020
:107D2000CE74EE12505EEAFEEBFF854182854283FF
:107D3000ECF0A3EDF075210875220078211252E1D4
:107D4000741E1250AAE0FCA3E0FD74041250AA12A3
:107D50007C721250747521FF75226F78211252E1E6
:107D600074021250C4790B127D90125074741280F8
:107D70001778211252E174021250C479111278DA84
:107D8000127D9412507474101250747F020251A02C
:107D9000EEFAEFFB12703574022274F61250CE75B3
:107DA000210B752270027D1074F41250CE74F912FA
:107DB000505EEAFEEBFF854182854283E9F0752340
:107DC0000675240078231252E174031250AA127C23
:107DD0007212507475231175247078231252E17455
:107DE000021250C47908127D901250747407027503
:107DF000AD74F61250CE752123752270027D10C02D
:107E000082C0831274266051E8127E5F39127E7838
:107E100060031272CF127E65245B127E74600312BF
:107E200072CF127E65245D127E7460031272CF12CF
:107E30007E65245F127E7460031272CF127E652409
:107E400061127E7460031272CF90083C127E6A1237
:107E500072CF90083CE4F0A3F0126EA302773E24A8
:107E600018F582E422127872C822127E6E22E0FA9D
:107E7000A3E0FB22F582E438F583127E6EEA4B2202
:107E800074F71250CE1274246062E82461F582E423
:107E900039F5831252F890083CE0245FF582E4390A
:107EA000F5831252F890083CE0245DF582E439F540
:107EB000831252F890083CE0245BF582E439F583A4
:107EC0001252F890083CE02417F582E439F583E07B
:107ED000FB90083D1276EFFCA3E0FD1278D2FAEE9B
:107EE000F912666F7408125074126F69027457C0E9
:107EF00082C083791090083C127E7A603B90083CE7
:107F0000E0127E5F3BF583127E6AEAFCEBFDEA4DF0
:107F10006026127CF1127E7A601EEA2415F582E456
:107F20003BF583E0F88C828D83A3A3A3A3E0FAC37F
:107F3000985003EA8001E8F902773E74F61250CEB9
:107F4000EAFEEBFF1274266066127FBB1274296092
:107F50005E8821892288828983E08A828B83F088E7
:107F6000828983A3E08A828B83A3F0E82412F582BE
:107F7000E43522F583E0F9EA2402FAE43FFB126ECD
:107F8000CDE5212415F582E43522F583E08E828F3C
:107F900083A3A3A3A3F0E5212413F582E43522F5FE
:107FA00083EE2405FCE43FFD7402124F7180097CCE
:107FB000077D007900127203027D8B1278E7A3A37C
:107FC0002274F71250CEE9700579FF12724B7F01CF
:107FD0000251A0C082C08374FE12505E7902AA4191
:107FE000AB42126B37854182854283E0FAA3E0FB06
:107FF0007402125074D083D0820243C00243C0FF87
:10800000C082C083854582854683E06420700A85EE
:108010004683A385824585834602837974F4125092
:10802000CEA845A946AC45AD468019A3AA82AB832C
:108030008A828B83E0FE74206E60F074096E60EBC0
:10804000EAFCEBFDECFAEDFB8A82F583E075F00DBE
:1080500084AEF0EE2EFEE433FF74CC2EF582741C59
:108060003FF58312CBF28004ECFAEDFB8A828B831E
:10807000E0FE74276E600574226E70351281DE8A10
:10808000828B83A3AA82AB838A828B83E0FCA3AA20
:1080900082AB831281DFEE6C60A6740A6C70E9E833
:1080A00024FFF8E934FFF9EA24FFFAEB34FFFB8000
:1080B0008F740A6E701B88828983740AF002BBAECB
:1080C0008523218524228A828B83A3AA82AB83E025
:1080D000FE852182852283A38582238583248521B1
:1080E00082852283E06E60D8E0FEC394804035C371
:1080F000E54598E5469950081281D7700318A98381
:108100001281DE852182852283E064806003028003
:1081100030852382852483E088828983F0A308A99F
:1081200083028030AA21AB228A828B83A38582219D
:108130008583228A828B83E0FAC3948040E6748030
:108140006A700D852182852283A385822185832201
:10815000852182852283E060030280688C828D8382
:108160001281EA50161281DE8C828D83A3AC82AD1F
:10817000831281EA400302804480EA88828983A3D3
:10818000AA82AB8374096E600574206E7033C3E5F8
:108190004598E5469950101281D7600B88828983F3
:1081A0007420F0EAF8EBF98C828D83A3AC82AD8366
:1081B000E0FE74206E60F074096E600302804480FB
:1081C000E6EE88828983F0EAF8EBF98C828D83A34E
:1081D000AC82AD8302804412CD47E0642022EE8859
:1081E000828983F0A3A882A98322E0FE74BF2EC3F4
:1081F000941A2274E81250CE74FF12505EE9FE8A7F
:10820000258B268C278D28752901752A00752B0052
:10821000752C007F0A9087467825124439401C79D6
:108220002D12715B7FF6801390873E7821124EFEEF
:1082300078297921124C6974FF2E1EEFF52D3395A4
:10824000E0F52EF52FF5308525218526228527237B
:108250008528247821792D124D827829792112449C
:108260000F50C5EE854182854283F014FEE0C39431
:1082700001A2D265D0334007792012715B80E4EF10
:10828000C312B63E504B7829124DC3804485252D2C
:1082900085262E85272F852830852921852A228528
:1082A0002B23852C24782D7921124D82E52D243025
:1082B000F912715B782D7929124C697825792D1284
:1082C0004E5F90873E7821124EFE78297921124D1B
:1082D00082E529452A452B452C70B2740102C879E4
:1082E000C082C0831263CF9002F5E4F0A312B6EA15
:1082F000802912C15F75F00AA4F8ABF075F00AE9A5
:10830000A42BF9E82AF8E439F9E824D0F8E934FF95
:10831000F99002F5E8F0A3E912B6DFE0FA74D02A8A
:10832000C3940A50159002F5C3E09499A3E0941900
:108330009002F540BD74FFF0A3F0803DC082C08381
:108340007A007B00854582854683E0F97422696066
:1083500005742769701F854683A3858245858346FA
:1083600080050AEA70010B12C88FE0F8E96860091D
:10837000740A6870ED7AFF7BFFD083D0820243C01D
:1083800074F71250CEEAFEEBFF800C12715B8E8206
:108390008F83A3AE82AF838E828F83E0F970EC79F6
:1083A0000A12715B800574021250747F010251A0A1
:1083B00074F01250CE89248A2275232012C984F5C4
:1083C00025A3E0F5269002F1E024031284F4AA2507
:1083D000AB26E4FCFDA9241263DB80057920127131
:1083E0005B85222574FF2525F5220470EF800BEEB6
:1083F00024FE12C8B1F52185212312C984F52190EC
:1084000002F1E02401081284F5740A652170030268
:1084100084ECE521C394805007A92112715B80D7B9
:108420007CCC7D1C802474806B7004A827A92888CC
:10843000828983A3A882A983E8FEE9FF88828983D1
:10844000E0701CEC2402FC50010D8C828D8312CB59
:10845000EBEE4F60A2EEF8EFF980E1A827A928889B
:10846000828983A385822785832888828983E0C3C4
:10847000948040E7E0FBE5216B70AB748065217070
:108480001D852782852883E0F5269002F112B831F8
:10849000E0652670919002F1E024011284F47420CA
:1084A0006523600979208002A92112715B8E828F79
:1084B00083E0F521A3AE82AF83E521C3948040E839
:1084C00012C984F874286870030283EF742C6870F2
:1084D000030283EFEE24FF12C8B164CD7003028360
:1084E000EF792012715B7521200283F7790A1271EE
:1084F0005B02BB10F8A3E03400F99002F1E8F0A3AE
:10850000E9F02274F01250CEE9FEEAFF7521007501
:108510002200752300752400802274D02AFAEAC351
:108520009F504B8F25E4F526F527F52878217925EE
:10853000124C698A2578217925124E26EEF974FFAE
:1085400029FE04602F85458285468312B74374D087
:108550002AC3940A40C474BF2AC39406500474C941
:1085600080BA749F2AC39406500474A980AE7549DA
:108570000212B688AA21AB22AC23AD2402BB107430
:10858000F41250CE8921EAFCEBFD74BF29F9E521F4
:10859000F5237524007402782312504B12B5AB24D6
:1085A000FCFAEB34FEFBE9131313541FFE18E62EFE
:1085B000FE08E436FFEE2468F582E43FF583E0C070
:1085C000E0740759F8D0E0B800028004C313D8FC67
:1085D000A2E0400D8C828D8374E8F0A3741CF080BF
:1085E000118A828B8312B73B12B6BDE8240CFAE4E1
:1085F00039FB02BBAE74EC1250CEEAFEEBFF12B6B2
:1086000029F974BF29C3941A5055A38582458583DF
:1086100046EEFAEFFB1263FF8A218B228E828F8354
:108620001293B0704B854523854624790112B56FAE
:1086300070279087467825124439501D8E828F838B
:1086400012B91FF529A3E034FFF52AE4F52BF52C28
:108650007829792512440F400C8523458524467AD4
:10866000007B00800FE5212AF521E5223526F52241
:10867000AA21AB227F0C0251A074F21250CEE9FE67
:108680008A218B228A258B26EA240CF8E43526F9E8
:10869000C3E498FAE499FB784CE62AFA08E63BFB37
:1086A000C3EA954EEB954F50067549040287858ABB
:1086B0004C8B4DAC4CAD4D8A828B837403F0E52519
:1086C000240CA3F0A3E912B6D67402F0EA2404F84D
:1086D000E43DF9EE8882898312B6D6A3A3A3A3A3AF
:1086E000A3A3E4F0A312B6A6E024BFFF12B5F7F8E7
:1086F000E43BF9E8FAEFF5257526007402782512B7
:10870000504B784AE62525F52508E63526F52674EA
:10871000075FF87401B800028004C333D8FCFF8AF5
:10872000828983E05F8C828D83A3A3A3A3A3F08AB5
:10873000828983E04FF0852582852683124F4C8CF9
:10874000828D83A3A3A3A3A3A3124F58852582855B
:108750002683ECF0A3EDF0784CE6240CFA08E4361E
:10876000FB740E1250AAE0FCA3E0FDEC4D600D7806
:10877000211252E112C8891250748009AC21AD2235
:10878000790012720302CBD774F71250CE74FE1226
:10879000505EE5434544607F7543007544007E02AA
:1087A0008005EEF91271BB74FF2EFE0470F47C6C30
:1087B0007D007900AA4AAB4B1272037C1C7D0079C4
:1087C000007A337B031272037E00EEF912716D0E94
:1087D000EEC3940440F490034FE4F0FAFB12717975
:1087E000854A4C854B4DAE47AF48801C8E828F83A7
:1087F000E064057010AC41AD42A3A3A312B8A71268
:10880000CBE112684312CE46C3EE954EEF954F4032
:10881000DB85474E85484F0283A674F01250CEE99F
:10882000FEEA24FCFCEB34FFFD74C36E701A8C82EC
:108830008D837821124EFE7821124DC38C828D8358
:108840007821124F0D028A3CECFAEDFBEC24FCFC83
:10885000ED34FFFDE9125325B111308A80889488E8
:10886000A888C488ED88228937894C8961897089F4
:1088700086899C899C89B289C8897089F1890C8A0A
:108880008A828B837821124EFE8C828D837821120E
:108890004E4C80B18A828B837821124EFE8C828D61
:1088A000837821124E8B809D8C828D837821124E8D
:1088B000FE8A828B837825124EFE78217925124C10
:1088C00069028A258A828B837825124EFEE525452A
:1088D00026452745287003028A358C828D837821AE
:1088E000124EFE78217925124D82028A258A828BCA
:1088F000837825124EFEE525452645274528700339
:10890000028A358C828D837821124EFE782179255A
:10891000124D82852521852622852723852824023C
:108920008A258A828B837821124EFE8C828D8378F1
:1089300021124EB2028A3C8A828B837821124EFE2B
:108940008C828D837821124ED8028A3C8A828B8356
:108950007821124EFE8C828D837821124EEB028A92
:108960003C8A828B837821124EFE8C828D83804FCD
:108970008A828B837821124EFE8C828D837821121D
:1089800043FA605C80568C828D837821124EFE8A79
:10899000828B837821124424504680408A828B83C4
:1089A0007821124EFE8C828D8378211243FA70302A
:1089B000802A8C828D837821124EFE8A828B837866
:1089C00021124424401A80148A828B837821124E0B
:1089D000FE8C828D8378211244245004D2F08002D0
:1089E000C2F0A2F0E433F521E4F522F523F524806A
:1089F000348C828D837821124EFE8A828B83782577
:108A0000124EFEE5257821124E0780198C828D8347
:108A10007821124EFE8A828B837825124EFEE52540
:108A20007821124DD48C828D837821124F0D800CC9
:108A300075490280037549037A007B0002BB1074FC
:108A4000EA1250CE74C712505E74041250AAE9F0B4
:108A5000752601E5496003028D7774191250B488B8
:108A6000218922AE21AF2274091250B4882D892E9B
:108A700074021250AAEEF0A3EFF074021250AAE0B2
:108A8000F5217402782112503C74071250AA12B6D4
:108A9000B274091250B474051250AA12B6BD803ACD
:108AA00074391250AAE5826E7003E5836F70030279
:108AB0008BB7854582854683E025E0F8E433F97479
:108AC0006D28F58274833912CF4312937D85234537
:108AD000852446AE27AF28752600854582854683C6
:108AE000E0F525A38582458583467845E62401F592
:108AF0002308E436F52418E624FFFA08E634FFFBE1
:108B0000E52D2402F521E4352EF522EE2404F52787
:108B1000E43FF528E525125402049698F78DB3C278
:108B20008692CACCF78DCED0F78D0D0ADD8B20DA78
:108B30008A28C38D29C08E2C3E8E80A08A82F78D14
:108B4000B18692B27D92C8F78DC9428CCD188CF156
:108B5000F78D548B74D02525C3940A50397439127B
:108B600050AAE5826E7003E5836F604B8A458B46A1
:108B70008E218F22AE27AF287A0A79FF1263F9EA95
:108B8000F8EBF9ECFAEDFB852182852283124F5830
:108B9000754900028AD774BF2525C3941A503E1226
:108BA00093A1701974191250AAC3E5219582E52288
:108BB00095835003028E0B754904028D7774391228
:108BC00050AAE5826E7003E5836F60EB8A828B8327
:108BD000124F4C8E828F83124F58028AD38A458B54
:108BE0004674051250AAC3E0952DA3E0952E4003CC
:108BF00002931FE52D24FEF52DE52E34FFF52EEE14
:108C0000FAEFFB852D82852E83E01293481250AA3D
:108C100012939040CC028D7074391250AAE5826E86
:108C20007003E5836F60908E218F22AE27AF287A84
:108C30001079FF1263F9852182852283124F280261
:108C40008B90854582854683E064286003028D70A1
:108C5000852345852446854582854683E0F9749FB2
:108C6000696003028CF57523001263CF12B5B8E07A
:108C7000A2E7401585824585834624D0F523C39419
:108C8000024003028D701263CF854582854683A31F
:108C9000E0F974A769600874A8696003028D7085A3
:108CA0004582854683A3A3E064296003028D708515
:108CB0004582854683A3A3A385824585834674396F
:108CC0001250AAE5826E7003E5836F7003028BB7C2
:108CD0008E218F22AE27AF2874A76970047A528044
:108CE000027A57A9231271CDE98521828522831248
:108CF000B6A0028AD712935BEAFCEBFD18E62402C9
:108D00000A08E436FB742269707A8A828B83E064F5
:108D10002270718C828D8312B72B5003028AD77414
:108D2000D028C3940A504974391250AAE5826E7053
:108D300003E5836F7003028BB7745028F91263C97F
:108D4000E9F88E828F83AE27AF28600924FFFAE40A
:108D500034FFFB80047A007B00EB3395E0FC12BE0D
:108D60008A7845E6240312B5D064297003028AD7B5
:108D7000E54970037549027A007B007C007D007430
:108D80003902CD3974BF29C3941A50E48C828D8383
:108D9000E0642970DB74391250AAE5826E7003E535
:108DA000836F7003028BB78A458B46AA41AB421290
:108DB00093A770BC129397F8A3E034FFF912937D48
:108DC000028AD374191250AAE582652D7004E583D6
:108DD000652E7003028BB774071250AAE0F98E2338
:108DE0008F247402782312503CE523C399852D8289
:108DF000852E83A3F0801474191250AAE582652D84
:108E00007004E583652E7003028BB7852D82852E55
:108E100083E525F085212D85222E752601028ADA2B
:108E2000E52D24FEF52DE52E129372F86428602DB1
:108E30001293431250AA1293904003028D7074094A
:108E40001250B4E52D687003E52E6970D3740412D6
:108E500050AAE064026003028D70028BE1E52D24CC
:108E600002F52D5002052E028AD78E298F2AAE21B7
:108E7000AF221271DFE9F5213395E0F522F523F5F4
:108E80002490870E7825124EFE78217925124C69A0
:108E90009087567825124EFE78217925124D8285CD
:108EA0002982852A8312B6B2A3E523F0A3E5240222
:108EB00091EF1293431250AA1293904003028D70C7
:108EC000E52D24FEFAE52E34FFFB8A2DF52E8A824D
:108ED000F583E0F8642870DAA3E0FC74071250AA66
:108EE000E0F98E218F227402782112503CE521C3D3
:108EF00099C39CFC74091250B4EA687002EB697063
:108F00000D74041250AAE064017003028BE1740531
:108F10001250AAC3E0952DA3E0952E4003028ADAF1
:108F2000EA24FEF52DEB129372F525EC7072EE2417
:108F300004F521E43FF522E525247E603B24B7605B
:108F40000D147003028E6A24FC6017028D708E234C
:108F50008F24AE21AF2212718B8523828524830258
:108F6000913F8E238F24AE21AF22790012933A8550
:108F70002382852483029197794C784EE7C396FA31
:108F80000809E796FBEAF8EB3395E0FA8E828F83C7
:108F9000E812B6ADA3EAF0A3F0AE21AF22028E1A1A
:108FA00074016C60030291FA129365124EFEE5257E
:108FB000246A700302912914700302912F14700324
:108FC00002913524D0601924FE603B24FC604D24BE
:108FD000FE700302918124DF700302914502919E8D
:108FE000908746782112443940057821124DC38577
:108FF000212585222685232785242812CDA378259F
:10900000124F0D028E1A1272098A258B26E4F5275B
:10901000F52878257921124D820292749086F27893
:109020002112447F5003028D70E52175F007A4F5ED
:1090300021A8F075F007E522A428F5227433252134
:10904000F529740312BE80A3E07003028D70852998
:1090500082852A83E0F8C394415003029105E529F3
:109060002402F52BE4352AF52CE824BFF525E43459
:10907000FF12B625124E079086EE7825124E3985DE
:109080002B82852C8312B7FA124EC5AA25AB26ACCB
:1090900027AD281263A58A218B22A821A922EA499B
:1090A0006078852982852A83A3A3A3A3E0FA888216
:1090B0008B83A3A3E06A705D852982852A8312B71A
:1090C0002212B617124E079086EE7821124E39857D
:1090D0002B82852C8312B8EC852982852A8312CBBA
:1090E000DC124FD38A258B26E4F527F528782179E1
:1090F00025124EC5AA21AB22AC23AD241263A5EAEA
:109100004B601780107C007D007A00E02450F9123B
:10911000732FE97005752100800375210175220008
:10912000752300752400029274AA217900800AAA8E
:109130002179018004AA21790212645312CDA3126D
:109140004F28028E1A852226E52654806003028D60
:1091500070852125AA25E526540FFBC39404400DF4
:109160009086EA78211244394003028D70EE24FC87
:10917000FCEF34FFFD127371E96003028D70028E03
:109180001AE52145224523452460047901800279AE
:109190000012933A12CDA312B6ACA3EC804F74BF69
:1091A0002525C3941A504C1293A16003028D709030
:1091B000874678211244394003028D7012B919F59F
:1091C00025A3E034FFF526E4F527F5287825792155
:1091D00012440F4003028D70EA2521F582EB3522FF
:1091E000F583E0FA12CDA3EAF0A3E4F0A3F0A3F034
:1091F000028E1A8A2D8B2E028E1A74026C60030264
:109200008D70EE24F8129368124EFE782112449E5F
:109210009086E27825124EFE782179251246C412F6
:10922000CDA37829124EFE782912449E9086E278CA
:1092300025124EFE782979251246C4EE24FCFEEF55
:1092400034FFFF78291252DDAA21AB22AC23AD24D2
:109250001273E974041250748A218B228C238D249A
:109260009086DE7825124EFE782179251246C47844
:1092700021124516129365124F0D028E1AE526A291
:10928000E050037525C3A825745928F582E4348479
:10929000F583E0F52174091250B4E52D687003E5FB
:1092A0002E696051E52D24FEF8E52E34FFF9888201
:1092B000F583E0FC744F2CFAC394135038740A2AD7
:1092C000F582E43485F583E0FAE521C39A402688E7
:1092D0002D892EEEFAEFFBECF91264178A238B240A
:1092E000A823A924EAFEEBFF74021250AA1293905D
:1092F00040A3028D7074191250AAE582652D700486
:10930000E583652E7003028BB7852D82852E83E55C
:1093100025F0E52D2402F52D5002052E028E1A743B
:109320001D1250AAE5826E7003E5836F6003028D03
:109330007012CDA3124F1C028D7F1271D9EB3395A1
:10934000E0FC22EEFAEFFBE8F91264178A218B2287
:10935000A821A922EAFEEBFF74022218E62401FAF2
:1093600008E436FB22EE24FCF582EF34FFF5837827
:10937000212234FFF52E852D82F583E0228E828F07
:1093800083E8F0A3E912938922F0A3E4F0A3F0228A
:10939000C3E098A3E0992285418285428312B925D2
:1093A00022AA41AB42A9251263FF854182854283EF
:1093B00012B7E464022274F61250CE7A007B0D12CA
:1093C00072C99002F312B6AC7C007D0D7900127266
:1093D000039002F312B8CC2494F582E8340CF583A0
:1093E00085824A85834B854A4CF54D9002F312CB1A
:1093F000E11263818A478B488A4E8B4F7F0202516C
:10940000A074F41250CE7A2C7B831263ED7A2F7BFA
:10941000851263ED12B5E57A6A7B871263ED02BBB4
:10942000AE74F61250CE12716712642312949290A9
:1094300086CE124F1C1263A5EA4B60379002F3C32D
:10944000E09547A3E09548502A9002F312C987F8A7
:10945000A312B7371252F875210078211252E59005
:109460008752124F1C79031271737403125074796E
:1094700001800279008085C082C083800C79007AE7
:10948000007B0012643B129492127155E970EE0257
:109490008379AC4CAD4D784EE62402FA08E436FBF5
:1094A00012714F2274E81250CE74E912505E740AA1
:1094B0001250AAE9F0EAFEEBFFE0A2E150091271B6
:1094C0008B9002F7124F28754900EE4F60489002CA
:1094D000F5EEF0A3EFF0740A1250AAE0A2E0501EDD
:1094E000784CE624FD12B67A500302A1298A4C8BEF
:1094F0004D8A828B837404F0A314F0A3E4F012B8B5
:10950000AC8A828B8312B829EA9547EB95485003C1
:1095100002965A029855854E82854F83A3A3858271
:10952000458583461263D57E0074021250AAEEF080
:1095300004FEE0FA7845E62AF58208E436F583E091
:10954000640A70E5EEF8C3E498F52195E0F522EEA3
:10955000F52375240078231252E1AC45AD46784CD2
:1095600012BB151271617402125074784CE62521F9
:10957000FA08E635228A45F5461263E11263CF9078
:1095800002F512CC00701F854743854844854E8202
:10959000854F83A3A3858245858346E0640A6003E3
:1095A00002965A0296479002F5E0F47003A3E0F4A5
:1095B000700302984E1264117845E624FDFA08E61D
:1095C00034FFFB8A45F546A845AA4CEAC398FE90AD
:1095D00002F512CF458545828B8312B6BDEE8545D7
:1095E000828B83A3A3F08545828B83A3A3A3E0642E
:1095F0000A700F9002F512CBE11263AB8A478B48D9
:10960000803F90029FE0D2E2F0AA4512B517702683
:10961000AC4CAD4D9002F312CBE1EEF91263BDAA52
:1096200045AB4612B517700E90029FE0C2E2F0798A
:1096300002741702C87990029FE0C2E2F08847895D
:109640004885474E85484F129492790180E3E9603E
:1096500003029FB0858245858346AA45AB468A8230
:109660008B83A38582458583467845E62402F521D0
:1096700008E436F5228A828B83E0F52312935B1887
:10968000E624FFFC08E634FFFDAE47AF48A843A937
:1096900044E5231253258028EC964E9871978A97BB
:1096A000099824983D98AC98AC98E79FDA98FF9871
:1096B00007A1AB97AB97589929A2E199AB970F9A5D
:1096C0005E9A849AD69A049B049B049B549B649B49
:1096D000C59B3A9CA49C079D779DEC96DDB2569E57
:1096E000EC96EC96849EC49EF99E2A9F8C458D46EE
:1096F000E523C39480400302984EAA41AB42126412
:10970000058A218B22854582854683E064BD6003FE
:1097100002984EEA4B701512CBFA700302984E1263
:10972000C967A3A3E06402600302984E75490085EF
:109730004582854683A3858245858346EA4B70032F
:1097400002A16012B5671250AA124F28E5496003C2
:1097500002984E1293AA600302A14D74061250AAF9
:109760007825124EFE852182852283E525F002A10F
:10977000B87E011263E1854582854683E0640A6014
:109780000302984E12B8AC02A1E712B5E5794C7805
:109790004EE7C396FA0809E796FB3395E0FCFD799E
:1097A000001263DB7ACE7B841263ED8543828544AD
:1097B00083A3A385824385834412B82912B526402A
:1097C00003029855740A1250AAE0A2E140030296DF
:1097D0005A12718B8A258B268C278D28901CF412A7
:1097E000B7E99002F77825124E7378217925124453
:1097F0000F500302965A85438285448312C987FA23
:10980000A3E0FB127179029647854582854683E085
:10981000640A703A1264111263B18A478B488A4E07
:109820008B4F80311264119002F312BB3AC3E543AF
:109830009547E5449548500302994C801885458228
:10984000854683E024BFC3941A500302A0FBE54978
:109850007003754901E54925E0F8E433F9741D28E2
:10986000F582748539F58312CBE11263ED12B525CB
:109870005025E549700302964712B788793E127168
:109880005B793E12715B792012715B7A017900126B
:1098900063F3790A12715B740465496003029647A9
:1098A0007AF97B851263ED7E00029FA012B56712E4
:1098B00050AA124F28E5497095854582854683E078
:1098C000640A708E74061250AA124F4CE8494A4B33
:1098D00060030297AB7900029FB012C913600302C4
:1098E000984E854582854683E0640A60030298525B
:1098F0001263878A438B44C3EA9547EB029834127C
:10990000C913600302984E854582854683E0640A48
:109910006003029852784CE624FB12B67A50030298
:10992000A1298A4C8B4D8A828B837401F0A3740524
:10993000F0A3E412B6D6E543F0A3E544F012B8ACC8
:10994000C3EA9547EB9548400302985585438285C5
:10995000448312B7C2029654854582854683E0F857
:1099600074BF28FEC3941A400302984E740F12501D
:10997000AAE8F08A458B4612B62964BD60030298B6
:109980004EA385824585834612B5A3600302984E97
:10999000A845A94688828983A38582458583468810
:1099A000828983E064D36003029852790012B56F14
:1099B000600302984EA845A94688828983A38582C0
:1099C0004585834688828983E064D4600302A029A8
:1099D00012B55D8C2B8D2CE549600302984E02A0D8
:1099E000387E00854582854683E0645570168A82FC
:1099F0008B83E06450700D852182852283E0640AA8
:109A000070027E01126411EEF912719702984E8570
:109A1000458285468312B72B400302984E7402128A
:109A200050AAE8F08A458B46790112B57F6003029F
:109A3000984EEA4B4C4D7003029852E4F525F526FA
:109A400078251252E174041250AAE0F912640B74E2
:109A500002125074E549600302984E0297AB7F00F2
:109A600012B54CFEE549600302984E12B62964D542
:109A7000600302A2B1A3858245858346EEF9127187
:109A80006D0297AB12B5671250AA124F28E54960D4
:109A90000302984E9087467821124EFE74061250AB
:109AA000AA7821124424500302A3258543828544C9
:109AB00083A3A312C9561252F875210078211252BD
:109AC000E574091250AA124F1C79031271737403C2
:109AD00012507402964712B57D600302984EEA4B0D
