:020000040000FA
:200000000205DDC2AFF5084194FFFFC2AFF50841A6FFFFC2AFF50841B8FFFFC2AFF5084154
:20002000CAFFFFC2AFF50841DCFFFFC2AFF50841EEFFFFC2AFF5086100FFFFC2AFF5086138
:2000400012FFFFC2AFF5086124FFFFC2AFF5086136FFFFC2AFF5086148FFFFC2AFF50861B8
:200060005AFFFFC2AFF508616CFFFFC2AFF508617EFFFFC2AFF5086190FFFFC2AFF5086178
:20008000A2FFFFC2AFF50861B4FFFFC2AFF50861C674FC1205A3750A04750B00780A1205E4
:2000A000CC74021206127A007B0079081203DC7402120588851E82851F83E0F47003A3E042
:2000C000F470030201F7851E82851F83E0F8A3E0F9E84970030201F77402120608E0687033
:2000E00003A3E0697010750901024030C2AF75C9AB75C95B80FE53BEFBE59DA2E650FAE5EA
:20010000C654804449F5C6E59E547F644970F853C67FE59EA2E740FA53C680E59E547F7055
:20012000FA43BE049062707408F0750A00F50B780A1205CC7C807D017A007B007908120309
:20014000DC7402120588900186E0F50AA3E0F50B7409780A1205ECE50A2408FF53B4F375AA
:20016000BC0075BC007CFC7D077A047B0079081202077E09EFC3940A401C800774086E70ED
:20018000027E567C007D087A007B00EEF91202070EEEC39F40E6A8BD851E82851F83E8F97B
:2001A000E5BCF8E0687003A3E069704B851E82851F83E0F8A3E0F97402120608E8F0A3E9AA
:2001C000F0851E82851F8374FFF0A3F07409F5D57480F5D4750A01780A1205CC7402120676
:2001E000127A007B101204617402120588C2AF75C9AB75C95B80FE750900020830C2AF754D
:20020000C9AB75C95B80FE74F71204C7E9FEAFC7740F5EF50A750B00740B780A1205B9EA93
:200220002400F8EB350BF9EA2400E93480F9A2AFE433F50AC2AFEEC4540FFAE5C754F84AB1
:20024000F5C7E9900980F0E8A3F0A37470F0A374BDF0EC900985F0ED541F900984F090093A
:20026000867420F0A37442F07409F5D57480F5D475D601000000000000000000000075D78F
:2002800001E5D7A2E040FA8FC7E50AA2E092AF7F0202052DE5096007E508D2AF024033E50B
:2002A00008D2AF020833E5096007E508D2AF02403BE508D2AF02083BE5096007E508D2AFC2
:2002C000024043E508D2AF020843E5096007E508D2AF02404BE508D2AF02084BE509600776
:2002E000E508D2AF024053E508D2AF020853E5096007E508D2AF02405BE508D2AF02085BFD
:20030000E5096007E508D2AF024063E508D2AF020863E5096007E508D2AF02406BE508D26B
:20032000AF02086BE5096007E508D2AF024073E508D2AF020873E5096007E508D2AF024031
:200340007BE508D2AF02087BE5096007E508D2AF024083E508D2AF020883E5096007E5086A
:20036000D2AF02408BE508D2AF02088BE5096007E508D2AF024093E508D2AF020893E5099B
:200380006007E508D2AF02409BE508D2AF02089BE5096007E508D2AF0240A3E508D2AF0280
:2003A00008A3E5096007E508D2AF0240ABE508D2AF0208ABE5096007E508D2AF0240B3E522
:2003C00008D2AF0208B3E5096007E508D2AF0240BBE508D2AF0208BB000203D874F5120488
:2003E000C7890A740F59F50C750D00740B780C1205B9EA2400F8EB3480F9EA2400E9350D9A
:20040000F985C70CA2AFE433F50BC2AFE50AC4540FFAE5C754F84AF5C7740B120608E0FE27
:20042000A3E0FFEE4F602CEEFAEFFB88828983E08C828D83F088828983A3A882A9838C827E
:200440008D83A3AC82AD83EA24FF1AEB34FFFBEA4B70D8850CC7E50BA2E092AF7F04020539
:200460002D74F71204C7ED900980F0ECA3F0A37462F0A37473F0A3E0541FF074091206082C
:20048000E0F50AA3E0F50BE50A333354FC900985F07406780A1205ECE50A900984F09009B3
:2004A000867412F0A37442F075D11E75D601EA906271F0EBA3F0906270E0D2E1F0E0A2E73E
:2004C00040FB7F0202052D251EC582C0E0E51F34FFC583C0E0E51EC3958224F910AF08859D
:2004E000831F85821E800885831F85821ED2AFCEF0A3E520F0A3780AE608F0A3DEFAEFF02D
:20050000A3E58124FBF8E608F0A3E608F0A30808E608F0A3E608F0A315811581D0E0FED0FD
:20052000E0F815811581E8C0E0EEC0E022851F83851E82E0A3FEE0A3F520780AE0A3F60817
:20054000DFFAE0A3FFE0A3C0E0E0A3C0E0E0A3C0E0E0A3C0E010AF0885821E85831F800819
:2005600085821E85831FD2AFD083D08222251EF58210AF08F51E400C151F8008F51E4002F6
:20058000151FD2AF851F832200C0D0251E10AF08F51E500C051F8008F51E5002051FD2AF9E
:2005A000D0D022251E10AF08F51E400C151F8008F51E4002151FD2AF22700422600D18C647
:2005C000C333C608C633C6D5E0F4182274028000C0E0F40412056DD0E01205FB2275D0007A
:2005E00075813F751E80751F0102061A600C08C6C313C618C613C6D5E0F422CAC0E0E6F064
:20060000A308DAFAD0E0FA22251EF582E4351FF58322251EFCE4351FFD2212009112062092
:2006200000000080FBFFFFFFFFFFFFFFFFFFFFFFFFFFFFFFFFFFFFFFFFFFFFFFFFFFFFFF5A
:20064000FFFFFFFFFFFFFFFFFFFFFFFFFFFFFFFFFFFFFFFFFFFFFFFFFFFFFFFFFFFFFFFFBA
:20066000FFFFFFFFFFFFFFFFFFFFFFFFFFFFFFFFFFFFFFFFFFFFFFFFFFFFFFFFFFFFFFFF9A
:20068000FFFFFFFFFFFFFFFFFFFFFFFFFFFFFFFFFFFFFFFFFFFFFFFFFFFFFFFFFFFFFFFF7A
:2006A000FFFFFFFFFFFFFFFFFFFFFFFFFFFFFFFFFFFFFFFFFFFFFFFFFFFFFFFFFFFFFFFF5A
:2006C000FFFFFFFFFFFFFFFFFFFFFFFFFFFFFFFFFFFFFFFFFFFFFFFFFFFFFFFFFFFFFFFF3A
:2006E000FFFFFFFFFFFFFFFFFFFFFFFFFFFFFFFFFFFFFFFFFFFFFFFFFFFFFFFFFFFFFFFF1A
:20070000FFFFFFFFFFFFFFFFFFFFFFFFFFFFFFFFFFFFFFFFFFFFFFFFFFFFFFFFFFFFFFFFF9
:20072000FFFFFFFFFFFFFFFFFFFFFFFFFFFFFFFFFFFFFFFFFFFFFFFFFFFFFFFFFFFFFFFFD9
:20074000FFFFFFFFFFFFFFFFFFFFFFFFFFFFFFFFFFFFFFFFFFFFFFFFFFFFFFFFFFFFFFFFB9
:20076000FFFFFFFFFFFFFFFFFFFFFFFFFFFFFFFFFFFFFFFFFFFFFFFFFFFFFFFFFFFFFFFF99
:20078000FFFFFFFFFFFFFFFFFFFFFFFFFFFFFFFFFFFFFFFFFFFFFFFFFFFFFFFFFFFFFFFF79
:2007A000FFFFFFFFFFFFFFFFFFFFFFFFFFFFFFFFFFFFFFFFFFFFFFFFFFFFFFFFFFFFFFFF59
:2007C000FFFFFFFFFFFFFFFFFFFFFFFFFFFFFFFFFFFFFFFFFFFFFFFFFFFFFFFFFFFFFFFF39
:2007E000FFFFFFFFFFFFFFFFFFFFFFFFFFFFFFFFFFFFFFFFFFFFFFFFFFFFFFFFFFFFFFFF19
:200800005E12FFFF0000005C41414141FFFFFFFFFFFFFFFFFFFFFFFFFFFFFFFFFFFFFFFF1E
:20082000000102030405060708090A0BFFFFFFFF020B00021996FFFFFFFFFFFFFFFFFFFFC6
:20084000FFFFFFFFFFFFFFFFFFFFFFFFFFFFFFFFFFFFFFFFFFFFFFFFFFFFFF021D94FFFF02
:20086000FFFFFFFFFFFFFFFFFFFFFFFFFFFFFFFFFFFFFFFFFFFFFFFFFFFFFFFFFFFFFFFF98
:20088000FFFFFF021A0CFFFFFFFFFFFFFFFFFFFFFFFFFFFFFFFFFFFFFFFFFFFFFFFFFFFF4D
:2008A000FFFFFFFFFFFFFFFFFFFFFFFFFFFFFFFFFFFFFF0217F3FF0000B40000280028003C
:2008C000283075A000A000A000A00000080008E001F000100010001000100010001000503A
:2008E000005000500010001000D0070000000000000F00010005003075070010000100810E
:20090000FF00000000FFFFFFBE1FDC1FC41FFA1FFF02020208025000A0000000E80302FD1E
:20092000B1010000F0B10201B20100008F180207B2010000C3020201B2010000901802091D
:20094000B2010000D9020201B20100009118020BB2010000DB020201B20100009218020D9E
:20096000B2080000DC020201B20100009318020FB20100009418FF0100FF2002FDB101003E
:2009800000F3B10201B2010000F8180211B200000000000205B20300000A031700FA25FA2F
:2009A00025FA25FA25FA25FA25FA25FA25FA25FA25FA25FA25FA256A287C2864280202FDFA
:2009C000B1010000F6B10201B20100001EB20217B20100003EB10201B20100001DB2021BDB
:2009E000B2010000A8B00201B201000020B20215B2010000D2B00201B20100003B190213F9
:200A0000B20100006AB11C02FDB1010000EDB10201B201000084191030B0020000690702E6
:200A200005B20300006B070203B201000031B10201B201000084191040B00200006A070228
:200A400005B20300006D070203B20100004AB1FFFFFFFF0001307503020106000000000007
:200A60000000000000000000000000000000000000000000000000FFFF0600800CE803E516
:200A8000C754F84405F5C779012200000080FB120A7FB90003020AEAE479437808B8000200
:200AA0008004F709D8FCE4794B7802B800028004F709D8FCE490028078B579168002F0A3E3
:200AC000D8FCD9FA7A347B189008B678CA79028015E493A3AD82AE838A828B83F0A3AA823B
:200AE000AB838D828E83D8E9D9E77582A67583FF7405120B1275828A75830A7400120B12C5
:200B000075D00075817F754180754202759F00020A8FC09FF59FE473D09F22D083D082C03D
:200B20009FE493C0E0740193C0E0740293F59F22E066701008A3E066700A08A3E066700402
:200B400008A3E06622C3E7960809E7960809E7960809E79622C3E09608A3E09608A3E096FB
:200B600008A3E09622C021C3E096F52108A3E096422108A3E096422108A3E0964521700102
:200B8000D3D02122080808EAC0E0EBC0E086F0E7A4FA180986F0E7A42AFA180986F0E7A4DF
:200BA0002AFA180986F0E7A42AFA1986F0E7A4FBE5F02AFA190886F0E7A42BFBE5F03AFA6C
:200BC000190886F0E7A42BFBE5F03AFA18180986F0E7A4C5F02BFBE43AFA1908E7C5F0C614
:200BE000A426F6E5F03BFBE43AFA1886F0E7A4F6E5F00826F6E43B08F6E43A08F6D0E0FB26
:200C0000D0E0FA22E4CFC0E0E4CEC0E0E4CDC0E0E4CCC0E075F020E626F608E633F608E636
:200C200033F608E633F6181818EC33FCED33FDEE33FEEF33FFC3EC9709ED9709EE9709EF5B
:200C400097191919400FFFEC97FC09ED97FD09EE97FE191906D5F0BFECF709EDF709EEF755
:200C600009EFF7191919D0E0FCD0E0FDD0E0FED0E0FF226016080808C6C313C618C613C6BB
:200C800018C613C618C613C6D5E0EA227009080808226016181818C6C333C608C633C60863
:200CA000C633C608C633C6D5E0EA22E627F60809E637F60809E637F60809E637F622E02656
:200CC000F608A3E036F608A3E036F608A3E036F622E026F008A3E036F008A3E036F008A3D4
:200CE000E036F022C3E697F60809E697F60809E697F60809E697F622C3E0C696F608A3E068
:200D0000C696F608A3E0C696F608A3E0C696F622C3E096F008A3E096F008A3E096F008A3AF
:200D2000E096F022E056F608A3E056F608A3E056F608A3E056F622E056F008A3E056F00859
:200D4000A3E056F008A3E056F022E0F608A3E0F608A3E0F608A3E0F622E6F008A3E6F008FD
:200D6000A3E6F008A3E6F022E0FAA3E0FBA3E0FCA3E0FD22E0FCA3E0FDA3E0FEA3E0FF225D
:200D8000ECF0A3EDF0A3EEF0A3EFF022E0F8A3E0F9A3E0FAA3E0FB22E8F0A3E9F0A3EAF090
:200DA000A3EBF022CAC0E0E6F0A308DAFAD0E0FA22CAC0E0E0A3C582CCC582C583CDC58364
:200DC000F0A3C582CCC582C583CDC583DAE6D0E0CA22C3E498F8E499F9120E138026C3E440
:200DE0009AFAE49BFBE920E7E9120E13E498F8E499F922C3E498F8E499F9120E13E498F879
:200E0000E499F9C3E49AFAE49BFB22EB20E7CFE920E7E0B90010BB0008E88AF084F8AAF0F0
:200E200022E4FBC8FA22EB70227B10C833C8C933C9335007C39AC3DBF280069A50012ADB50
:200E4000EAC833F4C8C933F4C9FA2275F008E4C833C8C933C933C99AC99B5004C92AC93BFE
:200E6000D5F0ECFBC833F4C8E4C9FA22600D08C6A2E713C618C613C6D5E0F322600C08C6EE
:200E8000C313C618C613C6D5E0F422700422600D18C6C333C608C633C6D5E0F41822254187
:200EA00010AF08F541400C15428008F54140021542D2AF2200C0D0254110AF08F541500C49
:200EC00005428008F54150020542D2AFD0D0222541F58210AF08F541400C15428008F541F6
:200EE00040021542D2AF854283222541F582E43542F583222541F8E43542F9222541FAE482
:200F00003542FB222541FCE43542FD22E4732541C582C0E0E54234FFC583C0E0E541C395FD
:200F20008224F810AF088583428582418008858342858241D2AFCEF0A3E520F0A37821E6A7
:200F400008F0A3DEFAEFF0A3E58124FAF8E608F0A3E608F0A3E608F0A30808E608F0A3E626
:200F600008F0A315811581D0E0FED0E0F8158115811581E8C0E0EEC0E0222541C582C0E00D
:200F8000E54234FFC583C0E0E541C3958224F910AF0885834285824180088583428582417F
:200FA000D2AFCEF0A3E520F0A37821E608F0A3DEFAEFF0A3E58124FBF8E608F0A3E608F067
:200FC000A30808E608F0A3E608F0A315811581D0E0FED0E0F815811581E8C0E0EEC0E02276
:200FE000854283854182E0A3FEE0A3F5207821E0A3F608DFFAE0A3FFE0A3C0E0E0A3C0E08B
:20100000E0A3C0E0E0A3C0E0E0A3C0E010AF088582418583428008858241858342D2AFD0A3
:2010200083D082020B18854283854182E0A3FEE0A3F5207821E0A3F608DFFAE0A3FFE0A313
:20104000C0E0E0A3C0E0E0A3C0E0E0A3C0E010AF088582418583428008858241858342D242
:20106000AFD083D08222C0D02541C582C0E0E54234FFC583C0E0E541C3958224F310AF08FD
:201080008583428582418008858342858241D2AFC8F0A3E9F0A3EAF0A3EBF0A37921E709C7
:2010A000F0A3D8FAECF0A3EDF0A3EEF0A3EFF0A3D0E0F0A3D0E0F0A3D0E0F0A3E520F0A368
:2010C000E5F0F0A322854283854182E0C0E0A3E0F9A3E0FAA3E0FBA37821E0F608A3DFFA67
:2010E000E0FCA3E0FDA3E0FEA3E0FFA3E0C0E0A3E0C0E0A3E0F5D0A3E0F520A3E0A3F5F060
:2011000010AF088583428582418008858342858241D2AFD082D083D0E0F8D0E032740480B4
:2011200006740280027401C0E0F404120ECFD0E0120DA4227404800474028000CCC0E0EDD5
:20114000C0E0E541C39CCCAD4250011D10AF068C418D4280068C418D42D2AF120DB1D0E0BD
:20116000FDD0E0FC22D083D082E9C0E0E493A3C386F0C5F095F0F908E493A386F0C5F0950E
:20118000F0700BE493A3C3994005E9048002A3E475F002A42582F582E5F03583F583D0E055
:2011A000F9E493A3C0E0E493C0E022D083D082ECC0E0EDC0E0E493A3FCE493A3FDED4C60BF
:2011C0000D1211F7EC24FFFCED34FFFD80EFE493A3FCE493A3FDED4C600D121236EC24FF15
:2011E000FCED34FFFD80EFD0E0FDD0E0FCE493A3C0E0E493C0E022C0E0C3E493960874012E
:20120000939618400FE49366700808740193661870007019A3A3C3E493960874019396188E
:20122000A3A3400DD0E0D0E0D0E00211E7A3A3A3A3A3A3D0E022C0E0C0F088F0E493667058
:20124000080874019366187000A8F0A3A3700BD0F0D0E0D0E0D0E00211E7A3A3D0F0D0E0AF
:2012600022FFFFFF74F6120F7AEAFEEBFF8C218D22EA2434F8E43FF9E8FCE9FDEA243512A7
:20128000160BFAEE243712160BF88521F0A4C885F0238522F0A42523F9EA28F8E439F97A0F
:2012A000257B00120E13EA8C828D83F0FA131313541F1215FF245DF582E439F583E0C0E08A
:2012C00074075AF8D0E0B800028004C313D8FCA2E0EE50082434F582E43F801424361216D9
:2012E0000BF5F0EA84A8F01216002438F582E439F583E0F97F0302102674F7120F7AEAFEE7
:20130000EBFFEA243412160BC0E0EA2435F582E43FF583D0E0F08A828B83A3A3A3A3A3A3ED
:20132000A3C082C0838A828B83A3A3A3A3A3E0F8A3E0F9D083D082E0C398F521A3E099F5E1
:2013400022EA248012160B6401703EEA2481F582E43FF583C082C0838A828B83A3A3A3A3CB
:20136000A3E0240108A3E03400F9D083D082E0687003A3E06970127CB27D0412253AEE240D
:2013800080F582E43FF583E4F0AC21AD22EEFAEFFB121264E9F9121D867F02021026C0825F
:2013A000C083854182854283E0F8A3E0F9C3EA9CEB9D5010C3EC98ED99401BC3EA98EB99E2
:2013C0005014800EC3EA98EB994007C3EC98ED994004790180027900D083D08222EAC39C75
:2013E000FAEB9DFB2274EF120F7A900372E064086005E06407702A9061C8E060249003A065
:20140000E0F4601DE0F875F010A4C8AAF02AF974A228FE740339FF8E82F583A3A3A3E07059
:20142000030214FE906060E0C0E0EE2468F582E43FF583D0E0F07525237526057521007531
:201440002200E5D914F523E5D95403F527602F74036527601DE5236008EE246712160B60C4
:201460001D90051EE06401602C121608601278048010121608602CE523C3940550258063A5
:201480007800E523C398FA95E0FB1224028A218B22EA4B7005122756806412160870048A2C
:2014A000258B26E5236012852582852683F524E5D9F0A31524E52470F6121608604574FC2B
:2014C0002523F5237825121121AC23A927EEFAEFFB1225F47402120EB4E97027AA21AB22CD
:2014E000122A6E793D8E828F83A3A3A3A3E0FA7B00122276EEFAEFFB12255E1226067900C1
:201500000215FA740365276053E523F529752A007829121121AC25AD26AA21AB221225B82F
:201520007402120EB4EE246812160B64807004747F8001E0F5257825121125E527F525786B
:2015400025121125A923AC21AD229003A0E0FA7B0012224C7402120EB40215F585258285A7
:201560002683E0C3940E5011E0F8742328F582E434B1F583E065236069852582852683E062
:20158000C0E0EE24F7F582E43FF583D0E0F0A2AFE433FCC2AF7A0080010AEE246E12160B63
:2015A000F8EAC3985013EA1215FF246AF582E439F583E0640770E28022EE246EF8E43FF90E
:2015C000E0FAEE2AFAE43FFBEA246AF582E43BF5837407F088828983E004F0ECA2E092AF77
:2015E0008013900372E06408600BAC25AD26EEFAEFFB12267E12276279017F0A021026F8A2
:20160000EE28F8E43FF9E822EE2484F582E43FF583E02274F1120F7A74FC120E9EEAFEEBEB
:20162000FF8922752600A2AFE433F521C2AF9004BAE0FA9061D0E0F8748098F895E0F9C300
:20164000EA98E499A2D265D03340030216FD7526010216FDE0601B7823121121AC27A928C8
:20166000EEFAEFFB1225EE7402120EB474042527F52774012527F5D98528D9E52760128531
:201680002382852483F525E0F5D9A31525E52570F675E195EE2463F8E43FF97A007B00A259
:2016A000AFE433F523C2AF88828983E0FCA3E0FDEC4D603A88828983E0FAA3E0FB8C82F525
:2016C00083E0FCA3E0FD88828983ECF0A3EDF08A828B83E4F0A3F088828983E0FCA3E0FDC6
:2016E000EC4D700A88828983A3A3E4F0A3F0E523A2E092AF122A6E9004B9E004F0EE246369
:2017000012160BF8A3E0F9E8496063EE246312160B2402F8A3E034008882F583E5822402A2
:20172000F523E43583F524E0F527A3E0F528EE246212160B640170369061D0E0F8121608C5
:2017400060047C0480027C007480C398FA95E0FBE5272CF8E43400F9E82402F8500109C38A
:20176000EA98EB99A2D265D03340030216549061D0E0F87480C3989004BAF0E52660539064
:2017800004B9E0604D9004BBE0F89004B9E0C398500C74026522703A9004BCE060348E8279
:2017A0008F83A3A3A3A3E08541828542831217E27402120EEAE81217E29004B8E028F074E3
:2017C00002120F04AA41AB42790112229A9004B9E4F0E521A2E092AF7404120EB47F080203
:2017E0001026F0A3E4F09004B9E0F8228543878544C622C0E074EB121066A2AFE433F52100
:20180000C2AF759B00906182E0A2E0502DE591A2E050277591FE74016543701E12196A1230
:201820001981121134121B357404120EB4E96401700579011226FC1213E5906182E0A2E5B4
:20184000505AE591A2E550547591DF900372E064076005E06408702C12196A740165437099
:201860003B121981121134121B357404120EB4E96401700579011226FC7901EEFAEFFB12AD
:2018800016138018E0640D7013900394E004F064287002E4F07A00E0F9122768906182E09F
:2018A000A2E6400302193FE591A2E6400302193F7591BF900372E0640570081226A81226C5
:2018C000B480031226AE754300122708E9900373F079001226FC1224B07A017B0090037186
:2018E000E0F9122A38907803E064427052900522E014F0704AC2AF1218FA00784CD0E0F6F4
:2019000018D0E0F6E59F540770047BFF80027B7FC4C0E0784BE6F52308E65BF524740B7842
:2019200023120E7CD0E02523F8906270E0A2E740F8E8C333906272F0906270E0D2E0F0904F
:201940006181E0A2E35009E5E9A2E3500375E9F7A3E0A2E75009E591A2E7500375917FE5CB
:2019600021A2E092AF7F080210C59003A0E0F875F010A4C8AAF02AF974A228FE740339FF91
:20198000221226C08E828F83E0F8A3E0C82416F582E438F58322C0E0C0D0C082C0839061DB
:2019A00083E0A2E05009E5BFA2E0500375BFFEE0A2E15009E5BFA2E1500375BFFDE0A2E273
:2019C0005009E5BFA2E2500375BFFBE0A2E35009E5BFA2E3500375BFF7E0A2E45009E5BF3C
:2019E000A2E4500375BFEFE0A2E55009E5BFA2E5500375BFDFE0A2E65009E5BFA2E650035A
:201A000075BFBFD083D082D0D0D0E032C0E074F2121066E5A7A2E6500FE5A1A2E6500953F1
:201A2000A7BF75A1BF121A60E5A7A2E5500CE5A1A2E5500653A7DF75A1DFE5A7A2E15009D7
:201A4000E5A1A2E1500375A1FDE5A7A2E2500CE5A1A2E2500653A7FB75A1FB7F010210C5EE
:201A600074F7120F7A754301900372E06406701512262A8A828B83A3A3A3A3A3A3E0FAA308
:201A8000E0FB122696A2AFE433FED2AF900378E0640170187A207B00900371E0F9122AE0D0
:201AA0007A207B00900371E0F9122A3E906182E0D2E6F090051FE0602185C64480169003F2
:201AC00077E064017008E5C654F84405F5C653BEFC1217EC7401654360E4EEA2E092AF7F24
:201AE000020210268E458F4685824A858349854182854283E0CEA3E0CF854A82854983EB43
:201B0000C9EAC8EDCBECCA75F010C3E833C8E933C9EA33CAEB33CBC3EA9EF548EB9FF547BE
:201B2000B35004AB47AA48EC33CCED33CDD5F0DAAE45AF462274F1120F7A8A218B228C2332
:201B40008D2490B1CD7821120D24740F120EEA7825120D4A90B1CD7825120D247821792532
:201B6000120B4590B1AD501078217925120CE47821120B654014800E78257921120CE478CE
:201B800025120B6550047901800279007F0802102674ED120F7A8A218B228C238D2490B121
:201BA000CD7821120D247413120EEA7825120D4A90B1CD7825120D2478257921120B45401E
:201BC0001178217925120CE4AA21AB22AC23AD248022752900752A00752B00752C017829C1
:201BE0007925120CE478297921120CABAA29AB2AAC2BAD2C7F0C02102690B1CD7821120D60
:201C00004A8A828B837821120D377F0402102674F5120F7A8C828D837821120D4A8A828BFB
:201C2000837821120D10121C67C3E09CF0A3E09D121C59402290B1DD7821120D4A8A828BD5
:201C4000837821120CD18A828B83A3A3A3A3E02420F0A3E0344EF080A0F088828983C3E001
:201C60009420A3E0944E22EA2404F8E43BF98C828D83A3A3A3A3E0FCA3E0FD8882898322C9
:201C800074F5120F7A9004D5E0FAA3E0FBE929F8E433F974E328F58274B039F583E02AF59B
:201CA00021A3E03BF522782112112190B1D9120D68121AE47402120EB48A218B228C238DC2
:201CC0002474107821120C73AA21AB227F0402102674F1120F7A8A258B268C278D28741192
:201CE000120EEA1211387411120EEAE02401F521A3E03400F522E4F523F5247825792112A9
:201D00000B8490B1B97821120D4A78257921120B84AA25AB26AC27AD28121AE47402120E72
:201D2000B4EA4B60047A0180027A00EC2AFCE43DFD7413120EEAE0F8A3E0F9E8FEE9FFEC10
:201D4000F8EDF97A717B02120E1388218922E4F523F5248E828F837821120D59ECF8EDF9A4
:201D60007A717B02120E138A218B2274057821120E8B8E828F83A3A3A3A3E521F0A3E52265
:201D8000F07F08021026C082C083E9906000F0D083D08222C0E0C0D0E8C0E0A8A8D2AFC234
:201DA000C7E8A2E792AFD0E0F8D0D0D0E032C2AF02000022120B1BD0E407120B1B1BE507B9
:201DC000120B1BF6FF05120B1BFBFF05120B1B75C907120B1B88C907120B1BB7C907120BB1
:201DE0001BEFC907120B1B38CA07120B1B7BCA07120B1BC1CA07120B1BF4CA07120B1B1B2A
:201E0000CB07120B1B4ACB07120B1B81CB07120B1B9ACB07120B1BE9CB07120B1B02CC076D
:201E2000120B1B4ACC07120B1B908907120B1B8E8A07120B1BF48A07120B1B178B07120BE3
:201E40001B198B07120B1B578B07120B1BC88B07120B1B888C07120B1BAA8C07120B1B46C3
:201E60008D07120B1B7D8D07120B1BC28D07120B1BCF8D07120B1B3F8E07120B1B898E07FA
:201E8000120B1B8C8E07120B1BD28E07120B1BD58E07120B1BDF8E07120B1B528F07120BBF
:201EA0001B7A8F07120B1BAD8F07120B1BD18F07120B1BCE9007120B1B729107120B1BDEE8
:201EC0009107120B1B1A9207120B1BC8BD07120B1BF0BD07120B1B1DBE07120B1B55BE0763
:201EE000120B1BBBBE07120B1B05BF07120B1B69BF07120B1BB1BF07120B1BEEBF07120B08
:201F00001B1CC007120B1BB1C007120B1BBBC007120B1BC8C007120B1BFBC007120B1B0759
:201F2000C107120B1B1FC107120B1B29C107120B1B26FF06120B1B3EFF06120B1B55FF0621
:201F4000120B1B0B9E06120B1BAE9E06120B1BE99F06120B1B92A006120B1B1AA206120BC3
:201F60001B02A306120B1BF9A306120B1B2FA406120B1BD1A406120B1BF7A406120B1BC329
:201F8000A606120B1B09A706120B1B2BA706120B1B97A706120B1B62A806120B1B1CA906D0
:201FA000120B1B28AB06120B1BC9A007120B1BA5A107120B1B4FA207120B1B90A207120B25
:201FC0001B17A307120B1B92A307120B1B65A407120B1B8EA407120B1B82A507120B1BBF9B
:201FE000A507120B1BA7A607120B1BD8A607120B1BFEA607120B1B5AE007120B1B85E007EC
:20200000120B1B95E107120B1B9AC507120B1BB0C507120B1BCEC507120B1BDEC607120BE7
:202020001BE8C607120B1B12C807120B1BFFC807120B1B6BC907120B1B7FF906120B1BACA4
:20204000FA06120B1BE3FA06120B1B3AFB06120B1B32FD06120B1B14EA05120B1B9BEA0588
:20206000120B1BEFEB05120B1BFBEB05120B1B73EC05120B1B51ED05120B1B4DEE05120B7A
:202080001B19EF05120B1B73F005120B1B89F005120B1BB0F005120B1B26F105120B1B4C0D
:2020A000F105120B1BF9F305120B1BFEF305120B1B22F605120B1B69F605120B1BCFF605E0
:2020C000120B1B15F705120B1BE5F705120B1B9AF805120B1BF6F805120B1BF9F805120B59
:2020E0001B45F905120B1B81F905120B1BC0F905120B1BE2F905120B1B2DFA05120B1BE73A
:20210000FA05120B1BF5FA05120B1B45FB05120B1B64FB05120B1BAEFB05120B1BF1FC056B
:20212000120B1B89FD05120B1BB3FD05120B1B1EFE05120B1B62FE05120B1BE5FE05120BBC
:202140001B94FF05120B1B28B205120B1BC2B205120B1B1EB305120B1BDCB305120B1BFFF3
:20216000B405120B1B2FB505120B1B5EB505120B1B14B705120B1B67B905120B1BC6BB0512
:20218000120B1BAFBC05120B1B9FBD05120B1B72BF05120B1B6AC205120B1B87C305120B83
:2021A0001B81C505120B1B90C605120B1B1FC805120B1B0BC905120B1B5AC905120B1BCA8F
:2021C000C905120B1BE6C905120B1B37CA05120B1BD7CE05120B1BEDCF05120B1BA5D0057A
:2021E000120B1BB7C107120B1BC1C107120B1B09C207120B1B1DC207120B1BAEC207120B73
:202200001BE5C207120B1B20C307120B1B49C307120B1B9DC307120B1BB2C307120B1BD429
:20222000C307120B1BE9C307120B1B23C407120B1B4FC407120B1BDAC407120B1B1DC50773
:20224000120B1B47C507120B1B72C507120B1BC4E107120B1BB6E506120B1B8FE606120B30
:202260001BFEE606120B1B39E706120B1B74E806120B1B26E906120B1BD3EB06120B1B7E62
:20228000EC06120B1B5FED06120B1BD5EE06120B1B3DEF06120B1B59B107120B1BC4B20759
:2022A000120B1B02B507120B1B4DD707120B1BFAD707120B1BF3D807120B1B30D907120B46
:2022C0001B46DB07120B1BA5DB07120B1B42DC07120B1B75DC07120B1BA3DC07120B1BDE3B
:2022E000DC07120B1BFEDC07120B1BB0AC07120B1B39AD07120B1BF8AD07120B1B06AF074A
:20230000120B1B26B107120B1B61CF06120B1B76CF06120B1B41D006120B1B0ED106120B2D
:202320001B7BD106120B1BB6D106120B1B57D206120B1B60D306120B1B38D406120B1BBB56
:20234000D406120B1B44D506120B1BADD506120B1B37D606120B1B84D606120B1BF2D606A3
:20236000120B1B94D706120B1B42D806120B1B62D806120B1BA6D806120B1BEED806120B07
:202380001B0AD906120B1B29D906120B1BA3D906120B1BB1D906120B1B44DA06120B1BAE35
:2023A000DA06120B1B9FB507120B1B1BB607120B1B59B607120B1B3DB707120B1BACB70777
:2023C000120B1BF0B707120B1B33B807120B1B60B807120B1B7EB807120B1BB6B807120B57
:2023E0001BF3B807120B1B14B907120B1B8AB907120B1B008006120B1B948106120B1BD267
:202400008306120B1B1A8406120B1B458406120B1B3B8506120B1B6B8506120B1BC285069F
:20242000120B1BEF8506120B1B388606120B1B748606120B1BB98606120B1B068706120B51
:202440001B6E8706120B1BA08906120B1B678B06120B1BA28B06120B1B208D06120B1B64DD
:202460008D06120B1BD78D06120B1B978E06120B1BB68F06120B1BC78F06120B1BE2EF069E
:20248000120B1B53F006120B1B1CF606120B1B16F706120B1BD8F806120B1B56F906120B68
:2024A0001B0ED105120B1B95D105120B1BC2D105120B1B04D205120B1B00D305120B1B450A
:2024C000D305120B1BC1D405120B1B49D505120B1BBCD505120B1B79D605120B1B35D70554
:2024E000120B1BB5D705120B1B83D805120B1BA9D805120B1B1BD905120B1BBFD905120B9A
:202500001BE4D905120B1B50DA05120B1BB6DA05120B1BECDA05120B1B90DB05120B1B299E
:20252000DC05120B1BACDC05120B1B18DD05120B1B64DD05120B1BCADD05120B1BFBDD054C
:20254000120B1BAFDE05120B1BC5DF05120B1B0EE005120B1B2BE005120B1B0BE605120B12
:202560001B53E605120B1B40E705120B1B65E705120B1B7AE705120B1BE2E705120B1B2217
:20258000E805120B1B35E905120B1BE2E905120B1B008007120B1B4B8007120B1B5780070C
:2025A000120B1B228107120B1B388107120B1B748107120B1BAD8107120B1BE58107120BDE
:2025C0001B3B8207120B1B518207120B1B8D8207120B1BA08207120B1BC78207120B1BFBA0
:2025E0008207120B1BCF8307120B1B5E8507120B1B5A8607120B1B638707120B1BF33F00ED
:20260000120B1BCC8F06120B1B079006120B1B0B9306120B1B5D9406120B1B229506120B2F
:202620001B1C9806120B1B069906120B1B519906120B1B6B9906120B1BA89906120B1BB314
:202640009906120B1BF29906120B1BFB9906120B1BBC9A06120B1B799B06120B1BDC9B06A5
:20266000120B1B409C06120B1BC19C06120B1B442B00120B1BA02E00120B1BA62E00120BCF
:202680001BE73500120B1BBF3A00120B1BB2CC07120B1B7CCD07120B1BC0CD07120B1BFA8F
:2026A000CD07120B1B8CCE07120B1BFBCE07120B1B04CF07120B1B10CF07120B1B24CF0743
:2026C000120B1B48CF07120B1B78CF07120B1BA7CF07120B1BB4CF07120B1BCECF07120BAE
:2026E0001B01D007120B1B3ED007120B1BA4D007120B1BB9D007120B1BC4D007120B1BD143
:20270000D007120B1BE8D007120B1BF6D007120B1B01D107120B1B0DD107120B1B1CD1078C
:20272000120B1B27D107120B1B47D107120B1B57D107120B1B6DD107120B1B8BD107120B6F
:202740001B96D107120B1BABD107120B1BBFD107120B1B20D207120B1B26D207120B1B2C9A
:20276000D207120B1B32D207120B1B44D207120B1B3AAB06120B1BC8AB06120B1BA4AC0686
:20278000120B1BD8AC06120B1BEBAC06120B1B65AD06120B1BEDAE06120B1B14AF06120B5B
:2027A0001B9BAF06120B1BDAAF06120B1BEBAF06120B1B60B006120B1B7FB006120B1B9785
:2027C000B006120B1BDBB106120B1BE5B306120B1B17B606120B1B1DB706120B1B60B70631
:2027E000120B1BD0C306120B1BDAC306120B1BFCC306120B1B08C406120B1B55C506120BB1
:202800001B82C506120B1BA3C606120B1BE5C606120B1B2BC806120B1B8CC806120B1BC104
:20282000C806120B1BFAC806120B1BA5CC06120B1BBCCC06120B1B3ACD06120B1B48CD06BD
:20284000120B1B91CD06120B1B9FCD06120B1B20CE06120B1B8FCE06120B1BDBCE06120B67
:202860001BD1DA06120B1BF3DA06120B1BCFDC06120B1B47E006120B1B91E106120B1B73D8
:20288000E206120B1B0CDD07120B1B31DD07120B1BA2DD07120B1B409207120B1B499207F2
:2028A000120B1B529207120B1B769307120B1B679507120B1B959507120B1BC09507120B58
:2028C0001BEE9507120B1B199607120B1B579607120B1B839607120B1BC09607120B1BEB29
:2028E0009607120B1B379707120B1B8E9707120B1BCE9707120B1B1D9807120B1B48980713
:20290000120B1B8E9807120B1BBC9807120B1BE79807120B1B0A9907120B1B07E707120BD5
:202920001B11E707120B1B21E707120B1BBDDE07120B1BE4DE07120B1B10E607120B1B32BC
:20294000D507120B1B82D507120B1BF1D507120B1B95D607120B1BB4D607120B1B02D70775
:20296000120B1BE5FF06120B1BF0FF06120B1B49E707120B1B5BE507120B1B6BE507120B6E
:202980001B74E507120B1BB8E507120B1BD8E207120B1B5BE307120B1BC1E307120B1B96B9
:2029A0009907120B1B159A07120B1B2C9A07120B1BF49A07120B1BCE9B07120B1B1B9D0718
:2029C000120B1BDB9D07120B1B3F9F07120B1BC59F07120B1BA0E607120B1BB2E607120BC7
:2029E0001B6EA707120B1B78A707120B1BB8A707120B1B01A807120B1B39A807120B1B8FD5
:202A0000A807120B1BACA807120B1BB5A807120B1BFAA807120B1B23A907120B1B38A907CC
:202A2000120B1BA8A907120B1B35AA07120B1B89AA07120B1BACAA07120B1B2BAB07120BAF
:202A40001B66AB07120B1B9BAB07120B1BADAB07120B1BC9AB07120B1BD2AB07120B1B84FC
:202A6000AC07120B1BBBE507120B1B513E00120B1BA23E00120B1B2B3F00120B1B953F0037
:202A8000120B1B77D207120B1B9FD207120B1B94D307120B1BB9D307120B1B48D407120B15
:202AA0001BDAE307120B1B4AD907120B1B80D907120B1BB3D907120B1B0CDB07120B1BD143
:202AC000B907120B1BE7B907120B1B8BBA07120B1BCABA07120B1BE7BA07120B1B18BB071E
:202AE000120B1B65BB07120B1B98BB07120B1BD3BB07120B1BADB706120B1B41BB06120B1F
:202B00001B98BB06120B1BB7BB06120B1B14BC06120B1B91BD06120B1B64BE06120B1B2639
:202B2000C206120B1B0EC306120B1B5AE607120B1BDBE607120B1B2BE707FFFFFFFFFFFFF4
:202B4000FFFFFFFF74F6120F0E907803E064427052900522E014F0704AC2AF122B5E0078B4
:202B60004CD0E0F618D0E0F6E59F540770047BFF80027B7FC4C0E0784BE6F52108E65BF5FB
:202B800022740B7821120E7CD0E02521F8906270E0A2E740F8E8C333906272F0906270E0FA
:202BA000D2E0F09003A0E0F47003022E59123556EE123A5FE06401700AEE24F6123A0CF922
:202BC000022DBE123A0964027002E4F0EE24031235C3601CEE2403F582EF3401F5831234FE
:202BE000C0EE2402F582EF3401F583E0F9122A388E828F83A3A3A3A3A3A3A3122E931234F1
:202C000091906054E0900379F0906055E090037AF0906056E090037BF0906057E090037C87
:202C2000F0906058E090037DF0906059E090037EF090605AE090037FF090605BE0900380E8
:202C4000F090605CE0FC900381F090605DE0FB900382F090605EE0FD900383F090605FE0CB
:202C6000FA900384F090037FE02CF8E43400F9E82DF8E439F9E82BF8E439F9E82AFAE439BF
:202C8000FBEE24F8123A0C2AF0A3E03BF0EE24FAF582E43F122E88EE24FC1235B860529052
:202CA0006000E0FC25E0FCE433FDE82CF582E93DF583E02AF0A3E03BF0906000E0FA900395
:202CC00081E0FCEA2AFAE433FBE82AFAE93BFBEA244AF582E43B122E88906000E0FA25E0C7
:202CE000FAE433FBE82AF8E93BF9E82494122E75F090037FE0700E900382E07008A3E0708C
:202D000004A3E060518E828F83A3A3A3A3A31235D0122E687003123E2F90037AE0601CEE22
:202D2000241C1239FB123DD6E07010123A09700BEE2480123A0C7003123E2FEE2483123AFB
:202D40000C7003022DD46402707E900382E07078122E5EE4807D123476F0900381E0600A37
:202D6000122E68702712352E8021EE24FE1235B8601A906000E0F825E0F8E433F9EEF5823B
:202D8000EF34011234A724DE122E75F0123468122E93E0687003A3E0696003022D19EE2496
:202DA0000F123A0C60128E828F83A3A3A3A3A3E064057002A3E0600479088002793EEEFAA5
:202DC000EFFB122564022E59900382E07006122E5E7402F0906062E060248E828F83123A52
:202DE00096E82406FCE439FDE82402FAE439FB1226BA8E828F83123520E4F0A38006123437
:202E000076123497F0906060E0C0E0EE2468F582E43FF583D0E0F09061C8E060061213E56A
:202E2000E970F48E828F83A3A3A3E0602C9061C8E070069060607480F0EEFAEFFB122684FD
:202E4000E9640160147902EEFAEFFB121613122678E9640160031226067F02020FE0EE2405
:202E600083F582E43FF58322EE240F123DBA12349CE0640122F582E439122E7D22F583E05D
:202E80002401F0A3E0340022F583E02CF0A3E03400F022123A9A8E828F83A3A3A3A3A322AE
:202EA00053BFEF020B1874F0120F0E9003A01235569061D0E0700CEE2463F582E43F123516
:202EC000C860051234768020EE2469123A0C7019123A097014EE2480123A0C700CEE241CA0
:202EE000123A59700412352EF08E828F83A3A3A3A3A31234B81234611234A72401085001F3
:202F000009EE2407F521E43FF52285218212348F123468C3E098A3E09950208E828F83A308
:202F2000A3A3A3A3A3A3C082C083123468123A96D083D082123E48501B8021123468C08271
:202F4000C0838E828F83A3A3123A91D083D082123E3450089004BEE0640170031235A0EE89
:202F60002474123A59704E12345612113812357C120EB4E9603F8E828F83A3A3A3A3A3A34C
:202F8000A3C082C083123502D083D082E0687003A3E069700302303BEE2475123A0C6870DD
:202FA00003A3E069700302303BEE2475F523E43F8523828051EE2480123A59707EEE2481CD
:202FC000F582E43FF58312113812357C120EB4E960698E828F83A3A3A3A3A3A3A3C082C0A2
:202FE00083123502D083D082E0687003A3E069604AEE2481123A0C687003A3E069603CEED3
:203000002481F582E43FF583E024FFFAA3E034FFFB852182852283EAF0A3EBF08E828F837F
:20302000A3A3A3A3A3E0FCA3E0FD1213DDEA24FFF8EB34FFF9EE241D12348BEE2483123A06
:203040000C60031235A0EE2474123A5960030231A2123456C082C083123502D083D082E0C8
:20306000687003A3E06960030231A2EE2475F523E43FF524852382F583123A968521828545
:203080002283123491EE2477FCE43FFDEEFAEFFB122570EE247C1234B2123543E8F0A3E922
:2030A000123497123A86240F123A338521828522831235D08E828F83A3A3A3A3A3E0FCA376
:2030C000E0FD8523828524831234C01213DD8A218B221234401234C0E4F523F5248A258B82
:2030E00026F527F52878217925120B84EE247812348178217925120CABEE247A123A0C6AFA
:203100007003A3E06B70181234F3E0687003A3E069700C1234D7E0687003A3E0696043EE15
:20312000247EF582E43FF583123AA0120E7C7825121121EE247CF582E43FF583121138EE89
:20314000247A123A0CFCA3E0C313FDEC13FC8E828F83A3A3A3A3E0FA7B00122294740412D7
:203160000EB4EE2477123A0CC0E0EE242BF582E43FF583D0E0F0EE247A1234B2242E123401
:203180008B1234D71234911234F3123491EEFAEFFB122576EE2474F582E43FF5837402F023
:2031A000800312356A12344A120B307014EE241F123A0CF8EE241D123A0C687002A3E060B5
:2031C00032EE2412F525E43FF5267825121121EE2410F582E43FF583121138123460F583B3
:2031E000121138AA21AB22AC23AD24121CD17406120EB412344A120D59EE241D123A0CC0A0
:20320000E0EE241FF582E43FF583D0E0F0EE2412FCE43FFD1234C6906062E060077C647DA9
:20322000B11234C68E828F83123A968882F583A3A3E82408FCE439FD7406120DB18E828FF2
:2032400083E02402F8A3E03400F9E8FAE9FBEE241D123481E4F527F52890B1D17825120C97
:20326000BE78257921120B848A828B837825120CD190B1CD7825120D4A8A828B8378251235
:203280000D379004B7E0640160030233BC79011226FC1234BCEA240EF582E43BF58374FFB9
:2032A000123DE8EA2412F8E43BF9E8FAE9FBEE2412F582E43FF5837821120D4AE52175F03E
:2032C000E2A4C521A8F075F004A428F875F0E2E522A428F5228A828983E02521F0A3E035A6
:2032E00022F0EE2416123A0CF521A3E0F52274047821120E7CE5212401F8E43522F98A827C
:203300008B83E028F0A3E039F0906062E08E828F837003023418123519F0A3E03401F0EE00
:20332000240F123A0C602CEE242B123A0CF875F071A4C8AAF075F002A42AF98E828F83E0DD
:20334000FAA3E0CA2412F582E43AF583E028F0A3E039F01234BC8A82F583A3A3C082C083EE
:2033600012356AD083D0827821120CBE90B1E57821120CBE90B1CD7821120D24EA2416F5E4
:2033800082E43BF5837821120D59EA2414F582E43BF5837410F08E828F83E0F8A3E0C824F6
:2033A0001AF582E438F58374ECF0A37424F0EEFAEFFB1212F979007F08020FE090B1E978EB
:2033C00021120B6550030232921234601235C86003023292782112111DEEFAEFFB12257CF5
:2033E0007404120EB4E964016003023292EE240F123A0C60128E828F83A3A3A3A3A3E0648A
:20340000057002A3E0600479088002793EEEFAEFFB1225647901809F123519F8A3E034FF80
:20342000F97A717B02120E1388218922123440123A96C3E52198E52299500302331F80C74D
:20344000EE242EF582E43FF58322EE2418F582E43FF583782122EE2475F582E43FF5832246
:20346000EE241DF582E43F2212346C22EE240BF582E43FF5832212347A2212354CE4F0A350
:2034800022123A10F525A3E0F52622F582E43FF583E8F0A3E9F02212349CE422F0EE241C46
:2034A000F582E43FF58322F583E028F8A3E039F9E822F582E43FF5831234EC228E828F8319
:2034C000E0FAA3E0FB228E828F83E02402FAA3E03400FB121C0F22EE247C1234E62430F53C
:2034E00082E43FF58322F582E43FF583E0F8A3E0F9EE22EE247E1234E62432F582E43FF576
:203500008322123506228E828F83A3A3A3A3A3E02401F8A3E03400F922123520E0241022DA
:20352000E0F8A3E0C82412F582E438F5832212353222EE123543E0F8A3E0F912354CE8F033
:20354000A3E9222420F582E43FF58322EE241DF582E43FF58322E0F875F010A4C8AAF02A65
:20356000F974A228FE740339FF22EE242E123A10F521A3E0F522E4F523F524228E828F83A0
:20358000A3A3A3A3A3A3A3E0FCA3E0FD8E828F83A3A3A3A3A3E0FAA3E0FB12139E74022256
:2035A00012347AF01235068E828F83A3A3A3A3A3A3A3E8F0A3E9F022F582E43F122E7DF0BA
:2035C000EE2400F582EF3401F583123A9AE849221234EC240D123A1028F8A3E039F91234B3
:2035E0006CE8F0A3E9F02274EC120F0EEAFEEBFF8C828D83E0F8A3858223858324603B14EA
:2036000070030237391470030239B214700302377224FD700302388C1470030239E114709E
:20362000030238B824FE70030238921470030238B214700302394D0239D1EA2477F529E41F
:203640003FF52AE0852982852A83123A77EA2478F527E43FF5287902AC23AD24AA27FB122C
:2036600039F0247AF525E43FF5267902AC23AD24AA251239EC7902AC23AD24EE247C123A15
:2036800004247EF521E43FF52279021239E6852982852A83E0C333F0852782852883123AB6
:2036A000AC852782852883123491852582852683123AAC85258285268312349185218285F9
:2036C0002283123AA0120E8B852182852283E525F0A3E526F0EE2475123A3DC082C083121D
:2036E0003A8DD083D082123AB65070EE247E12356DEE247C123A0C2401F525A3E03400F587
:2037000026E4F527F528EE247AF582E43FF583123A96E828F8E9338829F52AE4F52BF52CCD
:2037200078257929120B8478217925120B454004793B8029EE2474802E7905AC23AD247AA3
:20374000B27B041239F02481123A3DC082C083123A8DD083D082123AB640097928EEFAEF09
:20376000FB0239CCEE24801239FB123A86248302399CEA24E3123A0C703475210078867925
:203780000388828983E0C0E0AA21EE2AFAE43FFBEA24E4F582E43BF583D0E0F005218882C5
:2037A0008983A3A882A983E521C3940840D3EE24E4123A0CA2E0EE401024DFF582E43FF5EC
:2037C00083741AF0790D0238852462123DBA123A68123DCA7401F07908AC23AD24EE249D12
:2037E000123A1824A5123A042495F521E43FF52279081239E67908AA21AB2212258EEE24A1
:2038000089F521E43FF5227904AC23AD24AA21FB1225887904AA21AB2212258EEE248DFABA
:20382000E43FFB1225A0EE2485FAE43FFB1225A6900374E04480F0EE24DE123A59700C79E2
:2038400004EEFAEFFB1225340239E1EE246A123A0C640C702EE0F521EE2469123A0CF52249
:203860007904EEFAEFFB122534740165227010EE2473F582E43FF583E521F079FD8006A9E0
:203880002180027904EEFAEFFB0239DEEA24E002399CEA24621239F524671239F524D412D3
:2038A00039F524DE123A33EA24D5123DC5790B0239DEEA24E102399C752100A823A9247A57
:2038C0005C7BB17C867D038A828B83E0F4F52288828983E05522F0E521701A852382852419
:2038E00083E0F522900386E05522C0E0EE24E4F582E43F801D8C828D83E0C0E0E521F52553
:20390000EE2525F525E43FF526E52524E4F582E43526F583D0E0F005218C828D83A3AC8222
:20392000AD838A828B83A3AA82AB8388828983A3A882A983E521C39408408CEE2467123A3B
:203940000C604AEEFAEFFB1225100239E1EA24EC123A59607C852382852483E0C0E0EA241D
:20396000EFF582E43FF583D0E0123A777902AC23AD24EA24F0123A1824F2FAE43FFB1225F1
:2039800088EE24EC1239FB123A68E07014EE24F6F582E43FF583743DF0EE24F5123A338082
:2039A00040EE24EE123A0C7038EEFAEFFB122516802FEA24F6F8E43FF9E088828983F0EA11
:2039C000123A5F7401F088828983E0F91225648010EA24F7F582E43FF583E8F07907122517
:2039E000287F0C020FE0AC23AD24AA21123A2A22123A2BEE22123DBAF0EA22F582E43FF505
:203A000083740122123A23EE22EE2474123A1022F582E43FF583E022123A237902AC23AD8F
:203A200024EE22FAE43F123A2A22FB1225888A238B2422F582E43FF5837401F022F521E4D2
:203A40003FF5227902AC23AD24AA21FB12258885218285228322EE2469123A10640122247A
:203A6000F5F582E43FF58322123A6C22F0EE2467F582E43FF58322F0852382852483A38538
:203A8000822385832422F012347AF0EE228E828F83A3A3A3A3A3123A9A22E0F8A3E0F922B4
:203AA000E0F525A3E0F5267404782522123A9AE828F8E933F922123E3D94FFE9947F227460
:203AC000F6120F0EEAFEEBFF8016EEFAEFFB122522E964016003023BF7EEFAEFFB12252E12
:203AE000EE246E123A0C7003023BF7EE246A123A0C24FE603C24FE605D147003023BA61458
:203B00007003023C321460C224FE7003023D0224FE7003023C9B147003023D2314700302D6
:203B20003CCB24117003023BF7147003023D8E80AF123A56701790037BE07003023CE879F6
:203B400016EEFAEFFB1225647901023BF9EEFAEFFB12251C804A123A56703E90037CE07094
:203B600003023CE879FCEEFAEFFB122534EE24A5F521E43FF5227821121121EE249DFCE4F7
:203B80003FFD8E828F83A3A3A3A3E0FA7B001222827402120EB4023AE0EEFAEFFB1224F2D0
:203BA000123DDBE98050123A56702F90037CE06012EE2484123A33EE24D6123DE5EE24DA63
:203BC000123DE5EE24E0123A596003023CE87906EEFAEFFB122534023AE0EE24D4123A592E
:203BE000701AEEFAEFFB1224F8E964017009123DB3123DD67401F07900022E59EE24D512ED
:203C00003A0C60F3EE24B4F521E43FF5227821121121EE248DFCE43FFDEE24C4FAE43FFB6F
:203C20001225AC7402120EB4EE24D41239FBF0023AE0123A56705A90037CE07003023CE82B
:203C4000123E2FEEFAEFFB12252E123DF0EE24DE123A59701379008E828F83A3A3A3A3E050
:203C6000FA7B0012228E80137C0179008E828F83A3A3A3A3E0FA7B00122288EE24DEF5825E
:203C8000E43FF583123DCAE4F0123DC2123DB3809DEEFAEFFB1224FE023BA0123A56700D6A
:203CA000EE24E1123A59704079FC023BD0EEFAEFFB122504E964016003023BF7123DC2EE49
:203CC0002484123DC5EE2469023C2B123A56702890037CE06009EE2484123DC5123DF09039
:203CE000037BE06003023AD9123E021235CA6003023BF77922023B41EEFAEFFB12250A02C6
:203D00003BA0123A56701290037CE060DBEE24E3123A33123E2F023AD9EEFAEFFB12251059
:203D2000023BA0123A567056EE24EC123A597027EE24ED123A596003023AD9123D9F1211D7
:203D400038123DA9121138123E1B790012227C7404120EB4023AD9123E021235CA6003021B
:203D60003BF7123D9F121138123DA9121138123E1B792212227C7404120EB4023CF3EE2430
:203D8000EE123A33EEFAEFFB122516023BA0EE2473123A0CF9EEFAEFFB122534023CC5EEB6
:203DA00024F2F582E43FF58322EE24F0F582E43FF58322EE24E0123DBA22F582E43FF58354
:203DC000E422EE24E1123DBAF022E4F0EE24E2F582E43FF58322F0123DDB22EE2469F582A5
:203DE000E43FF58322123DBAF0A3F0A3F0A3F022EE2462F582E43FF5837401123A6C74010A
:203E0000F022EE2471F8E43FF98882F583E024FFF0A3E034FFF08882898322EE24EF123A59
:203E200010FC8E828F83A3A3A3A3E0FA7B0022123532F022123E3D94ABE9941022E0C39810
:203E4000F8A3E099F9C3E822123E3D94AAE994102274F4120F0E8A218B22A2AFE433FEC2F7
:203E6000AFEA2404FAE43522FB122AB0EA4B60288A828B83A3A3E521F0A3E522F0123FDA8D
:203E80008A828B83E8F0A3E9F0900775EAF0A3EBF0EA2404FA50010BEEA2E092AF7F0402B2
:203EA0000FE074F6120F0EEAF8EBF9A2AFE433FEC2AF7C007D00900775E0FAA3E0FB8821D7
:203EC0008922800DEAFCEBFD8A828B83E0FAA3E0FBEA4B604CEA2404F8E43BF9C3E5219806
:203EE000E5229940DF8A828B83A3A3123FDDEA28F582EB39F583A3A3A3A3C3E5829521E5FF
:203F000083952240BF8A828B83123FDDEC4D700590077580048C828D83E8F0A3E9F0122A34
:203F2000B6EEA2E092AF7F02020FE074F4120F0E123F7F6043C3E49521FAE49522FBEE2A99
:203F4000FAEF3BFB8A21F522E82404FCE439FDC3EA9CEB9D402288828983A3A3E0FCA3E06C
:203F6000FDE82CF582E93DF583A3A3A3A3C3E5829521E58395225004EEFAEFFB023E9DEAA3
:203F8000FEEBFF8C218D22122A7A8A238B24A823A924EA4922C082C083123FDAEAFCEBFD60
:203FA000800788828983123FDDE8496022E82404FAE439FBC3EC9AED9B40E7888289831241
:203FC0003FE3A3A3A3A3C3E5829CE5839D40D3E8FAE9FBD083D082020B18900775E0F8A33E
:203FE000E0F922A3A3E0FAA3E0FBE82AF582E93BF58322020B18FFFFFFFFFFFFFFFFFFFFC6
:204000005479FFFF0100009442424242FFFFFFFFFFFFFFFFFFFFFFFFFFFFFFFFFFFFFFFF4C
:20402000000102030405060708090A0BFFFFFFFF024399025D6EFFFFFFFFFFFFFFFFFFFFA1
:20404000FFFFFF026216FFFFFFFFFFFFFFFFFFFFFFFFFFFFFFFFFFFFFFFFFF026192FFFF0B
:20406000FFFFFF0255DDFFFFFFFFFF026266FFFFFFFFFF02616CFFFFFFFFFFFFFFFFFFFF8A
:20408000FFFFFF025DE4FFFFFFFFFFFFFFFFFFFFFFFFFFFFFFFFFFFFFFFFFF0254E8FFFFB9
:2040A000FFFFFF0261ACFFFFFFFFFF025552FFFFFFFFFF025BCB026B870100005387026FED
:2040C000870100008187108A85030000860202738703000081020271870100003C86026FF6
:2040E000870100008087107A85020000000002738703000083020271870100000C8600C04F
:20410000010000000F81DD8177810F84A4809D8200802486A4833D8447863E82E8820000D9
:20412000030000010000000000000000140030FF0000B4000028002800283075A000A00027
:20414000A000A00000080008E001F0001000100010001000100010005000500050001000DE
:204160001000D0070000000000000F0001000500307507001000010081FF00000000FFFF08
:20418000FF1366316619664F66FF02020208025000A0000000E803026B870100004D870227
:2041A0006F87010000331C027587010000A403026F87010000341C027787010000BA03020A
:2041C0006F87010000351C027987010000BC03026F87010000361C027B87080000BD0302BC
:2041E0006F87010000371C025D87010000381CFF0100FF20026B870100004A87026F87015C
:2042000000009C1C0259870000000000027387030000EB0317009D6C9D6C9D6C9D6C9D6CD3
:204220009D6C9D6C9D6C9D6C9D6C9D6C9D6C9D6C0D6F1F6F076F02026B87010000508702E6
:204240006F870100008387025B870100002908026F870100007F87026387010000188602BB
:204260006F870100008487027D870100009A84026F87010000858702618701000039850267
:204280006F87010000DF1C026587010000768601FFFF000130750302010600000000000090
:2042A00000000000000000000000000000000000000000000000FFFF0600800CE80309007A
:2042C00000000000000000000100B0423BAAB83F0000003F8C906339AA0CA33A00941E3C97
:2042E0008042633DCFFE753E1572313F0000803FF304353F8096184B000080BF2292D43E3D
:20430000DD9B2A3F04000040FFFF7F7FFFFF7FFF010080341872313FE5C754F84404F5C755
:2043200079012200000080FB124318B90003024383E479437815B800028004F709D8FCE452
:2043400079587802B800028004F709D8FCE490028078E079198002F0A3D8FCD9FA7A5F7B10
:204360001B9040B6786379038015E493A3AD82AE838A828B83F0A3AA82AB838D828E83D837
:20438000E9D9E775829675838E74051243AB75822375834374001243AB75D00075815F7510
:2043A0004180754202759F00024328C09FF59FE473D09F22D083D082C09FE493C0E0740197
:2043C00093C0E0740293F59F22E066701008A3E066700A08A3E066700408A3E06622C3E798
:2043E000960809E7960809E7960809E796A2D265D03322C3E09608A3E09608A3E09608A359
:20440000E096A2D265D03322C021C3E096F52108A3E096422108A3E096422108A3E096428D
:2044200021A2D265D033E5217001D3D02122C3E7960809E7960809E7960809E79622C3E073
:204440009608A3E09608A3E09608A3E09622C021C3E096F52108A3E096422108A3E096422A
:204460002108A3E09645217001D3D02122080808E630E711124D8F124485080808C64480AC
:20448000C618181822181818E9799EC608CAC608CBC608CCC6C370207996CACBCC7019794E
:2044A0008ECBCC70137986CC700EF9802ACA33CACB33CBCC33CC331930E7F2CCCBCA3350D4
:2044C000147004EA30E00DE4CA3ACACB3BCBCC3CCC500209C3E913C6CC182313C6CB18C68D
:2044E000CA18C6F92212452520F01430E72B74FFFCFBFA747F8022E4FCFBFA7480801AB407
:204500008008BC00F2BB00EF800F50EBF9E4C39AFAE49BFBE49CFCE499C6CC18C6CB18C631
:20452000CA18C6F922E4C9C608CAC608CBC6D3330308CCC63392F0C3947F402E9418401973
:20454000C9B90704CACBCC225025C309CA33CACB33CBCC33CC33D9F422F4600DC9CCC313C1
:20456000CB13CBCA13CAD9F6CC22E4FCFBFA2214FCFBFA22E62618461846184622E72719A1
:20458000471947194722181818E60846087009E626087005E633F4220822191919E7094791
:2045A000097009E727097005E733F4220922E6084608C3134608336002E633F422E7094737
:2045C00009C3134709336002E733F4221245AE60251245BD6020124574700302457D0808B7
:2045E00008E76670101819E766700A1819E76670041819E76622F4221245AE601C1245BDB1
:204600006017124574700712457D7001D322C0D012457D7006D0D0B322C32233D0D050143C
:2046200030E0F6C3E7960809E7960809E7960809E796B32220E0D5E6970809E6970809E6DE
:20464000970809E697B3221245AE601B1245BD6016124574700712457D600CB322C0D0125D
:20466000457D7005D0D022C32233D0D0501330E0EBC3E7960809E7960809E7960809E79641
:204680002220E0E4E6970809E6970809E6970809E69722001245AE604F1245BD6012E75456
:2046A0008066F6124586701112457D703B090909F4F618F618F618F62212459A7015124523
:2046C0007408080860EAE6447FF618768018E4F618F622124574601612457D7012E4F608BC
:2046E000F608F608E65480F609090918181822EAC0E0EBC0E0ECC0E0EDC0E0E687F0A4FB5F
:20470000ACF008E687F0A42CFCE435F0FA1809E687F0A42C4B60027401CA35F0FCE433FB5C
:2047200009E687F0D2F7A42CCB35F0FC1908E687F0A42BCC35F0FBE433FD0819E687F0D2F1
:20474000E7A42C4ACB35F0CD3400FC09E687F0D2E7A42DCC35F0FDE433FA0918E687F0D22C
:20476000F7A42CCD35F0CA3400FC08E687F0D2E7D2F7A42ACC35F07A7E20E70B0ACB33CB03
:20478000CD33CDCC33CC33CB3350147004ED30E00ED2F1E4CD3DCDCC3CCC3B5005DA05C2EA
:2047A000F1EB547FC63308E63392F0FBE73309E733C39A502D2B70190C0D4C4D7015180693
:2047C000E608C333700D20F10AA2F013F6E418800B4024E4F630F002768018F618F618F6BB
:2047E0008024D33B14501074FFA2F013F6187680E418F618F6800FA2F013F618E63303F623
:2048000018ECF618EDF6D0E0FDD0E0FCD0E0FBD0E0FA221245BD60461245AE603DE96870B6
:2048200008F618F618F618F622748067F7124847090909748067F7221245AE601D1245BD16
:204840007005191919801A124586701F12459AC37003E667331919194007181818220808DF
:204860000874FFF618F618F618F62212459A601712457D702192F01245747019501720F061
:2048800014080808090909E7F61819E7F61819E7F61819E7F62212457460E6E869701F08AF
:2048A00008E62480F608E436F618547FB47F0CE654806007F6E418F618F622181822E9C6F4
:2048C000CC08C6CD08C6CE08C6CFC0E0E8C0E0EAC0E0EBC0E009E9F809E7FA09E7FBE6F95D
:2048E00018E6F8C3EC98ED99EE9AEBC2E7F5F0EFC2E795F0500E600CEBCFFBEACEFAE9CDF0
:20490000F9E8CCF8EAA2E7D2E7FAEB33FB13F5F0EEA2E7D2E7FEEF33FFC5F013A2E730E605
:2049200001B313C5F0C3C0E0C0F07F00C39BFB605E9418600F401D14601AD0E023F9D0E0D0
:20494000F8024A198AF0E9486003D2F0E4AFF0FAF9F8803BEB30E40D89F0EA6003D2F0E489
:20496000AFF0F9CAF8EB30E30D88F0EF6002D2F0AFF0E4CAC9F8EB54076014FBC3EA13FACA
:20498000E913F9E813F8EF135002D2E0FFDBEDD0E0C0E030E739C3E49FFFF5F0EC98FC42D6
:2049A000F0ED99FD42F0EE9AFE42F0D0E0F9D0E0F8E5F0607AE923F9EE20E742D80280679D
:2049C000C3EF33FFEC33FCED33FDEE33FE80EAEC28FCED39FDEE3AFED0E023F9D0E0F84025
:2049E00002801BC3EE13FEED13FDEC13FCEF135002D2E0FF08B800067F7F74FF802EEF3354
:204A000050178CF020F00260100CBC000C0DBD00080EBE000408E860DFE933E813FFEE2365
:204A200013FE4F4D4C8008E95480FFE4FEFDFCEE33EF33F47004FCFD7E80D0E0FBD0E0FA67
:204A4000D0E0F8D0E0CFC618CEC618CDC618CCC6F9221245AE7004181818221245BD700DD9
:204A600074FFF61819F61819F61819F622E7548066F6124574700F12457D70F014F608F699
:204A800008F608F680D112457D700CF608F608768008E6447F80EC12459D700C12458960BA
:204AA000BFE65480F6E480BB124589700519191980A5E869700C763F18768018F618F6E80F
:204AC000F922E6CDC0E018ECC0E0E633CD33CDD313F6E719FCE7191933CC33C3947F400E97
:204AE000CD9D502408E65480F6E418F6800FF4043D14501408E6447FF6187680E418F61833
:204B0000F6D0E0FCD0E0FD22CCD313CCFD18E4C6CBC0E018E4C6CAC0E00808ED08C633E66C
:204B200013F618E433C675F003C3CA97CA09CB97CB199C40047D08802EBD0003024BFB16A1
:204B4000B6FF050606081618C3CA33CACB33CB33CA27CA09CB37CB193CC37D08803E187D52
:204B60000820E75CC633C6CA33CACB33CB33DDF1D5F0EB30E77BCA97CA09CB974ACB199CD8
:204B8000406F4B7025E620E0218066187D08C3CA97CA09CB97CB199CD3C633C6CA33CACBFF
:204BA00033CB3350C9DDE7D5F0E1D3E4C636C608C636C608C636C608C636C6181818803171
:204BC000C3CA97CA09CB97CB199CB34097C633C6CA33CACB33CB33DD34D5F02EC6A2E0C6DE
:204BE00040C8CA27CA09CB37194A70BECB3CB480B90808E63308E633601F181818D0E0FAA7
:204C0000D0E0FBD0E0FCD0E0FD22187D08CA27CA09CB37CB193CD3808013F618E4B67F11CD
:204C2000F618B6FF0EF618C60470D20808768080CAF618F618F680C5080808EAC0E0EBC095
:204C4000E086F0E7A4FA180986F0E7A42AFA180986F0E7A42AFA180986F0E7A42AFA198608
:204C6000F0E7A4FBE5F02AFA190886F0E7A42BFBE5F03AFA190886F0E7A42BFBE5F03AFA23
:204C800018180986F0E7A4C5F02BFBE43AFA1908E7C5F0C6A426F6E5F03BFBE43AFA1886E3
:204CA000F0E7A4F6E5F00826F6E43B08F6E43A08F6D0E0FBD0E0FA22E4CFC0E0E4CEC0E035
:204CC000E4CDC0E0E4CCC0E075F020E626F608E633F608E633F608E633F6181818EC33FC04
:204CE000ED33FDEE33FEEF33FFC3EC9709ED9709EE9709EF97191919400FFFEC97FC09ED59
:204D000097FD09EE97FE191906D5F0BFECF709EDF709EEF709EFF7191919D0E0FCD0E0FD66
:204D2000D0E0FED0E0FF22124D92181818124CB8124D7E19191922124D7E1919190808081B
:204D4000E618181820E7E0124CB8124D9218181822090909E719191920E7DC080808E61887
:204D6000181820E703024CB8124D92181818124CB8124D92181818124D7E19191922E4C37A
:204D800097F709E497F709E497F709E497F722181818E4C396F608E496F608E496F608E49B
:204DA00096F6226017080808C6A2E713C618C613C618C613C618C613C6D5E0E9226016082B
:204DC0000808C6C313C618C613C618C613C618C613C6D5E0EA227009080808226016181822
:204DE00018C6C333C608C633C608C633C608C633C6D5E0EA22E627F60809E637F60809E6E5
:204E000037F60809E637F622E026F608A3E036F608A3E036F608A3E036F622E026F008A33B
:204E2000E036F008A3E036F008A3E036F022C3E697F60809E697F60809E697F60809E6971C
:204E4000F622C3E0C696F608A3E0C696F608A3E0C696F608A3E0C696F622C3E096F008A3B8
:204E6000E096F008A3E096F008A3E096F022E056F608A3E056F608A3E056F608A3E056F6D7
:204E800022E056F008A3E056F008A3E056F008A3E056F022E647F60809E647F60809E647A0
:204EA000F60809E647F622E046F008A3E046F008A3E046F008A3E046F022E066F008A3E06A
:204EC00066F008A3E066F008A3E066F022E0F608A3E0F608A3E0F608A3E0F622E6F008A39C
:204EE000E6F008A3E6F008A3E6F022E0FAA3E0FBA3E0FCA3E0FD22EAF0A3EBF0A3ECF0A3C5
:204F0000EDF022E0FCA3E0FDA3E0FEA3E0FF22ECF0A3EDF0A3EEF0A3EFF022E0F8A3E0F93C
:204F2000A3E0FAA3E0FB22E8F0A3E9F0A3EAF0A3EBF022CAC0E0E6F0A308DAFAD0E0FA2258
:204F4000CAC0E0E0A3C582CCC582C583CDC583F0A3C582CCC582C583CDC583DAE6D0E0CA29
:204F600022C3E498F8E499F9124FA28026C3E49AFAE49BFBE920E7E9124FA2E498F8E49937
:204F8000F922C3E498F8E499F9124FA2E498F8E499F9C3E49AFAE49BFB22EB20E7CFE920BB
:204FA000E7E0B90010BB0008E88AF084F8AAF022E4FBC8FA22EB70227B10C833C8C933C9B1
:204FC000335007C39AC3DBF280069A50012ADBEAC833F4C8C933F4C9FA2275F008E4C83322
:204FE000C8C933C933C99AC99B5004C92AC93BD5F0ECFBC833F4C8E4C9FA22600D08C6A2D6
:20500000E713C618C613C6D5E0F322600C08C6C313C618C613C6D5E0F422700422600D18DC
:20502000C6C333C608C633C6D5E0F41822254110AF08F541400C15428008F54140021542E7
:20504000D2AF2200C0D0254110AF08F541500C05428008F54150020542D2AFD0D022254117
:20506000F58210AF08F541400C15428008F54140021542D2AF854283222541F582E435429D
:20508000F583222541F8E43542F9222541FAE43542FB222541FCE43542FD22E4732541C56C
:2050A00082C0E0E54234FFC583C0E0E541C3958224F810AF08858342858241800885834245
:2050C000858241D2AFCEF0A3E520F0A37821E608F0A3DEFAEFF0A3E58124FAF8E608F0A39D
:2050E000E608F0A3E608F0A30808E608F0A3E608F0A315811581D0E0FED0E0F815811581EE
:205100001581E8C0E0EEC0E0222541C582C0E0E54234FFC583C0E0E541C3958224F910AF56
:20512000088583428582418008858342858241D2AFCEF0A3E520F0A37821E608F0A3DEFA4F
:20514000EFF0A3E58124FBF8E608F0A3E608F0A30808E608F0A3E608F0A315811581D0E060
:20516000FED0E0F815811581E8C0E0EEC0E022854283854182E0A3FEE0A3F5207821E0A35E
:20518000F608DFFAE0A3FFE0A3C0E0E0A3C0E0E0A3C0E0E0A3C0E0E0A3C0E010AF08858239
:2051A000418583428008858241858342D2AFD083D0820243B1854283854182E0A3FEE0A398
:2051C000F5207821E0A3F608DFFAE0A3FFE0A3C0E0E0A3C0E0E0A3C0E0E0A3C0E010AF08F2
:2051E0008582418583428008858241858342D2AFD083D08222C0D02541C582C0E0E5423483
:20520000FFC583C0E0E541C3958224F310AF088583428582418008858342858241D2AFC8D4
:20522000F0A3E9F0A3EAF0A3EBF0A37921E709F0A3D8FAECF0A3EDF0A3EEF0A3EFF0A3D0A3
:20524000E0F0A3D0E0F0A3D0E0F0A3E520F0A3E5F0F0A322854283854182E0C0E0A3E0F9A5
:20526000A3E0FAA3E0FBA37821E0F608A3DFFAE0FCA3E0FDA3E0FEA3E0FFA3E0C0E0A3E098
:20528000C0E0A3E0F5D0A3E0F520A3E0A3F5F010AF08858342858241800885834285824110
:2052A000D2AFD082D083D0E0F8D0E03274048006740280027401C0E0F40412505ED0E012B9
:2052C0004F33227404800474028000CCC0E0EDC0E0E541C39CCCAD4250011D10AF068C41FF
:2052E0008D4280068C418D42D2AF124F40D0E0FDD0E0FC22D083D082C5F0E493A3C5F0C334
:2053000095F0F5F0E493A3C395F04005E5F0048001E475F002A42582F582E5F03583F58310
:20532000E493A3C0E0E493C0E022D083D082E9C0E0E493A3C386F0C5F095F0F908E493A3A4
:2053400086F0C5F095F0700BE493A3C3994005E9048002A3E475F002A42582F582E5F0353E
:2053600083F583D0E0F9E493A3C0E0E493C0E022D083D082E9C0E0E493A3C386F0C5F095CB
:20538000F0F908E493A386F0C5F095F0702408E493A386F0C5F095F0701908E493A386F0CB
:2053A000C5F095F0700E08E493A3C3994007E9048004A3A3A3E475F002A42582F582E5F034
:2053C0003583F583D0E0F9E493A3C0E0E493C0E022D083D082CCC0E0E493A360061253FB10
:2053E0001470FAE493A3600612541A1470FAD0E0FCE493A3C0E0E493C0E022C0E0E493A358
:20540000D39C5010E493A3C39C400AD0E0D0E0D0E00253EEA3A3A3D0E022C0E0E493A36CC6
:205420007009D0E0D0E0D0E00253EEA3A3D0E022D083D082ECC0E0EDC0E0E493A3FCE4933D
:20544000A3FDED4C600D12547CEC24FFFCED34FFFD80EFE493A3FCE493A3FDED4C600D12A8
:2054600054BBEC24FFFCED34FFFD80EFD0E0FDD0E0FCE493A3C0E0E493C0E022C0E0C3E4F3
:205480009396087401939618400FE49366700808740193661870007019A3A3C3E4939608DC
:2054A0007401939618A3A3400DD0E0D0E0D0E002546CA3A3A3A3A3A3D0E022C0E0C0F08855
:2054C000F0E4936670080874019366187000A8F0A3A3700BD0F0D0E0D0E0D0E002546CA3FB
:2054E000A3D0F0D0E022FFFFC0E074EF1251F5A2AFE433FFD2AFA889E5AB58F5216049F46A
:20550000F589C2C590085A7401F07E00EEF5237524007402782312501A1255C7E9FBEA4B3E
:20552000701F1255BBB800028004C313D8FCA2E0500F752300752402EE782312501A125552
:20554000AE0EEEC3940440C4EFA2E092AF7F04025254C0E074EF1251F5A2AFE433FFD2AF22
:20556000A88AE58D58F5216043F4F58AC2EB7E00EEF5237524007402782312501A1255C77E
:2055800074406A49701F1255BBB800028004C313D8FCA2E0500F752300752402EE7823125C
:2055A000501A1255AE0EEEC3940440C4809AAA23AB24900280E0F91271BF22E81313135497
:2055C0001F5407F8E5212274EB2523F58274083524F583E0F8A3E0F9E854C0FA22C0E07446
:2055E000EF1251F5A2AFE433FFD2AFA88BE5AC58F5216043F4F58BC2E87E00EEF52375246C
:20560000007402782312501A1255C774806A49701F1255BBB800028004C313D8FCA2E050BD
:205620000F752300752402EE782312501A1255AE0EEEC3940440C402554874F6125109EA54
:20564000FEEBFF8C218D22EA2434F8E43FF9E8FCE9FDEA24351259E1FAEE24371259E1F8D0
:205660008521F0A4C885F0238522F0A42523F9EA28F8E439F97A257B00124FA2EA8C828D52
:2056800083F0FA131313541F1259D5245DF582E439F583E0C0E074075AF8D0E0B8000280ED
:2056A00004C313D8FCA2E0EE50082434F582E43F801424361259E1F5F0EA84A8F01259D61C
:2056C0002438F582E439F583E0F97F030251B574F7125109EAFEEBFFEA24341259E1C0E028
:2056E000EA2435F582E43FF583D0E0F08A828B83A3A3A3A3A3A3A3C082C0838A828B83A3E4
:20570000A3A3A3A3E0F8A3E0F9D083D082E0C398F521A3E099F522EA24801259E1640170D1
:205720003EEA2481F582E43FF583C082C0838A828B83A3A3A3A3A3E0240108A3E03400F9FF
:20574000D083D082E0687003A3E06970127C9B7D05126BDDEE2480F582E43FF583E4F0AC64
:2057600021AD22EEFAEFFB12563AE9F912615E7F020251B5C082C083854182854283E0F89A
:20578000A3E0F9C3EA9CEB9D5010C3EC98ED99401BC3EA98EB995014800EC3EA98EB994070
:2057A00007C3EC98ED994004790180027900D083D08222EAC39CFAEB9DFB2274EF125109DE
:2057C00090045BE064086005E06407702A9061C8E06024900489E0F4601DE0F875F010A4C8
:2057E000C8AAF02AF9748B28FE740439FF8E82F583A3A3A3E070030258D4906060E0C0E08D
:20580000EE2468F582E43FF583D0E0F075250C752606752100752200E5D914F523E5D954EC
:2058200003F527602F74036527601DE5236008EE24671259E1601D900607E06401602C1208
:2058400059DE6012780480101259DE602CE523C39405502580637800E523C398FA95E0FBBD
:20586000126A938A218B22EA4B7005126DF980641259DE70048A258B26E5236012852582F8
:20588000852683F524E5D9F0A31524E52470F61259DE604574FC2523F52378251252B0ACAD
:2058A00023A927EEFAEFFB126C977402125043E97027AA21AB221271F5793D8E828F83A3E8
:2058C000A3A3A3E0FA7B001268FBEEFAEFFB126C01126CA979000259D0740365276053E55E
:2058E00023F529752A0078291252B0AC25AD26AA21AB22126C5B7402125043EE24681259FE
:20590000E164807004747F8001E0F52578251252B4E527F52578251252B4A923AC21AD22E8
:20592000900489E0FA7B001268D174021250430259CB852582852683E0C3940E5011E0F891
:2059400074C828F582E43485F583E065236069852582852683E0C0E0EE24F7F582E43FF5B4
:2059600083D0E0F0A2AFE433FCC2AF7A0080010AEE246E1259E1F8EAC3985013EA1259D594
:20598000246AF582E439F583E0640770E28022EE246EF8E43FF9E0FAEE2AFAE43FFBEA2482
:2059A0006AF582E43BF5837407F088828983E004F0ECA2E092AF801390045BE06408600B32
:2059C000AC25AD26EEFAEFFB126D21126E0579017F0A0251B5F8EE28F8E43FF9E822EE24E3
:2059E00084F582E43FF583E02274F112510974FC12502DEAFEEBFF8922752600A2AFE433BF
:205A0000F521C2AF9005A3E0FA9061D0E0F8748098F895E0F9C3EA98E499A2D265D0334084
:205A200003025AD3752601025AD3E0601B78231252B0AC27A928EEFAEFFB126C9174021252
:205A4000504374042527F52774012527F5D98528D9E5276012852382852483F525E0F5D922
:205A6000A31525E52570F675E195EE2463F8E43FF97A007B00A2AFE433F523C2AF888289EC
:205A800083E0FCA3E0FDEC4D603A88828983E0FAA3E0FB8C82F583E0FCA3E0FD88828983EE
:205AA000ECF0A3EDF08A828B83E4F0A3F088828983E0FCA3E0FDEC4D700A88828983A3A388
:205AC000E4F0A3F0E523A2E092AF1271F59005A2E004F0EE24631259E1F8A3E0F9E849604B
:205AE00063EE24631259E12402F8A3E034008882F583E5822402F523E43583F524E0F527D5
:205B0000A3E0F528EE24621259E1640170369061D0E0F81259DE60047C0480027C00748062
:205B2000C398FA95E0FBE5272CF8E43400F9E82402F8500109C3EA98EB99A2D265D033401A
:205B400003025A2A9061D0E0F87480C3989005A3F0E52660539005A2E0604D9005A4E0F819
:205B60009005A2E0C398500C74026522703A9005A5E060348E828F83A3A3A3A3E08541822C
:205B8000854283125BB87402125079E8125BB89005A1E028F07402125093AA41AB4279014D
:205BA0001269259005A2E4F0E521A2E092AF74041250437F080251B5F0A3E4F09005A2E047
:205BC000F822FFFF8550878551C622C0E074EB1251F5A2AFE433F521C2AF759B00906182CA
:205BE000E0A2E0502DE591A2E050277591FE74016550701E125D42125D591252C3125F0D7D
:205C00007404125043E9640170057901126D9F1257BB906182E0A2E5505AE591A2E55054C3
:205C20007591DF90045BE064076005E06408702C125D4274016550703B125D591252C31271
:205C40005F0D7404125043E9640170057901126D9F7901EEFAEFFB1259E98018E0640D7067
:205C60001390047DE004F064287002E4F07A00E0F9126E0B906182E0A2E64003025D17E503
:205C800091A2E64003025D177591BF90045BE064057008126D4B126D578003126D51755005
:205CA00000126DABE990045CF07900126D9F126B537A017B0090045AE0F91271BF90780380
:205CC000E06442705290060BE014F0704AC2AF125CD2007859D0E0F618D0E0F6E59F540778
:205CE00070047BFF80027B7FC4C0E07858E6F52308E65BF524740B782312500BD0E0252327
:205D0000F8906270E0A2E740F8E8C333906272F0906270E0D2E0F0906181E0A2E35009E55D
:205D2000E9A2E3500375E9F7A3E0A2E75009E591A2E7500375917FE521A2E092AF7F0802BF
:205D40005254900489E0F875F010A4C8AAF02AF9748B28FE740439FF22126D638E828F830F
:205D6000E0F8A3E0C82416F582E438F58322C0E0C0D0C082C083906183E0A2E05009E5BF11
:205D8000A2E0500375BFFEE0A2E15009E5BFA2E1500375BFFDE0A2E25009E5BFA2E250035D
:205DA00075BFFBE0A2E35009E5BFA2E3500375BFF7E0A2E45009E5BFA2E4500375BFEFE010
:205DC000A2E55009E5BFA2E5500375BFDFE0A2E65009E5BFA2E6500375BFBFD083D082D0AA
:205DE000D0D0E032C0E074F21251F5E5A7A2E6500FE5A1A2E6500953A7BF75A1BF125E3883
:205E0000E5A7A2E5500CE5A1A2E5500653A7DF75A1DFE5A7A2E15009E5A1A2E1500375A108
:205E2000FDE5A7A2E2500CE5A1A2E2500653A7FB75A1FB7F0102525474F7125109755001CE
:205E400090045BE064067015126CCD8A828B83A3A3A3A3A3A3E0FAA3E0FB126D39A2AFE408
:205E600033FED2AF900461E0640170187A207B0090045AE0F91272D97A207B0090045AE092
:205E8000F91271C5906182E0D2E6F0900608E0602185C6518016900460E064017008E5C639
:205EA00054F84405F5C653BEFC125BC47401655060E4EEA2E092AF7F020251B58E528F53EA
:205EC000858257858356854182854283E0CEA3E0CF855782855683EBC9EAC8EDCBECCA756F
:205EE000F010C3E833C8E933C9EA33CAEB33CBC3EA9EF555EB9FF554B35004AB54AA55ECEE
:205F000033CCED33CDD5F0DAAE52AF532274F11251098A218B228C238D249086E6782112A2
:205F20004E6E740F1250797825124ECD9086E67825124E6E7821792512442E9087225010C2
:205F400078217925124E2E782112444E4014800E78257921124E2E782512444E5004790189
:205F6000800279007F080251B574ED1251098A218B228C238D249086E67821124E6E741328
:205F80001250797825124ECD9086E67825124E6E7825792112442E401178217925124E2E24
:205FA000AA21AB22AC23AD248022752900752A00752B00752C0178297925124E2E782979A1
:205FC00021124DF5AA29AB2AAC2BAD2C7F0C0251B59086E67821124ECD8A828B83782112DA
:205FE0004E817F040251B574F51251098C828D837821124ECD8A828B837821124E5A1260AF
:206000003FC3E09CF0A3E09D126031402290870A7821124ECD8A828B837821124E1B8A82CC
:206020008B83A3A3A3A3E02420F0A3E0344EF080A0F088828983C3E09420A3E0944E22EACF
:206040002404F8E43BF98C828D83A3A3A3A3E0FCA3E0FD888289832274F51251099005BEA2
:20606000E0FAA3E0FBE929F8E433F9745A28F582748539F583E02AF521A3E03BF522782109
:206080001252B09086C2124EEB125EBC74021250438A218B228C238D2474107821124DBD91
:2060A000AA21AB227F040251B574F11251098A258B268C278D2874111250791252C7741114
:2060C000125079E02401F521A3E03400F522E4F523F52478257921124C3890872E7821122A
:2060E0004ECD78257921124C38AA25AB26AC27AD28125EBC7402125043EA4B60047A018095
:20610000027A00EC2AFCE43DFD7413125079E0F8A3E0F9E8FEE9FFECF8EDF97A717B02120B
:206120004FA288218922E4F523F5248E828F837821124EDCECF8EDF97A717B02124FA28A4F
:20614000218B227405782112501A8E828F83A3A3A3A3E521F0A3E522F07F080251B5C082D4
:20616000C083E9906000F0D083D08222C0E074F21251F5A2AFE433FED2AFC2C0E5D1A2E449
:20618000500675D10F1270B7EEA2E092AF7F01025254C0E0C0D0E8C0E0A8A8D2AFC2C7E848
:2061A000A2E792AFD0E0F8D0D0D0E032C0E0C0D0E8C0E0E9C0E0EAC0E0EBC0E0C082C08310
:2061C000A2AFE433F9D2AF9008ADE0F8A3E0687008539AF7A374018022C2EA9008ADE0F8F6
:2061E000740128F0749D28F582E43408F583E0F5F99008ADE0C394104002E4F0E9A2E0925D
:20620000AFD083D082D0E0FBD0E0FAD0E0F9D0E0F8D0D0D0E032C0E0C0D0E8C0E0E9C0E0C1
:20622000EAC0E0EBC0E0C082C083A2AFE433F9D2AFA8C19008D3E0FA74B22AF582E434084D
:20624000F583E8F09008D2E0F8A3E0687006E5959008D5F09008D3E004F0C394204002E498
:20626000F0A3E4F08096C0E0C0D0E8C0E0E9C0E0EAC0E0EBC0E0C082C083A2AFE433F9D293
:20628000AF9008E6E0F8A3E0687008539AFBA374018022C2E99008E6E0F8740128F074D61C
:2062A00028F582E43408F583E0F5C19008E6E0C394104002E4F00261FCC2AF020000221230
:2062C00043B486B4031243B4C9B4031243B492B5031243B4E2B9031243B45DBA031243B4DB
:2062E0006FBA031243B472BA031243B45EBB031243B4E7BB031243B46FBC031243B453BC18
:20630000021243B430BD021243B458BF021243B4FBBF021243B47CC0021243B426C2021250
:2063200043B445C3021243B49DC3021243B496C4021243B451C5021243B440C6021243B451
:20634000A4C6021243B473CA021243B40ECB021243B40080011243B41C80011243B4F381F8
:20636000011243B4E082011243B44983011243B48D83011243B4BD83011243B410850112C5
:2063800043B48C85011243B40286011243B48686011243B49587011243B42788011243B464
:2063A0004C8A011243B4CA93011243B41594011243B43594011243B48B94011243B4B8949B
:2063C000011243B4B6B8011243B4AEBA011243B4F9BA011243B425BB011243B41DBC011236
:2063E00043B478BD011243B456C0011243B493C0011243B487C8011243B46EC9011243B450
:20640000B4C9011243B4ECCA011243B438CC011243B48DCC011243B433CD011243B4B7A85B
:20642000041243B4CAA8041243B4F9A8041243B431A9041243B47AA9041243B4BDA904128F
:2064400043B403AA041243B436AA041243B45DAA041243B48CAA041243B4C3AA041243B4CD
:20646000DCAA041243B42BAB041243B444AB041243B48CAB041243B4C0AB041243B471BDC0
:20648000031243B46FBE031243B4D5BE031243B4F8BE031243B4FABE031243B438BF031286
:2064A00043B4A9BF031243B469C0031243B48BC0031243B427C1031243B45EC1031243B4C6
:2064C000A3C1031243B4B0C1031243B420C2031243B46AC2031243B46DC2031243B4B3C2F9
:2064E000031243B4B6C2031243B4C0C2031243B433C3031243B45BC3031243B48EC30312EC
:2065000043B4B2C3031243B4AFC4031243B453C5031243B4BFC5031243B4FBC5031243B404
:20652000029D041243B42A9D041243B4579D041243B48F9D041243B4F59D041243B43F9E25
:20654000041243B4A39E041243B4EB9E041243B4289F041243B4569F041243B4EB9F0412D4
:2065600043B4F59F041243B402A0041243B435A0041243B441A0041243B459A0041243B4FE
:2065800063A0041243B40DBF041243B425BF041243B43CBF041243B4B8E7021243B45BE82C
:2065A000021243B496E9021243B43FEA021243B4C7EB021243B4AFEC021243B4A6ED021208
:2065C00043B4DCED021243B47EEE021243B4A4EE021243B470F0021243B4B6F0021243B4C0
:2065E000D8F0021243B444F1021243B40FF2021243B4C9F2021243B4D5F4021243B45BDDAA
:20660000031243B437DE031243B4E1DE031243B422DF031243B4A9DF031243B424E00312C8
:2066200043B4F7E0031243B420E1031243B414E2031243B451E2031243B439E3031243B40A
:206640006AE3031243B490E3031243B44487051243B46F87051243B47F88051243B4DCA4F0
:20666000041243B4F2A4041243B410A5041243B420A6041243B42AA6041243B454A70412E7
:2066800043B441A8041243B4ADA8041243B400E4031243B42DE5031243B464E5031243B448
:2066A000BBE5031243B4B3E7031243B4A4ED011243B42BEE011243B47FEF011243B406F05C
:2066C000011243B412F0011243B48AF0011243B472F1011243B46EF2011243B43AF3011209
:2066E00043B494F4011243B4AAF4011243B4CBF4011243B45DF5011243B4D3F5011243B472
:20670000F9F5011243B4A6F8011243B4ABF8011243B4CFFA011243B416FB011243B47CFBC7
:20672000011243B4C2FB011243B492FC011243B447FD011243B4A3FD011243B4A6FD011242
:2067400043B4F2FD011243B42EFE011243B46DFE011243B48FFE011243B4C3FE011243B43C
:2067600031FF011243B470F4031243B47EF4031243B4CEF4031243B4EDF4031243B437F50A
:20678000031243B47AF6031243B412F7031243B456F7031243B480F7031243B4EBF7031289
:2067A00043B42FF8031243B4B2F8031243B461F9031243B436CE011243B4D0CE011243B4DD
:2067C0002CCF011243B4EACF011243B472D0011243B495D1011243B4C5D1011243B4F4D1D0
:2067E000011243B4AAD3011243B4FDD5011243B45CD8011243B445D9011243B435DA0112A4
:2068000043B408DC011243B400DF011243B41DE0011243B417E2011243B426E3011243B48D
:20682000B5E4011243B4A1E5011243B4F0E5011243B460E6011243B47CE6011243B4CDE6D7
:20684000011243B46DEB011243B483EC011243B43BED011243B40F8C041243B4198C0412BE
:2068600043B4618C041243B4758C041243B4068D041243B43D8D041243B4788D041243B490
:20688000A18D041243B4F58D041243B40A8E041243B42C8E041243B4418E041243B47B8EDD
:2068A000041243B4A78E041243B4F08E041243B4668F041243B4918F041243B4BC8F04126E
:2068C00043B4FF8F041243B42990041243B45490041243B4FB8A051243B42D97031243B40C
:2068E0000698031243B47598031243B4B098031243B4EB99031243B49D9A031243B44A9DC7
:20690000031243B4F59D031243B4D69E031243B44CA0031243B4B4A0031243B486870412D2
