:020000040000FA
:200000000205DDC2AFF5084194FFFFC2AFF50841A6FFFFC2AFF50841B8FFFFC2AFF5084154
:20002000CAFFFFC2AFF50841DCFFFFC2AFF50841EEFFFFC2AFF5086100FFFFC2AFF5086138
:2000400012FFFFC2AFF5086124FFFFC2AFF5086136FFFFC2AFF5086148FFFFC2AFF50861B8
:200060005AFFFFC2AFF508616CFFFFC2AFF508617EFFFFC2AFF5086190FFFFC2AFF5086178
:20008000A2FFFFC2AFF50861B4FFFFC2AFF50861C674FC1205A3750A04750B00780A1205E4
:2000A000CC74021206127A007B0079081203DC7402120588851E82851F83E0F47003A3E042
:2000C000F470030201F7851E82851F83E0F8A3E0F9E84970030201F77402120608E0687033
:2000E00003A3E0697010750901024030C2AF75C9AB75C95B80FE53BEFBE59DA2E650FAE5EA
:20010000C654804449F5C6E59E547F644970F853C67FE59EA2E740FA53C680E59E547F7055
:20012000FA43BE049062707408F0750A00F50B780A1205CC7C807D017A007B007908120309
:20014000DC7402120588900186E0F50AA3E0F50B7409780A1205ECE50A2408FF53B4F375AA
:20016000BC0075BC007CFC7D077A047B0079081202077E09EFC3940A401C800774086E70ED
:20018000027E567C007D087A007B00EEF91202070EEEC39F40E6A8BD851E82851F83E8F97B
:2001A000E5BCF8E0687003A3E069704B851E82851F83E0F8A3E0F97402120608E8F0A3E9AA
:2001C000F0851E82851F8374FFF0A3F07409F5D57480F5D4750A01780A1205CC7402120676
:2001E000127A007B101204617402120588C2AF75C9AB75C95B80FE750900020830C2AF754D
:20020000C9AB75C95B80FE74F71204C7E9FEAFC7740F5EF50A750B00740B780A1205B9EA93
:200220002400F8EB350BF9EA2400E93480F9A2AFE433F50AC2AFEEC4540FFAE5C754F84AB1
:20024000F5C7E9900980F0E8A3F0A37470F0A374BDF0EC900985F0ED541F900984F090093A
:20026000867420F0A37442F07409F5D57480F5D475D601000000000000000000000075D78F
:2002800001E5D7A2E040FA8FC7E50AA2E092AF7F0202052DE5096007E508D2AF024033E50B
:2002A00008D2AF020833E5096007E508D2AF02403BE508D2AF02083BE5096007E508D2AFC2
:2002C000024043E508D2AF020843E5096007E508D2AF02404BE508D2AF02084BE509600776
:2002E000E508D2AF024053E508D2AF020853E5096007E508D2AF02405BE508D2AF02085BFD
:20030000E5096007E508D2AF024063E508D2AF020863E5096007E508D2AF02406BE508D26B
:20032000AF02086BE5096007E508D2AF024073E508D2AF020873E5096007E508D2AF024031
:200340007BE508D2AF02087BE5096007E508D2AF024083E508D2AF020883E5096007E5086A
:20036000D2AF02408BE508D2AF02088BE5096007E508D2AF024093E508D2AF020893E5099B
:200380006007E508D2AF02409BE508D2AF02089BE5096007E508D2AF0240A3E508D2AF0280
:2003A00008A3E5096007E508D2AF0240ABE508D2AF0208ABE5096007E508D2AF0240B3E522
:2003C00008D2AF0208B3E5096007E508D2AF0240BBE508D2AF0208BB000203D874F5120488
:2003E000C7890A740F59F50C750D00740B780C1205B9EA2400F8EB3480F9EA2400E9350D9A
:20040000F985C70CA2AFE433F50BC2AFE50AC4540FFAE5C754F84AF5C7740B120608E0FE27
:20042000A3E0FFEE4F602CEEFAEFFB88828983E08C828D83F088828983A3A882A9838C827E
:200440008D83A3AC82AD83EA24FF1AEB34FFFBEA4B70D8850CC7E50BA2E092AF7F04020539
:200460002D74F71204C7ED900980F0ECA3F0A37462F0A37473F0A3E0541FF074091206082C
:20048000E0F50AA3E0F50BE50A333354FC900985F07406780A1205ECE50A900984F09009B3
:2004A000867412F0A37442F075D11E75D601EA906271F0EBA3F0906270E0D2E1F0E0A2E73E
:2004C00040FB7F0202052D251EC582C0E0E51F34FFC583C0E0E51EC3958224F910AF08859D
:2004E000831F85821E800885831F85821ED2AFCEF0A3E520F0A3780AE608F0A3DEFAEFF02D
:20050000A3E58124FBF8E608F0A3E608F0A30808E608F0A3E608F0A315811581D0E0FED0FD
:20052000E0F815811581E8C0E0EEC0E022851F83851E82E0A3FEE0A3F520780AE0A3F60817
:20054000DFFAE0A3FFE0A3C0E0E0A3C0E0E0A3C0E0E0A3C0E010AF0885821E85831F800819
:2005600085821E85831FD2AFD083D08222251EF58210AF08F51E400C151F8008F51E4002F6
:20058000151FD2AF851F832200C0D0251E10AF08F51E500C051F8008F51E5002051FD2AF9E
:2005A000D0D022251E10AF08F51E400C151F8008F51E4002151FD2AF22700422600D18C647
:2005C000C333C608C633C6D5E0F4182274028000C0E0F40412056DD0E01205FB2275D0007A
:2005E00075813F751E80751F0102061A600C08C6C313C618C613C6D5E0F422CAC0E0E6F064
:20060000A308DAFAD0E0FA22251EF582E4351FF58322251EFCE4351FFD2212009112062092
:2006200000000080FBFFFFFFFFFFFFFFFFFFFFFFFFFFFFFFFFFFFFFFFFFFFFFFFFFFFFFF5A
:20064000FFFFFFFFFFFFFFFFFFFFFFFFFFFFFFFFFFFFFFFFFFFFFFFFFFFFFFFFFFFFFFFFBA
:20066000FFFFFFFFFFFFFFFFFFFFFFFFFFFFFFFFFFFFFFFFFFFFFFFFFFFFFFFFFFFFFFFF9A
:20068000FFFFFFFFFFFFFFFFFFFFFFFFFFFFFFFFFFFFFFFFFFFFFFFFFFFFFFFFFFFFFFFF7A
:2006A000FFFFFFFFFFFFFFFFFFFFFFFFFFFFFFFFFFFFFFFFFFFFFFFFFFFFFFFFFFFFFFFF5A
:2006C000FFFFFFFFFFFFFFFFFFFFFFFFFFFFFFFFFFFFFFFFFFFFFFFFFFFFFFFFFFFFFFFF3A
:2006E000FFFFFFFFFFFFFFFFFFFFFFFFFFFFFFFFFFFFFFFFFFFFFFFFFFFFFFFFFFFFFFFF1A
:20070000FFFFFFFFFFFFFFFFFFFFFFFFFFFFFFFFFFFFFFFFFFFFFFFFFFFFFFFFFFFFFFFFF9
:20072000FFFFFFFFFFFFFFFFFFFFFFFFFFFFFFFFFFFFFFFFFFFFFFFFFFFFFFFFFFFFFFFFD9
:20074000FFFFFFFFFFFFFFFFFFFFFFFFFFFFFFFFFFFFFFFFFFFFFFFFFFFFFFFFFFFFFFFFB9
:20076000FFFFFFFFFFFFFFFFFFFFFFFFFFFFFFFFFFFFFFFFFFFFFFFFFFFFFFFFFFFFFFFF99
:20078000FFFFFFFFFFFFFFFFFFFFFFFFFFFFFFFFFFFFFFFFFFFFFFFFFFFFFFFFFFFFFFFF79
:2007A000FFFFFFFFFFFFFFFFFFFFFFFFFFFFFFFFFFFFFFFFFFFFFFFFFFFFFFFFFFFFFFFF59
:2007C000FFFFFFFFFFFFFFFFFFFFFFFFFFFFFFFFFFFFFFFFFFFFFFFFFFFFFFFFFFFFFFFF39
:2007E000FFFFFFFFFFFFFFFFFFFFFFFFFFFFFFFFFFFFFFFFFFFFFFFFFFFFFFFFFFFFFFFF19
:200800007512FFFF0000005C41414141FFFFFFFFFFFFFFFFFFFFFFFFFFFFFFFFFFFFFFFF07
:20082000000102030405060708090A0BFFFFFFFF020B01021996FFFFFFFFFFFFFFFFFFFFC5
:20084000FFFFFFFFFFFFFFFFFFFFFFFFFFFFFFFFFFFFFFFFFFFFFFFFFFFFFF021D94FFFF02
:20086000FFFFFFFFFFFFFFFFFFFFFFFFFFFFFFFFFFFFFFFFFFFFFFFFFFFFFFFFFFFFFFFF98
:20088000FFFFFF021A0CFFFFFFFFFFFFFFFFFFFFFFFFFFFFFFFFFFFFFFFFFFFFFFFFFFFF4D
:2008A000FFFFFFFFFFFFFFFFFFFFFFFFFFFFFFFFFFFFFF0217F301FF0000B400002800283B
:2008C00000283075A000A000A000A00000080008E001F0001000100010001000100010008A
:2008E00050005000500010001000D0070000000000000F000100050030750700100001003F
:2009000081FF00000000FFFFFFBE1FDC1FC41FFA1FFF02020208025000A0000000E803029A
:2009200003B2010000FBB10207B201000090180221B2010000C3020207B2010000911802EF
:200940000FB2010000D9020207B201000092180211B2010000DB020207B201000093180288
:2009600013B2080000DC020207B201000094180215B20100009518FF0100FF200203B20116
:200980000000FEB10207B2010000F9180217B20000000000020BB20300000A031700FA250B
:2009A000FA25FA25FA25FA25FA25FA25FA25FA25FA25FA25FA25FA256A287C2864280202FD
:2009C00003B2010000F5B10207B201000026B20219B20100003EB10207B201000025B202D5
:2009E00023B2010000A8B00207B201000028B2021DB2010000D2B00207B20100003C1902CC
:200A00001FB20100006AB11C0203B2010000F8B10207B201000085191030B00200006907B0
:200A2000020BB20300006B070209B201000031B10207B201000085191040B00200006A0715
:200A4000020BB20300006D070209B20100004AB1FFFFFFFF000130750302010600000000F9
:200A6000000000000000000000000000000000000000000000000000FFFF0600800CE803FB
:200A8000E5C754F84405F5C779012200000080FB120A80B90003020AEBE479437808B8001B
:200AA000028004F709D8FCE4794B7802B800028004F709D8FCE490028078B579168002F084
:200AC000A3D8FCD9FA7A347B189008B678CB79028015E493A3AD82AE838A828B83F0A3AA19
:200AE00082AB838D828E83D8E9D9E775825E75833F7400120B1375828B75830A7400120B60
:200B00001375D00075817F754180754202759F00020A90C09FF59FE473D09F22D083D082E9
:200B2000C09FE493C0E0740193C0E0740293F59F22E066701008A3E066700A08A3E0667046
:200B40000408A3E06622C3E7960809E7960809E7960809E79622C3E09608A3E09608A3E08D
:200B60009608A3E09622C021C3E096F52108A3E096422108A3E096422108A3E0964521706D
:200B800001D3D02122080808EAC0E0EBC0E086F0E7A4FA180986F0E7A42AFA180986F0E782
:200BA000A42AFA180986F0E7A42AFA1986F0E7A4FBE5F02AFA190886F0E7A42BFBE5F03AC2
:200BC000FA190886F0E7A42BFBE5F03AFA18180986F0E7A4C5F02BFBE43AFA1908E7C5F0E0
:200BE000C6A426F6E5F03BFBE43AFA1886F0E7A4F6E5F00826F6E43B08F6E43A08F6D0E05B
:200C0000FBD0E0FA22E4CFC0E0E4CEC0E0E4CDC0E0E4CCC0E075F020E626F608E633F60821
:200C2000E633F608E633F6181818EC33FCED33FDEE33FEEF33FFC3EC9709ED9709EE970964
:200C4000EF97191919400FFFEC97FC09ED97FD09EE97FE191906D5F0BFECF709EDF709EE5D
:200C6000F709EFF7191919D0E0FCD0E0FDD0E0FED0E0FF226016080808C6C313C618C6138A
:200C8000C618C613C618C613C6D5E0EA227009080808226016181818C6C333C608C633C6A5
:200CA00008C633C608C633C6D5E0EA22E627F60809E637F60809E637F60809E637F622E074
:200CC00026F608A3E036F608A3E036F608A3E036F622E026F008A3E036F008A3E036F00851
:200CE000A3E036F022C3E697F60809E697F60809E697F60809E697F622C3E0C696F608A3A5
:200D0000E0C696F608A3E0C696F608A3E0C696F622C3E096F008A3E096F008A3E096F00872
:200D2000A3E096F022E056F608A3E056F608A3E056F608A3E056F622E056F008A3E056F0BE
:200D400008A3E056F008A3E056F022E0F608A3E0F608A3E0F608A3E0F622E6F008A3E6F0FD
:200D600008A3E6F008A3E6F022E0FAA3E0FBA3E0FCA3E0FD22E0FCA3E0FDA3E0FEA3E0FF77
:200D800022ECF0A3EDF0A3EEF0A3EFF022E0F8A3E0F9A3E0FAA3E0FB22E8F0A3E9F0A3EA5E
:200DA000F0A3EBF022CAC0E0E6F0A308DAFAD0E0FA22CAC0E0E0A3C582CCC582C583CDC5F7
:200DC00083F0A3C582CCC582C583CDC583DAE6D0E0CA22C3E498F8E499F9120E148026C3A0
:200DE000E49AFAE49BFBE920E7E9120E14E498F8E499F922C3E498F8E499F9120E14E4988B
:200E0000F8E499F9C3E49AFAE49BFB22EB20E7CFE920E7E0B90010BB0008E88AF084F8AAE8
:200E2000F022E4FBC8FA22EB70227B10C833C8C933C9335007C39AC3DBF280069A50012A3B
:200E4000DBEAC833F4C8C933F4C9FA2275F008E4C833C8C933C933C99AC99B5004C92AC95E
:200E60003BD5F0ECFBC833F4C8E4C9FA22600D08C6A2E713C618C613C6D5E0F322600C0879
:200E8000C6C313C618C613C6D5E0F422700422600D18C6C333C608C633C6D5E0F418222502
:200EA0004110AF08F541400C15428008F54140021542D2AF2200C0D0254110AF08F5415014
:200EC0000C05428008F54150020542D2AFD0D0222541F58210AF08F541400C15428008F52B
:200EE0004140021542D2AF854283222541F582E43542F583222541F8E43542F9222541FA25
:200F0000E43542FB222541FCE43542FD22E4732541C582C0E0E54234FFC583C0E0E541C3AE
:200F2000958224F810AF088583428582418008858342858241D2AFCEF0A3E520F0A37821F8
:200F4000E608F0A3DEFAEFF0A3E58124FAF8E608F0A3E608F0A3E608F0A30808E608F0A326
:200F6000E608F0A315811581D0E0FED0E0F8158115811581E8C0E0EEC0E0222541C582C007
:200F8000E0E54234FFC583C0E0E541C3958224F910AF0885834285824180088583428582E0
:200FA00041D2AFCEF0A3E520F0A37821E608F0A3DEFAEFF0A3E58124FBF8E608F0A3E60816
:200FC000F0A30808E608F0A3E608F0A315811581D0E0FED0E0F815811581E8C0E0EEC0E0A8
:200FE00022854283854182E0A3FEE0A3F5207821E0A3F608DFFAE0A3FFE0A3C0E0E0A3C049
:20100000E0E0A3C0E0E0A3C0E0E0A3C0E010AF088582418583428008858241858342D2AF93
:20102000D083D082020B19854283854182E0A3FEE0A3F5207821E0A3F608DFFAE0A3FFE0E5
:20104000A3C0E0E0A3C0E0E0A3C0E0E0A3C0E010AF08858241858342800885824185834271
:20106000D2AFD083D08222C0D02541C582C0E0E54234FFC583C0E0E541C3958224F310AF33
:20108000088583428582418008858342858241D2AFC8F0A3E9F0A3EAF0A3EBF0A37921E7C8
:2010A00009F0A3D8FAECF0A3EDF0A3EEF0A3EFF0A3D0E0F0A3D0E0F0A3D0E0F0A3E520F002
:2010C000A3E5F0F0A322854283854182E0C0E0A3E0F9A3E0FAA3E0FBA37821E0F608A3DFBE
:2010E000FAE0FCA3E0FDA3E0FEA3E0FFA3E0C0E0A3E0C0E0A3E0F5D0A3E0F520A3E0A3F556
:20110000F010AF088583428582418008858342858241D2AFD082D083D0E0F8D0E032740444
:201120008006740280027401C0E0F404120ED0D0E0120DA5227404800474028000CCC0E040
:20114000EDC0E0E541C39CCCAD4250011D10AF068C418D4280068C418D42D2AF120DB2D0AF
:20116000E0FDD0E0FC22D083D082E9C0E0E493A3C386F0C5F095F0F908E493A386F0C5F0C3
:2011800095F0700BE493A3C3994005E9048002A3E475F002A42582F582E5F03583F583D0A0
:2011A000E0F9E493A3C0E0E493C0E022D083D082ECC0E0EDC0E0E493A3FCE493A3FDED4C3F
:2011C000600D1211F8EC24FFFCED34FFFD80EFE493A3FCE493A3FDED4C600D121237EC24B2
:2011E000FFFCED34FFFD80EFD0E0FDD0E0FCE493A3C0E0E493C0E022C0E0C3E49396087430
:2012000001939618400FE49366700808740193661870007019A3A3C3E493960874019396A5
:2012200018A3A3400DD0E0D0E0D0E00211E8A3A3A3A3A3A3D0E022C0E0C0F088F0E49366AF
:2012400070080874019366187000A8F0A3A3700BD0F0D0E0D0E0D0E00211E8A3A3D0F0D01E
:20126000E022FFFF74F6120F7BEAFEEBFF8C218D22EA2434F8E43FF9E8FCE9FDEA243512C5
:20128000160BFAEE243712160BF88521F0A4C885F0238522F0A42523F9EA28F8E439F97A0F
:2012A000257B00120E14EA8C828D83F0FA131313541F1215FF245DF582E439F583E0C0E089
:2012C00074075AF8D0E0B800028004C313D8FCA2E0EE50082434F582E43F801424361216D9
:2012E0000BF5F0EA84A8F01216002438F582E439F583E0F97F0302102774F7120F7BEAFEE5
:20130000EBFFEA243412160BC0E0EA2435F582E43FF583D0E0F08A828B83A3A3A3A3A3A3ED
:20132000A3C082C0838A828B83A3A3A3A3A3E0F8A3E0F9D083D082E0C398F521A3E099F5E1
:2013400022EA248012160B6401703EEA2481F582E43FF583C082C0838A828B83A3A3A3A3CB
:20136000A3E0240108A3E03400F9D083D082E0687003A3E06970127CB27D0412253AEE240D
:2013800080F582E43FF583E4F0AC21AD22EEFAEFFB121264E9F9121D867F02021027C0825E
:2013A000C083854182854283E0F8A3E0F9C3EA9CEB9D5010C3EC98ED99401BC3EA98EB99E2
:2013C0005014800EC3EA98EB994007C3EC98ED994004790180027900D083D08222EAC39C75
:2013E000FAEB9DFB2274EF120F7B900372E064086005E06407702A9061C8E060249003A064
:20140000E0F4601DE0F875F010A4C8AAF02AF974A228FE740339FF8E82F583A3A3A3E07059
:20142000030214FE906060E0C0E0EE2468F582E43FF583D0E0F07525237526057521007531
:201440002200E5D914F523E5D95403F527602F74036527601DE5236008EE246712160B60C4
:201460001D90051EE06401602C121608601278048010121608602CE523C3940550258063A5
:201480007800E523C398FA95E0FB1224028A218B22EA4B7005122756806412160870048A2C
:2014A000258B26E5236012852582852683F524E5D9F0A31524E52470F6121608604574FC2B
:2014C0002523F5237825121122AC23A927EEFAEFFB1225F47402120EB5E97027AA21AB22CB
:2014E000122A6E793D8E828F83A3A3A3A3E0FA7B00122276EEFAEFFB12255E1226067900C1
:201500000215FA740365276053E523F529752A007829121122AC25AD26AA21AB221225B82E
:201520007402120EB5EE246812160B64807004747F8001E0F5257825121126E527F5257869
:2015400025121126A923AC21AD229003A0E0FA7B0012224C7402120EB50215F585258285A5
:201560002683E0C3940E5011E0F8742328F582E434B1F583E065236069852582852683E062
:20158000C0E0EE24F7F582E43FF583D0E0F0A2AFE433FCC2AF7A0080010AEE246E12160B63
:2015A000F8EAC3985013EA1215FF246AF582E439F583E0640770E28022EE246EF8E43FF90E
:2015C000E0FAEE2AFAE43FFBEA246AF582E43BF5837407F088828983E004F0ECA2E092AF77
:2015E0008013900372E06408600BAC25AD26EEFAEFFB12267E12276279017F0A021027F8A1
:20160000EE28F8E43FF9E822EE2484F582E43FF583E02274F1120F7B74FC120E9FEAFEEBE9
:20162000FF8922752600A2AFE433F521C2AF9004BAE0FA9061D0E0F8748098F895E0F9C300
:20164000EA98E499A2D265D03340030216FD7526010216FDE0601B7823121122AC27A928C7
:20166000EEFAEFFB1225EE7402120EB574042527F52774012527F5D98528D9E52760128530
:201680002382852483F525E0F5D9A31525E52570F675E195EE2463F8E43FF97A007B00A259
:2016A000AFE433F523C2AF88828983E0FCA3E0FDEC4D603A88828983E0FAA3E0FB8C82F525
:2016C00083E0FCA3E0FD88828983ECF0A3EDF08A828B83E4F0A3F088828983E0FCA3E0FDC6
:2016E000EC4D700A88828983A3A3E4F0A3F0E523A2E092AF122A6E9004B9E004F0EE246369
:2017000012160BF8A3E0F9E8496063EE246312160B2402F8A3E034008882F583E5822402A2
:20172000F523E43583F524E0F527A3E0F528EE246212160B640170369061D0E0F8121608C5
:2017400060047C0480027C007480C398FA95E0FBE5272CF8E43400F9E82402F8500109C38A
:20176000EA98EB99A2D265D03340030216549061D0E0F87480C3989004BAF0E52660539064
:2017800004B9E0604D9004BBE0F89004B9E0C398500C74026522703A9004BCE060348E8279
:2017A0008F83A3A3A3A3E08541828542831217E27402120EEBE81217E29004B8E028F074E2
:2017C00002120F05AA41AB42790112229A9004B9E4F0E521A2E092AF7404120EB57F080201
:2017E0001027F0A3E4F09004B9E0F8228543878544C622C0E074EB121067A2AFE433F521FE
:20180000C2AF759B00906182E0A2E0502DE591A2E050277591FE74016543701E12196A1230
:201820001981121135121B357404120EB5E96401700579011226FC1213E5906182E0A2E5B2
:20184000505AE591A2E550547591DF900372E064076005E06408702C12196A740165437099
:201860003B121981121135121B357404120EB5E96401700579011226FC7901EEFAEFFB12AB
:2018800016138018E0640D7013900394E004F064287002E4F07A00E0F9122768906182E09F
:2018A000A2E6400302193FE591A2E6400302193F7591BF900372E0640570081226A81226C5
:2018C000B480031226AE754300122708E9900373F079001226FC1224B07A017B0090037186
:2018E000E0F9122A38907803E064427052900522E014F0704AC2AF1218FA00784CD0E0F6F4
:2019000018D0E0F6E59F540770047BFF80027B7FC4C0E0784BE6F52308E65BF524740B7842
:2019200023120E7DD0E02523F8906270E0A2E740F8E8C333906272F0906270E0D2E0F0904E
:201940006181E0A2E35009E5E9A2E3500375E9F7A3E0A2E75009E591A2E7500375917FE5CB
:2019600021A2E092AF7F080210C69003A0E0F875F010A4C8AAF02AF974A228FE740339FF90
:20198000221226C08E828F83E0F8A3E0C82416F582E438F58322C0E0C0D0C082C0839061DB
:2019A00083E0A2E05009E5BFA2E0500375BFFEE0A2E15009E5BFA2E1500375BFFDE0A2E273
:2019C0005009E5BFA2E2500375BFFBE0A2E35009E5BFA2E3500375BFF7E0A2E45009E5BF3C
:2019E000A2E4500375BFEFE0A2E55009E5BFA2E5500375BFDFE0A2E65009E5BFA2E650035A
:201A000075BFBFD083D082D0D0D0E032C0E074F2121067E5A7A2E6500FE5A1A2E6500953F0
:201A2000A7BF75A1BF121A60E5A7A2E5500CE5A1A2E5500653A7DF75A1DFE5A7A2E15009D7
:201A4000E5A1A2E1500375A1FDE5A7A2E2500CE5A1A2E2500653A7FB75A1FB7F010210C6ED
:201A600074F7120F7B754301900372E06406701512262A8A828B83A3A3A3A3A3A3E0FAA307
:201A8000E0FB122696A2AFE433FED2AF900378E0640170187A207B00900371E0F9122AE0D0
:201AA0007A207B00900371E0F9122A3E906182E0D2E6F090051FE0602185C64480169003F2
:201AC00077E064017008E5C654F84405F5C653BEFC1217EC7401654360E4EEA2E092AF7F24
:201AE000020210278E458F4685824A858349854182854283E0CEA3E0CF854A82854983EB42
:201B0000C9EAC8EDCBECCA75F010C3E833C8E933C9EA33CAEB33CBC3EA9EF548EB9FF547BE
:201B2000B35004AB47AA48EC33CCED33CDD5F0DAAE45AF462274F1120F7B8A218B228C2331
:201B40008D2490B1D97821120D25740F120EEB7825120D4B90B1D97825120D257821792516
:201B6000120B4690B1B1501078217925120CE57821120B664014800E78257921120CE578C6
:201B800025120B6650047901800279007F0802102774ED120F7B8A218B228C238D2490B11E
:201BA000D97821120D257413120EEB7825120D4B90B1D97825120D2578257921120B464001
:201BC0001178217925120CE5AA21AB22AC23AD248022752900752A00752B00752C017829C0
:201BE0007925120CE578297921120CACAA29AB2AAC2BAD2C7F0C02102790B1D97821120D51
:201C00004B8A828B837821120D387F0402102774F5120F7B8C828D837821120D4B8A828BF6
:201C2000837821120D11121C67C3E09CF0A3E09D121C59402290B1E17821120D4B8A828BCF
:201C4000837821120CD28A828B83A3A3A3A3E02420F0A3E0344EF080A0F088828983C3E000
:201C60009420A3E0944E22EA2404F8E43BF98C828D83A3A3A3A3E0FCA3E0FD8882898322C9
:201C800074F5120F7B9004D5E0FAA3E0FBE929F8E433F974E328F58274B039F583E02AF59A
:201CA00021A3E03BF522782112112290B1C5120D69121AE47402120EB58A218B228C238DD3
:201CC0002474107821120C74AA21AB227F0402102774F1120F7B8A258B268C278D2874118F
:201CE000120EEB1211397411120EEBE02401F521A3E03400F522E4F523F5247825792112A6
:201D00000B8590B1BD7821120D4B78257921120B85AA25AB26AC27AD28121AE47402120E6B
:201D2000B5EA4B60047A0180027A00EC2AFCE43DFD7413120EEBE0F8A3E0F9E8FEE9FFEC0E
:201D4000F8EDF97A717B02120E1488218922E4F523F5248E828F837821120D5AECF8EDF9A2
:201D60007A717B02120E148A218B2274057821120E8C8E828F83A3A3A3A3E521F0A3E52263
:201D8000F07F08021027C082C083E9906000F0D083D08222C0E0C0D0E8C0E0A8A8D2AFC233
:201DA000C7E8A2E792AFD0E0F8D0D0D0E032C2AF02000022120B1C8E3E00120B1C023F006C
:201DC000120B1CAE3F00120B1CB33F00120B1CF4DC07120B1C07DD07120B1C36DD07120B0E
:201DE0001C6EDD07120B1CB7DD07120B1CFADD07120B1C40DE07120B1C73DE07120B1C9AC8
:201E0000DE07120B1CC9DE07120B1C00DF07120B1C19DF07120B1C68DF07120B1C81DF0778
:201E2000120B1CC9DF07120B1CECE205120B1CEAE305120B1C50E405120B1C73E405120B7F
:201E40001C75E405120B1CB3E405120B1C24E505120B1CE4E505120B1C06E605120B1CA2E0
:201E6000E605120B1CD9E605120B1C1EE705120B1C2BE705120B1C9BE705120B1CE5E7051D
:201E8000120B1CE8E705120B1C2EE805120B1C31E805120B1C3BE805120B1CAEE805120B38
:201EA0001CD6E805120B1C09E905120B1C2DE905120B1C2AEA05120B1CCEEA05120B1C3A04
:201EC000EB05120B1C76EB05120B1CA1F405120B1CC9F405120B1CF6F405120B1C2EF5051C
:201EE000120B1C94F505120B1CDEF505120B1C42F605120B1C8AF605120B1CC7F605120BBE
:201F00001CF5F605120B1C8AF705120B1C94F705120B1CA1F705120B1CD4F705120B1CE035
:201F2000F705120B1CF8F705120B1C02F805120B1CADFE05120B1CC5FE05120B1CDCFE053E
:201F4000120B1C68C005120B1C0BC105120B1C46C205120B1CEFC205120B1C77C405120B46
:201F60001C5FC505120B1C56C605120B1C8CC605120B1C2EC705120B1C54C705120B1C204D
:201F8000C905120B1C66C905120B1C88C905120B1CF4C905120B1CBFCA05120B1C79CB0533
:201FA000120B1C85CD05120B1C58D207120B1C34D307120B1CDED307120B1C1FD407120B9F
:201FC0001CA6D407120B1C21D507120B1CF4D507120B1C1DD607120B1C11D707120B1C4E43
:201FE000D707120B1C36D807120B1C67D807120B1C8DD807120B1C243D00120B1C4F3D0032
:20200000120B1C5F3E00120B1CEEF406120B1C04F506120B1C22F506120B1C32F606120BB7
:202020001C3CF606120B1C66F706120B1C53F806120B1CBFF806120B1CA5EA06120B1CD257
:20204000EB06120B1C09EC06120B1C60EC06120B1C58EE06120B1C069907120B1C8D990706
:20206000120B1CE19A07120B1CED9A07120B1C659B07120B1C439C07120B1C3F9D07120B46
:202080001C0B9E07120B1C659F07120B1C7B9F07120B1CA29F07120B1C18A007120B1C3EE6
:2020A000A007120B1CEBA207120B1CF0A207120B1C14A507120B1C5BA507120B1CC1A507FB
:2020C000120B1C07A607120B1CD7A607120B1C8CA707120B1CE8A707120B1CEBA707120B25
:2020E0001C37A807120B1C73A807120B1CB2A807120B1CD4A807120B1C1FA907120B1C9C50
:20210000EB05120B1CAAEB05120B1CFAEB05120B1C19EC05120B1C63EC05120B1CA6ED0538
:20212000120B1C3EEE05120B1C68EE05120B1CD3EE05120B1C17EF05120B1C9AEF05120B7A
:202140001C49F005120B1C078006120B1CA18006120B1CFD8006120B1CBB8106120B1CDEB1
:202160008206120B1C0E8306120B1C3D8306120B1CF38406120B1C468706120B1CA58906D9
:20218000120B1C8E8A06120B1C7E8B06120B1C518D06120B1C499006120B1C669106120B18
:2021A0001C609306120B1C6F9406120B1CFE9506120B1CEA9606120B1C399706120B1CA946
:2021C0009706120B1CC59706120B1C169806120B1CB69C06120B1CCC9D06120B1C849E0640
:2021E000120B1CB83400120B1CC23400120B1C0A3500120B1C1E3500120B1CAF3500120B4D
:202200001CE63500120B1C213600120B1C4A3600120B1C9E3600120B1CB33600120B1CD501
:202220003600120B1CEA3600120B1C243700120B1C503700120B1CDB3700120B1C1E3800E1
:20224000120B1C483800120B1C733800120B1C22E507120B1C23D906120B1CFCD906120B2E
:202260001C6BDA06120B1CA6DA06120B1CE1DB06120B1C93DC06120B1C40DF06120B1CEB0D
:20228000DF06120B1CCCE006120B1C42E206120B1CAAE206120B1C5BF005120B1CC6F105C2
:2022A000120B1C04F405120B1CE4FA06120B1C91FB06120B1C8AFC06120B1CC7FC06120B1C
:2022C0001C563B00120B1CB53B00120B1C523C00120B1C853C00120B1CB33C00120B1CEE18
:2022E0003C00120B1C0E3D00120B1C45F006120B1CCEF006120B1C8DF106120B1C9BF20624
:20230000120B1CBBF406120B1CF3B507120B1C08B607120B1CD3B607120B1CA0B707120B6C
:202320001C0DB807120B1C48B807120B1CE9B807120B1CF2B907120B1CCABA07120B1C4D5F
:20234000BB07120B1CD6BB07120B1C3FBC07120B1CC9BC07120B1C16BD07120B1C84BD0756
:20236000120B1C26BE07120B1CD4BE07120B1CF4BE07120B1C38BF07120B1C80BF07120BA2
:202380001C9CBF07120B1CBBBF07120B1C35C007120B1C43C007120B1CD6C007120B1C403E
:2023A000C107120B1C863000120B1C023100120B1C403100120B1C243200120B1C933200C3
:2023C000120B1CD73200120B1C1A3300120B1C473300120B1C653300120B1C9D3300120B8B
:2023E0001CDA3300120B1CFB3300120B1C713400120B1CFAB106120B1C8EB306120B1CCC00
:20240000B506120B1C14B606120B1C3FB606120B1C35B706120B1C65B706120B1CBCB7068C
:20242000120B1CE9B706120B1C32B806120B1C6EB806120B1CB3B806120B1C00B906120B70
:202440001C68B906120B1C9ABB06120B1C61BD06120B1C9CBD06120B1C1ABF06120B1C5E01
:20246000BF06120B1CD1BF06120B1C91C006120B1CB0C106120B1CC1C106120B1C4FD90561
:20248000120B1CC0D905120B1C89DF05120B1C83E005120B1C45E205120B1CC3E205120BB9
:2024A0001C008007120B1C878007120B1CB48007120B1CF68007120B1CF28107120B1C37E5
:2024C0008207120B1CB38307120B1C3B8407120B1CAE8407120B1C6B8507120B1C2786076F
:2024E000120B1CA78607120B1C758707120B1C9B8707120B1C0D8807120B1CB18807120B66
:202500001CD68807120B1C428907120B1CA88907120B1CDE8907120B1C828A07120B1C1B77
:202520008B07120B1C9E8B07120B1C0A8C07120B1C568C07120B1CBC8C07120B1CED8C0767
:20254000120B1CA18D07120B1CB78E07120B1C008F07120B1C1D8F07120B1CFD9407120BDF
:202560001C459507120B1C329607120B1C579607120B1C6C9607120B1CD49607120B1C14F0
:202580009707120B1C279807120B1CD49807120B1C63C107120B1CAEC107120B1CBAC10724
:2025A000120B1C85C207120B1C9BC207120B1CD7C207120B1C10C307120B1C48C307120BA3
:2025C0001C9EC307120B1CB4C307120B1CF0C307120B1C03C407120B1C2AC407120B1C5E01
:2025E000C407120B1C32C507120B1CC1C607120B1CBDC707120B1CC6C807120B1CF13F0017
:20260000120B1C29B205120B1C64B205120B1C68B505120B1CBAB605120B1C7FB705120BB3
:202620001C79BA05120B1C63BB05120B1CAEBB05120B1CC8BB05120B1C05BC05120B1C103A
:20264000BC05120B1C4FBC05120B1C58BC05120B1C19BD05120B1CD6BD05120B1C39BE0504
:20266000120B1C9DBE05120B1C1EBF05120B1CED9E06120B1C49A206120B1C4FA206120B65
:202680001C90A906120B1C68AE06120B1C31E007120B1CFBE007120B1C3FE107120B1C790C
:2026A000E107120B1C0BE207120B1C7AE207120B1C83E207120B1C8FE207120B1CA3E2074E
:2026C000120B1CC7E207120B1CF7E207120B1C90F805120B1C9DF805120B1CB7F805120B55
:2026E0001CEAF805120B1C27F905120B1C8DF905120B1CA2F905120B1CADF905120B1CBA05
:20270000F905120B1CD1F905120B1CDFF905120B1CEAF905120B1CF6F905120B1C05FA0512
:20272000120B1C10FA05120B1C30FA05120B1C40FA05120B1C56FA05120B1C74FA05120B1A
:202740001C7FFA05120B1C94FA05120B1CA8FA05120B1C09FB05120B1C0FFB05120B1C155B
:20276000FB05120B1C1BFB05120B1C2DFB05120B1CCBC106120B1C59C206120B1C35C30643
:20278000120B1C69C306120B1C7CC306120B1CF6C306120B1C7EC506120B1CA5C506120B10
:2027A0001C2CC606120B1C6BC606120B1C7CC606120B1CF1C606120B1C10C706120B1C28A7
:2027C000C706120B1C6CC806120B1C76CA06120B1CA8CC06120B1CAECD06120B1CF1CD06D0
:2027E000120B1CBECD05120B1CC8CD05120B1CEACD05120B1CF6CD05120B1C43CF05120BDA
:202800001C70CF05120B1C91D005120B1CD3D005120B1C19D205120B1C7AD205120B1CAF3D
:20282000D205120B1CE8D205120B1C93D605120B1CAAD605120B1C28D705120B1C36D705DC
:20284000120B1C7FD705120B1C8DD705120B1C0ED805120B1C7DD805120B1CC9D805120B8F
:202860001C3ECE06120B1C60CE06120B1C3CD006120B1CB4D306120B1CFED406120B1CE082
:20288000D506120B1C60FB05120B1C85FB05120B1CF6FB05120B1C4FE306120B1C58E306EC
:2028A000120B1C61E306120B1C85E406120B1C76E606120B1CA4E606120B1CCFE606120B78
:2028C0001CFDE606120B1C28E706120B1C66E706120B1C92E706120B1CCFE706120B1CFA39
:2028E000E706120B1C46E806120B1C9DE806120B1CDDE806120B1C2CE906120B1C57E906E3
:20290000120B1C9DE906120B1CCBE906120B1CF6E906120B1C19EA06120B1CC3FF06120B81
:202920001CCDFF06120B1CDDFF06120B1C11FD05120B1C38FD05120B1C79FF06120B1CC916
:20294000F806120B1C19F906120B1C88F906120B1C2CFA06120B1C4BFA06120B1C99FA06AD
:20296000120B1CE7FF06120B1CF2FF06120B1CEDFF05120B1C38E707120B1C48E707120BED
:202980001C51E707120B1C95E707120B1C36E607120B1CB9E607120B1C1FE707120B1CF373
:2029A000CA07120B1C72CB07120B1C89CB07120B1C51CC07120B1C23CD07120B1CAACE07F0
:2029C000120B1C6ACF07120B1CCED007120B1C54D107120B1CB63F00120B1CC83F00120BB0
:2029E0001C442B00120B1C4E2B00120B1C8E2B00120B1CD72B00120B1C0F2C00120B1C655B
:202A00002C00120B1C822C00120B1C8B2C00120B1CD02C00120B1CF92C00120B1C0E2D00AC
:202A2000120B1C7E2D00120B1C0B2E00120B1C5F2E00120B1C822E00120B1C012F00120B0B
:202A40001C3C2F00120B1C712F00120B1C832F00120B1C9F2F00120B1CA82F00120B1C5A81
:202A60003000120B1C6CFF05120B1CE1FC06120B1C32FD06120B1CBBFD06120B1C25FE069A
:202A8000120B1C9B3800120B1CC33800120B1CB83900120B1CDD3900120B1C6C3A00120B81
:202AA0001C83FE06120B1C26E307120B1C5CE307120B1C8FE307120B1CE8E407120B1CFDB7
:202AC000D807120B1C13D907120B1CB7D907120B1CF6D907120B1C13DA07120B1C44DA0781
:202AE000120B1C91DA07120B1CC4DA07120B1CFFDA07120B1CD9A907120B1C90AD07120BD8
:202B00001CE7AD07120B1C06AE07120B1C63AE07120B1CE0AF07120B1CB3B007120B1C7599
:202B2000B407120B1C5DB507120B1C98E707120B1CC1FF05120B1CDEE707FFFFFFFFFFFFCC
:202B4000FFFFFFFFC082C083122B34022CF274F7120F0F7409120EEBE0F8A3E0F9801C8CC4
:202B6000828D83E08A828B83F08C828D83A3AC82AD838A828B83A3AA82AB83E8FEE9FFEEE7
:202B800024FF18EF34FFF9EE4F70D4022D0974F7120F0F7409120EEBE0FEA3E0FFEC2EF891
:202BA000ED3FF9E824FF18E934FFF9801788828983E08A828B83F0E824FF18E934FFF9A346
:202BC000AA82AB83EEFCEFFDEC24FF1EED34FFFFEC4D70D9022D0974F2120F0F8A218B22D1
:202BE0008C238D24AA23AB24122AB08A258B26AF26EA4F60117823121122AC21AD22122957
:202C0000E47402120EB5AA25EFFB7F06020FE174F5120F0FECF8EDF9740B120EEB122E57D1
:202C2000AC21AD22EC24FFF521ED34FFF522EC4D602CEAFCEBFD8C82F583A3AA82AB83E89E
:202C4000FEE9FF8E82F583A3A882A9838C828D83E0FC8E828F83E06C60C67900800279010A
:202C60007F03020FE174F6120F0F8C218D227821121122E9FC7D00122B2E7402120EB502F2
:202C80002E4AC082C0831229D8806774F6120F0FEAFEEBFFEA4F6031EA2405FAE43FFB12CA
:202CA0002AB08B22A922EA49601F8A828B83E4F0A3122E44A3A3122E40A3A3A3A374FFF046
:202CC000EA2405FAE439FB80047A007B00022E4AC082C083EA4B700479058016122D71608A
:202CE000047904800DEA24FBFAEB34FFFB122AB67900D083D082020B1974F7120F0F7C005D
:202D0000122A1A8004A2E092AF7F01020FE174F7120F0FE9FEECFFEA4B602690B227E0F83B
:202D2000E9C3984007122A0E79038043EA24FBF582EB34FF122EF77005122D716007122AE2
:202D40000E7905802AEEF074016F700DEAFCEBFD7A717B07122A2C800BEAFCEBFD7A717B9C
:202D600007122A267A007B80EEF9122A3879008098EA24FFF582EB34FFF583E0F42274F213
:202D8000120F0F7525007526007E007F00A2AFE433F523C2AF9007718015EE4F70068521EA
:202DA00025852226E52124FBF582E522122EF2122E57E52145226022E52124FFF582E5221F
:202DC000122EF2E06970D3EE4F7006AE21AF2280D37A007B80122A38800B7A007B80122A6A
:202DE0003EEE4F60157825121122EEFCEFFD7A717B07122A327402120EB5E523A2E092AF3A
:202E0000EEFA022C08E0FAA3E0FB2274F7120F0FA2AFE433FEC2AF122EECE4F0A3122E4481
:202E2000800C122E4FF9E8FAE9FB8882F583122EF970EF8A828B83ECF0A3EDF0EE022D0506
:202E4000EEF0A3EFF08A828B83227F02020FE1E824FBF8E934FF22E0F521A3E0F522227400
:202E6000F7120F0FA8A8C2AF8A828B83E0FEA3E0FF122EEC122E40ECF0A3EDF0E8A2E70275
:202E80002D0774F5120F0FA2AFE433F523C2AFEC24FBF8ED34FFF9E8FEE9FF8882F583E028
:202EA000F8A3E0F98A828B83122E57EC65217003ED652270068A828B838012740B120EEBE8
:202EC000E0FAA3E0CA24FBF582EA122EF2E8F0A3E9F08E828F83E4F0A3F0EC24FF122EEFFE
:202EE00074FFF0E523A2E092AF022C60EC24FBF582ED34FFF58322F583E0F8A3E0F9E849DD
:202F00002274F7120F0F90B227E0F8E9C3985027ACA8C2AFE929F8E433F9900773E028FD0A
:202F2000A3E0398D82F583E04AF0A3E04BF0ECA2E792AF790080027903022D0974F7120F85
:202F40000F90B227E0F8E9C3985021AEA8C2AFEAF4FCEBF4FDE929123041F583E05CF0A313
:202F6000E05DF0EEA2E792AF790080027903022D09E9F874FF687006C2AF7900800279079F
:202F8000020B19C082C083122AA4900771E4F0A3F0122ABC122A62122AAA7900022CF2C062
:202FA00082C083122A5680FB74F6120F0F752100122A9E122984A821E828123041122EF7E3
:202FC000700D052190B227E0F8E521C39840E790B227E0F8E521C3985064ACA8C2AFAE219B
:202FE000EE2EFEE433FF900773E02EF8A3E03FF98882F583122E0588828983E4F0A3F0ECA6
:20300000A2E792AFE5219019D0F0F974BE2EF58274B03FF583123051120F0D9019D074FF1F
:20302000F0A8A8C2AF900773E02EF9A3E03F8982F583E04AF0A3E04BF0E8A2E792AF022ECF
:203040004AF8E433F9900773E028FAA3E0398A8222E0F8A3E0F58388822274F7120F0FE9A5
:20306000FDEA4B60187800800108E8C39C5012E8FEEA2EF582E43BF583E06D60EC7900805E
:20308000027901022D0974F6120F0FE4F521F52278211211227C007D007A447B031222ACDE
:2030A0007402120EB5900344E075F026A4FAABF0122AB0900345EAF0A3EBF0F9EA49603F63
:2030C0007A00801EEA1232C074FFF0A3F088828983A3A3A3E4F0E812328439F583E4F0A349
:2030E000F00A900344E0F8EAC39840D87A00EA25E01234A9E4F0A3F00AEAC3940C40EF0283
:20310000336074F7120F0F7E00EE25E0F8E433F9744728F8740339F98882F583E0FCA3E0A3
:20312000FDEC4D700D88828983EAF0A3EBF0790080090EEEC3940C40D079137F01020FE1FF
:2031400074F0120F0F8923EAFEEBFF8C248D251223BAEA4B600579110232127AFF7BFF129D
:2031600023BA8A218B22EA4B70030232108A828B83A3A3A3A3E525F07527067528007827B0
:203180001211227412120EEBE0FCA3E0FDEA2405FAE43522FB1229E47402120EB585218228
:2031A000852283A3EEF0A3EFF0852182852283A3A3A3E524F0852182852283E523F0E5215E
:2031C0001232843522F583E4F0A3F07412120EEBE0C0E0E521240BF582E43522F583D0E0D1
:2031E000F07413120EEBE0F8A3E0F9E521240C1232177415120EEBE0F8A3E0F9E521240E48
:203200001232177900EEFAEFFB1223EA7900800279157F08020FE1F582E43522F583E8F0E5
:20322000A3E9F02274F6120F0F1223BA8A218B22AE21AF22EA4F60478A828B83A3858221AA
:20324000858322790112328AEE1232843FF583E0FAA3E0FBEA4B6003122AB67C267D007915
:2032600000EEFAEFFB1229FC85218285228374FFF0A3F08E828F83A3A3A3E4F0F98002792A
:20328000020233602424F582E422E0FAA3E0FB1223EA22C082C0837C0080010C900344E0F4
:2032A000F8ECC3985013EC1232C0E06A7003A3E06B70E8E8FAE9FB80047A007B000233966F
:2032C00075F026A4F8A9F0900345E028F8A3E039F98882F583A322C082C0837800800108D4
:2032E000900344E0FAE8C39A502AE875F026A4FAABF0900345E02AFAA3E03BFB8A82F58399
:20330000A3E0F47003A3E0F460D58A828B83E06970CD80047A007B00807C74F6120F0FE97F
:20332000FE74FE6A700374FF6B60141223BA8A828B83E5824583600BA3A3A3E05E60047947
:203340000180027900801974F6120F0F1233D0600DEA240BF582E439F583E0F980027900C3
:203360007F02020FE1C082C08379007800801DE875F026A4FAABF0900345E02AFCA3E03B7F
:203380008C82F583A3A3A3E060010908900344E0FAE8C39A40D9D083D082020B1974F61216
:2033A0000F0FECFEEDFF1233D06021EA240EF8500109F5828983E06E7003A3E06F600D88EA
:2033C000828983EEF0A3EFF079008002790180901223BA8B22A922EA492274F6120F0F1212
:2033E00033D06010EA240EF582E439F583E0FAA3E0FB80047A007B0002336074F4120F0F34
:20340000EAFEEBFF89218C221223BAEA4B700E74FE6E700374FF6F60517914804FEA123270
:20342000843BF583E0F8A3E0F9EA2403F582E43BF583E849700EE0A2E45014E0A2E44013B0
:20344000790F8028E05412641070F0E52260EC79058019E8496013E8241AF582E439F583E2
:20346000E0C395215004790C800279007F04020FE174F6120F0FEAFEEBFF8922752100A855
:2034800021E8281234A9E0F8A3E08882F583E58245836009A922EEFAEFFB120F0D0521E5C1
:2034A00021C3940C40D9023360F8E433F9744728F582740339F58322C082C0831223FC0276
:2034C00037BD74F6120F0F90030CE064017004793A8034E96004EC4D6011740A120EEBE03F
:2034E000FEA3E0FFEE4F6003EB600479128018E9F5227822121126ECF9EEFCEFFD12243E28
:203500007401120EB5E9F902379C74F7120F0F1224387A067B04122258790002379474F468
:20352000120F0F74FF120E9F8921ECFEEDFFE96059EA4B6055EC4F60518C828D8312386D5C
:20354000E849604690030DE06401705090030E12386DE8497005790012242C7A00EAC3955A
:20356000215039EAF52375240074027823120E8CEE2523F582EF3524F58312386D90030E84
:20358000E028F0A3E039F00A80D385418285428374121236CF7A357B0C1222527900740151
:2035A000120EB57F04020FE1790074090237BAC082C08374F9120E9F7401120EEBAA82ABD0
:2035C0008312240E1235D579077A097B101237C474070237BAE98541828542831235E0223B
:2035E000F0AC41AD422274F7120F0F74FC120E9FEAFEEBFF7403120EEBAC82AD83122432F9
:20360000E9854182854283F07401120EEBEEF07402120EEBEF1235DC79047A057B1402378A
:203620007EC082C08374FF120E9FEA4B600C122414E98541828542838008854182854283D5
:2036400074121236CF7A050237B374F7120F0F74FF120E9F740F120EEB123698121126746A
:203660000F120EEB123698121126740E120EEB121139740F120EEB123698121126740F12D2
:203680000EEB1236981211261224447406120EB51236C87A06023788E0F52178212274F7D2
:2036A000120F0F74FF120E9F12244A1236C87A0802378874F7120F0F74FF120E9F1224567C
:2036C0001236C87A09023788E98541828542831235E079012274F7120F0F74FF120E9F1279
:2036E00024501236C87A0A023788C082C08374F7120E9F79087401120EEBAA82AB831224C1
:2037000020E9854182854283F0640D6014E0AC41AD4270047909800279017A187B2012222A
:20372000520235A874F7120F0F74FD120E9FEAFEEBFF12245CE9854182854283F074011237
:203740000EEBEEF07402120EEBEF1237A10237A774F7120F0F74FD120E9FEAFEEBFF122485
:2037600062E9854182854283F07401120EEBEEF07402120EEBEF1237CA7A1B0237A71222F2
:2037800052790074040237917B2012225279007401120EB57F01020FE1120EB57F02020F5F
:2037A000E11237CE7A1A227B20122252790074030237917B201237C47401120EB5D083D06B
:2037C00082020B191222527900221237CE22F0AC41AD4279032274030237BA74F6120F0F79
:2037E00074F7120E9F854182854283E4F0752108F5227821121122EAFCEBFD7403120EEB56
:20380000AA82AB831229E47402120EB5AC41AD4279097A187B201222527409023799C08242
:20382000C08374FD120E9F854182854283E4F004120EEB7404F07402120EEBE41237CAFAC6
:203840007BFC1222A00237D6C082C08374FD120E9F8541828542837401F0120EEB7404F0EF
:203860007402120EEBE41237CA7A0180D3E0F8A3E0F922C082C08374FD120E9F854182850A
:2038800042837416F07401120EEB7404F07402120EEBE41237CA7A1602384074F7120F0FE4
:2038A0009019D1E0F47002A3E07013E99019D1F0A3E4F07C3CFDF97A777B071229FC7F01A0
:2038C000020FE174F0120F0F8928EAFEEBFF54806007EB6480FB0239B3EA4F70030239AF56
:2038E000A2AFE433F527C2AF7C008A218B22EC7821120E7DE521A2E0400302399D9019D1C0
:20390000A828E0C398F8A3E09400F9E875F00FA4F8AAF075F00FE9A42AF9ECFAE82AF521D0
:20392000E439F52274027821120E8C74772521F52174073522F522752501752600EC7825A9
:20394000120E8C852523852624E5212402F525E43522F526852182852283123A646012858A
:203960002582852683E0FAA3E0FB88828983120F0DAA23AB24A928122AE6EA4B4C4D7013F6
:20398000852182852283E4F0A3F0852582852683F0A3F0EE6523FAEF6524FB800A0CECC369
:2039A000940F50030238EAE527A2E092AF80047A007B007F08020FE1C082C0837404120E0F
:2039C000EB1211397402120EEB1211357900122A987406120EB5D083D082020B1974F412E6
:2039E0000F0F8922A2AFE433F521C2AFE9940F5064E9F52375240074027823120E8C74778D
:203A00002523F874073524F9E8FEE9FF8882123A626042752301752400E52275F00F84E55B
:203A2000F07823120E8CAA23AB249019D1E0F875F00FE5228428F9122AE08E828F83E4F02F
:203A4000A3F08E828F83A3A3F0A3F0E521A2E092AF79008008E521A2E092AF79027F040255
:203A60000FE1F583E0F8A3E0F9E8492274EA120F0F8A298B2A8C2D8D2E8927A2AFE433FFB6
:203A8000C2AFEA4B700AEFA2E092AF7902023B517E007416120EEB7821120D4BEEF52575B8
:203AA000260074027825120E8C74772525F52574073526F526852582123A626003023B4027
:203AC0007401652770067CDA7D2A80047CD47D2A782112111E752B01752C00EE75F00F84F5
:203AE000E5F0782B120E8CAA2BAB2C9019D1E0F875F00FEE8428F98C828D83120F0D7404D9
:203B0000120EB5E9703A852582852683E529F0A3E52AF0852582852683A3A3E52DF0A3E519
:203B20002EF0741A120EEBE0F8A3E08882F583E58245836002EEF0EFA2E092AF79008011C6
:203B40000EEEC3940F5003023A9CEFA2E092AF79087F0E020FE1C082C083E9FD74056A7068
:203B600001EB601674046A7001EB600E74066A7001EB600674076A4B7036EA75F009A4F8C7
:203B8000ACF075F009EBA42CF9741B28F8740339F9E824DCF582E934FFF583EAF0A3EBF0C4
:203BA000E824DEF582E934FFF583EDF0790080027902023D0774F4120F0FEAFEEBFF8C2160
:203BC0008D228C828D83E0F8A3E0F97405687001E960167404687001E9600E740668700118
:203BE000E9600674076849700F8C828D83A3A3E0F8A3E0F9E8497004790280517901122373
:203C0000C6E970047914804574FE6E700374FF6F6021EEFAEFFB1223DE852182852283A39F
:203C2000A3A3A3E0F8A3E0F9C3EA98EB995004791B801A900342E0AC21AD226009EEFAEF6B
:203C4000FB12232A8007EEFAEFFB1223187F04020FE174F6120F0F75213675222378211224
:203C600011228C218D227821121122E9FC7901800712230C740680051223127404120EB51D
:203C80007F02020FE174F6120F0FE4F521F5227821121122E9F52178211211267521047835
:203CA000211211267521427522237821121122791280BEC082C08374FC120E9F7402120E17
:203CC000EBEAF0A3EBF0854182854283ECF0A3EDF0900319E06401700EAC41AD42740212E0
:203CE0000EFD79011221F27404120EB58019C082C083EA24FCFAEB34FFFB90191AEAF0A352
:203D0000EBF0E9900342F0D083D082020B19C082C08390191AE0FAA3E0FB80EB120EB57FF0
:203D200004020FE1C082C083900287E0A2E250117A8D7B18121FA090188474FFF0A3F0801D
:203D4000077A007B00121FA0D083D082020B1974F4120F0F74FA120E9F8A238B2475210113
:203D6000EC2402F8E43DF9E8FAE9FBEC2404F8E43DF9E8FEE9FF78231211AC0000030003F5
:203D800000A63D13208D3DFFFF1F3E553E8A828B83E0F8740C6860087411686003023E582B
:203DA000122000023E588E828983E0FAA3E0FB8C828D83A3A3A3E0F9741A69700C90188446
:203DC000E06A7003A3E06B60D78C828D83A3A3A3A3A3A3A3A3A3A31211398C828D83A3A3C5
:203DE000A3A3A3A3A3A31211398C828D83A3A3A3A3A3A3E0FCA3E0FD121F6A7404120EB561
:203E00008E828F83E0F8A3E0F9901884E0687003A3E069704390188474FFF0A3F080397853
:203E2000008C828D83A3A3A3A3A3E064127022854182854283E4F0A3F0AC41AD428E8289DF
:203E400083E0F98A828B83E0FAA3E0FB1222CA780188218003752100A9217406023D1CC0FC
:203E600082C083901884E0F47003A3E0F4601C9002BCE0F97CAC7D02901884E0FAA3E0FBC5
:203E80001222D090188474FFF0A3F0023D4874F7120F0FE9900280F07C067D007A1F7B00DC
:203EA000121EC87C707DB0791F7A077B03122AF290B1E1120D6912203C90B1E1120D691258
:203EC000215C12299C12292A7A017B00900280E0F9122A3875F40075FE0175900075F3008A
:203EE00075FD1075800090B1951211357A027B00900280E0F9122ADA7404120EB57F010256
:203F00000FE174F6120F0FEAFEEBFF54806016900280E0F9122A20EA4B6003122A0EEEFAEA
:203F2000EF64808011EAA2E0500F7A817B02122AF8EE6401FAEFFB80205402601890183425
:203F4000E060086390016380108004C290C284EA6402FA80047A007B007F02020FE153BECF
:203F6000FBE59DA2E650FAE5C654804449F5C6E59E547F644970F843C680E59EA2E750FAE1
:203F800053C680E59E547F70FA43BE049062707408F079001229D2122978122A4AD2AF793C
:203FA000021229D2122A507A007B00020B197900020B19020B1974F7120F0FE9700579FF15
:203FC000122A447F01020FE1C082C08374FE120E9F7902AA41AB42122426854182854283F8
:203FE000E0FAA3E0FB7402120EB5D083D082020B19020B19FFFFFFFFFFFFFFFFFFFFFFFF39
:20400000AAB1FFFF0100009442424242FFFFFFFFFFFFFFFFFFFFFFFFFFFFFFFFFFFFFFFFBE
:20402000000102030405060708090A0BFFFFFFFF02438F025C8EFFFFFFFFFFFFFFFFFFFF8C
:20404000FFFFFFFFFFFFFFFFFFFFFF026136FFFFFFFFFFFFFFFFFFFFFFFFFF0260B2FFFFCD
:20406000FFFFFF02553BFFFFFFFFFF0260CCFFFFFFFFFF02608CFFFFFFFFFFFFFFFFFFFFA9
:20408000FFFFFF025D04FFFFFFFFFFFFFFFFFFFFFFFFFFFFFFFFFFFFFFFFFF0254DCFFFFA5
:2040A000FFFFFF026186FFFFFFFFFF02550EFFFFFFFFFF025AEB0256870100004187025A74
:2040C000870100006B871084850300008602025E870300008102025C870100003686025A57
:2040E000870100006A871074850200000000025E870300008302025C87010000068600C09B
:20410000010000000F81DD8177810884A4809D8200801E866883368441863E82E88200002F
:20412000030000010000000000000000140030FF0000B4000028002800283075A000A00027
:20414000A000A00000080008E001F0001000100010001000100010005000500050001000DE
:204160001000D0070000000000000F0001000500307507001000010081FF00000000FFFF08
:20418000FF276545652D656365FF02020208025000A0000000E80302568701000035870208
:2041A0005A87010000DC1C0260870100008403025A87010000DD1C0262870100009A03024C
:2041C0005A87010000DE1C0264870100009C03025A87010000DF1C0266870800009D0302FE
:2041E0005A87010000E01C024887010000E11CFF0100FF200256870100003887025A870170
:204200000000451D0244870000000000025E87030000CB031700B16BB16BB16BB16BB16B14
:20422000B16BB16BB16BB16BB16BB16BB16BB16B216E336E1B6E020256870100003E87023C
:204240005A870100006C870246870100000908025A870100006987024C8701000012860264
:204260005A8701000068870250870100007A84025A870100006E87024A860100003385022F
:204280005A87010000881D024E87010000728601FFFF000130750302010600000000000016
:2042A00000000000000000000000000000000000000000000000FFFF0600800CE803010082
:2042C000B0423BAAB83F0000003F8C906339AA0CA33A00941E3C8042633DCFFE753E15722F
:2042E000313F0000803FF304353F8096184B000080BF2292D43EDD9B2A3F04000040FFFF83
:204300007F7FFFFF7FFF010080341872313FE5C754F84404F5C779012200000080FB12430C
:204320000EB90003024379E479437815B800028004F709D8FCE479597802B800028004F751
:2043400009D8FCE49002807889791A8002F0A3D8FCD9FA7A087B1C9040B6785979038015B9
:20436000E493A3AD82AE838A828B83F0A3AA82AB838D828E83D8E9D9E775828E75837F74AB
:20438000001243A175821975834374001243A175D00075815F754180754202759F00024390
:2043A0001EC09FF59FE473D09F22D083D082C09FE493C0E0740193C0E0740293F59F22E0A2
:2043C00066701008A3E066700A08A3E066700408A3E06622C3E7960809E7960809E79608B0
:2043E00009E796A2D265D03322C3E09608A3E09608A3E09608A3E096A2D265D03322C021BE
:20440000C3E096F52108A3E096422108A3E096422108A3E0964221A2D265D033E52170016E
:20442000D3D02122C3E7960809E7960809E7960809E79622C3E09608A3E09608A3E0960807
:20444000A3E09622C021C3E096F52108A3E096422108A3E096422108A3E09645217001D31E
:20446000D02122080808E630E711124D8512447B080808C64480C618181822181818E979D2
:204480009EC608CAC608CBC608CCC6C370207996CACBCC7019798ECBCC70137986CC700E37
:2044A000F9802ACA33CACB33CBCC33CC331930E7F2CCCBCA3350147004EA30E00DE4CA3A4E
:2044C000CACB3BCBCC3CCC500209C3E913C6CC182313C6CB18C6CA18C6F92212451B20F0BF
:2044E0001430E72B74FFFCFBFA747F8022E4FCFBFA7480801AB48008BC00F2BB00EF800FE7
:2045000050EBF9E4C39AFAE49BFBE49CFCE499C6CC18C6CB18C6CA18C6F922E4C9C608CA98
:20452000C608CBC6D3330308CCC63392F0C3947F402E94184019C9B90704CACBCC225025F6
:20454000C309CA33CACB33CBCC33CC33D9F422F4600DC9CCC313CB13CBCA13CAD9F6CC2239
:20456000E4FCFBFA2214FCFBFA22E62618461846184622E72719471947194722181818E657
:204580000846087009E626087005E633F4220822191919E70947097009E727097005E733C0
:2045A000F4220922E6084608C3134608336002E633F422E7094709C3134709336002E73381
:2045C000F4221245A460251245B3602012456A7003024573080808E76670101819E76670FA
:2045E0000A1819E76670041819E76622F4221245A4601C1245B3601712456A70071245730F
:204600007001D322C0D01245737006D0D0B322C32233D0D0501430E0F6C3E7960809E796FF
:204620000809E7960809E796B32220E0D5E6970809E6970809E6970809E697B3221245A4BD
:20464000601B1245B3601612456A7007124573600CB322C0D01245737005D0D022C3223373
:20466000D0D0501330E0EBC3E7960809E7960809E7960809E7962220E0E4E6970809E69741
:204680000809E6970809E69722001245A4604F1245B36012E7548066F612457C70111245F4
:2046A00073703B090909F4F618F618F618F622124590701512456A08080860EAE6447FF65D
:2046C00018768018E4F618F62212456A60161245737012E4F608F608F608E65480F6090987
:2046E0000918181822EAC0E0EBC0E0ECC0E0EDC0E0E687F0A4FBACF008E687F0A42CFCE46C
:2047000035F0FA1809E687F0A42C4B60027401CA35F0FCE433FB09E687F0D2F7A42CCB350E
:20472000F0FC1908E687F0A42BCC35F0FBE433FD0819E687F0D2E7A42C4ACB35F0CD3400FE
:20474000FC09E687F0D2E7A42DCC35F0FDE433FA0918E687F0D2F7A42CCD35F0CA3400FC6B
:2047600008E687F0D2E7D2F7A42ACC35F07A7E20E70B0ACB33CBCD33CDCC33CC33CB33509D
:20478000147004ED30E00ED2F1E4CD3DCDCC3CCC3B5005DA05C2F1EB547FC63308E63392A8
:2047A000F0FBE73309E733C39A502D2B70190C0D4C4D70151806E608C333700D20F10AA2D0
:2047C000F013F6E418800B4024E4F630F002768018F618F618F68024D33B14501074FFA29E
:2047E000F013F6187680E418F618F6800FA2F013F618E63303F618ECF618EDF6D0E0FDD0EC
:20480000E0FCD0E0FBD0E0FA221245B360461245A4603DE9687008F618F618F618F622747E
:204820008067F712483D090909748067F7221245A4601D1245B37005191919801A12457CC5
:20484000701F124590C37003E6673319191940071818182208080874FFF618F618F618F685
:20486000221245906017124573702192F012456A7019501720F014080808090909E7F618DE
:2048800019E7F61819E7F61819E7F62212456A60E6E869701F0808E62480F608E436F6183D
:2048A000547FB47F0CE654806007F6E418F618F622181822E9C6CC08C6CD08C6CE08C6CF0C
:2048C000C0E0E8C0E0EAC0E0EBC0E009E9F809E7FA09E7FBE6F918E6F8C3EC98ED99EE9AB2
:2048E000EBC2E7F5F0EFC2E795F0500E600CEBCFFBEACEFAE9CDF9E8CCF8EAA2E7D2E7FA70
:20490000EB33FB13F5F0EEA2E7D2E7FEEF33FFC5F013A2E730E601B313C5F0C3C0E0C0F041
:204920007F00C39BFB605E9418600F401D14601AD0E023F9D0E0F8024A0F8AF0E9486003FE
:20494000D2F0E4AFF0FAF9F8803BEB30E40D89F0EA6003D2F0E4AFF0F9CAF8EB30E30D8807
:20496000F0EF6002D2F0AFF0E4CAC9F8EB54076014FBC3EA13FAE913F9E813F8EF1350027B
:20498000D2E0FFDBEDD0E0C0E030E739C3E49FFFF5F0EC98FC42F0ED99FD42F0EE9AFE42A5
:2049A000F0D0E0F9D0E0F8E5F0607AE923F9EE20E742D8028067C3EF33FFEC33FCED33FDEE
:2049C000EE33FE80EAEC28FCED39FDEE3AFED0E023F9D0E0F84002801BC3EE13FEED13FDE5
:2049E000EC13FCEF135002D2E0FF08B800067F7F74FF802EEF3350178CF020F00260100C3F
:204A0000BC000C0DBD00080EBE000408E860DFE933E813FFEE2313FE4F4D4C8008E9548098
:204A2000FFE4FEFDFCEE33EF33F47004FCFD7E80D0E0FBD0E0FAD0E0F8D0E0CFC618CEC60C
:204A400018CDC618CCC6F9221245A47004181818221245B3700D74FFF61819F61819F618B7
:204A600019F622E7548066F612456A700F12457370F014F608F608F608F680D112457370F5
:204A80000CF608F608768008E6447F80EC124593700C12457F60BFE65480F6E480BB12457A
:204AA0007F700519191980A5E869700C763F18768018F618F6E8F922E6CDC0E018ECC0E0EC
:204AC000E633CD33CDD313F6E719FCE7191933CC33C3947F400ECD9D502408E65480F6E42F
:204AE00018F6800FF4043D14501408E6447FF6187680E418F618F6D0E0FCD0E0FD22CCD39D
:204B000013CCFD18E4C6CBC0E018E4C6CAC0E00808ED08C633E613F618E433C675F003C353
:204B2000CA97CA09CB97CB199C40047D08802EBD0003024BF116B6FF050606081618C3CA4B
:204B400033CACB33CB33CA27CA09CB37CB193CC37D08803E187D0820E75CC633C6CA33CAEA
:204B6000CB33CB33DDF1D5F0EB30E77BCA97CA09CB974ACB199C406F4B7025E620E02180B3
:204B800066187D08C3CA97CA09CB97CB199CD3C633C6CA33CACB33CB3350C9DDE7D5F0E161
:204BA000D3E4C636C608C636C608C636C608C636C61818188031C3CA97CA09CB97CB199C4C
:204BC000B34097C633C6CA33CACB33CB33DD34D5F02EC6A2E0C640C8CA27CA09CB37194A86
:204BE00070BECB3CB480B90808E63308E633601F181818D0E0FAD0E0FBD0E0FCD0E0FD22B2
:204C0000187D08CA27CA09CB37CB193CD3808013F618E4B67F11F618B6FF0EF618C60470DA
:204C2000D20808768080CAF618F618F680C5080808EAC0E0EBC0E086F0E7A4FA180986F03C
:204C4000E7A42AFA180986F0E7A42AFA180986F0E7A42AFA1986F0E7A4FBE5F02AFA1908EA
:204C600086F0E7A42BFBE5F03AFA190886F0E7A42BFBE5F03AFA18180986F0E7A4C5F02B99
:204C8000FBE43AFA1908E7C5F0C6A426F6E5F03BFBE43AFA1886F0E7A4F6E5F00826F6E4AF
:204CA0003B08F6E43A08F6D0E0FBD0E0FA22E4CFC0E0E4CEC0E0E4CDC0E0E4CCC0E075F07D
:204CC00020E626F608E633F608E633F608E633F6181818EC33FCED33FDEE33FEEF33FFC3EA
:204CE000EC9709ED9709EE9709EF97191919400FFFEC97FC09ED97FD09EE97FE191906D54C
:204D0000F0BFECF709EDF709EEF709EFF7191919D0E0FCD0E0FDD0E0FED0E0FF22124D882D
:204D2000181818124CAE124D7419191922124D74191919080808E618181820E7E0124CAE88
:204D4000124D8818181822090909E719191920E7DC080808E618181820E703024CAE124D27
:204D600088181818124CAE124D88181818124D7419191922E4C397F709E497F709E497F7BD
:204D800009E497F722181818E4C396F608E496F608E496F608E496F6226017080808C6A27A
:204DA000E713C618C613C618C613C618C613C6D5E0E9226016080808C6C313C618C613C6A7
:204DC00018C613C618C613C6D5E0EA227009080808226016181818C6C333C608C633C608E2
:204DE000C633C608C633C6D5E0EA22E627F60809E637F60809E637F60809E637F622E026D5
:204E0000F608A3E036F608A3E036F608A3E036F622E026F008A3E036F008A3E036F008A352
:204E2000E036F022C3E697F60809E697F60809E697F60809E697F622C3E0C696F608A3E0E6
:204E4000C696F608A3E0C696F608A3E0C696F622C3E096F008A3E096F008A3E096F008A32E
:204E6000E096F022E056F608A3E056F608A3E056F608A3E056F622E056F008A3E056F008D8
:204E8000A3E056F008A3E056F022E647F60809E647F60809E647F60809E647F622E046F05F
:204EA00008A3E046F008A3E046F008A3E046F022E066F008A3E066F008A3E066F008A3E00A
:204EC00066F022E0F608A3E0F608A3E0F608A3E0F622E6F008A3E6F008A3E6F008A3E6F086
:204EE00022E0FAA3E0FBA3E0FCA3E0FD22EAF0A3EBF0A3ECF0A3EDF022E0FCA3E0FDA3E0BF
:204F0000FEA3E0FF22ECF0A3EDF0A3EEF0A3EFF022E0F8A3E0F9A3E0FAA3E0FB22E8F0A382
:204F2000E9F0A3EAF0A3EBF022CAC0E0E6F0A308DAFAD0E0FA22CAC0E0E0A3C582CCC582A9
:204F4000C583CDC583F0A3C582CCC582C583CDC583DAE6D0E0CA22C3E498F8E499F9124F40
:204F6000988026C3E49AFAE49BFBE920E7E9124F98E498F8E499F922C3E498F8E499F912A1
:204F80004F98E498F8E499F9C3E49AFAE49BFB22EB20E7CFE920E7E0B90010BB0008E88ADA
:204FA000F084F8AAF022E4FBC8FA22EB70227B10C833C8C933C9335007C39AC3DBF2800679
:204FC0009A50012ADBEAC833F4C8C933F4C9FA2275F008E4C833C8C933C933C99AC99B5048
:204FE00004C92AC93BD5F0ECFBC833F4C8E4C9FA22600D08C6A2E713C618C613C6D5E0F38E
:2050000022600C08C6C313C618C613C6D5E0F422700422600D18C6C333C608C633C6D5E0FD
:20502000F41822254110AF08F541400C15428008F54140021542D2AF2200C0D0254110AF8D
:2050400008F541500C05428008F54150020542D2AFD0D0222541F58210AF08F541400C159A
:20506000428008F54140021542D2AF854283222541F582E43542F583222541F8E43542F926
:20508000222541FAE43542FB222541FCE43542FD22E4732541C582C0E0E54234FFC583C034
:2050A000E0E541C3958224F810AF088583428582418008858342858241D2AFCEF0A3E5209A
:2050C000F0A37821E608F0A3DEFAEFF0A3E58124FAF8E608F0A3E608F0A3E608F0A30808BA
:2050E000E608F0A3E608F0A315811581D0E0FED0E0F8158115811581E8C0E0EEC0E022250D
:2051000041C582C0E0E54234FFC583C0E0E541C3958224F910AF08858342858241800885A2
:205120008342858241D2AFCEF0A3E520F0A37821E608F0A3DEFAEFF0A3E58124FBF8E60809
:20514000F0A3E608F0A30808E608F0A3E608F0A315811581D0E0FED0E0F815811581E8C0D3
:20516000E0EEC0E022854283854182E0A3FEE0A3F5207821E0A3F608DFFAE0A3FFE0A3C03C
:20518000E0E0A3C0E0E0A3C0E0E0A3C0E0E0A3C0E010AF08858241858342800885824185F5
:2051A0008342D2AFD083D0820243A7854283854182E0A3FEE0A3F5207821E0A3F608DFFA7A
:2051C000E0A3FFE0A3C0E0E0A3C0E0E0A3C0E0E0A3C0E010AF0885824185834280088582D9
:2051E00041858342D2AFD083D08222C0D02541C582C0E0E54234FFC583C0E0E541C39582BD
:2052000024F310AF088583428582418008858342858241D2AFC8F0A3E9F0A3EAF0A3EBF054
:20522000A37921E709F0A3D8FAECF0A3EDF0A3EEF0A3EFF0A3D0E0F0A3D0E0F0A3D0E0F0B4
:20524000A3E520F0A3E5F0F0A322854283854182E0C0E0A3E0F9A3E0FAA3E0FBA37821E0E4
:20526000F608A3DFFAE0FCA3E0FDA3E0FEA3E0FFA3E0C0E0A3E0C0E0A3E0F5D0A3E0F5202F
:20528000A3E0A3F5F010AF088583428582418008858342858241D2AFD082D083D0E0F8D0F2
:2052A000E03274048006740280027401C0E0F404125054D0E0124F292274048004740280D5
:2052C00000CCC0E0EDC0E0E541C39CCCAD4250011D10AF068C418D4280068C418D42D2AF23
:2052E000124F36D0E0FDD0E0FC22D083D082C5F0E493A3C5F0C395F0F5F0E493A3C395F0E4
:205300004005E5F0048001E475F002A42582F582E5F03583F583E493A3C0E0E493C0E022E9
:20532000D083D082E9C0E0E493A3C386F0C5F095F0F908E493A386F0C5F095F0700BE493F5
:20534000A3C3994005E9048002A3E475F002A42582F582E5F03583F583D0E0F9E493A3C062
:20536000E0E493C0E022D083D082E9C0E0E493A3C386F0C5F095F0F908E493A386F0C5F013
:2053800095F0702408E493A386F0C5F095F0701908E493A386F0C5F095F0700E08E493A327
:2053A000C3994007E9048004A3A3A3E475F002A42582F582E5F03583F583D0E0F9E493A31B
:2053C000C0E0E493C0E022D083D082CCC0E0E493A360061253F11470FAE493A360061254A9
:2053E000101470FAD0E0FCE493A3C0E0E493C0E022C0E0E493A3D39C5010E493A3C39C403E
:205400000AD0E0D0E0D0E00253E4A3A3A3D0E022C0E0E493A36C7009D0E0D0E0D0E002537A
:20542000E4A3A3D0E022D083D082ECC0E0EDC0E0E493A3FCE493A3FDED4C600D125472EC1B
:2054400024FFFCED34FFFD80EFE493A3FCE493A3FDED4C600D1254B1EC24FFFCED34FFFD8F
:2054600080EFD0E0FDD0E0FCE493A3C0E0E493C0E022C0E0C3E49396087401939618400FF4
:20548000E49366700808740193661870007019A3A3C3E49396087401939618A3A3400DD0F9
:2054A000E0D0E0D0E0025462A3A3A3A3A3A3D0E022C0E0C0F088F0E4936670080874019323
:2054C00066187000A8F0A3A3700BD0F0D0E0D0E0D0E0025462A3A3D0F0D0E022C0E0C0D0F5
:2054E000E8C0E0E9C0E0C082C083A2AFE433F9D2AFA889E5AB58600BF4F589C2C590083BE4
:205500007401F0E9A2E092AFD083D0828022C0E0C0D0E8C0E0E9C0E0A2AFE433F9D2AFA868
:205520008AE58D586005F4F58AC2EBE9A2E092AFD0E0F9D0E0F8D0D0D0E032C0E0C0D0E8FB
:20554000C0E0E9C0E0A2AFE433F9D2AFA88BE5AC586005F4F58BC2E880D174F61250FFEA9B
:20556000FEEBFF8C218D22EA2434F8E43FF9E8FCE9FDEA2435125901FAEE2437125901F871
:205580008521F0A4C885F0238522F0A42523F9EA28F8E439F97A257B00124F98EA8C828D3D
:2055A00083F0FA131313541F1258F5245DF582E439F583E0C0E074075AF8D0E0B8000280AF
:2055C00004C313D8FCA2E0EE50082434F582E43F80142436125901F5F0EA84A8F01258F6BE
:2055E0002438F582E439F583E0F97F030251AB74F71250FFEAFEEBFFEA2434125901C0E0FE
:20560000EA2435F582E43FF583D0E0F08A828B83A3A3A3A3A3A3A3C082C0838A828B83A3C4
:20562000A3A3A3A3E0F8A3E0F9D083D082E0C398F521A3E099F522EA248012590164017092
:205640003EEA2481F582E43FF583C082C0838A828B83A3A3A3A3A3E0240108A3E03400F9E0
:20566000D083D082E0687003A3E06970127C7B7D05126AF1EE2480F582E43FF583E4F0AC52
:2056800021AD22EEFAEFFB12555AE9F912607E7F020251ABC082C083854182854283E0F847
:2056A000A3E0F9C3EA9CEB9D5010C3EC98ED99401BC3EA98EB995014800EC3EA98EB994051
:2056C00007C3EC98ED994004790180027900D083D08222EAC39CFAEB9DFB2274EF1250FFCA
:2056E00090043BE064086005E06407702A9061C8E06024900469E0F4601DE0F875F010A4E9
:20570000C8AAF02AF9746B28FE740439FF8E82F583A3A3A3E070030257F4906060E0C0E06E
:20572000EE2468F582E43FF583D0E0F07525EC752605752100752200E5D914F523E5D954EE
:2057400003F527602F74036527601DE5236008EE2467125901601D9005E7E06401602C12EA
:2057600058FE6012780480101258FE602CE523C39405502580637800E523C398FA95E0FB60
:205780001269A78A218B22EA4B7005126D0D80641258FE70048A258B26E523601285258293
:2057A000852683F524E5D9F0A31524E52470F61258FE604574FC2523F52378251252A6AC79
:2057C00023A927EEFAEFFB126BAB7402125039E97027AA21AB221270EB793D8E828F83A3CB
:2057E000A3A3A3E0FA7B0012680FEEFAEFFB126B15126BBD79000258F0740365276053E5E6
:2058000023F529752A0078291252A6AC25AD26AA21AB22126B6F7402125039EE24681259DF
:205820000164807004747F8001E0F52578251252AAE527F52578251252AAA923AC21AD22BD
:20584000900469E0FA7B001267E574021250390258EB852582852683E0C3940E5011E0F86A
:2058600074C228F582E43485F583E065236069852582852683E0C0E0EE24F7F582E43FF59B
:2058800083D0E0F0A2AFE433FCC2AF7A0080010AEE246E125901F8EAC3985013EA1258F536
:2058A000246AF582E439F583E0640770E28022EE246EF8E43FF9E0FAEE2AFAE43FFBEA2463
:2058C0006AF582E43BF5837407F088828983E004F0ECA2E092AF801390043BE06408600B33
:2058E000AC25AD26EEFAEFFB126C35126D1979017F0A0251ABF8EE28F8E43FF9E822EE24A8
:2059000084F582E43FF583E02274F11250FF74FC125023EAFEEBFF8922752600A2AFE433B4
:20592000F521C2AF900583E0FA9061D0E0F8748098F895E0F9C3EA98E499A2D265D0334085
:20594000030259F37526010259F3E0601B78231252A6AC27A928EEFAEFFB126BA5740212EC
:20596000503974042527F52774012527F5D98528D9E5276012852382852483F525E0F5D90D
:20598000A31525E52570F675E195EE2463F8E43FF97A007B00A2AFE433F523C2AF888289CD
:2059A00083E0FCA3E0FDEC4D603A88828983E0FAA3E0FB8C82F583E0FCA3E0FD88828983CF
:2059C000ECF0A3EDF08A828B83E4F0A3F088828983E0FCA3E0FDEC4D700A88828983A3A369
:2059E000E4F0A3F0E523A2E092AF1270EB900582E004F0EE2463125901F8A3E0F9E8496037
:205A000063EE24631259012402F8A3E034008882F583E5822402F523E43583F524E0F52795
:205A2000A3E0F528EE2462125901640170369061D0E0F81258FE60047C0480027C00748004
:205A4000C398FA95E0FBE5272CF8E43400F9E82402F8500109C3EA98EB99A2D265D03340FB
:205A60000302594A9061D0E0F87480C398900583F0E5266053900582E0604D900584E0F83B
:205A8000900582E0C398500C74026522703A900585E060348E828F83A3A3A3A3E08541824D
:205AA000854283125AD8740212506FE8125AD8900581E028F07402125089AA41AB42790124
:205AC000126839900582E4F0E521A2E092AF74041250397F080251ABF0A3E4F0900582E069
:205AE000F822FFFF8550878551C622C0E074EB1251EBA2AFE433F521C2AF759B00906182B5
:205B0000E0A2E0502DE591A2E050277591FE74016550701E125C62125C791252B9125E2D0A
:205B20007404125039E9640170057901126CB31256DB906182E0A2E5505AE591A2E550547C
:205B40007591DF90043BE064076005E06408702C125C6274016550703B125C791252B9123E
:205B60005E2D7404125039E9640170057901126CB37901EEFAEFFB1259098018E0640D7000
:205B80001390045DE004F064287002E4F07A00E0F9126D1F906182E0A2E64003025C37E5D2
:205BA00091A2E64003025C377591BF90043BE064057008126C5F126C6B8003126C657550AE
:205BC00000126CBFE990043CF07900126CB3126A677A017B0090043AE0F91270B590780373
:205BE000E0644270529005EBE014F0704AC2AF125BF200785AD0E0F618D0E0F6E59F54075A
:205C000070047BFF80027B7FC4C0E07859E6F52308E65BF524740B7823125001D0E0252310
:205C2000F8906270E0A2E740F8E8C333906272F0906270E0D2E0F0906181E0A2E35009E53E
:205C4000E9A2E3500375E9F7A3E0A2E75009E591A2E7500375917FE521A2E092AF7F0802A0
:205C6000524A900469E0F875F010A4C8AAF02AF9746B28FE740439FF22126C778E828F8327
:205C8000E0F8A3E0C82416F582E438F58322C0E0C0D0C082C083906183E0A2E05009E5BFF2
:205CA000A2E0500375BFFEE0A2E15009E5BFA2E1500375BFFDE0A2E25009E5BFA2E250033E
:205CC00075BFFBE0A2E35009E5BFA2E3500375BFF7E0A2E45009E5BFA2E4500375BFEFE0F1
:205CE000A2E55009E5BFA2E5500375BFDFE0A2E65009E5BFA2E6500375BFBFD083D082D08B
:205D0000D0D0E032C0E074F21251EBE5A7A2E6500FE5A1A2E6500953A7BF75A1BF125D584E
:205D2000E5A7A2E5500CE5A1A2E5500653A7DF75A1DFE5A7A2E15009E5A1A2E1500375A1E9
:205D4000FDE5A7A2E2500CE5A1A2E2500653A7FB75A1FB7F0102524A74F71250FF755001C4
:205D600090043BE064067015126BE18A828B83A3A3A3A3A3A3E0FAA3E0FB126C4DA2AFE4E3
:205D800033FED2AF900441E0640170187A207B0090043AE0F91271CF7A207B0090043AE0DE
:205DA000F91270BB906182E0D2E6F09005E8E0602185C6518016900440E064017008E5C666
:205DC00054F84405F5C653BEFC125AE47401655060E4EEA2E092AF7F020251AB8E528F53B6
:205DE000858257858356854182854283E0CEA3E0CF855782855683EBC9EAC8EDCBECCA7550
:205E0000F010C3E833C8E933C9EA33CAEB33CBC3EA9EF555EB9FF554B35004AB54AA55ECCE
:205E200033CCED33CDD5F0DAAE52AF532274F11250FF8A218B228C238D249086D57821129F
:205E40004E64740F12506F7825124EC39086D57825124E64782179251244249087115010F7
:205E600078217925124E2478211244444014800E78257921124E2478251244445004790192
:205E8000800279007F080251AB74ED1250FF8A218B228C238D249086D57821124E64741339
:205EA00012506F7825124EC39086D57825124E6478257921124424401178217925124E2448
:205EC000AA21AB22AC23AD248022752900752A00752B00752C0178297925124E247829798C
:205EE00021124DEBAA29AB2AAC2BAD2C7F0C0251AB9086D57821124EC38A828B83782112EA
:205F00004E777F040251AB74F51250FF8C828D837821124EC38A828B837821124E50125FC3
:205F20005FC3E09CF0A3E09D125F5140229086F97821124EC38A828B837821124E118A8294
:205F40008B83A3A3A3A3E02420F0A3E0344EF080A0F088828983C3E09420A3E0944E22EAB0
:205F60002404F8E43BF98C828D83A3A3A3A3E0FCA3E0FD888289832274F51250FF90059EAE
:205F8000E0FAA3E0FBE929F8E433F9745428F582748539F583E02AF521A3E03BF5227821F0
:205FA0001252A69086B1124EE1125DDC74021250398A218B228C238D2474107821124DB38C
:205FC000AA21AB227F040251AB74F11250FF8A258B268C278D28741112506F1252BD74111E
:205FE00012506FE02401F521A3E03400F522E4F523F52478257921124C2E90871D78211230
:206000004EC378257921124C2EAA25AB26AC27AD28125DDC7402125039EA4B60047A018074
:20602000027A00EC2AFCE43DFD741312506FE0F8A3E0F9E8FEE9FFECF8EDF97A717B0212F6
:206040004F9888218922E4F523F5248E828F837821124ED2ECF8EDF97A717B02124F988A4E
:20606000218B22740578211250108E828F83A3A3A3A3E521F0A3E522F07F080251ABC082C9
:20608000C083E9906000F0D083D08222C0E074F21251EBA2AFE433FED2AFC2C0E5D1A2E434
:2060A000500675D10F126FBFEEA2E092AF7F0102524AC0E0C0D0E8C0E0A8A8D2AFC2C7E82C
:2060C000A2E792AFD0E0F8D0D0D0E032C0E0C0D0E8C0E0E9C0E0EAC0E0EBC0E0C082C083F1
:2060E000A2AFE433F9D2AF90089EE0F8A3E0687008539AFBA374018022C2E990089EE0F8F2
:20610000740128F0747E28F582E43408F583E0F5C190089EE0C394204002E4F0E9A2E09293
:20612000AFD083D082D0E0FBD0E0FAD0E0F9D0E0F8D0D0D0E032C0E0C0D0E8C0E0E9C0E0A2
:20614000EAC0E0EBC0E0C082C083A2AFE433F9D2AFA8F9900924E0FA74A32AF582E43408B3
:20616000F583E8F0900923E0F8A3E0687006E595900926F0900924E004F0C394804002E423
:20618000F0A3E4F08096C0E0C0D0E8C0E0E9C0E0EAC0E0EBC0E0C082C083A2AFE433F9D274
:2061A000AF9009A7E0F8A3E0687008539AF7A374018022C2EA9009A7E0F8740128F074272B
:2061C00028F582E43409F583E0F5F99009A7E0C394804002E4F002611CC2AF020000221286
:2061E00043AA5EBC031243AAA1BC031243AA6CBD031243AA31C1031243AAACC1031243AAA9
:20620000BEC1031243AAC1C1031243AAADC2031243AA36C3031243AABEC3031243AA8DBB42
:20622000021243AA6ABC021243AA92BE021243AA35BF021243AAB6BF021243AA60C1021245
:2062400043AA7FC2021243AAD7C2021243AAD0C3021243AA8BC4021243AA7AC5021243AA51
:20626000DEC5021243AAADC9021243AA48CA021243AA0080011243AA1C80011243AAF38160
:20628000011243AAE082011243AA4983011243AA8D83011243AABD83011243AA10850112D8
:2062A00043AA8C85011243AA0286011243AAA986011243AAB887011243AA4788011243AA1B
:2062C0006C8A011243AA3094011243AA7B94011243AA9B94011243AAF194011243AA1E958E
:2062E000011243AA32B7011243AA2AB9011243AA75B9011243AAF3B9011243AAD1BC011258
:2063000043AA0EBD011243AAF3C4011243AADAC5011243AA1EC6011243AA77C7011243AA4D
:20632000C1C8011243AA16C9011243AABCC9011243AA2CFC031243AA3FFC031243AA6EFC9F
:20634000031243AAA6FC031243AAEFFC031243AA32FD031243AA78FD031243AAABFD031245
:2063600043AAD2FD031243AA01FE031243AA38FE031243AA51FE031243AAA0FE031243AA35
:20638000B9FE031243AA01FF031243AA35FF031243AAAEB3031243AAACB4031243AA12B580
:2063A000031243AA35B5031243AA37B5031243AA75B5031243AAE6B5031243AAA6B60312C7
:2063C00043AAC8B6031243AA64B7031243AA9BB7031243AAE0B7031243AAEDB7031243AAA0
:2063E0005DB8031243AAA7B8031243AAAAB8031243AAF0B8031243AAF3B8031243AAFDB8B5
:20640000031243AA70B9031243AA98B9031243AACBB9031243AAEFB9031243AAECBA031211
:2064200043AA90BB031243AAFCBB031243AA38BC031243AAEB9C041243AA139D041243AA36
:20644000409D041243AA789D041243AADE9D041243AA289E041243AA8C9E041243AAD49E5E
:20646000041243AA119F041243AA3F9F041243AAD49F041243AADE9F041243AAEB9F0412EF
:2064800043AA1EA0041243AA2AA0041243AA42A0041243AA4CA0041243AA2EFF021243AA7F
:2064A00046FF021243AA5DFF021243AA6472001243AA0773001243AA4274001243AAEB74D7
:2064C000001243AA7376001243AA5B77001243AA5278001243AA8878001243AA2A79001287
:2064E00043AA5079001243AA1C7B001243AA627B001243AA847B001243AAF07B001243AA0D
:20650000BB7C001243AA757D001243AA817F001243AA47DB031243AA23DC031243AACDDC87
:20652000031243AA0EDD031243AA95DD031243AA10DE031243AAE3DE031243AA0CDF031245
:2065400043AA00E0031243AA3DE0031243AA25E1031243AA56E1031243AA7CE1031243AAAD
:206560000880051243AA3380051243AA4381051243AAC5A4041243AADBA4041243AAF9A485
:20658000041243AA09A6041243AA13A6041243AA3DA7041243AA2AA8041243AA96A804127A
:2065A00043AA9EE7031243AACBE8031243AA02E9031243AA59E9031243AA51EB031243AA43
:2065C0000699021243AA8D99021243AAE19A021243AA689B021243AA749B021243AAEC9BDD
:2065E000021243AAD49C021243AAD09D021243AA9C9E021243AAF69F021243AA0CA002122A
:2066000043AA2DA0021243AABFA0021243AA35A1021243AA5BA1021243AA08A4021243AADE
:206620000DA4021243AA31A6021243AA78A6021243AADEA6021243AA24A7021243AAF4A7C5
:20664000021243AAA9A8021243AA05A9021243AA08A9021243AA54A9021243AA90A902123B
:2066600043AACFA9021243AAF1A9021243AA25AA021243AA93AA021243AA80F2031243AA97
:206680008EF2031243AADEF2031243AAFDF2031243AA47F3031243AA8AF4031243AA22F5E2
:2066A000031243AA66F5031243AA90F5031243AAFBF5031243AA3FF6031243AAC2F60312FE
:2066C00043AA71F7031243AA02CB011243AA9CCB011243AAF8CB011243AAB6CC011243AAEA
:2066E0003ECD011243AA61CE011243AA91CE011243AAC0CE011243AA76D0011243AAC9D292
:20670000011243AA28D5011243AA11D6011243AA01D7011243AAD4D8011243AACCDB011257
:2067200043AAE9DC011243AAE3DE011243AAF2DF011243AA81E1011243AA6DE2011243AA64
:20674000BCE2011243AA2CE3011243AA48E3011243AA99E3011243AA39E8011243AA4FE98C
:20676000011243AA07EA011243AAF88B041243AA028C041243AA4A8C041243AA5E8C041238
:2067800043AAEF8C041243AA268D041243AA618D041243AA8A8D041243AADE8D041243AA5F
:2067A000F38D041243AA158E041243AA2A8E041243AA648E041243AA908E041243AAD98E78
:2067C000041243AA4F8F041243AA7A8F041243AAA58F041243AAE88F041243AA1290041260
:2067E00043AA3D90041243AABF83051243AA5596031243AA2E97031243AA9D97031243AAAC
:20680000D897031243AA1399031243AAC599031243AA729C031243AA1D9D031243AAFE9D92
:20682000031243AA749F031243AADC9F031243AA6F87041243AAB287041243AA1D890412D3
:2068400043AA5B8B041243AA7DFD011243AA25FE011243AA5AFE011243AA55FF011243AA19
:2068600092FF011243AAEEB9041243AA4DBA041243AAEABA041243AA1DBB041243AA4BBB4B
:20688000041243AA86BB041243AAA6BB041243AA83F7031243AA0CF8031243AACBF80312F3
:2068A00043AAD9F9031243AAF9FB031243AA0080031243AA1580031243AAE080031243AAA6
:2068C000AD81031243AA1A82031243AA5582031243AAF682031243AAFF83031243AAD784B8
:2068E000031243AA5A85031243AAE385031243AA4C86031243AAD686031243AA238703125A
:2069000043AA9187031243AA3388031243AAE188031243AA0189031243AA4589031243AAEC
