:020000040000FA
:200000000205DDC2AFF5084194FFFFC2AFF50841A6FFFFC2AFF50841B8FFFFC2AFF5084154
:20002000CAFFFFC2AFF50841DCFFFFC2AFF50841EEFFFFC2AFF5086100FFFFC2AFF5086138
:2000400012FFFFC2AFF5086124FFFFC2AFF5086136FFFFC2AFF5086148FFFFC2AFF50861B8
:200060005AFFFFC2AFF508616CFFFFC2AFF508617EFFFFC2AFF5086190FFFFC2AFF5086178
:20008000A2FFFFC2AFF50861B4FFFFC2AFF50861C674FC1205A3750A04750B00780A1205E4
:2000A000CC74021206127A007B0079081203DC7402120588851E82851F83E0F47003A3E042
:2000C000F470030201F7851E82851F83E0F8A3E0F9E84970030201F77402120608E0687033
:2000E00003A3E0697010750901024030C2AF75C9AB75C95B80FE53BEFBE59DA2E650FAE5EA
:20010000C654804449F5C6E59E547F644970F853C67FE59EA2E740FA53C680E59E547F7055
:20012000FA43BE049062707408F0750A00F50B780A1205CC7C807D017A007B007908120309
:20014000DC7402120588900186E0F50AA3E0F50B7409780A1205ECE50A2408FF53B4F375AA
:20016000BC0075BC007CFC7D077A047B0079081202077E09EFC3940A401C800774086E70ED
:20018000027E567C007D087A007B00EEF91202070EEEC39F40E6A8BD851E82851F83E8F97B
:2001A000E5BCF8E0687003A3E069704B851E82851F83E0F8A3E0F97402120608E8F0A3E9AA
:2001C000F0851E82851F8374FFF0A3F07409F5D57480F5D4750A01780A1205CC7402120676
:2001E000127A007B101204617402120588C2AF75C9AB75C95B80FE750900020830C2AF754D
:20020000C9AB75C95B80FE74F71204C7E9FEAFC7740F5EF50A750B00740B780A1205B9EA93
:200220002400F8EB350BF9EA2400E93480F9A2AFE433F50AC2AFEEC4540FFAE5C754F84AB1
:20024000F5C7E9900980F0E8A3F0A37470F0A374BDF0EC900985F0ED541F900984F090093A
:20026000867420F0A37442F07409F5D57480F5D475D601000000000000000000000075D78F
:2002800001E5D7A2E040FA8FC7E50AA2E092AF7F0202052DE5096007E508D2AF024033E50B
:2002A00008D2AF020833E5096007E508D2AF02403BE508D2AF02083BE5096007E508D2AFC2
:2002C000024043E508D2AF020843E5096007E508D2AF02404BE508D2AF02084BE509600776
:2002E000E508D2AF024053E508D2AF020853E5096007E508D2AF02405BE508D2AF02085BFD
:20030000E5096007E508D2AF024063E508D2AF020863E5096007E508D2AF02406BE508D26B
:20032000AF02086BE5096007E508D2AF024073E508D2AF020873E5096007E508D2AF024031
:200340007BE508D2AF02087BE5096007E508D2AF024083E508D2AF020883E5096007E5086A
:20036000D2AF02408BE508D2AF02088BE5096007E508D2AF024093E508D2AF020893E5099B
:200380006007E508D2AF02409BE508D2AF02089BE5096007E508D2AF0240A3E508D2AF0280
:2003A00008A3E5096007E508D2AF0240ABE508D2AF0208ABE5096007E508D2AF0240B3E522
:2003C00008D2AF0208B3E5096007E508D2AF0240BBE508D2AF0208BB000203D874F5120488
:2003E000C7890A740F59F50C750D00740B780C1205B9EA2400F8EB3480F9EA2400E9350D9A
:20040000F985C70CA2AFE433F50BC2AFE50AC4540FFAE5C754F84AF5C7740B120608E0FE27
:20042000A3E0FFEE4F602CEEFAEFFB88828983E08C828D83F088828983A3A882A9838C827E
:200440008D83A3AC82AD83EA24FF1AEB34FFFBEA4B70D8850CC7E50BA2E092AF7F04020539
:200460002D74F71204C7ED900980F0ECA3F0A37462F0A37473F0A3E0541FF074091206082C
:20048000E0F50AA3E0F50BE50A333354FC900985F07406780A1205ECE50A900984F09009B3
:2004A000867412F0A37442F075D11E75D601EA906271F0EBA3F0906270E0D2E1F0E0A2E73E
:2004C00040FB7F0202052D251EC582C0E0E51F34FFC583C0E0E51EC3958224F910AF08859D
:2004E000831F85821E800885831F85821ED2AFCEF0A3E520F0A3780AE608F0A3DEFAEFF02D
:20050000A3E58124FBF8E608F0A3E608F0A30808E608F0A3E608F0A315811581D0E0FED0FD
:20052000E0F815811581E8C0E0EEC0E022851F83851E82E0A3FEE0A3F520780AE0A3F60817
:20054000DFFAE0A3FFE0A3C0E0E0A3C0E0E0A3C0E0E0A3C0E010AF0885821E85831F800819
:2005600085821E85831FD2AFD083D08222251EF58210AF08F51E400C151F8008F51E4002F6
:20058000151FD2AF851F832200C0D0251E10AF08F51E500C051F8008F51E5002051FD2AF9E
:2005A000D0D022251E10AF08F51E400C151F8008F51E4002151FD2AF22700422600D18C647
:2005C000C333C608C633C6D5E0F4182274028000C0E0F40412056DD0E01205FB2275D0007A
:2005E00075813F751E80751F0102061A600C08C6C313C618C613C6D5E0F422CAC0E0E6F064
:20060000A308DAFAD0E0FA22251EF582E4351FF58322251EFCE4351FFD2212009112062092
:2006200000000080FBFFFFFFFFFFFFFFFFFFFFFFFFFFFFFFFFFFFFFFFFFFFFFFFFFFFFFF5A
:20064000FFFFFFFFFFFFFFFFFFFFFFFFFFFFFFFFFFFFFFFFFFFFFFFFFFFFFFFFFFFFFFFFBA
:20066000FFFFFFFFFFFFFFFFFFFFFFFFFFFFFFFFFFFFFFFFFFFFFFFFFFFFFFFFFFFFFFFF9A
:20068000FFFFFFFFFFFFFFFFFFFFFFFFFFFFFFFFFFFFFFFFFFFFFFFFFFFFFFFFFFFFFFFF7A
:2006A000FFFFFFFFFFFFFFFFFFFFFFFFFFFFFFFFFFFFFFFFFFFFFFFFFFFFFFFFFFFFFFFF5A
:2006C000FFFFFFFFFFFFFFFFFFFFFFFFFFFFFFFFFFFFFFFFFFFFFFFFFFFFFFFFFFFFFFFF3A
:2006E000FFFFFFFFFFFFFFFFFFFFFFFFFFFFFFFFFFFFFFFFFFFFFFFFFFFFFFFFFFFFFFFF1A
:20070000FFFFFFFFFFFFFFFFFFFFFFFFFFFFFFFFFFFFFFFFFFFFFFFFFFFFFFFFFFFFFFFFF9
:20072000FFFFFFFFFFFFFFFFFFFFFFFFFFFFFFFFFFFFFFFFFFFFFFFFFFFFFFFFFFFFFFFFD9
:20074000FFFFFFFFFFFFFFFFFFFFFFFFFFFFFFFFFFFFFFFFFFFFFFFFFFFFFFFFFFFFFFFFB9
:20076000FFFFFFFFFFFFFFFFFFFFFFFFFFFFFFFFFFFFFFFFFFFFFFFFFFFFFFFFFFFFFFFF99
:20078000FFFFFFFFFFFFFFFFFFFFFFFFFFFFFFFFFFFFFFFFFFFFFFFFFFFFFFFFFFFFFFFF79
:2007A000FFFFFFFFFFFFFFFFFFFFFFFFFFFFFFFFFFFFFFFFFFFFFFFFFFFFFFFFFFFFFFFF59
:2007C000FFFFFFFFFFFFFFFFFFFFFFFFFFFFFFFFFFFFFFFFFFFFFFFFFFFFFFFFFFFFFFFF39
:2007E000FFFFFFFFFFFFFFFFFFFFFFFFFFFFFFFFFFFFFFFFFFFFFFFFFFFFFFFFFFFFFFFF19
:20080000508CFFFF0000005C41414141FFFFFFFFFFFFFFFFFFFFFFFFFFFFFFFFFFFFFFFFB2
:20082000000102030405060708090A0BFFFFFFFF020B00021996FFFFFFFFFFFFFFFFFFFFC6
:20084000FFFFFFFFFFFFFFFFFFFFFFFFFFFFFFFFFFFFFFFFFFFFFFFFFFFFFF021D94FFFF02
:20086000FFFFFFFFFFFFFFFFFFFFFFFFFFFFFFFFFFFFFFFFFFFFFFFFFFFFFFFFFFFFFFFF98
:20088000FFFFFF021A0CFFFFFFFFFFFFFFFFFFFFFFFFFFFFFFFFFFFFFFFFFFFFFFFFFFFF4D
:2008A000FFFFFFFFFFFFFFFFFFFFFFFFFFFFFFFFFFFFFF0217F3FF0000B40000280028003C
:2008C000283075A000A000A000A00000080008E001F000100010001000100010001000503A
:2008E000005000500010001000D0070000000000000F00010005003075070010000100810E
:20090000FF00000000FFFFFFBE1FDC1FC41FFA1FFF02020208025000A0000000E80302FD1E
:20092000B1010000F0B10201B20100008F180207B2010000C3020201B2010000901802091D
:20094000B2010000D9020201B20100009118020BB2010000DB020201B20100009218020D9E
:20096000B2080000DC020201B20100009318020FB20100009418FF0100FF2002FDB101003E
:2009800000F3B10201B2010000F8180211B200000000000205B20300000A031700FA25FA2F
:2009A00025FA25FA25FA25FA25FA25FA25FA25FA25FA25FA25FA256A287C2864280202FDFA
:2009C000B1010000F6B10201B20100001EB20217B20100003EB10201B20100001DB2021BDB
:2009E000B2010000A8B00201B201000020B20215B2010000D2B00201B20100003B190213F9
:200A0000B20100006AB11C02FDB1010000EDB10201B201000084191030B0020000690702E6
:200A200005B20300006B070203B201000031B10201B201000084191040B00200006A070228
:200A400005B20300006D070203B20100004AB1FFFFFFFF0001307503020106000000000007
:200A60000000000000000000000000000000000000000000000000FFFF0600800CE803E516
:200A8000C754F84405F5C779012200000080FB120A7FB90003020AEAE479437808B8000200
:200AA0008004F709D8FCE4794B7802B800028004F709D8FCE490028078B579168002F0A3E3
:200AC000D8FCD9FA7A347B189008B678CA79028015E493A3AD82AE838A828B83F0A3AA823B
:200AE000AB838D828E83D8E9D9E77582A67583FF7405120B1275828A75830A7400120B12C5
:200B000075D00075817F754180754202759F00020A8FC09FF59FE473D09F22D083D082C03D
:200B20009FE493C0E0740193C0E0740293F59F22E066701008A3E066700A08A3E066700402
:200B400008A3E06622C3E7960809E7960809E7960809E79622C3E09608A3E09608A3E096FB
:200B600008A3E09622C021C3E096F52108A3E096422108A3E096422108A3E0964521700102
:200B8000D3D02122080808EAC0E0EBC0E086F0E7A4FA180986F0E7A42AFA180986F0E7A4DF
:200BA0002AFA180986F0E7A42AFA1986F0E7A4FBE5F02AFA190886F0E7A42BFBE5F03AFA6C
:200BC000190886F0E7A42BFBE5F03AFA18180986F0E7A4C5F02BFBE43AFA1908E7C5F0C614
:200BE000A426F6E5F03BFBE43AFA1886F0E7A4F6E5F00826F6E43B08F6E43A08F6D0E0FB26
:200C0000D0E0FA22E4CFC0E0E4CEC0E0E4CDC0E0E4CCC0E075F020E626F608E633F608E636
:200C200033F608E633F6181818EC33FCED33FDEE33FEEF33FFC3EC9709ED9709EE9709EF5B
:200C400097191919400FFFEC97FC09ED97FD09EE97FE191906D5F0BFECF709EDF709EEF755
:200C600009EFF7191919D0E0FCD0E0FDD0E0FED0E0FF226016080808C6C313C618C613C6BB
:200C800018C613C618C613C6D5E0EA227009080808226016181818C6C333C608C633C60863
:200CA000C633C608C633C6D5E0EA22E627F60809E637F60809E637F60809E637F622E02656
:200CC000F608A3E036F608A3E036F608A3E036F622E026F008A3E036F008A3E036F008A3D4
:200CE000E036F022C3E697F60809E697F60809E697F60809E697F622C3E0C696F608A3E068
:200D0000C696F608A3E0C696F608A3E0C696F622C3E096F008A3E096F008A3E096F008A3AF
:200D2000E096F022E056F608A3E056F608A3E056F608A3E056F622E056F008A3E056F00859
:200D4000A3E056F008A3E056F022E0F608A3E0F608A3E0F608A3E0F622E6F008A3E6F008FD
:200D6000A3E6F008A3E6F022E0FAA3E0FBA3E0FCA3E0FD22E0FCA3E0FDA3E0FEA3E0FF225D
:200D8000ECF0A3EDF0A3EEF0A3EFF022E0F8A3E0F9A3E0FAA3E0FB22E8F0A3E9F0A3EAF090
:200DA000A3EBF022CAC0E0E6F0A308DAFAD0E0FA22CAC0E0E0A3C582CCC582C583CDC58364
:200DC000F0A3C582CCC582C583CDC583DAE6D0E0CA22C3E498F8E499F9120E138026C3E440
:200DE0009AFAE49BFBE920E7E9120E13E498F8E499F922C3E498F8E499F9120E13E498F879
:200E0000E499F9C3E49AFAE49BFB22EB20E7CFE920E7E0B90010BB0008E88AF084F8AAF0F0
:200E200022E4FBC8FA22EB70227B10C833C8C933C9335007C39AC3DBF280069A50012ADB50
:200E4000EAC833F4C8C933F4C9FA2275F008E4C833C8C933C933C99AC99B5004C92AC93BFE
:200E6000D5F0ECFBC833F4C8E4C9FA22600D08C6A2E713C618C613C6D5E0F322600C08C6EE
:200E8000C313C618C613C6D5E0F422700422600D18C6C333C608C633C6D5E0F41822254187
:200EA00010AF08F541400C15428008F54140021542D2AF2200C0D0254110AF08F541500C49
:200EC00005428008F54150020542D2AFD0D0222541F58210AF08F541400C15428008F541F6
:200EE00040021542D2AF854283222541F582E43542F583222541F8E43542F9222541FAE482
:200F00003542FB222541FCE43542FD22E4732541C582C0E0E54234FFC583C0E0E541C395FD
:200F20008224F810AF088583428582418008858342858241D2AFCEF0A3E520F0A37821E6A7
:200F400008F0A3DEFAEFF0A3E58124FAF8E608F0A3E608F0A3E608F0A30808E608F0A3E626
:200F600008F0A315811581D0E0FED0E0F8158115811581E8C0E0EEC0E0222541C582C0E00D
:200F8000E54234FFC583C0E0E541C3958224F910AF0885834285824180088583428582417F
:200FA000D2AFCEF0A3E520F0A37821E608F0A3DEFAEFF0A3E58124FBF8E608F0A3E608F067
:200FC000A30808E608F0A3E608F0A315811581D0E0FED0E0F815811581E8C0E0EEC0E02276
:200FE000854283854182E0A3FEE0A3F5207821E0A3F608DFFAE0A3FFE0A3C0E0E0A3C0E08B
:20100000E0A3C0E0E0A3C0E0E0A3C0E010AF088582418583428008858241858342D2AFD0A3
:2010200083D082020B18854283854182E0A3FEE0A3F5207821E0A3F608DFFAE0A3FFE0A313
:20104000C0E0E0A3C0E0E0A3C0E0E0A3C0E010AF088582418583428008858241858342D242
:20106000AFD083D08222C0D02541C582C0E0E54234FFC583C0E0E541C3958224F310AF08FD
:201080008583428582418008858342858241D2AFC8F0A3E9F0A3EAF0A3EBF0A37921E709C7
:2010A000F0A3D8FAECF0A3EDF0A3EEF0A3EFF0A3D0E0F0A3D0E0F0A3D0E0F0A3E520F0A368
:2010C000E5F0F0A322854283854182E0C0E0A3E0F9A3E0FAA3E0FBA37821E0F608A3DFFA67
:2010E000E0FCA3E0FDA3E0FEA3E0FFA3E0C0E0A3E0C0E0A3E0F5D0A3E0F520A3E0A3F5F060
:2011000010AF088583428582418008858342858241D2AFD082D083D0E0F8D0E032740480B4
:2011200006740280027401C0E0F404120ECFD0E0120DA4227404800474028000CCC0E0EDD5
:20114000C0E0E541C39CCCAD4250011D10AF068C418D4280068C418D42D2AF120DB1D0E0BD
:20116000FDD0E0FC22D083D082E9C0E0E493A3C386F0C5F095F0F908E493A386F0C5F0950E
:20118000F0700BE493A3C3994005E9048002A3E475F002A42582F582E5F03583F583D0E055
:2011A000F9E493A3C0E0E493C0E022D083D082ECC0E0EDC0E0E493A3FCE493A3FDED4C60BF
:2011C0000D1211F7EC24FFFCED34FFFD80EFE493A3FCE493A3FDED4C600D121236EC24FF15
:2011E000FCED34FFFD80EFD0E0FDD0E0FCE493A3C0E0E493C0E022C0E0C3E493960874012E
:20120000939618400FE49366700808740193661870007019A3A3C3E493960874019396188E
:20122000A3A3400DD0E0D0E0D0E00211E7A3A3A3A3A3A3D0E022C0E0C0F088F0E493667058
:20124000080874019366187000A8F0A3A3700BD0F0D0E0D0E0D0E00211E7A3A3D0F0D0E0AF
:2012600022FFFFFF74F6120F7AEAFEEBFF8C218D22EA2434F8E43FF9E8FCE9FDEA243512A7
:20128000160BFAEE243712160BF88521F0A4C885F0238522F0A42523F9EA28F8E439F97A0F
:2012A000257B00120E13EA8C828D83F0FA131313541F1215FF245DF582E439F583E0C0E08A
:2012C00074075AF8D0E0B800028004C313D8FCA2E0EE50082434F582E43F801424361216D9
:2012E0000BF5F0EA84A8F01216002438F582E439F583E0F97F0302102674F7120F7AEAFEE7
:20130000EBFFEA243412160BC0E0EA2435F582E43FF583D0E0F08A828B83A3A3A3A3A3A3ED
:20132000A3C082C0838A828B83A3A3A3A3A3E0F8A3E0F9D083D082E0C398F521A3E099F5E1
:2013400022EA248012160B6401703EEA2481F582E43FF583C082C0838A828B83A3A3A3A3CB
:20136000A3E0240108A3E03400F9D083D082E0687003A3E06970127CB27D0412253AEE240D
:2013800080F582E43FF583E4F0AC21AD22EEFAEFFB121264E9F9121D867F02021026C0825F
:2013A000C083854182854283E0F8A3E0F9C3EA9CEB9D5010C3EC98ED99401BC3EA98EB99E2
:2013C0005014800EC3EA98EB994007C3EC98ED994004790180027900D083D08222EAC39C75
:2013E000FAEB9DFB2274EF120F7A900372E064086005E06407702A9061C8E060249003A065
:20140000E0F4601DE0F875F010A4C8AAF02AF974A228FE740339FF8E82F583A3A3A3E07059
:20142000030214FE906060E0C0E0EE2468F582E43FF583D0E0F07525237526057521007531
:201440002200E5D914F523E5D95403F527602F74036527601DE5236008EE246712160B60C4
:201460001D90051EE06401602C121608601278048010121608602CE523C3940550258063A5
:201480007800E523C398FA95E0FB1224028A218B22EA4B7005122756806412160870048A2C
:2014A000258B26E5236012852582852683F524E5D9F0A31524E52470F6121608604574FC2B
:2014C0002523F5237825121121AC23A927EEFAEFFB1225F47402120EB4E97027AA21AB22CD
:2014E000122A6E793D8E828F83A3A3A3A3E0FA7B00122276EEFAEFFB12255E1226067900C1
:201500000215FA740365276053E523F529752A007829121121AC25AD26AA21AB221225B82F
:201520007402120EB4EE246812160B64807004747F8001E0F5257825121125E527F525786B
:2015400025121125A923AC21AD229003A0E0FA7B0012224C7402120EB40215F585258285A7
:201560002683E0C3940E5011E0F8742328F582E434B1F583E065236069852582852683E062
:20158000C0E0EE24F7F582E43FF583D0E0F0A2AFE433FCC2AF7A0080010AEE246E12160B63
:2015A000F8EAC3985013EA1215FF246AF582E439F583E0640770E28022EE246EF8E43FF90E
:2015C000E0FAEE2AFAE43FFBEA246AF582E43BF5837407F088828983E004F0ECA2E092AF77
:2015E0008013900372E06408600BAC25AD26EEFAEFFB12267E12276279017F0A021026F8A2
:20160000EE28F8E43FF9E822EE2484F582E43FF583E02274F1120F7A74FC120E9EEAFEEBEB
:20162000FF8922752600A2AFE433F521C2AF9004BAE0FA9061D0E0F8748098F895E0F9C300
:20164000EA98E499A2D265D03340030216FD7526010216FDE0601B7823121121AC27A928C8
:20166000EEFAEFFB1225EE7402120EB474042527F52774012527F5D98528D9E52760128531
:201680002382852483F525E0F5D9A31525E52570F675E195EE2463F8E43FF97A007B00A259
:2016A000AFE433F523C2AF88828983E0FCA3E0FDEC4D603A88828983E0FAA3E0FB8C82F525
:2016C00083E0FCA3E0FD88828983ECF0A3EDF08A828B83E4F0A3F088828983E0FCA3E0FDC6
:2016E000EC4D700A88828983A3A3E4F0A3F0E523A2E092AF122A6E9004B9E004F0EE246369
:2017000012160BF8A3E0F9E8496063EE246312160B2402F8A3E034008882F583E5822402A2
:20172000F523E43583F524E0F527A3E0F528EE246212160B640170369061D0E0F8121608C5
:2017400060047C0480027C007480C398FA95E0FBE5272CF8E43400F9E82402F8500109C38A
:20176000EA98EB99A2D265D03340030216549061D0E0F87480C3989004BAF0E52660539064
:2017800004B9E0604D9004BBE0F89004B9E0C398500C74026522703A9004BCE060348E8279
:2017A0008F83A3A3A3A3E08541828542831217E27402120EEAE81217E29004B8E028F074E3
:2017C00002120F04AA41AB42790112229A9004B9E4F0E521A2E092AF7404120EB47F080203
:2017E0001026F0A3E4F09004B9E0F8228543878544C622C0E074EB121066A2AFE433F52100
:20180000C2AF759B00906182E0A2E0502DE591A2E050277591FE74016543701E12196A1230
:201820001981121134121B357404120EB4E96401700579011226FC1213E5906182E0A2E5B4
:20184000505AE591A2E550547591DF900372E064076005E06408702C12196A740165437099
:201860003B121981121134121B357404120EB4E96401700579011226FC7901EEFAEFFB12AD
:2018800016138018E0640D7013900394E004F064287002E4F07A00E0F9122768906182E09F
:2018A000A2E6400302193FE591A2E6400302193F7591BF900372E0640570081226A81226C5
:2018C000B480031226AE754300122708E9900373F079001226FC1224B07A017B0090037186
:2018E000E0F9122A38907803E064427052900522E014F0704AC2AF1218FA00784CD0E0F6F4
:2019000018D0E0F6E59F540770047BFF80027B7FC4C0E0784BE6F52308E65BF524740B7842
:2019200023120E7CD0E02523F8906270E0A2E740F8E8C333906272F0906270E0D2E0F0904F
:201940006181E0A2E35009E5E9A2E3500375E9F7A3E0A2E75009E591A2E7500375917FE5CB
:2019600021A2E092AF7F080210C59003A0E0F875F010A4C8AAF02AF974A228FE740339FF91
:20198000221226C08E828F83E0F8A3E0C82416F582E438F58322C0E0C0D0C082C0839061DB
:2019A00083E0A2E05009E5BFA2E0500375BFFEE0A2E15009E5BFA2E1500375BFFDE0A2E273
:2019C0005009E5BFA2E2500375BFFBE0A2E35009E5BFA2E3500375BFF7E0A2E45009E5BF3C
:2019E000A2E4500375BFEFE0A2E55009E5BFA2E5500375BFDFE0A2E65009E5BFA2E650035A
:201A000075BFBFD083D082D0D0D0E032C0E074F2121066E5A7A2E6500FE5A1A2E6500953F1
:201A2000A7BF75A1BF121A60E5A7A2E5500CE5A1A2E5500653A7DF75A1DFE5A7A2E15009D7
:201A4000E5A1A2E1500375A1FDE5A7A2E2500CE5A1A2E2500653A7FB75A1FB7F010210C5EE
:201A600074F7120F7A754301900372E06406701512262A8A828B83A3A3A3A3A3A3E0FAA308
:201A8000E0FB122696A2AFE433FED2AF900378E0640170187A207B00900371E0F9122AE0D0
:201AA0007A207B00900371E0F9122A3E906182E0D2E6F090051FE0602185C64480169003F2
:201AC00077E064017008E5C654F84405F5C653BEFC1217EC7401654360E4EEA2E092AF7F24
:201AE000020210268E458F4685824A858349854182854283E0CEA3E0CF854A82854983EB43
:201B0000C9EAC8EDCBECCA75F010C3E833C8E933C9EA33CAEB33CBC3EA9EF548EB9FF547BE
:201B2000B35004AB47AA48EC33CCED33CDD5F0DAAE45AF462274F1120F7A8A218B228C2332
:201B40008D2490B1CD7821120D24740F120EEA7825120D4A90B1CD7825120D247821792532
:201B6000120B4590B1AD501078217925120CE47821120B654014800E78257921120CE478CE
:201B800025120B6550047901800279007F0802102674ED120F7A8A218B228C238D2490B121
:201BA000CD7821120D247413120EEA7825120D4A90B1CD7825120D2478257921120B45401E
:201BC0001178217925120CE4AA21AB22AC23AD248022752900752A00752B00752C017829C1
:201BE0007925120CE478297921120CABAA29AB2AAC2BAD2C7F0C02102690B1CD7821120D60
:201C00004A8A828B837821120D377F0402102674F5120F7A8C828D837821120D4A8A828BFB
:201C2000837821120D10121C67C3E09CF0A3E09D121C59402290B1DD7821120D4A8A828BD5
:201C4000837821120CD18A828B83A3A3A3A3E02420F0A3E0344EF080A0F088828983C3E001
:201C60009420A3E0944E22EA2404F8E43BF98C828D83A3A3A3A3E0FCA3E0FD8882898322C9
:201C800074F5120F7A9004D5E0FAA3E0FBE929F8E433F974E328F58274B039F583E02AF59B
:201CA00021A3E03BF522782112112190B1D9120D68121AE47402120EB48A218B228C238DC2
:201CC0002474107821120C73AA21AB227F0402102674F1120F7A8A258B268C278D28741192
:201CE000120EEA1211387411120EEAE02401F521A3E03400F522E4F523F5247825792112A9
:201D00000B8490B1B97821120D4A78257921120B84AA25AB26AC27AD28121AE47402120E72
:201D2000B4EA4B60047A0180027A00EC2AFCE43DFD7413120EEAE0F8A3E0F9E8FEE9FFEC10
:201D4000F8EDF97A717B02120E1388218922E4F523F5248E828F837821120D59ECF8EDF9A4
:201D60007A717B02120E138A218B2274057821120E8B8E828F83A3A3A3A3E521F0A3E52265
:201D8000F07F08021026C082C083E9906000F0D083D08222C0E0C0D0E8C0E0A8A8D2AFC234
:201DA000C7E8A2E792AFD0E0F8D0D0D0E032C2AF02000022120B1B49FF06120B1B94FF0694
:201DC000120B1BF6FF05120B1BFBFF05120B1B75C907120B1B88C907120B1BB7C907120BB1
:201DE0001BEFC907120B1B38CA07120B1B7BCA07120B1BC1CA07120B1BF4CA07120B1B1B2A
:201E0000CB07120B1B4ACB07120B1B81CB07120B1B9ACB07120B1BE9CB07120B1B02CC076D
:201E2000120B1B4ACC07120B1B908907120B1B8E8A07120B1BF48A07120B1B178B07120BE3
:201E40001B198B07120B1B578B07120B1BC88B07120B1B888C07120B1BAA8C07120B1B46C3
:201E60008D07120B1B7D8D07120B1BC28D07120B1BCF8D07120B1B3F8E07120B1B898E07FA
:201E8000120B1B8C8E07120B1BD28E07120B1BD58E07120B1BDF8E07120B1B528F07120BBF
:201EA0001B7A8F07120B1BAD8F07120B1BD18F07120B1BCE9007120B1B729107120B1BDEE8
:201EC0009107120B1B1A9207120B1BC8BD07120B1BF0BD07120B1B1DBE07120B1B55BE0763
:201EE000120B1BBBBE07120B1B05BF07120B1B69BF07120B1BB1BF07120B1BEEBF07120B08
:201F00001B1CC007120B1BB1C007120B1BBBC007120B1BC8C007120B1BFBC007120B1B0759
:201F2000C107120B1B1FC107120B1B29C107120B1BD7E407120B1BEFE407120B1B06E5075B
:201F4000120B1B0B9E06120B1BAE9E06120B1BE99F06120B1B92A006120B1B1AA206120BC3
:201F60001B02A306120B1BF9A306120B1B2FA406120B1BD1A406120B1BF7A406120B1BC329
:201F8000A606120B1B09A706120B1B2BA706120B1B97A706120B1B62A806120B1B1CA906D0
:201FA000120B1B28AB06120B1BC9A007120B1BA5A107120B1B4FA207120B1B90A207120B25
:201FC0001B17A307120B1B92A307120B1B65A407120B1B8EA407120B1B82A507120B1BBF9B
:201FE000A507120B1BA7A607120B1BD8A607120B1BFEA607120B1B5AE007120B1B85E007EC
:20200000120B1B95E107120B1B9AC507120B1BB0C507120B1BCEC507120B1BDEC607120BE7
:202020001BE8C607120B1B12C807120B1BFFC807120B1B6BC907120B1BA9F906120B1BD650
:20204000FA06120B1B0DFB06120B1B64FB06120B1B5CFD06120B1B14EA05120B1B9BEA0509
:20206000120B1BEFEB05120B1BFBEB05120B1B73EC05120B1B51ED05120B1B4DEE05120B7A
:202080001B19EF05120B1B73F005120B1B89F005120B1BB0F005120B1B26F105120B1B4C0D
:2020A000F105120B1BF9F305120B1BFEF305120B1B22F605120B1B69F605120B1BCFF605E0
:2020C000120B1B15F705120B1BE5F705120B1B9AF805120B1BF6F805120B1BF9F805120B59
:2020E0001B45F905120B1B81F905120B1BC0F905120B1BE2F905120B1B2DFA05120B1BE73A
:20210000FA05120B1BF5FA05120B1B45FB05120B1B64FB05120B1BAEFB05120B1BF1FC056B
:20212000120B1B89FD05120B1BB3FD05120B1B1EFE05120B1B62FE05120B1BE5FE05120BBC
:202140001B94FF05120B1B28B205120B1BC2B205120B1B1EB305120B1BDCB305120B1BFFF3
:20216000B405120B1B2FB505120B1B5EB505120B1B14B705120B1B67B905120B1BC6BB0512
:20218000120B1BAFBC05120B1B9FBD05120B1B72BF05120B1B6AC205120B1B87C305120B83
:2021A0001B81C505120B1B90C605120B1B1FC805120B1B0BC905120B1B5AC905120B1BCA8F
:2021C000C905120B1BE6C905120B1B37CA05120B1BD7CE05120B1BEDCF05120B1BA5D0057A
:2021E000120B1BB7C107120B1BC1C107120B1B09C207120B1B1DC207120B1BAEC207120B73
:202200001BE5C207120B1B20C307120B1B49C307120B1B9DC307120B1BB2C307120B1BD429
:20222000C307120B1BE9C307120B1B23C407120B1B4FC407120B1BDAC407120B1B1DC50773
:20224000120B1B47C507120B1B72C507120B1BC4E107120B1BE0E506120B1BB9E606120BDC
:202260001B28E706120B1B63E706120B1B9EE806120B1B50E906120B1BFDEB06120B1BA865
:20228000EC06120B1B89ED06120B1BFFEE06120B1B67EF06120B1B59B107120B1BC4B207DB
:2022A000120B1B02B507120B1B4DD707120B1BFAD707120B1BF3D807120B1B30D907120B46
:2022C0001B46DB07120B1BA5DB07120B1B42DC07120B1B75DC07120B1BA3DC07120B1BDE3B
:2022E000DC07120B1BFEDC07120B1BB0AC07120B1B39AD07120B1BF8AD07120B1B06AF074A
:20230000120B1B26B107120B1B8BCF06120B1BA0CF06120B1B6BD006120B1B38D106120B85
:202320001BA5D106120B1BE0D106120B1B81D206120B1B8AD306120B1B62D406120B1BE55A
:20234000D406120B1B6ED506120B1BD7D506120B1B61D606120B1BAED606120B1B1CD706D0
:20236000120B1BBED706120B1B6CD806120B1B8CD806120B1BD0D806120B1B18D906120B34
:202380001B34D906120B1B53D906120B1BCDD906120B1BDBD906120B1B6EDA06120B1BD839
:2023A000DA06120B1B9FB507120B1B1BB607120B1B59B607120B1B3DB707120B1BACB70777
:2023C000120B1BF0B707120B1B33B807120B1B60B807120B1B7EB807120B1BB6B807120B57
:2023E0001BF3B807120B1B14B907120B1B8AB907120B1B008006120B1B948106120B1BD267
:202400008306120B1B1A8406120B1B458406120B1B3B8506120B1B6B8506120B1BC285069F
:20242000120B1BEF8506120B1B388606120B1B748606120B1BB98606120B1B068706120B51
:202440001B6E8706120B1BA08906120B1B678B06120B1BA28B06120B1B208D06120B1B64DD
:202460008D06120B1BD78D06120B1B978E06120B1BB68F06120B1BC78F06120B1B0CF00673
:20248000120B1B7DF006120B1B46F606120B1B40F706120B1B02F906120B1B80F906120B95
:2024A0001B0ED105120B1B95D105120B1BC2D105120B1B04D205120B1B00D305120B1B450A
:2024C000D305120B1BC1D405120B1B49D505120B1BBCD505120B1B79D605120B1B35D70554
:2024E000120B1BB5D705120B1B83D805120B1BA9D805120B1B1BD905120B1BBFD905120B9A
:202500001BE4D905120B1B50DA05120B1BB6DA05120B1BECDA05120B1B90DB05120B1B299E
:20252000DC05120B1BACDC05120B1B18DD05120B1B64DD05120B1BCADD05120B1BFBDD054C
:20254000120B1BAFDE05120B1BC5DF05120B1B0EE005120B1B2BE005120B1B0BE605120B12
:202560001B53E605120B1B40E705120B1B65E705120B1B7AE705120B1BE2E705120B1B2217
:20258000E805120B1B35E905120B1BE2E905120B1B008007120B1B4B8007120B1B5780070C
:2025A000120B1B228107120B1B388107120B1B748107120B1BAD8107120B1BE58107120BDE
:2025C0001B3B8207120B1B518207120B1B8D8207120B1BA08207120B1BC78207120B1BFBA0
:2025E0008207120B1BCF8307120B1B5E8507120B1B5A8607120B1B638707120B1BF73F00E9
:20260000120B1BCC8F06120B1B079006120B1B0B9306120B1B5D9406120B1B229506120B2F
:202620001B1C9806120B1B069906120B1B519906120B1B6B9906120B1BA89906120B1BB314
:202640009906120B1BF29906120B1BFB9906120B1BBC9A06120B1B799B06120B1BDC9B06A5
:20266000120B1B409C06120B1BC19C06120B1B482B00120B1BA42E00120B1BAA2E00120BC3
:202680001BEB3500120B1BC33A00120B1BB2CC07120B1B7CCD07120B1BC0CD07120B1BFA87
:2026A000CD07120B1B8CCE07120B1BFBCE07120B1B04CF07120B1B10CF07120B1B24CF0743
:2026C000120B1B48CF07120B1B78CF07120B1BA7CF07120B1BB4CF07120B1BCECF07120BAE
:2026E0001B01D007120B1B3ED007120B1BA4D007120B1BB9D007120B1BC4D007120B1BD143
:20270000D007120B1BE8D007120B1BF6D007120B1B01D107120B1B0DD107120B1B1CD1078C
:20272000120B1B27D107120B1B47D107120B1B57D107120B1B6DD107120B1B8BD107120B6F
:202740001B96D107120B1BABD107120B1BBFD107120B1B20D207120B1B26D207120B1B2C9A
:20276000D207120B1B32D207120B1B44D207120B1B3AAB06120B1BC8AB06120B1BA4AC0686
:20278000120B1BD8AC06120B1BEBAC06120B1B65AD06120B1BEDAE06120B1B14AF06120B5B
:2027A0001B9BAF06120B1BDAAF06120B1BEBAF06120B1B60B006120B1B7FB006120B1B9785
:2027C000B006120B1BDBB106120B1BE5B306120B1B17B606120B1B1DB706120B1B60B70631
:2027E000120B1BFAC306120B1B04C406120B1B26C406120B1B32C406120B1B7FC506120BDD
:202800001BACC506120B1BCDC606120B1B0FC706120B1B55C806120B1BB6C806120B1BEB07
:20282000C806120B1B24C906120B1BCFCC06120B1BE6CC06120B1B64CD06120B1B72CD06EA
:20284000120B1BBBCD06120B1BC9CD06120B1B4ACE06120B1BB9CE06120B1B05CF06120B94
:202860001BFBDA06120B1B1DDB06120B1BF9DC06120B1B71E006120B1BBBE106120B1B9DDB
:20288000E206120B1B0CDD07120B1B31DD07120B1BA2DD07120B1B409207120B1B499207F2
:2028A000120B1B529207120B1B769307120B1B679507120B1B959507120B1BC09507120B58
:2028C0001BEE9507120B1B199607120B1B579607120B1B839607120B1BC09607120B1BEB29
:2028E0009607120B1B379707120B1B8E9707120B1BCE9707120B1B1D9807120B1B48980713
:20290000120B1B8E9807120B1BBC9807120B1BE79807120B1B0A9907120B1B16E707120BC6
:202920001B20E707120B1B30E707120B1BBDDE07120B1BE4DE07120B1B4BE607120B1B3263
:20294000D507120B1B82D507120B1BF1D507120B1B95D607120B1BB4D607120B1B02D70775
:20296000120B1B58E707120B1B63E707120B1B6FE707120B1B96E507120B1BA6E507120B1A
:202980001BAFE507120B1BF3E507120B1BD8E207120B1B5BE307120B1BC1E307120B1B9643
:2029A0009907120B1B159A07120B1B2C9A07120B1BF49A07120B1BCE9B07120B1B1B9D0718
:2029C000120B1BDB9D07120B1B3F9F07120B1BC59F07120B1BDBE607120B1BEDE607120B51
:2029E0001B6EA707120B1B78A707120B1BB8A707120B1B01A807120B1B39A807120B1B8FD5
:202A0000A807120B1BACA807120B1BB5A807120B1BFAA807120B1B23A907120B1B38A907CC
:202A2000120B1BA8A907120B1B35AA07120B1B89AA07120B1BACAA07120B1B2BAB07120BAF
:202A40001B66AB07120B1B9BAB07120B1BADAB07120B1BC9AB07120B1BD2AB07120B1B84FC
:202A6000AC07120B1BF6E507120B1B553E00120B1BA63E00120B1B2F3F00120B1B993F00EC
:202A8000120B1B77D207120B1B9FD207120B1B94D307120B1BB9D307120B1B48D407120B15
:202AA0001BDAE307120B1B4AD907120B1B80D907120B1BB3D907120B1B0CDB07120B1BD143
:202AC000B907120B1BE7B907120B1B8BBA07120B1BCABA07120B1BE7BA07120B1B18BB071E
:202AE000120B1B65BB07120B1B98BB07120B1BD3BB07120B1BADB706120B1B64BB06120BFC
:202B00001B8ABB06120B1BA9BB06120B1B06BC06120B1B83BD06120B1B56BE06120B1B188D
:202B2000C206120B1B50C206120B1B38C306120B1B95E607120B1BD4FF06120B1B3AE70719
:202B4000FFFFFFFFFFFFFFFF74F6120F0E907803E064427052900522E014F0704AC2AF12B9
:202B60002B6200784CD0E0F618D0E0F6E59F540770047BFF80027B7FC4C0E0784BE6F52134
:202B800008E65BF522740B7821120E7CD0E02521F8906270E0A2E740F8E8C333906272F0FE
:202BA000906270E0D2E0F09003A0E0F47003022E5D12355AEE123A63E06401700AEE24F625
:202BC000123A10F9022DC2123A0D64027002E4F0EE24031235C7601CEE2403F582EF34015B
:202BE000F5831234C4EE2402F582EF3401F583E0F9122A388E828F83A3A3A3A3A3A3A31236
:202C00002E97123495906054E0900379F0906055E090037AF0906056E090037BF090605767
:202C2000E090037CF0906058E090037DF0906059E090037EF090605AE090037FF090605BEC
:202C4000E0900380F090605CE0FC900381F090605DE0FB900382F090605EE0FD900383F007
:202C600090605FE0FA900384F090037FE02CF8E43400F9E82DF8E439F9E82BF8E439F9E8D1
:202C80002AFAE439FBEE24F8123A102AF0A3E03BF0EE24FAF582E43F122E8CEE24FC123503
:202CA000BC6052906000E0FC25E0FCE433FDE82CF582E93DF583E02AF0A3E03BF090600004
:202CC000E0FA900381E0FCEA2AFAE433FBE82AFAE93BFBEA244AF582E43B122E8C90600035
:202CE000E0FA25E0FAE433FBE82AF8E93BF9E82494122E79F090037FE0700E900382E070A4
:202D000008A3E07004A3E060518E828F83A3A3A3A3A31235D4122E6C7003123E3390037A65
:202D2000E0601CEE241C1239FF123DDAE07010123A0D700BEE2480123A107003123E33EE90
:202D40002483123A107003022DD86402707E900382E07078122E62E4807D12347AF09003FF
:202D600081E0600A122E6C70271235328021EE24FE1235BC601A906000E0F825E0F8E433C2
:202D8000F9EEF582EF34011234AB24DE122E79F012346C122E97E0687003A3E06960030280
:202DA0002D1DEE240F123A1060128E828F83A3A3A3A3A3E064057002A3E0600479088002E4
:202DC000793EEEFAEFFB122564022E5D900382E07006122E627402F0906062E060248E8209
:202DE0008F83123A9AE82406FCE439FDE82402FAE439FB1226BA8E828F83123524E4F0A39D
:202E0000800612347A12349BF0906060E0C0E0EE2468F582E43FF583D0E0F09061C8E060A6
:202E2000061213E5E970F48E828F83A3A3A3E0602C9061C8E070069060607480F0EEFAEFA4
:202E4000FB122684E9640160147902EEFAEFFB121613122678E9640160031226067F02024F
:202E60000FE0EE2483F582E43FF58322EE240F123DBE1234A0E0640122F582E439122E81CA
:202E800022F583E02401F0A3E0340022F583E02CF0A3E03400F022123A9E8E828F83A3A33B
:202EA000A3A3A32253BFEF020B1874F0120F0E9003A012355A9061D0E0700CEE2463F58271
:202EC000E43F1235CC600512347A8020EE2469123A107019123A0D7014EE2480123A10705C
:202EE0000CEE241C123A5D7004123532F08E828F83A3A3A3A3A31234BC1234651234AB24FF
:202F00000108500109EE2407F521E43FF52285218212349312346CC3E098A3E09950208EDD
:202F2000828F83A3A3A3A3A3A3A3C082C08312346C123A9AD083D082123E4C501B8021120C
:202F4000346CC082C0838E828F83A3A3123A95D083D082123E3850089004BEE06401700374
:202F60001235A4EE2474123A5D704E12345A121138123580120EB4E9603F8E828F83A3A3F3
:202F8000A3A3A3A3A3C082C083123506D083D082E0687003A3E069700302303FEE24751267
:202FA0003A10687003A3E069700302303FEE2475F523E43F8523828051EE2480123A5D70B4
:202FC0007EEE2481F582E43FF583121138123580120EB4E960698E828F83A3A3A3A3A3A332
:202FE000A3C082C083123506D083D082E0687003A3E069604AEE2481123A10687003A3E019
:2030000069603CEE2481F582E43FF583E024FFFAA3E034FFFB852182852283EAF0A3EBF0AE
:203020008E828F83A3A3A3A3A3E0FCA3E0FD1213DDEA24FFF8EB34FFF9EE241D12348FEED3
:203040002483123A1060031235A4EE2474123A5D60030231A612345AC082C083123506D072
:2030600083D082E0687003A3E06960030231A6EE2475F523E43FF524852382F583123A9A35
:20308000852182852283123495EE2477FCE43FFDEEFAEFFB122570EE247C1234B6123547CD
:2030A000E8F0A3E912349B123A8A240F123A378521828522831235D48E828F83A3A3A3A324
:2030C000A3E0FCA3E0FD8523828524831234C41213DD8A218B221234441234C4E4F523F5B2
:2030E000248A258B26F527F52878217925120B84EE247812348578217925120CABEE247A5A
:20310000123A106A7003A3E06B70181234F7E0687003A3E069700C1234DBE0687003A3E041
:20312000696043EE247EF582E43FF583123AA4120E7C7825121121EE247CF582E43FF583D4
:20314000121138EE247A123A10FCA3E0C313FDEC13FC8E828F83A3A3A3A3E0FA7B001222A8
:20316000947404120EB4EE2477123A10C0E0EE242BF582E43FF583D0E0F0EE247A1234B673
:20318000242E12348F1234DB1234951234F7123495EEFAEFFB122576EE2474F582E43FF560
:2031A000837402F0800312356E12344E120B307014EE241F123A10F8EE241D123A106870A1
:2031C00002A3E06032EE2412F525E43FF5267825121121EE2410F582E43FF58312113812DA
:2031E0003464F583121138AA21AB22AC23AD24121CD17406120EB412344E120D59EE241DA4
:20320000123A10C0E0EE241FF582E43FF583D0E0F0EE2412FCE43FFD1234CA906062E060ED
:20322000077C647DB11234CA8E828F83123A9A8882F583A3A3E82408FCE439FD7406120DD6
:20324000B18E828F83E02402F8A3E03400F9E8FAE9FBEE241D123485E4F527F52890B1D1FE
:203260007825120CBE78257921120B848A828B837825120CD190B1CD7825120D4A8A828BAC
:20328000837825120D379004B7E0640160030233C079011226FC1234C0EA240EF582E43B6A
:2032A000F58374FF123DECEA2412F8E43BF9E8FAE9FBEE2412F582E43FF5837821120D4ABA
:2032C000E52175F0E2A4C521A8F075F004A428F875F0E2E522A428F5228A828983E02521E3
:2032E000F0A3E03522F0EE2416123A10F521A3E0F52274047821120E7CE5212401F8E435F7
:2033000022F98A828B83E028F0A3E039F0906062E08E828F83700302341C12351DF0A3E0E4
:203320003401F0EE240F123A10602CEE242B123A10F875F071A4C8AAF075F002A42AF98E36
:20334000828F83E0FAA3E0CA2412F582E43AF583E028F0A3E039F01234C08A82F583A3A3FB
:20336000C082C08312356ED083D0827821120CBE90B1E57821120CBE90B1CD7821120D2474
:20338000EA2416F582E43BF5837821120D59EA2414F582E43BF5837410F08E828F83E0F84C
:2033A000A3E0C8241AF582E438F58374ECF0A37424F0EEFAEFFB1212F979007F08020FE01E
:2033C00090B1E97821120B6550030232961234641235CC6003023296782112111DEEFAEFF1
:2033E000FB12257C7404120EB4E964016003023296EE240F123A1060128E828F83A3A3A35E
:20340000A3A3E064057002A3E0600479088002793EEEFAEFFB1225647901809F12351DF8A8
:20342000A3E034FFF97A717B02120E1388218922123444123A9AC3E52198E5229950030228
:20344000332380C7EE242EF582E43FF58322EE2418F582E43FF583782122EE2475F582E482
:203460003FF58322EE241DF582E43F2212347022EE240BF582E43FF5832212347E22123532
:2034800050E4F0A322123A14F525A3E0F52622F582E43FF583E8F0A3E9F0221234A0E42295
:2034A000F0EE241CF582E43FF58322F583E028F8A3E039F9E822F582E43FF5831234F02219
:2034C0008E828F83E0FAA3E0FB228E828F83E02402FAA3E03400FB121C0F22EE247C123449
:2034E000EA2430F582E43FF58322F582E43FF583E0F8A3E0F9EE22EE247E1234EA2432F5D9
:2035000082E43FF5832212350A228E828F83A3A3A3A3A3E02401F8A3E03400F9221235246E
:20352000E0241022E0F8A3E0C82412F582E438F5832212353622EE123547E0F8A3E0F9124E
:203540003550E8F0A3E9222420F582E43FF58322EE241DF582E43FF58322E0F875F010A494
:20356000C8AAF02AF974A228FE740339FF22EE242E123A14F521A3E0F522E4F523F5242232
:203580008E828F83A3A3A3A3A3A3A3E0FCA3E0FD8E828F83A3A3A3A3A3E0FAA3E0FB12136A
:2035A0009E74022212347EF012350A8E828F83A3A3A3A3A3A3A3E8F0A3E9F022F582E43F29
:2035C000122E81F0EE2400F582EF3401F583123A9EE849221234F0240D123A1428F8A3E06E
:2035E00039F9123470E8F0A3E9F02274EC120F0EEAFEEBFF8C828D83E0F8A3858223858341
:2036000024603B14700302373D1470030239B614700302377624FD70030238901470030259
:2036200039E51470030238BC24FE70030238961470030238B61470030239510239D5EA24E2
:2036400077F529E43FF52AE0852982852A83123A7BEA2478F527E43FF5287902AC23AD248D
:20366000AA27FB1239F4247AF525E43FF5267902AC23AD24AA251239F07902AC23AD24EE1B
:20368000247C123A08247EF521E43FF52279021239EA852982852A83E0C333F085278285B9
:2036A0002883123AB0852782852883123495852582852683123AB08525828526831234959F
:2036C000852182852283123AA4120E8B852182852283E525F0A3E526F0EE2475123A41C03F
:2036E00082C083123A91D083D082123ABA5070EE247E123571EE247C123A102401F525A3A9
:20370000E03400F526E4F527F528EE247AF582E43FF583123A9AE828F8E9338829F52AE401
:20372000F52BF52C78257929120B8478217925120B454004793B8029EE2474802E7905ACD0
:2037400023AD247AB27B041239F42481123A41C082C083123A91D083D082123ABA4009798A
:2037600028EEFAEFFB0239D0EE24801239FF123A8A24830239A0EA24E3123A107034752189
:20378000007886790388828983E0C0E0AA21EE2AFAE43FFBEA24E4F582E43BF583D0E0F07E
:2037A000052188828983A3A882A983E521C3940840D3EE24E4123A10A2E0EE401024DFF552
:2037C00082E43FF583741AF0790D0238892462123DBE123A6C123DCE7401F07908AC23AD3B
:2037E00024EE249D123A1C24A5123A082495F521E43FF52279081239EA7908AA21AB221287
:20380000258EEE2489F521E43FF5227904AC23AD24AA21FB1225887904AA21AB2212258E8E
:20382000EE248DFAE43FFB1225A0EE2485FAE43FFB1225A6900374E04480F0EE24DE123A97
:203840005D700C7904EEFAEFFB1225340239E5EE246A123A10640C702EE0F521EE2469124C
:203860003A10F5227904EEFAEFFB122534740165227010EE2473F582E43FF583E521F079AB
:20388000FD8006A92180027904EEFAEFFB0239E2EA24E00239A0EA24621239F9246712399A
:2038A000F924D41239F924DE123A37EA24D5123DC9790B0239E2EA24E10239A0752100A8AA
:2038C00023A9247A5C7BB17C867D038A828B83E0F4F52288828983E05522F0E521701A85FD
:2038E0002382852483E0F522900386E05522C0E0EE24E4F582E43F801D8C828D83E0C0E025
:20390000E521F525EE2525F525E43FF526E52524E4F582E43526F583D0E0F005218C828D56
:2039200083A3AC82AD838A828B83A3AA82AB8388828983A3A882A983E521C39408408CEEBE
:203940002467123A10604AEEFAEFFB1225100239E5EA24EC123A5D607C852382852483E0E8
:20396000C0E0EA24EFF582E43FF583D0E0123A7B7902AC23AD24EA24F0123A1C24F2FAE4AC
:203980003FFB122588EE24EC1239FF123A6CE07014EE24F6F582E43FF583743DF0EE24F508
:2039A000123A378040EE24EE123A107038EEFAEFFB122516802FEA24F6F8E43FF9E08882F0
:2039C0008983F0EA123A637401F088828983E0F91225648010EA24F7F582E43FF583E8F0E4
:2039E00079071225287F0C020FE0AC23AD24AA21123A2E22123A2FEE22123DBEF0EA22F5DC
:203A000082E43FF583740122123A27EE22EE2474123A1422F582E43FF583E022123A277967
:203A200002AC23AD24EE22FAE43F123A2E22FB1225888A238B2422F582E43FF5837401F06C
:203A400022F521E43FF5227902AC23AD24AA21FB12258885218285228322EE2469123A1405
:203A600064012224F5F582E43FF58322123A7022F0EE2467F582E43FF58322F08523828558
:203A80002483A385822385832422F012347EF0EE228E828F83A3A3A3A3A3123A9E22E0F87B
:203AA000A3E0F922E0F525A3E0F5267404782522123A9EE828F8E933F922123E4194FFE963
:203AC000947F2274F6120F0EEAFEEBFF8016EEFAEFFB122522E964016003023BFBEEFAEFC5
:203AE000FB12252EEE246E123A107003023BFBEE246A123A1024FE603C24FE605D147003E3
:203B0000023BAA147003023C361460C224FE7003023D0624FE7003023C9F147003023D2754
:203B2000147003023CCF24117003023BFB147003023D9280AF123A5A701790037BE07003FC
:203B4000023CEC7916EEFAEFFB1225647901023BFDEEFAEFFB12251C804A123A5A703E90B8
:203B6000037CE07003023CEC79FCEEFAEFFB122534EE24A5F521E43FF5227821121121EEC5
:203B8000249DFCE43FFD8E828F83A3A3A3A3E0FA7B001222827402120EB4023AE4EEFAEF4E
:203BA000FB1224F2123DDFE98050123A5A702F90037CE06012EE2484123A37EE24D6123D05
:203BC000E9EE24DA123DE9EE24E0123A5D6003023CEC7906EEFAEFFB122534023AE4EE24C2
:203BE000D4123A5D701AEEFAEFFB1224F8E964017009123DB7123DDA7401F07900022E5D5D
:203C0000EE24D5123A1060F3EE24B4F521E43FF5227821121121EE248DFCE43FFDEE24C48A
:203C2000FAE43FFB1225AC7402120EB4EE24D41239FFF0023AE4123A5A705A90037CE07030
:203C400003023CEC123E33EEFAEFFB12252E123DF4EE24DE123A5D701379008E828F83A3E0
:203C6000A3A3A3E0FA7B0012228E80137C0179008E828F83A3A3A3A3E0FA7B00122288EE0E
:203C800024DEF582E43FF583123DCEE4F0123DC6123DB7809DEEFAEFFB1224FE023BA412EE
:203CA0003A5A700DEE24E1123A5D704079FC023BD4EEFAEFFB122504E964016003023BFB2B
:203CC000123DC6EE2484123DC9EE2469023C2F123A5A702890037CE06009EE2484123DC9F5
:203CE000123DF490037BE06003023ADD123E061235CE6003023BFB7922023B45EEFAEFFB22
:203D000012250A023BA4123A5A701290037CE060DBEE24E3123A37123E33023ADDEEFAEF44
:203D2000FB122510023BA4123A5A7056EE24EC123A5D7027EE24ED123A5D6003023ADD1280
:203D40003DA3121138123DAD121138123E1F790012227C7404120EB4023ADD123E06123537
:203D6000CE6003023BFB123DA3121138123DAD121138123E1F792212227C7404120EB4022E
:203D80003CF7EE24EE123A37EEFAEFFB122516023BA4EE2473123A10F9EEFAEFFB12253456
:203DA000023CC9EE24F2F582E43FF58322EE24F0F582E43FF58322EE24E0123DBE22F582F6
:203DC000E43FF583E422EE24E1123DBEF022E4F0EE24E2F582E43FF58322F0123DDF22EE06
:203DE0002469F582E43FF58322123DBEF0A3F0A3F0A3F022EE2462F582E43FF5837401121D
:203E00003A707401F022EE2471F8E43FF98882F583E024FFF0A3E034FFF08882898322EE99
:203E200024EF123A14FC8E828F83A3A3A3A3E0FA7B0022123536F022123E4194ABE9941002
:203E400022E0C398F8A3E099F9C3E822123E4194AAE994102274F4120F0E8A218B22A2AF6D
:203E6000E433FEC2AFEA2404FAE43522FB122AB0EA4B60288A828B83A3A3E521F0A3E522D1
:203E8000F0123FDE8A828B83E8F0A3E9F0900775EAF0A3EBF0EA2404FA50010BEEA2E092C7
:203EA000AF7F04020FE074F6120F0EEAF8EBF9A2AFE433FEC2AF7C007D00900775E0FAA327
:203EC000E0FB88218922800DEAFCEBFD8A828B83E0FAA3E0FBEA4B604CEA2404F8E43BF9E3
:203EE000C3E52198E5229940DF8A828B83A3A3123FE1EA28F582EB39F583A3A3A3A3C3E5B7
:203F0000829521E583952240BF8A828B83123FE1EC4D700590077580048C828D83E8F0A328
:203F2000E9F0122AB6EEA2E092AF7F02020FE074F4120F0E123F836043C3E49521FAE495B5
:203F400022FBEE2AFAEF3BFB8A21F522E82404FCE439FDC3EA9CEB9D402288828983A3A396
:203F6000E0FCA3E0FDE82CF582E93DF583A3A3A3A3C3E5829521E58395225004EEFAEFFB0B
:203F8000023EA1EAFEEBFF8C218D22122A7A8A238B24A823A924EA4922C082C083123FDE5F
:203FA000EAFCEBFD800788828983123FE1E8496022E82404FAE439FBC3EC9AED9B40E7880F
:203FC000828983123FE7A3A3A3A3C3E5829CE5839D40D3E8FAE9FBD083D082020B1890078A
:203FE00075E0F8A3E0F922A3A3E0FAA3E0FBE82AF582E93BF58322020B18FFFFFFFFFFFFD2
:2040000078A3FFFF0100009442424242FFFFFFFFFFFFFFFFFFFFFFFFFFFFFFFFFFFFFFFFFE
:20402000000102030405060708090A0BFFFFFFFF0243A2025D6EFFFFFFFFFFFFFFFFFFFF98
:20404000FFFFFFFFFFFFFFFFFFFFFFFFFFFFFFFFFFFFFFFFFFFFFFFFFFFFFF02645EFFFFB9
:20406000FFFFFF0255DFFFFFFFFFFFFFFFFFFFFFFFFFFFFFFFFFFFFFFFFFFFFFFFFFFFFF27
:20408000FFFFFF025DE4FFFFFFFFFFFFFFFFFFFFFFFFFFFFFFFFFFFFFFFFFF0254F0FFFFB1
:2040A000FFFFFFFFFFFFFFFFFFFFFF025554FFFFFFFFFF025BCB01026C870100005D870260
:2040C00070870100008B871042850300008602027487030000810202728701000034860239
:2040E0007087010000868710528502000000000274870300008302027287010000108600BB
:20410000C0010000000F81DD8177810784A4809D8200800486688335843F863E82E882008D
:2041200000030000010000000000000000140030FF0000B4000028002800283075A000A027
:2041400000A000A00000080008E001F00010001000100010001000100050005000500010DE
:20416000001000D0070000000000000F0001000500307507001000010081FF00000000FF07
:20418000FFFFCF67ED67D5670B68FF02020208025000A0000000E803026C87010000518730
:2041A000027087010000561B027687010000A003027087010000571B027887010000B603CA
:2041C000027087010000581B027A87010000B803027087010000591B027C87080000B9037C
:2041E0000270870100005A1B027E870100005B1BFF0100FF20026C870100005787027087E6
:20420000010000BF1B0280870000000000027487030000E7031700596E596E596E596E5944
:204220006E596E596E596E596E596E596E596E596EE170F370DB7002026C87010000548706
:204240000270870100008A87026687010000250802708701000089870284870100001C867C
:20426000027087010000888702828701000092840270870100008787026287010000318569
:20428000027087010000021C0260870100006E86FFFF000130750302010600000000000078
:2042A00000000000000000000000000000000000000000000000FFFF0600800CE803010082
:2042C000B0423BAAB83F0000003F8C906339AA0CA33A00941E3C8042633DCFFE753E15722F
:2042E000313F0000803FF304353F8096184B000080BF2292D43EDD9B2A3F04000040FFFF83
:204300007F7FFFFF7FFF010080341872313FE5C754F84404F5C779012200000080FB12430C
:204320000EB9000302438CE479447815B800028004F709D8FCE479597802B800028004F73D
:2043400009D8FCE4900280780379198002F0A3D8FCD9FA78439040B67A01BA00028007E4DE
:2043600093A3F608DAF97A827B1A9040B7785879038015E493A3AD82AE838A828B83F0A316
:20438000AA82AB838D828E83D8E9D9E775820775838274051243B475821975834374001257
:2043A00043B475D00075815F754180754202759F0002431EC09FF59FE473D09F22D083D008
:2043C00082C09FE493C0E0740193C0E0740293F59F22E066701008A3E066700A08A3E0665C
:2043E000700408A3E06622C3E7960809E7960809E7960809E796A2D265D03322C3E096080D
:20440000A3E09608A3E09608A3E096A2D265D03322C021C3E096F52108A3E096422108A3E4
:20442000E096422108A3E0964221A2D265D033E5217001D3D02122C3E7960809E796080907
:20444000E7960809E79622C3E09608A3E09608A3E09608A3E09622C021C3E096F52108A396
:20446000E096422108A3E096422108A3E09645217001D3D02122080808E630E711124D98E4
:2044800012448E080808C64480C618181822181818E9799EC608CAC608CBC608CCC6C3705A
:2044A000207996CACBCC7019798ECBCC70137986CC700EF9802ACA33CACB33CBCC33CC3348
:2044C0001930E7F2CCCBCA3350147004EA30E00DE4CA3ACACB3BCBCC3CCC500209C3E913D6
:2044E000C6CC182313C6CB18C6CA18C6F92212452E20F01430E72B74FFFCFBFA747F8022C6
:20450000E4FCFBFA7480801AB48008BC00F2BB00EF800F50EBF9E4C39AFAE49BFBE49CFCB0
:20452000E499C6CC18C6CB18C6CA18C6F922E4C9C608CAC608CBC6D3330308CCC63392F026
:20454000C3947F402E94184019C9B90704CACBCC225025C309CA33CACB33CBCC33CC33D95A
:20456000F422F4600DC9CCC313CB13CBCA13CAD9F6CC22E4FCFBFA2214FCFBFA22E626180A
:20458000461846184622E72719471947194722181818E60846087009E626087005E633F414
:2045A000220822191919E70947097009E727097005E733F4220922E6084608C31346083331
:2045C0006002E633F422E7094709C3134709336002E733F4221245B760251245C6602012DD
:2045E000457D7003024586080808E76670101819E766700A1819E76670041819E76622F456
:20460000221245B7601C1245C6601712457D70071245867001D322C0D01245867006D0D049
:20462000B322C32233D0D0501430E0F6C3E7960809E7960809E7960809E796B32220E0D5EF
:20464000E6970809E6970809E6970809E697B3221245B7601B1245C6601612457D700712E5
:204660004586600CB322C0D01245867005D0D022C32233D0D0501330E0EBC3E7960809E73C
:20468000960809E7960809E7962220E0E4E6970809E6970809E6970809E69722001245B70B
:2046A000604F1245C66012E7548066F612458F7011124586703B090909F4F618F618F6187D
:2046C000F6221245A3701512457D08080860EAE6447FF618768018E4F618F62212457D600A
:2046E000161245867012E4F608F608F608E65480F609090918181822EAC0E0EBC0E0ECC071
:20470000E0EDC0E0E687F0A4FBACF008E687F0A42CFCE435F0FA1809E687F0A42C4B600265
:204720007401CA35F0FCE433FB09E687F0D2F7A42CCB35F0FC1908E687F0A42BCC35F0FBE3
:20474000E433FD0819E687F0D2E7A42C4ACB35F0CD3400FC09E687F0D2E7A42DCC35F0FD29
:20476000E433FA0918E687F0D2F7A42CCD35F0CA3400FC08E687F0D2E7D2F7A42ACC35F07F
:204780007A7E20E70B0ACB33CBCD33CDCC33CC33CB3350147004ED30E00ED2F1E4CD3DCD12
:2047A000CC3CCC3B5005DA05C2F1EB547FC63308E63392F0FBE73309E733C39A502D2B70FC
:2047C000190C0D4C4D70151806E608C333700D20F10AA2F013F6E418800B4024E4F630F06F
:2047E00002768018F618F618F68024D33B14501074FFA2F013F6187680E418F618F6800FC6
:20480000A2F013F618E63303F618ECF618EDF6D0E0FDD0E0FCD0E0FBD0E0FA221245C66091
:20482000461245B7603DE9687008F618F618F618F622748067F7124850090909748067F713
:20484000221245B7601D1245C67005191919801A12458F701F1245A3C37003E667331919DD
:204860001940071818182208080874FFF618F618F618F6221245A36017124586702192F040
:2048800012457D7019501720F014080808090909E7F61819E7F61819E7F61819E7F62212C2
:2048A000457D60E6E869701F0808E62480F608E436F618547FB47F0CE654806007F6E4182B
:2048C000F618F622181822E9C6CC08C6CD08C6CE08C6CFC0E0E8C0E0EAC0E0EBC0E009E9E2
:2048E000F809E7FA09E7FBE6F918E6F8C3EC98ED99EE9AEBC2E7F5F0EFC2E795F0500E606D
:204900000CEBCFFBEACEFAE9CDF9E8CCF8EAA2E7D2E7FAEB33FB13F5F0EEA2E7D2E7FEEF75
:2049200033FFC5F013A2E730E601B313C5F0C3C0E0C0F07F00C39BFB605E9418600F401D41
:2049400014601AD0E023F9D0E0F8024A228AF0E9486003D2F0E4AFF0FAF9F8803BEB30E4EF
:204960000D89F0EA6003D2F0E4AFF0F9CAF8EB30E30D88F0EF6002D2F0AFF0E4CAC9F8EBD5
:2049800054076014FBC3EA13FAE913F9E813F8EF135002D2E0FFDBEDD0E0C0E030E739C37B
:2049A000E49FFFF5F0EC98FC42F0ED99FD42F0EE9AFE42F0D0E0F9D0E0F8E5F0607AE92365
:2049C000F9EE20E742D8028067C3EF33FFEC33FCED33FDEE33FE80EAEC28FCED39FDEE3AE6
:2049E000FED0E023F9D0E0F84002801BC3EE13FEED13FDEC13FCEF135002D2E0FF08B800E9
:204A0000067F7F74FF802EEF3350178CF020F00260100CBC000C0DBD00080EBE000408E884
:204A200060DFE933E813FFEE2313FE4F4D4C8008E95480FFE4FEFDFCEE33EF33F47004FC51
:204A4000FD7E80D0E0FBD0E0FAD0E0F8D0E0CFC618CEC618CDC618CCC6F9221245B770047B
:204A6000181818221245C6700D74FFF61819F61819F61819F622E7548066F612457D700FC8
:204A800012458670F014F608F608F608F680D1124586700CF608F608768008E6447F80EC1C
:204AA0001245A6700C12459260BFE65480F6E480BB124592700519191980A5E869700C7695
:204AC0003F18768018F618F6E8F922E6CDC0E018ECC0E0E633CD33CDD313F6E719FCE719B5
:204AE0001933CC33C3947F400ECD9D502408E65480F6E418F6800FF4043D14501408E64451
:204B00007FF6187680E418F618F6D0E0FCD0E0FD22CCD313CCFD18E4C6CBC0E018E4C6CA63
:204B2000C0E00808ED08C633E613F618E433C675F003C3CA97CA09CB97CB199C40047D08E9
:204B4000802EBD0003024C0416B6FF050606081618C3CA33CACB33CB33CA27CA09CB37CB6C
:204B6000193CC37D08803E187D0820E75CC633C6CA33CACB33CB33DDF1D5F0EB30E77BCA7E
:204B800097CA09CB974ACB199C406F4B7025E620E0218066187D08C3CA97CA09CB97CB1929
:204BA0009CD3C633C6CA33CACB33CB3350C9DDE7D5F0E1D3E4C636C608C636C608C636C674
:204BC00008C636C61818188031C3CA97CA09CB97CB199CB34097C633C6CA33CACB33CB332D
:204BE000DD34D5F02EC6A2E0C640C8CA27CA09CB37194A70BECB3CB480B90808E63308E639
:204C000033601F181818D0E0FAD0E0FBD0E0FCD0E0FD22187D08CA27CA09CB37CB193CD374
:204C2000808013F618E4B67F11F618B6FF0EF618C60470D20808768080CAF618F618F6805C
:204C4000C5080808EAC0E0EBC0E086F0E7A4FA180986F0E7A42AFA180986F0E7A42AFA18C3
:204C60000986F0E7A42AFA1986F0E7A4FBE5F02AFA190886F0E7A42BFBE5F03AFA19088600
:204C8000F0E7A42BFBE5F03AFA18180986F0E7A4C5F02BFBE43AFA1908E7C5F0C6A426F6FA
:204CA000E5F03BFBE43AFA1886F0E7A4F6E5F00826F6E43B08F6E43A08F6D0E0FBD0E0FA3B
:204CC00022E4CFC0E0E4CEC0E0E4CDC0E0E4CCC0E075F020E626F608E633F608E633F608AF
:204CE000E633F6181818EC33FCED33FDEE33FEEF33FFC3EC9709ED9709EE9709EF971919C3
:204D000019400FFFEC97FC09ED97FD09EE97FE191906D5F0BFECF709EDF709EEF709EFF72E
:204D2000191919D0E0FCD0E0FDD0E0FED0E0FF22124D9B181818124CC1124D87191919229C
:204D4000124D87191919080808E618181820E7E0124CC1124D9B18181822090909E719193E
:204D60001920E7DC080808E618181820E703024CC1124D9B181818124CC1124D9B18181835
:204D8000124D8719191922E4C397F709E497F709E497F709E497F722181818E4C396F60875
:204DA000E496F608E496F608E496F6226017080808C6A2E713C618C613C618C613C618C66E
:204DC00013C6D5E0E9226016080808C6C313C618C613C618C613C618C613C6D5E0EA2270F4
:204DE00009080808226016181818C6C333C608C633C608C633C608C633C6D5E0EA22E6270D
:204E0000F60809E637F60809E637F60809E637F622E026F608A3E036F608A3E036F608A3F9
:204E2000E036F622E026F008A3E036F008A3E036F008A3E036F022C3E697F60809E697F65F
:204E40000809E697F60809E697F622C3E0C696F608A3E0C696F608A3E0C696F608A3E0C628
:204E600096F622C3E096F008A3E096F008A3E096F008A3E096F022E056F608A3E056F608FB
:204E8000A3E056F608A3E056F622E056F008A3E056F008A3E056F008A3E056F022E647F66C
:204EA0000809E647F60809E647F60809E647F622E046F008A3E046F008A3E046F008A3E011
:204EC00046F022E066F008A3E066F008A3E066F008A3E066F022E0F608A3E0F608A3E0F6A7
:204EE00008A3E0F622E6F008A3E6F008A3E6F008A3E6F022E0FAA3E0FBA3E0FCA3E0FD221B
:204F0000EAF0A3EBF0A3ECF0A3EDF022E0FCA3E0FDA3E0FEA3E0FF22ECF0A3EDF0A3EEF0BA
:204F2000A3EFF022E0F8A3E0F9A3E0FAA3E0FB22E8F0A3E9F0A3EAF0A3EBF022CAC0E0E69B
:204F4000F0A308DAFAD0E0FA22CAC0E0E0A3C582CCC582C583CDC583F0A3C582CCC582C5C0
:204F600083CDC583DAE6D0E0CA22C3E498F8E499F9124FAB8026C3E49AFAE49BFBE920E739
:204F8000E9124FABE498F8E499F922C3E498F8E499F9124FABE498F8E499F9C3E49AFAE44E
:204FA0009BFB22EB20E7CFE920E7E0B90010BB0008E88AF084F8AAF022E4FBC8FA22EB7064
:204FC000227B10C833C8C933C9335007C39AC3DBF280069A50012ADBEAC833F4C8C933F41E
:204FE000C9FA2275F008E4C833C8C933C933C99AC99B5004C92AC93BD5F0ECFBC833F4C84B
:20500000E4C9FA22600D08C6A2E713C618C613C6D5E0F322600C08C6C313C618C613C6D547
:20502000E0F422700422600D18C6C333C608C633C6D5E0F41822254110AF08F541400C156F
:20504000428008F54140021542D2AF2200C0D0254110AF08F541500C05428008F54150026E
:205060000542D2AFD0D0222541F58210AF08F541400C15428008F54140021542D2AF85428A
:2050800083222541F582E43542F583222541F8E43542F9222541FAE43542FB222541FCE4A7
:2050A0003542FD22E4732541C582C0E0E54234FFC583C0E0E541C3958224F810AF08858389
:2050C000428582418008858342858241D2AFCEF0A3E520F0A37821E608F0A3DEFAEFF0A33E
:2050E000E58124FAF8E608F0A3E608F0A3E608F0A30808E608F0A3E608F0A315811581D0A3
:20510000E0FED0E0F8158115811581E8C0E0EEC0E0222541C582C0E0E54234FFC583C0E080
:20512000E541C3958224F910AF088583428582418008858342858241D2AFCEF0A3E520F008
:20514000A37821E608F0A3DEFAEFF0A3E58124FBF8E608F0A3E608F0A30808E608F0A3E642
:2051600008F0A315811581D0E0FED0E0F815811581E8C0E0EEC0E022854283854182E0A399
:20518000FEE0A3F5207821E0A3F608DFFAE0A3FFE0A3C0E0E0A3C0E0E0A3C0E0E0A3C0E078
:2051A000E0A3C0E010AF088582418583428008858241858342D2AFD083D0820243BA85426D
:2051C00083854182E0A3FEE0A3F5207821E0A3F608DFFAE0A3FFE0A3C0E0E0A3C0E0E0A3AD
:2051E000C0E0E0A3C0E010AF088582418583428008858241858342D2AFD083D08222C0D0A1
:205200002541C582C0E0E54234FFC583C0E0E541C3958224F310AF08858342858241800807
:20522000858342858241D2AFC8F0A3E9F0A3EAF0A3EBF0A37921E709F0A3D8FAECF0A3ED2E
:20524000F0A3EEF0A3EFF0A3D0E0F0A3D0E0F0A3D0E0F0A3E520F0A3E5F0F0A32285428383
:20526000854182E0C0E0A3E0F9A3E0FAA3E0FBA37821E0F608A3DFFAE0FCA3E0FDA3E0FE7C
:20528000A3E0FFA3E0C0E0A3E0C0E0A3E0F5D0A3E0F520A3E0A3F5F010AF08858342858243
:2052A000418008858342858241D2AFD082D083D0E0F8D0E03274048006740280027401C0B8
:2052C000E0F404125067D0E0124F3C227404800474028000CCC0E0EDC0E0E541C39CCCADD5
:2052E0004250011D10AF068C418D4280068C418D42D2AF124F49D0E0FDD0E0FC22D083D0B2
:2053000082C5F0E493A3C5F0C395F0F5F0E493A3C395F04005E5F0048001E475F002A42545
:2053200082F582E5F03583F583E493A3C0E0E493C0E022D083D082E9C0E0E493A3C386F0FB
:20534000C5F095F0F908E493A386F0C5F095F0700BE493A3C3994005E9048002A3E475F0B7
:2053600002A42582F582E5F03583F583D0E0F9E493A3C0E0E493C0E022D083D082E9C0E09A
:20538000E493A3C386F0C5F095F0F908E493A386F0C5F095F0702408E493A386F0C5F0953F
:2053A000F0701908E493A386F0C5F095F0700E08E493A3C3994007E9048004A3A3A3E475AC
:2053C000F002A42582F582E5F03583F583D0E0F9E493A3C0E0E493C0E022D083D082CCC047
:2053E000E0E493A360061254041470FAE493A360061254231470FAD0E0FCE493A3C0E0E494
:2054000093C0E022C0E0E493A3D39C5010E493A3C39C400AD0E0D0E0D0E00253F7A3A3A3A6
:20542000D0E022C0E0E493A36C7009D0E0D0E0D0E00253F7A3A3D0E022D083D082ECC0E056
:20544000EDC0E0E493A3FCE493A3FDED4C600D125485EC24FFFCED34FFFD80EFE493A3FC54
:20546000E493A3FDED4C600D1254C4EC24FFFCED34FFFD80EFD0E0FDD0E0FCE493A3C0E09B
:20548000E493C0E022C0E0C3E49396087401939618400FE493667008087401936618700003
:2054A0007019A3A3C3E49396087401939618A3A3400DD0E0D0E0D0E0025475A3A3A3A3A3F2
:2054C000A3D0E022C0E0C0F088F0E4936670080874019366187000A8F0A3A3700BD0F0D053
:2054E000E0D0E0D0E0025475A3A3D0F0D0E022FFC0E074EF1251FEA2AFE433FFD2AFA8894D
:20550000E5AB58F5216043F4F589C2C57E00EEF523752400740278231250231255C9E9FB2A
:20552000EA4B701F1255BDB800028004C313D8FCA2E0500F752300752402EE782312502379
:205540001255B00EEEC3940440C4EFA2E092AF7F0402525DC0E074EF1251FEA2AFE433FF28
:20556000D2AFA88AE58D58F5216043F4F58AC2EB7E00EEF523752400740278231250231210
:2055800055C974406A49701F1255BDB800028004C313D8FCA2E0500F752300752402EE7871
:2055A000231250231255B00EEEC3940440C4809AAA23AB24900280E0F912730F22E813136C
:2055C00013541F5407F8E5212274582523F58274083524F583E0F8A3E0F9E854C0FA22C0C6
:2055E000E074EF1251FEA2AFE433FFD2AFA88BE5AC58F5216043F4F58BC2E87E00EEF523A8
:20560000752400740278231250231255C974806A49701F1255BDB800028004C313D8FCA247
:20562000E0500F752300752402EE78231250231255B00EEEC3940440C402554A74F612510A
:2056400012EAFEEBFF8C218D22EA2434F8E43FF9E8FCE9FDEA24351259E3FAEE24371259AB
:20566000E3F88521F0A4C885F0238522F0A42523F9EA28F8E439F97A257B00124FABEA8C7D
:20568000828D83F0FA131313541F1259D7245DF582E439F583E0C0E074075AF8D0E0B8005E
:2056A000028004C313D8FCA2E0EE50082434F582E43F801424361259E3F5F0EA84A8F012C7
:2056C00059D82438F582E439F583E0F97F030251BE74F7125112EAFEEBFFEA24341259E383
:2056E000C0E0EA2435F582E43FF583D0E0F08A828B83A3A3A3A3A3A3A3C082C0838A828B6A
:2057000083A3A3A3A3A3E0F8A3E0F9D083D082E0C398F521A3E099F522EA24801259E3641A
:2057200001703EEA2481F582E43FF583C082C0838A828B83A3A3A3A3A3E0240108A3E03487
:2057400000F9D083D082E0687003A3E06970127C977D05126D99EE2480F582E43FF583E44D
:20576000F0AC21AD22EEFAEFFB12563CE9F91264507F020251BEC082C083854182854283D6
:20578000E0F8A3E0F9C3EA9CEB9D5010C3EC98ED99401BC3EA98EB995014800EC3EA98EB71
:2057A000994007C3EC98ED994004790180027900D083D08222EAC39CFAEB9DFB2274EF125F
:2057C0005112900457E064086005E06407702A9061C8E06024900485E0F4601DE0F875F021
:2057E00010A4C8AAF02AF9748728FE740439FF8E82F583A3A3A3E070030258D6906060E07B
:20580000C0E0EE2468F582E43FF583D0E0F0752508752606752100752200E5D914F523E57D
:20582000D95403F527602F74036527601DE5236008EE24671259E3601D900603E06401601B
:205840002C1259E06012780480101259E0602CE523C39405502580637800E523C398FA9556
:20586000E0FB126C4F8A218B22EA4B7005126FCD80641259E070048A258B26E5236012852E
:205880002582852683F524E5D9F0A31524E52470F61259E0604574FC2523F5237825125260
:2058A000B9AC23A927EEFAEFFB126E53740212504CE97027AA21AB22127345793D8E828F90
:2058C00083A3A3A3A3E0FA7B00126AB7EEFAEFFB126DBD126E6579000259D2740365276035
:2058E00053E523F529752A0078291252B9AC25AD26AA21AB22126E17740212504CEE246861
:205900001259E364807004747F8001E0F52578251252BDE527F52578251252BDA923AC2138
:20592000AD22900485E0FA7B00126A8D740212504C0259CD852582852683E0C3940E5011D5
:20594000E0F874DC28F582E43485F583E065236069852582852683E0C0E0EE24F7F582E4FC
:205960003FF583D0E0F0A2AFE433FCC2AF7A0080010AEE246E1259E3F8EAC3985013EA128C
:2059800059D7246AF582E439F583E0640770E28022EE246EF8E43FF9E0FAEE2AFAE43FFB60
:2059A000EA246AF582E43BF5837407F088828983E004F0ECA2E092AF8013900457E0640893
:2059C000600BAC25AD26EEFAEFFB126EDD126FD979017F0A0251BEF8EE28F8E43FF9E822EF
:2059E000EE2484F582E43FF583E02274F112511274FC125036EAFEEBFF8922752600A2AFB2
:205A0000E433F521C2AF90059FE0FA9061D0E0F8748098F895E0F9C3EA98E499A2D265D0E4
:205A2000334003025AD5752601025AD5E0601B78231252B9AC27A928EEFAEFFB126E4D7428
:205A40000212504C74042527F52774012527F5D98528D9E5276012852382852483F525E0D3
:205A6000F5D9A31525E52570F675E195EE2463F8E43FF97A007B00A2AFE433F523C2AF8829
:205A8000828983E0FCA3E0FDEC4D603A88828983E0FAA3E0FB8C82F583E0FCA3E0FD8882EF
:205AA0008983ECF0A3EDF08A828B83E4F0A3F088828983E0FCA3E0FDEC4D700A88828983C2
:205AC000A3A3E4F0A3F0E523A2E092AF12734590059EE004F0EE24631259E3F8A3E0F9E85E
:205AE000496063EE24631259E32402F8A3E034008882F583E5822402F523E43583F524E046
:205B0000F527A3E0F528EE24621259E3640170369061D0E0F81259E060047C0480027C0036
:205B20007480C398FA95E0FBE5272CF8E43400F9E82402F8500109C3EA98EB99A2D265D099
:205B4000334003025A2C9061D0E0F87480C39890059FF0E526605390059EE0604D9005A088
:205B6000E0F890059EE0C398500C74026522703A9005A1E060348E828F83A3A3A3A3E0851F
:205B80004182854283125BBA7402125082E8125BBA90059DE028F0740212509CAA41AB42F2
:205BA0007901126AE190059EE4F0E521A2E092AF740412504C7F080251BEF0A3E4F0900584
:205BC0009EE0F8228551878552C622C0E074EB1251FEA2AFE433F521C2AF759B009061823F
:205BE000E0A2E0502DE591A2E050277591FE74016551701E125D42125D591252CC1261FF7F
:205C0000740412504CE9640170057901126F731257BD906182E0A2E5505AE591A2E55054E2
:205C20007591DF900457E064076005E06408702C125D4274016551703B125D591252CC126B
:205C400061FF740412504CE9640170057901126F737901EEFAEFFB1259EB8018E0640D7092
:205C600013900479E004F064287002E4F07A00E0F9126FDF906182E0A2E64003025D17E532
:205C800091A2E64003025D177591BF900457E064057008126F13126F1F8003126F197551AA
:205CA00000126F7FE9900458F07900126F73126D0F7A017B00900456E0F912730F907803CC
:205CC000E064427052900607E014F0704AC2AF125CD200785AD0E0F618D0E0F6E59F54077B
:205CE00070047BFF80027B7FC4C0E07859E6F52308E65BF524740B7823125014D0E025231D
:205D0000F8906270E0A2E740F8E8C333906272F0906270E0D2E0F0906181E0A2E35009E55D
:205D2000E9A2E3500375E9F7A3E0A2E75009E591A2E7500375917FE521A2E092AF7F0802BF
:205D4000525D900485E0F875F010A4C8AAF02AF9748728FE740439FF22126F2B8E828F8344
:205D6000E0F8A3E0C82416F582E438F58322C0E0C0D0C082C083906183E0A2E05009E5BF11
:205D8000A2E0500375BFFEE0A2E15009E5BFA2E1500375BFFDE0A2E25009E5BFA2E250035D
:205DA00075BFFBE0A2E35009E5BFA2E3500375BFF7E0A2E45009E5BFA2E4500375BFEFE010
:205DC000A2E55009E5BFA2E5500375BFDFE0A2E65009E5BFA2E6500375BFBFD083D082D0AA
:205DE000D0D0E032C0E074F21251FEE5A7A2E6500FE5A1A2E6500953A7BF75A1BF125E387A
:205E0000E5A7A2E5500CE5A1A2E5500653A7DF75A1DFE5A7A2E15009E5A1A2E1500375A108
:205E2000FDE5A7A2E2500CE5A1A2E2500653A7FB75A1FB7F0102525D74F7125112755101BB
:205E4000900457E064067015126E898A828B83A3A3A3A3A3A3E0FAA3E0FB126F01A2AFE484
:205E600033FED2AF90045DE0640170187A207B00900456E0F912742F7A207B00900456E046
:205E8000F9127315906182E0D2E6F0900604E0602185C652801690045CE064017008E5C6EE
:205EA00054F84405F5C653BEFC125BC47401655160E4EEA2E092AF7F020251BE8E538F54DE
:205EC000858258858357854182854283E0CEA3E0CF855882855783EBC9EAC8EDCBECCA756B
:205EE000F010C3E833C8E933C9EA33CAEB33CBC3EA9EF556EB9FF555B35004AB55AA56ECEA
:205F000033CCED33CDD5F0DAAE53AF542274E912511274FA125036EAFEEBFF8C238D2412B4
:205F20006F37EAF8EBF9ECFAEDFB8E828F83124F30900457E024F7C394055006752D010237
:205F40006073126E898A218B22EA4B7003026070EEFCEFFDAA41AB42126F31852182852264
:205F600083A3A37825124ED69086D97825124E778541828542837829124ED69086D9782929
:205F8000124E7778257929124437501F78257929124E379087157825124457405D85252D2F
:205FA00085262E85272F852830803790871585292D852A2E852B2F852C30782D7925124E52
:205FC00037782D1244575032752D00752E00752F00753001782D7929124E37782D792512F4
:205FE0004DFE7409782D124DDF9086A17825124ED6782D7925124CC1800C752D14752E0025
:20600000752F00753000852182852283A3A3A3A3A3A3126091124FAB88258926E4F527F5B3
:2060200028782D7925124DFE7404125082126091124FABE8FAF525E4F526782D7925124499
:20604000375007782D7925124E37900457E06408600AE064066005E0640570209087197807
:206060002D124457501690871D782D124E11800C752D00752E00752F0075300085238285CD
:206080002483782D124EE5740612504C7F100251BEE0F8A3E0F97AD07B032274F712511289
:2060A000126F49900602E064017010906245E4F0A3F053F4F343FE0C5390F3126EEFE5C6A4
:2060C00054B84441F5C6E59E5447644170F8906185740FF0900600E0F47002A3E0604E90C3
:2060E0000601E0600814601B14602E8040752101752200900600E07821125023E521F45252
:2061000080802A752101752200900600E07821125023E521F4529080147521017522009065
:206120000600E07821125023E521F452A079007F020251BE74F7125112E9FEEAFF126F49EA
:2061400074016E700C7A807B00900456E0F912730F9074C4E493F46008E493F9126D038007
:206160000953C6B8E59E544770FA126EF5900602E064017003126D21900600E0F47002A3D9
:20618000E0604B900601E0600814601A14602C803D752101752200900600E07821125023E8
:2061A000E52142808028752101752200900600E07821125023E52142908013752101752214
:2061C00000900600E07821125023E52142A0126E898B22A922EA496014E5E170FCEA2414C7
:2061E000F582E439F583E0F46003E0F5E174016F700A7A01900456E0F91273AB02612F74D4
:20620000F11251128A218B228C238D249086D97821124E77740F1250827825124ED69086B1
:20622000D97825124E7778217925124437908715501078217925124E377821124457401459
:20624000800E78257921124E37782512445750047901800279007F080251BE74ED12511261
:206260008A218B228C238D249086D97821124E7774131250827825124ED69086D97825122B
:206280004E7778257921124437401178217925124E37AA21AB22AC23AD2480227529007569
:2062A0002A00752B00752C0178297925124E3778297921124DFEAA29AB2AAC2BAD2C7F0C21
:2062C0000251BE9086D97821124ED68A828B837821124E8A7F040251BE74F51251128C82D2
:2062E0008D837821124ED68A828B837821124E63126331C3E09CF0A3E09D126323402290CA
:2063000087497821124ED68A828B837821124E248A828B83A3A3A3A3E02420F0A3E0344EE8
:20632000F080A0F088828983C3E09420A3E0944E22EA2404F8E43BF98C828D83A3A3A3A39D
:20634000E0FCA3E0FD888289832274F51251129005BAE0FAA3E0FBE929F8E433F97462280C
:20636000F582748539F583E02AF521A3E03BF52278211252B99086B5124EF4125EBC740290
:2063800012504C8A218B228C238D2474107821124DC6AA21AB227F040251BE74F11251124F
:2063A0008A258B268C278D2874111250821252D07411125082E02401F521A3E03400F52226
:2063C000E4F523F52478257921124C419087297821124ED678257921124C41AA25AB26ACA1
:2063E00027AD28125EBC740212504CEA4B60047A0180027A00EC2AFCE43DFD7413125082A6
:20640000E0F8A3E0F9E8FEE9FFECF8EDF97A717B02124FAB88218922E4F523F5248E828F14
:20642000837821124EE5ECF8EDF97A717B02124FAB8A218B22740578211250238E828F83AC
:20644000A3A3A3A3E521F0A3E522F07F080251BEC082C083E9906000F0D083D08222C0E0D3
:20646000C0D0E8C0E0A8A8D2AFC2C7754300E8A2E792AFD0E0F8D0D0D0E032C2AF020000A3
:20648000221243BD68CD031243BDABCD031243BD76CE031243BD2AD1031243BD98D103120A
:2064A00043BD9BD1031243BD9ED1031243BD8AD2031243BD17D3031243BD9FD3031243BDE0
:2064C0008DBB021243BD6ABC021243BD92BE021243BD35BF021243BDB6BF021243BD60C110
:2064E000021243BD7FC2021243BDD7C2021243BDD0C3021243BD8BC4021243BD7AC5021229
:2065000043BDDEC5021243BDADC9021243BD48CA021243BD0080011243BD1C80011243BDD2
:20652000F381011243BDE082011243BD3C83011243BD8083011243BDB083011243BD0385A9
:20654000011243BD7F85011243BDF585011243BD7986011243BD8887011243BD0A880112AB
:2065600043BD2F8A011243BD1E93011243BD6993011243BD8993011243BDDB93011243BDCC
:206580000894011243BD9EB5011243BD96B7011243BDE1B7011243BD0DB8011243BD05B945
:2065A000011243BDD0BA011243BDB2BD011243BDEFBD011243BDF2C5011243BDDEC6011269
:2065C00043BD33C7011243BD55C8011243BDA5C9011243BDFAC9011243BDBEA3041243BDB0
:2065E000D1A3041243BD00A4041243BD38A4041243BD81A4041243BDC4A4041243BD0AA5FD
:20660000041243BD3DA5041243BD64A5041243BD93A5041243BDCAA5041243BDE3A50412DC
:2066200043BD32A6041243BD4BA6041243BD93A6041243BDC7A6041243BD41B5031243BD88
:206640003FB6031243BDA5B6031243BDC8B6031243BDCAB6031243BD08B7031243BD79B794
:20666000031243BD39B8031243BD5BB8031243BDF7B8031243BD2EB9031243BD73B90312D6
:2066800043BD80B9031243BDF0B9031243BD3ABA031243BD3DBA031243BD83BA031243BD87
:2066A00086BA031243BD90BA031243BD03BB031243BD2BBB031243BD5EBB031243BD82BBED
:2066C000031243BD7FBC031243BD23BD031243BD8FBD031243BDCBBD031243BD7E9404123A
:2066E00043BDA694041243BDD394041243BD0B95041243BD7195041243BDBB95041243BD95
:206700001F96041243BD6796041243BDA496041243BDD296041243BD6797041243BD7197B1
:20672000041243BD7E97041243BDB197041243BDBD97041243BDD597041243BDDF97041242
:2067400043BD0780051243BD1F80051243BD3680051243BDF2E6021243BD95E7021243BD9C
:20676000D0E8021243BD79E9021243BD01EB021243BDE9EB021243BDE0EC021243BD16ED0C
:20678000021243BDB8ED021243BDDEED021243BDAAEF021243BDF0EF021243BD12F0021297
:2067A00043BD7EF0021243BD49F1021243BD03F2021243BD0FF4021243BD9FD4031243BD61
:2067C0007BD5031243BD25D6031243BD66D6031243BDEDD6031243BD68D7031243BD3BD8B4
:2067E000031243BD64D8031243BD58D9031243BD95D9031243BD7DDA031243BDAEDA031261
:2068000043BDD4DA031243BDC9B9041243BDF4B9041243BD04BB041243BD589C041243BD7B
:206820006E9C041243BD8C9C041243BD9C9D041243BDA69D041243BDD09E041243BDBD9F72
:20684000041243BD29A0041243BD44DB031243BD71DC031243BDA8DC031243BDFFDC031224
:2068600043BDF7DE031243BD0699021243BD8D99021243BDE19A021243BD689B021243BD9B
:20688000749B021243BDEC9B021243BDD49C021243BDD09D021243BD9C9E021243BDF69F52
:2068A000021243BD0CA0021243BD2DA0021243BDBFA0021243BD35A1021243BD5BA10212B6
:2068C00043BD08A4021243BD0DA4021243BD31A6021243BD78A6021243BDDEA6021243BD7E
:2068E00024A7021243BDF4A7021243BDA9A8021243BD05A9021243BD08A9021243BD54A921
:20690000021243BD90A9021243BDCFA9021243BDF1A9021243BD25AA021243BD93AA0212A8
