:020000040000FA
:20000000020618C2AFF50841CFFFFFC2AFF50841E1FFFFC2AFF50841F3FFFFC2AFF5086147
:2000200005FFFFC2AFF5086117FFFFC2AFF5086129FFFFC2AFF508613BFFFFC2AFF508610C
:200040004DFFFFC2AFF508615FFFFFC2AFF5086171FFFFC2AFF5086183FFFFC2AFF50861CC
:2000600095FFFFC2AFF50861A7FFFFC2AFF50861B9FFFFC2AFF50861CBFFFFC2AFF508618C
:20008000DDFFFFC2AFF50861EFFFFFC2AFF508810174FC1205DE75F300758F0875F700751F
:2000A000FD0478AA790AE8A2E0E4333333FA80028A8019E970FAE8A2E092F0A28320F0019F
:2000C000B35005C313F870DC75FD00E87003020232750A04750B00780A12060774021206C9
:2000E0004D7A007B00790812041774021205C3851E82851F83E0F47003A3E0F4700302023F
:2001000032851E82851F83E0F8A3E0F9E84970030202327402120643E0687003A3E069704B
:2001200010750901024030C2AF75C9AB75C95B80FE53BEFBE59DA2E650FAE5C654804449E1
:20014000F5C6E59E547F644970F853C67FE59EA2E740FA53C680E59E547F70FA43BE0490AD
:2001600062707408F0750A00F50B780A1206077C807D017A007B0079081204177402120577
:20018000C3900186E0F50AA3E0F50B7409780A120627E50A2408FF53B4F375BC0075BC006F
:2001A0007CFC7D077A047B0079081202427E09EFC3940A401C800774086E70027E567C000D
:2001C0007D087A007B00EEF91202420EEEC39F40E6A8BD851E82851F83E8F9E5BCF8E06871
:2001E0007003A3E069704B851E82851F83E0F8A3E0F97402120643E8F0A3E9F0851E828576
:200200001F8374FFF0A3F07409F5D57480F5D4750A01780A120607740212064D7A007B1041
:2002200012049C74021205C3C2AF75C9AB75C95B80FE750900020830C2AF75C9AB75C95BA0
:2002400080FE74F7120502E9FEAFC7740F5EF50A750B00740B780A1205F4EA2400F8EB35AD
:200260000BF9EA2400E93480F9A2AFE433F50AC2AFEEC4540FFAE5C754F84AF5C7E990096F
:2002800080F0E8A3F0A37470F0A374BDF0EC900985F0ED541F900984F09009867420F0A38B
:2002A0007442F07409F5D57480F5D475D601000000000000000000000075D701E5D7A2E0BD
:2002C00040FA8FC7E50AA2E092AF7F02020568E5096007E508D2AF024033E508D2AF02083C
:2002E00033E5096007E508D2AF02403BE508D2AF02083BE5096007E508D2AF024043E508A3
:20030000D2AF020843E5096007E508D2AF02404BE508D2AF02084BE5096007E508D2AF0237
:200320004053E508D2AF020853E5096007E508D2AF02405BE508D2AF02085BE5096007E5F2
:2003400008D2AF024063E508D2AF020863E5096007E508D2AF02406BE508D2AF02086BE55C
:20036000096007E508D2AF024073E508D2AF020873E5096007E508D2AF02407BE508D2AF11
:2003800002087BE5096007E508D2AF024083E508D2AF020883E5096007E508D2AF02408BC5
:2003A000E508D2AF02088BE5096007E508D2AF024093E508D2AF020893E5096007E508D283
:2003C000AF02409BE508D2AF02089BE5096007E508D2AF0240A3E508D2AF0208A3E509606D
:2003E00007E508D2AF0240ABE508D2AF0208ABE5096007E508D2AF0240B3E508D2AF020848
:20040000B3E5096007E508D2AF0240BBE508D2AF0208BB0002041374F5120502890A740F85
:2004200059F50C750D00740B780C1205F4EA2400F8EB3480F9EA2400E9350DF985C70CA208
:20044000AFE433F50BC2AFE50AC4540FFAE5C754F84AF5C7740B120643E0FEA3E0FFEE4FE0
:20046000602CEEFAEFFB88828983E08C828D83F088828983A3A882A9838C828D83A3AC821C
:20048000AD83EA24FF1AEB34FFFBEA4B70D8850CC7E50BA2E092AF7F0402056874F71205F0
:2004A00002ED900980F0ECA3F0A37462F0A37473F0A3E0541FF07409120643E0F50AA3E0C2
:2004C000F50BE50A333354FC900985F07406780A120627E50A900984F09009867412F0A3FA
:2004E0007442F075D11E75D601EA906271F0EBA3F0906270E0D2E1F0E0A2E740FB7F0202DF
:200500000568251EC582C0E0E51F34FFC583C0E0E51EC3958224F910AF0885831F85821E18
:20052000800885831F85821ED2AFCEF0A3E520F0A3780AE608F0A3DEFAEFF0A3E58124FB8B
:20054000F8E608F0A3E608F0A30808E608F0A3E608F0A315811581D0E0FED0E0F815811562
:2005600081E8C0E0EEC0E022851F83851E82E0A3FEE0A3F520780AE0A3F608DFFAE0A3FFFF
:20058000E0A3C0E0E0A3C0E0E0A3C0E0E0A3C0E010AF0885821E85831F800885821E858307
:2005A0001FD2AFD083D08222251EF58210AF08F51E400C151F8008F51E4002151FD2AF85A9
:2005C0001F832200C0D0251E10AF08F51E500C051F8008F51E5002051FD2AFD0D022251E93
:2005E00010AF08F51E400C151F8008F51E4002151FD2AF22700422600D18C6C333C608C682
:2006000033C6D5E0F4182274028000C0E0F4041205A8D0E01206362275D00075813F751E84
:2006200080751F01020655600C08C6C313C618C613C6D5E0F422CAC0E0E6F0A308DAFAD061
:20064000E0FA22251EF582E4351FF58322251EFCE4351FFD2212009112065B00000080FBEB
:20066000FFFFFFFFFFFFFFFFFFFFFFFFFFFFFFFFFFFFFFFFFFFFFFFFFFFFFFFFFFFFFFFF9A
:20068000FFFFFFFFFFFFFFFFFFFFFFFFFFFFFFFFFFFFFFFFFFFFFFFFFFFFFFFFFFFFFFFF7A
:2006A000FFFFFFFFFFFFFFFFFFFFFFFFFFFFFFFFFFFFFFFFFFFFFFFFFFFFFFFFFFFFFFFF5A
:2006C000FFFFFFFFFFFFFFFFFFFFFFFFFFFFFFFFFFFFFFFFFFFFFFFFFFFFFFFFFFFFFFFF3A
:2006E000FFFFFFFFFFFFFFFFFFFFFFFFFFFFFFFFFFFFFFFFFFFFFFFFFFFFFFFFFFFFFFFF1A
:20070000FFFFFFFFFFFFFFFFFFFFFFFFFFFFFFFFFFFFFFFFFFFFFFFFFFFFFFFFFFFFFFFFF9
:20072000FFFFFFFFFFFFFFFFFFFFFFFFFFFFFFFFFFFFFFFFFFFFFFFFFFFFFFFFFFFFFFFFD9
:20074000FFFFFFFFFFFFFFFFFFFFFFFFFFFFFFFFFFFFFFFFFFFFFFFFFFFFFFFFFFFFFFFFB9
:20076000FFFFFFFFFFFFFFFFFFFFFFFFFFFFFFFFFFFFFFFFFFFFFFFFFFFFFFFFFFFFFFFF99
:20078000FFFFFFFFFFFFFFFFFFFFFFFFFFFFFFFFFFFFFFFFFFFFFFFFFFFFFFFFFFFFFFFF79
:2007A000FFFFFFFFFFFFFFFFFFFFFFFFFFFFFFFFFFFFFFFFFFFFFFFFFFFFFFFFFFFFFFFF59
:2007C000FFFFFFFFFFFFFFFFFFFFFFFFFFFFFFFFFFFFFFFFFFFFFFFFFFFFFFFFFFFFFFFF39
:2007E000FFFFFFFFFFFFFFFFFFFFFFFFFFFFFFFFFFFFFFFFFFFFFFFFFFFFFFFFFFFFFFFF19
:200800007B4AFFFF0000005C41414141FFFFFFFFFFFFFFFFFFFFFFFFFFFFFFFFFFFFFFFFC9
:20082000000102030405060708090A0BFFFFFFFF020B01021996FFFFFFFFFFFFFFFFFFFFC5
:20084000FFFFFFFFFFFFFFFFFFFFFFFFFFFFFFFFFFFFFFFFFFFFFFFFFFFFFF021D94FFFF02
:20086000FFFFFFFFFFFFFFFFFFFFFFFFFFFFFFFFFFFFFFFFFFFFFFFFFFFFFFFFFFFFFFFF98
:20088000FFFFFF021A0CFFFFFFFFFFFFFFFFFFFFFFFFFFFFFFFFFFFFFFFFFFFFFFFFFFFF4D
:2008A000FFFFFFFFFFFFFFFFFFFFFFFFFFFFFFFFFFFFFF0217F301FF0000B400002800283B
:2008C00000283075A000A000A000A00000080008E001F0001000100010001000100010008A
:2008E00050005000500010001000D0070000000000000F000100050030750700100001003F
:2009000081FF00000000FFFFFFBE1FDC1FC41FFA1FFF02020208025000A0000000E803029A
:2009200003B2010000FBB10207B201000090180221B2010000C3020207B2010000911802EF
:200940000FB2010000D9020207B201000092180211B2010000DB020207B201000093180288
:2009600013B2080000DC020207B201000094180215B20100009518FF0100FF200203B20116
:200980000000FEB10207B2010000F9180217B20000000000020BB20300000A031700FA250B
:2009A000FA25FA25FA25FA25FA25FA25FA25FA25FA25FA25FA25FA256A287C2864280202FD
:2009C00003B2010000F5B10207B201000026B20219B20100003EB10207B201000025B202D5
:2009E00023B2010000A8B00207B201000028B2021DB2010000D2B00207B20100003C1902CC
:200A00001FB20100006AB11C0203B2010000F8B10207B201000085191030B00200006907B0
:200A2000020BB20300006B070209B201000031B10207B201000085191040B00200006A0715
:200A4000020BB20300006D070209B20100004AB1FFFFFFFF000130750302010600000000F9
:200A6000000000000000000000000000000000000000000000000000FFFF0600800CE803FB
:200A8000E5C754F84405F5C779012200000080FB120A80B90003020AEBE479437808B8001B
:200AA000028004F709D8FCE4794B7802B800028004F709D8FCE490028078B579168002F084
:200AC000A3D8FCD9FA7A347B189008B678CB79028015E493A3AD82AE838A828B83F0A3AA19
:200AE00082AB838D828E83D8E9D9E775821F7583E67407120B1375828B75830A7400120BF1
:200B00001375D00075817F754180754202759F00020A90C09FF59FE473D09F22D083D082E9
:200B2000C09FE493C0E0740193C0E0740293F59F22E066701008A3E066700A08A3E0667046
:200B40000408A3E06622C3E7960809E7960809E7960809E79622C3E09608A3E09608A3E08D
:200B60009608A3E09622C021C3E096F52108A3E096422108A3E096422108A3E0964521706D
:200B800001D3D02122080808EAC0E0EBC0E086F0E7A4FA180986F0E7A42AFA180986F0E782
:200BA000A42AFA180986F0E7A42AFA1986F0E7A4FBE5F02AFA190886F0E7A42BFBE5F03AC2
:200BC000FA190886F0E7A42BFBE5F03AFA18180986F0E7A4C5F02BFBE43AFA1908E7C5F0E0
:200BE000C6A426F6E5F03BFBE43AFA1886F0E7A4F6E5F00826F6E43B08F6E43A08F6D0E05B
:200C0000FBD0E0FA22E4CFC0E0E4CEC0E0E4CDC0E0E4CCC0E075F020E626F608E633F60821
:200C2000E633F608E633F6181818EC33FCED33FDEE33FEEF33FFC3EC9709ED9709EE970964
:200C4000EF97191919400FFFEC97FC09ED97FD09EE97FE191906D5F0BFECF709EDF709EE5D
:200C6000F709EFF7191919D0E0FCD0E0FDD0E0FED0E0FF226016080808C6C313C618C6138A
:200C8000C618C613C618C613C6D5E0EA227009080808226016181818C6C333C608C633C6A5
:200CA00008C633C608C633C6D5E0EA22E627F60809E637F60809E637F60809E637F622E074
:200CC00026F608A3E036F608A3E036F608A3E036F622E026F008A3E036F008A3E036F00851
:200CE000A3E036F022C3E697F60809E697F60809E697F60809E697F622C3E0C696F608A3A5
:200D0000E0C696F608A3E0C696F608A3E0C696F622C3E096F008A3E096F008A3E096F00872
:200D2000A3E096F022E056F608A3E056F608A3E056F608A3E056F622E056F008A3E056F0BE
:200D400008A3E056F008A3E056F022E0F608A3E0F608A3E0F608A3E0F622E6F008A3E6F0FD
:200D600008A3E6F008A3E6F022E0FAA3E0FBA3E0FCA3E0FD22E0FCA3E0FDA3E0FEA3E0FF77
:200D800022ECF0A3EDF0A3EEF0A3EFF022E0F8A3E0F9A3E0FAA3E0FB22E8F0A3E9F0A3EA5E
:200DA000F0A3EBF022CAC0E0E6F0A308DAFAD0E0FA22CAC0E0E0A3C582CCC582C583CDC5F7
:200DC00083F0A3C582CCC582C583CDC583DAE6D0E0CA22C3E498F8E499F9120E148026C3A0
:200DE000E49AFAE49BFBE920E7E9120E14E498F8E499F922C3E498F8E499F9120E14E4988B
:200E0000F8E499F9C3E49AFAE49BFB22EB20E7CFE920E7E0B90010BB0008E88AF084F8AAE8
:200E2000F022E4FBC8FA22EB70227B10C833C8C933C9335007C39AC3DBF280069A50012A3B
:200E4000DBEAC833F4C8C933F4C9FA2275F008E4C833C8C933C933C99AC99B5004C92AC95E
:200E60003BD5F0ECFBC833F4C8E4C9FA22600D08C6A2E713C618C613C6D5E0F322600C0879
:200E8000C6C313C618C613C6D5E0F422700422600D18C6C333C608C633C6D5E0F418222502
:200EA0004110AF08F541400C15428008F54140021542D2AF2200C0D0254110AF08F5415014
:200EC0000C05428008F54150020542D2AFD0D0222541F58210AF08F541400C15428008F52B
:200EE0004140021542D2AF854283222541F582E43542F583222541F8E43542F9222541FA25
:200F0000E43542FB222541FCE43542FD22E4732541C582C0E0E54234FFC583C0E0E541C3AE
:200F2000958224F810AF088583428582418008858342858241D2AFCEF0A3E520F0A37821F8
:200F4000E608F0A3DEFAEFF0A3E58124FAF8E608F0A3E608F0A3E608F0A30808E608F0A326
:200F6000E608F0A315811581D0E0FED0E0F8158115811581E8C0E0EEC0E0222541C582C007
:200F8000E0E54234FFC583C0E0E541C3958224F910AF0885834285824180088583428582E0
:200FA00041D2AFCEF0A3E520F0A37821E608F0A3DEFAEFF0A3E58124FBF8E608F0A3E60816
:200FC000F0A30808E608F0A3E608F0A315811581D0E0FED0E0F815811581E8C0E0EEC0E0A8
:200FE00022854283854182E0A3FEE0A3F5207821E0A3F608DFFAE0A3FFE0A3C0E0E0A3C049
:20100000E0E0A3C0E0E0A3C0E0E0A3C0E010AF088582418583428008858241858342D2AF93
:20102000D083D082020B19854283854182E0A3FEE0A3F5207821E0A3F608DFFAE0A3FFE0E5
:20104000A3C0E0E0A3C0E0E0A3C0E0E0A3C0E010AF08858241858342800885824185834271
:20106000D2AFD083D08222C0D02541C582C0E0E54234FFC583C0E0E541C3958224F310AF33
:20108000088583428582418008858342858241D2AFC8F0A3E9F0A3EAF0A3EBF0A37921E7C8
:2010A00009F0A3D8FAECF0A3EDF0A3EEF0A3EFF0A3D0E0F0A3D0E0F0A3D0E0F0A3E520F002
:2010C000A3E5F0F0A322854283854182E0C0E0A3E0F9A3E0FAA3E0FBA37821E0F608A3DFBE
:2010E000FAE0FCA3E0FDA3E0FEA3E0FFA3E0C0E0A3E0C0E0A3E0F5D0A3E0F520A3E0A3F556
:20110000F010AF088583428582418008858342858241D2AFD082D083D0E0F8D0E032740444
:201120008006740280027401C0E0F404120ED0D0E0120DA5227404800474028000CCC0E040
:20114000EDC0E0E541C39CCCAD4250011D10AF068C418D4280068C418D42D2AF120DB2D0AF
:20116000E0FDD0E0FC22D083D082E9C0E0E493A3C386F0C5F095F0F908E493A386F0C5F0C3
:2011800095F0700BE493A3C3994005E9048002A3E475F002A42582F582E5F03583F583D0A0
:2011A000E0F9E493A3C0E0E493C0E022D083D082ECC0E0EDC0E0E493A3FCE493A3FDED4C3F
:2011C000600D1211F8EC24FFFCED34FFFD80EFE493A3FCE493A3FDED4C600D121237EC24B2
:2011E000FFFCED34FFFD80EFD0E0FDD0E0FCE493A3C0E0E493C0E022C0E0C3E49396087430
:2012000001939618400FE49366700808740193661870007019A3A3C3E493960874019396A5
:2012200018A3A3400DD0E0D0E0D0E00211E8A3A3A3A3A3A3D0E022C0E0C0F088F0E49366AF
:2012400070080874019366187000A8F0A3A3700BD0F0D0E0D0E0D0E00211E8A3A3D0F0D01E
:20126000E022FFFF74F6120F7BEAFEEBFF8C218D22EA2434F8E43FF9E8FCE9FDEA243512C5
:20128000160BFAEE243712160BF88521F0A4C885F0238522F0A42523F9EA28F8E439F97A0F
:2012A000257B00120E14EA8C828D83F0FA131313541F1215FF245DF582E439F583E0C0E089
:2012C00074075AF8D0E0B800028004C313D8FCA2E0EE50082434F582E43F801424361216D9
:2012E0000BF5F0EA84A8F01216002438F582E439F583E0F97F0302102774F7120F7BEAFEE5
:20130000EBFFEA243412160BC0E0EA2435F582E43FF583D0E0F08A828B83A3A3A3A3A3A3ED
:20132000A3C082C0838A828B83A3A3A3A3A3E0F8A3E0F9D083D082E0C398F521A3E099F5E1
:2013400022EA248012160B6401703EEA2481F582E43FF583C082C0838A828B83A3A3A3A3CB
:20136000A3E0240108A3E03400F9D083D082E0687003A3E06970127CB27D0412253AEE240D
:2013800080F582E43FF583E4F0AC21AD22EEFAEFFB121264E9F9121D867F02021027C0825E
:2013A000C083854182854283E0F8A3E0F9C3EA9CEB9D5010C3EC98ED99401BC3EA98EB99E2
:2013C0005014800EC3EA98EB994007C3EC98ED994004790180027900D083D08222EAC39C75
:2013E000FAEB9DFB2274EF120F7B900372E064086005E06407702A9061C8E060249003A064
:20140000E0F4601DE0F875F010A4C8AAF02AF974A228FE740339FF8E82F583A3A3A3E07059
:20142000030214FE906060E0C0E0EE2468F582E43FF583D0E0F07525237526057521007531
:201440002200E5D914F523E5D95403F527602F74036527601DE5236008EE246712160B60C4
:201460001D90051EE06401602C121608601278048010121608602CE523C3940550258063A5
:201480007800E523C398FA95E0FB1224028A218B22EA4B7005122756806412160870048A2C
:2014A000258B26E5236012852582852683F524E5D9F0A31524E52470F6121608604574FC2B
:2014C0002523F5237825121122AC23A927EEFAEFFB1225F47402120EB5E97027AA21AB22CB
:2014E000122A6E793D8E828F83A3A3A3A3E0FA7B00122276EEFAEFFB12255E1226067900C1
:201500000215FA740365276053E523F529752A007829121122AC25AD26AA21AB221225B82E
:201520007402120EB5EE246812160B64807004747F8001E0F5257825121126E527F5257869
:2015400025121126A923AC21AD229003A0E0FA7B0012224C7402120EB50215F585258285A5
:201560002683E0C3940E5011E0F8742328F582E434B1F583E065236069852582852683E062
:20158000C0E0EE24F7F582E43FF583D0E0F0A2AFE433FCC2AF7A0080010AEE246E12160B63
:2015A000F8EAC3985013EA1215FF246AF582E439F583E0640770E28022EE246EF8E43FF90E
:2015C000E0FAEE2AFAE43FFBEA246AF582E43BF5837407F088828983E004F0ECA2E092AF77
:2015E0008013900372E06408600BAC25AD26EEFAEFFB12267E12276279017F0A021027F8A1
:20160000EE28F8E43FF9E822EE2484F582E43FF583E02274F1120F7B74FC120E9FEAFEEBE9
:20162000FF8922752600A2AFE433F521C2AF9004BAE0FA9061D0E0F8748098F895E0F9C300
:20164000EA98E499A2D265D03340030216FD7526010216FDE0601B7823121122AC27A928C7
:20166000EEFAEFFB1225EE7402120EB574042527F52774012527F5D98528D9E52760128530
:201680002382852483F525E0F5D9A31525E52570F675E195EE2463F8E43FF97A007B00A259
:2016A000AFE433F523C2AF88828983E0FCA3E0FDEC4D603A88828983E0FAA3E0FB8C82F525
:2016C00083E0FCA3E0FD88828983ECF0A3EDF08A828B83E4F0A3F088828983E0FCA3E0FDC6
:2016E000EC4D700A88828983A3A3E4F0A3F0E523A2E092AF122A6E9004B9E004F0EE246369
:2017000012160BF8A3E0F9E8496063EE246312160B2402F8A3E034008882F583E5822402A2
:20172000F523E43583F524E0F527A3E0F528EE246212160B640170369061D0E0F8121608C5
:2017400060047C0480027C007480C398FA95E0FBE5272CF8E43400F9E82402F8500109C38A
:20176000EA98EB99A2D265D03340030216549061D0E0F87480C3989004BAF0E52660539064
:2017800004B9E0604D9004BBE0F89004B9E0C398500C74026522703A9004BCE060348E8279
:2017A0008F83A3A3A3A3E08541828542831217E27402120EEBE81217E29004B8E028F074E2
:2017C00002120F05AA41AB42790112229A9004B9E4F0E521A2E092AF7404120EB57F080201
:2017E0001027F0A3E4F09004B9E0F8228543878544C622C0E074EB121067A2AFE433F521FE
:20180000C2AF759B00906182E0A2E0502DE591A2E050277591FE74016543701E12196A1230
:201820001981121135121B357404120EB5E96401700579011226FC1213E5906182E0A2E5B2
:20184000505AE591A2E550547591DF900372E064076005E06408702C12196A740165437099
:201860003B121981121135121B357404120EB5E96401700579011226FC7901EEFAEFFB12AB
:2018800016138018E0640D7013900394E004F064287002E4F07A00E0F9122768906182E09F
:2018A000A2E6400302193FE591A2E6400302193F7591BF900372E0640570081226A81226C5
:2018C000B480031226AE754300122708E9900373F079001226FC1224B07A017B0090037186
:2018E000E0F9122A38907803E064427052900522E014F0704AC2AF1218FA00784CD0E0F6F4
:2019000018D0E0F6E59F540770047BFF80027B7FC4C0E0784BE6F52308E65BF524740B7842
:2019200023120E7DD0E02523F8906270E0A2E740F8E8C333906272F0906270E0D2E0F0904E
:201940006181E0A2E35009E5E9A2E3500375E9F7A3E0A2E75009E591A2E7500375917FE5CB
:2019600021A2E092AF7F080210C69003A0E0F875F010A4C8AAF02AF974A228FE740339FF90
:20198000221226C08E828F83E0F8A3E0C82416F582E438F58322C0E0C0D0C082C0839061DB
:2019A00083E0A2E05009E5BFA2E0500375BFFEE0A2E15009E5BFA2E1500375BFFDE0A2E273
:2019C0005009E5BFA2E2500375BFFBE0A2E35009E5BFA2E3500375BFF7E0A2E45009E5BF3C
:2019E000A2E4500375BFEFE0A2E55009E5BFA2E5500375BFDFE0A2E65009E5BFA2E650035A
:201A000075BFBFD083D082D0D0D0E032C0E074F2121067E5A7A2E6500FE5A1A2E6500953F0
:201A2000A7BF75A1BF121A60E5A7A2E5500CE5A1A2E5500653A7DF75A1DFE5A7A2E15009D7
:201A4000E5A1A2E1500375A1FDE5A7A2E2500CE5A1A2E2500653A7FB75A1FB7F010210C6ED
:201A600074F7120F7B754301900372E06406701512262A8A828B83A3A3A3A3A3A3E0FAA307
:201A8000E0FB122696A2AFE433FED2AF900378E0640170187A207B00900371E0F9122AE0D0
:201AA0007A207B00900371E0F9122A3E906182E0D2E6F090051FE0602185C64480169003F2
:201AC00077E064017008E5C654F84405F5C653BEFC1217EC7401654360E4EEA2E092AF7F24
:201AE000020210278E458F4685824A858349854182854283E0CEA3E0CF854A82854983EB42
:201B0000C9EAC8EDCBECCA75F010C3E833C8E933C9EA33CAEB33CBC3EA9EF548EB9FF547BE
:201B2000B35004AB47AA48EC33CCED33CDD5F0DAAE45AF462274F1120F7B8A218B228C2331
:201B40008D2490B1D97821120D25740F120EEB7825120D4B90B1D97825120D257821792516
:201B6000120B4690B1B1501078217925120CE57821120B664014800E78257921120CE578C6
:201B800025120B6650047901800279007F0802102774ED120F7B8A218B228C238D2490B11E
:201BA000D97821120D257413120EEB7825120D4B90B1D97825120D2578257921120B464001
:201BC0001178217925120CE5AA21AB22AC23AD248022752900752A00752B00752C017829C0
:201BE0007925120CE578297921120CACAA29AB2AAC2BAD2C7F0C02102790B1D97821120D51
:201C00004B8A828B837821120D387F0402102774F5120F7B8C828D837821120D4B8A828BF6
:201C2000837821120D11121C67C3E09CF0A3E09D121C59402290B1E17821120D4B8A828BCF
:201C4000837821120CD28A828B83A3A3A3A3E02420F0A3E0344EF080A0F088828983C3E000
:201C60009420A3E0944E22EA2404F8E43BF98C828D83A3A3A3A3E0FCA3E0FD8882898322C9
:201C800074F5120F7B9004D5E0FAA3E0FBE929F8E433F974E328F58274B039F583E02AF59A
:201CA00021A3E03BF522782112112290B1C5120D69121AE47402120EB58A218B228C238DD3
:201CC0002474107821120C74AA21AB227F0402102774F1120F7B8A258B268C278D2874118F
:201CE000120EEB1211397411120EEBE02401F521A3E03400F522E4F523F5247825792112A6
:201D00000B8590B1BD7821120D4B78257921120B85AA25AB26AC27AD28121AE47402120E6B
:201D2000B5EA4B60047A0180027A00EC2AFCE43DFD7413120EEBE0F8A3E0F9E8FEE9FFEC0E
:201D4000F8EDF97A717B02120E1488218922E4F523F5248E828F837821120D5AECF8EDF9A2
:201D60007A717B02120E148A218B2274057821120E8C8E828F83A3A3A3A3E521F0A3E52263
:201D8000F07F08021027C082C083E9906000F0D083D08222C0E0C0D0E8C0E0A8A8D2AFC233
:201DA000C7E8A2E792AFD0E0F8D0D0D0E032C2AF02000022120B1CFDE407120B1C68E5073D
:201DC000120B1C6FE607120B1C74E607120B1CA2C907120B1CB5C907120B1CE4C907120B61
:201DE0001C1CCA07120B1C65CA07120B1CA8CA07120B1CEECA07120B1C21CB07120B1C4814
:201E0000CB07120B1C77CB07120B1CAECB07120B1CC7CB07120B1C16CC07120B1C2FCC0786
:201E2000120B1C77CC07120B1C908907120B1C8E8A07120B1CF48A07120B1C178B07120BB1
:201E40001C198B07120B1C578B07120B1CC88B07120B1C888C07120B1CAA8C07120B1C46BD
:201E60008D07120B1C7D8D07120B1CC28D07120B1CCF8D07120B1C3F8E07120B1C898E07F5
:201E8000120B1C8C8E07120B1CD28E07120B1CD58E07120B1CDF8E07120B1C528F07120BBA
:201EA0001C7A8F07120B1CAD8F07120B1CD18F07120B1CCE9007120B1C729107120B1CDEE2
:201EC0009107120B1C1A9207120B1CF5BD07120B1C1DBE07120B1C4ABE07120B1C82BE07A9
:201EE000120B1CE8BE07120B1C32BF07120B1C96BF07120B1CDEBF07120B1C1BC007120B21
:201F00001C49C007120B1CDEC007120B1CE8C007120B1CF5C007120B1C28C107120B1C3444
:201F2000C107120B1C4CC107120B1C56C107120B1C26FF06120B1C3EFF06120B1C55FF06C2
:201F4000120B1C0B9E06120B1CAE9E06120B1CE99F06120B1C92A006120B1C1AA206120BBE
:201F60001C02A306120B1CF9A306120B1C2FA406120B1CD1A406120B1CF7A406120B1CC323
:201F8000A606120B1C09A706120B1C2BA706120B1C97A706120B1C62A806120B1C1CA906CB
:201FA000120B1C28AB06120B1CF6A007120B1CD2A107120B1C7CA207120B1CBDA207120B6C
:201FC0001C44A307120B1CBFA307120B1C92A407120B1CBBA407120B1CAFA507120B1CEC87
:201FE000A507120B1CD4A607120B1C05A707120B1C2BA707120B1C87E007120B1CB2E00704
:20200000120B1CC2E107120B1CC7C507120B1CDDC507120B1CFBC507120B1C0BC707120B00
:202020001C15C707120B1C3FC807120B1C2CC907120B1C98C907120B1C7FF906120B1CACE8
:20204000FA06120B1CE3FA06120B1C3AFB06120B1C32FD06120B1C1CEA05120B1CA3EA0573
:20206000120B1CF7EB05120B1C03EC05120B1C7BEC05120B1C59ED05120B1C55EE05120B4C
:202080001C21EF05120B1C7BF005120B1C91F005120B1CB8F005120B1C2EF105120B1C54D7
:2020A000F105120B1C01F405120B1C06F405120B1C2AF605120B1C71F605120B1CD7F605B1
:2020C000120B1C1DF705120B1CEDF705120B1CA2F805120B1CFEF805120B1C01F905120B2B
:2020E0001C4DF905120B1C89F905120B1CC8F905120B1CEAF905120B1C35FA05120B1CEF04
:20210000FA05120B1CFDFA05120B1C4DFB05120B1C6CFB05120B1CB6FB05120B1CF9FC053E
:20212000120B1C91FD05120B1CBBFD05120B1C26FE05120B1C6AFE05120B1CEDFE05120B8F
:202140001C9CFF05120B1C30B205120B1CCAB205120B1C26B305120B1CE4B305120B1C07BD
:20216000B505120B1C37B505120B1C66B505120B1C1CB705120B1C6FB905120B1CCEBB05E4
:20218000120B1CB7BC05120B1CA7BD05120B1C7ABF05120B1C72C205120B1C8FC305120B56
:2021A0001C89C505120B1C98C605120B1C27C805120B1C13C905120B1C62C905120B1CD259
:2021C000C905120B1CEEC905120B1C3FCA05120B1CDFCE05120B1CF5CF05120B1CADD0054D
:2021E000120B1CE4C107120B1CEEC107120B1C36C207120B1C4AC207120B1CDBC207120B8D
:202200001C12C307120B1C4DC307120B1C76C307120B1CCAC307120B1CDFC307120B1C0114
:20222000C407120B1C16C407120B1C50C407120B1C7CC407120B1C07C507120B1C4AC5078A
:20224000120B1C74C507120B1C9FC507120B1CF1E107120B1CB6E506120B1C8FE606120BA4
:202260001CFEE606120B1C39E706120B1C74E806120B1C26E906120B1CD3EB06120B1C7E5C
:20228000EC06120B1C5FED06120B1CD5EE06120B1C3DEF06120B1C86B107120B1CF1B207FA
:2022A000120B1C2FB507120B1C7AD707120B1C27D807120B1C20D907120B1C5DD907120B5E
:2022C0001C73DB07120B1CD2DB07120B1C6FDC07120B1CA2DC07120B1CD0DC07120B1C0B27
:2022E000DD07120B1C2BDD07120B1CDDAC07120B1C66AD07120B1C25AE07120B1C33AF0761
:20230000120B1C53B107120B1C61CF06120B1C76CF06120B1C41D006120B1C0ED106120BFB
:202320001C7BD106120B1CB6D106120B1C57D206120B1C60D306120B1C38D406120B1CBB50
:20234000D406120B1C44D506120B1CADD506120B1C37D606120B1C84D606120B1CF2D6069E
:20236000120B1C94D706120B1C42D806120B1C62D806120B1CA6D806120B1CEED806120B02
:202380001C0AD906120B1C29D906120B1CA3D906120B1CB1D906120B1C44DA06120B1CAE2F
:2023A000DA06120B1CCCB507120B1C48B607120B1C86B607120B1C6AB707120B1CD9B70791
:2023C000120B1C1DB807120B1C60B807120B1C8DB807120B1CABB807120B1CE3B807120B70
:2023E0001C20B907120B1C41B907120B1CB7B907120B1C008006120B1C948106120B1CD2D9
:202400008306120B1C1A8406120B1C458406120B1C3B8506120B1C6B8506120B1CC285069A
:20242000120B1CEF8506120B1C388606120B1C748606120B1CB98606120B1C068706120B4C
:202440001C6E8706120B1CA08906120B1C678B06120B1CA28B06120B1C208D06120B1C64D7
:202460008D06120B1CD78D06120B1C978E06120B1CB68F06120B1CC78F06120B1CE2EF0699
:20248000120B1C53F006120B1C1CF606120B1C16F706120B1CD8F806120B1C56F906120B63
:2024A0001C16D105120B1C9DD105120B1CCAD105120B1C0CD205120B1C08D305120B1C4DD4
:2024C000D305120B1CC9D405120B1C51D505120B1CC4D505120B1C81D605120B1C3DD70527
:2024E000120B1CBDD705120B1C8BD805120B1CB1D805120B1C23D905120B1CC7D905120B6D
:202500001CECD905120B1C58DA05120B1CBEDA05120B1CF4DA05120B1C98DB05120B1C3168
:20252000DC05120B1CB4DC05120B1C20DD05120B1C6CDD05120B1CD2DD05120B1C03DE051E
:20254000120B1CB7DE05120B1CCDDF05120B1C16E005120B1C33E005120B1C13E605120BE5
:202560001C5BE605120B1C48E705120B1C6DE705120B1C82E705120B1CEAE705120B1C2AE1
:20258000E805120B1C3DE905120B1CEAE905120B1C008007120B1C4B8007120B1C578007F7
:2025A000120B1C228107120B1C388107120B1C748107120B1CAD8107120B1CE58107120BD9
:2025C0001C3B8207120B1C518207120B1C8D8207120B1CA08207120B1CC78207120B1CFB9A
:2025E0008207120B1CCF8307120B1C5E8507120B1C5A8607120B1C638707120B1CF33F00E8
:20260000120B1CCC8F06120B1C079006120B1C0B9306120B1C5D9406120B1C229506120B2A
:202620001C1C9806120B1C069906120B1C519906120B1C6B9906120B1CA89906120B1CB30E
:202640009906120B1CF29906120B1CFB9906120B1CBC9A06120B1C799B06120B1CDC9B06A0
:20266000120B1C409C06120B1CC19C06120B1C442B00120B1CA02E00120B1CA62E00120BCA
:202680001CE73500120B1CBF3A00120B1CDFCC07120B1CA9CD07120B1CEDCD07120B1C27D5
:2026A000CE07120B1CB9CE07120B1C28CF07120B1C31CF07120B1C3DCF07120B1C51CF075B
:2026C000120B1C75CF07120B1CA5CF07120B1CD4CF07120B1CE1CF07120B1CFBCF07120BC8
:2026E0001C2ED007120B1C6BD007120B1CD1D007120B1CE6D007120B1CF1D007120B1CFE2F
:20270000D007120B1C15D107120B1C23D107120B1C2ED107120B1C3AD107120B1C49D107A4
:20272000120B1C54D107120B1C74D107120B1C84D107120B1C9AD107120B1CB8D107120B89
:202740001CC3D107120B1CD8D107120B1CECD107120B1C4DD207120B1C53D207120B1C5986
:20276000D207120B1C5FD207120B1C71D207120B1C3AAB06120B1CC8AB06120B1CA4AC0627
:20278000120B1CD8AC06120B1CEBAC06120B1C65AD06120B1CEDAE06120B1C14AF06120B56
:2027A0001C9BAF06120B1CDAAF06120B1CEBAF06120B1C60B006120B1C7FB006120B1C977F
:2027C000B006120B1CDBB106120B1CE5B306120B1C17B606120B1C1DB706120B1C60B7062C
:2027E000120B1CD0C306120B1CDAC306120B1CFCC306120B1C08C406120B1C55C506120BAC
:202800001C82C506120B1CA3C606120B1CE5C606120B1C2BC806120B1C8CC806120B1CC1FE
:20282000C806120B1CFAC806120B1CA5CC06120B1CBCCC06120B1C3ACD06120B1C48CD06B8
:20284000120B1C91CD06120B1C9FCD06120B1C20CE06120B1C8FCE06120B1CDBCE06120B62
:202860001CD1DA06120B1CF3DA06120B1CCFDC06120B1C47E006120B1C91E106120B1C73D2
:20288000E206120B1C39DD07120B1C5EDD07120B1CCFDD07120B1CA09907120B1CA9990798
:2028A000120B1CB29907120B1CD69A07120B1CC79C07120B1CF59C07120B1C209D07120B4F
:2028C0001C4E9D07120B1C799D07120B1CB79D07120B1CE39D07120B1C209E07120B1C4BBE
:2028E0009E07120B1C979E07120B1CEE9E07120B1C2E9F07120B1C7D9F07120B1CA89F0702
:20290000120B1CEE9F07120B1C1CA007120B1C47A007120B1C6AA007120B1C79E707120BC0
:202920001C83E707120B1C93E707120B1CEADE07120B1C11DF07120B1CAEFF05120B1C5F95
:20294000D507120B1CAFD507120B1C1ED607120B1CC2D607120B1CE1D607120B1C2FD7078E
:20296000120B1CE5FF06120B1CF0FF06120B1CBBE707120B1CBFE507120B1CCFE507120B2F
:202980001CD8E507120B1C1CE607120B1C05E307120B1C88E307120B1CEEE307120B1C40B8
:2029A0009207120B1CBF9207120B1CD69207120B1C9E9307120B1C709407120B1CF29507C9
:2029C000120B1CB29607120B1C169807120B1C9C9807120B1C12E707120B1C24E707120B6C
:2029E0001C9BA707120B1CA5A707120B1CE5A707120B1C2EA807120B1C66A807120B1CBCC1
:202A0000A807120B1CD9A807120B1CE2A807120B1C27A907120B1C50A907120B1C65A907E5
:202A2000120B1CD5A907120B1C62AA07120B1CB6AA07120B1CD9AA07120B1C58AB07120BC9
:202A40001C93AB07120B1CC8AB07120B1CDAAB07120B1CF6AB07120B1CFFAB07120B1CB1E8
:202A6000AC07120B1C77E607120B1C513E00120B1CA23E00120B1C2B3F00120B1C953F0075
:202A8000120B1CA4D207120B1CCCD207120B1CC1D307120B1CE6D307120B1C75D407120B2F
:202AA0001C07E407120B1C77D907120B1CADD907120B1CE0D907120B1C39DB07120B1CFE2E
:202AC000B907120B1C14BA07120B1CB8BA07120B1CF7BA07120B1C14BB07120B1C45BB0736
:202AE000120B1C92BB07120B1CC5BB07120B1C00BC07120B1CADB706120B1C41BB06120B92
:202B00001C98BB06120B1CB7BB06120B1C14BC06120B1C91BD06120B1C64BE06120B1C2633
:202B2000C206120B1C0EC306120B1CCCE607120B1C4DE707120B1C9DE707FFFFFFFFFFFF99
:202B4000FFFFFFFF74F6120F0F907803E064427052900522E014F0704AC2AF122B5E0078B3
:202B60004CD0E0F618D0E0F6E59F540770047BFF80027B7FC4C0E0784BE6F52108E65BF5FB
:202B800022740B7821120E7DD0E02521F8906270E0A2E740F8E8C333906272F0906270E0F9
:202BA000D2E0F09003A0E0F47003022E59123556EE123A5FE06401700AEE24F6123A0CF922
:202BC000022DBE123A0964027002E4F0EE24031235C3601CEE2403F582EF3401F5831234FE
:202BE000C0EE2402F582EF3401F583E0F9122A388E828F83A3A3A3A3A3A3A3122E931234F1
:202C000091906054E0900379F0906055E090037AF0906056E090037BF0906057E090037C87
:202C2000F0906058E090037DF0906059E090037EF090605AE090037FF090605BE0900380E8
:202C4000F090605CE0FC900381F090605DE0FB900382F090605EE0FD900383F090605FE0CB
:202C6000FA900384F090037FE02CF8E43400F9E82DF8E439F9E82BF8E439F9E82AFAE439BF
:202C8000FBEE24F8123A0C2AF0A3E03BF0EE24FAF582E43F122E88EE24FC1235B860529052
:202CA0006000E0FC25E0FCE433FDE82CF582E93DF583E02AF0A3E03BF0906000E0FA900395
:202CC00081E0FCEA2AFAE433FBE82AFAE93BFBEA244AF582E43B122E88906000E0FA25E0C7
:202CE000FAE433FBE82AF8E93BF9E82494122E75F090037FE0700E900382E07008A3E0708C
:202D000004A3E060518E828F83A3A3A3A3A31235D0122E687003123E2F90037AE0601CEE22
:202D2000241C1239FB123DD6E07010123A09700BEE2480123A0C7003123E2FEE2483123AFB
:202D40000C7003022DD46402707E900382E07078122E5EE4807D123476F0900381E0600A37
:202D6000122E68702712352E8021EE24FE1235B8601A906000E0F825E0F8E433F9EEF5823B
:202D8000EF34011234A724DE122E75F0123468122E93E0687003A3E0696003022D19EE2496
:202DA0000F123A0C60128E828F83A3A3A3A3A3E064057002A3E0600479088002793EEEFAA5
:202DC000EFFB122564022E59900382E07006122E5E7402F0906062E060248E828F83123A52
:202DE00096E82406FCE439FDE82402FAE439FB1226BA8E828F83123520E4F0A38006123437
:202E000076123497F0906060E0C0E0EE2468F582E43FF583D0E0F09061C8E060061213E56A
:202E2000E970F48E828F83A3A3A3E0602C9061C8E070069060607480F0EEFAEFFB122684FD
:202E4000E9640160147902EEFAEFFB121613122678E9640160031226067F02020FE1EE2404
:202E600083F582E43FF58322EE240F123DBA12349CE0640122F582E439122E7D22F583E05D
:202E80002401F0A3E0340022F583E02CF0A3E03400F022123A9A8E828F83A3A3A3A3A322AE
:202EA00053BFEF020B1974F0120F0F9003A01235569061D0E0700CEE2463F582E43F123514
:202EC000C860051234768020EE2469123A0C7019123A097014EE2480123A0C700CEE241CA0
:202EE000123A59700412352EF08E828F83A3A3A3A3A31234B81234611234A72401085001F3
:202F000009EE2407F521E43FF52285218212348F123468C3E098A3E09950208E828F83A308
:202F2000A3A3A3A3A3A3C082C083123468123A96D083D082123E48501B8021123468C08271
:202F4000C0838E828F83A3A3123A91D083D082123E3450089004BEE0640170031235A0EE89
:202F60002474123A59704E12345612113912357C120EB5E9603F8E828F83A3A3A3A3A3A34A
:202F8000A3C082C083123502D083D082E0687003A3E069700302303BEE2475123A0C6870DD
:202FA00003A3E069700302303BEE2475F523E43F8523828051EE2480123A59707EEE2481CD
:202FC000F582E43FF58312113912357C120EB5E960698E828F83A3A3A3A3A3A3A3C082C0A0
:202FE00083123502D083D082E0687003A3E069604AEE2481123A0C687003A3E069603CEED3
:203000002481F582E43FF583E024FFFAA3E034FFFB852182852283EAF0A3EBF08E828F837F
:20302000A3A3A3A3A3E0FCA3E0FD1213DDEA24FFF8EB34FFF9EE241D12348BEE2483123A06
:203040000C60031235A0EE2474123A5960030231A2123456C082C083123502D083D082E0C8
:20306000687003A3E06960030231A2EE2475F523E43FF524852382F583123A968521828545
:203080002283123491EE2477FCE43FFDEEFAEFFB122570EE247C1234B2123543E8F0A3E922
:2030A000123497123A86240F123A338521828522831235D08E828F83A3A3A3A3A3E0FCA376
:2030C000E0FD8523828524831234C01213DD8A218B221234401234C0E4F523F5248A258B82
:2030E00026F527F52878217925120B85EE247812348178217925120CACEE247A123A0C6AF8
:203100007003A3E06B70181234F3E0687003A3E069700C1234D7E0687003A3E0696043EE15
:20312000247EF582E43FF583123AA0120E7D7825121122EE247CF582E43FF583121139EE86
:20314000247A123A0CFCA3E0C313FDEC13FC8E828F83A3A3A3A3E0FA7B00122294740412D7
:203160000EB5EE2477123A0CC0E0EE242BF582E43FF583D0E0F0EE247A1234B2242E123400
:203180008B1234D71234911234F3123491EEFAEFFB122576EE2474F582E43FF5837402F023
:2031A000800312356A12344A120B317014EE241F123A0CF8EE241D123A0C687002A3E060B4
:2031C00032EE2412F525E43FF5267825121122EE2410F582E43FF583121139123460F583B1
:2031E000121139AA21AB22AC23AD24121CD17406120EB512344A120D5AEE241D123A0CC09D
:20320000E0EE241FF582E43FF583D0E0F0EE2412FCE43FFD1234C6906062E060077C647DA9
:20322000B11234C68E828F83123A968882F583A3A3E82408FCE439FD7406120DB28E828FF1
:2032400083E02402F8A3E03400F9E8FAE9FBEE241D123481E4F527F52890B1DD7825120C8B
:20326000BF78257921120B858A828B837825120CD290B1D97825120D4B8A828B8378251225
:203280000D389004B7E0640160030233BC79011226FC1234BCEA240EF582E43BF58374FFB8
:2032A000123DE8EA2412F8E43BF9E8FAE9FBEE2412F582E43FF5837821120D4BE52175F03D
:2032C000E2A4C521A8F075F004A428F875F0E2E522A428F5228A828983E02521F0A3E035A6
:2032E00022F0EE2416123A0CF521A3E0F52274047821120E7DE5212401F8E43522F98A827B
:203300008B83E028F0A3E039F0906062E08E828F837003023418123519F0A3E03401F0EE00
:20332000240F123A0C602CEE242B123A0CF875F071A4C8AAF075F002A42AF98E828F83E0DD
:20334000FAA3E0CA2412F582E43AF583E028F0A3E039F01234BC8A82F583A3A3C082C083EE
:2033600012356AD083D0827821120CBF90B1F17821120CBF90B1D97821120D25EA2416F5C9
:2033800082E43BF5837821120D5AEA2414F582E43BF5837410F08E828F83E0F8A3E0C824F5
:2033A0001AF582E438F58374ECF0A37424F0EEFAEFFB1212F979007F08020FE190B1AD7826
:2033C00021120B6650030232921234601235C86003023292782112111EEEFAEFFB12257CF3
:2033E0007404120EB5E964016003023292EE240F123A0C60128E828F83A3A3A3A3A3E06489
:20340000057002A3E0600479088002793EEEFAEFFB1225647901809F123519F8A3E034FF80
:20342000F97A717B02120E1488218922123440123A96C3E52198E52299500302331F80C74C
:20344000EE242EF582E43FF58322EE2418F582E43FF583782122EE2475F582E43FF5832246
:20346000EE241DF582E43F2212346C22EE240BF582E43FF5832212347A2212354CE4F0A350
:2034800022123A10F525A3E0F52622F582E43FF583E8F0A3E9F02212349CE422F0EE241C46
:2034A000F582E43FF58322F583E028F8A3E039F9E822F582E43FF5831234EC228E828F8319
:2034C000E0FAA3E0FB228E828F83E02402FAA3E03400FB121C0F22EE247C1234E62430F53C
:2034E00082E43FF58322F582E43FF583E0F8A3E0F9EE22EE247E1234E62432F582E43FF576
:203500008322123506228E828F83A3A3A3A3A3E02401F8A3E03400F922123520E0241022DA
:20352000E0F8A3E0C82412F582E438F5832212353222EE123543E0F8A3E0F912354CE8F033
:20354000A3E9222420F582E43FF58322EE241DF582E43FF58322E0F875F010A4C8AAF02A65
:20356000F974A228FE740339FF22EE242E123A10F521A3E0F522E4F523F524228E828F83A0
:20358000A3A3A3A3A3A3A3E0FCA3E0FD8E828F83A3A3A3A3A3E0FAA3E0FB12139E74022256
:2035A00012347AF01235068E828F83A3A3A3A3A3A3A3E8F0A3E9F022F582E43F122E7DF0BA
:2035C000EE2400F582EF3401F583123A9AE849221234EC240D123A1028F8A3E039F91234B3
:2035E0006CE8F0A3E9F02274EC120F0FEAFEEBFF8C828D83E0F8A3858223858324603B14E9
:2036000070030237391470030239B214700302377224FD700302388C1470030239E114709E
:20362000030238B824FE70030238921470030238B214700302394D0239D1EA2477F529E41F
:203640003FF52AE0852982852A83123A77EA2478F527E43FF5287902AC23AD24AA27FB122C
:2036600039F0247AF525E43FF5267902AC23AD24AA251239EC7902AC23AD24EE247C123A15
:2036800004247EF521E43FF52279021239E6852982852A83E0C333F0852782852883123AB6
:2036A000AC852782852883123491852582852683123AAC85258285268312349185218285F9
:2036C0002283123AA0120E8C852182852283E525F0A3E526F0EE2475123A3DC082C083121C
:2036E0003A8DD083D082123AB65070EE247E12356DEE247C123A0C2401F525A3E03400F587
:2037000026E4F527F528EE247AF582E43FF583123A96E828F8E9338829F52AE4F52BF52CCD
:2037200078257929120B8578217925120B464004793B8029EE2474802E7905AC23AD247AA1
:20374000B27B041239F02481123A3DC082C083123A8DD083D082123AB640097928EEFAEF09
:20376000FB0239CCEE24801239FB123A86248302399CEA24E3123A0C703475210078867925
:203780000388828983E0C0E0AA21EE2AFAE43FFBEA24E4F582E43BF583D0E0F005218882C5
:2037A0008983A3A882A983E521C3940840D3EE24E4123A0CA2E0EE401024DFF582E43FF5EC
:2037C00083741AF0790D0238852462123DBA123A68123DCA7401F07908AC23AD24EE249D12
:2037E000123A1824A5123A042495F521E43FF52279081239E67908AA21AB2212258EEE24A1
:2038000089F521E43FF5227904AC23AD24AA21FB1225887904AA21AB2212258EEE248DFABA
:20382000E43FFB1225A0EE2485FAE43FFB1225A6900374E04480F0EE24DE123A59700C79E2
:2038400004EEFAEFFB1225340239E1EE246A123A0C640C702EE0F521EE2469123A0CF52249
:203860007904EEFAEFFB122534740165227010EE2473F582E43FF583E521F079FD8006A9E0
:203880002180027904EEFAEFFB0239DEEA24E002399CEA24621239F524671239F524D412D3
:2038A00039F524DE123A33EA24D5123DC5790B0239DEEA24E102399C752100A823A9247A57
:2038C000547BB17C867D038A828B83E0F4F52288828983E05522F0E521701A852382852421
:2038E00083E0F522900386E05522C0E0EE24E4F582E43F801D8C828D83E0C0E0E521F52553
:20390000EE2525F525E43FF526E52524E4F582E43526F583D0E0F005218C828D83A3AC8222
:20392000AD838A828B83A3AA82AB8388828983A3A882A983E521C39408408CEE2467123A3B
:203940000C604AEEFAEFFB1225100239E1EA24EC123A59607C852382852483E0C0E0EA241D
:20396000EFF582E43FF583D0E0123A777902AC23AD24EA24F0123A1824F2FAE43FFB1225F1
:2039800088EE24EC1239FB123A68E07014EE24F6F582E43FF583743DF0EE24F5123A338082
:2039A00040EE24EE123A0C7038EEFAEFFB122516802FEA24F6F8E43FF9E088828983F0EA11
:2039C000123A5F7401F088828983E0F91225648010EA24F7F582E43FF583E8F07907122517
:2039E000287F0C020FE1AC23AD24AA21123A2A22123A2BEE22123DBAF0EA22F582E43FF504
:203A000083740122123A23EE22EE2474123A1022F582E43FF583E022123A237902AC23AD8F
:203A200024EE22FAE43F123A2A22FB1225888A238B2422F582E43FF5837401F022F521E4D2
:203A40003FF5227902AC23AD24AA21FB12258885218285228322EE2469123A10640122247A
:203A6000F5F582E43FF58322123A6C22F0EE2467F582E43FF58322F0852382852483A38538
:203A8000822385832422F012347AF0EE228E828F83A3A3A3A3A3123A9A22E0F8A3E0F922B4
:203AA000E0F525A3E0F5267404782522123A9AE828F8E933F922123E3D94FFE9947F227460
:203AC000F6120F0FEAFEEBFF8016EEFAEFFB122522E964016003023BF7EEFAEFFB12252E11
:203AE000EE246E123A0C7003023BF7EE246A123A0C24FE603C24FE605D147003023BA61458
:203B00007003023C321460C224FE7003023D0224FE7003023C9B147003023D2314700302D6
:203B20003CCB24117003023BF7147003023D8E80AF123A56701790037BE07003023CE879F6
:203B400016EEFAEFFB1225647901023BF9EEFAEFFB12251C804A123A56703E90037CE07094
:203B600003023CE879FCEEFAEFFB122534EE24A5F521E43FF5227821121122EE249DFCE4F6
:203B80003FFD8E828F83A3A3A3A3E0FA7B001222827402120EB5023AE0EEFAEFFB1224F2CF
:203BA000123DDBE98050123A56702F90037CE06012EE2484123A33EE24D6123DE5EE24DA63
:203BC000123DE5EE24E0123A596003023CE87906EEFAEFFB122534023AE0EE24D4123A592E
:203BE000701AEEFAEFFB1224F8E964017009123DB3123DD67401F07900022E59EE24D512ED
:203C00003A0C60F3EE24B4F521E43FF5227821121122EE248DFCE43FFDEE24C4FAE43FFB6E
:203C20001225AC7402120EB5EE24D41239FBF0023AE0123A56705A90037CE07003023CE82A
:203C4000123E2FEEFAEFFB12252E123DF0EE24DE123A59701379008E828F83A3A3A3A3E050
:203C6000FA7B0012228E80137C0179008E828F83A3A3A3A3E0FA7B00122288EE24DEF5825E
:203C8000E43FF583123DCAE4F0123DC2123DB3809DEEFAEFFB1224FE023BA0123A56700D6A
:203CA000EE24E1123A59704079FC023BD0EEFAEFFB122504E964016003023BF7123DC2EE49
:203CC0002484123DC5EE2469023C2B123A56702890037CE06009EE2484123DC5123DF09039
:203CE000037BE06003023AD9123E021235CA6003023BF77922023B41EEFAEFFB12250A02C6
:203D00003BA0123A56701290037CE060DBEE24E3123A33123E2F023AD9EEFAEFFB12251059
:203D2000023BA0123A567056EE24EC123A597027EE24ED123A596003023AD9123D9F1211D7
:203D400039123DA9121139123E1B790012227C7404120EB5023AD9123E021235CA60030218
:203D60003BF7123D9F121139123DA9121139123E1B792212227C7404120EB5023CF3EE242D
:203D8000EE123A33EEFAEFFB122516023BA0EE2473123A0CF9EEFAEFFB122534023CC5EEB6
:203DA00024F2F582E43FF58322EE24F0F582E43FF58322EE24E0123DBA22F582E43FF58354
:203DC000E422EE24E1123DBAF022E4F0EE24E2F582E43FF58322F0123DDB22EE2469F582A5
:203DE000E43FF58322123DBAF0A3F0A3F0A3F022EE2462F582E43FF5837401123A6C74010A
:203E0000F022EE2471F8E43FF98882F583E024FFF0A3E034FFF08882898322EE24EF123A59
:203E200010FC8E828F83A3A3A3A3E0FA7B0022123532F022123E3D94ABE9941022E0C39810
:203E4000F8A3E099F9C3E822123E3D94AAE994102274F4120F0F8A218B22A2AFE433FEC2F6
:203E6000AFEA2404FAE43522FB122AB0EA4B60288A828B83A3A3E521F0A3E522F0123FDA8D
:203E80008A828B83E8F0A3E9F0900775EAF0A3EBF0EA2404FA50010BEEA2E092AF7F0402B2
:203EA0000FE174F6120F0FEAF8EBF9A2AFE433FEC2AF7C007D00900775E0FAA3E0FB8821D5
:203EC0008922800DEAFCEBFD8A828B83E0FAA3E0FBEA4B604CEA2404F8E43BF9C3E5219806
:203EE000E5229940DF8A828B83A3A3123FDDEA28F582EB39F583A3A3A3A3C3E5829521E5FF
:203F000083952240BF8A828B83123FDDEC4D700590077580048C828D83E8F0A3E9F0122A34
:203F2000B6EEA2E092AF7F02020FE174F4120F0F123F7F6043C3E49521FAE49522FBEE2A97
:203F4000FAEF3BFB8A21F522E82404FCE439FDC3EA9CEB9D402288828983A3A3E0FCA3E06C
:203F6000FDE82CF582E93DF583A3A3A3A3C3E5829521E58395225004EEFAEFFB023E9DEAA3
:203F8000FEEBFF8C218D22122A7A8A238B24A823A924EA4922C082C083123FDAEAFCEBFD60
:203FA000800788828983123FDDE8496022E82404FAE439FBC3EC9AED9B40E7888289831241
:203FC0003FE3A3A3A3A3C3E5829CE5839D40D3E8FAE9FBD083D082020B19900775E0F8A33D
:203FE000E0F922A3A3E0FAA3E0FBE82AF582E93BF58322020B19FFFFFFFFFFFFFFFFFFFFC5
:20400000BD09FFFF0100009C42424242FFFFFFFFFFFFFFFFFFFFFFFFFFFFFFFFFFFFFFFF4B
:20402000000102030405060708090A0BFFFFFFFF0243A8025D9EFFFFFFFFFFFFFFFFFFFF62
:20404000FFFFFF026246FFFFFFFFFFFFFFFFFFFFFFFFFFFFFFFFFFFFFFFFFF0261C2FFFFAB
:20406000FFFFFF02560DFFFFFFFFFF026296FFFFFFFFFF02619CFFFFFFFFFFFFFFFFFFFFF9
:20408000FFFFFF025E14FFFFFFFFFFFFFFFFFFFFFFFFFFFFFFFFFFFFFFFFFF025518FFFF57
:2040A000FFFFFF0261DCFFFFFFFFFF025582FFFFFFFFFF025BFB0273870100005B87027745
:2040C0008701000088871091850300008602027B87030000810202798701000043860277C9
:2040E0008701000087871081850200000000027B870300008302027987010000138600B03A
:20410000010000000F81DD8177811684A4809D8200802B86AB8344844E863E82E8820000B6
:20412000030000010000000000000000140030FF0000B4000028002800283075A000A00027
:20414000A000A00000080008E001F0001000100010001000100010005000500050001000DE
:204160001000D0070000000000000F0001000500307507001000010081FF00000000FFFF08
:20418000FF4366616649667F66FF02020208025000A0000000E80302738701000055870257
:2041A0007787010000511D027D87010000C103027787010000521D027F87010000D7030272
:2041C0007787010000531D028187010000D903027787010000541D028387080000DA030224
:2041E0007787010000551D026587010000561DFF0100FF20027387010000528702778701F6
:204200000000BA1D0261870000000000027B8703000008041700CD6CCD6CCD6CCD6CCD6C96
:20422000CD6CCD6CCD6CCD6CCD6CCD6CCD6CCD6C3D6F4F6F376F02027387010000588702C6
:2042400077870100008A8702638701000046080277870100005786026B870100001F860299
:2042600077870100008B87028587010000A1840277870100008C870269870100004085022B
:204280007787010000FD1D026D870100007E8601FFFF00307503020106000000000000005A
:2042A000000000000000000000000000000000000000000000FFFF0600800CE8030900007A
:2042C000000000000000000100B0423BAAB83F0000003F8C906339AA0CA33A00941E3C8017
:2042E00042633DCFFE753E1572313F0000803FF304353F8096184B000080BF2292D43EDDE0
:204300009B2A3F04000040FFFF7F7FFFFF7FFF010080341872313FC503423F1A51123FF336
:2043200004B53F0000803EE5C754F84404F5C779012200000080FB124327B90003024392A5
:20434000E479437815B800028004F709D8FCE479587802B800028004F709D8FCE4900280E7
:2043600078FE791A8002F0A3D8FCD9FA7A7D7B1C9040B6787279038015E493A3AD82AE83EF
:204380008A828B83F0A3AA82AB838D828E83D8E9D9E77582747583A274051243BA758232BF
:2043A00075834374001243BA75D00075815F754180754202759F00024337C09FF59FE473DC
:2043C000D09F22D083D082C09FE493C0E0740193C0E0740293F59F22A2E792D65002F4048F
:2043E00030F70663F0FF05F0B3400384800384F40430D60563F0FF05F022E066701008A3EB
:20440000E066700A08A3E066700408A3E06622C3E7960809E7960809E7960809E796A2D206
:2044200065D03322C3E09608A3E09608A3E09608A3E096A2D265D03322C021C3E096F52128
:2044400008A3E096422108A3E096422108A3E0964221A2D265D033E5217001D3D02122C3D4
:20446000E7960809E7960809E7960809E79622C3E09608A3E09608A3E09608A3E09622C075
:2044800021C3E096F52108A3E096422108A3E096422108A3E09645217001D3D021220808B6
:2044A00008E630E711124DC01244B6080808C64480C618181822181818E9799EC608CAC643
:2044C00008CBC608CCC6C370207996CACBCC7019798ECBCC70137986CC700EF9802ACA3353
:2044E000CACB33CBCC33CC331930E7F2CCCBCA3350147004EA30E00DE4CA3ACACB3BCBCC47
:204500003CCC500209C3E913C6CC182313C6CB18C6CA18C6F92212455620F01430E72B74E0
:20452000FFFCFBFA747F8022E4FCFBFA7480801AB48008BC00F2BB00EF800F50EBF9E4C395
:204540009AFAE49BFBE49CFCE499C6CC18C6CB18C6CA18C6F922E4C9C608CAC608CBC6D301
:20456000330308CCC63392F0C3947F402E94184019C9B90704CACBCC225025C309CA33CA55
:20458000CB33CBCC33CC33D9F422F4600DC9CCC313CB13CBCA13CAD9F6CC22E4FCFBFA2295
:2045A00014FCFBFA22E62618461846184622E72719471947194722181818E608460870093F
:2045C000E626087005E633F4220822191919E70947097009E727097005E733F4220922E628
:2045E000084608C3134608336002E633F422E7094709C3134709336002E733F4221245DF1C
:2046000060251245EE60201245A570030245AE080808E76670101819E766700A1819E76691
:2046200070041819E76622F4221245DF601C1245EE60171245A570071245AE7001D322C044
:20464000D01245AE7006D0D0B322C32233D0D0501430E0F6C3E7960809E7960809E7960814
:2046600009E796B32220E0D5E6970809E6970809E6970809E697B3221245DF601B1245EE18
:2046800060161245A570071245AE600CB322C0D01245AE7005D0D022C32233D0D0501330D4
:2046A000E0EBC3E7960809E7960809E7960809E7962220E0E4E6970809E6970809E697089E
:2046C00009E69722001245DF604F1245EE6012E7548066F61245B770111245AE703B09092E
:2046E00009F4F618F618F618F6221245CB70151245A508080860EAE6447FF618768018E4CD
:20470000F618F6221245A560161245AE7012E4F608F608F608E65480F60909091818182267
:20472000EAC0E0EBC0E0ECC0E0EDC0E0E687F0A4FBACF008E687F0A42CFCE435F0FA18095E
:20474000E687F0A42C4B60027401CA35F0FCE433FB09E687F0D2F7A42CCB35F0FC1908E61B
:2047600087F0A42BCC35F0FBE433FD0819E687F0D2E7A42C4ACB35F0CD3400FC09E687F04F
:20478000D2E7A42DCC35F0FDE433FA0918E687F0D2F7A42CCD35F0CA3400FC08E687F0D256
:2047A000E7D2F7A42ACC35F07A7E20E70B0ACB33CBCD33CDCC33CC33CB3350147004ED30EF
:2047C000E00ED2F1E4CD3DCDCC3CCC3B5005DA05C2F1EB547FC63308E63392F0FBE73309FF
:2047E000E733C39A502D2B70190C0D4C4D70151806E608C333700D20F10AA2F013F6E418A9
:20480000800B4024E4F630F002768018F618F618F68024D33B14501074FFA2F013F61876CB
:2048200080E418F618F6800FA2F013F618E63303F618ECF618EDF6D0E0FDD0E0FCD0E0FBAB
:20484000D0E0FA221245EE60461245DF603DE9687008F618F618F618F622748067F7124817
:2048600078090909748067F7221245DF601D1245EE7005191919801A1245B7701F1245CB20
:20488000C37003E6673319191940071818182208080874FFF618F618F618F6221245CB6017
:2048A000171245AE702192F01245A57019501720F014080808090909E7F61819E7F618196A
:2048C000E7F61819E7F6221245A560E6E869701F0808E62480F608E436F618547FB47F0CD7
:2048E000E654806007F6E418F618F622181822E9C6CC08C6CD08C6CE08C6CFC0E0E8C0E0B6
:20490000EAC0E0EBC0E009E9F809E7FA09E7FBE6F918E6F8C3EC98ED99EE9AEBC2E7F5F020
:20492000EFC2E795F0500E600CEBCFFBEACEFAE9CDF9E8CCF8EAA2E7D2E7FAEB33FB13F587
:20494000F0EEA2E7D2E7FEEF33FFC5F013A2E730E601B313C5F0C3C0E0C0F07F00C39BFB4A
:20496000605E9418600F401D14601AD0E023F9D0E0F8024A4A8AF0E9486003D2F0E4AFF016
:20498000FAF9F8803BEB30E40D89F0EA6003D2F0E4AFF0F9CAF8EB30E30D88F0EF6002D2F9
:2049A000F0AFF0E4CAC9F8EB54076014FBC3EA13FAE913F9E813F8EF135002D2E0FFDBEDD5
:2049C000D0E0C0E030E739C3E49FFFF5F0EC98FC42F0ED99FD42F0EE9AFE42F0D0E0F9D075
:2049E000E0F8E5F0607AE923F9EE20E742D8028067C3EF33FFEC33FCED33FDEE33FE80EA8E
:204A0000EC28FCED39FDEE3AFED0E023F9D0E0F84002801BC3EE13FEED13FDEC13FCEF1330
:204A20005002D2E0FF08B800067F7F74FF802EEF3350178CF020F00260100CBC000C0DBD69
:204A400000080EBE000408E860DFE933E813FFEE2313FE4F4D4C8008E95480FFE4FEFDFC10
:204A6000EE33EF33F47004FCFD7E80D0E0FBD0E0FAD0E0F8D0E0CFC618CEC618CDC618CC17
:204A8000C6F9221245DF7004181818221245EE700D74FFF61819F61819F61819F622E75424
:204AA0008066F61245A5700F1245AE70F014F608F608F608F680D11245AE700CF608F60868
:204AC000768008E6447F80EC1245CE700C1245BA60BFE65480F6E480BB1245BA700519196B
:204AE0001980A5E869700C763F18768018F618F6E8F922E6CDC0E018ECC0E0E633CD33CDEC
:204B0000D313F6E719FCE7191933CC33C3947F400ECD9D502408E65480F6E418F6800FF443
:204B2000043D14501408E6447FF6187680E418F618F6D0E0FCD0E0FD22CCD313CCFD18E415
:204B4000C6CBC0E018E4C6CAC0E00808ED08C633E613F618E433C675F003C3CA97CA09CBEC
:204B600097CB199C40047D08802EBD0003024C2C16B6FF050606081618C3CA33CACB33CB08
:204B800033CA27CA09CB37CB193CC37D08803E187D0820E75CC633C6CA33CACB33CB33DD97
:204BA000F1D5F0EB30E77BCA97CA09CB974ACB199C406F4B7025E620E0218066187D08C386
:204BC000CA97CA09CB97CB199CD3C633C6CA33CACB33CB3350C9DDE7D5F0E1D3E4C636C66E
:204BE00008C636C608C636C608C636C61818188031C3CA97CA09CB97CB199CB34097C63302
:204C0000C6CA33CACB33CB33DD34D5F02EC6A2E0C640C8CA27CA09CB37194A70BECB3CB4DF
:204C200080B90808E63308E633601F181818D0E0FAD0E0FBD0E0FCD0E0FD22187D08CA27CC
:204C4000CA09CB37CB193CD3808013F618E4B67F11F618B6FF0EF618C60470D20808768050
:204C600080CAF618F618F680C5080808EAC0E0EBC0E086F0E7A4FA180986F0E7A42AFA180D
:204C80000986F0E7A42AFA180986F0E7A42AFA1986F0E7A4FBE5F02AFA190886F0E7A42B45
:204CA000FBE5F03AFA190886F0E7A42BFBE5F03AFA18180986F0E7A4C5F02BFBE43AFA1959
:204CC00008E7C5F0C6A426F6E5F03BFBE43AFA1886F0E7A4F6E5F00826F6E43B08F6E43A44
:204CE00008F6D0E0FBD0E0FA22E4CFC0E0E4CEC0E0E4CDC0E0E4CCC0E075F020E626F6086A
:204D0000E633F608E633F608E633F6181818EC33FCED33FDEE33FEEF33FFC3EC9709ED97C3
:204D200009EE9709EF97191919400FFFEC97FC09ED97FD09EE97FE191906D5F0BFECF70980
:204D4000EDF709EEF709EFF7191919D0E0FCD0E0FDD0E0FED0E0FF22124DC3181818124CA7
:204D6000E9124DAF19191922124DAF191919080808E618181820E7E0124CE9124DC31818B0
:204D80001822090909E719191920E7DC080808E618181820E703024CE9124DC318181812A6
:204DA0004CE9124DC3181818124DAF19191922E4C397F709E497F709E497F709E497F72211
:204DC000181818E4C396F608E496F608E496F608E496F6226017080808C6A2E713C618C639
:204DE00013C618C613C618C613C6D5E0E9226016080808C6C313C618C613C618C613C61836
:204E0000C613C6D5E0EA227009080808226016181818C6C333C608C633C608C633C608C6E3
:204E200033C6D5E0EA22E627F60809E637F60809E637F60809E637F622E026F608A3E0366A
:204E4000F608A3E036F608A3E036F622E026F008A3E036F008A3E036F008A3E036F022C3DE
:204E6000E697F60809E697F60809E697F60809E697F622C3E0C696F608A3E0C696F608A394
:204E8000E0C696F608A3E0C696F622C3E096F008A3E096F008A3E096F008A3E096F022E083
:204EA00056F608A3E056F608A3E056F608A3E056F622E056F008A3E056F008A3E056F0082F
:204EC000A3E056F022E647F60809E647F60809E647F60809E647F622E046F008A3E046F02F
:204EE00008A3E046F008A3E046F022E066F008A3E066F008A3E066F008A3E066F022E0F63D
:204F000008A3E0F608A3E0F608A3E0F622E6F008A3E6F008A3E6F008A3E6F022E0FAA3E014
:204F2000FBA3E0FCA3E0FD22EAF0A3EBF0A3ECF0A3EDF022E0FCA3E0FDA3E0FEA3E0FF225B
:204F4000ECF0A3EDF0A3EEF0A3EFF022E0F8A3E0F9A3E0FAA3E0FB22E8F0A3E9F0A3EAF08E
:204F6000A3EBF022CAC0E0E6F0A308DAFAD0E0FA22CAC0E0E0A3C582CCC582C583CDC58362
:204F8000F0A3C582CCC582C583CDC583DAE6D0E0CA22C3E498F8E499F9124FD38026C3E43D
:204FA0009AFAE49BFBE920E7E9124FD3E498F8E499F922C3E498F8E499F9124FD3E498F875
:204FC000E499F9C3E49AFAE49BFB22EB20E7CFE920E7E0B90010BB0008E88AF084F8AAF0EF
:204FE00022E4FBC8FA22EB70227B10C833C8C933C9335007C39AC3DBF280069A50012ADB4F
:20500000EAC833F4C8C933F4C9FA2275F008E4C833C8C933C933C99AC99B5004C92AC93BFC
:20502000D5F0ECFBC833F4C8E4C9FA22600D08C6A2E713C618C613C6D5E0F322600C08C6EC
:20504000C313C618C613C6D5E0F422700422600D18C6C333C608C633C6D5E0F41822254185
:2050600010AF08F541400C15428008F54140021542D2AF2200C0D0254110AF08F541500C47
:2050800005428008F54150020542D2AFD0D0222541F58210AF08F541400C15428008F541F4
:2050A00040021542D2AF854283222541F582E43542F583222541F8E43542F9222541FAE480
:2050C0003542FB222541FCE43542FD22E4732541C582C0E0E54234FFC583C0E0E541C395FC
:2050E0008224F810AF088583428582418008858342858241D2AFCEF0A3E520F0A37821E6A6
:2051000008F0A3DEFAEFF0A3E58124FAF8E608F0A3E608F0A3E608F0A30808E608F0A3E624
:2051200008F0A315811581D0E0FED0E0F8158115811581E8C0E0EEC0E0222541C582C0E00B
:20514000E54234FFC583C0E0E541C3958224F910AF0885834285824180088583428582417D
:20516000D2AFCEF0A3E520F0A37821E608F0A3DEFAEFF0A3E58124FBF8E608F0A3E608F065
:20518000A30808E608F0A3E608F0A315811581D0E0FED0E0F815811581E8C0E0EEC0E02274
:2051A000854283854182E0A3FEE0A3F5207821E0A3F608DFFAE0A3FFE0A3C0E0E0A3C0E089
:2051C000E0A3C0E0E0A3C0E0E0A3C0E010AF088582418583428008858241858342D2AFD0A2
:2051E00083D0820243C0854283854182E0A3FEE0A3F5207821E0A3F608DFFAE0A3FFE0A332
:20520000C0E0E0A3C0E0E0A3C0E0E0A3C0E010AF088582418583428008858241858342D240
:20522000AFD083D08222C0D02541C582C0E0E54234FFC583C0E0E541C3958224F310AF08FB
:205240008583428582418008858342858241D2AFC8F0A3E9F0A3EAF0A3EBF0A37921E709C5
:20526000F0A3D8FAECF0A3EDF0A3EEF0A3EFF0A3D0E0F0A3D0E0F0A3D0E0F0A3E520F0A366
:20528000E5F0F0A322854283854182E0C0E0A3E0F9A3E0FAA3E0FBA37821E0F608A3DFFA65
:2052A000E0FCA3E0FDA3E0FEA3E0FFA3E0C0E0A3E0C0E0A3E0F5D0A3E0F520A3E0A3F5F05E
:2052C00010AF088583428582418008858342858241D2AFD082D083D0E0F8D0E032740480B3
:2052E00006740280027401C0E0F40412508FD0E0124F64227404800474028000CCC0E0EDD0
:20530000C0E0E541C39CCCAD4250011D10AF068C418D4280068C418D42D2AF124F71D0E0B9
:20532000FDD0E0FC22D083D082C5F0E493A3C5F0C395F0F5F0E493A3C395F04005E5F004CC
:205340008001E475F002A42582F582E5F03583F583E493A3C0E0E493C0E022D083D082E939
:20536000C0E0E493A3C386F0C5F095F0F908E493A386F0C5F095F0700BE493A3C3994005FF
:20538000E9048002A3E475F002A42582F582E5F03583F583D0E0F9E493A3C0E0E493C0E06F
:2053A00022D083D082E9C0E0E493A3C386F0C5F095F0F908E493A386F0C5F095F0702408A9
:2053C000E493A386F0C5F095F0701908E493A386F0C5F095F0700E08E493A3C3994007E97C
:2053E000048004A3A3A3E475F002A42582F582E5F03583F583D0E0F9E493A3C0E0E493C090
:20540000E022D083D082CCC0E0E493A3600612542C1470FAE493A3600612544B1470FAD06A
:20542000E0FCE493A3C0E0E493C0E022C0E0E493A3D39C5010E493A3C39C400AD0E0D0E0F1
:20544000D0E002541FA3A3A3D0E022C0E0E493A36C7009D0E0D0E0D0E002541FA3A3D0E052
:2054600022D083D082ECC0E0EDC0E0E493A3FCE493A3FDED4C600D1254ADEC24FFFCED343A
:20548000FFFD80EFE493A3FCE493A3FDED4C600D1254ECEC24FFFCED34FFFD80EFD0E0FD38
:2054A000D0E0FCE493A3C0E0E493C0E022C0E0C3E49396087401939618400FE4936670087B
:2054C00008740193661870007019A3A3C3E49396087401939618A3A3400DD0E0D0E0D0E0CE
:2054E00002549DA3A3A3A3A3A3D0E022C0E0C0F088F0E4936670080874019366187000A852
:20550000F0A3A3700BD0F0D0E0D0E0D0E002549DA3A3D0F0D0E022FFC0E074EF125226A211
:20552000AFE433FFD2AFA889E5AB58F5216049F4F589C2C59008777401F07E00EEF52375E7
:2055400024007402782312504B1255F7E9FBEA4B701F1255EBB800028004C313D8FCA2E0A7
:20556000500F752300752402EE782312504B1255DE0EEEC3940440C4EFA2E092AF7F04028C
:205580005285C0E074EF125226A2AFE433FFD2AFA88AE58D58F5216043F4F58AC2EB7E006C
:2055A000EEF5237524007402782312504B1255F774406A49701F1255EBB800028004C313D4
:2055C000D8FCA2E0500F752300752402EE782312504B1255DE0EEEC3940440C4809AAA2326
:2055E000AB24900280E0F91271EF22E8131313541F5407F8E5212274082523F58274093561
:2056000024F583E0F8A3E0F9E854C0FA22C0E074EF125226A2AFE433FFD2AFA88BE5AC58F1
:20562000F5216043F4F58BC2E87E00EEF5237524007402782312504B1255F774806A497043
:205640001F1255EBB800028004C313D8FCA2E0500F752300752402EE782312504B1255DE62
:205660000EEEC3940440C402557874F612513AEAFEEBFF8C218D22EA2434F8E43FF9E8FC91
:20568000E9FDEA2435125A11FAEE2437125A11F88521F0A4C885F0238522F0A42523F9EAAC
:2056A00028F8E439F97A257B00124FD3EA8C828D83F0FA131313541F125A05245DF582E47B
:2056C00039F583E0C0E074075AF8D0E0B800028004C313D8FCA2E0EE50082434F582E43F7A
:2056E00080142436125A11F5F0EA84A8F0125A062438F582E439F583E0F97F030251E67472
:20570000F712513AEAFEEBFFEA2434125A11C0E0EA2435F582E43FF583D0E0F08A828B83B5
:20572000A3A3A3A3A3A3A3C082C0838A828B83A3A3A3A3A3E0F8A3E0F9D083D082E0C398F2
:20574000F521A3E099F522EA2480125A116401703EEA2481F582E43FF583C082C0838A82B0
:205760008B83A3A3A3A3A3E0240108A3E03400F9D083D082E0687003A3E06970127CB87DB0
:2057800005126C0DEE2480F582E43FF583E4F0AC21AD22EEFAEFFB12566AE9F912618E7F5F
:2057A000020251E6C082C083854182854283E0F8A3E0F9C3EA9CEB9D5010C3EC98ED994005
:2057C0001BC3EA98EB995014800EC3EA98EB994007C3EC98ED994004790180027900D0830A
:2057E000D08222EAC39CFAEB9DFB2274EF12513A900478E064086005E06407702A9061C8F2
:20580000E060249004A6E0F4601DE0F875F010A4C8AAF02AF974A828FE740439FF8E82F52C
:2058200083A3A3A3E07003025904906060E0C0E0EE2468F582E43FF583D0E0F07525297516
:205840002606752100752200E5D914F523E5D95403F527602F74036527601DE5236008EE67
:205860002467125A11601D900624E06401602C125A0E601278048010125A0E602CE523C34F
:205880009405502580637800E523C398FA95E0FB126AC38A218B22EA4B7005126E29806404
:2058A000125A0E70048A258B26E5236012852582852683F524E5D9F0A31524E52470F612A2
:2058C0005A0E604574FC2523F52378251252E1AC23A927EEFAEFFB126CC77402125074E91E
:2058E0007027AA21AB22127225793D8E828F83A3A3A3A3E0FA7B0012692BEEFAEFFB126C21
:2059000031126CD97900025A00740365276053E523F529752A0078291252E1AC25AD26AA7B
:2059200021AB22126C8B7402125074EE2468125A1164807004747F8001E0F5257825125266
:20594000E5E527F52578251252E5A923AC21AD229004A6E0FA7B0012690174021250740295
:2059600059FB852582852683E0C3940E5011E0F874CF28F582E43485F583E065236069854E
:205980002582852683E0C0E0EE24F7F582E43FF583D0E0F0A2AFE433FCC2AF7A0080010A1D
:2059A000EE246E125A11F8EAC3985013EA125A05246AF582E439F583E0640770E28022EE28
:2059C000246EF8E43FF9E0FAEE2AFAE43FFBEA246AF582E43BF5837407F088828983E0042C
:2059E000F0ECA2E092AF8013900478E06408600BAC25AD26EEFAEFFB126D51126E3579013D
:205A00007F0A0251E6F8EE28F8E43FF9E822EE2484F582E43FF583E02274F112513A74FC7C
:205A200012505EEAFEEBFF8922752600A2AFE433F521C2AF9005C0E0FA9061D0E0F87480E3
:205A400098F895E0F9C3EA98E499A2D265D0334003025B03752601025B03E0601B78231203
:205A600052E1AC27A928EEFAEFFB126CC1740212507474042527F52774012527F5D98528D6
:205A8000D9E5276012852382852483F525E0F5D9A31525E52570F675E195EE2463F8E43FC9
:205AA000F97A007B00A2AFE433F523C2AF88828983E0FCA3E0FDEC4D603A88828983E0FAD2
:205AC000A3E0FB8C82F583E0FCA3E0FD88828983ECF0A3EDF08A828B83E4F0A3F0888289E0
:205AE00083E0FCA3E0FDEC4D700A88828983A3A3E4F0A3F0E523A2E092AF1272259005BF89
:205B0000E004F0EE2463125A11F8A3E0F9E8496063EE2463125A112402F8A3E03400888286
:205B2000F583E5822402F523E43583F524E0F527A3E0F528EE2462125A116401703690610A
:205B4000D0E0F8125A0E60047C0480027C007480C398FA95E0FBE5272CF8E43400F9E8243B
:205B600002F8500109C3EA98EB99A2D265D0334003025A5A9061D0E0F87480C3989005C0F6
:205B8000F0E52660539005BFE0604D9005C1E0F89005BFE0C398500C74026522703A900521
:205BA000C2E060348E828F83A3A3A3A3E0854182854283125BE874021250AAE8125BE890EB
:205BC00005BEE028F074021250C4AA41AB4279011269559005BFE4F0E521A2E092AF7404E3
:205BE0001250747F080251E6F0A3E4F09005BFE0F822FFFF8550878551C622C0E074EB1231
:205C00005226A2AFE433F521C2AF759B00906182E0A2E0502DE591A2E050277591FE7401D3
:205C20006550701E125D72125D891252F4125F3D7404125074E9640170057901126DCF1257
:205C400057EB906182E0A2E5505AE591A2E550547591DF900478E064076005E06408702C54
:205C6000125D7274016550703B125D891252F4125F3D7404125074E9640170057901126D66
:205C8000CF7901EEFAEFFB125A198018E0640D701390049AE004F064287002E4F07A00E0CA
:205CA000F9126E3B906182E0A2E64003025D47E591A2E64003025D477591BF900478E06470
:205CC000057008126D7B126D878003126D81755000126DDBE9900479F07900126DCF126B7B
:205CE000837A017B00900477E0F91271EF907803E064427052900628E014F0704AC2AF12A3
:205D00005D02007859D0E0F618D0E0F6E59F540770047BFF80027B7FC4C0E07858E6F52374
:205D200008E65BF524740B782312503CD0E02523F8906270E0A2E740F8E8C333906272F024
:205D4000906270E0D2E0F0906181E0A2E35009E5E9A2E3500375E9F7A3E0A2E75009E59159
:205D6000A2E7500375917FE521A2E092AF7F080252859004A6E0F875F010A4C8AAF02AF9E9
:205D800074A828FE740439FF22126D938E828F83E0F8A3E0C82416F582E438F58322C0E091
:205DA000C0D0C082C083906183E0A2E05009E5BFA2E0500375BFFEE0A2E15009E5BFA2E111
:205DC000500375BFFDE0A2E25009E5BFA2E2500375BFFBE0A2E35009E5BFA2E3500375BF6A
:205DE000F7E0A2E45009E5BFA2E4500375BFEFE0A2E55009E5BFA2E5500375BFDFE0A2E694
:205E00005009E5BFA2E6500375BFBFD083D082D0D0D0E032C0E074F2125226E5A7A2E6509C
:205E20000FE5A1A2E6500953A7BF75A1BF125E68E5A7A2E5500CE5A1A2E5500653A7DF7566
:205E4000A1DFE5A7A2E15009E5A1A2E1500375A1FDE5A7A2E2500CE5A1A2E2500653A7FB2A
:205E600075A1FB7F0102528574F712513A755001900478E064067015126CFD8A828B83A3D7
:205E8000A3A3A3A3A3E0FAA3E0FB126D69A2AFE433FED2AF90047EE0640170187A207B00B8
:205EA000900477E0F91273097A207B00900477E0F91271F5906182E0D2E6F0900625E06009
:205EC0002185C651801690047DE064017008E5C654F84405F5C653BEFC125BF4740165500E
:205EE00060E4EEA2E092AF7F020251E68E528F53858257858356854182854283E0CEA3E0B2
:205F0000CF855782855683EBC9EAC8EDCBECCA75F010C3E833C8E933C9EA33CAEB33CBC38F
:205F2000EA9EF555EB9FF554B35004AB54AA55EC33CCED33CDD5F0DAAE52AF532274F112A5
:205F4000513A8A218B228C238D249086EE7821124E9F740F1250AA7825124EFE9086EE785C
:205F600025124E9F7821792512445F90872A501078217925124E5F782112447F4014800E2A
:205F800078257921124E5F782512447F50047901800279007F080251E674ED12513A8A2167
:205FA0008B228C238D249086EE7821124E9F74131250AA7825124EFE9086EE7825124E9F0A
:205FC0007825792112445F401178217925124E5FAA21AB22AC23AD248022752900752A0077
:205FE000752B00752C0178297925124E5F78297921124E26AA29AB2AAC2BAD2C7F0C02516A
:20600000E69086EE7821124EFE8A828B837821124EB27F040251E674F512513A8C828D83FA
:206020007821124EFE8A828B837821124E8B12606FC3E09CF0A3E09D12606140229087123D
:206040007821124EFE8A828B837821124E4C8A828B83A3A3A3A3E02420F0A3E0344EF080BB
:20606000A0F088828983C3E09420A3E0944E22EA2404F8E43BF98C828D83A3A3A3A3E0FCF4
:20608000A3E0FD888289832274F512513A9005DBE0FAA3E0FBE929F8E433F9746128F582EC
:2060A000748539F583E02AF521A3E03BF52278211252E19086CA124F1C125EEC74021250D2
:2060C000748A218B228C238D2474107821124DEEAA21AB227F040251E674F112513A8A2525
:2060E0008B268C278D2874111250AA1252F874111250AAE02401F521A3E03400F522E4F547
:2061000023F52478257921124C699087367821124EFE78257921124C69AA25AB26AC27ADE3
:2061200028125EEC7402125074EA4B60047A0180027A00EC2AFCE43DFD74131250AAE0F8E4
:20614000A3E0F9E8FEE9FFECF8EDF97A717B02124FD388218922E4F523F5248E828F83788C
:2061600021124F0DECF8EDF97A717B02124FD38A218B227405782112504B8E828F83A3A3AB
:20618000A3A3E521F0A3E522F07F080251E6C082C083E9906000F0D083D08222C0E074F24E
:2061A000125226A2AFE433FED2AFC2C0E5D1A2E4500675D10F1270E7EEA2E092AF7F010269
:2061C0005285C0E0C0D0E8C0E0A8A8D2AFC2C7E8A2E792AFD0E0F8D0D0D0E032C0E0C0D0CA
:2061E000E8C0E0E9C0E0EAC0E0EBC0E0C082C083A2AFE433F9D2AF9008CAE0F8A3E068707D
:2062000008539AF7A374018022C2EA9008CAE0F8740128F074BA28F582E43408F583E0F52B
:20622000F99008CAE0C394104002E4F0E9A2E092AFD083D082D0E0FBD0E0FAD0E0F9D0E0A7
:20624000F8D0D0D0E032C0E0C0D0E8C0E0E9C0E0EAC0E0EBC0E0C082C083A2AFE433F9D2B6
:20626000AFA8C19008F0E0FA74CF2AF582E43408F583E8F09008EFE0F8A3E0687006E59516
:206280009008F2F09008F0E004F0C394204002E4F0A3E4F08096C0E0C0D0E8C0E0E9C0E0CD
:2062A000EAC0E0EBC0E0C082C083A2AFE433F9D2AF900903E0F8A3E0687008539AFBA3748C
:2062C000018022C2E9900903E0F8740128F074F328F582E43408F583E0F5C1900903E0C3FC
:2062E00094104002E4F002622CC2AF020000221243C326C0031243C308C1031243C346C1BB
:20630000031243C3B1C5031243C324C6031243C339C6031243C33CC6031243C32EC703128B
:2063200043C3B7C7031243C33FC8031243C35ABE021243C337BF021243C35FC1021243C320
:2063400002C2021243C383C2021243C32DC4021243C34CC5021243C3A4C5021243C39DC6E4
:20636000021243C358C7021243C347C8021243C3ABC8021243C37ACC021243C315CD0212BE
:2063800043C30080011243C31C80011243C3F381011243C3E082011243C34983011243C3BC
:2063A0008D83011243C3BD83011243C31085011243C38C85011243C30286011243C38686D6
:2063C000011243C39587011243C32788011243C34C8A011243C3CC93011243C31794011282
:2063E00043C33794011243C38D94011243C3BA94011243C3DBB8011243C3D3BA011243C3C0
:206400001EBB011243C34ABB011243C3C2BC011243C3B5BE011243C393C1011243C3D0C14B
:20642000011243C3B6C9011243C39DCA011243C3E3CA011243C31BCC011243C367CD01121E
:2064400043C3BCCD011243C362CE011243C3DB83051243C3EE83051243C31D84051243C384
:206460005584051243C39E84051243C3E184051243C32785051243C35A85051243C381859A
:20648000051243C3B085051243C3E785051243C30086051243C34F86051243C3688605126A
:2064A00043C3B086051243C3E486051243C3E9F6021243C3E7F7021243C34DF8021243C3AC
:2064C00070F8021243C372F8021243C3B0F8021243C321F9021243C3E1F9021243C303FACF
:2064E000021243C39FFA021243C3D6FA021243C31BFB021243C328FB021243C398FB0212D1
:2065000043C3E2FB021243C3E5FB021243C32BFC021243C32EFC021243C338FC021243C3B1
:20652000ABFC021243C3D3FC021243C306FD021243C32AFD021243C327FE021243C3CBFE4B
:20654000021243C337FF021243C373FF021243C3C2A5041243C3EAA5041243C317A6041244
:2065600043C34FA6041243C3B5A6041243C3FFA6041243C363A7041243C3ABA7041243C338
:20658000E8A7041243C316A8041243C3ABA8041243C3B5A8041243C3C2A8041243C3F5A86B
:2065A000041243C301A9041243C319A9041243C323A9041243C31AFF011243C332FF0112BD
:2065C00043C349FF011243C3BFE9021243C362EA021243C39DEB021243C346EC021243C33E
:2065E000CEED021243C3B6EE021243C3ADEF021243C3E3EF021243C385F0021243C3ABF03C
:20660000021243C377F2021243C3BDF2021243C3DFF2021243C34BF3021243C316F40212B3
:2066200043C3D0F4021243C3DCF6021243C37BE0031243C357E1031243C301E2031243C3C3
:2066400042E2031243C3C9E2031243C344E3031243C317E4031243C340E4031243C334E585
:20666000031243C371E5031243C359E6031243C38AE6031243C3B0E6031243C3529C0512F3
:2066800043C37D9C051243C38D9D051243C30080051243C31680051243C33480051243C356
:2066A0004481051243C34E81051243C37882051243C36583051243C3D183051243C320E778
:2066C000031243C34DE8031243C384E8031243C3DBE8031243C3D3EA031243C313AC02123F
:2066E00043C39AAC021243C3EEAD021243C375AE021243C381AE021243C3F9AE021243C338
:20670000E1AF021243C3DDB0021243C3A9B1021243C303B3021243C319B3021243C33AB311
:20672000021243C3CCB3021243C342B4021243C368B4021243C315B7021243C31AB7021295
:2067400043C33EB9021243C385B9021243C3EBB9021243C331BA021243C301BB021243C331
:20676000B6BB021243C312BC021243C315BC021243C361BC021243C39DBC021243C3DCBC79
:20678000021243C3FEBC021243C332BD021243C3A0BD021243C390F7031243C39EF703123F
:2067A00043C3EEF7031243C30DF8031243C357F8031243C39AF9031243C332FA031243C354
:2067C00076FA031243C3A0FA031243C30BFB031243C34FFB031243C3D2FB031243C381FC8E
:2067E000031243C365CF011243C3FFCF011243C35BD0011243C319D1011243C3A1D101127E
:2068000043C3C4D2011243C3F4D2011243C323D3011243C3D9D4011243C32CD7011243C3F3
:206820008BD9011243C374DA011243C364DB011243C337DD011243C32FE0011243C34CE19A
:20684000011243C346E3011243C355E4011243C3E4E5011243C3D0E6011243C31FE70112C1
:2068600043C38FE7011243C3ABE7011243C3FCE7011243C39CEC011243C3B2ED011243C383
:206880006AEE011243C3BF90041243C3C990041243C31191041243C32591041243C3B691D0
:2068A000041243C3ED91041243C32892041243C35192041243C3A592041243C3BA92041298
:2068C00043C3DC92041243C3F192041243C32B93041243C35793041243C3A093041243C35A
:2068E0001694041243C34194041243C36C94041243C3AF94041243C3D994041243C3049544
:20690000041243C309A0051243C3CDA2031243C3A6A3031243C315A4031243C350A40312CA
