:020000040000FA
:2000000002075EC2AFF5088114FFFFC2AFF5088126FFFFC2AFF5088138FFFFC2AFF5088151
:200020004AFFFFC2AFF508815CFFFFC2AFF508816EFFFFC2AFF5088180FFFFC2AFF5088178
:2000400092FFFFC2AFF50881A4FFFFC2AFF50881B6FFFFC2AFF50881C8FFFFC2AFF5088138
:20006000DAFFFFC2AFF50881ECFFFFC2AFF50881FEFFFFC2AFF508A110FFFFC2AFF508A1B8
:2000800022FFFFC2AFF508A134FFFFC2AFF508A146FFFFFF758701002274FC120724750A62
:2000A00004750B00780A12074D74021207937A007B00790812055C7402120709850D828598
:2000C0000E83E0F47003A3E0F470030201FE850D82850E83E0F8A3E0F9E84970030201FE3A
:2000E0007402120789E0687003A3E0697010750901024030C2AF75C9AB75C95B80FE53BE4E
:20010000FBE59DA2E650FAE5C654804449F5C6E59E547F644970F853C67FE59EA2E740FA80
:2001200053C680E59E547F70FA43BE049062707408F0750A00F50B780A12074D7C807D01B2
:200140007A007B00790812055C7402120709900186E0F50AA3E0F50B7409780A12076DE53B
:200160000A2408FF53B4F375BC0075BC007CFC7D077A047B0079081203837E09EFC3940A09
:20018000401C800774086E70027E567C007D087A007B00EEF91203830EEEC39F40E6A8BDEE
:2001A000850D82850E83E8F9E5BCF8E0687003A3E069704A850D82850E83E0F8A3E0F97448
:2001C00002120789E8F0A3E9F0850D82850E8374FFF0A3F07409F5D575D480750A01780AF5
:2001E00012074D74021207937A007B101205E27402120709C2AF75C9AB75C95B80FE750AF1
:2002000004780A12074D74021207937A007B00790112055C7402120709850D82850E83E04C
:20022000F47003A3E0F47003020373850D82850E83E0F8A3E0F9E8497003020373740212D3
:200240000789E0F8A3E0F9850D82850E83E0687003A3E0697010750900020830C2AF75C902
:20026000AB75C95B80FE74FF68700374FF69600302037353BEFBE59DA2E650FAE5C65480D8
:200280004449F5C6E59E547F644970F853C67FE59EA2E740FA53C680E59E547F70FA43BE73
:2002A000049062707408F0750A00F50B780A12074D7C807D017A007B00790112055C740233
:2002C000120709900186E0F50AA3E0F50B7409780A12076DE50A244FFF53B4F375BC0075FD
:2002E000BC007CFC7D077A047B0079011203837E02EFC39403401C800774086E70027E565F
:200300007C007D087A007B00EEF91203830EEEC39F40E6A8BD850D82850E83E8F9E5BCF8DB
:20032000E0687003A3E069704A850D82850E83E0F8A3E0F97402120789E8F0A3E9F0850DE0
:2003400082850E8374FFF0A3F07409F5D575D480750A01780A12074D74021207937A007B80
:20036000021205E27402120709C2AF75C9AB75C95B80FE43BE03120094C2AF75C9AB75C937
:200380005B80FE74F7120648E9FEAFC7740F5EF50A750B00740B780A12073AEA2400F8EBB7
:2003A000350BF9E82400E93480F9A2AFE433F50AC2AFEEC4540FFAE5C754F84AF5C7E99004
:2003C0000980F0E8A3F0A37470F0A374BDF0EC900985F0900984E054E0F0EDFCE04CF0903E
:2003E00009867420F0A37442F07409F5D575D48075D601000000000000000000000075D7F9
:2004000001E5D7A2E040FA8FC7E50AA2E092AF7F020206AEE5096007E508D2AF024033E507
:2004200008D2AF020833E5096007E508D2AF02403BE508D2AF02083BE5096007E508D2AF40
:20044000024043E508D2AF020843E5096007E508D2AF02404BE508D2AF02084BE5096007F4
:20046000E508D2AF024053E508D2AF020853E5096007E508D2AF02405BE508D2AF02085B7B
:20048000E5096007E508D2AF024063E508D2AF020863E5096007E508D2AF02406BE508D2EA
:2004A000AF02086BE5096007E508D2AF024073E508D2AF020873E5096007E508D2AF0240B0
:2004C0007BE508D2AF02087BE5096007E508D2AF024083E508D2AF020883E5096007E508E9
:2004E000D2AF02408BE508D2AF02088BE5096007E508D2AF024093E508D2AF020893E5091A
:200500006007E508D2AF02409BE508D2AF02089BE5096007E508D2AF0240A3E508D2AF02FE
:2005200008A3E5096007E508D2AF0240ABE508D2AF0208ABE5096007E508D2AF0240B3E5A0
:2005400008D2AF0208B3E5096007E508D2AF0240BBE508D2AF0208BB0002055874F6120681
:2005600048890C740F550CF50A750B00740B780A12073AEA2400F8EB3480F9E82400E9351F
:200580000BF985C70BA2AFE433F50AC2AFE50CC4540FFAE5C754F84AF5C7740A120789E018
:2005A000FEA3E0FFEE4F602CEEFAEFFB88828983E08C828D83F088828983A3A882A9838C81
:2005C000828D83A3AC82AD83EA24FF1AEB34FFFBEA4B70D8850BC7E50AA2E092AF7F03023E
:2005E00006AE74F7120648ED900980F0ECA3F0A37462F0A37473F0A3E0541FF074091207A8
:2006000089E0F50AA3E0F50BE50A333354FC900985F07406780A12076DE50A900984F0902E
:2006200009867412F0A37442F075D11E75D601EA906271F0EBA3F0906270E0D2E1F0E0A29A
:20064000E740FB7F020206AE250DC582C0E0E50E34FFC583C0E0E50DC3958224F910AF086A
:2006600085830E85820D800885830E85820DD2AFCEF0A3E520F0A3780AE608F0A3DEFAEF5A
:20068000F0A3E58124FBF8E608F0A3E608F0A30808E608F0A3E608F0A315811581D0E0FE5C
:2006A000D0E0F815811581E8C0E0EEC0E022850E83850D82E0A3FEE0A3F520780AE0A3F6F0
:2006C00008DFFAE0A3FFE0A3C0E0E0A3C0E0E0A3C0E0E0A3C0E010AF0885820D85830E80BA
:2006E0000885820D85830ED2AFD083D08222250DF58210AF08F50D400C150E8008F50D40D5
:2007000002150ED2AF850E832200C0D0250D10AF08F50D500C050E8008F50D5002050ED240
:20072000AFD0D022250D10AF08F50D400C150E8008F50D4002150ED2AF22700422600D1831
:20074000C6C333C608C633C6D5E0F4182274028000C0E0F4041206EED0E012077C2275D02D
:200760000075813F750D80750E0102079B600C08C6C313C618C613C6D5E0F422CAC0E0E672
:20078000F0A308DAFAD0E0FA22250DF582E4350EF58322250DFCE4350EFD2212009912077C
:2007A000A100000080FBFFFFFFFFFFFFFFFFFFFFFFFFFFFFFFFFFFFFFFFFFFFFFFFFFFFF37
:2007C000FFFFFFFFFFFFFFFFFFFFFFFFFFFFFFFFFFFFFFFFFFFFFFFFFFFFFFFFFFFFFFFF39
:2007E000FFFFFFFFFFFFFFFFFFFFFFFFFFFFFFFFFFFFFFFFFFFFFFFFFFFFFFFFFFFFFFFF19
:200800000051FFFF0000005C41414141FFFFFFFFFFFFFFFFFFFFFFFFFFFFFFFFFFFFFFFF3D
:20082000000102030405060708090A0BFFFFFFFF020B100219A6FFFFFFFFFFFFFFFFFFFFA6
:20084000FFFFFFFFFFFFFFFFFFFFFFFFFFFFFFFFFFFFFFFFFFFFFFFFFFFFFF021DA4FFFFF2
:20086000FFFFFFFFFFFFFFFFFFFFFFFFFFFFFFFFFFFFFFFFFFFFFFFFFFFFFFFFFFFFFFFF98
:20088000FFFFFF021A1CFFFFFFFFFFFFFFFFFFFFFFFFFFFFFFFFFFFFFFFFFFFFFFFFFFFF3D
:2008A000FFFFFFFFFFFFFFFFFFFFFFFFFFFFFFFFFFFFFF021803FF0000B40000280028002B
:2008C000283075A000A000A000A00000080008E001F000100010001000100010001000503A
:2008E000005000500010001000D0070000000000000F00010005003075070010000100810E
:20090000FF00000000FFFFFFCE1FEC1FD41F0A20FF02020208025000A0000000E8030202D8
:20092000B2010000F1B10206B20100009718020CB2010000C3020206B20100009818020EF7
:20094000B2010000D9020206B201000099180210B2010000DB020206B20100009A1802127A
:20096000B2080000DC020206B20100009B180214B20100009C18FF0100FF200202B201001E
:2009800000F4B10206B201000000190216B20000000000020AB20300000A0317000A260AF5
:2009A000260A260A260A260A260A260A260A260A260A260A260A267A288C28742802020209
:2009C000B20100005DB10206B201000022B202FCB101000040070206B201000021B202FA46
:2009E000B101000031B10206B201000020B20208B2010000A8B00206B201000024B2021A14
:200A0000B2010000D2B00206B20100004319021CB20100006EB11C0202B2010000F7B1021D
:200A200006B20100009C191030B00200007107020AB20300007307021EB20100003EB102DF
:200A400006B20100009C191040B00200007207020AB20300007507021EB20100004BB1FFA2
:200A6000FFFFFF0001307503020106000000000000000000000000000000000000000000C7
:200A800000000000000000FFFF0600800CE803E5C754F84405F5C779012200000080FB12B5
:200AA0000A8FB90003020AFAE479437808B800028004F709D8FCE4794B7802B80002800449
:200AC000F709D8FCE490028078BD79168002F0A3D8FCD9FA7A3C7B189008B678DA790280E8
:200AE00015E493A3AD82AE838A828B83F0A3AA82AB838D828E83D8E9D9E77582537583E697
:200B00007407120B2275829A75830A7400120B2275D00075817F754180754202759F000216
:200B20000A9FC09FF59FE473D09F22D083D082C09FE493C0E0740193C0E0740293F59F22AF
:200B4000E066701008A3E066700A08A3E066700408A3E06622C3E7960809E7960809E79690
:200B60000809E79622C3E09608A3E09608A3E09608A3E09622C021C3E096F52108A3E096B6
:200B8000422108A3E096422108A3E09645217001D3D02122080808EAC0E0EBC0E086F0E706
:200BA000A4FA180986F0E7A42AFA180986F0E7A42AFA180986F0E7A42AFA1986F0E7A4FBB0
:200BC000E5F02AFA190886F0E7A42BFBE5F03AFA190886F0E7A42BFBE5F03AFA18180986BB
:200BE000F0E7A4C5F02BFBE43AFA1908E7C5F0C6A426F6E5F03BFBE43AFA1886F0E7A4F612
:200C0000E5F00826F6E43B08F6E43A08F6D0E0FBD0E0FA22E4CFC0E0E4CEC0E0E4CDC0E035
:200C2000E4CCC0E075F020E626F608E633F608E633F608E633F6181818EC33FCED33FDEE2A
:200C400033FEEF33FFC3EC9709ED9709EE9709EF97191919400FFFEC97FC09ED97FD09EEB9
:200C600097FE191906D5F0BFECF709EDF709EEF709EFF7191919D0E0FCD0E0FDD0E0FED054
:200C8000E0FF226016080808C6C313C618C613C618C613C618C613C6D5E0EA2270090808F4
:200CA00008226016181818C6C333C608C633C608C633C608C633C6D5E0EA22E627F60809A0
:200CC000E637F60809E637F60809E637F622E026F608A3E036F608A3E036F608A3E036F676
:200CE00022E026F008A3E036F008A3E036F008A3E036F022C3E697F60809E697F60809E6F6
:200D000097F60809E697F622C3E0C696F608A3E0C696F608A3E0C696F608A3E0C696F622F2
:200D2000C3E096F008A3E096F008A3E096F008A3E096F022E056F608A3E056F608A3E05651
:200D4000F608A3E056F622E056F008A3E056F008A3E056F008A3E056F022E0F608A3E0F692
:200D600008A3E0F608A3E0F622E6F008A3E6F008A3E6F008A3E6F022E0FAA3E0FBA3E0FCFD
:200D8000A3E0FD22E0FCA3E0FDA3E0FEA3E0FF22ECF0A3EDF0A3EEF0A3EFF022E0F8A3E054
:200DA000F9A3E0FAA3E0FB22E8F0A3E9F0A3EAF0A3EBF022CAC0E0E6F0A308DAFAD0E0FA43
:200DC00022CAC0E0E0A3C582CCC582C583CDC583F0A3C582CCC582C583CDC583DAE6D0E093
:200DE000CA22C3E498F8E499F9120E238026C3E49AFAE49BFBE920E7E9120E23E498F8E448
:200E000099F922C3E498F8E499F9120E23E498F8E499F9C3E49AFAE49BFB22EB20E7CFE9C3
:200E200020E7E0B90010BB0008E88AF084F8AAF022E4FBC8FA22EB70227B10C833C8C9331B
:200E4000C9335007C39AC3DBF280069A50012ADBEAC833F4C8C933F4C9FA2275F008E4C84D
:200E600033C8C933C933C99AC99B5004C92AC93BD5F0ECFBC833F4C8E4C9FA22600D08C606
:200E8000A2E713C618C613C6D5E0F322600C08C6C313C618C613C6D5E0F422700422600D14
:200EA00018C6C333C608C633C6D5E0F41822254110AF08F541400C15428008F541400215D3
:200EC00042D2AF2200C0D0254110AF08F541500C05428008F54150020542D2AFD0D02225D8
:200EE00041F58210AF08F541400C15428008F54140021542D2AF854283222541F582E43560
:200F000042F583222541F8E43542F9222541FAE43542FB222541FCE43542FD22E4732541B0
:200F2000C582C0E0E54234FFC583C0E0E541C3958224F810AF088583428582418008858383
:200F400042858241D2AFCEF0A3E520F0A37821E608F0A3DEFAEFF0A3E58124FAF8E608F0BF
:200F6000A3E608F0A3E608F0A30808E608F0A3E608F0A315811581D0E0FED0E0F81581158D
:200F8000811581E8C0E0EEC0E0222541C582C0E0E54234FFC583C0E0E541C3958224F91046
:200FA000AF088583428582418008858342858241D2AFCEF0A3E520F0A37821E608F0A3DE5C
:200FC000FAEFF0A3E58124FBF8E608F0A3E608F0A30808E608F0A3E608F0A315811581D008
:200FE000E0FED0E0F815811581E8C0E0EEC0E022854283854182E0A3FEE0A3F5207821E0E3
:20100000A3F608DFFAE0A3FFE0A3C0E0E0A3C0E0E0A3C0E0E0A3C0E0E0A3C0E010AF0885D9
:2010200082418583428008858241858342D2AFD083D082020B28854283854182E0A3FEE03B
:20104000A3F5207821E0A3F608DFFAE0A3FFE0A3C0E0E0A3C0E0E0A3C0E0E0A3C0E010AF18
:20106000088582418583428008858241858342D2AFD083D08222C0D02541C582C0E0E54270
:2010800034FFC583C0E0E541C3958224F310AF088583428582418008858342858241D2AF2A
:2010A000C8F0A3E9F0A3EAF0A3EBF0A37921E709F0A3D8FAECF0A3EDF0A3EEF0A3EFF0A36D
:2010C000D0E0F0A3D0E0F0A3D0E0F0A3E520F0A3E5F0F0A322854283854182E0C0E0A3E090
:2010E000F9A3E0FAA3E0FBA37821E0F608A3DFFAE0FCA3E0FDA3E0FEA3E0FFA3E0C0E0A341
:20110000E0C0E0A3E0F5D0A3E0F520A3E0A3F5F010AF088583428582418008858342858232
:2011200041D2AFD082D083D0E0F8D0E03274048006740280027401C0E0F404120EDFD0E00C
:20114000120DB4227404800474028000CCC0E0EDC0E0E541C39CCCAD4250011D10AF068CB0
:20116000418D4280068C418D42D2AF120DC1D0E0FDD0E0FC22D083D082E9C0E0E493A3C356
:2011800086F0C5F095F0F908E493A386F0C5F095F0700BE493A3C3994005E9048002A3E4A8
:2011A00075F002A42582F582E5F03583F583D0E0F9E493A3C0E0E493C0E022D083D082ECD4
:2011C000C0E0EDC0E0E493A3FCE493A3FDED4C600D121207EC24FFFCED34FFFD80EFE493D6
:2011E000A3FCE493A3FDED4C600D121246EC24FFFCED34FFFD80EFD0E0FDD0E0FCE493A31F
:20120000C0E0E493C0E022C0E0C3E49396087401939618400FE49366700808740193661895
:2012200070007019A3A3C3E49396087401939618A3A3400DD0E0D0E0D0E00211F7A3A3A34B
:20124000A3A3A3D0E022C0E0C0F088F0E4936670080874019366187000A8F0A3A3700BD08F
:20126000F0D0E0D0E0D0E00211F7A3A3D0F0D0E022FFFFFF74F6120F8AEAFEEBFF8C218D6E
:2012800022EA2434F8E43FF9E8FCE9FDEA243512161BFAEE243712161BF88521F0A4C88581
:2012A000F0238522F0A42523F9EA28F8E439F97A257B00120E23EA8C828D83F0FA131313F7
:2012C000541F12160F245DF582E439F583E0C0E074075AF8D0E0B800028004C313D8FCA250
:2012E000E0EE50082434F582E43F8014243612161BF5F0EA84A8F01216102438F582E43992
:20130000F583E0F97F0302103674F7120F8AEAFEEBFFEA243412161BC0E0EA2435F582E407
:201320003FF583D0E0F08A828B83A3A3A3A3A3A3A3C082C0838A828B83A3A3A3A3A3E0F821
:20134000A3E0F9D083D082E0C398F521A3E099F522EA248012161B6401703EEA2481F582FE
:20136000E43FF583C082C0838A828B83A3A3A3A3A3E0240108A3E03400F9D083D082E0685A
:201380007003A3E06970127CB27D0412254AEE2480F582E43FF583E4F0AC21AD22EEFAEF51
:2013A000FB121274E9F9121D967F02021036C082C083854182854283E0F8A3E0F9C3EA9C76
:2013C000EB9D5010C3EC98ED99401BC3EA98EB995014800EC3EA98EB994007C3EC98ED9965
:2013E0004004790180027900D083D08222EAC39CFAEB9DFB2274EF120F8A900372E0640826
:201400006005E06407702A9061C8E060249003A0E0F4601DE0F875F010A4C8AAF02AF974F7
:20142000A228FE740339FF8E82F583A3A3A3E0700302150E906060E0C0E0EE2468F582E4A7
:201440003FF583D0E0F0752523752605752100752200E5D914F523E5D95403F527602F748D
:20146000036527601DE5236008EE246712161B601D90051EE06401602C1216186012780405
:201480008010121618602CE523C39405502580637800E523C398FA95E0FB1224128A218B71
:2014A00022EA4B7005122766806412161870048A258B26E5236012852582852683F524E5F7
:2014C000D9F0A31524E52470F6121618604574FC2523F5237825121131AC23A927EEFAEFDC
:2014E000FB1226047402120EC4E97027AA21AB22122A7E793D8E828F83A3A3A3A3E0FA7BD0
:2015000000122286EEFAEFFB12256E122616790002160A740365276053E523F529752A0036
:201520007829121131AC25AD26AA21AB221225C87402120EC4EE246812161B648070047498
:201540007F8001E0F5257825121135E527F5257825121135A923AC21AD229003A0E0FA7B91
:201560000012225C7402120EC4021605852582852683E0C3940E5011E0F8742328F582E472
:2015800034B1F583E065236069852582852683E0C0E0EE24F7F582E43FF583D0E0F0A2AFD7
:2015A000E433FCC2AF7A0080010AEE246E12161BF8EAC3985013EA12160F246AF582E439FC
:2015C000F583E0640770E28022EE246EF8E43FF9E0FAEE2AFAE43FFBEA246AF582E43BF5B3
:2015E000837407F088828983E004F0ECA2E092AF8013900372E06408600BAC25AD26EEFA89
:20160000EFFB12268E12277279017F0A021036F8EE28F8E43FF9E822EE2484F582E43FF5D3
:2016200083E02274F1120F8A74FC120EAEEAFEEBFF8922752600A2AFE433F521C2AF90043C
:20164000BAE0FA9061D0E0F8748098F895E0F9C3EA98E499A2D265D033400302170D7526C9
:201660000102170DE0601B7823121131AC27A928EEFAEFFB1225FE7402120EC47404252730
:20168000F52774012527F5D98528D9E5276012852382852483F525E0F5D9A31525E5257026
:2016A000F675E195EE2463F8E43FF97A007B00A2AFE433F523C2AF88828983E0FCA3E0FD68
:2016C000EC4D603A88828983E0FAA3E0FB8C82F583E0FCA3E0FD88828983ECF0A3EDF08AEB
:2016E000828B83E4F0A3F088828983E0FCA3E0FDEC4D700A88828983A3A3E4F0A3F0E52303
:20170000A2E092AF122A7E9004B9E004F0EE246312161BF8A3E0F9E8496063EE246312166E
:201720001B2402F8A3E034008882F583E5822402F523E43583F524E0F527A3E0F528EE242F
:201740006212161B640170369061D0E0F812161860047C0480027C007480C398FA95E0FB65
:20176000E5272CF8E43400F9E82402F8500109C3EA98EB99A2D265D0334003021664906173
:20178000D0E0F87480C3989004BAF0E52660539004B9E0604D9004BBE0F89004B9E0C398CD
:2017A000500C74026522703A9004BCE060348E828F83A3A3A3A3E08541828542831217F227
:2017C0007402120EFAE81217F29004B8E028F07402120F14AA41AB4279011222AA9004B90A
:2017E000E4F0E521A2E092AF7404120EC47F08021036F0A3E4F09004B9E0F822854387859F
:2018000044C622C0E074EB121076A2AFE433F521C2AF759B00906182E0A2E0502DE591A29C
:20182000E050277591FE74016543701E12197A121991121144121B457404120EC4E96401BE
:201840007005790112270C1213F5906182E0A2E5505AE591A2E550547591DF900372E064E7
:20186000076005E06408702C12197A74016543703B121991121144121B457404120EC4E9CD
:2018800064017005790112270C7901EEFAEFFB1216238018E0640D7013900394E004F0644D
:2018A000287002E4F07A00E0F9122778906182E0A2E6400302194FE591A2E6400302194F83
:2018C0007591BF900372E0640570081226B81226C480031226BE754300122718E990037320
:2018E000F0790012270C1224C07A017B00900371E0F9122A48907803E064427052900522E3
:20190000E014F0704AC2AF12190A00784CD0E0F618D0E0F6E59F540770047BFF80027B7F12
:20192000C4C0E0784BE6F52308E65BF524740B7823120E8CD0E02523F8906270E0A2E7405F
:20194000F8E8C333906272F0906270E0D2E0F0906181E0A2E35009E5E9A2E3500375E9F74E
:20196000A3E0A2E75009E591A2E7500375917FE521A2E092AF7F080210D59003A0E0F87574
:20198000F010A4C8AAF02AF974A228FE740339FF221226D08E828F83E0F8A3E0C82416F595
:2019A00082E438F58322C0E0C0D0C082C083906183E0A2E05009E5BFA2E0500375BFFEE080
:2019C000A2E15009E5BFA2E1500375BFFDE0A2E25009E5BFA2E2500375BFFBE0A2E350095B
:2019E000E5BFA2E3500375BFF7E0A2E45009E5BFA2E4500375BFEFE0A2E55009E5BFA2E5F6
:201A0000500375BFDFE0A2E65009E5BFA2E6500375BFBFD083D082D0D0D0E032C0E074F200
:201A2000121076E5A7A2E6500FE5A1A2E6500953A7BF75A1BF121A70E5A7A2E5500CE5A115
:201A4000A2E5500653A7DF75A1DFE5A7A2E15009E5A1A2E1500375A1FDE5A7A2E2500CE5B3
:201A6000A1A2E2500653A7FB75A1FB7F010210D574F7120F8A754301900372E064067015DB
:201A800012263A8A828B83A3A3A3A3A3A3E0FAA3E0FB1226A6A2AFE433FED2AF900378E0E0
:201AA000640170187A207B00900371E0F9122AF07A207B00900371E0F9122A4E906182E04C
:201AC000D2E6F090051FE0602185C6448016900377E064017008E5C654F84405F5C653BE51
:201AE000FC1217FC7401654360E4EEA2E092AF7F020210368E458F4685824A8583498541DA
:201B000082854283E0CEA3E0CF854A82854983EBC9EAC8EDCBECCA75F010C3E833C8E9334C
:201B2000C9EA33CAEB33CBC3EA9EF548EB9FF547B35004AB47AA48EC33CCED33CDD5F0DA5C
:201B4000AE45AF462274F1120F8A8A218B228C238D2490B1D17821120D34740F120EFA78A0
:201B600025120D5A90B1D17825120D3478217925120B5590B1B1501078217925120CF47809
:201B800021120B754014800E78257921120CF47825120B7550047901800279007F080210D6
:201BA0003674ED120F8A8A218B228C238D2490B1D17821120D347413120EFA7825120D5A76
:201BC00090B1D17825120D3478257921120B55401178217925120CF4AA21AB22AC23AD2488
:201BE0008022752900752A00752B00752C0178297925120CF478297921120CBBAA29AB2AB7
:201C0000AC2BAD2C7F0C02103690B1D17821120D5A8A828B837821120D477F0402103674C5
:201C2000F5120F8A8C828D837821120D5A8A828B837821120D20121C77C3E09CF0A3E09DEE
:201C4000121C69402290B1D57821120D5A8A828B837821120CE18A828B83A3A3A3A3E02407
:201C600020F0A3E0344EF080A0F088828983C3E09420A3E0944E22EA2404F8E43BF98C822B
:201C80008D83A3A3A3A3E0FCA3E0FD888289832274F5120F8A9004D5E0FAA3E0FBE929F835
:201CA000E433F9741328F58274B139F583E02AF521A3E03BF522782112113190B1E5120DF1
:201CC00078121AF47402120EC48A218B228C238D2474107821120C83AA21AB227F0402106F
:201CE0003674F1120F8A8A258B268C278D287411120EFA1211487411120EFAE02401F52112
:201D0000A3E03400F522E4F523F52478257921120B9490B1BD7821120D5A78257921120B94
:201D200094AA25AB26AC27AD28121AF47402120EC4EA4B60047A0180027A00EC2AFCE43D0A
:201D4000FD7413120EFAE0F8A3E0F9E8FEE9FFECF8EDF97A717B02120E2388218922E4F521
:201D600023F5248E828F837821120D69ECF8EDF97A717B02120E238A218B227405782112F3
:201D80000E9B8E828F83A3A3A3A3E521F0A3E522F07F08021036C082C083E9906000F0D06F
:201DA00083D08222C0E0C0D0E8C0E0A8A8D2AFC2C7E8A2E792AFD0E0F8D0D0D0E032C2AFCD
:201DC00002000022120B2B1FFF06120B2BA7FF06120B2BA3E607120B2BA8E607120B2B750D
:201DE000C907120B2B88C907120B2BB7C907120B2BEFC907120B2B38CA07120B2B7BCA07B8
:201E0000120B2BC1CA07120B2BF4CA07120B2B1BCB07120B2B4ACB07120B2B81CB07120B8A
:201E20002B9ACB07120B2BE9CB07120B2B02CC07120B2B4ACC07120B2B908907120B2B8E48
:201E40008A07120B2BF48A07120B2B178B07120B2B198B07120B2B578B07120B2BC88B076D
:201E6000120B2B888C07120B2BAA8C07120B2B468D07120B2B7D8D07120B2BC28D07120B44
:201E80002BCF8D07120B2B3F8E07120B2B898E07120B2B8C8E07120B2BD28E07120B2BD5FD
:201EA0008E07120B2BDF8E07120B2B528F07120B2B7A8F07120B2BAD8F07120B2BD18F070F
:201EC000120B2BCE9007120B2B729107120B2BDE9107120B2B1A9207120B2BC8BD07120B59
:201EE0002BF0BD07120B2B1DBE07120B2B55BE07120B2BBBBE07120B2B05BF07120B2B69EB
:201F0000BF07120B2BB1BF07120B2BEEBF07120B2B1CC007120B2BB1C007120B2BBBC0078B
:201F2000120B2BC8C007120B2BFBC007120B2B07C107120B2B1FC107120B2B29C107120B24
:201F40002B34E507120B2B4CE507120B2B63E507120B2B0B9E06120B2BAE9E06120B2BE95D
:201F60009F06120B2B92A006120B2B1AA206120B2B02A306120B2BF9A306120B2B2FA40634
:201F8000120B2BD1A406120B2BF7A406120B2BC3A606120B2B09A706120B2B2BA706120BA3
:201FA0002B97A706120B2B62A806120B2B1CA906120B2B28AB06120B2BC9A007120B2BA581
:201FC000A107120B2B4FA207120B2B90A207120B2B17A307120B2B92A307120B2B65A407B3
:201FE000120B2B8EA407120B2B82A507120B2BBFA507120B2BA7A607120B2BD8A607120BB1
:202000002BFEA607120B2B693E00120B2B943E00120B2BA43F00120B2B9AC507120B2BB010
:20202000C507120B2BCEC507120B2BDEC607120B2BE8C607120B2B12C807120B2BFFC807C3
:20204000120B2B6BC907120B2B7FF906120B2BACFA06120B2BE3FA06120B2B3AFB06120B78
:202060002B32FD06120B2B18EA05120B2B9FEA05120B2BF3EB05120B2BFFEB05120B2B77BA
:20208000EC05120B2B55ED05120B2B51EE05120B2B1DEF05120B2B77F005120B2B8DF0055D
:2020A000120B2BB4F005120B2B2AF105120B2B50F105120B2BFDF305120B2B02F405120B9C
:2020C0002B26F605120B2B6DF605120B2BD3F605120B2B19F705120B2BE9F705120B2B9E7E
:2020E000F805120B2BFAF805120B2BFDF805120B2B49F905120B2B85F905120B2BC4F905FE
:20210000120B2BE6F905120B2B31FA05120B2BEBFA05120B2BF9FA05120B2B49FB05120BFB
:202120002B68FB05120B2BB2FB05120B2BF5FC05120B2B8DFD05120B2BB7FD05120B2B2292
:20214000FE05120B2B66FE05120B2BE9FE05120B2B98FF05120B2B2CB205120B2BC6B205C3
:20216000120B2B22B305120B2BE0B305120B2B03B505120B2B33B505120B2B62B505120BA2
:202180002B18B705120B2B6BB905120B2BCABB05120B2BB3BC05120B2BA3BD05120B2B76D6
:2021A000BF05120B2B6EC205120B2B8BC305120B2B85C505120B2B94C605120B2B23C805CD
:2021C000120B2B0FC905120B2B5EC905120B2BCEC905120B2BEAC905120B2B3BCA05120B13
:2021E0002BDBCE05120B2BF1CF05120B2BA9D005120B2BB7C107120B2BC1C107120B2B094A
:20220000C207120B2B1DC207120B2BAEC207120B2BE5C207120B2B20C307120B2B49C30785
:20222000120B2B9DC307120B2BB2C307120B2BD4C307120B2BE9C307120B2B23C407120BF7
:202240002B4FC407120B2BDAC407120B2B1DC507120B2B47C507120B2B72C507120B2B21D1
:20226000E207120B2BB6E506120B2B8FE606120B2BFEE606120B2B39E706120B2B74E8067F
:20228000120B2B26E906120B2BD3EB06120B2B7EEC06120B2B5FED06120B2BD5EE06120B55
:2022A0002B3DEF06120B2B59B107120B2BC4B207120B2B02B507120B2B4DD707120B2BFAE8
:2022C000D707120B2BF3D807120B2B30D907120B2B46DB07120B2BA5DB07120B2B42DC0702
:2022E000120B2B75DC07120B2BA3DC07120B2BDEDC07120B2BFEDC07120B2BB0AC07120B76
:202300002B39AD07120B2BF8AD07120B2B06AF07120B2B26B107120B2B61CF06120B2B764B
:20232000CF06120B2B41D006120B2B0ED106120B2B7BD106120B2BB6D106120B2B57D20656
:20234000120B2B60D306120B2B38D406120B2BBBD406120B2B44D506120B2BADD506120B71
:202360002B37D606120B2B84D606120B2BF2D606120B2B94D706120B2B42D806120B2B6296
:20238000D806120B2BA6D806120B2BEED806120B2B0AD906120B2B29D906120B2BA3D90634
:2023A000120B2BB1D906120B2B44DA06120B2BAEDA06120B2B9FB507120B2B1BB607120B23
:2023C0002B59B607120B2B3DB707120B2BACB707120B2BF0B707120B2B33B807120B2B60EF
:2023E000B807120B2B7EB807120B2BB6B807120B2BF3B807120B2B14B907120B2B8AB90734
:20240000120B2B008006120B2B948106120B2BD28306120B2B1A8406120B2B458406120BC8
:202420002B3B8506120B2B6B8506120B2BC28506120B2BEF8506120B2B388606120B2B744E
:202440008606120B2BB98606120B2B068706120B2B6E8706120B2BA08906120B2B678B068E
:20246000120B2BA28B06120B2B208D06120B2B648D06120B2BD78D06120B2B978E06120B65
:202480002BB68F06120B2BC78F06120B2BE2EF06120B2B53F006120B2B1CF606120B2B16B4
:2024A000F706120B2BD8F806120B2B56F906120B2B12D105120B2B99D105120B2BC6D10599
:2024C000120B2B08D205120B2B04D305120B2B49D305120B2BC5D405120B2B4DD505120BD6
:2024E0002BC0D505120B2B7DD605120B2B39D705120B2BB9D705120B2B87D805120B2BAD9C
:20250000D805120B2B1FD905120B2BC3D905120B2BE8D905120B2B54DA05120B2BBADA0546
:20252000120B2BF0DA05120B2B94DB05120B2B2DDC05120B2BB0DC05120B2B1CDD05120B36
:202540002B68DD05120B2BCEDD05120B2BFFDD05120B2BB3DE05120B2BC9DF05120B2B12B8
:20256000E005120B2B2FE005120B2B0FE605120B2B57E605120B2B44E705120B2B69E70539
:20258000120B2B7EE705120B2BE6E705120B2B26E805120B2B39E905120B2BE6E905120B6C
:2025A0002B008007120B2B4B8007120B2B578007120B2B228107120B2B388107120B2B7473
:2025C0008107120B2BAD8107120B2BE58107120B2B3B8207120B2B518207120B2B8D8207B5
:2025E000120B2BA08207120B2BC78207120B2BFB8207120B2BCF8307120B2B5E8507120B16
:202600002B5A8607120B2B638707120B2BCBE707120B2BCC8F06120B2B079006120B2B0B8D
:202620009306120B2B5D9406120B2B229506120B2B1C9806120B2B069906120B2B51990696
:20264000120B2B6B9906120B2BA89906120B2BB39906120B2BF29906120B2BFB9906120B27
:202660002BBC9A06120B2B799B06120B2BDC9B06120B2B409C06120B2BC19C06120B2B543B
:202680002B00120B2BB02E00120B2BB62E00120B2BF73500120B2BCF3A00120B2BB2CC072B
:2026A000120B2B7CCD07120B2BC0CD07120B2BFACD07120B2B8CCE07120B2BFBCE07120BB2
:2026C0002B04CF07120B2B10CF07120B2B24CF07120B2B48CF07120B2B78CF07120B2BA79A
:2026E000CF07120B2BB4CF07120B2BCECF07120B2B01D007120B2B3ED007120B2BA4D00706
:20270000120B2BB9D007120B2BC4D007120B2BD1D007120B2BE8D007120B2BF6D007120BD5
:202720002B01D107120B2B0DD107120B2B1CD107120B2B27D107120B2B47D107120B2B57DF
:20274000D107120B2B6DD107120B2B8BD107120B2B96D107120B2BABD107120B2BBFD10709
:20276000120B2B20D207120B2B26D207120B2B2CD207120B2B32D207120B2B44D207120BAF
:202780002B3AAB06120B2BC8AB06120B2BA4AC06120B2BD8AC06120B2BEBAC06120B2B6560
:2027A000AD06120B2BEDAE06120B2B14AF06120B2B9BAF06120B2BDAAF06120B2BEBAF0615
:2027C000120B2B60B006120B2B7FB006120B2B97B006120B2BDBB106120B2BE5B306120BAC
:2027E0002B17B606120B2B1DB706120B2B60B706120B2BD0C306120B2BDAC306120B2BFC44
:20280000C306120B2B08C406120B2B55C506120B2B82C506120B2BA3C606120B2BE5C60628
:20282000120B2B2BC806120B2B8CC806120B2BC1C806120B2BFAC806120B2BA5CC06120BF2
:202840002BBCCC06120B2B3ACD06120B2B48CD06120B2B91CD06120B2B9FCD06120B2B2039
:20286000CE06120B2B8FCE06120B2BDBCE06120B2BD1DA06120B2BF3DA06120B2BCFDC06D5
:20288000120B2B47E006120B2B91E106120B2B73E206120B2BCEDE07120B2BF3DE07120B28
:2028A0002B64DF07120B2B409207120B2B499207120B2B529207120B2B769307120B2B671E
:2028C0009507120B2B959507120B2BC09507120B2BEE9507120B2B199607120B2B57960733
:2028E000120B2B839607120B2BC09607120B2BEB9607120B2B379707120B2B8E9707120B4D
:202900002BCE9707120B2B1D9807120B2B489807120B2B8E9807120B2BBC9807120B2BE7A6
:202920009807120B2B0A9907120B2B76E707120B2B80E707120B2B90E707120B2B0CDD07A6
:20294000120B2B33DD07120B2BABE607120B2B32D507120B2B82D507120B2BF1D507120B0A
:202960002B95D607120B2BB4D607120B2B02D707120B2BE7FF06120B2BF2FF06120B2BB846
:20298000E707120B2BF3E507120B2B03E607120B2B0CE607120B2B50E607120B2B35E307BD
:2029A000120B2BB8E307120B2B1EE407120B2B969907120B2B159A07120B2B2C9A07120B2E
:2029C0002BF49A07120B2BCE9B07120B2B1B9D07120B2BDB9D07120B2B3F9F07120B2BC577
:2029E0009F07120B2B3BE707120B2B4DE707120B2B6EA707120B2B78A707120B2BB8A707BD
:202A0000120B2B01A807120B2B39A807120B2B8FA807120B2BACA807120B2BB5A807120B9C
:202A20002BFAA807120B2B23A907120B2B38A907120B2BA8A907120B2B35AA07120B2B89D8
:202A4000AA07120B2BACAA07120B2B2BAB07120B2B66AB07120B2B9BAB07120B2BADAB075F
:202A6000120B2BC9AB07120B2BD2AB07120B2B84AC07120B2BAAFF05120B2B7FE007120B87
:202A80002BD0E007120B2B59E107120B2BC3E107120B2B77D207120B2B9FD207120B2B94A4
:202AA000D307120B2BB9D307120B2B48D407120B2B37E407120B2B4AD907120B2B80D90772
:202AC000120B2BB3D907120B2B0CDB07120B2BD1B907120B2BE7B907120B2B8BBA07120B6C
:202AE0002BCABA07120B2BE7BA07120B2B18BB07120B2B65BB07120B2B98BB07120B2BD3E2
:202B0000BB07120B2BADB706120B2B41BB06120B2B98BB06120B2BB7BB06120B2B14BC0678
:202B2000120B2B91BD06120B2B64BE06120B2B26C206120B2B0EC306120B2BF5E607120BED
:202B40002BD33F00120B2B9AE707FFFFFFFFFFFFFFFFFFFF74F6120F1E907803E0644270C8
:202B600052900522E014F0704AC2AF122B6E00784CD0E0F618D0E0F6E59F540770047BFF9D
:202B800080027B7FC4C0E0784BE6F52108E65BF522740B7821120E8CD0E02521F890627022
:202BA000E0A2E740F8E8C333906272F0906270E0D2E0F09003A0E0F47003022E691235669E
:202BC000EE123A6FE06401700AEE24F6123A1CF9022DCE123A1964027002E4F0EE240312EF
:202BE00035D3601CEE2403F582EF3401F5831234D0EE2402F582EF3401F583E0F9122A488F
:202C00008E828F83A3A3A3A3A3A3A3122EA31234A1906054E0900379F0906055E090037A01
:202C2000F0906056E090037BF0906057E090037CF0906058E090037DF0906059E090037EF8
:202C4000F090605AE090037FF090605BE0900380F090605CE0FC900381F090605DE0FB9046
:202C60000382F090605EE0FD900383F090605FE0FA900384F090037FE02CF8E43400F9E86F
:202C80002DF8E439F9E82BF8E439F9E82AFAE439FBEE24F8123A1C2AF0A3E03BF0EE24FA6E
:202CA000F582E43F122E98EE24FC1235C86052906000E0FC25E0FCE433FDE82CF582E93D41
:202CC000F583E02AF0A3E03BF0906000E0FA900381E0FCEA2AFAE433FBE82AFAE93BFBEAE5
:202CE000244AF582E43B122E98906000E0FA25E0FAE433FBE82AF8E93BF9E82494122E8591
:202D0000F090037FE0700E900382E07008A3E07004A3E060518E828F83A3A3A3A3A3123523
:202D2000E0122E787003123E3F90037AE0601CEE241C123A0B123DE6E07010123A19700B96
:202D4000EE2480123A1C7003123E3FEE2483123A1C7003022DE46402707E900382E07078C3
:202D6000122E6EE4807D123486F0900381E0600A122E78702712353E8021EE24FE1235C816
:202D8000601A906000E0F825E0F8E433F9EEF582EF34011234B724DE122E85F012347812D7
:202DA0002EA3E0687003A3E0696003022D29EE240F123A1C60128E828F83A3A3A3A3A3E0B4
:202DC00064057002A3E0600479088002793EEEFAEFFB122574022E69900382E07006122EB6
:202DE0006E7402F0906062E060248E828F83123AA6E82406FCE439FDE82402FAE439FB12DB
:202E000026CA8E828F83123530E4F0A380061234861234A7F0906060E0C0E0EE2468F582C2
:202E2000E43FF583D0E0F09061C8E060061213F5E970F48E828F83A3A3A3E0602C9061C8C1
:202E4000E070069060607480F0EEFAEFFB122694E9640160147902EEFAEFFB1216231226B8
:202E600088E9640160031226167F02020FF0EE2483F582E43FF58322EE240F123DCA123400
:202E8000ACE0640122F582E439122E8D22F583E02401F0A3E0340022F583E02CF0A3E0342B
:202EA00000F022123AAA8E828F83A3A3A3A3A32253BFEF020B2874F0120F1E9003A0123544
:202EC000669061D0E0700CEE2463F582E43F1235D860051234868020EE2469123A1C701904
:202EE000123A197014EE2480123A1C700CEE241C123A69700412353EF08E828F83A3A3A39C
:202F0000A3A31234C81234711234B7240108500109EE2407F521E43FF52285218212349FAC
:202F2000123478C3E098A3E09950208E828F83A3A3A3A3A3A3A3C082C083123478123AA640
:202F4000D083D082123E58501B8021123478C082C0838E828F83A3A3123AA1D083D08212C9
:202F60003E4450089004BEE0640170031235B0EE2474123A69704E12346612114812358C93
:202F8000120EC4E9603F8E828F83A3A3A3A3A3A3A3C082C083123512D083D082E0687003F0
:202FA000A3E069700302304BEE2475123A1C687003A3E069700302304BEE2475F523E43FCD
:202FC0008523828051EE2480123A69707EEE2481F582E43FF58312114812358C120EC4E911
:202FE00060698E828F83A3A3A3A3A3A3A3C082C083123512D083D082E0687003A3E06960E7
:203000004AEE2481123A1C687003A3E069603CEE2481F582E43FF583E024FFFAA3E034FFB0
:20302000FB852182852283EAF0A3EBF08E828F83A3A3A3A3A3E0FCA3E0FD1213EDEA24FF1F
:20304000F8EB34FFF9EE241D12349BEE2483123A1C60031235B0EE2474123A696003023129
:20306000B2123466C082C083123512D083D082E0687003A3E06960030231B2EE2475F523E1
:20308000E43FF524852382F583123AA68521828522831234A1EE2477FCE43FFDEEFAEFFBB0
:2030A000122580EE247C1234C2123553E8F0A3E91234A7123A96240F123A43852182852265
:2030C000831235E08E828F83A3A3A3A3A3E0FCA3E0FD8523828524831234D01213ED8A2170
:2030E0008B221234501234D0E4F523F5248A258B26F527F52878217925120B94EE24781245
:20310000349178217925120CBBEE247A123A1C6A7003A3E06B7018123503E0687003A3E00B
:2031200069700C1234E7E0687003A3E0696043EE247EF582E43FF583123AB0120E8C78254C
:20314000121131EE247CF582E43FF583121148EE247A123A1CFCA3E0C313FDEC13FC8E82BF
:203160008F83A3A3A3A3E0FA7B001222A47404120EC4EE2477123A1CC0E0EE242BF582E4FF
:203180003FF583D0E0F0EE247A1234C2242E12349B1234E71234A11235031234A1EEFAEFF5
:2031A000FB122586EE2474F582E43FF5837402F0800312357A12345A120B407014EE241F63
:2031C000123A1CF8EE241D123A1C687002A3E06032EE2412F525E43FF5267825121131EEAE
:2031E0002410F582E43FF583121148123470F583121148AA21AB22AC23AD24121CE17406C4
:20320000120EC412345A120D69EE241D123A1CC0E0EE241FF582E43FF583D0E0F0EE241264
:20322000FCE43FFD1234D6906062E060077C607DB11234D68E828F83123AA68882F583A35E
:20324000A3E82408FCE439FD7406120DC18E828F83E02402F8A3E03400F9E8FAE9FBEE249F
:203260001D123491E4F527F52890B1B57825120CCE78257921120B948A828B837825120C01
:20328000E190B1D17825120D5A8A828B837825120D479004B7E0640160030233CC79011288
:2032A000270C1234CCEA240EF582E43BF58374FF123DF8EA2412F8E43BF9E8FAE9FBEE24DD
:2032C00012F582E43FF5837821120D5AE52175F0E2A4C521A8F075F004A428F875F0E2E5F0
:2032E00022A428F5228A828983E02521F0A3E03522F0EE2416123A1CF521A3E0F522740419
:203300007821120E8CE5212401F8E43522F98A828B83E028F0A3E039F0906062E08E828F82
:20332000837003023428123529F0A3E03401F0EE240F123A1C602CEE242B123A1CF875F01A
:2033400071A4C8AAF075F002A42AF98E828F83E0FAA3E0CA2412F582E43AF583E028F0A3A1
:20336000E039F01234CC8A82F583A3A3C082C08312357AD083D0827821120CCE90B1CD7872
:2033800021120CCE90B1D17821120D34EA2416F582E43BF5837821120D69EA2414F582E452
:2033A0003BF5837410F08E828F83E0F8A3E0C8241AF582E438F58374FCF0A37424F0EEFAE5
:2033C000EFFB12130979007F08020FF090B1AD7821120B7550030232A21234701235D8605D
:2033E000030232A2782112112DEEFAEFFB12258C7404120EC4E9640160030232A2EE240F72
:20340000123A1C60128E828F83A3A3A3A3A3E064057002A3E0600479088002793EEEFAEF4E
:20342000FB1225747901809F123529F8A3E034FFF97A717B02120E2388218922123450128F
:203440003AA6C3E52198E52299500302332F80C7EE242EF582E43FF58322EE2418F582E494
:203460003FF583782122EE2475F582E43FF58322EE241DF582E43F2212347C22EE240BF53E
:2034800082E43FF5832212348A2212355CE4F0A322123A20F525A3E0F52622F582E43FF5EA
:2034A00083E8F0A3E9F0221234ACE422F0EE241CF582E43FF58322F583E028F8A3E039F99C
:2034C000E822F582E43FF5831234FC228E828F83E0FAA3E0FB228E828F83E02402FAA3E02B
:2034E0003400FB121C1F22EE247C1234F62430F582E43FF58322F582E43FF583E0F8A3E06F
:20350000F9EE22EE247E1234F62432F582E43FF58322123516228E828F83A3A3A3A3A3E09C
:203520002401F8A3E03400F922123530E0241022E0F8A3E0C82412F582E438F58322123522
:203540004222EE123553E0F8A3E0F912355CE8F0A3E9222420F582E43FF58322EE241DF566
:2035600082E43FF58322E0F875F010A4C8AAF02AF974A228FE740339FF22EE242E123A20DD
:20358000F521A3E0F522E4F523F524228E828F83A3A3A3A3A3A3A3E0FCA3E0FD8E828F832F
:2035A000A3A3A3A3A3E0FAA3E0FB1213AE74022212348AF01235168E828F83A3A3A3A3A3AB
:2035C000A3A3E8F0A3E9F022F582E43F122E8DF0EE2400F582EF3401F583123AAAE849226A
:2035E0001234FC240D123A2028F8A3E039F912347CE8F0A3E9F02274EC120F1EEAFEEBFF6E
:203600008C828D83E0F8A3858223858324603B1470030237491470030239C21470030237D3
:203620008224FD700302389C1470030239F11470030238C824FE70030238A2147003023830
:20364000C214700302395D0239E1EA2477F529E43FF52AE0852982852A83123A87EA2478ED
:20366000F527E43FF5287902AC23AD24AA27FB123A00247AF525E43FF5267902AC23AD24AA
:20368000AA251239FC7902AC23AD24EE247C123A14247EF521E43FF52279021239F68529AF
:2036A00082852A83E0C333F0852782852883123ABC8527828528831234A18525828526838B
:2036C000123ABC8525828526831234A1852182852283123AB0120E9B852182852283E5253C
:2036E000F0A3E526F0EE2475123A4DC082C083123A9DD083D082123AC65070EE247E123560
:203700007DEE247C123A1C2401F525A3E03400F526E4F527F528EE247AF582E43FF5831258
:203720003AA6E828F8E9338829F52AE4F52BF52C78257929120B9478217925120B554004B3
:20374000793B8029EE2474802E7905AC23AD247AB27B04123A002481123A4DC082C08312EE
:203760003A9DD083D082123AC640097928EEFAEFFB0239DCEE2480123A0B123A9624830274
:2037800039ACEA24E3123A1C70347521007886790388828983E0C0E0AA21EE2AFAE43FFBA6
:2037A000EA24E4F582E43BF583D0E0F0052188828983A3A882A983E521C3940840D3EE24AA
:2037C000E4123A1CA2E0EE401024DFF582E43FF583741AF0790D0238952462123DCA123A0A
:2037E00078123DDA7401F07908AC23AD24EE249D123A2824A5123A142495F521E43FF5224D
:2038000079081239F67908AA21AB2212259EEE2489F521E43FF5227904AC23AD24AA21FB2A
:203820001225987904AA21AB2212259EEE248DFAE43FFB1225B0EE2485FAE43FFB1225B695
:20384000900374E04480F0EE24DE123A69700C7904EEFAEFFB1225440239F1EE246A123AEE
:203860001C640C702EE0F521EE2469123A1CF5227904EEFAEFFB122544740165227010EEFA
:203880002473F582E43FF583E521F079FD8006A92180027904EEFAEFFB0239EEEA24E002D9
:2038A00039ACEA2462123A052467123A0524D4123A0524DE123A43EA24D5123DD5790B021F
:2038C00039EEEA24E10239AC752100A823A9247A667BB17C867D038A828B83E0F4F52288A2
:2038E000828983E05522F0E521701A852382852483E0F522900386E05522C0E0EE24E4F51B
:2039000082E43F801D8C828D83E0C0E0E521F525EE2525F525E43FF526E52524E4F582E4AA
:203920003526F583D0E0F005218C828D83A3AC82AD838A828B83A3AA82AB8388828983A3FF
:20394000A882A983E521C39408408CEE2467123A1C604AEEFAEFFB1225200239F1EA24EC06
:20396000123A69607C852382852483E0C0E0EA24EFF582E43FF583D0E0123A877902AC2304
:20398000AD24EA24F0123A2824F2FAE43FFB122598EE24EC123A0B123A78E07014EE24F662
:2039A000F582E43FF583743DF0EE24F5123A438040EE24EE123A1C7038EEFAEFFB122526BF
:2039C000802FEA24F6F8E43FF9E088828983F0EA123A6F7401F088828983E0F91225748016
:2039E00010EA24F7F582E43FF583E8F079071225387F0C020FF0AC23AD24AA21123A3A223A
:203A0000123A3BEE22123DCAF0EA22F582E43FF583740122123A33EE22EE2474123A2022AE
:203A2000F582E43FF583E022123A337902AC23AD24EE22FAE43F123A3A22FB1225988A238C
:203A40008B2422F582E43FF5837401F022F521E43FF5227902AC23AD24AA21FB1225988577
:203A6000218285228322EE2469123A2064012224F5F582E43FF58322123A7C22F0EE246749
:203A8000F582E43FF58322F0852382852483A385822385832422F012348AF0EE228E828F32
:203AA00083A3A3A3A3A3123AAA22E0F8A3E0F922E0F525A3E0F5267404782522123AAAE819
:203AC00028F8E933F922123E4D94FFE9947F2274F6120F1EEAFEEBFF8016EEFAEFFB122527
:203AE00032E964016003023C07EEFAEFFB12253EEE246E123A1C7003023C07EE246A123AEF
:203B00001C24FE603C24FE605D147003023BB6147003023C421460C224FE7003023D12242B
:203B2000FE7003023CAB147003023D33147003023CDB24117003023C07147003023D9E80C1
:203B4000AF123A66701790037BE07003023CF87916EEFAEFFB1225747901023C09EEFAEF42
:203B6000FB12252C804A123A66703E90037CE07003023CF879FCEEFAEFFB122544EE24A5AC
:203B8000F521E43FF5227821121131EE249DFCE43FFD8E828F83A3A3A3A3E0FA7B001222E6
:203BA000927402120EC4023AF0EEFAEFFB122502123DEBE98050123A66702F90037CE0604F
:203BC00012EE2484123A43EE24D6123DF5EE24DA123DF5EE24E0123A696003023CF8790693
:203BE000EEFAEFFB122544023AF0EE24D4123A69701AEEFAEFFB122508E964017009123D00
:203C0000C3123DE67401F07900022E69EE24D5123A1C60F3EE24B4F521E43FF522782112D2
:203C20001131EE248DFCE43FFDEE24C4FAE43FFB1225BC7402120EC4EE24D4123A0BF0021D
:203C40003AF0123A66705A90037CE07003023CF8123E3FEEFAEFFB12253E123E00EE24DE10
:203C6000123A69701379008E828F83A3A3A3A3E0FA7B0012229E80137C0179008E828F8313
:203C8000A3A3A3A3E0FA7B00122298EE24DEF582E43FF583123DDAE4F0123DD2123DC380C5
:203CA0009DEEFAEFFB12250E023BB0123A66700DEE24E1123A69704079FC023BE0EEFAEF73
:203CC000FB122514E964016003023C07123DD2EE2484123DD5EE2469023C3B123A6670288F
:203CE00090037CE06009EE2484123DD5123E0090037BE06003023AE9123E121235DA600306
:203D0000023C077922023B51EEFAEFFB12251A023BB0123A66701290037CE060DBEE24E3D2
:203D2000123A43123E3F023AE9EEFAEFFB122520023BB0123A667056EE24EC123A69702768
:203D4000EE24ED123A696003023AE9123DAF121148123DB9121148123E2B790012228C7423
:203D600004120EC4023AE9123E121235DA6003023C07123DAF121148123DB9121148123EDF
:203D80002B792212228C7404120EC4023D03EE24EE123A43EEFAEFFB122526023BB0EE2442
:203DA00073123A1CF9EEFAEFFB122544023CD5EE24F2F582E43FF58322EE24F0F582E43FFB
:203DC000F58322EE24E0123DCA22F582E43FF583E422EE24E1123DCAF022E4F0EE24E2F529
:203DE00082E43FF58322F0123DEB22EE2469F582E43FF58322123DCAF0A3F0A3F0A3F022A5
:203E0000EE2462F582E43FF5837401123A7C7401F022EE2471F8E43FF98882F583E024FF3C
:203E2000F0A3E034FFF08882898322EE24EF123A20FC8E828F83A3A3A3A3E0FA7B00221214
:203E40003542F022123E4D94ABE9941022E0C398F8A3E099F9C3E822123E4D94AAE99410D1
:203E600022120EC47F04020FF0C082C083900287E0A2E250117A947B18121FB090188B742C
:203E8000FFF0A3F080077A007B00121FB0D083D082020B2874F4120F1E74FA120EAE8A23D9
:203EA0008B24752101EC2402F8E43DF9E8FAE9FBEC2404F8E43DF9E8FEE9FF78231211BB65
:203EC000000003000300EB3E1320D23EFFFF643F9A3F8A828B83E0F8740C686008741168C7
:203EE0006003023F9D122010023F9D8E828983E0FAA3E0FB8C828D83A3A3A3E0F9741A6916
:203F0000700C90188BE06A7003A3E06B60D78C828D83A3A3A3A3A3A3A3A3A3A31211488C9D
:203F2000828D83A3A3A3A3A3A3A3A31211488C828D83A3A3A3A3A3A3E0FCA3E0FD121F7A75
:203F40007404120EC48E828F83E0F8A3E0F990188BE0687003A3E069704390188B74FFF06C
:203F6000A3F0803978008C828D83A3A3A3A3A3E064127022854182854283E4F0A3F0AC4162
:203F8000AD428E828983E0F98A828B83E0FAA3E0FB1222DA780188218003752100A9217444
:203FA00006023E61C082C08390188BE0F47003A3E0F4601C9002BCE0F97CAC7D0290188B67
:203FC000E0FAA3E0FB1222E090188B74FFF0A3F0023E8DC082C083854182854283E0F8A3ED
:203FE000E0F9E84960128A828B83ECF0A3E824FF18E934FFF94870F2D083D082020B28FFF1
:20400000F101FFFF0100009442424242FFFFFFFFFFFFFFFFFFFFFFFFFFFFFFFFFFFFFFFF27
:20402000000102030405060708090A0BFFFFFFFF02438F025D62FFFFFFFFFFFFFFFFFFFFB7
:20404000FFFFFFFFFFFFFFFFFFFFFFFFFFFFFFFFFFFFFFFFFFFFFFFFFFFFFF026186FFFF94
:20406000FFFFFF0255D1FFFFFFFFFF0261A0FFFFFFFFFF026160FFFFFFFFFFFFFFFFFFFF69
:20408000FFFFFF025DD8FFFFFFFFFFFFFFFFFFFFFFFFFFFFFFFFFFFFFFFFFF0254DCFFFFD1
:2040A000FFFFFFFFFFFFFFFFFFFFFF025546FFFFFFFFFF025BBF024A87010000288702349E
:2040C000870100005F871042850300008602025287030000810202508701000028860234F1
:2040E000870100005E8710928502000000000252870300008302025087010000108600C097
:20410000010000000F81DD8177810784A4809D8200801C866883358433863E82E882000041
:20412000030000010000000000000000140030FF0000B4000028002800283075A000A00027
:20414000A000A00000080008E001F0001000100010001000100010005000500050001000DE
:204160001000D0070000000000000F0001000500307507001000010081FF00000000FFFF08
:20418000FF5265706558658E65FF02020208025000A0000000E803024A8701000025870278
:2041A0003487010000BD1B0254870100007D03023487010000BE1B025687010000930302FE
:2041C0003487010000BF1B024E870100009503023487010000C01B023E87080000960302D6
:2041E0003487010000C11B023A87010000C21BFF0100FF20024A870100002E870234870120
:204200000000261C0236870000000000025287030000C4031700D06BD06BD06BD06BD06BBA
:20422000D06BD06BD06BD06BD06BD06BD06BD06B406E526E3A6E02024A8701000031870200
:2042400034870100005D87024487010000FA070234870100005B87024287010000F7850205
:2042600034870100005A8702408701000092840234870100005C87023C87010000318502A2
:204280003487010000691C023887010000628601FFFF000130750302010600000000000082
:2042A00000000000000000000000000000000000000000000000FFFF0600800CE803010082
:2042C000B0423BAAB83F0000003F8C906339AA0CA33A00941E3C8042633DCFFE753E15722F
:2042E000313F0000803FF304353F8096184B000080BF2292D43EDD9B2A3F04000040FFFF83
:204300007F7FFFFF7FFF010080341872313FE5C754F84404F5C779012200000080FB12430C
:204320000EB90003024379E479437815B800028004F709D8FCE479587802B800028004F752
:2043400009D8FCE4900280786A79198002F0A3D8FCD9FA7AE97B1A9040B6785979038015FA
:20436000E493A3AD82AE838A828B83F0A3AA82AB838D828E83D8E9D9E775828D75838574A6
:20438000051243A175821975834374001243A175D00075815F754180754202759F0002438B
:2043A0001EC09FF59FE473D09F22D083D082C09FE493C0E0740193C0E0740293F59F22E0A2
:2043C00066701008A3E066700A08A3E066700408A3E06622C3E7960809E7960809E79608B0
:2043E00009E796A2D265D03322C3E09608A3E09608A3E09608A3E096A2D265D03322C021BE
:20440000C3E096F52108A3E096422108A3E096422108A3E0964221A2D265D033E52170016E
:20442000D3D02122C3E7960809E7960809E7960809E79622C3E09608A3E09608A3E0960807
:20444000A3E09622C021C3E096F52108A3E096422108A3E096422108A3E09645217001D31E
:20446000D02122080808E630E711124D8512447B080808C64480C618181822181818E979D2
:204480009EC608CAC608CBC608CCC6C370207996CACBCC7019798ECBCC70137986CC700E37
:2044A000F9802ACA33CACB33CBCC33CC331930E7F2CCCBCA3350147004EA30E00DE4CA3A4E
:2044C000CACB3BCBCC3CCC500209C3E913C6CC182313C6CB18C6CA18C6F92212451B20F0BF
:2044E0001430E72B74FFFCFBFA747F8022E4FCFBFA7480801AB48008BC00F2BB00EF800FE7
:2045000050EBF9E4C39AFAE49BFBE49CFCE499C6CC18C6CB18C6CA18C6F922E4C9C608CA98
:20452000C608CBC6D3330308CCC63392F0C3947F402E94184019C9B90704CACBCC225025F6
:20454000C309CA33CACB33CBCC33CC33D9F422F4600DC9CCC313CB13CBCA13CAD9F6CC2239
:20456000E4FCFBFA2214FCFBFA22E62618461846184622E72719471947194722181818E657
:204580000846087009E626087005E633F4220822191919E70947097009E727097005E733C0
:2045A000F4220922E6084608C3134608336002E633F422E7094709C3134709336002E73381
:2045C000F4221245A460251245B3602012456A7003024573080808E76670101819E76670FA
:2045E0000A1819E76670041819E76622F4221245A4601C1245B3601712456A70071245730F
:204600007001D322C0D01245737006D0D0B322C32233D0D0501430E0F6C3E7960809E796FF
:204620000809E7960809E796B32220E0D5E6970809E6970809E6970809E697B3221245A4BD
:20464000601B1245B3601612456A7007124573600CB322C0D01245737005D0D022C3223373
:20466000D0D0501330E0EBC3E7960809E7960809E7960809E7962220E0E4E6970809E69741
:204680000809E6970809E69722001245A4604F1245B36012E7548066F612457C70111245F4
:2046A00073703B090909F4F618F618F618F622124590701512456A08080860EAE6447FF65D
:2046C00018768018E4F618F62212456A60161245737012E4F608F608F608E65480F6090987
:2046E0000918181822EAC0E0EBC0E0ECC0E0EDC0E0E687F0A4FBACF008E687F0A42CFCE46C
:2047000035F0FA1809E687F0A42C4B60027401CA35F0FCE433FB09E687F0D2F7A42CCB350E
:20472000F0FC1908E687F0A42BCC35F0FBE433FD0819E687F0D2E7A42C4ACB35F0CD3400FE
:20474000FC09E687F0D2E7A42DCC35F0FDE433FA0918E687F0D2F7A42CCD35F0CA3400FC6B
:2047600008E687F0D2E7D2F7A42ACC35F07A7E20E70B0ACB33CBCD33CDCC33CC33CB33509D
:20478000147004ED30E00ED2F1E4CD3DCDCC3CCC3B5005DA05C2F1EB547FC63308E63392A8
:2047A000F0FBE73309E733C39A502D2B70190C0D4C4D70151806E608C333700D20F10AA2D0
:2047C000F013F6E418800B4024E4F630F002768018F618F618F68024D33B14501074FFA29E
:2047E000F013F6187680E418F618F6800FA2F013F618E63303F618ECF618EDF6D0E0FDD0EC
:20480000E0FCD0E0FBD0E0FA221245B360461245A4603DE9687008F618F618F618F622747E
:204820008067F712483D090909748067F7221245A4601D1245B37005191919801A12457CC5
:20484000701F124590C37003E6673319191940071818182208080874FFF618F618F618F685
:20486000221245906017124573702192F012456A7019501720F014080808090909E7F618DE
:2048800019E7F61819E7F61819E7F62212456A60E6E869701F0808E62480F608E436F6183D
:2048A000547FB47F0CE654806007F6E418F618F622181822E9C6CC08C6CD08C6CE08C6CF0C
:2048C000C0E0E8C0E0EAC0E0EBC0E009E9F809E7FA09E7FBE6F918E6F8C3EC98ED99EE9AB2
:2048E000EBC2E7F5F0EFC2E795F0500E600CEBCFFBEACEFAE9CDF9E8CCF8EAA2E7D2E7FA70
:20490000EB33FB13F5F0EEA2E7D2E7FEEF33FFC5F013A2E730E601B313C5F0C3C0E0C0F041
:204920007F00C39BFB605E9418600F401D14601AD0E023F9D0E0F8024A0F8AF0E9486003FE
:20494000D2F0E4AFF0FAF9F8803BEB30E40D89F0EA6003D2F0E4AFF0F9CAF8EB30E30D8807
:20496000F0EF6002D2F0AFF0E4CAC9F8EB54076014FBC3EA13FAE913F9E813F8EF1350027B
:20498000D2E0FFDBEDD0E0C0E030E739C3E49FFFF5F0EC98FC42F0ED99FD42F0EE9AFE42A5
:2049A000F0D0E0F9D0E0F8E5F0607AE923F9EE20E742D8028067C3EF33FFEC33FCED33FDEE
:2049C000EE33FE80EAEC28FCED39FDEE3AFED0E023F9D0E0F84002801BC3EE13FEED13FDE5
:2049E000EC13FCEF135002D2E0FF08B800067F7F74FF802EEF3350178CF020F00260100C3F
:204A0000BC000C0DBD00080EBE000408E860DFE933E813FFEE2313FE4F4D4C8008E9548098
:204A2000FFE4FEFDFCEE33EF33F47004FCFD7E80D0E0FBD0E0FAD0E0F8D0E0CFC618CEC60C
:204A400018CDC618CCC6F9221245A47004181818221245B3700D74FFF61819F61819F618B7
:204A600019F622E7548066F612456A700F12457370F014F608F608F608F680D112457370F5
:204A80000CF608F608768008E6447F80EC124593700C12457F60BFE65480F6E480BB12457A
:204AA0007F700519191980A5E869700C763F18768018F618F6E8F922E6CDC0E018ECC0E0EC
:204AC000E633CD33CDD313F6E719FCE7191933CC33C3947F400ECD9D502408E65480F6E42F
:204AE00018F6800FF4043D14501408E6447FF6187680E418F618F6D0E0FCD0E0FD22CCD39D
:204B000013CCFD18E4C6CBC0E018E4C6CAC0E00808ED08C633E613F618E433C675F003C353
:204B2000CA97CA09CB97CB199C40047D08802EBD0003024BF116B6FF050606081618C3CA4B
:204B400033CACB33CB33CA27CA09CB37CB193CC37D08803E187D0820E75CC633C6CA33CAEA
:204B6000CB33CB33DDF1D5F0EB30E77BCA97CA09CB974ACB199C406F4B7025E620E02180B3
:204B800066187D08C3CA97CA09CB97CB199CD3C633C6CA33CACB33CB3350C9DDE7D5F0E161
:204BA000D3E4C636C608C636C608C636C608C636C61818188031C3CA97CA09CB97CB199C4C
:204BC000B34097C633C6CA33CACB33CB33DD34D5F02EC6A2E0C640C8CA27CA09CB37194A86
:204BE00070BECB3CB480B90808E63308E633601F181818D0E0FAD0E0FBD0E0FCD0E0FD22B2
:204C0000187D08CA27CA09CB37CB193CD3808013F618E4B67F11F618B6FF0EF618C60470DA
:204C2000D20808768080CAF618F618F680C5080808EAC0E0EBC0E086F0E7A4FA180986F03C
:204C4000E7A42AFA180986F0E7A42AFA180986F0E7A42AFA1986F0E7A4FBE5F02AFA1908EA
:204C600086F0E7A42BFBE5F03AFA190886F0E7A42BFBE5F03AFA18180986F0E7A4C5F02B99
:204C8000FBE43AFA1908E7C5F0C6A426F6E5F03BFBE43AFA1886F0E7A4F6E5F00826F6E4AF
:204CA0003B08F6E43A08F6D0E0FBD0E0FA22E4CFC0E0E4CEC0E0E4CDC0E0E4CCC0E075F07D
:204CC00020E626F608E633F608E633F608E633F6181818EC33FCED33FDEE33FEEF33FFC3EA
:204CE000EC9709ED9709EE9709EF97191919400FFFEC97FC09ED97FD09EE97FE191906D54C
:204D0000F0BFECF709EDF709EEF709EFF7191919D0E0FCD0E0FDD0E0FED0E0FF22124D882D
:204D2000181818124CAE124D7419191922124D74191919080808E618181820E7E0124CAE88
:204D4000124D8818181822090909E719191920E7DC080808E618181820E703024CAE124D27
:204D600088181818124CAE124D88181818124D7419191922E4C397F709E497F709E497F7BD
:204D800009E497F722181818E4C396F608E496F608E496F608E496F6226017080808C6A27A
:204DA000E713C618C613C618C613C618C613C6D5E0E9226016080808C6C313C618C613C6A7
:204DC00018C613C618C613C6D5E0EA227009080808226016181818C6C333C608C633C608E2
:204DE000C633C608C633C6D5E0EA22E627F60809E637F60809E637F60809E637F622E026D5
:204E0000F608A3E036F608A3E036F608A3E036F622E026F008A3E036F008A3E036F008A352
:204E2000E036F022C3E697F60809E697F60809E697F60809E697F622C3E0C696F608A3E0E6
:204E4000C696F608A3E0C696F608A3E0C696F622C3E096F008A3E096F008A3E096F008A32E
:204E6000E096F022E056F608A3E056F608A3E056F608A3E056F622E056F008A3E056F008D8
:204E8000A3E056F008A3E056F022E647F60809E647F60809E647F60809E647F622E046F05F
:204EA00008A3E046F008A3E046F008A3E046F022E066F008A3E066F008A3E066F008A3E00A
:204EC00066F022E0F608A3E0F608A3E0F608A3E0F622E6F008A3E6F008A3E6F008A3E6F086
:204EE00022E0FAA3E0FBA3E0FCA3E0FD22EAF0A3EBF0A3ECF0A3EDF022E0FCA3E0FDA3E0BF
:204F0000FEA3E0FF22ECF0A3EDF0A3EEF0A3EFF022E0F8A3E0F9A3E0FAA3E0FB22E8F0A382
:204F2000E9F0A3EAF0A3EBF022CAC0E0E6F0A308DAFAD0E0FA22CAC0E0E0A3C582CCC582A9
:204F4000C583CDC583F0A3C582CCC582C583CDC583DAE6D0E0CA22C3E498F8E499F9124F40
:204F6000988026C3E49AFAE49BFBE920E7E9124F98E498F8E499F922C3E498F8E499F912A1
:204F80004F98E498F8E499F9C3E49AFAE49BFB22EB20E7CFE920E7E0B90010BB0008E88ADA
:204FA000F084F8AAF022E4FBC8FA22EB70227B10C833C8C933C9335007C39AC3DBF2800679
:204FC0009A50012ADBEAC833F4C8C933F4C9FA2275F008E4C833C8C933C933C99AC99B5048
:204FE00004C92AC93BD5F0ECFBC833F4C8E4C9FA22600D08C6A2E713C618C613C6D5E0F38E
:2050000022600C08C6C313C618C613C6D5E0F422700422600D18C6C333C608C633C6D5E0FD
:20502000F41822254110AF08F541400C15428008F54140021542D2AF2200C0D0254110AF8D
:2050400008F541500C05428008F54150020542D2AFD0D0222541F58210AF08F541400C159A
:20506000428008F54140021542D2AF854283222541F582E43542F583222541F8E43542F926
:20508000222541FAE43542FB222541FCE43542FD22E4732541C582C0E0E54234FFC583C034
:2050A000E0E541C3958224F810AF088583428582418008858342858241D2AFCEF0A3E5209A
:2050C000F0A37821E608F0A3DEFAEFF0A3E58124FAF8E608F0A3E608F0A3E608F0A30808BA
:2050E000E608F0A3E608F0A315811581D0E0FED0E0F8158115811581E8C0E0EEC0E022250D
:2051000041C582C0E0E54234FFC583C0E0E541C3958224F910AF08858342858241800885A2
:205120008342858241D2AFCEF0A3E520F0A37821E608F0A3DEFAEFF0A3E58124FBF8E60809
:20514000F0A3E608F0A30808E608F0A3E608F0A315811581D0E0FED0E0F815811581E8C0D3
:20516000E0EEC0E022854283854182E0A3FEE0A3F5207821E0A3F608DFFAE0A3FFE0A3C03C
:20518000E0E0A3C0E0E0A3C0E0E0A3C0E0E0A3C0E010AF08858241858342800885824185F5
:2051A0008342D2AFD083D0820243A7854283854182E0A3FEE0A3F5207821E0A3F608DFFA7A
:2051C000E0A3FFE0A3C0E0E0A3C0E0E0A3C0E0E0A3C0E010AF0885824185834280088582D9
:2051E00041858342D2AFD083D08222C0D02541C582C0E0E54234FFC583C0E0E541C39582BD
:2052000024F310AF088583428582418008858342858241D2AFC8F0A3E9F0A3EAF0A3EBF054
:20522000A37921E709F0A3D8FAECF0A3EDF0A3EEF0A3EFF0A3D0E0F0A3D0E0F0A3D0E0F0B4
:20524000A3E520F0A3E5F0F0A322854283854182E0C0E0A3E0F9A3E0FAA3E0FBA37821E0E4
:20526000F608A3DFFAE0FCA3E0FDA3E0FEA3E0FFA3E0C0E0A3E0C0E0A3E0F5D0A3E0F5202F
:20528000A3E0A3F5F010AF088583428582418008858342858241D2AFD082D083D0E0F8D0F2
:2052A000E03274048006740280027401C0E0F404125054D0E0124F292274048004740280D5
:2052C00000CCC0E0EDC0E0E541C39CCCAD4250011D10AF068C418D4280068C418D42D2AF23
:2052E000124F36D0E0FDD0E0FC22D083D082C5F0E493A3C5F0C395F0F5F0E493A3C395F0E4
:205300004005E5F0048001E475F002A42582F582E5F03583F583E493A3C0E0E493C0E022E9
:20532000D083D082E9C0E0E493A3C386F0C5F095F0F908E493A386F0C5F095F0700BE493F5
:20534000A3C3994005E9048002A3E475F002A42582F582E5F03583F583D0E0F9E493A3C062
:20536000E0E493C0E022D083D082E9C0E0E493A3C386F0C5F095F0F908E493A386F0C5F013
:2053800095F0702408E493A386F0C5F095F0701908E493A386F0C5F095F0700E08E493A327
:2053A000C3994007E9048004A3A3A3E475F002A42582F582E5F03583F583D0E0F9E493A31B
:2053C000C0E0E493C0E022D083D082CCC0E0E493A360061253F11470FAE493A360061254A9
:2053E000101470FAD0E0FCE493A3C0E0E493C0E022C0E0E493A3D39C5010E493A3C39C403E
:205400000AD0E0D0E0D0E00253E4A3A3A3D0E022C0E0E493A36C7009D0E0D0E0D0E002537A
:20542000E4A3A3D0E022D083D082ECC0E0EDC0E0E493A3FCE493A3FDED4C600D125472EC1B
:2054400024FFFCED34FFFD80EFE493A3FCE493A3FDED4C600D1254B1EC24FFFCED34FFFD8F
:2054600080EFD0E0FDD0E0FCE493A3C0E0E493C0E022C0E0C3E49396087401939618400FF4
:20548000E49366700808740193661870007019A3A3C3E49396087401939618A3A3400DD0F9
:2054A000E0D0E0D0E0025462A3A3A3A3A3A3D0E022C0E0C0F088F0E4936670080874019323
:2054C00066187000A8F0A3A3700BD0F0D0E0D0E0D0E0025462A3A3D0F0D0E022C0E074EF22
:2054E0001251EBA2AFE433FFD2AFA889E5AB58F5216049F4F589C2C590082C7401F07E00FE
:20550000EEF523752400740278231250101255BBE9FBEA4B701F1255AFB800028004C31375
:20552000D8FCA2E0500F752300752402EE78231250101255A20EEEC3940440C4EFA2E09221
:20554000AF7F0402524AC0E074EF1251EBA2AFE433FFD2AFA88AE58D58F5216043F4F58A1A
:20556000C2EB7E00EEF523752400740278231250101255BB74406A49701F1255AFB80002F6
:205580008004C313D8FCA2E0500F752300752402EE78231250101255A20EEEC3940440C46A
:2055A000809AAA23AB24900280E0F91270CE22E8131313541F5407F8E5212274942523F584
:2055C0008274083524F583E0F8A3E0F9E854C0FA22C0E074EF1251EBA2AFE433FFD2AFA8AF
:2055E0008BE5AC58F5216043F4F58BC2E87E00EEF523752400740278231250101255BB742A
:20560000806A49701F1255AFB800028004C313D8FCA2E0500F752300752402EE78231250CB
:20562000101255A20EEEC3940440C402553C74F61250FFEAFEEBFF8C218D22EA2434F8E44C
:205640003FF9E8FCE9FDEA24351259D5FAEE24371259D5F88521F0A4C885F0238522F0A475
:205660002523F9EA28F8E439F97A257B00124F98EA8C828D83F0FA131313541F1259C924C0
:205680005DF582E439F583E0C0E074075AF8D0E0B800028004C313D8FCA2E0EE500824349C
:2056A000F582E43F801424361259D5F5F0EA84A8F01259CA2438F582E439F583E0F97F033F
:2056C0000251AB74F71250FFEAFEEBFFEA24341259D5C0E0EA2435F582E43FF583D0E0F017
:2056E0008A828B83A3A3A3A3A3A3A3C082C0838A828B83A3A3A3A3A3E0F8A3E0F9D083D0D6
:2057000082E0C398F521A3E099F522EA24801259D56401703EEA2481F582E43FF583C082BF
:20572000C0838A828B83A3A3A3A3A3E0240108A3E03400F9D083D082E0687003A3E0697064
:20574000127C6C7D05126B10EE2480F582E43FF583E4F0AC21AD22EEFAEFFB12562EE9F9E2
:205760001261527F020251ABC082C083854182854283E0F8A3E0F9C3EA9CEB9D5010C3EC9A
:2057800098ED99401BC3EA98EB995014800EC3EA98EB994007C3EC98ED99400479018002B8
:2057A0007900D083D08222EAC39CFAEB9DFB2274EF1250FF90042CE064086005E0640770D1
:2057C0002A9061C8E0602490045AE0F4601DE0F875F010A4C8AAF02AF9745C28FE74043926
:2057E000FF8E82F583A3A3A3E070030258C8906060E0C0E0EE2468F582E43FF583D0E0F0C8
:205800007525DD752605752100752200E5D914F523E5D95403F527602F74036527601DE535
:20582000236008EE24671259D5601D9005D8E06401602C1259D26012780480101259D26011
:205840002CE523C39405502580637800E523C398FA95E0FB1269C68A218B22EA4B700512C6
:205860006D2C80641259D270048A258B26E5236012852582852683F524E5D9F0A31524E53E
:205880002470F61259D2604574FC2523F52378251252A6AC23A927EEFAEFFB126BCA7402F7
:2058A000125039E97027AA21AB22127104793D8E828F83A3A3A3A3E0FA7B0012683AEEFA59
:2058C000EFFB126B34126BDC79000259C4740365276053E523F529752A0078291252A6AC6A
:2058E00025AD26AA21AB22126B8E7402125039EE24681259D564807004747F8001E0F5257C
:2059000078251252AAE527F52578251252AAA923AC21AD2290045AE0FA7B00126810740260
:205920001250390259BF852582852683E0C3940E5011E0F874C028F582E43485F583E065AD
:20594000236069852582852683E0C0E0EE24F7F582E43FF583D0E0F0A2AFE433FCC2AF7A77
:205960000080010AEE246E1259D5F8EAC3985013EA1259C9246AF582E439F583E0640770C9
:20598000E28022EE246EF8E43FF9E0FAEE2AFAE43FFBEA246AF582E43BF5837407F08882EA
:2059A0008983E004F0ECA2E092AF801390042CE06408600BAC25AD26EEFAEFFB126C5412F4
:2059C0006D3879017F0A0251ABF8EE28F8E43FF9E822EE2484F582E43FF583E02274F112D4
:2059E00050FF74FC125023EAFEEBFF8922752600A2AFE433F521C2AF900574E0FA9061D0B8
:205A0000E0F8748098F895E0F9C3EA98E499A2D265D0334003025AC7752601025AC7E060B9
:205A20001B78231252A6AC27A928EEFAEFFB126BC4740212503974042527F527740125273D
:205A4000F5D98528D9E5276012852382852483F525E0F5D9A31525E52570F675E195EE240C
:205A600063F8E43FF97A007B00A2AFE433F523C2AF88828983E0FCA3E0FDEC4D603A88827A
:205A80008983E0FAA3E0FB8C82F583E0FCA3E0FD88828983ECF0A3EDF08A828B83E4F0A3BD
:205AA000F088828983E0FCA3E0FDEC4D700A88828983A3A3E4F0A3F0E523A2E092AF1271C0
:205AC00004900573E004F0EE24631259D5F8A3E0F9E8496063EE24631259D52402F8A3E073
:205AE00034008882F583E5822402F523E43583F524E0F527A3E0F528EE24621259D56401E1
:205B000070369061D0E0F81259D260047C0480027C007480C398FA95E0FBE5272CF8E43426
:205B200000F9E82402F8500109C3EA98EB99A2D265D0334003025A1E9061D0E0F87480C35A
:205B400098900574F0E5266053900573E0604D900575E0F8900573E0C398500C74026522E3
:205B6000703A900576E060348E828F83A3A3A3A3E0854182854283125BAC740212506FE894
:205B8000125BAC900572E028F07402125089AA41AB42790112685E900573E4F0E521A2E0FE
:205BA00092AF74041250397F080251ABF0A3E4F0900573E0F822FFFF8550878551C622C0CB
:205BC000E074EB1251EBA2AFE433F521C2AF759B00906182E0A2E0502DE591A2E050277503
:205BE00091FE74016550701E125D36125D4D1252B9125F017404125039E96401700579011E
:205C0000126CD21257AF906182E0A2E5505AE591A2E550547591DF90042CE064076005E0C2
:205C20006408702C125D3674016550703B125D4D1252B9125F017404125039E964017005C1
:205C40007901126CD27901EEFAEFFB1259DD8018E0640D701390044EE004F064287002E4E2
:205C6000F07A00E0F9126D3E906182E0A2E64003025D0BE591A2E64003025D0B7591BF909C
:205C8000042CE064057008126C7E126C8A8003126C84755000126CDEE990042DF079001244
:205CA0006CD2126A867A017B0090042BE0F91270CE907803E0644270529005DCE014F070AE
:205CC0004AC2AF125CC6007859D0E0F618D0E0F6E59F540770047BFF80027B7FC4C0E0787B
:205CE00058E6F52308E65BF524740B7823125001D0E02523F8906270E0A2E740F8E8C3339E
:205D0000906272F0906270E0D2E0F0906181E0A2E35009E5E9A2E3500375E9F7A3E0A2E714
:205D20005009E591A2E7500375917FE521A2E092AF7F0802524A90045AE0F875F010A4C89E
:205D4000AAF02AF9745C28FE740439FF22126C968E828F83E0F8A3E0C82416F582E438F5A3
:205D60008322C0E0C0D0C082C083906183E0A2E05009E5BFA2E0500375BFFEE0A2E1500933
:205D8000E5BFA2E1500375BFFDE0A2E25009E5BFA2E2500375BFFBE0A2E35009E5BFA2E30A
:205DA000500375BFF7E0A2E45009E5BFA2E4500375BFEFE0A2E55009E5BFA2E5500375BF94
:205DC000DFE0A2E65009E5BFA2E6500375BFBFD083D082D0D0D0E032C0E074F21251EBE551
:205DE000A7A2E6500FE5A1A2E6500953A7BF75A1BF125E2CE5A7A2E5500CE5A1A2E55006B2
:205E000053A7DF75A1DFE5A7A2E15009E5A1A2E1500375A1FDE5A7A2E2500CE5A1A2E25017
:205E20000653A7FB75A1FB7F0102524A74F71250FF75500190042CE064067015126C008A0F
:205E4000828B83A3A3A3A3A3A3E0FAA3E0FB126C6CA2AFE433FED2AF900432E06401701824
:205E60007A207B0090042BE0F91271E87A207B0090042BE0F91270D4906182E0D2E6F0907C
:205E800005D9E0602185C6518016900431E064017008E5C654F84405F5C653BEFC125BB8E2
:205EA0007401655060E4EEA2E092AF7F020251AB8E528F5385825785835685418285428334
:205EC000E0CEA3E0CF855782855683EBC9EAC8EDCBECCA75F010C3E833C8E933C9EA33CA4B
:205EE000EB33CBC3EA9EF555EB9FF554B35004AB54AA55EC33CCED33CDD5F0DAAE52AF53D3
:205F00002274F11250FF8A218B228C238D249086C57821124E64740F12506F7825124EC395
:205F20009086C57825124E6478217925124424908705501078217925124E2478211244440A
:205F40004014800E78257921124E24782512444450047901800279007F080251AB74ED12AC
:205F600050FF8A218B228C238D249086C57821124E64741312506F7825124EC39086C57877
:205F800025124E6478257921124424401178217925124E24AA21AB22AC23AD2480227529E3
:205FA00000752A00752B00752C0178297925124E2478297921124DEBAA29AB2AAC2BAD2C60
:205FC0007F0C0251AB9086C57821124EC38A828B837821124E777F040251AB74F51250FFCC
:205FE0008C828D837821124EC38A828B837821124E50126033C3E09CF0A3E09D1260254099
:20600000229086D17821124EC38A828B837821124E118A828B83A3A3A3A3E02420F0A3E05A
:20602000344EF080A0F088828983C3E09420A3E0944E22EA2404F8E43BF98C828D83A3A364
:20604000A3A3E0FCA3E0FD888289832274F51250FF90058FE0FAA3E0FBE929F8E433F97492
:206060005228F582748539F583E02AF521A3E03BF52278211252A69086A1124EE1125EB0D5
:2060800074021250398A218B228C238D2474107821124DB3AA21AB227F040251AB74F11278
:2060A00050FF8A258B268C278D28741112506F1252BD741112506FE02401F521A3E034002A
:2060C000F522E4F523F52478257921124C2E9087117821124EC378257921124C2EAA25ABB0
:2060E00026AC27AD28125EB07402125039EA4B60047A0180027A00EC2AFCE43DFD741312C8
:20610000506FE0F8A3E0F9E8FEE9FFECF8EDF97A717B02124F9888218922E4F523F5248E7C
:20612000828F837821124ED2ECF8EDF97A717B02124F988A218B22740578211250108E82E9
:206140008F83A3A3A3A3E521F0A3E522F07F080251ABC082C083E9906000F0D083D0822277
:20616000C0E074F21251EBA2AFE433FED2AFC2C0E5D1A2E4500675D10F126FD2EEA2E09226
:20618000AF7F0102524AC0E0C0D0E8C0E0A8A8D2AFC2C7E8A2E792AFD0E0F8D0D0D0E03244
:2061A000C0E0C0D0E8C0E0E9C0E0EAC0E0EBC0E0C082C083A2AFE433F9D2AF90088FE0F823
:2061C000A3E0687008539AFBA374018022C2E990088FE0F8740128F0746F28F582E43408E1
:2061E000F583E0F5C190088FE0C394204002E4F0E9A2E092AFD083D082D0E0FBD0E0FAD087
:20620000E0F9D0E0F8D0D0D0E032C2AF020000221243AACCC4031243AAEDC5031243AA6A37
:20622000C9031243AADDC9031243AAF2C9031243AAF5C9031243AA54CA031243AADFCA03A2
:206240001243AA67CB031243AA53BC021243AA34BD021243AAF1BD021243AA69BF021243DB
:20626000AA0CC0021243AA85C0021243AA3EC2021243AA48C3021243AA97C3021243AA8A6F
:20628000C4021243AA3EC5021243AA19C6021243AA8EC6021243AAB7CA021243AA48CB0269
:2062A0001243AA0080011243AA1C80011243AAF381011243AAE082011243AA4A83011243CA
:2062C000AA8E83011243AABE83011243AA1185011243AA8D85011243AA0386011243AA870A
:2062E00086011243AA9787011243AA2788011243AA4C8A011243AAA993011243AAF49301B1
:206300001243AA1494011243AA6494011243AA9194011243AA64B9011243AAAFB9011243DE
:20632000AA4BBA011243AAC4BF011243AA01C0011243AAE4C7011243AACAC8011243AA1C11
:20634000C9011243AA46CA011243AAA4CB011243AAF9CB011243AA9FCC011243AA2AA304F5
:206360001243AA3DA3041243AA6CA3041243AAA4A3041243AAEDA3041243AA30A40412431F
:20638000AA76A4041243AAA9A4041243AAD0A4041243AAFFA4041243AA36A5041243AA4F9C
:2063A000A5041243AA9EA5041243AAB7A5041243AAFFA5041243AA33A6041243AAFBB3035C
:2063C0001243AAF9B4031243AA5FB5031243AA82B5031243AA84B5031243AAC2B5031243B6
:2063E000AA33B6031243AAF3B6031243AA15B7031243AAB1B7031243AAE8B7031243AA2D57
:20640000B8031243AA3AB8031243AAAAB8031243AAF4B8031243AAF7B8031243AA3DB90312
:206420001243AA40B9031243AA4AB9031243AABDB9031243AAE5B9031243AA18BA0312431B
:20644000AA3CBA031243AA39BB031243AADDBB031243AA49BC031243AA85BC031243AAD0F0
:2064600093041243AAF893041243AA2594041243AA5D94041243AAC394041243AA0D950448
:206480001243AA7195041243AAB995041243AAF695041243AA2496041243AAB996041243B0
:2064A000AAC396041243AAD096041243AA0397041243AA0F97041243AA2797041243AA3135
:2064C00097041243AA06BF041243AA1EBF041243AA35BF041243AA7C72001243AA1F730004
:2064E0001243AA5A74001243AA0375001243AA8B76001243AA7377001243AA6A7800124339
:20650000AAA078001243AA4279001243AA6879001243AA347B001243AA7A7B001243AA9CE2
:206520007B001243AA087C001243AAD37C001243AA8D7D001243AA997F001243AA9DDA0376
:206540001243AA79DB031243AA23DC031243AA64DC031243AAEBDC031243AA66DD0312433F
:20656000AA39DE031243AA62DE031243AA56DF031243AA93DF031243AA7BE0031243AAAC62
:20658000E0031243AAD2E0031243AA0880051243AA3380051243AA4381051243AAAA9B0411
:2065A0001243AAC09B041243AADE9B041243AAEE9C041243AAF89C041243AA229E041243C5
:2065C000AA0F9F041243AA7B9F041243AA42E1031243AA6FE2031243AAA6E2031243AAFD44
:2065E000E2031243AAF5E4031243AA55ED011243AADCED011243AA30EF011243AAB7EF010B
:206600001243AAC3EF011243AA3BF0011243AA23F1011243AA1FF2011243AAEBF201124346
:20662000AA45F4011243AA5BF4011243AA7CF4011243AA0EF5011243AA84F5011243AAAA92
:20664000F5011243AA57F8011243AA5CF8011243AA80FA011243AAC7FA011243AA2DFB013E
:206660001243AA73FB011243AA43FC011243AAF8FC011243AA54FD011243AA57FD0112437F
:20668000AAA3FD011243AADFFD011243AA1EFE011243AA40FE011243AA74FE011243AAE226
:2066A000FE011243AA24EC031243AA32EC031243AA82EC031243AAA1EC031243AAEBEC03D1
:2066C0001243AA2EEE031243AAC6EE031243AA0AEF031243AA34EF031243AA9FEF031243E1
:2066E000AAE3EF031243AA66F0031243AA15F1031243AAE7CD011243AA81CE011243AADDDC
:20670000CE011243AA9BCF011243AA23D0011243AA46D1011243AA76D1011243AAA5D10179
:206720001243AA5BD3011243AAAED5011243AA0DD8011243AAF6D8011243AAE6D9011243E1
:20674000AAB9DB011243AAB1DE011243AACEDF011243AAC8E1011243AAD7E2011243AA66F7
:20676000E4011243AA52E5011243AAA1E5011243AA11E6011243AA2DE6011243AA7EE60109
:206780001243AA1EEB011243AA34EC011243AAECEC011243AAD0F5031243AADAF50312430B
:2067A000AA22F6031243AA36F6031243AAC7F6031243AAFEF6031243AA39F7031243AA629E
:2067C000F7031243AAB6F7031243AACBF7031243AAEDF7031243AA02F8031243AA3CF80334
:2067E0001243AA68F8031243AAB1F8031243AA27F9031243AA52F9031243AA7DF903124350
:20680000AAC0F9031243AAEAF9031243AA15FA031243AA9082051243AAA296031243AA7B52
:2068200097031243AAEA97031243AA2598031243AA6099031243AA129A031243AABF9C0376
:206840001243AA6A9D031243AA4B9E031243AAC19F031243AA29A0031243AA6187041243D7
:20686000AACC88041243AA0A8B041243AA00B4041243AAADB4041243AAA6B5041243AAE323
:20688000B5041243AAE6B9041243AA45BA041243AAE2BA041243AA15BB041243AA43BB0428
:2068A0001243AA7EBB041243AA9EBB041243AA27F1031243AAB0F1031243AA6FF2031243CB
:2068C000AA7DF3031243AA9DF5031243AA47F4021243AA5CF4021243AA27F5021243AAF46A
:2068E000F5021243AA61F6021243AA9CF6021243AA3DF7021243AA46F8021243AA1EF9022A
:206900001243AAA1F9021243AA2AFA021243AA93FA021243AA1DFB021243AA6AFB02124355
