:020000040000FA
:2000000002075EC2AFF5088114FFFFC2AFF5088126FFFFC2AFF5088138FFFFC2AFF5088151
:200020004AFFFFC2AFF508815CFFFFC2AFF508816EFFFFC2AFF5088180FFFFC2AFF5088178
:2000400092FFFFC2AFF50881A4FFFFC2AFF50881B6FFFFC2AFF50881C8FFFFC2AFF5088138
:20006000DAFFFFC2AFF50881ECFFFFC2AFF50881FEFFFFC2AFF508A110FFFFC2AFF508A1B8
:2000800022FFFFC2AFF508A134FFFFC2AFF508A146FFFFFF758701002274FC120724750A62
:2000A00004750B00780A12074D74021207937A007B00790812055C7402120709850D828598
:2000C0000E83E0F47003A3E0F470030201FE850D82850E83E0F8A3E0F9E84970030201FE3A
:2000E0007402120789E0687003A3E0697010750901024030C2AF75C9AB75C95B80FE53BE4E
:20010000FBE59DA2E650FAE5C654804449F5C6E59E547F644970F853C67FE59EA2E740FA80
:2001200053C680E59E547F70FA43BE049062707408F0750A00F50B780A12074D7C807D01B2
:200140007A007B00790812055C7402120709900186E0F50AA3E0F50B7409780A12076DE53B
:200160000A2408FF53B4F375BC0075BC007CFC7D077A047B0079081203837E09EFC3940A09
:20018000401C800774086E70027E567C007D087A007B00EEF91203830EEEC39F40E6A8BDEE
:2001A000850D82850E83E8F9E5BCF8E0687003A3E069704A850D82850E83E0F8A3E0F97448
:2001C00002120789E8F0A3E9F0850D82850E8374FFF0A3F07409F5D575D480750A01780AF5
:2001E00012074D74021207937A007B101205E27402120709C2AF75C9AB75C95B80FE750AF1
:2002000004780A12074D74021207937A007B00790112055C7402120709850D82850E83E04C
:20022000F47003A3E0F47003020373850D82850E83E0F8A3E0F9E8497003020373740212D3
:200240000789E0F8A3E0F9850D82850E83E0687003A3E0697010750900020830C2AF75C902
:20026000AB75C95B80FE74FF68700374FF69600302037353BEFBE59DA2E650FAE5C65480D8
:200280004449F5C6E59E547F644970F853C67FE59EA2E740FA53C680E59E547F70FA43BE73
:2002A000049062707408F0750A00F50B780A12074D7C807D017A007B00790112055C740233
:2002C000120709900186E0F50AA3E0F50B7409780A12076DE50A244FFF53B4F375BC0075FD
:2002E000BC007CFC7D077A047B0079011203837E02EFC39403401C800774086E70027E565F
:200300007C007D087A007B00EEF91203830EEEC39F40E6A8BD850D82850E83E8F9E5BCF8DB
:20032000E0687003A3E069704A850D82850E83E0F8A3E0F97402120789E8F0A3E9F0850DE0
:2003400082850E8374FFF0A3F07409F5D575D480750A01780A12074D74021207937A007B80
:20036000021205E27402120709C2AF75C9AB75C95B80FE43BE03120094C2AF75C9AB75C937
:200380005B80FE74F7120648E9FEAFC7740F5EF50A750B00740B780A12073AEA2400F8EBB7
:2003A000350BF9E82400E93480F9A2AFE433F50AC2AFEEC4540FFAE5C754F84AF5C7E99004
:2003C0000980F0E8A3F0A37470F0A374BDF0EC900985F0900984E054E0F0EDFCE04CF0903E
:2003E00009867420F0A37442F07409F5D575D48075D601000000000000000000000075D7F9
:2004000001E5D7A2E040FA8FC7E50AA2E092AF7F020206AEE5096007E508D2AF024033E507
:2004200008D2AF020833E5096007E508D2AF02403BE508D2AF02083BE5096007E508D2AF40
:20044000024043E508D2AF020843E5096007E508D2AF02404BE508D2AF02084BE5096007F4
:20046000E508D2AF024053E508D2AF020853E5096007E508D2AF02405BE508D2AF02085B7B
:20048000E5096007E508D2AF024063E508D2AF020863E5096007E508D2AF02406BE508D2EA
:2004A000AF02086BE5096007E508D2AF024073E508D2AF020873E5096007E508D2AF0240B0
:2004C0007BE508D2AF02087BE5096007E508D2AF024083E508D2AF020883E5096007E508E9
:2004E000D2AF02408BE508D2AF02088BE5096007E508D2AF024093E508D2AF020893E5091A
:200500006007E508D2AF02409BE508D2AF02089BE5096007E508D2AF0240A3E508D2AF02FE
:2005200008A3E5096007E508D2AF0240ABE508D2AF0208ABE5096007E508D2AF0240B3E5A0
:2005400008D2AF0208B3E5096007E508D2AF0240BBE508D2AF0208BB0002055874F6120681
:2005600048890C740F550CF50A750B00740B780A12073AEA2400F8EB3480F9E82400E9351F
:200580000BF985C70BA2AFE433F50AC2AFE50CC4540FFAE5C754F84AF5C7740A120789E018
:2005A000FEA3E0FFEE4F602CEEFAEFFB88828983E08C828D83F088828983A3A882A9838C81
:2005C000828D83A3AC82AD83EA24FF1AEB34FFFBEA4B70D8850BC7E50AA2E092AF7F03023E
:2005E00006AE74F7120648ED900980F0ECA3F0A37462F0A37473F0A3E0541FF074091207A8
:2006000089E0F50AA3E0F50BE50A333354FC900985F07406780A12076DE50A900984F0902E
:2006200009867412F0A37442F075D11E75D601EA906271F0EBA3F0906270E0D2E1F0E0A29A
:20064000E740FB7F020206AE250DC582C0E0E50E34FFC583C0E0E50DC3958224F910AF086A
:2006600085830E85820D800885830E85820DD2AFCEF0A3E520F0A3780AE608F0A3DEFAEF5A
:20068000F0A3E58124FBF8E608F0A3E608F0A30808E608F0A3E608F0A315811581D0E0FE5C
:2006A000D0E0F815811581E8C0E0EEC0E022850E83850D82E0A3FEE0A3F520780AE0A3F6F0
:2006C00008DFFAE0A3FFE0A3C0E0E0A3C0E0E0A3C0E0E0A3C0E010AF0885820D85830E80BA
:2006E0000885820D85830ED2AFD083D08222250DF58210AF08F50D400C150E8008F50D40D5
:2007000002150ED2AF850E832200C0D0250D10AF08F50D500C050E8008F50D5002050ED240
:20072000AFD0D022250D10AF08F50D400C150E8008F50D4002150ED2AF22700422600D1831
:20074000C6C333C608C633C6D5E0F4182274028000C0E0F4041206EED0E012077C2275D02D
:200760000075813F750D80750E0102079B600C08C6C313C618C613C6D5E0F422CAC0E0E672
:20078000F0A308DAFAD0E0FA22250DF582E4350EF58322250DFCE4350EFD2212009912077C
:2007A000A100000080FBFFFFFFFFFFFFFFFFFFFFFFFFFFFFFFFFFFFFFFFFFFFFFFFFFFFF37
:2007C000FFFFFFFFFFFFFFFFFFFFFFFFFFFFFFFFFFFFFFFFFFFFFFFFFFFFFFFFFFFFFFFF39
:2007E000FFFFFFFFFFFFFFFFFFFFFFFFFFFFFFFFFFFFFFFFFFFFFFFFFFFFFFFFFFFFFFFF19
:20080000B0C6FFFF0000005C41414141FFFFFFFFFFFFFFFFFFFFFFFFFFFFFFFFFFFFFFFF18
:20082000000102030405060708090A0BFFFFFFFF020B5F021899FFFFFFFFFFFFFFFFFFFF65
:20084000FFFFFFFFFFFFFFFFFFFFFFFFFFFFFFFFFFFFFFFFFFFFFFFFFFFFFF021C9DFFFFFA
:20086000FFFFFFFFFFFFFFFFFFFFFFFFFFFFFFFFFFFFFFFFFFFFFFFFFFFFFFFFFFFFFFFF98
:20088000FFFFFF02190FFFFFFFFFFFFFFFFFFFFFFFFFFFFFFFFFFFFFFFFFFFFFFFFFFFFF4B
:2008A000FFFFFFFFFFFFFFFFFFFFFFFFFFFFFFFFFFFFFF0216EFFF0000B400002800280041
:2008C000283075A000A000A000A00000080008E001F000100010001000100010001000503A
:2008E000005000500010001000D0070000000000000F00010005003075070010000100810E
:20090000FF00000000FFFFFFD91EF71EDF1E151FFF02020208025000A0000000E8030202B0
:20092000B2010000F3B10206B20100009118020CB2010000C3020206B20100009218020E01
:20094000B2010000D9020206B201000093180210B2010000DB020206B20100009418021286
:20096000B2080000DC020206B201000095180214B20100009618FF0100FF200202B201002A
:2009800000EDB10206B2010000FA180216B20000000000020AB20300000A031700212521D6
:2009A00025212521252125212521252125212521252125212521259127A3278B27020202D6
:2009C000020202020202010D00000010010202B2010000EAB10206B20100003D19021AB2BB
:2009E0000100003A070206B20100003E190226B20100004EB10206B20100003F190218B2EA
:200A000001000020B20206B2010000401902FCB1010000A8B00206B201000041190224B2FA
:200A200001000008B20206B2010000421902FAB101000023B10206B2010000431902F8B1A1
:200A4000010000D2B00206B2010000441902F6B101000033B10206B20100004519021EB282
:200A600001000046191C0202B2010000F0B10206B2010000E5191050B00200006B07020A59
:200A8000B20300006D070222B201000041B10206B2010000E5191060B00200006C07020A0A
:200AA000B20300006F070222B20100005AB1FFFFFFFF00013075030201060000000000007B
:200AC00000000000000000000000000000000000000000000000FFFF0600800CE803E5C7EF
:200AE00054F84405F5C779012200000080FB120ADEB90003020B49E479437808B800028028
:200B000004F709D8FCE4794B7802B800028004F709D8FCE490028078B779168002F0A3D828
:200B2000FCD9FA7A367B189008B6782979038015E493A3AD82AE838A828B83F0A3AA82ABA5
:200B4000838D828E83D8E9D9E77582CE7583E57407120B717582E975830A7400120B71756D
:200B6000D00075817F754180754202759F00020AEEC09FF59FE473D09F22D083D082C09F54
:200B8000E493C0E0740193C0E0740293F59F22E066701008A3E066700A08A3E06670040839
:200BA000A3E06622C3E7960809E7960809E7960809E79622C3E09608A3E09608A3E096089B
:200BC000A3E09622C021C3E096F52108A3E096422108A3E096422108A3E09645217001D3D7
:200BE000D02122080808EAC0E0EBC0E086F0E7A4FA180986F0E7A42AFA180986F0E7A42A28
:200C0000FA180986F0E7A42AFA1986F0E7A4FBE5F02AFA190886F0E7A42BFBE5F03AFA191C
:200C20000886F0E7A42BFBE5F03AFA18180986F0E7A4C5F02BFBE43AFA1908E7C5F0C6A428
:200C400026F6E5F03BFBE43AFA1886F0E7A4F6E5F00826F6E43B08F6E43A08F6D0E0FBD099
:200C6000E0FA226016080808C6C313C618C613C618C613C618C613C6D5E0EA227009080819
:200C800008226016181818C6C333C608C633C608C633C608C633C6D5E0EA22E627F60809C0
:200CA000E637F60809E637F60809E637F622E026F608A3E036F608A3E036F608A3E036F696
:200CC00022E026F008A3E036F008A3E036F008A3E036F022C3E697F60809E697F60809E616
:200CE00097F60809E697F622C3E096F008A3E096F008A3E096F008A3E096F022E056F6080F
:200D0000A3E056F608A3E056F608A3E056F622E056F008A3E056F008A3E056F008A3E0568B
:200D2000F022E0F608A3E0F608A3E0F608A3E0F622E6F008A3E6F008A3E6F008A3E6F022AB
:200D4000E0FAA3E0FBA3E0FCA3E0FD22E0F8A3E0F9A3E0FAA3E0FB22E8F0A3E9F0A3EAF0D8
:200D6000A3EBF022CAC0E0E6F0A308DAFAD0E0FA22CAC0E0E0A3C582CCC582C583CDC583A4
:200D8000F0A3C582CCC582C583CDC583DAE6D0E0CA22C3E498F8E499F9120DD38026C3E4C1
:200DA0009AFAE49BFBE920E7E9120DD3E498F8E499F922C3E498F8E499F9120DD3E498F83B
:200DC000E499F9C3E49AFAE49BFB22EB20E7CFE920E7E0B90010BB0008E88AF084F8AAF031
:200DE00022E4FBC8FA22EB70227B10C833C8C933C9335007C39AC3DBF280069A50012ADB91
:200E0000EAC833F4C8C933F4C9FA2275F008E4C833C8C933C933C99AC99B5004C92AC93B3E
:200E2000D5F0ECFBC833F4C8E4C9FA22600D08C6A2E713C618C613C6D5E0F322600C08C62E
:200E4000C313C618C613C6D5E0F422700422600D18C6C333C608C633C6D5E0F418222541C7
:200E600010AF08F541400C15428008F54140021542D2AF2200C0D0254110AF08F541500C89
:200E800005428008F54150020542D2AFD0D0222541F58210AF08F541400C15428008F54136
:200EA00040021542D2AF854283222541F582E43542F583222541F8E43542F9222541FAE4C2
:200EC0003542FB222541FCE43542FD22E4732541C582C0E0E54234FFC583C0E0E541C3953E
:200EE0008224F810AF088583428582418008858342858241D2AFCEF0A3E520F0A37821E6E8
:200F000008F0A3DEFAEFF0A3E58124FAF8E608F0A3E608F0A3E608F0A30808E608F0A3E666
:200F200008F0A315811581D0E0FED0E0F8158115811581E8C0E0EEC0E0222541C582C0E04D
:200F4000E54234FFC583C0E0E541C3958224F910AF088583428582418008858342858241BF
:200F6000D2AFCEF0A3E520F0A37821E608F0A3DEFAEFF0A3E58124FBF8E608F0A3E608F0A7
:200F8000A30808E608F0A3E608F0A315811581D0E0FED0E0F815811581E8C0E0EEC0E022B6
:200FA000854283854182E0A3FEE0A3F5207821E0A3F608DFFAE0A3FFE0A3C0E0E0A3C0E0CB
:200FC000E0A3C0E0E0A3C0E0E0A3C0E010AF088582418583428008858241858342D2AFD0E4
:200FE00083D082020B77854283854182E0A3FEE0A3F5207821E0A3F608DFFAE0A3FFE0A3F5
:20100000C0E0E0A3C0E0E0A3C0E0E0A3C0E010AF088582418583428008858241858342D282
:20102000AFD083D08222C0D02541C582C0E0E54234FFC583C0E0E541C3958224F310AF083D
:201040008583428582418008858342858241D2AFC8F0A3E9F0A3EAF0A3EBF0A37921E70907
:20106000F0A3D8FAECF0A3EDF0A3EEF0A3EFF0A3D0E0F0A3D0E0F0A3D0E0F0A3E520F0A3A8
:20108000E5F0F0A322854283854182E0C0E0A3E0F9A3E0FAA3E0FBA37821E0F608A3DFFAA7
:2010A000E0FCA3E0FDA3E0FEA3E0FFA3E0C0E0A3E0C0E0A3E0F5D0A3E0F520A3E0A3F5F0A0
:2010C00010AF088583428582418008858342858241D2AFD082D083D0E0F8D0E032740480F5
:2010E00006740280027401C0E0F404120E8FD0E0120D64227404800474028000CCC0E0ED96
:20110000C0E0E541C39CCCAD4250011D10AF068C418D4280068C418D42D2AF120D71D0E03D
:20112000FDD0E0FC22D083D082E9C0E0E493A3C386F0C5F095F0F908E493A386F0C5F0954E
:20114000F0700BE493A3C3994005E9048002A3E475F002A42582F582E5F03583F583D0E095
:20116000F9E493A3C0E0E493C0E022D083D082ECC0E0EDC0E0E493A3FCE493A3FDED4C60FF
:201180000D1211B7EC24FFFCED34FFFD80EFE493A3FCE493A3FDED4C600D1211F6EC24FFD6
:2011A000FCED34FFFD80EFD0E0FDD0E0FCE493A3C0E0E493C0E022C0E0C3E493960874016E
:2011C000939618400FE49366700808740193661870007019A3A3C3E49396087401939618CF
:2011E000A3A3400DD0E0D0E0D0E00211A7A3A3A3A3A3A3D0E022C0E0C0F088F0E4936670D9
:20120000080874019366187000A8F0A3A3700BD0F0D0E0D0E0D0E00211A7A3A3D0F0D0E02F
:2012200022FFFFFF74F6120F3AEAFEEBFF8C218D22EE2434F8E43FF9E8FCE9FDEE2435121F
:201240001537FAEE2437121537F88521F0A4C885F0238522F0A42523F9EA28F8E439F97AF9
:20126000257B00120DD3EA8C828D83F0FA131313541FF8EE28F8E43FF9E8245DF582E4391F
:20128000F583E0C0E074075AF8D0E0B800028004C313D8FCA2E0EE50082434F582E43F80B7
:2012A000182436121537F5F0EA84A8F0EE28F8E43FF9E82438F582E439F583E0F97F03029C
:2012C0000FE674F7120F3AEAFEEBFFEE2434121537C0E0EE2435F582E43FF583D0E0F08EB6
:2012E000828F83A3A3A3A3A3A3A3C082C0838E828F83A3A3A3A3A3E0F8A3E0F9D083D08216
:20130000E0C398F521A3E099F522EE247F1215376401703EEE2480F582E43FF583C082C0A1
:20132000838E828F83A3A3A3A3A3E0240108A3E03400F9D083D082E0687003A3E06970124E
:201340007CAD7D04122461EE247FF582E43FF583E4F0AC21AD22EEFAEFFB121224E9F9122B
:201360001C8F7F02020FE6C082C083854182854283E0F8A3E0F9C3EA9CEB9D5010C3EC9867
:20138000ED99401BC3EA98EB995014800EC3EA98EB994007C3EC98ED99400479018002791B
:2013A00000D083D08222EAC39CFAEB9DFB2274EF120F3A900372E064086005E06407702A25
:2013C0009061C8E060249003A0E0F4601DE0F875F00BA4C8AAF02AF974A228FE740339FF10
:2013E0008E828F83A3A3A3E070030214BC906060E0C0E0EE2468F582E43FF583D0E0F0754C
:20140000251D752605752100752200E5D914F523E5D95403F5276012740365276043E52382
:20142000600AEE246712153770028075900518E06401601F12153460047A0480027A00E575
:2014400023C39AFA95E0FB1223238A218B22EA4522700512267D806412153470048A258B8A
:2014600026E5236012852582852683F524E5D9F0A31524E52470F6121534604474FC2523A9
:20148000F52378251210E1AC23A927EEFAEFFB12251B7402120E74E97026AA21AB22122975
:2014A00095793D8E828F83A3A3A3A3E0FA7B00122191EEFAEFFB12248512252D7900806FC1
:2014C000740365276051852329752A0078291210E1AC25AD26AA21AB221224DF7402120E5D
:2014E00074EE246812153764807004747F8001E0F52578251210E5E527F52578251210E56C
:20150000A923AC21AD229003A0E0FA7B001221677402120E748013900372E06408600BAC3C
:2015200025AD26EEFAEFFB1225A512268979017F0A020FE6EE2483F582E43FF583E022742D
:20154000F2120F3A74FC120E5EEAFEEBFF8922A2AFE433F521C2AF021609E0601B782512B9
:2015600010E1AC24A927EEFAEFFB1225157402120E7474042524F52474012524F5D98527A0
:20158000D9E5246018F523852582852683E0F5D9A38582258583261523E52370EA75E1954F
:2015A000EE2463F8E43FF97A007B00A2AFE433F524C2AF88828983E0FCA3E0FDEC4D603A76
:2015C00088828983E0FAA3E0FB8A828B83E0FCA3E0FD88828983ECF0A3EDF08A828B83E4B7
:2015E000F0A3F088828983E0FCA3E0FDEC4D700A88828983A3A3E4F0A3F0E524A2E092AFB4
:201600001229959004B4E004F0EE2463121537F8A3E0F9E8496064EE24631215372402F8B1
:20162000A3E03400F988828983E5822402F525E43583F526E0F524A3E0F527EE2462121553
:2016400037640170369061D0E0F812153460047C0480027C007480C398FA95E0FBE5242C84
:20166000F8E43400F9E82402F8500109C3EA98EB99A2D265D033400302155A9004B4E06020
:201680004D9004B5E0F89004B4E0C398500C74026522703A9004B6E060348E828F83A3A330
:2016A000A3A3E08541828542831216DE7402120EAAE81216DE9004B3E028F07402120EC4A5
:2016C000AA41AB4279011221B59004B4E4F0E521A2E092AF7404120E747F07020FE6F0A3CF
:2016E000E4F09004B4E0F8228543878544C622C0E074EB121026A2AFE433F521C2AF759B8E
:2017000000906182E0A2E05030E591A2E0502A7591FE7401654370211218821225E712185C
:20172000701210F4121A397404120E74E96401700579011226231213AE906182E0A2E5501D
:201740005DE591A2E550577591DF900372E064076005E06408702F12188274016543703E8C
:201760001225E71218701210F4121A397404120E74E96401700579011226237901EEFAEF41
:20178000FB12153F8018E0640D7013900394E004F064287002E4F07A00E0F912268F9061A4
:2017A00082E0A2E64003021845E591A2E640030218457591BF900372E0640570081225CF6C
:2017C0001225DB80031225D575430012262FE9900373F079001226231223D77A017B009004
:2017E0000371E0F912295F907803E06442705690051CE014F0704EC2AF1217FC00784CD02E
:20180000E0F618D0E0F6E59F5407F870057526FF800375267FC4C0E0784BE6F52308E65549
:2018200026F524740B7823120E3CD0E02523F8906270E0A2E740F8E8C333906272F09062DC
:2018400070E0D2E0F0906181E0A2E35009E5E9A2E3500375E9F7A3E0A2E75009E591A2E707
:20186000500375917FE521A2E092AF7F080210858E828F83E0F8A3E0C82416F582E438F5A2
:2018800083229003A0E0F875F00BA4C8AAF02AF974A228FE740339FF22C0E0C0D0C082C0C0
:2018A00083906183E0A2E05009E5BFA2E0500375BFFEE0A2E15009E5BFA2E1500375BFFD64
:2018C000E0A2E25009E5BFA2E2500375BFFBE0A2E35009E5BFA2E3500375BFF7E0A2E45086
:2018E00009E5BFA2E4500375BFEFE0A2E55009E5BFA2E5500375BFDFE0A2E65009E5BFA2E7
:20190000E6500375BFBFD083D082D0D0D0E032C0E074F2121026E5A7A2E6500FE5A1A2E6A5
:20192000500953A7BF75A1BF121963E5A7A2E5500CE5A1A2E5500653A7DF75A1DFE5A7A264
:20194000E15009E5A1A2E1500375A1FDE5A7A2E2500CE5A1A2E2500653A7FB75A1FB7F018C
:2019600002108574F7120F3A754301900372E0640670151225518A828B83A3A3A3A3A3A309
:20198000E0FAA3E0FB1225BDA2AFE433FED2AF900378E0640170187A207B00900371E0F94A
:2019A000122A077A207B00900371E0F9122965906182E0D2E6F0900519E0602185C6448039
:2019C00016900377E064017008E5C654F84405F5C653BEFC1216E87401654360E4EEA2E041
:2019E00092AF7F02020FE6FF8E458F4685824A858349854182854283E0CEA3E0CF854A8202
:201A0000854983EBC9EAC8EDCBECCA75F010C3E833C8E933C9EA33CAEB33CBC3EA9EF54849
:201A2000EB9FF547B35004AB47AA48EC33CCED33CDD5F0DAAE45AF462274F1120F3A8A2109
:201A40008B228C238D2490B1DA7821120CFC740F120EAA7825120D2290B1DA7825120CFCAE
:201A600078217925120BA490B1A6501078217925120CD47821120BC44014800E782579216B
:201A8000120CD47825120BC450047901800279007F08020FE674ED120F3A8A218B228C23CC
:201AA0008D2490B1DA7821120CFC7413120EAA7825120D2290B1DA7825120CFC782579216F
:201AC000120BA4401178217925120CD4AA21AB22AC23AD248022752900752A00752B00759F
:201AE0002C0178297925120CD478297921120C9BAA29AB2AAC2BAD2C7F0C020FE690B1DA9F
:201B00007821120D228A828B837821120D0F7F04020FE674F5120F3A8C828D837821120DF6
:201B2000228A828B837821120CE8121B6BC3E09CF0A3E09D121B5D402290B1BE7821120D40
:201B4000228A828B837821120CC18A828B83A3A3A3A3E02420F0A3E0344EF080A0F0888208
:201B60008983C3E09420A3E0944E22EA2404F8E43BF98C828D83A3A3A3A3E0FCA3E0FD88CB
:201B80008289832274F5120F3AE9FE9004CFE0FAA3E0FBEE29F8E433F9741328F58274B1C5
:201BA00039F583E02AF521A3E03BF52278211210E190B1E2120D401219E87402120E748ABA
:201BC000218B228C238D2474107821120C63AA21AB227F04020FE674F1120F3A8A258B2607
:201BE0008C278D287411120EAA1210F87411120EAAE02401F521A3E03400F522E4F523F5EB
:201C00002478257921120BE390B1B27821120D2278257921120BE3AA25AB26AC27AD28120B
:201C200019E87402120E748B22EA452260047A0180027A00EC2AFCE43DFD7413120EAAE05F
:201C4000F8A3E0F9E8FEE9FFECF8EDF97A717B02120DD388218922E4F523F5248E828F8393
:201C60007821120D31ECF8EDF97A717B02120DD38A218B2274057821120E4B8E828F83A3BD
:201C8000A3A3A3E521F0A3E522F07F08020FE6C082C083E9906000F0D083D08222C0E0C0D8
:201CA000D0E8C0E0E9C0E0A9A8D2AFC2C7E9A2E7E433F8E9A2E792AFD0E0F9D0E0F8D0D0C3
:201CC000D0E032C2AF02000022120B7A58FF06120B7AA3FF06120B7A1EE607120B7A23E618
:201CE00007120B7AEFC607120B7A02C707120B7A33C707120B7A6DC707120B7AC6C707127C
:201D00000B7A0DC807120B7A55C807120B7A84C807120B7AB3C807120B7AEAC807120B7ABD
:201D200031C907120B7A4AC907120B7A9FC907120B7AB8C907120B7A06CA07120B7A008047
:201D400007120B7A038107120B7A3C8107120B7A5F8107120B7A718107120B7AAF81071211
:201D60000B7A2B8207120B7AF38207120B7A158307120B7AAC8307120B7AFE8307120B7A5E
:201D80002F8407120B7A3C8407120B7AA68407120B7AFD8407120B7A008507120B7A3985CC
:201DA00007120B7A3C8507120B7A468507120B7A9A8507120B7ADB8507120B7A0E86071255
:201DC0000B7A4B8607120B7A4D8707120B7AF18707120B7A5A8807120B7A988807120B7A49
:201DE00031BB07120B7A59BB07120B7A86BB07120B7ABEBB07120B7A1CBC07120B7A68BC17
:201E000007120B7ACFBC07120B7A0FBD07120B7A4CBD07120B7A7ABD07120B7A24BE07121A
:201E20000B7A2EBE07120B7A3BBE07120B7A6EBE07120B7A7ABE07120B7A92BE07120B7A6E
:201E40009CBE07120B7AAFE407120B7AC7E407120B7ADEE407120B7AF09E06120B7A9A9F4C
:201E600006120B7AC4A006120B7A90A106120B7A1EA306120B7A8FA306120B7A49A40612C4
:201E80000B7A3BA506120B7A7BA506120B7A2FA606120B7A61A606120B7A57A806120B7AD1
:201EA00099A806120B7AB7A806120B7A1DA906120B7AECA906120B7AB0AA06120B7ACFAC41
:201EC00006120B7A1E9807120B7A089907120B7AB39907120B7A049A07120B7AB49A071245
:201EE0000B7A259B07120B7A0A9C07120B7A3E9C07120B7A379D07120B7A749D07120B7A22
:201F0000509E07120B7A8F9E07120B7AAB9E07120B7A643E00120B7A8F3E00120B7AA93FFE
:201F200000120B7A2ABF07120B7A40BF07120B7A5EBF07120B7A6FC007120B7A79C007120C
:201F40000B7AA4C107120B7A9BC207120B7A08C307120B7A0C9F07120B7A42A007120B7ACC
:201F600079A007120B7AD0A007120B7AE5A207120B7ADAE305120B7A66E405120B7ACAE589
:201F800005120B7AD6E505120B7A11E605120B7A85E605120B7A8EE705120B7A55E805124F
:201FA0000B7AB2E905120B7AD0E905120B7AF3E905120B7A70EA05120B7A98EA05120B7A84
:201FC00062ED05120B7A67ED05120B7A80EF05120B7ACEEF05120B7A3EF005120B7A7CF08C
:201FE00005120B7A58F105120B7A18F205120B7A64F205120B7A67F205120B7AABF205121F
:202000000B7AF3F205120B7A32F305120B7A54F305120B7A90F305120B7A9BFA06120B7AC5
:20202000A9FA06120B7AFCFA06120B7A1BFB06120B7A60FB06120B7AA4FC06120B7A3FFDA9
:2020400006120B7A69FD06120B7AD8FD06120B7A1EFE06120B7A95FE06120B7A46FF061228
:202060000B7A30B205120B7AD1B205120B7A2DB305120B7AEAB305120B7A06B505120B7A32
:2020800038B505120B7A67B505120B7A14B705120B7A8BB905120B7AFBBB05120B7AEDBCBD
:2020A00005120B7AE6BD05120B7AEDBF05120B7AE1C205120B7A10C405120B7A14C605125D
:2020C0000B7A24C705120B7AB3C805120B7AA4C905120B7AF2C905120B7A61CA05120B7AB6
:2020E00085CA05120B7AD6CA05120B7A77CF05120B7A86D005120B7A4CD105120B7A12C357
:2021000007120B7A1CC307120B7A61C307120B7A75C307120B7A05C407120B7A3EC407128A
:202120000B7A79C407120B7AA2C407120B7AF6C407120B7A0BC507120B7A2DC507120B7AE5
:2021400042C507120B7A7CC507120B7AA8C507120B7A2FC607120B7A72C607120B7A9CC625
:2021600007120B7AC7C607120B7A9AE107120B7AFFDC06120B7AE2DD06120B7A5DDE061256
:202180000B7A98DE06120B7AE9DF06120B7A77E006120B7A09E306120B7ABBE306120B7A8A
:2021A000C7E406120B7A3AE606120B7A93E606120B7A17B307120B7A9BB307120B7A72B688
:2021C00007120B7AD4D507120B7A86D607120B7A82D707120B7AC1D707120B7A1BD80712E7
:2021E0000B7A78DC07120B7ADBDC07120B7A78DD07120B7AADDD07120B7ADDDD07120B7AA0
:2022000018DE07120B7A38DE07120B7A17AA07120B7AA3AA07120B7A62AB07120B7A7AAC5B
:2022200007120B7A94AE07120B7A68F405120B7A8DF405120B7A5AF505120B7A2EF60512E5
:202240000B7A9BF605120B7ADBF605120B7A77F705120B7AABF805120B7A86F905120B7AFB
:20226000E5F905120B7A71FA05120B7ADFFA05120B7A6BFB05120B7AB1FB05120B7A23FCFF
:2022800005120B7AB5FC05120B7A56FD05120B7A76FD05120B7ABEFD05120B7A07FE0512E4
:2022A0000B7A23FE05120B7A49FE05120B7AC3FE05120B7AD1FE05120B7A60FF05120B7A36
:2022C000C9FF05120B7ACBAE07120B7A50AF07120B7A92AF07120B7A76B007120B7AE3B0B0
:2022E00007120B7A27B107120B7A6BB107120B7A98B107120B7AC0B107120B7AF8B1071258
:202300000B7A36B207120B7A5DB207120B7AD7B207120B7A008006120B7A9F8106120B7A04
:20232000D78306120B7A2B8406120B7A568406120B7A328506120B7A628506120B7A9185F5
:2023400006120B7ABE8506120B7A0C8606120B7A488606120B7A8D8606120B7ADA8606123E
:202360000B7A548706120B7A958906120B7A7F8B06120B7ABB8B06120B7A4A8D06120B7AA7
:202380008F8D06120B7A028E06120B7A578E06120B7ABB8E06120B7ADA8F06120B7AEB8F6F
:2023A00006120B7AFCF006120B7A75F106120B7A2FF706120B7A3AF806120B7AE3F906126E
:2023C0000B7A71FA06120B7A6C2A00120B7AED2A00120B7A1A2B00120B7A632B00120B7A94
:2023E000642C00120B7ABD2C00120B7A392E00120B7ABB2E00120B7A2C2F00120B7AE92FAE
:2024000000120B7AAC3000120B7A3A3100120B7AF13100120B7A043200120B7A9D32001249
:202420000B7A343300120B7A5B3300120B7AC43300120B7A0E3400120B7A5C3400120B7A66
:20244000013500120B7A9F3500120B7A2C3600120B7A9D3600120B7AE43600120B7A3C37BD
:2024600000120B7A6E3700120B7A283800120B7A2F3900120B7A783900120B7A953900126B
:202480000B7AB43900120B7AE73A00120B7A9E3B00120B7AC33B00120B7AD83B00120B7ACC
:2024A000483C00120B7A893C00120B7AAD3D00120B7A2E3E00120B7A3CE706120B7A87E7F3
:2024C00006120B7A93E706120B7A67E806120B7A7EE806120B7ABBE806120B7AECE806122D
:2024E0000B7A24E906120B7A7AE906120B7A90E906120B7ACCE906120B7ADFE906120B7AE0
:2025000006EA06120B7A3AEA06120B7A60EB06120B7AAAEC06120B7AA6ED06120B7AC3EE71
:2025200006120B7AFC3F00120B7A0E9006120B7A499006120B7A9B9306120B7AF79406120D
:202540000B7AB69506120B7A1D9906120B7A079A06120B7A539A06120B7A6D9A06120B7A4F
:20256000AA9A06120B7AB59A06120B7AF49A06120B7AFD9A06120B7AA79B06120B7A7E9C36
:2025800006120B7AD29C06120B7A2F9D06120B7AA19D06120B7AB8D105120B7A17D5051227
:2025A0000B7A1DD505120B7A4EDC05120B7A55E005120B7A6ECA07120B7A4BCB07120B7AE7
:2025C0008FCB07120B7AC9CB07120B7A61CC07120B7AD0CC07120B7AD9CC07120B7AE5CCD8
:2025E00007120B7AFFCC07120B7A29CD07120B7A59CD07120B7A87CD07120B7A94CD071210
:202600000B7AAECD07120B7AE1CD07120B7A1FCE07120B7A84CE07120B7A99CE07120B7A50
:20262000A4CE07120B7AB1CE07120B7AC8CE07120B7AD6CE07120B7AE1CE07120B7AEDCEEF
:2026400007120B7AFCCE07120B7A07CF07120B7A24CF07120B7A34CF07120B7A4ACF07129C
:202660000B7A66CF07120B7A71CF07120B7A86CF07120B7A9ACF07120B7AFBCF07120B7AC2
:2026800001D007120B7A07D007120B7A0DD007120B7A1FD007120B7AE1AC06120B7A78ADFF
:2026A00006120B7A68AE06120B7A9FAE06120B7AB2AE06120B7A20AF06120B7ABBB00612F4
:2026C0000B7AE2B006120B7A84B106120B7AB9B106120B7ACAB106120B7A43B206120B7AC3
:2026E00064B206120B7A7CB206120B7AD4B306120B7ADDB506120B7A2DB806120B7A30B99E
:2027000006120B7A7FB906120B7A5EC606120B7A68C606120B7A8AC606120B7A96C606125A
:202720000B7AE8C706120B7A17C806120B7A47C906120B7A89C906120B7AC9CA06120B7A80
:2027400028CB06120B7A5FCB06120B7A9ACB06120B7A35CF06120B7A4ECF06120B7AD0CF26
:2027600006120B7ADECF06120B7A33D006120B7A41D006120B7AAED006120B7A20D1061200
:202780000B7A66D106120B7AEFD106120B7A11D206120B7AFBD306120B7AA0D706120B7A84
:2027A000E3D806120B7ABDD906120B7A46DE07120B7A6BDE07120B7ADCDE07120B7ABE8847
:2027C00007120B7AC78807120B7AD08807120B7A018A07120B7A208C07120B7A568C07120A
:2027E0000B7A908C07120B7AC68C07120B7A008D07120B7A348D07120B7A608D07120B7A95
:20280000A98D07120B7AE38D07120B7A2B8E07120B7A818E07120B7AB68E07120B7A118F50
:2028200007120B7A4B8F07120B7A9C8F07120B7AD28F07120B7A0C9007120B7A2F900712A8
:202840000B7AD83F00120B7AE23F00120B7AF23F00120B7A16D307120B7A3DD307120B7A90
:202860007BE607120B7A46D807120B7A9ED807120B7A0DD907120B7ABCD907120B7ADBD91E
:2028800007120B7A2FDA07120B7AE3FF06120B7AEFFF06120B7AECFF05120B7A6EE50712F6
:2028A0000B7A7EE507120B7A87E507120B7ACBE507120B7AAEE207120B7A32E307120B7A59
:2028C00098E307120B7ABD9007120B7A469107120B7A5D9107120B7A1F9207120B7A009311
:2028E00007120B7A699407120B7A3A9507120B7A8E9607120B7A169707120B7A0BE707121A
:202900000B7A1DE707120B7AACA407120B7AB6A407120B7AF6A407120B7A3FA507120B7AF0
:2029200079A507120B7ACFA507120B7AEEA507120B7AF7A507120B7A48A607120B7A71A6BB
:2029400007120B7A86A607120B7AF6A607120B7A84A707120B7AC8A707120B7AF0A707124F
:202960000B7A6FA807120B7AB2A807120B7AEFA807120B7A01A907120B7A1DA907120B7A44
:2029800026A907120B7AEBA907120B7A26E607120B7AFCDF07120B7A4DE007120B7AD6E0F4
:2029A00007120B7A3CE107120B7A52D007120B7A7CD007120B7A76D107120B7AA5D10712A0
:2029C0000B7A2BD207120B7AB1E307120B7A76DA07120B7AACDA07120B7AE5DA07120B7A36
:2029E0003EDC07120B7A24B707120B7A39B707120B7AECB707120B7A2CB807120B7A45B858
:202A000007120B7A78B807120B7AC5B807120B7AF9B807120B7A3BB907120B7ACCB90612B1
:202A20000B7A8FBD06120B7AE6BD06120B7A05BE06120B7A62BE06120B7AEBBF06120B7A84
:202A4000CFC006120B7AB2C406120B7A86C506120B7AC5E607120B7A46E707120B7A72E7E2
:202A600007FFFFFFFFFFFFFFFFFFFFFFC082C0839061907404F0A37448F0A37402F09061A3
:202A8000807440F09061BC7403F09061877419F0906265741BF0906249E0C3941390619C21
:202AA00040107409F09060667401F090619F7428800D740BF0906066E4F090619F742CF02C
:202AC000122C577009C291900376746780059003767461F0122CA8902A68E493F46006E4A1
:202AE00093F91223CB7905122671022CB6C082C083E9540FF9906185E0696012E5C654B88D
:202B00004441F5C6E59E5447644170F8E9F053C6B8E59E544770FA022CB6C082C083A8A85F
:202B200053A87E906181E412391CC2BA539AFEC289759B00C2C275E90075910075BF00750C
:202B4000A91175B905906181F0A374C0F0A3E4F0D2BA439A0174805842A8022CB6F0A3F0E1
:202B6000022CB6C082C08374F8120E5E900374123E1C7003022C4F900374E0544060177934
:202B800008AA41AB421224C1AA41AB4212214F900374E054BFF0E054806010790C7A3D7B3F
:202BA000051224C1900374E0547FF0E0A2E0501E122C577009C29190037674678005900342
:202BC000767461F0122155900374E054FEF0E05402601E122C9B7009D29190037674718032
:202BE00005900376746AF0122155900374E054FDF0E054046010902A64122CAB12215B907C
:202C00000374E054FBF0E054086010902A65122CAB12215B900374E054F7F0E05410600D09
:202C2000122CA812215B900374E054EFF0E05420600A12215B900374E054DFF0A3E05401D8
:202C4000600D1223E9122161900375E054FEF07408120E74022CB690619A122EA890051718
:202C6000E0640122C082C083E960051460178029122C577009C2919003767467801A900374
:202C80007674618013122C9B7009D29190037674718005900376746AF0801B90619A122EF1
:202CA0009A900517E0640122902A66E493906186F022A2E092AFD083D082020B7774EA12EB
:202CC0000ECE74F4120E5E90B1C2AC41AD427404120D71902A6493F46003022E2F907808D4
:202CE000E0C394025003022E1390B1647404120EC47408120D71A841A942882D892E740440
:202D0000120EB488218922AE21AF227529FF752AFF7527FF7C007525487526788012740896
:202D20006C7003022DA974096C607E740A6C60798525828526837821120D228E828F83A953
:202D400022E523C9F8882B74187821120C63E52B4521F8C3E098A3E0998525828526837898
:202D600021120D2240188E828F8374187821120C63E52B4521F8E0C398F8A3E0801A741887
:202D80007821120C63E52B4521FAE9FB8E828F83123AE3EAC398F8EB99F9C3E89529E995D3
:202DA0002A50068829892A8C270CE5252404F52550020526ECC394135003022D1E74FF65D9
:202DC00029700474FF652A602485272174027821120E4B74482521F58274783522F58378DD
:202DE00021120D22852D82852E83E521F0EE2402FE50010F852D82852E83A385822D858356
:202E00002E740C120EAAE5826E7003E5836F6003022D0B75210175220078211210E174023E
:202E2000120EC47A997B0A1228B77402120E74740C120E747F0E020FA0C082C0839061AEA5
:202E40007468F0A3746AF090624574FBF0A304F053F4FD43FE029005177401F09061A0E0FF
:202E6000643A90619A7019122EA8740164017009C2919003767467801E900376746180171B
:202E8000122E9A740164017009D29190037674718005900376746A022B5F743FF0A3745AA8
:202EA000F09061A0747FF0227433F0A37455F09061A0743AF0227F04020FA0C082C083751A
:202EC000E1F19004CCE0605114600914605514604D1470541223F59004BBE0F97ABC7B0449
:202EE00012260590B1B6120D4012263B90B1DE120D401226119004CDE0F912261D790112EA
:202F00002665122FDA241AF582E438F583740DF0A37424F07900022CB61223FB80B912242A
:202F20000180B412240780AF791280EA74F4120ECE75D90D9004C2E0A2E0E4331313F8124B
:202F40003112484401F5D97582BC75830412311C7004E583640470F57582C3758304123222
:202F60005BE58264C97004E583640470F175E1959004C2E0F97AC37B0412260B90191D746A
:202F8000A1F0A3742312305112309B1230921231D59004CCE064019004B9700B122FE31267
:202FA0000D2290B1AE8009122FE3120D2290B1AA7821120CAE90B1DA7821120CFC122FDACC
:202FC0001230897821120D31122FDA1230807413F09003727402F0022EB69004B9E0F8A3D0
:202FE000E0C822123D8B78212274F7120ECE123102F5D97582BC75830412311C7004E5831C
:20300000640470F59004D2E0600A78D37904FA1230F6DAFB1231A312311C7004E5836404DB
:2030200070F59004F2E0600A78F37904FA1230F6DAFB75E19590191D74ADF0A3742312302E
:203040005112305B7412F09003727401F0FF020FA01231BE74A7F0A374232212309B12306B
:20306000921231D99004B9E0F8A3E0C812308974FF12390A9004B9E0F8A3E0C8123080224B
:203080002414F582E438F58322240EF582E438F58322F0A374BFF0A374232212309F221245
:2030A00030A322F0A37421F0A374252274F7120ECE1231024402F5D97582BC758304123101
:2030C0001C7004E583640470F59004D2E0600A78D37904FA1230F6DAFB75E19590191D12E9
:2030E0003124F0A312312412305E7414F09003727404F00234578882898312325FA882A9E3
:2031000083229004D212310922E02407F5D9123112229004BBE0C4333354C02212325FE5CF
:203120008264C22274B9123131123131F0A3742322F0A37423F0A374B92274F7120ECE12ED
:2031400031024406F5D97582BC75830412311C7004E583640470F59004D2E0600A78D379F9
:2031600004FA1230F6DAFB1231A312311C7004E583640470F59004F2E0600A78F37904FAA4
:203180001230F6DAFB75E19590191D74B3F0A374231231B412305B7415F09003727403F0A7
:2031A0000234579004F21231094404F5D97582BC758304221231BE7421F0A37425221231A2
:2031C000C2221231CF7421F0A374251231CF221230A3F0A3221231D922F090192B7421F0E3
:2031E000A374251231C27421F0A3742512309FF022C082C083122FDA2406F582E438F58305
:20320000E4022B5D74F7120ECE9003A0123AD574A228F8740339F9E82405FAE439FB8A8285
:203220008B83123B9888828983A3A3A3A3A3A3A3A3A3ECF0A3ED123254A3A3A3A3A3A3E014
:2032400024FFF8A3E034FFF98A828B83E8F0A3E9F0023457F088828983A32212325F22E039
:20326000F5D9A3229061D0E0F87480C398FC12327722F012327722EA2483F582E43BF5838E
:20328000E02212328D2404F8E43583F922F582E43FF583E5822212325FE865822274F712D8
:2032A0000ECEEAFEEBFF9061D0E0707875D90E75D90375D904EE248C12332912329670037F
:2032C000E9658370F6EE24841232821232967003E9658370F675E1957908EE248CFAE43FB0
:2032E000FB1224B57904EE2484FAE43FFB1224B57C00EE24ABF8E43FF9ECFAC3E49AFA95CF
:20330000E0FBEE2AFAEF3BFBEA248B123DA588828983F00CA3A882A983ECC3940840DA128C
:2033200034388002790002345712328D2408F8E43583F922C082C08375D90275D90375D979
:203340000575E195EA246FF582E43B123AE1EA2471F582E43B123445022CB674F6120ECE61
:20336000EAFEEBFF90051D74061233BA1210E17C0179031225157402120E7475D90675D95C
:203380000375821D7583051233B27004E583640570F575E195900372E064087010EE246F3B
:2033A000F582E43F123AE1EE2471123C19790102358012325FE582642222F075211D75223F
:2033C0000578212274F6120ECEEAFEEBFF9061D0E07036780190051D740BF0900372E064D9
:2033E00007701975211D75220578211210E17C0179031225157402120E74780512368812A4
:20340000325BDAFB1234358002790002358074F7120ECEEAFEEBFF75D90375D90375D90DF5
:20342000EE24DE123D7FF5D975E1957904122641123438802275E195EE246F123E22EE240F
:2034400071F582E43FF583E8F0A3E9F0790122F0EEA2E092AF79007F01020FA074F6120E24
:20346000CE12358D6004780480027800E8240BF8EAC39840457C0990051DEC1234D4123474
:20348000E3DDFB123D7C601B75211D75220578211210E17903EEFAEFFB1225157402120E10
:2034A000747C0D1234BF12358570FB75E19579041226411236087901800279000235801264
:2034C00034C58C212274012CF5D975D90375821D75830522F0EE24E3F8E43FF97A1E7B0520
:2034E0007D08221234E72288828983E08A828B83123254A882A9838A828B83A3AA82AB83C1
:203500002274F6120ECE12358D6004780480027800E82408F8EAC3984064780690051D74EA
:203520000CF090038FE090051EF0900390E090051FF0900391E0900520F0900392E0900500
:2035400021F0900393E090052212361C601B75211D75220578211210E17C067903EEFA12DB
:2035600025157402120E74780A12361612358570FB75E19579041226411234388002790096
:203580007F02020FA012325F1521E52122EAFEEBFF9061D0E0F87480C398FA123621227445
:2035A000F6120ECE12358D6004780480027800E82404F8EAC398404B780290051DE8F0EEAF
:2035C00024F5123D7F90051E12361C601B75211D75220578211210E17C027903EEFA12256E
:2035E000157402120E74780612361612358570FB75E1951236087904122641EE240D123403
:203600003B80027900023580EE241DF582E43FF583E4F0A3F02212368E882122F0123621F9
:2036200022EE2483F582E43FF583E02274F6120ECE1232646004780480027800E82404F8DD
:20364000ECC398403E780290051D7407F0EA24F6123DA590051E123272601975211D7522EA
:203660000578211210E17C0279031225157402120E74780612368812325BDAFB75E1957933
:20368000018002790002358012368EE8FA22740128F5D975D90375821D7583052274F71231
:2036A0000ECEE9FFA2AFE433FEC2AF7C0080010C1237345011ECF8EA28F8E43BF912372A0F
:2036C000E06F70EB8016EA246EF8E43BF9E0FCEA2CFAE43BFB123757EF12381BEEA2E09222
:2036E000AF023457C082C083A2AFE433FDC2AF123DA214F07C00801BECF8EA28F8E43BF921
:20370000E8246BF582E439F583E0C0E012372AD0E0F00C12373440E0EA246DF582E43BF5E4
:203720008374FF123761ED022CB2E8246AF582E439F58322123DA2F8ECC39822C082C083A1
:20374000A8A8C2AF123757E9123761E8A2E7E433FAE8A2E7022CB4EA246AF582E43BF5831A
:2037600022F0EA2469F582E43BF583E4F02274F3120ECEEAFEEBFFECFAEDFB8A828B83A30A
:20378000A3A3A3E0541FF0EE2436F582E43FF583E4F0752300EE245DFCE43FFD8A828B8392
:2037A000E08C828D83F0752400E52333333354F8F5258A828B83E0F521752200E524782132
:2037C000120E2CE521A2E05027EE2436F8E43FF988828983E0F521EE2521F521E43FF522B2
:2037E000E5212438F582E43522F583E52512381B05240525E524C3940840B705238A828B5D
:2038000083A3AA82AB838C828D83A3AC82AD83E523C3940540867F05020FA012382104F04B
:2038200022F088828983E02274F7120ECE90039EE0640170030239029003A4E0600302392A
:20384000027401F0A3E4F0A3F090040404F0900409F09003A71239099003B104F09003D7AE
:20386000E4F09003BA123910A3F0900421F0900415F0900424F090040A7480F0A3E4F090CA
:203880000410F090048D123927900496F0900425F0900475123927A3F0A3F0900481F09098
:2038A0000483F090047FF09004991239279004ACF09004A612391074FF90040C7804F0A308
:2038C000D8FC7AFF7B0378AD790412392264B27003E9640470F47A857B047886790312398D
:2038E00022648E7003E9640370F490039EE004F0640170089003A6E09003A0F07AA27B03D5
:2039000080047A007B00023457E412391CA3F0221239142212391CA312391C22F0A3F0A367
:20392000F0221234E7E822123914A3F0A3F022C082C0838A828B83A3A3A3E0600F8A828B29
:2039400083A3A3A3E4F090039FE014F090039EE014F070069003A074FFF08A828B83A3A390
:20396000E4F09004B2E0700D90039FE0640170057900122623022CB6C082C0839003A5E48B
:20398000F09003A4F090039EF0A3F0A374FFF075E1F1022CB6C082C083780079009003A57D
:2039A000E0600478A2790388828983A3A3A3A3E0F9022CB674EE120ECE8A23892590039FF1
:2039C000E0F8E9C398502278FF79FF9003A5E06013900415E06401700590041B80039003B7
:2039E000D0123AE3E8FEE98011E96009A3123AD5123AC68005EA2AFEEB33FF8E278F2874AC
:203A0000037827120E3C90039FE0F8C3E52798E52894005003023AB2E52325E0F523EB3312
:203A2000F524EC2CF521ED33F522AC23AD248007EC2402FCE43DFDC3E5219CE5229D40600C
:203A4000C3EC9EED9F403FECF8EDF9EEFAEFFB120DD38B28EA452860068E278F28800675A9
:203A60002700752800ECF8EDF9EEFAEFFB120DD38A298B2AEC9529F8ED952AF9E82527FC15
:203A8000E93528FD801AE0F8E525C3985012EEF8EFF9ECFAEDFB120DD38B28EA4528709012
:203AA000C3EC9523ED95244009C3E5219CE5229D50067AFF7BFF8009ECFAEDC313FBEA1334
:203AC000FA7F0A020FA074D028F582740339F583E0FEA3E022E0F875F00BA4C8AAF02AF9B3
:203AE00022F583123E282274F6120ECE74FC120E5EEAFEEBFF803CEE2463F8E43FF97A00BB
:203B00007B00A2AFE433F521123B92EC4D600F123DE1700A88828983A3A3E4F0A3F0E521B2
:203B2000A2E092AF1229959004B3E004F09004B4E004F0EE2463F582E43FF583123E1C7058
:203B4000B69004B4E060358E828F83A3A3A3A3E0854182854283F0A3E4F09004B4E0F874D7
:203B600002120EAAE8F0A3E4F07402120EC4AA41AB4279011221B59004B4E4F0EEFAEFFBA8
:203B800012246DEEFAEFFB12254B7404120E74023580C2AF88828983E0FCA3E0FD2274F7FB
:203BA000120ECEEAFEEBFF8E828F83A3A3A3A3E0FA7B00122191EEFAEFFB12248512252D8D
:203BC000023457C082C083E49003867808F0A3D8FC90038604022B5F74F6120ECEEAFEEB1B
:203BE000FFEC2403F8E43DF988218922EC2407F8E43DF9E8FCE9FD123C25120DD3EE240DD6
:203C0000123C19123C25120DD38B22EA45226006EE240D123C38023580F582E43FF583E81E
:203C2000F0A3E9F0228C828D83123E28852182852283E0FAA3E0FB22F582E43FF583E0247E
:203C400001F0A3E03400F02274F6120ECEEAFEEBFFEE242EF582E43FF583123B9878007958
:203C6000FAECFAEDFB120DD3EE246F123C19780079FAECFAEDFB120DD38B22EA4522600693
:203C8000EE246F123C3802358074F4120ECEEAFEEBFF1225E78A218B228C238D2490B19A8D
:203CA0007821120CAE90B1DA7821120CFC78211210DD8E828F83123D87120D40121A397409
:203CC00004120E74E96003023D778E828F83E02402F8A3E03400F9E8FAE9FB740C120EAA6A
:203CE0007821120D228A828B837821120CC190B1DA7821120D228A828B837821120D0FEE94
:203D0000240BF582E43FF583C082C0838E828F83A3A3A3A3A3E02401F8A3E03400F9D0838C
:203D2000D082E0687003A3E06970047901804A8E828F83A3A3A3A3A3A3A3123C3EEE24732A
:203D4000123D7F64017013EE2474123D917003A3E0697006EE2474123C38EE247F123D7F07
:203D600064017013EE2480123D917003A3E0697006EE2480123C387900022EB6EE2483F513
:203D800082E43FF583E022123D8B22123DC6A3A322123E228E828F83A3A3A3A3A3A3A3E0A2
:203DA0006822EA246EF582E43BF583E02274F7120ECE123E118A828B836005A3A3123DC659
:203DC000123DCF02344FE0F8A3E0F583888222123E07A3A3ECF0A3EDF08C828D83E4F0A3B3
:203DE0002288828983E0FAA3E0FB8A828B83E0FCA3E0FD88828983123E07E4F0A31238216E
:203E0000FCA3E0FDEC4D22ECF0A3EDF08A828B8322A2AFE433FEC2AF8A828B83123E28E8E2
:203E20004922F582E43FF583E0F8A3E0F92274F7120ECEE96006F8123E43D8FBECFAEDFBBB
:203E40000234578C828D83E08A828B83123E598A828B83A3AA82AB8322F08C828D83A3AC7E
:203E600082AD8322C082C083900287E0A2E250117A8E7B18121EBB90188574FFF0A3F080E2
:203E8000077A007B00121EBBD083D082020B7774F5120ECE74FA120E5E8A218B22ECFAEDA4
:203EA000FB752301EA2404F8E43BF9E8FEE9FF782112116B000003000300E13E1320C63EFB
:203EC000FFFF623F9A3F8A828B83A3A3E0F8740C6860087411686003023F9D121F1B023F27
:203EE0009D8E828F83E0F521A3E0F5228A828B83A3A3A3E0F9741A69700E901885E065218F
:203F00007004A3E0652260D38A828B83A3A3A3A3A3A3A3A3A3A31210F88A828B83A3A3A35B
:203F2000A3A3A3A3A31210F88A828B83A3A3A3A3A3A3E0FCA3E0FDAA21AB22121E8574042B
:203F4000120E748E828F83E0F8A3E0F9901885E0687003A3E069704590188574FFF0A3F0AB
:203F6000803B78008A828B83A3A3A3A3A3E064127024854182854283E4F0A3F0AC41AD4206
:203F80008E828F83E0F98A828B83A3A3E0FAA3E0FB1221EB780188238003752300A92374D1
:203FA00006120E747F03020FA0C082C083901885E0F47003A3E0F4601C9002BCE0F97CACF9
:203FC0007D02901885E0FAA3E0FB1221F190188574FFF0A3F0023E88C082C083E990073792
:203FE0008008C082C083E9900738F0D083D082020B77C082C083E990073980EE020B77FFB4
:204000004406FFFF0500009442424242FFFFFFFFFFFFFFFFFFFFFFFFFFFFFFFFFFFFFFFFCB
:20402000000102030405060708090A0BFFFFFFFF024429025E3DFFFFFFFFFFFFFFFFFFFF40
:20404000FFFFFFFFFFFFFFFFFFFFFFFFFFFFFFFFFFFFFFFFFFFFFFFFFFFFFF026561FFFFB5
:20406000FFFFFF025760FFFFFFFFFF02658AFFFFFFFFFF026538FFFFFFFFFFFFFFFFFFFF0E
:20408000FFFFFF025EB3FFFFFFFFFFFFFFFFFFFFFFFFFFFFFFFFFFFFFFFFFF025668FFFF67
:2040A000FFFFFFFFFFFFFFFFFFFFFF0256D8FFFFFFFFFF025C930102B4870100009F870288
:2040C000B887010000D68710B085030000840202BC87030000810202B887010000D28710FF
:2040E0007085030000000002B4870100009C8702B887010000D38710C08502000000000272
:20410000BC870300009D0202BA87010000000002B887010000D387106085020000D4870286
:20412000BC870300009D0202BA87010000D4870090010000000F81DD817781D383A4809D6D
:2041400082008061866883598479863E82E882000003000001000000000000000030FF0052
:2041600000B4000028002800283075A000A000A000A00000080008E001F0001000100010DD
:204180000010001000100050005000500010001000D0070000000000000F000100050030C3
:2041A0007507001000010081FF00000000FFFFFF5A69786960699C69FF0202020802500024
:2041C000A0000000E80302B487010000968702B887010000301C02BE87010000510302B815
:2041E00087010000311C02C087010000670302B887010000321C02C287010000690302B834
:2042000087010000331C02C4870800006A0302B887010000341C02C687010000351CFF01D2
:2042200000FF2002B487010000908702B887010000991C02C887000000000002BC8703007A
:2042400000980317001A701A701A701A701A701A701A701A701A701A701A701A701A70D8D2
:2042600072EA72D272020202020202020202010D000000100102B487010000998702B8875C
:20428000010000DC1C02AC87010000C80702B887010000DD1C02AA870100006D8602B8877D
:2042A000010000DE1C02A687010000A48702B887010000DF1C028A86010000BC8402B887D7
:2042C000010000E01C02A887010000A28702B887010000E11C02D087010000908502B88797
:2042E000010000E21C02CC870100004F8502B887010000E31C02CA870100001E8602B8871B
:20430000010000E41C02B087010000E51C01E8030577100A0A4C74FFFF000130750302016B
:204320000600000000000000000000000000000000000000000000000000000000FFFF0673
:2043400000800CE8030100B0423BAAB83F0000003F8C906339AA0CA33A00941E3C8042637A
:204360003DCFFE753E1572313F0000803FF304353F8096184B000080BF2292D43EDD9B2A3F
:204380003F04000040FFFF7F7FFFFF7FFF010080341872313FE5C754F84405F5C7790122DA
:2043A00000000080FB124395B90003024413E479447815B800028004F709D8FCE479597815
:2043C00002B800028004F709D8FCE490028078AF79198002F0A3D8FCD9FA78439040B67AA3
:2043E00001BA00028007E493A3F608DAF97A2E7B1B9040B778DF79038015E493A3AD82AE6A
:20440000838A828B83F0A3AA82AB838D828E83D8E9D9E77582E67583DF740412443B7582BD
:20442000A0758343740012443B75D00075815F754180754202759F000243A5C09FF59FE43E
:2044400073D09F22D083D082C09FE493C0E0740193C0E0740293F59F22E066701008A3E085
:2044600066700A08A3E066700408A3E06622E4936670130874019366700C087402936670AB
:2044800005087403936622C3E7960809E7960809E7960809E796A2D265D03322C3E0960854
:2044A000A3E09608A3E09608A3E096A2D265D03322C021C3E096F52108A3E096422108A344
:2044C000E096422108A3E0964221A2D265D033E5217001D3D02122C3E7960809E796080967
:2044E000E7960809E79622C3E09608A3E09608A3E09608A3E09622C021C3E096F52108A3F6
:20450000E096422108A3E096422108A3E09645217001D3D02122C3E49396087401939608E2
:2045200074029396087403939622080808E630E711124E4C124542080808C64480C618180F
:204540001822181818E9799EC608CAC608CBC608CCC6C370207996CACBCC7019798ECBCC5E
:2045600070137986CC700EF9802ACA33CACB33CBCC33CC331930E7F2CCCBCA3350147004B0
:20458000EA30E00DE4CA3ACACB3BCBCC3CCC500209C3E913C6CC182313C6CB18C6CA18C6AC
:2045A000F9221245E220F01430E72B74FFFCFBFA747F8022E4FCFBFA7480801AB48008BCED
:2045C00000F2BB00EF800F50EBF9E4C39AFAE49BFBE49CFCE499C6CC18C6CB18C6CA18C60D
:2045E000F922E4C9C608CAC608CBC6D3330308CCC63392F0C3947F402E94184019C9B907D2
:2046000004CACBCC225025C309CA33CACB33CBCC33CC33D9F422F4600DC9CCC313CB13CBE0
:20462000CA13CAD9F6CC22E4FCFBFA2214FCFBFA22E62618461846184622E72719471947E2
:20464000194722181818E60846087009E626087005E633F4220822191919E70947097009F5
:20466000E727097005E733F4220922E6084608C3134608336002E633F422E7094709C31319
:204680004709336002E733F42212466B602512467A6020124631700302463A080808E76688
:2046A00070101819E766700A1819E76670041819E76622F42212466B601C12467A60171240
:2046C0004631700712463A7001D322C0D012463A7006D0D0B322C32233D0D0501430E0F6C5
:2046E000C3E7960809E7960809E7960809E796B32220E0D5E6970809E6970809E69708097C
:20470000E697B32212466B601B12467A6016124631700712463A600CB322C0D012463A705C
:2047200005D0D022C32233D0D0501330E0EBC3E7960809E7960809E7960809E7962220E090
:20474000E4E6970809E6970809E6970809E697220012466B604F12467A6012E7548066F65F
:20476000124643701112463A703B090909F4F618F618F618F62212465770151246310808C2
:204780000860EAE6447FF618768018E4F618F622124631601612463A7012E4F608F608F60F
:2047A00008E65480F609090918181822EAC0E0EBC0E0ECC0E0EDC0E0E687F0A4FBACF008EE
:2047C000E687F0A42CFCE435F0FA1809E687F0A42C4B60027401CA35F0FCE433FB09E687CA
:2047E000F0D2F7A42CCB35F0FC1908E687F0A42BCC35F0FBE433FD0819E687F0D2E7A42CF0
:204800004ACB35F0CD3400FC09E687F0D2E7A42DCC35F0FDE433FA0918E687F0D2F7A42C5B
:20482000CD35F0CA3400FC08E687F0D2E7D2F7A42ACC35F07A7E20E70B0ACB33CBCD33CD3C
:20484000CC33CC33CB3350147004ED30E00ED2F1E4CD3DCDCC3CCC3B5005DA05C2F1EB54C6
:204860007FC63308E63392F0FBE73309E733C39A502D2B70190C0D4C4D70151806E608C351
:2048800033700D20F10AA2F013F6E418800B4024E4F630F002768018F618F618F68024D334
:2048A0003B14501074FFA2F013F6187680E418F618F6800FA2F013F618E63303F618ECF6DF
:2048C00018EDF6D0E0FDD0E0FCD0E0FBD0E0FA2212467A604612466B603DE9687008F6185E
:2048E000F618F618F622748067F7124904090909748067F72212466B601D12467A700519A4
:204900001919801A124643701F124657C37003E6673319191940071818182208080874FFB5
:20492000F618F618F618F622124657601712463A702192F01246317019501720F0140808BD
:2049400008090909E7F61819E7F61819E7F61819E7F62212463160E6E869701F0808E62442
:2049600080F608E436F618547FB47F0CE654806007F6E418F618F622181822E9C6CC08C6AB
:20498000CD08C6CE08C6CFC0E0E8C0E0EAC0E0EBC0E009E9F809E7FA09E7FBE6F918E6F840
:2049A000C3EC98ED99EE9AEBC2E7F5F0EFC2E795F0500E600CEBCFFBEACEFAE9CDF9E8CC78
:2049C000F8EAA2E7D2E7FAEB33FB13F5F0EEA2E7D2E7FEEF33FFC5F013A2E730E601B3132B
:2049E000C5F0C3C0E0C0F07F00C39BFB605E9418600F401D14601AD0E023F9D0E0F8024A93
:204A0000D68AF0E9486003D2F0E4AFF0FAF9F8803BEB30E40D89F0EA6003D2F0E4AFF0F9B7
:204A2000CAF8EB30E30D88F0EF6002D2F0AFF0E4CAC9F8EB54076014FBC3EA13FAE913F9AC
:204A4000E813F8EF135002D2E0FFDBEDD0E0C0E030E739C3E49FFFF5F0EC98FC42F0ED9994
:204A6000FD42F0EE9AFE42F0D0E0F9D0E0F8E5F0607AE923F9EE20E742D8028067C3EF336D
:204A8000FFEC33FCED33FDEE33FE80EAEC28FCED39FDEE3AFED0E023F9D0E0F84002801BAC
:204AA000C3EE13FEED13FDEC13FCEF135002D2E0FF08B800067F7F74FF802EEF3350178C3D
:204AC000F020F00260100CBC000C0DBD00080EBE000408E860DFE933E813FFEE2313FE4F38
:204AE0004D4C8008E95480FFE4FEFDFCEE33EF33F47004FCFD7E80D0E0FBD0E0FAD0E0F85F
:204B0000D0E0CFC618CEC618CDC618CCC6F92212466B70041818182212467A700D74FFF6DB
:204B20001819F61819F61819F622E7548066F6124631700F12463A70F014F608F608F608BF
:204B4000F680D112463A700CF608F608768008E6447F80EC12465A700C12464660BFE654CC
:204B600080F6E480BB124646700519191980A5E869700C763F18768018F618F6E8F922E688
:204B8000CDC0E018ECC0E0E633CD33CDD313F6E719FCE7191933CC33C3947F400ECD9D501D
:204BA0002408E65480F6E418F6800FF4043D14501408E6447FF6187680E418F618F6D0E086
:204BC000FCD0E0FD22CCD313CCFD18E4C6CBC0E018E4C6CAC0E00808ED08C633E613F61831
:204BE000E433C675F003C3CA97CA09CB97CB199C40047D08802EBD0003024CB816B6FF058A
:204C00000606081618C3CA33CACB33CB33CA27CA09CB37CB193CC37D08803E187D0820E73C
:204C20005CC633C6CA33CACB33CB33DDF1D5F0EB30E77BCA97CA09CB974ACB199C406F4B2C
:204C40007025E620E0218066187D08C3CA97CA09CB97CB199CD3C633C6CA33CACB33CB3307
:204C600050C9DDE7D5F0E1D3E4C636C608C636C608C636C608C636C61818188031C3CA97BD
:204C8000CA09CB97CB199CB34097C633C6CA33CACB33CB33DD34D5F02EC6A2E0C640C8CA6F
:204CA00027CA09CB37194A70BECB3CB480B90808E63308E633601F181818D0E0FAD0E0FB0D
:204CC000D0E0FCD0E0FD22187D08CA27CA09CB37CB193CD3808013F618E4B67F11F618B6F4
:204CE000FF0EF618C60470D20808768080CAF618F618F680C5080808EAC0E0EBC0E086F043
:204D0000E7A4FA180986F0E7A42AFA180986F0E7A42AFA180986F0E7A42AFA1986F0E7A422
:204D2000FBE5F02AFA190886F0E7A42BFBE5F03AFA190886F0E7A42BFBE5F03AFA181809A4
:204D400086F0E7A4C5F02BFBE43AFA1908E7C5F0C6A426F6E5F03BFBE43AFA1886F0E7A4E0
:204D6000F6E5F00826F6E43B08F6E43A08F6D0E0FBD0E0FA22E4CFC0E0E4CEC0E0E4CDC07E
:204D8000E0E4CCC0E075F020E626F608E633F608E633F608E633F6181818EC33FCED33FD97
:204DA000EE33FEEF33FFC3EC9709ED9709EE9709EF97191919400FFFEC97FC09ED97FD0918
:204DC000EE97FE191906D5F0BFECF709EDF709EEF709EFF7191919D0E0FCD0E0FDD0E0FE95
:204DE000D0E0FF22124E4F181818124D75124E3B19191922124E3B191919080808E61818FB
:204E00001820E7E0124D75124E4F18181822090909E719191920E7DC080808E61818182010
:204E2000E703024D75124E4F181818124D75124E4F181818124E3B19191922E4C397F709BC
:204E4000E497F709E497F709E497F722181818E4C396F608E496F608E496F608E496F622C3
:204E60006017080808C6A2E713C618C613C618C613C618C613C6D5E0E9226016080808C642
:204E8000C313C618C613C618C613C618C613C6D5E0EA227009080808226016181818C6C396
:204EA00033C608C633C608C633C608C633C6D5E0EA22E627F60809E637F60809E637F60890
:204EC00009E637F622E026F608A3E036F608A3E036F608A3E036F622E026F008A3E036F0AA
:204EE00008A3E036F008A3E036F022C3E697F60809E697F60809E697F60809E697F622C387
:204F0000E096F008A3E096F008A3E096F008A3E096F022E056F608A3E056F608A3E056F6FC
:204F200008A3E056F622E056F008A3E056F008A3E056F008A3E056F022E647F60809E6475C
:204F4000F60809E647F60809E647F622E046F008A3E046F008A3E046F008A3E046F022E076
:204F600066F008A3E066F008A3E066F008A3E066F022E0F608A3E0F608A3E0F608A3E0F6BD
:204F800022E6F008A3E6F008A3E6F008A3E6F022E0FAA3E0FBA3E0FCA3E0FD22EAF0A3EB93
:204FA000F0A3ECF0A3EDF022E0FCA3E0FDA3E0FEA3E0FF22ECF0A3EDF0A3EEF0A3EFF022DE
:204FC000E0F8A3E0F9A3E0FAA3E0FB22E8F0A3E9F0A3EAF0A3EBF022CAC0E0E6F0A308DA2A
:204FE000FAD0E0FA22CAC0E0E0A3C582CCC582C583CDC583F0A3C582CCC582C583CDC583FD
:20500000DAE6D0E0CA22C3E498F8E499F91250478026C3E49AFAE49BFBE920E7E912504701
:20502000E498F8E499F922C3E498F8E499F9125047E498F8E499F9C3E49AFAE49BFB22EB62
:2050400020E7CFE920E7E0B90010BB0008E88AF084F8AAF022E4FBC8FA22EB70227B10C8F1
:2050600033C8C933C9335007C39AC3DBF280069A50012ADBEAC833F4C8C933F4C9FA227598
:20508000F008E4C833C8C933C933C99AC99B5004C92AC93BD5F0ECFBC833F4C8E4C9FA223B
:2050A000600D08C6A2E713C618C613C6D5E0F322600C08C6C313C618C613C6D5E0F422700A
:2050C0000422600D18C6C333C608C633C6D5E0F41822254110AF08F541400C15428008F576
:2050E0004140021542D2AF2200C0D0254110AF08F541500C05428008F54150020542D2AFC5
:20510000D0D0222541F58210AF08F541400C15428008F54140021542D2AF854283222541A6
:20512000F582E43542F583222541F8E43542F9222541FAE43542FB222541FCE43542FD227B
:20514000E4732541C582C0E0E54234FFC583C0E0E541C3958224F810AF08858342858241F4
:205160008008858342858241D2AFCEF0A3E520F0A37821E608F0A3DEFAEFF0A3E58124FAA3
:20518000F8E608F0A3E608F0A3E608F0A30808E608F0A3E608F0A315811581D0E0FED0E0F8
:2051A000F8158115811581E8C0E0EEC0E0222541C582C0E0E54234FFC583C0E0E541C395F0
:2051C0008224F910AF088583428582418008858342858241D2AFCEF0A3E520F0A37821E6C4
:2051E00008F0A3DEFAEFF0A3E58124FBF8E608F0A3E608F0A30808E608F0A3E608F0A31514
:20520000811581D0E0FED0E0F815811581E8C0E0EEC0E022854283854182E0A3FEE0A3F532
:20522000207821E0A3F608DFFAE0A3FFE0A3C0E0E0A3C0E0E0A3C0E0E0A3C0E0E0A3C0E02A
:2052400010AF088582418583428008858241858342D2AFD083D0820244418542838541829C
:20526000E0A3FEE0A3F5207821E0A3F608DFFAE0A3FFE0A3C0E0E0A3C0E0E0A3C0E0E0A3B4
:20528000C0E010AF088582418583428008858241858342D2AFD083D08222C0D02541C58276
:2052A000C0E0E54234FFC583C0E0E541C3958224F310AF0885834285824180088583428545
:2052C0008241D2AFC8F0A3E9F0A3EAF0A3EBF0A37921E709F0A3D8FAECF0A3EDF0A3EEF0EC
:2052E000A3EFF0A3D0E0F0A3D0E0F0A3D0E0F0A3E520F0A3E5F0F0A322854283854182E02C
:20530000C0E0A3E0F9A3E0FAA3E0FBA37821E0F608A3DFFAE0FCA3E0FDA3E0FEA3E0FFA3DE
:20532000E0C0E0A3E0C0E0A3E0F5D0A3E0F520A3E0A3F5F010AF0885834285824180088579
:205340008342858241D2AFD082D083D0E0F8D0E03274048006740280027401C0E0F404127B
:205360005103D0E0124FD8227404800474028000CCC0E0EDC0E0E541C39CCCAD4250011D35
:2053800010AF068C418D4280068C418D42D2AF124FE5D0E0FDD0E0FC22D083D082C5F0E40A
:2053A00093A3C5F0C395F0F5F0E493A3C395F04005E5F0048001E475F002A42582F582E5E2
:2053C000F03583F583E493A3C0E0E493C0E022D083D082E9C0E0E493A3C386F0C5F095F0FF
:2053E000F908E493A386F0C5F095F0700BE493A3C3994005E9048002A3E475F002A4258204
:20540000F582E5F03583F583D0E0F9E493A3C0E0E493C0E022D083D082E9C0E0E493A3C369
:2054200086F0C5F095F0F908E493A386F0C5F095F0702408E493A386F0C5F095F0701908FA
:20544000E493A386F0C5F095F0700E08E493A3C3994007E9048004A3A3A3E475F002A425D1
:2054600082F582E5F03583F583D0E0F9E493A3C0E0E493C0E022D083D082CCC0E0E493A367
:2054800060061254A01470FAE493A360061254BF1470FAD0E0FCE493A3C0E0E493C0E02260
:2054A000C0E0E493A3D39C5010E493A3C39C400AD0E0D0E0D0E0025493A3A3A3D0E022C02C
:2054C000E0E493A36C7009D0E0D0E0D0E0025493A3A3D0E022D083D082ECC0E0EDC0E0E43A
:2054E00093A3FCE493A3FDED4C600D125521EC24FFFCED34FFFD80EFE493A3FCE493A3FD71
:20550000ED4C600D125560EC24FFFCED34FFFD80EFD0E0FDD0E0FCE493A3C0E0E493C0E05D
:2055200022C0E0C3E49396087401939618400FE49366700808740193661870007019A3A3AA
:20554000C3E49396087401939618A3A3400DD0E0D0E0D0E0025511A3A3A3A3A3A3D0E0220E
:20556000C0E0C0F088F0E4936670080874019366187000A8F0A3A3700BD0F0D0E0D0E0D0C7
:20558000E0025511A3A3D0F0D0E022D083D082ECC0E0EDC0E0EEC0E0EFC0E0E493A3FCE416
:2055A00093A3FDE493A3FEE493A3FFEF4E4D4C6015125607EC24FFFCED34FFFDEE34FFFE86
:2055C000EF34FFFF80E5E493A3FCE493A3FDE493A3FEE493A3FFEF4E4D4C6015125644EC04
:2055E00024FFFCED34FFFDEE34FFFEEF34FFFF80E5D0E0FFD0E0FED0E0FDD0E0FCE493A3FA
:20560000C0E0E493C0E022C0E0C0F088F0124516A8F0400712446EA8F0701AA3A3A3A31219
:205620004516A8F0A3A3A3A34013D0F0D0E0D0E0D0E00255F1A3A3A3A3A3A3A3A3A3A3D052
:20564000F0D0E022C0E0C0F088F012446EA8F0A3A3A3A3700BD0F0D0E0D0E0D0E00255F145
:20566000A3A3D0F0D0E022FFC0E074EF12529AA2AFE433FFD2AFA889E5AB58F521604FF498
:20568000F589C2C59008B57401F07E008E23752400740278231250BF125748EA4B702812C9
:2056A000573CB800028004C313D8FCA2E05018752300752401EE78231250BFAA23AB24907D
:2056C0000280E0F912761A0EEEC3940440BEEFA2E092AF7F040252F9C0E074EF12529AA253
:2056E000AFE433FFD2AFA88AE58D58F521604BF4F58AC2EB7E008E2375240074027823129C
:2057000050BF12574874406A4B702812573CB800028004C313D8FCA2E05018752300752420
:2057200001EE78231250BFAA23AB24900280E0F912761A0EEEC3940440BC8092E81313130F
:20574000541F5407F8E52122743E2523F582740A3524F583E0F8A3E0F9E854C0FAE9FB224B
:20576000C0E074EF12529AA2AFE433FFD2AFA88BE5AC58F521604BF4F58BC2E87E008E2316
:20578000752400740278231250BF12574874806A4B702812573CB800028004C313D8FCA21D
:2057A000E05018752300752401EE78231250BFAA23AB24900280E0F912761A0EEEC3940445
:2057C00040BC0256CE74F61251AEEAFEEBFF8C218D22EE2434F8E43FF9E8FCE9FDEE243593
:2057E000125AD8FAEE2437125AD8F88521F0A4C885F0238522F0A42523F9EA28F8E439F9B0
:205800007A257B00125047EA8C828D83F0FA131313541FF8EE28F8E43FF9E8245DF582E441
:2058200039F583E0C0E074075AF8D0E0B800028004C313D8FCA2E0EE50082434F582E43F18
:2058400080182436125AD8F5F0EA84A8F0EE28F8E43FF9E82438F582E439F583E0F97F0352
:2058600002525A74F71251AEEAFEEBFFEE2434125AD8C0E0EE2435F582E43FF583D0E0F009
:205880008E828F83A3A3A3A3A3A3A3C082C0838E828F83A3A3A3A3A3E0F8A3E0F9D083D024
:2058A00082E0C398F521A3E099F522EE247F125AD86401703EEE2480F582E43FF583C08214
:2058C000C0838E828F83A3A3A3A3A3E0240108A3E03400F9D083D082E0687003A3E06970BB
:2058E000127C3B7D05126F5AEE247FF582E43FF583E4F0AC21AD22EEFAEFFB1257C5E9F98D
:2059000012652A7F0202525AC082C083854182854283E0F8A3E0F9C3EA9CEB9D5010C3EC6C
:2059200098ED99401BC3EA98EB995014800EC3EA98EB994007C3EC98ED9940047901800216
:205940007900D083D08222EAC39CFAEB9DFB2274EF1251AE900400E064086005E0640770AB
:205960002A9061C8E0602490042EE0F4601DE0F875F00BA4C8AAF02AF9743028FE740439E1
:20598000FF8E828F83A3A3A3E07003025A5D906060E0C0E0EE2468F582E43FF583D0E0F0F5
:2059A0007525AB752605752100752200E5D914F523E5D95403F5276012740365276043E5BD
:2059C00023600AEE2467125AD8700280759005A6E06401601F125AD560047A0480027A00F8
:2059E000E523C39AFA95E0FB126E048A218B22EA452270051271A08064125AD570048A25CB
:205A00008B26E5236012852582852683F524E5D9F0A31524E52470F6125AD5604474FC2575
:205A200023F5237825125355AC23A927EEFAEFFB12701474021250E8E97026AA21AB2212E4
:205A40007650793D8E828F83A3A3A3A3E0FA7B00126C6CEEFAEFFB126F7E1270267900806B
:205A60006F740365276051852329752A007829125355AC25AD26AA21AB22126FD87402121B
:205A800050E8EE2468125AD864807004747F8001E0F5257825125359E527F52578251253C7
:205AA00059A923AC21AD2290042EE0FA7B00126C4274021250E88013900400E06408600BB0
:205AC000AC25AD26EEFAEFFB12709E1271AC79017F0A02525AEE2483F582E43FF583E022A7
:205AE00074F21251AE74FC1250D2EAFEEBFF8922A2AFE433F521C2AF025BAAE0601B782520
:205B0000125355AC24A927EEFAEFFB12700E74021250E874042524F52474012524F5D9851E
:205B200027D9E5246018F523852582852683E0F5D9A38582258583261523E52370EA75E1D7
:205B400095EE2463F8E43FF97A007B00A2AFE433F524C2AF88828983E0FCA3E0FDEC4D6035
:205B60003A88828983E0FAA3E0FB8A828B83E0FCA3E0FD88828983ECF0A3EDF08A828B837B
:205B8000E4F0A3F088828983E0FCA3E0FDEC4D700A88828983A3A3E4F0A3F0E524A2E09299
:205BA000AF127650900542E004F0EE2463125AD8F8A3E0F9E8496064EE2463125AD82402B2
:205BC000F8A3E03400F988828983E5822402F525E43583F526E0F524A3E0F527EE2462128B
:205BE0005AD8640170369061D0E0F8125AD560047C0480027C007480C398FA95E0FBE524EA
:205C00002CF8E43400F9E82402F8500109C3EA98EB99A2D265D0334003025AFB900542E0F9
:205C2000604D900543E0F8900542E0C398500C74026522703A900544E060348E828F83A3E0
:205C4000A3A3A3E0854182854283125C7F740212511EE8125C7F900541E028F07402125189
:205C600038AA41AB427901126C90900542E4F0E521A2E092AF74041250E87F0702525AF032
:205C8000A3E4F0900542E0F822FFFFFF8551878552C622C0E074EB12529AA2AFE433F52128
:205CA000C2AF759B00906182E0A2E05030E591A2E0502A7591FE740165517021125E261234
:205CC00070EC125E141253681262D474041250E8E964017005790112713412594F906182EC
:205CE000E0A2E5505DE591A2E550577591DF900400E064076005E06408702F125E267401CD
:205D00006551703E1270EC125E141253681262D474041250E8E964017005790112713479E9
:205D200001EEFAEFFB125AE08018E0640D7013900422E004F064287002E4F07A00E0F91217
:205D400071B2906182E0A2E64003025DE9E591A2E64003025DE97591BF900400E06405701F
:205D6000081270D41270E080031270DA755100127140E9900401F07900127134126ECA7A99
:205D8000017B009003FFE0F912761A907803E0644270569005AAE014F0704EC2AF125DA0C2
:205DA00000785AD0E0F618D0E0F6E59F5407F870057526FF800375267FC4C0E07859E6F51A
:205DC0002308E65526F524740B78231250B0D0E02523F8906270E0A2E740F8E8C33390622F
:205DE00072F0906270E0D2E0F0906181E0A2E35009E5E9A2E3500375E9F7A3E0A2E75009CD
:205E0000E591A2E7500375917FE521A2E092AF7F080252F98E828F83E0F8A3E0C82416F59A
:205E200082E438F5832290042EE0F875F00BA4C8AAF02AF9743028FE740439FF22C0E0C0FB
:205E4000D0C082C083906183E0A2E05009E5BFA2E0500375BFFEE0A2E15009E5BFA2E150E0
:205E60000375BFFDE0A2E25009E5BFA2E2500375BFFBE0A2E35009E5BFA2E3500375BFF722
:205E8000E0A2E45009E5BFA2E4500375BFEFE0A2E55009E5BFA2E5500375BFDFE0A2E6509A
:205EA00009E5BFA2E6500375BFBFD083D082D0D0D0E032C0E074F212529AE5A7A2E6500FC9
:205EC000E5A1A2E6500953A7BF75A1BF125F07E5A7A2E5500CE5A1A2E5500653A7DF75A194
:205EE000DFE5A7A2E15009E5A1A2E1500375A1FDE5A7A2E2500CE5A1A2E2500653A7FB75B6
:205F0000A1FB7F010252F974F71251AE755101900400E06406701512704A8A828B83A3A346
:205F2000A3A3A3A3E0FAA3E0FB1270C2A2AFE433FED2AF900406E0640170187A207B009046
:205F400003FFE0F91276E67A207B009003FFE0F9127620906182E0D2E6F09005A7E0602138
:205F600085C6528016900405E064017008E5C654F84405F5C653BEFC125C8C74016551600B
:205F8000E4EEA2E092AF7F0202525AFF8E538F54858258858357854182854283E0CEA3E0F9
:205FA000CF855882855783EBC9EAC8EDCBECCA75F010C3E833C8E933C9EA33CAEB33CBC3ED
:205FC000EA9EF556EB9FF555B35004AB55AA56EC33CCED33CDD5F0DAAE53AF542274E91207
:205FE00051AE74FA1250D2EAFEEBFF8C238D241270F8EAF8EBF9ECFAEDFB8E828F83124F3D
:20600000CC900400E024F7C394055006752D0102614412704A8A218B22EA452270030261DE
:2060200041EEFCEFFDAA41AB421270F2852182852283A3A37825124F729087187825124FC8
:20604000138541828542837829124F729087187829124F13782579291244D7501F782579F2
:2060600029124EEB90875478251244F7404785252D85262E85272F852830804590875485B3
:20608000292D852A2E852B2F852C30782D7925124EEB782D1244F7501C752D00752E007567
:2060A0002F00753001782D7929124EEB782D7925124EB2800C752D01752E00752F00753009
:2060C000007409782D124E939086F47825124F72782D7925124D75852182852283A3A3A3DF
:2060E000A3A3A312616212504788258926E4F527F528782D7925124EB2740412511E1261FF
:2061000062125047E8FA8A25E4F526782D79251244D75007782D7925124EEB900400E064B7
:2061200008600AE064066005E064057020908758782D1244F7501690875C782D124EC580E1
:206140000C752D00752E00752F00753000852382852483782D124F8174061250E87F100273
:20616000525AE0F8A3E0F97AD07B032274F71251AE12710A9005A5E064017010906245E412
:20618000F0A3F053F4F343FE0C5390F31270B0E5C654B84441F5C6E59E5447644170F8903B
:2061A0006185740FF09005A3E0F47002A3E0604E9005A4E0600814601B14602E80407521CF
:2061C000017522009005A3E078211250BFE521F45280802A7521017522009005A3E0782100
:2061E0001250BFE521F4529080147521017522009005A3E078211250BFE521F452A07900A9
:206200007F0202525A74F71251AEE9FEEAFF12710A74016E700C7A807B009003FFE0F91225
:20622000761A907774E493F46008E493F9126EBE800953C6B8E59E544770FA1270B6900523
:20624000A5E064017003126EDC9005A3E0F47002A3E0604B9005A4E0600814601A14602C2A
:20626000803D7521017522009005A3E078211250BFE521428080287521017522009005A38B
:20628000E078211250BFE521429080137521017522009005A3E078211250BFE52142A012FF
:2062A000704A8A218B22A821A922E8496014E5E170FCE82414F582E439F583E0F46003E01E
:2062C000F5E174016F700A7A019003FFE0F91276B602620074F11251AE8A218B228C238DF8
:2062E000249087187821124F13740F12511E7825124F729087187825124F13782179251241
:2063000044D7908754501078217925124EEB78211244F74014800E78257921124EEB78252E
:206320001244F750047901800279007F0802525A74ED1251AE8A218B228C238D24908718B9
:206340007821124F13741312511E7825124F729087187825124F13782579211244D74011C3
:2063600078217925124EEBAA21AB22AC23AD248022752900752A00752B00752C0178297928
:2063800025124EEB78297921124EB2AA29AB2AAC2BAD2C7F0C02525A9087187821124F7214
:2063A0008A828B837821124F267F0402525A74F51251AE8C828D837821124F728A828B8354
:2063C0007821124EFF126406C3E09CF0A3E09D1263F840229087707821124F728A828B831E
:2063E0007821124ED88A828B83A3A3A3A3E02420F0A3E0344EF080A0F088828983C3E094C0
:2064000020A3E0944E22EA2404F8E43BF98C828D83A3A3A3A3E0FCA3E0FD88828983227401
:20642000F51251AEE9FE90055DE0FAA3E0FBEE29F8E433F974A028F582748539F583E02A9F
:20644000F521A3E03BF5227821125355908774124F90125F8C74021250E88A218B228C23BE
:206460008D2474107821124E7AAA21AB227F0402525A74F11251AE8A258B268C278D2874F9
:206480001112511E12536C741112511EE02401F521A3E03400F522E4F523F524782579215E
:2064A000124CF59087687821124F7278257921124CF5AA25AB26AC27AD28125F8C74021247
:2064C00050E88B22EA452260047A0180027A00EC2AFCE43DFD741312511EE0F8A3E0F9E837
:2064E000FEE9FFECF8EDF97A717B0212504788218922E4F523F5248E828F837821124F81D5
:20650000ECF8EDF97A717B021250478A218B22740578211250BF8E828F83A3A3A3A3E52161
:20652000F0A3E522F07F0802525AC082C083E9906000F0D083D08222C0E074F212529AA2E1
:20654000AFE433FED2AFC2C0E5D1A2E4500675D10F127530754300EEA2E092AF7F01025299
:20656000F9C0E0C0D0E8C0E0E9C0E0A9A8D2AFC2C7754300E9A2E7E433F8E9A2E792AFD0CA
:20658000E0F9D0E0F8D0D0D0E032C0E0C0D0E8C0E0E9C0E0EAC0E0C082C083A2AFE433FA46
:2065A000D2AF900A39E0F8A3E0687008539AFBA374018022C2E9900A39E0F8740128F07453
:2065C000B928F582E43409F583E0F5C1900A39E0C394804002E4F0EAA2E092AFD083D08242
:2065E000D0E0FAD0E0F9D0E0F8D0D0D0E032C2AF02000022124444708504124444FA8504D9
:206600001244441188041244448988041244449B8804124444228904124444AE890412445F
:20662000443EF20112444418F30112444427F501124444C8F50112444449F601124444F2CA
:20664000F701124444C0F801124444DAF8011244446DF90112444406FA01124444DFFA0172
:2066600012444415FB011244442FFE01124444EAFE0112444446FF01124444CEFF01124486
:20668000440080011244441C8001124444F48101124444E182011244443D83011244448972
:2066A0008301124444B98301124444058501124444818501124444F6850112444482860100
:2066C0001244449787011244441F8801124444448A0112444406930112444454930112444A
:2066E00044899301124444E093011244440D94011244443BBA011244448FBA011244441EC3
:20670000BB01124444A3BE0112444430C40112444460C401124444FECB01124444EECC01BA
:2067200012444437CD0112444459CE011244449DCF01124444F2CF0112444475B904124473
:206740004488B904124444B9B904124444F3B9041244444CBA0412444493BA04124444DB52
:20676000BA041244440ABB0412444439BB0412444470BB04124444B7BB04124444D0BB0464
:2067800012444425BC041244443EBC041244448CBC04124444C6BC0412444488DF03124482
:2067A000448BE003124444C4E003124444E7E003124444F9E00312444437E103124444B30A
:2067C000E1031244447BE2031244449DE20312444434E30312444486E303124444B7E303CE
:2067E000124444C4E3031244442EE40312444485E40312444488E403124444C1E4031244FF
:2068000044C4E403124444CEE40312444422E50312444463E50312444496E503124444D32C
:20682000E503124444D5E60312444479E703124444E2E70312444420E803124444AAAD041B
:20684000124444D2AD04124444FFAD0412444437AE0412444495AE04124444E1AE041244EA
:206860004448AF0412444488AF04124444C5AF04124444F3AF041244449DB004124444A786
:20688000B004124444B4B004124444E7B004124444F3B0041244440BB10412444415B1040E
:2068A00012444465DD0412444473DD041244448BDD04124444A2DD04124444C3CF02124463
:2068C000446DD00212444480D102124444FCD1021244441AD30212444456D302124444F106
:2068E000D302124444D5D402124444A1D5021244442FD702124444A0D7021244445AD802E9
:206900001244444CD9021244448CD90212444440DA0212444472DA0212444468DC021244E1
