:020000040000FA
:104000006864FFFF0100009C42424242FFFFFFFF45
:10401000FFFFFFFFFFFFFFFFFFFFFFFFFFFFFFFFB0
:10402000000102030405060708090A0BFFFFFFFF52
:10403000024398025D6EFFFFFFFFFFFFFFFFFFFFE0
:10404000FFFFFFFFFFFFFFFFFFFFFF026216FFFF03
:10405000FFFFFFFFFFFFFFFFFFFFFF026192FFFF78
:10406000FFFFFF0255DDFFFFFFFFFF0261ACFFFF17
:10407000FFFFFF02616CFFFFFFFFFFFFFFFFFFFF7E
:10408000FFFFFF025DE4FFFFFFFFFFFFFFFFFFFFFA
:10409000FFFFFFFFFFFFFFFFFFFFFF0254E8FFFFEF
:1040A000FFFFFF026266FFFFFFFFFF025552FFFFA7
:1040B000FFFFFF025BCB0273870100005B87027783
:1040C0008701000089871051850300008602027B6A
:1040D000870300008102027987010000448602778D
:1040E00087010000888710A1850200000000027B84
:1040F0008703000083020279870100002C8600B04C
:10410000010000000F81DD8177811684A4809D82EB
:1041100000802086AB8344844F863E82E882000084
:10412000030000010000000000000000140030FF48
:104130000000B4000028002800283075A000A0006E
:10414000A000A00000080008E001F000100010002E
:10415000100010001000100050005000500010001F
:104160001000D0070000000000000F000100050053
:10417000307507001000010081FF00000000FFFF04
:10418000FF0D662B6613664966FF020202080250A5
:1041900000A0000000E803027387010000558702B9
:1041A0007787010000671D027D87010000B00302D0
:1041B0007787010000681D027F87010000C60302A7
:1041C0007787010000691D028187010000C8030292
:1041D00077870100006A1D028387080000C9030277
:1041E00077870100006B1D0265870100006C1DFFD1
:1041F0000100FF20027387010000528702778701C8
:104200000000D01D0261870000000000027B8703D0
:104210000000F70317008B6C8B6C8B6C8B6C8B6CBA
:104220008B6C8B6C8B6C8B6C8B6C8B6C8B6C8B6CD6
:10423000FB6E0D6FF56E0202738701000058870256
:1042400077870100008B870263870100002D080239
:1042500077870100008787026B87010000F98502DC
:1042600077870100008C87028587010000A1840206
:1042700077870100008D8702698701000040850271
:104280007787010000131E026D870100007E860102
:10429000FFFF00307503020106000000000000006F
:1042A000000000000000000000000000000000000E
:1042B0000000000000FFFF0600800CE8030900007A
:1042C000000000000000000100B0423BAAB83F001F
:1042D00000003F8C906339AA0CA33A00941E3C80E6
:1042E00042633DCFFE753E1572313F0000803FF3C3
:1042F00004353F8096184B000080BF2292D43EDDEB
:104300009B2A3F04000040FFFF7F7FFFFF7FFF01EC
:104310000080341872313FE5C754F84404F5C7797A
:10432000012200000080FB124317B9000302438200
:10433000E479437815B800028004F709D8FCE479E1
:10434000587802B800028004F709D8FCE490028093
:104350007814791B8002F0A3D8FCD9FA7A937B1CDD
:104360009040B6786279038015E493A3AD82AE8362
:104370008A828B83F0A3AA82AB838D828E83D8E955
:10438000D9E77582A975839E74051243AA758222A6
:1043900075834374001243AA75D00075815F75411F
:1043A00080754202759F00024327C09FF59FE4730A
:1043B000D09F22D083D082C09FE493C0E074019349
:1043C000C0E0740293F59F22E066701008A3E066D7
:1043D000700A08A3E066700408A3E06622C3E796AB
:1043E0000809E7960809E7960809E796A2D265D07A
:1043F0003322C3E09608A3E09608A3E09608A3E062
:1044000096A2D265D03322C021C3E096F52108A33D
:10441000E096422108A3E096422108A3E0964221BB
:10442000A2D265D033E5217001D3D02122C3E79613
:104430000809E7960809E7960809E79622C3E09677
:1044400008A3E09608A3E09608A3E09622C021C343
:10445000E096F52108A3E096422108A3E0964221C8
:1044600008A3E09645217001D3D02122080808E670
:1044700030E711124D8E124484080808C64480C6E5
:1044800018181822181818E9799EC608CAC608CB49
:10449000C608CCC6C370207996CACBCC7019798E69
:1044A000CBCC70137986CC700EF9802ACA33CACB74
:1044B00033CBCC33CC331930E7F2CCCBCA335014E6
:1044C0007004EA30E00DE4CA3ACACB3BCBCC3CCC1A
:1044D000500209C3E913C6CC182313C6CB18C6CAA9
:1044E00018C6F92212452420F01430E72B74FFFC83
:1044F000FBFA747F8022E4FCFBFA7480801AB4809B
:1045000008BC00F2BB00EF800F50EBF9E4C39AFA4D
:10451000E49BFBE49CFCE499C6CC18C6CB18C6CA45
:1045200018C6F922E4C9C608CAC608CBC6D33303E5
:1045300008CCC63392F0C3947F402E94184019C91A
:10454000B90704CACBCC225025C309CA33CACB331E
:10455000CBCC33CC33D9F422F4600DC9CCC313CB0C
:1045600013CBCA13CAD9F6CC22E4FCFBFA2214FC02
:10457000FBFA22E62618461846184622E72719476E
:104580001947194722181818E60846087009E62640
:10459000087005E633F4220822191919E7094709BA
:1045A0007009E727097005E733F4220922E6084677
:1045B00008C3134608336002E633F422E7094709CB
:1045C000C3134709336002E733F4221245AD602577
:1045D0001245BC6020124573700302457C08080830
:1045E000E76670101819E766700A1819E766700414
:1045F0001819E76622F4221245AD601C1245BC6012
:1046000017124573700712457C7001D322C0D01277
:10461000457C7006D0D0B322C32233D0D0501430A2
:10462000E0F6C3E7960809E7960809E7960809E760
:1046300096B32220E0D5E6970809E6970809E697A1
:104640000809E697B3221245AD601B1245BC6016FF
:10465000124573700712457C600CB322C0D012451E
:104660007C7005D0D022C32233D0D0501330E0EB81
:10467000C3E7960809E7960809E7960809E796222E
:1046800020E0E4E6970809E6970809E6970809E6B6
:104690009722001245AD604F1245BC6012E754806E
:1046A00066F6124585701112457C703B090909F4C4
:1046B000F618F618F618F622124599701512457379
:1046C00008080860EAE6447FF618768018E4F618D1
:1046D000F622124573601612457C7012E4F608F655
:1046E00008F608E65480F609090918181822EAC0E5
:1046F000E0EBC0E0ECC0E0EDC0E0E687F0A4FBAC8E
:10470000F008E687F0A42CFCE435F0FA1809E687F7
:10471000F0A42C4B60027401CA35F0FCE433FB09B1
:10472000E687F0D2F7A42CCB35F0FC1908E687F029
:10473000A42BCC35F0FBE433FD0819E687F0D2E773
:10474000A42C4ACB35F0CD3400FC09E687F0D2E743
:10475000A42DCC35F0FDE433FA0918E687F0D2F742
:10476000A42CCD35F0CA3400FC08E687F0D2E7D29D
:10477000F7A42ACC35F07A7E20E70B0ACB33CBCDD9
:1047800033CDCC33CC33CB3350147004ED30E00E4A
:10479000D2F1E4CD3DCDCC3CCC3B5005DA05C2F1A5
:1047A000EB547FC63308E63392F0FBE73309E73377
:1047B000C39A502D2B70190C0D4C4D70151806E630
:1047C00008C333700D20F10AA2F013F6E418800B31
:1047D0004024E4F630F002768018F618F618F680D9
:1047E00024D33B14501074FFA2F013F6187680E423
:1047F00018F618F6800FA2F013F618E63303F61831
:10480000ECF618EDF6D0E0FDD0E0FCD0E0FBD0E017
:10481000FA221245BC60461245AD603DE968700859
:10482000F618F618F618F622748067F7124846094B
:104830000909748067F7221245AD601D1245BC70EE
:1048400005191919801A124585701F124599C370F0
:1048500003E66733191919400718181822080808C1
:1048600074FFF618F618F618F6221245996017121A
:10487000457C702192F01245737019501720F01486
:10488000080808090909E7F61819E7F61819E7F6FC
:104890001819E7F62212457360E6E869701F0808E8
:1048A000E62480F608E436F618547FB47F0CE6540C
:1048B000806007F6E418F618F622181822E9C6CC2C
:1048C00008C6CD08C6CE08C6CFC0E0E8C0E0EAC042
:1048D000E0EBC0E009E9F809E7FA09E7FBE6F918B7
:1048E000E6F8C3EC98ED99EE9AEBC2E7F5F0EFC26B
:1048F000E795F0500E600CEBCFFBEACEFAE9CDF96C
:10490000E8CCF8EAA2E7D2E7FAEB33FB13F5F0EED6
:10491000A2E7D2E7FEEF33FFC5F013A2E730E601CE
:10492000B313C5F0C3C0E0C0F07F00C39BFB605E63
:104930009418600F401D14601AD0E023F9D0E0F8FD
:10494000024A188AF0E9486003D2F0E4AFF0FAF9BD
:10495000F8803BEB30E40D89F0EA6003D2F0E4AF7D
:10496000F0F9CAF8EB30E30D88F0EF6002D2F0AF57
:10497000F0E4CAC9F8EB54076014FBC3EA13FAE980
:1049800013F9E813F8EF135002D2E0FFDBEDD0E0AB
:10499000C0E030E739C3E49FFFF5F0EC98FC42F04B
:1049A000ED99FD42F0EE9AFE42F0D0E0F9D0E0F849
:1049B000E5F0607AE923F9EE20E742D8028067C388
:1049C000EF33FFEC33FCED33FDEE33FE80EAEC28F1
:1049D000FCED39FDEE3AFED0E023F9D0E0F84002DC
:1049E000801BC3EE13FEED13FDEC13FCEF1350021E
:1049F000D2E0FF08B800067F7F74FF802EEF3350AF
:104A0000178CF020F00260100CBC000C0DBD0008EB
:104A10000EBE000408E860DFE933E813FFEE23135D
:104A2000FE4F4D4C8008E95480FFE4FEFDFCEE3360
:104A3000EF33F47004FCFD7E80D0E0FBD0E0FAD0D0
:104A4000E0F8D0E0CFC618CEC618CDC618CCC6F94F
:104A5000221245AD7004181818221245BC700D744E
:104A6000FFF61819F61819F61819F622E754806699
:104A7000F6124573700F12457C70F014F608F608B4
:104A8000F608F680D112457C700CF608F6087680A0
:104A900008E6447F80EC12459C700C12458860BF8C
:104AA000E65480F6E480BB12458870051919198018
:104AB000A5E869700C763F18768018F618F6E8F9C4
:104AC00022E6CDC0E018ECC0E0E633CD33CDD31301
:104AD000F6E719FCE7191933CC33C3947F400ECDA8
:104AE0009D502408E65480F6E418F6800FF4043D47
:104AF00014501408E6447FF6187680E418F618F689
:104B0000D0E0FCD0E0FD22CCD313CCFD18E4C6CB22
:104B1000C0E018E4C6CAC0E00808ED08C633E613D2
:104B2000F618E433C675F003C3CA97CA09CB97CB0E
:104B3000199C40047D08802EBD0003024BFA16B676
:104B4000FF050606081618C3CA33CACB33CB33CACF
:104B500027CA09CB37CB193CC37D08803E187D0896
:104B600020E75CC633C6CA33CACB33CB33DDF1D5BD
:104B7000F0EB30E77BCA97CA09CB974ACB199C4028
:104B80006F4B7025E620E0218066187D08C3CA9728
:104B9000CA09CB97CB199CD3C633C6CA33CACB3309
:104BA000CB3350C9DDE7D5F0E1D3E4C636C608C63D
:104BB00036C608C636C608C636C61818188031C3A9
:104BC000CA97CA09CB97CB199CB34097C633C6CABC
:104BD00033CACB33CB33DD34D5F02EC6A2E0C6408A
:104BE000C8CA27CA09CB37194A70BECB3CB480B9B2
:104BF0000808E63308E633601F181818D0E0FAD02A
:104C0000E0FBD0E0FCD0E0FD22187D08CA27CA09ED
:104C1000CB37CB193CD3808013F618E4B67F11F65E
:104C200018B6FF0EF618C60470D20808768080CA3F
:104C3000F618F618F680C5080808EAC0E0EBC0E0F0
:104C400086F0E7A4FA180986F0E7A42AFA1809867C
:104C5000F0E7A42AFA180986F0E7A42AFA1986F0E0
:104C6000E7A4FBE5F02AFA190886F0E7A42BFBE598
:104C7000F03AFA190886F0E7A42BFBE5F03AFA18A7
:104C8000180986F0E7A4C5F02BFBE43AFA1908E707
:104C9000C5F0C6A426F6E5F03BFBE43AFA1886F028
:104CA000E7A4F6E5F00826F6E43B08F6E43A08F651
:104CB000D0E0FBD0E0FA22E4CFC0E0E4CEC0E0E4F4
:104CC000CDC0E0E4CCC0E075F020E626F608E6337F
:104CD000F608E633F608E633F6181818EC33FCED60
:104CE00033FDEE33FEEF33FFC3EC9709ED9709EE8A
:104CF0009709EF97191919400FFFEC97FC09ED97E9
:104D0000FD09EE97FE191906D5F0BFECF709EDF78E
:104D100009EEF709EFF7191919D0E0FCD0E0FDD042
:104D2000E0FED0E0FF22124D91181818124CB71275
:104D30004D7D19191922124D7D191919080808E617
:104D400018181820E7E0124CB7124D9118181822C5
:104D5000090909E719191920E7DC080808E61818F5
:104D60001820E703024CB7124D91181818124CB7CF
:104D7000124D91181818124D7D19191922E4C39774
:104D8000F709E497F709E497F709E497F722181869
:104D900018E4C396F608E496F608E496F608E49656
:104DA000F6226017080808C6A2E713C618C613C67D
:104DB00018C613C618C613C6D5E0E922601608083F
:104DC00008C6C313C618C613C618C613C618C6131A
:104DD000C6D5E0EA227009080808226016181818DB
:104DE000C6C333C608C633C608C633C608C633C6EC
:104DF000D5E0EA22E627F60809E637F60809E6379D
:104E0000F60809E637F622E026F608A3E036F608AB
:104E1000A3E036F608A3E036F622E026F008A3E089
:104E200036F008A3E036F008A3E036F022C3E69798
:104E3000F60809E697F60809E697F60809E697F6F0
:104E400022C3E0C696F608A3E0C696F608A3E0C61D
:104E500096F608A3E0C696F622C3E096F008A3E013
:104E600096F008A3E096F008A3E096F022E056F64C
:104E700008A3E056F608A3E056F608A3E056F6228B
:104E8000E056F008A3E056F008A3E056F008A3E0CF
:104E900056F022E647F60809E647F60809E647F61F
:104EA0000809E647F622E046F008A3E046F008A32A
:104EB000E046F008A3E046F022E066F008A3E066D2
:104EC000F008A3E066F008A3E066F022E0F608A38D
:104ED000E0F608A3E0F608A3E0F622E6F008A3E671
:104EE000F008A3E6F008A3E6F022E0FAA3E0FBA3B3
:104EF000E0FCA3E0FD22EAF0A3EBF0A3ECF0A3EDCD
:104F0000F022E0FCA3E0FDA3E0FEA3E0FF22ECF032
:104F1000A3EDF0A3EEF0A3EFF022E0F8A3E0F9A3F5
:104F2000E0FAA3E0FB22E8F0A3E9F0A3EAF0A3EBA8
:104F3000F022CAC0E0E6F0A308DAFAD0E0FA22CA0A
:104F4000C0E0E0A3C582CCC582C583CDC583F0A3F4
:104F5000C582CCC582C583CDC583DAE6D0E0CA223E
:104F6000C3E498F8E499F9124FA18026C3E49AFAB1
:104F7000E49BFBE920E7E9124FA1E498F8E499F9F2
:104F800022C3E498F8E499F9124FA1E498F8E4995F
:104F9000F9C3E49AFAE49BFB22EB20E7CFE920E790
:104FA000E0B90010BB0008E88AF084F8AAF022E417
:104FB000FBC8FA22EB70227B10C833C8C933C9334F
:104FC0005007C39AC3DBF280069A50012ADBEAC875
:104FD00033F4C8C933F4C9FA2275F008E4C833C8F9
:104FE000C933C933C99AC99B5004C92AC93BD5F0F2
:104FF000ECFBC833F4C8E4C9FA22600D08C6A2E786
:1050000013C618C613C6D5E0F322600C08C6C31336
:10501000C618C613C6D5E0F422700422600D18C667
:10502000C333C608C633C6D5E0F41822254110AFF5
:1050300008F541400C15428008F54140021542D266
:10504000AF2200C0D0254110AF08F541500C0542F9
:105050008008F54150020542D2AFD0D0222541F55B
:105060008210AF08F541400C15428008F54140021E
:105070001542D2AF854283222541F582E43542F5BF
:1050800083222541F8E43542F9222541FAE43542EC
:10509000FB222541FCE43542FD22E4732541C58213
:1050A000C0E0E54234FFC583C0E0E541C3958224FA
:1050B000F810AF0885834285824180088583428548
:1050C0008241D2AFCEF0A3E520F0A37821E608F02C
:1050D000A3DEFAEFF0A3E58124FAF8E608F0A3E6F0
:1050E00008F0A3E608F0A30808E608F0A3E608F035
:1050F000A315811581D0E0FED0E0F815811581154A
:1051000081E8C0E0EEC0E0222541C582C0E0E54272
:1051100034FFC583C0E0E541C3958224F910AF0890
:105120008583428582418008858342858241D2AF52
:10513000CEF0A3E520F0A37821E608F0A3DEFAEF95
:10514000F0A3E58124FBF8E608F0A3E608F0A30845
:1051500008E608F0A3E608F0A315811581D0E0FE6B
:10516000D0E0F815811581E8C0E0EEC0E02285426C
:1051700083854182E0A3FEE0A3F5207821E0A3F639
:1051800008DFFAE0A3FFE0A3C0E0E0A3C0E0E0A3F3
:10519000C0E0E0A3C0E0E0A3C0E010AF088582411A
:1051A0008583428008858241858342D2AFD083D0F7
:1051B000820243B0854283854182E0A3FEE0A3F5ED
:1051C000207821E0A3F608DFFAE0A3FFE0A3C0E027
:1051D000E0A3C0E0E0A3C0E0E0A3C0E010AF08851A
:1051E00082418583428008858241858342D2AFD047
:1051F00083D08222C0D02541C582C0E0E54234FF81
:10520000C583C0E0E541C3958224F310AF088583D0
:10521000428582418008858342858241D2AFC8F0B1
:10522000A3E9F0A3EAF0A3EBF0A37921E709F0A347
:10523000D8FAECF0A3EDF0A3EEF0A3EFF0A3D0E0EA
:10524000F0A3D0E0F0A3D0E0F0A3E520F0A3E5F0D8
:10525000F0A322854283854182E0C0E0A3E0F9A368
:10526000E0FAA3E0FBA37821E0F608A3DFFAE0FC74
:10527000A3E0FDA3E0FEA3E0FFA3E0C0E0A3E0C045
:10528000E0A3E0F5D0A3E0F520A3E0A3F5F010AF94
:10529000088583428582418008858342858241D288
:1052A000AFD082D083D0E0F8D0E0327404800674AE
:1052B0000280027401C0E0F40412505DD0E0124F8D
:1052C00032227404800474028000CCC0E0EDC0E09F
:1052D000E541C39CCCAD4250011D10AF068C418D01
:1052E0004280068C418D42D2AF124F3FD0E0FDD0BC
:1052F000E0FC22D083D082C5F0E493A3C5F0C3952F
:10530000F0F5F0E493A3C395F04005E5F0048001C7
:10531000E475F002A42582F582E5F03583F583E497
:1053200093A3C0E0E493C0E022D083D082E9C0E040
:10533000E493A3C386F0C5F095F0F908E493A3863F
:10534000F0C5F095F0700BE493A3C3994005E90410
:105350008002A3E475F002A42582F582E5F035838E
:10536000F583D0E0F9E493A3C0E0E493C0E022D059
:1053700083D082E9C0E0E493A3C386F0C5F095F042
:10538000F908E493A386F0C5F095F0702408E4933F
:10539000A386F0C5F095F0701908E493A386F0C5D4
:1053A000F095F0700E08E493A3C3994007E90480D8
:1053B00004A3A3A3E475F002A42582F582E5F035E9
:1053C00083F583D0E0F9E493A3C0E0E493C0E02246
:1053D000D083D082CCC0E0E493A360061253FA14C9
:1053E00070FAE493A360061254191470FAD0E0FC2A
:1053F000E493A3C0E0E493C0E022C0E0E493A3D32D
:105400009C5010E493A3C39C400AD0E0D0E0D0E0CD
:105410000253EDA3A3A3D0E022C0E0E493A36C70F9
:1054200009D0E0D0E0D0E00253EDA3A3D0E022D039
:1054300083D082ECC0E0EDC0E0E493A3FCE493A34E
:10544000FDED4C600D12547BEC24FFFCED34FFFDB0
:1054500080EFE493A3FCE493A3FDED4C600D1254A4
:10546000BAEC24FFFCED34FFFD80EFD0E0FDD0E08E
:10547000FCE493A3C0E0E493C0E022C0E0C3E49363
:1054800096087401939618400FE4936670080874A8
:105490000193661870007019A3A3C3E4939608746F
:1054A00001939618A3A3400DD0E0D0E0D0E00254C1
:1054B0006BA3A3A3A3A3A3D0E022C0E0C0F088F015
:1054C000E4936670080874019366187000A8F0A34E
:1054D000A3700BD0F0D0E0D0E0D0E002546BA3A3D7
:1054E000D0F0D0E022FFFFFFC0E074EF1251F4A231
:1054F000AFE433FFD2AFA889E5AB58F5216049F49A
:10550000F589C2C590085E7401F07E00EEF5237542
:105510002400740278231250191255C7E9FBEA4B94
:10552000701F1255BBB800028004C313D8FCA2E060
:10553000500F752300752402EE782312501912556E
:10554000AE0EEEC3940440C4EFA2E092AF7F04021B
:105550005253C0E074EF1251F4A2AFE433FFD2AF64
:10556000A88AE58D58F5216043F4F58AC2EB7E00E8
:10557000EEF523752400740278231250191255C7D2
:1055800074406A49701F1255BBB800028004C313EF
:10559000D8FCA2E0500F752300752402EE78231288
:1055A00050191255AE0EEEC3940440C4809AAA233B
:1055B000AB24900280E0F91271B322E81313135464
:1055C0001F5407F8E52122740F2523F5827409354D
:1055D00024F583E0F8A3E0F9E854C0FA22C0E074AF
:1055E000EF1251F4A2AFE433FFD2AFA88BE5AC5871
:1055F000F5216043F4F58BC2E87E00EEF5237524B7
:1056000000740278231250191255C774806A4970C9
:105610001F1255BBB800028004C313D8FCA2E0508F
:105620000F752300752402EE78231250191255AE1F
:105630000EEEC3940440C402554874F6125108EAB1
:10564000FEEBFF8C218D22EA2434F8E43FF9E8FCDC
:10565000E9FDEA24351259E1FAEE24371259E1F84E
:105660008521F0A4C885F0238522F0A42523F9EA3A
:1056700028F8E439F97A257B00124FA1EA8C828D53
:1056800083F0FA131313541F1259D5245DF582E4E5
:1056900039F583E0C0E074075AF8D0E0B800028022
:1056A00004C313D8FCA2E0EE50082434F582E43F92
:1056B000801424361259E1F5F0EA84A8F01259D684
:1056C0002438F582E439F583E0F97F030251B4749C
:1056D000F7125108EAFEEBFFEA24341259E1C0E068
:1056E000EA2435F582E43FF583D0E0F08A828B83AB
:1056F000A3A3A3A3A3A3A3C082C0838A828B83A3F3
:10570000A3A3A3A3E0F8A3E0F9D083D082E0C398D9
:10571000F521A3E099F522EA24801259E164017091
:105720003EEA2481F582E43FF583C082C0838A8209
:105730008B83A3A3A3A3A3E0240108A3E03400F96F
:10574000D083D082E0687003A3E06970127C9F7DF3
:1057500005126BCBEE2480F582E43FF583E4F0ACD8
:1057600021AD22EEFAEFFB12563AE9F912615E7FA3
:10577000020251B4C082C083854182854283E0F831
:10578000A3E0F9C3EA9CEB9D5010C3EC98ED99405F
:105790001BC3EA98EB995014800EC3EA98EB99402A
:1057A00007C3EC98ED994004790180027900D08319
:1057B000D08222EAC39CFAEB9DFB2274EF125108BF
:1057C00090045FE064086005E06407702A9061C897
:1057D000E0602490048DE0F4601DE0F875F010A402
:1057E000C8AAF02AF9748F28FE740439FF8E82F556
:1057F00083A3A3A3E070030258D4906060E0C0E0EC
:10580000EE2468F582E43FF583D0E0F0752510754D
:105810002606752100752200E5D914F523E5D95433
:1058200003F527602F74036527601DE5236008EEEC
:1058300024671259E1601D90060BE06401602C1290
:1058400059DE6012780480101259DE602CE523C303
:105850009405502580637800E523C398FA95E0FB12
:10586000126A818A218B22EA4B7005126DE78064EF
:105870001259DE70048A258B26E523601285258265
:10588000852683F524E5D9F0A31524E52470F612C6
:1058900059DE604574FC2523F52378251252AFAC00
:1058A00023A927EEFAEFFB126C857402125042E92D
:1058B0007027AA21AB221271E9793D8E828F83A3D2
:1058C000A3A3A3E0FA7B001268F5EEFAEFFB126BDC
:1058D000EF126C9779000259D0740365276053E585
:1058E00023F529752A0078291252AFAC25AD26AAD6
:1058F00021AB22126C497402125042EE24681259F4
:10590000E164807004747F8001E0F52578251252EF
:10591000B3E527F52578251252B3A923AC21AD2292
:1059200090048DE0FA7B001268CB740212504202A0
:1059300059CB852582852683E0C3940E5011E0F86B
:1059400074EB28F582E43485F583E065236069858E
:105950002582852683E0C0E0EE24F7F582E43FF55A
:1059600083D0E0F0A2AFE433FCC2AF7A0080010A3A
:10597000EE246E1259E1F8EAC3985013EA1259D591
:10598000246AF582E439F583E0640770E28022EE50
:10599000246EF8E43FF9E0FAEE2AFAE43FFBEA2449
:1059A0006AF582E43BF5837407F088828983E0041A
:1059B000F0ECA2E092AF801390045FE06408600B0B
:1059C000AC25AD26EEFAEFFB126D0F126DF37901E7
:1059D0007F0A0251B4F8EE28F8E43FF9E822EE24F9
:1059E00084F582E43FF583E02274F112510874FCDF
:1059F00012502CEAFEEBFF8922752600A2AFE43399
:105A0000F521C2AF9005A7E0FA9061D0E0F874806C
:105A100098F895E0F9C3EA98E499A2D265D03340AA
:105A200003025AD3752601025AD3E0601B78231271
:105A300052AFAC27A928EEFAEFFB126C7F7402126A
:105A4000504274042527F52774012527F5D98528A8
:105A5000D9E5276012852382852483F525E0F5D9D1
:105A6000A31525E52570F675E195EE2463F8E43F6E
:105A7000F97A007B00A2AFE433F523C2AF888289B4
:105A800083E0FCA3E0FDEC4D603A88828983E0FA74
:105A9000A3E0FB8C82F583E0FCA3E0FD8882898390
:105AA000ECF0A3EDF08A828B83E4F0A3F088828986
:105AB00083E0FCA3E0FDEC4D700A88828983A3A3F8
:105AC000E4F0A3F0E523A2E092AF1271E99005A6FD
:105AD000E004F0EE24631259E1F8A3E0F9E849602C
:105AE00063EE24631259E12402F8A3E034008882B3
:105AF000F583E5822402F523E43583F524E0F527D8
:105B0000A3E0F528EE24621259E164017036906139
:105B1000D0E0F81259DE60047C0480027C007480BE
:105B2000C398FA95E0FBE5272CF8E43400F9E82463
:105B300002F8500109C3EA98EB99A2D265D033402C
:105B400003025A2A9061D0E0F87480C3989005A7A8
:105B5000F0E52660539005A6E0604D9005A8E0F8BA
:105B60009005A6E0C398500C74026522703A900527
:105B7000A9E060348E828F83A3A3A3A3E085418232
:105B8000854283125BB87402125078E8125BB890B9
:105B900005A5E028F07402125092AA41AB427901A7
:105BA0001269199005A6E4F0E521A2E092AF740411
:105BB0001250427F080251B4F0A3E4F09005A6E031
:105BC000F822FFFF8550878551C622C0E074EB1292
:105BD00051F4A2AFE433F521C2AF759B009061820E
:105BE000E0A2E0502DE591A2E050277591FE7401EE
:105BF0006550701E125D42125D591252C2125F0D45
:105C00007404125042E9640170057901126D8D121D
:105C100057BB906182E0A2E5505AE591A2E550544D
:105C20007591DF90045FE064076005E06408702C04
:105C3000125D4274016550703B125D591252C212DE
:105C40005F0D7404125042E9640170057901126D10
:105C50008D7901EEFAEFFB1259E98018E0640D70BE
:105C600013900481E004F064287002E4F07A00E00C
:105C7000F9126DF9906182E0A2E64003025D17E53A
:105C800091A2E64003025D177591BF90045FE06446
:105C9000057008126D39126D458003126D3F755005
:105CA00000126D99E9900460F07900126D8D126B0D
:105CB000417A017B0090045EE0F91271B3907803A1
:105CC000E06442705290060FE014F0704AC2AF12C6
:105CD0005CD2007859D0E0F618D0E0F6E59F540782
:105CE00070047BFF80027B7FC4C0E07858E6F52318
:105CF00008E65BF524740B782312500AD0E02523C4
:105D0000F8906270E0A2E740F8E8C333906272F066
:105D1000906270E0D2E0F0906181E0A2E35009E58A
:105D2000E9A2E3500375E9F7A3E0A2E75009E59182
:105D3000A2E7500375917FE521A2E092AF7F0802B0
:105D4000525390048DE0F875F010A4C8AAF02AF917
:105D5000748F28FE740439FF22126D518E828F8356
:105D6000E0F8A3E0C82416F582E438F58322C0E009
:105D7000C0D0C082C083906183E0A2E05009E5BF3B
:105D8000A2E0500375BFFEE0A2E15009E5BFA2E129
:105D9000500375BFFDE0A2E25009E5BFA2E2500347
:105DA00075BFFBE0A2E35009E5BFA2E3500375BF56
:105DB000F7E0A2E45009E5BFA2E4500375BFEFE0AD
:105DC000A2E55009E5BFA2E5500375BFDFE0A2E6FA
:105DD0005009E5BFA2E6500375BFBFD083D082D083
:105DE000D0D0E032C0E074F21251F4E5A7A2E65040
:105DF0000FE5A1A2E6500953A7BF75A1BF125E38F7
:105E0000E5A7A2E5500CE5A1A2E5500653A7DF7572
:105E1000A1DFE5A7A2E15009E5A1A2E1500375A128
:105E2000FDE5A7A2E2500CE5A1A2E2500653A7FBB4
:105E300075A1FB7F0102525374F71251087550018E
:105E400090045FE064067015126CBB8A828B83A39A
:105E5000A3A3A3A3A3E0FAA3E0FB126D27A2AFE4E0
:105E600033FED2AF900465E0640170187A207B00A5
:105E700090045EE0F91272CD7A207B0090045EE01F
:105E8000F91271B9906182E0D2E6F090060CE06000
:105E90002185C6518016900464E064017008E5C64F
:105EA00054F84405F5C653BEFC125BC4740165503A
:105EB00060E4EEA2E092AF7F020251B48E528F53A3
:105EC000858257858356854182854283E0CEA3E053
:105ED000CF855782855683EBC9EAC8EDCBECCA75EE
:105EE000F010C3E833C8E933C9EA33CAEB33CBC394
:105EF000EA9EF555EB9FF554B35004AB54AA55EC0C
:105F000033CCED33CDD5F0DAAE52AF532274F1126B
:105F100051088A218B228C238D249086F2782112BD
:105F20004E6D740F1250787825124ECC9086F27810
:105F300025124E6D7821792512442D90872A501014
:105F400078217925124E2D782112444D4014800E6F
:105F500078257921124E2D782512444D500479016F
:105F6000800279007F080251B474ED1251088A2131
:105F70008B228C238D249086F27821124E6D74131F
:105F80001250787825124ECC9086F27825124E6DFC
:105F90007825792112442D401178217925124E2D32
:105FA000AA21AB22AC23AD248022752900752A00DA
:105FB000752B00752C0178297925124E2D782979B9
:105FC00021124DF4AA29AB2AAC2BAD2C7F0C025127
:105FD000B49086F27821124ECC8A828B837821127B
:105FE0004E807F040251B474F51251088C828D8367
:105FF0007821124ECC8A828B837821124E591260FE
:106000003FC3E09CF0A3E09D12603140229086FEE9
:106010007821124ECC8A828B837821124E1A8A8282
:106020008B83A3A3A3A3E02420F0A3E0344EF0804D
:10603000A0F088828983C3E09420A3E0944E22EAF2
:106040002404F8E43BF98C828D83A3A3A3A3E0FC92
:10605000A3E0FD888289832274F51251089005C25D
:10606000E0FAA3E0FBE929F8E433F9746128F5824A
:10607000748539F583E02AF521A3E03BF5227821E8
:106080001252AF9086CE124EEA125EBC74021250CB
:10609000428A218B228C238D2474107821124DBCCE
:1060A000AA21AB227F040251B474F11251088A254F
:1060B0008B268C278D2874111250781252C67411B9
:1060C000125078E02401F521A3E03400F522E4F534
:1060D00023F52478257921124C37908736782112C0
:1060E0004ECC78257921124C37AA25AB26AC27ADAA
:1060F00028125EBC7402125042EA4B60047A01809E
:10610000027A00EC2AFCE43DFD7413125078E0F8AA
:10611000A3E0F9E8FEE9FFECF8EDF97A717B0212F1
:106120004FA188218922E4F523F5248E828F83787C
:1061300021124EDBECF8EDF97A717B02124FA18A45
:10614000218B22740578211250198E828F83A3A38C
:10615000A3A3E521F0A3E522F07F080251B4C08299
:10616000C083E9906000F0D083D08222C0E074F256
:106170001251F4A2AFE433FED2AFC2C0E5D1A2E423
:10618000500675D10F1270B1EEA2E092AF7F0102FE
:106190005253C0E0C0D0E8C0E0A8A8D2AFC2C7E860
:1061A000A2E792AFD0E0F8D0D0D0E032C0E0C0D0CB
:1061B000E8C0E0E9C0E0EAC0E0EBC0E0C082C08334
:1061C000A2AFE433F9D2AF9008C1E0F8A3E0687061
:1061D00008539AFBA374018022C2E99008C1E0F839
:1061E000740128F074A128F582E43408F583E0F501
:1061F000C19008C1E0C394204002E4F0E9A2E0921B
:10620000AFD083D082D0E0FBD0E0FAD0E0F9D0E08C
:10621000F8D0D0D0E032C0E0C0D0E8C0E0E9C0E0C3
:10622000EAC0E0EBC0E0C082C083A2AFE433F9D2A1
:10623000AFA8F99008E7E0FA74C62AF582E43408BA
:10624000F583E8F09008E6E0F8A3E0687006E595CD
:106250009008E9F09008E7E004F0C394204002E4DD
:10626000F0A3E4F08096C0E0C0D0E8C0E0E9C0E070
:10627000EAC0E0EBC0E0C082C083A2AFE433F9D251
:10628000AF90090AE0F8A3E0687008539AF7A37486
:10629000018022C2EA90090AE0F8740128F074EA49
:1062A00028F582E43408F583E0F5F990090AE0C3A3
:1062B00094204002E4F00261FCC2AF02000022120E
:1062C00043B386B4031243B3A0B5031243B304BA75
:1062D000031243B37FBA031243B391BA031243B319
:1062E00094BA031243B376BB031243B3FFBB03124A
:1062F00043B387BC031243B353BC021243B330BD54
:10630000021243B358BF021243B3FBBF021243B39E
:106310007CC0021243B326C2021243B345C3021229
:1063200043B39DC3021243B396C4021243B351C593
:10633000021243B32AC6021243B38EC6021243B3FB
:106340004BCA021243B3E6CA021243B300800112E1
:1063500043B31C80011243B3F381011243B3E082C3
:10636000011243B34983011243B38D83011243B336
:10637000BD83011243B31085011243B38C85011212
:1063800043B30286011243B38686011243B3958755
:10639000011243B32788011243B34C8A011243B35D
:1063A000AF93011243B3FA93011243B31A9401124B
:1063B00043B37094011243B39D94011243B37BB86D
:1063C000011243B373BA011243B3BEBA011243B30D
:1063D000EABA011243B3E2BB011243B34FBD01124B
:1063E00043B32DC0011243B36AC0011243B345C881
:1063F000011243B32CC9011243B370C9011243B354
:10640000BBCA011243B31BCC011243B370CC0112BF
:1064100043B316CD011243B361AC041243B374AC61
:10642000041243B3A3AC041243B3DBAC041243B372
:1064300024AD041243B367AD041243B3ADAD0412EF
:1064400043B3E0AD041243B307AE041243B336AE18
:10645000041243B36DAE041243B386AE041243B3C9
:10646000D5AE041243B3EEAE041243B336AF0412FA
:1064700043B36AAF041243B389BD031243B387BE6B
:10648000031243B3EDBE031243B310BF031243B371
:1064900012BF031243B350BF031243B3C1BF031271
:1064A00043B381C0031243B3A3C0031243B33FC13C
:1064B000031243B376C1031243B3BBC1031243B308
:1064C000C8C1031243B338C2031243B382C20312DA
:1064D00043B385C2031243B3CBC2031243B3CEC24C
:1064E000031243B3D8C2031243B34BC3031243B3E3
:1064F00073C3031243B3A6C3031243B3CAC3031245
:1065000043B3C7C4031243B36BC5031243B3D7C528
:10651000031243B313C6031243B3C79C041243B31D
:10652000EF9C041243B31C9D041243B3549D041208
:1065300043B3BA9D041243B3049E041243B3689E4E
:10654000041243B3B09E041243B3ED9E041243B34E
:106550001B9F041243B3B09F041243B3BA9F0412AB
:1065600043B3C79F041243B3FA9F041243B306A078
:10657000041243B31EA0041243B328A0041243B371
:10658000CE9C051243B3E69C051243B3FD9C051255
:1065900043B36DE7021243B310E8021243B34BE971
:1065A000021243B3F4E9021243B37CEB021243B389
:1065B00064EC021243B35BED021243B391ED02129D
:1065C00043B333EE021243B359EE021243B325F044
:1065D000021243B36BF0021243B38DF0021243B3C5
:1065E000F9F0021243B3C4F1021243B37EF2021275
:1065F00043B38AF4021243B352DD031243B32EDED7
:10660000031243B3D8DE031243B319DF031243B3BB
:10661000A0DF031243B31BE0031243B3EEE0031207
:1066200043B317E1031243B30BE2031243B348E24F
:10663000031243B330E3031243B361E3031243B3E2
:1066400087E3031243B38EFE031243B3B9FE031272
:1066500043B3C9FF031243B386A8041243B39CA8F3
:10666000041243B3BAA8041243B3CAA9041243B331
:10667000D4A9041243B3FEAA041243B3EBAB041231
:1066800043B357AC041243B3F8E9031243B325EB09
:10669000031243B35CEB031243B3B3EB031243B3F4
:1066A000ABED031243B386ED011243B30DEE0112BD
:1066B00043B361EF011243B3E8EF011243B3F4EFC8
:1066C000011243B36CF0011243B354F1011243B30E
:1066D00050F2011243B31CF3011243B376F40112DA
:1066E00043B38CF4011243B3ADF4011243B33FF54D
:1066F000011243B3B5F5011243B3DBF5011243B305
:1067000088F8011243B38DF8011243B3B1FA0112B4
:1067100043B3F8FA011243B35EFB011243B3A4FB87
:10672000011243B374FC011243B329FD011243B3B8
:1067300085FD011243B388FD011243B3D4FD01125C
:1067400043B310FE011243B34FFE011243B371FE77
:10675000011243B3A5FE011243B313FF011243B369
:10676000DAF4031243B3E8F4031243B338F5031227
:1067700043B357F5031243B3A1F5031243B3E4F651
:10678000031243B37CF7031243B3C0F7031243B3BE
:10679000EAF7031243B355F8031243B399F803120F
:1067A00043B31CF9031243B3CBF9031243B318CE1E
:1067B000011243B3B2CE011243B30ECF011243B361
:1067C000CCCF011243B354D0011243B377D101129D
:1067D00043B3A7D1011243B3D6D1011243B38CD333
:1067E000011243B3DFD5011243B33ED8011243B3C4
:1067F00027D9011243B317DA011243B3EADB0112BE
:1068000043B3E2DE011243B3FFDF011243B3F9E108
:10681000011243B308E3011243B397E4011243B3F7
:1068200083E5011243B3D2E5011243B342E60112FC
:1068300043B35EE6011243B3AFE6011243B34FEB3D
:10684000011243B365EC011243B31DED011243B3D2
:106850008E87041243B39887041243B3E08704126F
:1068600043B3F487041243B38588041243B3BC884E
:10687000041243B3F788041243B32089041243B3CC
:106880007489041243B38989041243B3AB89041297
:1068900043B3C089041243B3FA89041243B3268A6E
:1068A000041243B36F8A041243B3E58A041243B35C
:1068B000108B041243B33B8B041243B37E8B041240
:1068C00043B3A88B041243B3D38B041243B3B19ADE
:1068D000051243B32D97031243B30698031243B333
:1068E0007598031243B3B098031243B3EB990312A4
:1068F00043B39D9A031243B34A9D031243B3F59DDC
:10690000031243B3D69E031243B34CA0031243B306
:10691000B4A0031243B35890041243B3C3910412BA
:1069200043B30194041243B3658D051243B3128E31
:10693000051243B30B8F051243B3488F051243B3BF
:106940004B93051243B3AA93051243B34794051220
:1069500043B37A94051243B3A894051243B3E39466
:10696000051243B30395051243B3DDF9031243B394
:1069700066FA031243B325FB031243B333FC03123D
:1069800043B353FE031243B3BD8B031243B3D28B05
:10699000031243B39D8C031243B36A8D031243B3B6
:1069A000D78D031243B3128E031243B3B38E031277
:1069B00043B3BC8F031243B39490031243B31791B4
:1069C000031243B3A091031243B30992031243B3DA
:1069D0009392031243B3E092031243B34E93031214
:1069E00043B3F093031243B39E94031243B3BE9494
:1069F000031243B30295031243B34A95031243B300
:106A00006695031243B38595031243B3FF950312B2
:106A100043B30D96031243B3A096031243B30A97F0
:106A2000031243B39E94041243B31A95041243B362
:106A30005895041243B33C96041243B3AB96041228
:106A400043B3EF96041243B33297041243B35F97F4
:106A5000041243B37D97041243B3B597041243B3B2
:106A6000F297041243B31398041243B389980412A3
:106A700043B313AC021243B3A7AD021243B3E5AF65
:106A8000021243B32DB0021243B358B0021243B303
:106A90004EB1021243B37EB1021243B3D5B102121A
:106AA00043B302B2021243B34BB2021243B387B2F2
:106AB000021243B3CCB2021243B319B3021243B36E
:106AC00081B3021243B3B3B5021243B37AB70212D1
:106AD00043B3B5B7021243B333B9021243B377B924
:106AE000021243B3EAB9021243B34BBA021243B3E0
:106AF000D3BA021243B3FCBA021243B31EBB021252
:106B000043B33DBC021243B34EBC021243B359A17E
:106B1000031243B3CAA1031243B393A7031243B3AF
:106B20008DA8031243B34FAA031243B3CDAA031295
:106B300043B30080021243B38780021243B3B48090
:106B4000021243B3F680021243B3F281021243B33E
:106B50003782021243B3B383021243B33B8402125F
:106B600043B3AE84021243B36B85021243B327864C
:106B7000021243B3A786021243B37587021243B3CE
:106B80009B87021243B30D88021243B3B1880212ED
:106B900043B3D688021243B34289021243B3A88991
:106BA000021243B3DE89021243B3828A021243B354
:106BB0001B8B021243B39E8B021243B30A8C021248
:106BC00043B3568C021243B3BC8C021243B3ED8C18
:106BD000021243B3A18D021243B3B78E021243B324
:106BE000008F021243B31D8F021243B3FD940212B1
:106BF00043B34595021243B33296021243B35796FC
:106C0000021243B36C96021243B3D496021243B3FA
:106C10001497021243B32798021243B3D498021276
:106C200043B3F6AA031243B341AB031243B34DABD4
:106C3000031243B318AC031243B32EAC031243B395
:106C40006AAC031243B3A3AC031243B3DBAC03122D
:106C500043B331AD031243B347AD031243B383AD26
:106C6000031243B396AD031243B3BDAD031243B356
:106C7000F1AD031243B3C5AE031243B354B00312D4
:106C800043B350B1031243B359B2031243B3EC7F81
:106C9000001243B31ACB021243B355CB021243B3D3
:106CA00059CE021243B3ABCF021243B370D00212DB
:106CB00043B36AD3021243B354D4021243B39FD4F2
:106CC000021243B3B9D4021243B3F6D4021243B34F
:106CD00001D5021243B340D5021243B349D5021283
:106CE00043B30AD6021243B3C7D6021243B32AD71C
:106CF000021243B38ED7021243B30FD8021243B32A
:106D00000699021243B3629C021243B3689C0212BA
:106D100043B3A9A3021243B381A8021243B3008074
:106D2000051243B3CA80051243B30E81051243B363
:106D30004881051243B3DA81051243B34982051233
:106D400043B35282051243B35E82051243B372828B
:106D5000051243B39682051243B3C682051243B3AC
:106D6000CB85051243B3D885051243B3F2850512CE
:106D700043B32586051243B36286051243B3C88622
:106D8000051243B3DD86051243B3E886051243B30B
:106D9000F586051243B30C87051243B31A87051213
:106DA00043B32587051243B33187051243B34087A8
:106DB000051243B34B87051243B36B87051243B3E8
:106DC0007B87051243B39187051243B3AF87051242
:106DD00043B3BA87051243B3CF87051243B3E387A2
:106DE000051243B34488051243B34A88051243B3DE
:106DF0005088051243B35688051243B368880512BC
:106E000043B37973001243B30774001243B3E374BE
:106E1000001243B31775001243B32A75001243B32F
:106E2000A475001243B32C77001243B353770012BA
:106E300043B3DA77001243B31978001243B32A78C8
:106E4000001243B39F78001243B3BE78001243B3DD
:106E5000D678001243B31A7A001243B3247C00128E
:106E600043B3567E001243B35C7F001243B39F7F4F
:106E7000001243B32C80031243B33680031243B392
:106E80005880031243B36480031243B3B1810312E9
:106E900043B3DE81031243B3FF82031243B3418342
:106EA000031243B38784031243B3E884031243B34A
:106EB0001D85031243B35685031243B301890312A0
:106EC00043B31889031243B39689031243B3A489C9
:106ED000031243B3ED89031243B3FB89031243B397
:106EE0007C8A031243B3EB8A031243B3378B03123A
:106EF00043B397F4021243B3B9F4021243B395F6C5
:106F0000021243B30DFA021243B357FB021243B30A
:106F100039FC021243B31195051243B3369505129D
:106F200043B3A795051243B3FCD5031243B305D66B
:106F3000031243B30ED6031243B332D7031243B343
:106F400023D9031243B351D9031243B37CD903129B
:106F500043B3AAD9031243B3D5D9031243B313DA07
:106F6000031243B33FDA031243B37CDA031243B391
:106F7000A7DA031243B3F3DA031243B34ADB031273
:106F800043B38ADB031243B3D9DB031243B304DCFC
:106F9000031243B34ADC031243B378DC031243B356
:106FA000A3DC031243B3C6DC031243B3D2AF041213
:106FB00043B3DCAF041243B3ECAF041243B35E91AE
:106FC000051243B38591051243B3B091051243B343
:106FD000F99E051243B3FB8B041243B34B8C04128E
:106FE00043B3858D041243B3F48D041243B3988EDA
:106FF000041243B3B78E041243B3058F041243B394
:10700000478F041243B3E5FF021243B37CFF021221
:1070100043B38CFF021243B398FF021243B3DCFF69
:10702000021243B3C59B051243B3489C051243B3F8
:10703000AE9C051243B3F7E3031243B387E4031294
:1070400043B3FBE4031243B309E5031243B39AE5E8
:10705000031243B313E6031243B367E6031243B3C9
:107060007CE6031243B30BE7031243B315E70312A5
:1070700043B3B3E7031243B339E8031243B345E81C
:10708000031243B35DE8031243B37AE8031243B338
:1070900092E8031243B3EEE8031243B30DE903127F
:1070A00043B310E9031243B373E9031243B3B7E9DF
:1070B000031243B3F5E9031243B3899F051243B3A7
:1070C0009B9F051243B35ACE031243B323CF03123F
:1070D00043B348CF031243B35FCF031243B36ACF26
:1070E000031243B3B4CF031243B3C2CF031243B36B
:1070F000EACF031243B367D0031243B38BD003121A
:1071000043B3F2D0031243B33BD1031243B37DD157
:10711000031243B3A6D1031243B3C8D1031243B33E
:10712000E5D1031243B302D2031243B305D20312D3
:1071300043B37FD2031243B3F4D3031243B380D4D7
:10714000031243B3C7D4031243B300D5031243B3AE
:1071500041D5031243B3CBD5031243B398EF0312C7
:1071600043B3A2EF031243B3E2EF031243B32BF096
:10717000031243B363F0031243B3B9F0031243B3F2
:10718000D6F0031243B3DFF0031243B324F103122A
:1071900043B34DF1031243B362F1031243B3D2F18F
:1071A000031243B35FF2031243B3B3F2031243B3C8
:1071B000D6F2031243B355F3031243B390F3031211
:1071C00043B3C5F3031243B3D7F3031243B3F3F34B
:1071D000031243B3FCF3031243B3AEF4031243B3FD
:1071E000549E051243B3C296051243B3139705127A
:1071F00043B39C97051243B30698051243B39B888B
:10720000051243B3C388051243B3B889051243B3CB
:10721000DD89051243B36C8A051243B364980512E5
:1072200043B35A99051243B37499051243B3859930
:10723000051243B3628F051243B3988F051243B30F
:10724000CB8F051243B32491051243B3959D0512CC
:1072500043B39F9D051243B339C6031243B3F3C62C
:10726000031243B32EC7031243B35FC7031243B3E2
:10727000CFC7031243B325C8031243B379C803121F
:1072800043B366C9031243B35FCA031243B3E0CBEF
:10729000031243B394CC031243B3FDCC031243B3A4
:1072A00010CD031243B3F5CD031243B3D0980412AB
:1072B00043B3E698041243B38A99041243B3C999BD
:1072C000041243B3E699041243B3179A041243B36A
:1072D000649A041243B3979A041243B3D29A0412E5
:1072E00043B359D9021243B3E3DC021243B372DE53
:1072F000021243B3C2DE021243B3D9DE021243B319
:10730000F8DE021243B355DF021243B3E5E0021286
:1073100043B3B8E1021243B3EFE5021243B3D7E639
:10732000021243B3A1A4041243B39FA5041243B3B2
:1073300058A8041243B3C49F051243B3F582051243
:1073400043B39399051243B3F39D051243B3568B90
:10735000051243B3439F051243B3CDFF011243B35C
:10736000B6A0041243B3E29F05FFFFFFFFFFFFFF3C
:10737000FFFFFFFF7F0102516E74F412509C74FDF9
:1073800012502CEAFEEBFF8C218D22EA4F6004ECB8
:107390004D70047902804E7903AA41AB42126E2FE0
:1073A0007402125078E0543F4440F078211252AFFA
:1073B0007402125092EEFAEFFB126E177402125022
:1073C00042E9FE701E75230375240078231252AF24
:1073D0007402125092E5212403FAE43522127E4F02
:1073E000125042EEF974038016125078AC82AD83CD
:1073F000743E125078127721125042EEF974301216
:1074000050427F0402516E74F412509C8921127410
:10741000D870030274C7E521704B12759EE0752386
:1074200008752400782370251252AFEAFCEBFD901A
:107430000820E024021274CC12504212688FE970C6
:10744000071275987401807A75210180131252AF6A
:10745000EAFCEBFD900820E0240A1274CC125042A2
:107460001274D8605E7A127B001271838A238B2497
:10747000AE23AF24EA4F603B8A828B8374C1F0A3B2
:10748000E521F075231075240078231252AF90087F
:1074900020E02402FCA3E03400FDEA2402FAE43FE9
:1074A000127E4F125042EEFAEFFB127598A3E0F9EC
:1074B00012718F900820127C12127243900820E4FF
:1074C000F0A3F0790180027900027402FAA3E0349B
:1074D00000FB12715F740222900820E0F8A3E0F92B
:1074E000E8492274F212509C7A207B0012651D8AB2
:1074F000218B22E4F523F524EA4B60167821125201
:10750000AB7A017B00900828E0F91272C174041272
:1075100050427F0602516EC082C0837A017B009088
:107520000828E0F91272CD02782374F412509C748A
:10753000D012502C12757A1252AFAC21AD227402C7
:1075400012508A12771B125042752103752200785F
:10755000211252AFEEFCEFFD741F12507812771714
:1075600012504212757078211252AF742F0273E9D3
:10757000AA41AB42126E41E9FE228A218B22ECFE27
:10758000EDFF7C307D007900AA41AB421271777526
:107590002310752400782322900820E0F8A3E0F55A
:1075A0008388822274F212509C74B012502C8A216B
:1075B0008B22ECFEEDFF89237C307D007900742066
:1075C00012508A127177752510752600782512528F
:1075D000AFAC21AD22742212508A12771B12504296
:1075E0007C107D007900AA41AB42127177752107AA
:1075F00075220078211252AF74601250781277D43D
:10760000740212508A12771B12504278211252AF24
:1076100074621250781277D4740912507812771766
:107620001250427464125078E06004740180027455
:1076300000C0E0740E125078D0E0F0E523600478CA
:107640000180027800740F125078E8F07C107D0001
:107650007900EC12508A1271777521067821125246
:10766000AF74641250781277D4741612507812776F
:107670001712504278211252AF7467125078127765
:10768000D4741C125078127717125042752110785A
:10769000211252AFEEFCEFFD7432125078127717C0
:1076A000125042AC41AD427430125078AA82AB8382
:1076B000126E23742012508A126E41E9FF78211253
:1076C00052AF7442125078AC82AD8374321250784B
:1076D000AA82AB83127E50125042741012509274E0
:1076E00030125078AA82AB83126E23742012508A13
:1076F00012757478211252AF7442125078AC82AD78
:10770000837469125078127721125042EF4EF97447
:1077100050125042027512AA82AB83127165740234
:1077200022E0FAA3E0FB12716574022274F7125092
:107730009C78108C828D83E0F98A828B83E069F0DB
:10774000A3AA82AB838C828D83A3AC82AD83D8E362
:1077500002737474F612509C74D012502CECFEED2F
:10776000FF75211075220078211252AFEAFCEBFD63
:10777000740212508A12771B125042752108782128
:107780001252AFEEFCEFFD741212507812771712FE
:10779000504278211252AF743C1250781277D47450
:1077A0001A1250781277171250421277CD782112A0
:1077B00052AF7422125078AC82AD83743E1250786E
:1077C000127721125042EEF97430027897127570D8
:1077D00075211022E0FCA3E0FD2274F412509CEA13
:1077E000FEEBFF8922752100802512717DA821EE14
:1077F00028F582E43FF583EBF00521E521C39522CE
:10780000500D08EE28F582E43FF583EAF00521E506
:1078100021C3952240D4027402C082C0838A828B25
:1078200083E0F9D083D0820243B074F612509CE911
:10783000FEA2E25004D2F08002C2F0A2F0E433F5DE
:1078400021752200E9A2E35004D2F08002C2F08A3E
:10785000828B83E054FCFCA3E0FDEC4E54FBFC74F3
:10786000027821125019EC45215407FCA2F0E433B0
:10787000F52174037821125019EC4521FCE9C45418
:107880000FF52174047821125019EC45218A828B5E
:1078900083F0A3EDF080031250427F0202516E7418
:1078A000F612509CEA2420F521E43BF522782112BF
:1078B00052AFEA2410FCE43BFD127F3580D9C08230
:1078C000C0838541828542831252C6126A9974022E
:1078D00012504202782374E812509C74E812502C23
:1078E0008A238B2489308C218D22EA4B6004EC4D55
:1078F00070057902027A06740429F52F127C017052
:1079000003027A011265598A258B268C278D28E57A
:1079100030F529752A0078291252AFAC23AD24EE38
:107920002404FAE43FFB12771B1250428E828F83AD
:10793000A3A3A3E525F0E526F52E8E828F83A3A3CE
:10794000F0852529F52A85272B85282C7410782980
:10795000124DBCE529F52D8E828F83A3F085252954
:1079600085262AF52B85282C74187829124DBCE51C
:1079700029F5238E828F83F01265538A298B2AACD6
:1079800029AD2A752910752A0078291252AF740A78
:1079900012508A12771B125042A841A942882989A5
:1079A0002A78291252AFA92FEEFCEFFD740A12506B
:1079B0008A126E597402125042E9F524703A8521F8
:1079C00082852283E525F0A3E52E127A10E52D129B
:1079D0007A10A3E523F07525087526007825125244
:1079E000AF7402125092E5212404FAE43522FB120E
:1079F000771B12504212655FEEFAEFFB1272438062
:107A000003752413A92474181250427F1002516E7A
:107A1000F0852182852283A3A32274E812509C74EE
:107A2000DD12502C7401125078EAF0A3EB127E455F
:107A30008C2F8D30EC4D7003027AE4743C12507838
:107A4000127C187003027AE47401125078127C12CE
:107A5000126A398A2D8B2EEA4B70057914027BFC51
:107A6000852182852283E0F529E4F52AF52BF52C82
:107A7000A3E0F525E4F526F527F528740878251206
:107A80004DD578297925124DF4852182852283A34D
:107A9000A3E0F525E4F52674107825124DD5782954
:107AA0007925124DF4852182852283A3A3A3E0F5D5
:107AB00025E4F52774187825124DD57829792512F3
:107AC0004DF4EA2420F582E4352EF5837825124E14
:107AD000CC7829792512442D400F9086FE78251206
:107AE00043C860057902027BFC854182854283E0C0
:107AF00060118A828B83A3A3A3E0A2E140057901F0
:107B0000027BFC7C087D007900740312508A12719C
:107B100077743B125078E0F52474042524F5231281
:107B20007C0170057913027BFCE524F525752600A0
:107B300078251252AFAC2FAD30EA2404FAE43FFBB3
:107B400012771B12504275250478251252AFAC21D2
:107B5000AD22EEFAEFFB12771B125042752510781A
:107B6000251252AFE52D2410FCE4352EFD741512BC
:107B7000508A12771B125042740312508288258952
:107B80002678251252AFA923EEFCEFFD7415125092
:107B90008A126E597402125042E9F5237055752508
:107BA0000875260078251252AF7405125092740D94
:107BB00012508A12771B12504278251252AFE521DB
:107BC0002404FCE43522FD740D12508A1271717484
:107BD00002125042E964016005752301801578297D
:107BE0001252AB7405125078127C1212659B740409
:107BF000125042EEFAEFFB127243A9237423027A69
:107C000008FA7B0012723D8A258B26AE25AF26EA44
:107C10004F22E0FAA3E0FB22E0F521A3E0F522E504
:107C20002145222274E812509C74ED12502C7401EC
:107C3000125078ECF0A3ED127E458A2F8B307A102B
:107C40007B0012723D8A2B8B2C7A107B0012723DC6
:107C50008A298B2AE52B452C7003027E22EA4B7081
:107C600003027E2278291252AFAC2BAD2CAA2FAB87
:107C700030126E5F7402125042E9FE6003027E2AE7
:107C8000127F498A278B28E52545267003027E044A
:107C9000EA4B7003027E04854182854283E07900CD
:107CA000240FF85001097A107B00124F99E0540F0D
:107CB000FCE849700A752100752200C2F08013ECBF
:107CC0007004D2F08002C2F0E824FFF521E934FF0D
:107CD000F522E521C454F0F87401125078E028FA36
:107CE000A3E03400FBA2F0500B78271252AFAC2B6C
:107CF000AD2C804DECFF752300AC2374031250783B
:107D0000E5822CF8E43583F9ECC39F500FEA2CF59B
:107D100082E43BF583E088828983800DEF6C888262
:107D20008983700474808001E4F00523E523C39403
:107D30001040C678271252AFAC29AD2A74051250F4
:107D40008A127F431250427C107D007900AA25AB35
:107D50002612717775230075240080457403125034
:107D600082882D892E782D1252AFE523C454F0F865
:107D70007403125078E028FCA3E03400FDAA25AB80
:107D800026127F4312504278251252AF74051250CA
:107D900092127F31125042E9FE0523E5237002055D
:107DA00024C3E5239521E5249522A2D265D0335042
:107DB00003EE60A8EE705574031250828821892268
:107DC00078211252AFAC27AD28AA25AB26127F43EB
:107DD00012504278251252AF7405125092127F3120
:107DE000125042E9FE75210875220078211252AF27
:107DF000AC25AD26742D125078127C12127E5012D2
:107E0000504280087E13E52545266007AA25AB264B
:107E1000127243E52745286011AA27AB2812724346
:107E200080087E13E52B452C6007AA2BAB2C127221
:107E300043E529452A6007AA29AB2A127243EEF9C5
:107E40007413027A08F0E9854182854283F022FBAF
:107E500012715F74022274EE12509C8A218B228C64
:107E6000278D28127F498A238B24AE23AF24E52552
:107E700045267003027F0FEA4F7003027F0F7C10CC
:107E80007D00790012717778251252AFEEFCEFFD7C
:107E9000AA21AB22127F35125042E9F52370797581
:107EA0002191752285852582852683E0A2E7400DF4
:107EB000AC27AD28AA25AB26126E6B8016EEFCEF20
:107EC000FDAA25AB26126E6B78271252AF127F3BAC
:107ED0001250427412125078E0F529A3E0F52A8579
:107EE0002782852883E0A2E7400DAC29AD2AAA2786
:107EF000AB28126E6B8021EEFCEFFDAA27AB281297
:107F00006E6B78291252AF127F3B12504280097576
:107F10002313E52545266007AA25AB26127243EEFA
:107F20004F6007EEFAEFFB127243A9237F0A02515A
:107F30006EAA2FAB30126E47740222AC21AD22EE36
:107F4000FAEFFB126E657402227A107B0012723D0A
:107F50008A258B267A107B0012723D2274F612500D
:107F60009C752100740A125078E0F8A3E0F9AE2164
:107F7000EC2EF582E43DF583E0F522EA2EF582E46D
:107F80003BF583E06522C0E0E82EF582E439F58315
:107F9000D0E0F00521E521C3941040D202789A7414
:107FA000F512509C75210075220FE522F83395E0FB
:107FB000F9EA28FEEB39FF8E82F583E0C3334521D1
:107FC000C0E0EC28F582ED39F583D0E0F08E828FA9
:107FD00083E0A2E7E433F52174FF28F522C394007F
:107FE000A2D265D03350C37F0302516E0243B0FF6B
:107FF000FFFFFFFFFFFFFFFFFFFFFFFFFFFFFFFF91
:10800000C082C083854582854683E06420700A85EE
:108010004683A385824585834602838674F4125085
:108020009CA845A946AC45AD468019A3AA82AB835E
:108030008A828B83E0FE74206E60F074096E60EBC0
:10804000EAFCEBFDECFAEDFB8A82F583E075F00DBE
:1080500084AEF0EE2EFEE433FF74E12EF582741C44
:108060003FF58312CA898004ECFAEDFB8A828B8388
:10807000E0FE74276E600574226E70351281DE8A10
:10808000828B83A3AA82AB838A828B83E0FCA3AA20
:1080900082AB831281DFEE6C60A6740A6C70E9E833
:1080A00024FFF8E934FFF9EA24FFFAEB34FFFB8000
:1080B0008F740A6E701B88828983740AF002BAB9C1
:1080C0008523218524228A828B83A3AA82AB83E025
:1080D000FE852182852283A38582238583248521B1
:1080E00082852283E06E60D8E0FEC394804035C371
:1080F000E54598E5469950081281D7700318A98381
:108100001281DE852182852283E064806003028003
:1081100030852382852483E088828983F0A308A99F
:1081200083028030AA21AB228A828B83A38582219D
:108130008583228A828B83E0FAC3948040E6748030
:108140006A700D852182852283A385822185832201
:10815000852182852283E060030280688C828D8382
:108160001281EA50161281DE8C828D83A3AC82AD1F
:10817000831281EA400302804480EA88828983A3D3
:10818000AA82AB8374096E600574206E7033C3E5F8
:108190004598E5469950101281D7600B88828983F3
:1081A0007420F0EAF8EBF98C828D83A3AC82AD8366
:1081B000E0FE74206E60F074096E600302804480FB
:1081C000E6EE88828983F0EAF8EBF98C828D83A34E
:1081D000AC82AD8302804412CBF3E0642022EE88AF
:1081E000828983F0A3A882A98322E0FE74BF2EC3F4
:1081F000941A2274E812509C74FF12502CE9FE8AE3
:10820000258B268C278D28752901752A00752B0052
:10821000752C007F0A90873A7825124407401C7914
:108220002D1270D57FF6801390874A7821124ECC9C
:1082300078297921124C3774FF2E1EEFF52D3395D6
:10824000E0F52EF52FF5308525218526228527237B
:108250008528247821792D124D50782979211243CF
:10826000DD50C5EE854182854283F014FEE0C39463
:1082700001A2D265D033400779201270D580E4EF97
:10828000C312B538504B7829124D91804485252D65
:1082900085262E85272F852830852921852A228528
:1082A0002B23852C24782D7921124D50E52D243057
:1082B000F91270D5782D7929124C377825792D123D
:1082C0004E2D90874A7821124ECC78297921124D73
:1082D00050E529452A452B452C70B2740102C72E62
:1082E000C082C0831263499002F5E4F0A3F0854593
:1082F00082854683803212C01975F00AA4F8ABF06B
:1083000075F00AE9A42BF9E82AF8E439F9E824D051
:10831000F8E934FFF99002F5129389854582854684
:1083200083A3858245858346E0FA74D02AC3940AE4
:1083300050159002F5C3E09499A3E094199002F5CA
:1083400040B474FFF0A3F0803DC082C0837A007B0C
:1083500000854582854683E0F974226960057427AB
:1083600069701F854683A385824585834680050AFB
:10837000EA70010B12C744E0F8E9686009740A6802
:1083800070ED7AFF7BFFD083D0820243B074F71286
:10839000509CEAFEEBFF800C1270D58E828F83A377
:1083A000AE82AF838E828F83E0F970EC790A12700F
:1083B000D5800574021250427F0102516E74F01292
:1083C000509C89248A2275232012C82CF525A3E00D
:1083D000F5269002F1E02403128501AA25AB26E4DC
:1083E000FCFDA924126355800579201270D58522E1
:1083F0002574FF2525F5220470EF800BEE24FE1274
:10840000C766F52185212312C82CF5219002F1E0E1
:10841000240108128502740A652170030284F9E5BB
:1084200021C394805007A9211270D580D77CE17DAB
:108430001C802474806B7004A827A92888828983F3
:10844000A3A882A983E8FEE9FF88828983E0701CE3
:10845000EC2402FC50010D8C828D8312CA82EE4FF7
:1084600060A2EEF8EFF980E1A827A9288882898325
:10847000A385822785832888828983E0C3948040EE
:10848000E7E0FBE5216B70AB74806521701D8527EB
:1084900082852883E0F5269002F112B71AE065265E
:1084A00070919002F1E0240112850174206523602F
:1084B0000979208002A9211270D58E828F83E0F580
:1084C00021A3AE82AF83E521C3948040E812C82C7B
:1084D000F874286870030283FC742C6870030283AC
:1084E000FCEE24FF12C76664CD70030283FC792082
:1084F0001270D5752120028404790A1270D502BA4F
:108500001BF8A3E03400F99002F1E8F0A3E9F022AF
:1085100074F012509CE9FEEAFF7521007522007587
:108520002300752400802274D02AFAEAC39F504B9E
:108530008F25E4F526F527F52878217925124C3783
:108540008A2578217925124DF4EEF974FF29FE046D
:10855000602F85458285468312B64674D02AC3941F
:108560000A40C474BF2AC39406500474C980BA7404
:108570009F2AC39406500474A980AE75490212B5AF
:1085800082AA21AB22AC23AD2402BA1B74F4125090
:108590009C8921EAFCEBFD74BF29F9E521F52375DF
:1085A00024007402782312501912B49D24FCFAEBB3
:1085B00034FEFBE9131313541FFE18E62EFE08E4E5
:1085C00036FFEE2468F582E43FF583E0C0E07407EF
:1085D00059F8D0E0B800028004C313D8FCA2E040F0
:1085E0000D8C828D8374FDF0A3741CF080118A823F
:1085F0008B8312B63E129389E8240CFAE439FB020D
:10860000BAB974EC12509CEAFEEBFF12B523F97470
:10861000BF29C3941A5055A3858245858346EEFA37
:10862000EFFB1263798A218B228E828F8312CAA478
:10863000704B854523854624790112B461702790DB
:10864000873A7825124407501D8E828F8312B80E08
:10865000F529A3E034FFF52AE4F52BF52C782979E8
:10866000251243DD400C8523458524467A007B0096
:10867000800FE5212AF521E5223526F522AA21AB36
:10868000227F0C02516E74F212509CE9FE8A218BFB
:10869000228A258B26EA240CF8E43526F9C3E498CF
:1086A000FAE499FB784CE62AFA08E63BFBC3EA9524
:1086B0004EEB954F50067549040287928A4C8B4DBC
:1086C000AC4CAD4D8A828B837403F0E525240CA35A
:1086D000F0A3E912B5DC7402F0EA2404F8E43DF9F1
:1086E000EE8882898312B5DCA3A3A3A3A3A3A3E48A
:1086F000F0A312B5B8E024BFFF12B4E9F8E43BF9E7
:10870000E8FAEFF5257526007402782512501978DD
:108710004AE62525F52508E63526F52674075FF88F
:108720007401B800028004C333D8FCFF8A828983B5
:10873000E05F8C828D83A3A3A3A3A3F08A828983A5
:10874000E04FF0852582852683124F1A8C828D8317
:10875000A3A3A3A3A3A3124F26852582852683EC7A
:10876000F0A3EDF0784CE6240CFA08E436FB740E26
:10877000125078E0FCA3E0FDEC4D600D7821125220
:10878000AF12C73E1250428009AC21AD22790012CF
:10879000717702CA7D74F712509C74FE12502CE55A
:1087A000434544607F7543007544007E028005EEBA
:1087B000F912713574FF2EFE0470F47C6C7D007923
:1087C00000AA4AAB4B1271777C1C7D0079007A338A
:1087D0007B031271777E00EEF91270E70EEEC39400
:1087E0000440F490034FE4F0FAFB1270F3854A4C16
:1087F000854B4DAE47AF48801C8E828F83E0640569
:108800007010AC41AD42A3A3A312B79612C7E612F3
:1088100067BD12CD08C3EE954EEF954F40DB8547FF
:108820004E85484F0283B374F012509CE9FEEA244F
:10883000FCFCEB34FFFD74C36E701A8C828D837860
:1088400021124ECC7821124D918C828D8378211289
:108850004EDB028A49ECFAEDFBEC24FCFCED34FF24
:10886000FDE91252F3B1113D8A8D88A188B588D1F6
:1088700088FA882F89448959896E897D899389A9C5
:1088800089A989BF89D5897D89FE89198A8A828BC0
:10889000837821124ECC8C828D837821124E1A80DF
:1088A000B18A828B837821124ECC8C828D83782181
:1088B000124E59809D8C828D837821124ECC8A82F3
:1088C0008B837825124ECC78217925124C37028A79
:1088D000328A828B837825124ECCE52545264527A2
:1088E00045287003028A428C828D837821124ECCF7
:1088F00078217925124D50028A328A828B8378251D
:10890000124ECCE5254526452745287003028A42AC
:108910008C828D837821124ECC78217925124D508E
:10892000852521852622852723852824028A328AC7
:10893000828B837821124ECC8C828D837821124ECB
:1089400080028A498A828B837821124ECC8C828D58
:10895000837821124EA6028A498A828B837821125B
:108960004ECC8C828D837821124EB9028A498A823C
:108970008B837821124ECC8C828D83804F8A828BA0
:10898000837821124ECC8C828D8378211243C8606B
:108990005C80568C828D837821124ECC8A828B83A8
:1089A00078211243F2504680408A828B83782112CC
:1089B0004ECC8C828D8378211243C87030802A8CF3
:1089C000828D837821124ECC8A828B837821124348
:1089D000F2401A80148A828B837821124ECC8C82CA
:1089E0008D8378211243F25004D2F08002C2F0A2AB
:1089F000F0E433F521E4F522F523F52480348C826C
:108A00008D837821124ECC8A828B837825124ECCAE
:108A1000E5257821124DD580198C828D837821121D
:108A20004ECC8A828B837825124ECCE52578211294
:108A30004DA28C828D837821124EDB800C75490209
:108A400080037549037A007B0002BA1B74EA125056
:108A50009C74C712502C7404125078E9F0752601EA
:108A6000E5496003028D827419125082882189229F
:108A7000AE21AF227409125082882D892E74021201
:108A80005078EEF0A3EFF07402125078E0F5217404
:108A900002782112500A740712507812BD2A740904
:108AA00012508274051250781293898037743912EB
:108AB0005078E5826E7003E5836F7003028BC18589
:108AC0004582854683E012B428746D28F58274834C
:108AD0003912CE0412938F852345852446AE27AFE5
:108AE00028752600854582854683E0F525A3858285
:108AF000458583467845E62401F52308E436F524C8
:108B000018E624FFFA08E634FFFBE52D2402F521E0
:108B1000E4352EF522EE2404F527E43FF528E5257B
:108B20001253D0049698028EB3C29892CACC028E89
:108B3000CED0028E0D0AE78B20E48A28CE8D29CB79
:108B40008E2C498E80AD8A82028EB19892B28F921D
:108B5000C8028EC94C8CCD228CF1028E5E8B74D0F3
:108B60002525C3940A50397439125078E5826E7005
:108B700003E5836F604B8A458B468E218F22AE279B
:108B8000AF287A0A79FF126373EAF8EBF9ECFAED91
:108B9000FB852182852283124F26754900028AE1D6
:108BA00074BF2525C3941A503E12CA9570197419C2
:108BB000125078C3E5219582E52295835003028EF9
:108BC00016754904028D827439125078E5826E70F0
:108BD00003E5836F60EB8A828B83124F1A8E828F3C
:108BE00083124F26028ADD8A458B4674051250781F
:108BF000C3E0952DA3E0952E4003029331E52D248B
:108C0000FEF52DE52E34FFF52EEEFAEFFB852D82D5
:108C1000852E83E012935112507812939E40CC021D
:108C20008D7B7439125078E5826E7003E5836F6036
:108C3000908E218F22AE27AF287A1079FF126373AE
:108C4000852182852283124EF6028B9A8545828584
:108C50004683E064286003028D7B85234585244696
:108C6000854582854683E0F9749F696003028CFF25
:108C700075230012634912B4AAE0A2E74015858269
:108C80004585834624D0F523C394024003028D7B9F
:108C9000126349854582854683A3E0F974A769601C
:108CA0000874A8696003028D7B854582854683A38D
:108CB000A3E064296003028D7B854582854683A3FA
:108CC000A3A38582458583467439125078E5826E68
:108CD0007003E5836F7003028BC18E218F22AE2754
:108CE000AF2874A76970047A5280027A57A92312B8
:108CF0007147E985218285228312B5AF028AE1128C
:108D00009364EAFCEBFD18E624020A08E436FB74DF
:108D10002269707B8A828B83E0642270728C828DE0
:108D20008312B62E5003028AE174D028C3940A50ED
:108D30004A7439125078E5826E7003E5836F7003D0
:108D4000028BC1745028F9126343E9F88E828F8335
:108D5000AE27AF28600924FFFAE434FFFB80047AD1
:108D6000007B00EB3395E0FC12B5A5F07845E624D6
:108D70000312B4C264297003028AE1E549700375E5
:108D800049027A007B007C007D00743902CBE574D7
:108D9000BF29C3941A50E48C828D83E0642970DB70
:108DA0007439125078E5826E7003E5836F700302A8
:108DB0008BC18A458B46AA41AB4212CA9B70BC123A
:108DC00093A5F8A3E034FFF912938F028ADD74199A
:108DD000125078E582652D7004E583652E700302DC
:108DE0008BC17407125078E0F98E238F24740278B7
:108DF0002312500AE523C399852D82852E83A3F083
:108E000080147419125078E582652D7004E583652D
:108E10002E7003028BC1852D82852E83E525F0857A
:108E2000212D85222E752601028AE4E52D24FEF5EA
:108E30002DE52E12937BF86428602D12934C12506E
:108E40007812939E4003028D7B7409125082E52DA7
:108E5000687003E52E6970D37404125078E06402E0
:108E60006003028D7B028BEBE52D2402F52D500271
:108E7000052E028AE175B61FE5B4A2E750FAE5BAFD
:108E8000A9BBF521E9F52274067821124FFAE522F3
:108E900012BD4790872E7825124ECC782179251265
:108EA0004C379087067825124ECC78217925124DC3
:108EB000508E828F837821124EDB028FA112934C49
:108EC00012507812939E4003028D7BE52D24FEFA0A
:108ED000E52E34FFFB8A2DF52E8A82F583E0F864B7
:108EE0002870DAA3E0FC7407125078E0F98E218F25
:108EF000227402782112500AE521C399C39CFC74A4
:108F000009125082EA687002EB69700D7404125005
:108F100078E064017003028BEB7405125078C3E0B3
:108F2000952DA3E0952E4003028AE4EA24FEF52D58
:108F3000EB12937BF525EC706FEE2404F529E43FEA
:108F4000F52AE525247E603824B7600D14700302ED
:108F50008E7524FC6017028D7B8E218F22AE29AF87
:108F60002A12710585218285228302914D8E218FDF
:108F700022AE29AF2A790012715312B5090291AAC3
:108F8000794C784EE7C396FA0809E796FBEAF8EBC6
:108F90003395E0FA8E828F83E812B5A0A3EAF0A39E
:108FA000F0AE29AF2A028E2574016C600302920C88
:108FB00012936E124ECCE525246A70030291371489
:108FC000700302913D14700302914324D060192470
:108FD000FE603B24FC604D24FE700302918F24DF71
:108FE00070030291530291B190873A78211244079D
:108FF00040057821124D918521258522268523273C
:1090000085242812CC657825124EDB028E2512713C
:109010007D8A258B26E4F527F52878257921124DC0
:10902000500292869086EA782112444D5003028DB8
:109030007BE52175F007A4F521A8F075F007E5227E
:10904000A428F52274332521F52974033522F52A45
:10905000852982F583A3E07003028D7B85298285B3
:109060002A83E0F8C394415003029113E5292402B6
:10907000F52BE4352AF52CE824BFF525E434FF125E
:10908000B515124DD59086E67825124E07852B82B0
:10909000852C8312B6BE124E93AA25AB26AC27AD03
:1090A0002812631F8A218B22A821A922EA4960780D
:1090B000852982852A83A3A3A3A3E0FA88828B83D0
:1090C000A3A3E06A705D852982852A8312B62512E2
:1090D000B519124DD59086E67821124E07852B8260
:1090E000852C8312B7DB852982852A8312C7E1127A
:1090F0004FA18A258B26E4F527F5287821792512BA
:109100004E93AA21AB22AC23AD2412631FEA4B601D
:109110001780107C007D007A00E02450F91272A3C1
:10912000E970057521008003752101752200752302
:1091300000752400029286AA217900800AAA21796A
:10914000018004AA2179021263CD12CC65124EF679
:10915000028E25852226E52654806003028D7B85BC
:109160002125AA25E526540FFBC39404400D9086C3
:10917000E278211244074003028D7BEE24FCFCEFD1
:1091800034FFFD1272E5E96003028D7B028E25E556
:10919000214522452345246004790180027900128B
:1091A0007153EB3395E0FC12CC6512B59FA3EC80B4
:1091B0004E74BF2525C3941A504B12CA9560030202
:1091C0008D7B90873A78211244074003028D7B12F1
:1091D000B808F525A3E034FFF526E4F527F528784F
:1091E0002579211243DD4003028D7BEA2521F5829A
:1091F000EB3522F583E0FA12CC65EA12B59AA3F0BA
:10920000A3F0028E258A2D8B2E028E2574026C60AF
:1092100003028D7BEE24F8129371124ECC7821124A
:10922000446C9086DA7825124ECC78217925124646
:109230009212CC657829124ECC782912446C908613
:10924000DA7825124ECC78297925124692EE24FC44
:10925000FEEF34FFFF78291252ABAA21AB22AC23D8
:10926000AD2412735D74041250428A218B228C2328
:109270008D249086D67825124ECC782179251246F9
:109280009278211244E412936E124EDB028E25E591
:1092900026A2E050037525C3A825744628F582E46C
:1092A0003484F583E0F5217409125082E52D68704D
:1092B00003E52E696051E52D24FEF8E52E34FFF913
:1092C0008882F583E0FC744F2CFAC39413503874F1
:1092D000F72AF582E43484F583E0FAE521C39A4065
:1092E00026882D892EEEFAEFFBECF91263918A2382
:1092F0008B24A823A924EAFEEBFF740212507812F3
:10930000939E40A3028D7B7419125078E582652DDF
:109310007004E583652E7003028BC1852D82852E36
:1093200083E525F0E52D2402F52D5002052E028E51
:1093300025741D125078E5826E7003E5836F60031B
:10934000028D7B12CC65124EEA028D8AEEFAEFFB9B
:10935000E8F91263918A218B22A821A922EAFEEB67
:10936000FF74022218E62401FA08E436FB22EE24F8
:10937000FCF582EF34FFF58378212234FFF52E854A
:109380002D82F583E02290031BE8F0A3E9F0228E02
:10939000828F83E8F0A3E9F0A3E4F0A3F022C3E016
:1093A00098A3E0992285418285428312B8142274E1
:1093B000F612509C7A007B0D12723D9002F312B5AA
:1093C0009F7C007D0D79001271779002F312B7BB7C
:1093D0002494F582E8340CF58385824A85834B8595
:1093E0004A4CF54D9002F312C7E61262FB8A478B96
:1093F000488A4E8B4F7F0202516E74F412509C7A51
:109400002C7B831263677A2F7B8512636712B4D734
:109410007A5E7B8712636702BAB974F612509C12A7
:1094200070E112639D12948B908732124EEA1263A0
:109430001FEA4B60379002F3C3E09547A3E09548DD
:10944000502A9002F312C82FF8A312B63A1252C64D
:1094500075210078211252B3908746124EEA7903A3
:109460001270ED74031250427901800279008085F8
:10947000C082C083800C79007A007B001263B51231
:10948000948B1270CFE970EE028386AC4CAD4D78B0
:109490004EE62402FA08E436FB1270C92274E81280
:1094A000509C74E912502C740A125078E9F0EAFECC
:1094B000EBFFE0A2E150091271059002F7124EF69F
:1094C000754900EE4F60479002F5EEF0A3EFF0749F
:1094D0000A125078E0A2E0501D784CE624FD12B547
:1094E00074500302A1228A4C8B4D8A828B837404B0
:1094F000F0A31412B59A12B79B8A828B8312B70617
:10950000EA9547EB95485003029652029852854ED1
:1095100082854F83A3A385824585834612634F7E50
:10952000007402125078EEF004FEE0FA7845E62A64
:10953000F58208E436F583E0640A70E5EEF8C3E4EA
:1095400098F52195E0F522EEF52375240078231295
:1095500052AFAC45AD46784C12BA201270DB7402A3
:10956000125042784CE62521FA08E635228A45F564
:109570004612635B1263499002F512CAAE701F85F2
:109580004743854844854E82854F83A3A385824502
:10959000858346E0640A600302965202963F900279
:1095A000F5E0F47003A3E0F4700302984B12638BB0
:1095B0007845E624FDFA08E634FFFB8A45F546A81F
:1095C00045AA4CEAC398FE9002F512CE0685458264
:1095D0008B83129389EE8545828B83A3A3F0854507
:1095E000828B83A3A3A3E0640A700F9002F512C7D5
:1095F000E61263258A478B48803F90029FE0D2E2C3
:10960000F0AA4512B4027026AC4CAD4D9002F31294
:10961000C7E6EEF9126337AA45AB4612B402700EE4
:1096200090029FE0C2E2F07902741702C72E900206
:109630009FE0C2E2F08847894885474E85484F122F
:10964000948B790180E3E96003029FAA85824585B6
:109650008346AA45AB468A828B83A3858245858350
:10966000467845E62402F52108E436F5228A828B05
:1096700083E0F52312936418E624FFFC08E634FF28
:10968000FDAE47AF48A843A944E5231252F3802812
:10969000E4964B9869978297069821983A98A698ED
:1096A000A698E19FD498F99800A1A397A3975299FF
:1096B00022A2DB99A397099A589A7E9AD09AFE9A89
:1096C000FE9AFE9A4E9B5E9BBF9B349C9E9C019D86
:1096D000719DE49695B2509EE496E4967E9EBE9E61
:1096E000F39E249F8C458D46E523C394804003025E
:1096F000984BAA41AB4212637F8A218B2285458217
:10970000854683E064BD600302984BEA4B701512F6
:10971000CAA8700302984B12C807A3A3E0640260B2
:109720000302984B754900854582854683A385824F
:1097300045858346EA4B700302A15912B459125071
:1097400078124EF6E549600302984B12CA9E6003F8
:1097500002A14674061250787825124ECC852182DB
:10976000852283E525F002A1B17E0112635B854568
:1097700082854683E0640A600302984B12B79B021D
:10978000A1E012B4D7794C784EE7C396FA0809E7FE
:1097900096FB3395E0FCFD79001263557AB97B8422
:1097A000126367854382854483A3A38582438583AF
:1097B0004412B70612B4114003029852740A1250B0
:1097C00078E0A2E140030296521271058A258B26A9
:1097D0008C278D28901D0912CA89E4F523F5249061
:1097E00002F77825124E41782179251243DD500386
:1097F00002965285438285448312C82FFAA3E0FB68
:109800001270F302963F854582854683E0640A70B4
:109810003A12638B12632B8A478B488A4E8B4F8098
:109820003112638B9002F312BA45C3E5439547E5C5
:1098300044954850030299468018854582854683A1
:10984000E024BFC3941A500302A0F4E549700375E5
:109850004901E54912B428741D28F582748539F54B
:109860008312C7E612636712B4105025E5497003EE
:1098700002963F12B67A793E1270D5793E1270D5B3
:1098800079201270D57A01790012636D790A12700D
:10989000D574046549600302963F7A137B86126390
:1098A000677E00029F9A12B459125078124EF6E564
:1098B000497098854582854683E0640A70917406F4
:1098C000125078124F1AE8494A4B60030297A37965
:1098D00000029FAA12C7C1600302984B854582858A
:1098E0004683E0640A600302984F1263018A438B47
:1098F00044C3EA9547EB02983112C7C1600302984E
:109900004B854582854683E0640A600302984F7860
:109910004CE624FB12B574500302A1228A4C8B4DF5
:109920008A828B837401F0A37405F0A3E412B5DC82
:10993000E543F0A3E544F012B79BC3EA9547EB95E6
:1099400048400302985285438285448312B6F2024E
:10995000964C854582854683E0F874BF28FEC39403
:109960001A400302984B740F125078E8F08A458B26
:109970004612B52364BD600302984BA385824585DA
:10998000834612B481600302984BA845A946888299
:109990008983A385824585834688828983E064D351
:1099A000600302984F790012B461600302984BA8DB
:1099B00045A94688828983A3858245858346888216
:1099C0008983E064D4600302A02312B44F8C2B8DF2
:1099D0002CE549600302984B02A0327E0085458247
:1099E000854683E0645570168A828B83E0645070EC
:1099F0000D852182852283E0640A70027E01126354
:109A00008BEEF912711102984B85458285468312BF
:109A1000B62E400302984B7402125078E8F08A4543
:109A20008B46790112B471600302984BEA4B4C4D9E
:109A3000700302984FE4F525F52678251252AF748D
:109A400004125078E0F91263857402125042E5491D
:109A5000600302984B0297A37F0012B43EFEE549D3
:109A6000600302984B12B52364D5600302A2AAA337
:109A7000858245858346EEF91270E70297A312B4FA
:109A800059125078124EF6E549600302984B9087C0
:109A90003A7821124ECC740612507878211243F293
:109AA000500302A31E854382854483A3A312C7F6F5
:109AB0001252C675210078211252B37409125078DF
:109AC000124EEA79031270ED740312504202963F6F
:109AD00012B46F600302984BEA4B4C4D700302A323
